{"abi":[{"inputs":[{"internalType":"uint256","name":"minimum","type":"uint256"},{"internalType":"string","name":"name","type":"string"},{"internalType":"string","name":"description","type":"string"},{"internalType":"string","name":"image","type":"string"},{"internalType":"uint256","name":"target","type":"uint256"}],"name":"createCampaign","outputs":[],"stateMutability":"nonpayable","type":"function"},{"inputs":[{"internalType":"uint256","name":"","type":"uint256"}],"name":"deployedCampaigns","outputs":[{"internalType":"address","name":"","type":"address"}],"stateMutability":"view","type":"function"},{"inputs":[],"name":"getDeployedCampaigns","outputs":[{"internalType":"address[]","name":"","type":"address[]"}],"stateMutability":"view","type":"function"}],"devdoc":{"kind":"dev","methods":{},"version":1},"evm":{"assembly":"    /* \"Campaigns.sol\":8452:10113  contract CampaignFactory {... */\n  mstore(0x40, 0x80)\n    /* \"Campaigns.sol\":8765:8807  0x9Dc1e8f41113B41f796a337a4A7F889aCF4CC748 */\n  0x9dc1e8f41113b41f796a337a4a7f889acf4cc748\n    /* \"Campaigns.sol\":8733:8808  Whitelist whitelist = Whitelist(0x9Dc1e8f41113B41f796a337a4A7F889aCF4CC748) */\n  0x00\n  dup1\n  0x0100\n  exp\n  dup2\n  sload\n  dup2\n  0xffffffffffffffffffffffffffffffffffffffff\n  mul\n  not\n  and\n  swap1\n  dup4\n  0xffffffffffffffffffffffffffffffffffffffff\n  and\n  mul\n  or\n  swap1\n  sstore\n  pop\n    /* \"Campaigns.sol\":8452:10113  contract CampaignFactory {... */\n  callvalue\n  dup1\n  iszero\n  tag_1\n  jumpi\n  0x00\n  dup1\n  revert\ntag_1:\n  pop\n  dataSize(sub_0)\n  dup1\n  dataOffset(sub_0)\n  0x00\n  codecopy\n  0x00\n  return\nstop\n\nsub_0: assembly {\n        /* \"Campaigns.sol\":8452:10113  contract CampaignFactory {... */\n      mstore(0x40, 0x80)\n      callvalue\n      dup1\n      iszero\n      tag_1\n      jumpi\n      0x00\n      dup1\n      revert\n    tag_1:\n      pop\n      jumpi(tag_2, lt(calldatasize, 0x04))\n      shr(0xe0, calldataload(0x00))\n      dup1\n      0x339d50a5\n      eq\n      tag_3\n      jumpi\n      dup1\n      0x4acb9d4f\n      eq\n      tag_4\n      jumpi\n      dup1\n      0xd4ddd71a\n      eq\n      tag_5\n      jumpi\n    tag_2:\n      0x00\n      dup1\n      revert\n        /* \"Campaigns.sol\":8814:8848  address[] public deployedCampaigns */\n    tag_3:\n      tag_6\n      0x04\n      dup1\n      calldatasize\n      sub\n      dup2\n      add\n      swap1\n      tag_7\n      swap2\n      swap1\n      tag_8\n      jump\t// in\n    tag_7:\n      tag_9\n      jump\t// in\n    tag_6:\n      mload(0x40)\n      tag_10\n      swap2\n      swap1\n      tag_11\n      jump\t// in\n    tag_10:\n      mload(0x40)\n      dup1\n      swap2\n      sub\n      swap1\n      return\n        /* \"Campaigns.sol\":9349:9461  function getDeployedCampaigns() public view returns (address[] memory) {... */\n    tag_4:\n      tag_12\n      tag_13\n      jump\t// in\n    tag_12:\n      mload(0x40)\n      tag_14\n      swap2\n      swap1\n      tag_15\n      jump\t// in\n    tag_14:\n      mload(0x40)\n      dup1\n      swap2\n      sub\n      swap1\n      return\n        /* \"Campaigns.sol\":8968:9343  function createCampaign(... */\n    tag_5:\n      tag_16\n      0x04\n      dup1\n      calldatasize\n      sub\n      dup2\n      add\n      swap1\n      tag_17\n      swap2\n      swap1\n      tag_18\n      jump\t// in\n    tag_17:\n      tag_19\n      jump\t// in\n    tag_16:\n      stop\n        /* \"Campaigns.sol\":8814:8848  address[] public deployedCampaigns */\n    tag_9:\n      0x01\n      dup2\n      dup2\n      sload\n      dup2\n      lt\n      tag_20\n      jumpi\n      0x00\n      dup1\n      revert\n    tag_20:\n      swap1\n      0x00\n      mstore\n      keccak256(0x00, 0x20)\n      add\n      0x00\n      swap2\n      pop\n      sload\n      swap1\n      0x0100\n      exp\n      swap1\n      div\n      0xffffffffffffffffffffffffffffffffffffffff\n      and\n      dup2\n      jump\t// out\n        /* \"Campaigns.sol\":9349:9461  function getDeployedCampaigns() public view returns (address[] memory) {... */\n    tag_13:\n        /* \"Campaigns.sol\":9402:9418  address[] memory */\n      0x60\n        /* \"Campaigns.sol\":9437:9454  deployedCampaigns */\n      0x01\n        /* \"Campaigns.sol\":9430:9454  return deployedCampaigns */\n      dup1\n      sload\n      dup1\n      0x20\n      mul\n      0x20\n      add\n      mload(0x40)\n      swap1\n      dup2\n      add\n      0x40\n      mstore\n      dup1\n      swap3\n      swap2\n      swap1\n      dup2\n      dup2\n      mstore\n      0x20\n      add\n      dup3\n      dup1\n      sload\n      dup1\n      iszero\n      tag_23\n      jumpi\n      0x20\n      mul\n      dup3\n      add\n      swap2\n      swap1\n      0x00\n      mstore\n      keccak256(0x00, 0x20)\n      swap1\n    tag_24:\n      dup2\n      0x00\n      swap1\n      sload\n      swap1\n      0x0100\n      exp\n      swap1\n      div\n      0xffffffffffffffffffffffffffffffffffffffff\n      and\n      0xffffffffffffffffffffffffffffffffffffffff\n      and\n      dup2\n      mstore\n      0x20\n      add\n      swap1\n      0x01\n      add\n      swap1\n      dup1\n      dup4\n      gt\n      tag_24\n      jumpi\n    tag_23:\n      pop\n      pop\n      pop\n      pop\n      pop\n      swap1\n      pop\n        /* \"Campaigns.sol\":9349:9461  function getDeployedCampaigns() public view returns (address[] memory) {... */\n      swap1\n      jump\t// out\n        /* \"Campaigns.sol\":8968:9343  function createCampaign(... */\n    tag_19:\n        /* \"Campaigns.sol\":8899:8908  whitelist */\n      0x00\n      dup1\n      sload\n      swap1\n      0x0100\n      exp\n      swap1\n      div\n      0xffffffffffffffffffffffffffffffffffffffff\n      and\n        /* \"Campaigns.sol\":8899:8916  whitelist.hasRole */\n      0xffffffffffffffffffffffffffffffffffffffff\n      and\n      0x217fe6c6\n        /* \"Campaigns.sol\":8917:8927  msg.sender */\n      caller\n        /* \"Campaigns.sol\":8899:8943  whitelist.hasRole(msg.sender, \"fund_raiser\") */\n      mload(0x40)\n      dup3\n      0xffffffff\n      and\n      0xe0\n      shl\n      dup2\n      mstore\n      0x04\n      add\n      tag_26\n      swap2\n      swap1\n      tag_27\n      jump\t// in\n    tag_26:\n      0x20\n      mload(0x40)\n      dup1\n      dup4\n      sub\n      dup2\n      dup7\n      gas\n      staticcall\n      iszero\n      dup1\n      iszero\n      tag_29\n      jumpi\n      returndatasize\n      0x00\n      dup1\n      returndatacopy\n      revert(0x00, returndatasize)\n    tag_29:\n      pop\n      pop\n      pop\n      pop\n      mload(0x40)\n      returndatasize\n      not(0x1f)\n      0x1f\n      dup3\n      add\n      and\n      dup3\n      add\n      dup1\n      0x40\n      mstore\n      pop\n      dup2\n      add\n      swap1\n      tag_30\n      swap2\n      swap1\n      tag_31\n      jump\t// in\n    tag_30:\n        /* \"Campaigns.sol\":8891:8944  require(whitelist.hasRole(msg.sender, \"fund_raiser\")) */\n      tag_32\n      jumpi\n      0x00\n      dup1\n      revert\n    tag_32:\n        /* \"Campaigns.sol\":9171:9190  address newCampaign */\n      0x00\n        /* \"Campaigns.sol\":9227:9234  minimum */\n      dup6\n        /* \"Campaigns.sol\":9236:9246  msg.sender */\n      caller\n        /* \"Campaigns.sol\":9248:9252  name */\n      dup7\n        /* \"Campaigns.sol\":9254:9265  description */\n      dup7\n        /* \"Campaigns.sol\":9267:9272  image */\n      dup7\n        /* \"Campaigns.sol\":9274:9280  target */\n      dup7\n        /* \"Campaigns.sol\":9214:9281  new Campaign(minimum, msg.sender, name, description, image, target) */\n      mload(0x40)\n      tag_34\n      swap1\n      tag_35\n      jump\t// in\n    tag_34:\n      tag_36\n      swap7\n      swap6\n      swap5\n      swap4\n      swap3\n      swap2\n      swap1\n      tag_37\n      jump\t// in\n    tag_36:\n      mload(0x40)\n      dup1\n      swap2\n      sub\n      swap1\n      0x00\n      create\n      dup1\n      iszero\n      dup1\n      iszero\n      tag_38\n      jumpi\n      returndatasize\n      0x00\n      dup1\n      returndatacopy\n      revert(0x00, returndatasize)\n    tag_38:\n      pop\n        /* \"Campaigns.sol\":9171:9291  address newCampaign = address(... */\n      swap1\n      pop\n        /* \"Campaigns.sol\":9301:9318  deployedCampaigns */\n      0x01\n        /* \"Campaigns.sol\":9324:9335  newCampaign */\n      dup2\n        /* \"Campaigns.sol\":9301:9336  deployedCampaigns.push(newCampaign) */\n      swap1\n      dup1\n      0x01\n      dup2\n      sload\n      add\n      dup1\n      dup3\n      sstore\n      dup1\n      swap2\n      pop\n      pop\n      0x01\n      swap1\n      sub\n      swap1\n      0x00\n      mstore\n      keccak256(0x00, 0x20)\n      add\n      0x00\n      swap1\n      swap2\n      swap1\n      swap2\n      swap1\n      swap2\n      0x0100\n      exp\n      dup2\n      sload\n      dup2\n      0xffffffffffffffffffffffffffffffffffffffff\n      mul\n      not\n      and\n      swap1\n      dup4\n      0xffffffffffffffffffffffffffffffffffffffff\n      and\n      mul\n      or\n      swap1\n      sstore\n      pop\n        /* \"Campaigns.sol\":9161:9343  {... */\n      pop\n        /* \"Campaigns.sol\":8968:9343  function createCampaign(... */\n      pop\n      pop\n      pop\n      pop\n      pop\n      jump\t// out\n    tag_35:\n      dataSize(sub_0)\n      dup1\n      dataOffset(sub_0)\n      dup4\n      codecopy\n      add\n      swap1\n      jump\t// out\n        /* \"#utility.yul\":7:82   */\n    tag_40:\n        /* \"#utility.yul\":40:46   */\n      0x00\n        /* \"#utility.yul\":73:75   */\n      0x40\n        /* \"#utility.yul\":67:76   */\n      mload\n        /* \"#utility.yul\":57:76   */\n      swap1\n      pop\n        /* \"#utility.yul\":7:82   */\n      swap1\n      jump\t// out\n        /* \"#utility.yul\":88:205   */\n    tag_41:\n        /* \"#utility.yul\":197:198   */\n      0x00\n        /* \"#utility.yul\":194:195   */\n      dup1\n        /* \"#utility.yul\":187:199   */\n      revert\n        /* \"#utility.yul\":211:328   */\n    tag_42:\n        /* \"#utility.yul\":320:321   */\n      0x00\n        /* \"#utility.yul\":317:318   */\n      dup1\n        /* \"#utility.yul\":310:322   */\n      revert\n        /* \"#utility.yul\":334:411   */\n    tag_43:\n        /* \"#utility.yul\":371:378   */\n      0x00\n        /* \"#utility.yul\":400:405   */\n      dup2\n        /* \"#utility.yul\":389:405   */\n      swap1\n      pop\n        /* \"#utility.yul\":334:411   */\n      swap2\n      swap1\n      pop\n      jump\t// out\n        /* \"#utility.yul\":417:539   */\n    tag_44:\n        /* \"#utility.yul\":490:514   */\n      tag_82\n        /* \"#utility.yul\":508:513   */\n      dup2\n        /* \"#utility.yul\":490:514   */\n      tag_43\n      jump\t// in\n    tag_82:\n        /* \"#utility.yul\":483:488   */\n      dup2\n        /* \"#utility.yul\":480:515   */\n      eq\n        /* \"#utility.yul\":470:533   */\n      tag_83\n      jumpi\n        /* \"#utility.yul\":529:530   */\n      0x00\n        /* \"#utility.yul\":526:527   */\n      dup1\n        /* \"#utility.yul\":519:531   */\n      revert\n        /* \"#utility.yul\":470:533   */\n    tag_83:\n        /* \"#utility.yul\":417:539   */\n      pop\n      jump\t// out\n        /* \"#utility.yul\":545:684   */\n    tag_45:\n        /* \"#utility.yul\":591:596   */\n      0x00\n        /* \"#utility.yul\":629:635   */\n      dup2\n        /* \"#utility.yul\":616:636   */\n      calldataload\n        /* \"#utility.yul\":607:636   */\n      swap1\n      pop\n        /* \"#utility.yul\":645:678   */\n      tag_85\n        /* \"#utility.yul\":672:677   */\n      dup2\n        /* \"#utility.yul\":645:678   */\n      tag_44\n      jump\t// in\n    tag_85:\n        /* \"#utility.yul\":545:684   */\n      swap3\n      swap2\n      pop\n      pop\n      jump\t// out\n        /* \"#utility.yul\":690:1019   */\n    tag_8:\n        /* \"#utility.yul\":749:755   */\n      0x00\n        /* \"#utility.yul\":798:800   */\n      0x20\n        /* \"#utility.yul\":786:795   */\n      dup3\n        /* \"#utility.yul\":777:784   */\n      dup5\n        /* \"#utility.yul\":773:796   */\n      sub\n        /* \"#utility.yul\":769:801   */\n      slt\n        /* \"#utility.yul\":766:885   */\n      iszero\n      tag_87\n      jumpi\n        /* \"#utility.yul\":804:883   */\n      tag_88\n      tag_41\n      jump\t// in\n    tag_88:\n        /* \"#utility.yul\":766:885   */\n    tag_87:\n        /* \"#utility.yul\":924:925   */\n      0x00\n        /* \"#utility.yul\":949:1002   */\n      tag_89\n        /* \"#utility.yul\":994:1001   */\n      dup5\n        /* \"#utility.yul\":985:991   */\n      dup3\n        /* \"#utility.yul\":974:983   */\n      dup6\n        /* \"#utility.yul\":970:992   */\n      add\n        /* \"#utility.yul\":949:1002   */\n      tag_45\n      jump\t// in\n    tag_89:\n        /* \"#utility.yul\":939:1002   */\n      swap2\n      pop\n        /* \"#utility.yul\":895:1012   */\n      pop\n        /* \"#utility.yul\":690:1019   */\n      swap3\n      swap2\n      pop\n      pop\n      jump\t// out\n        /* \"#utility.yul\":1025:1151   */\n    tag_46:\n        /* \"#utility.yul\":1062:1069   */\n      0x00\n        /* \"#utility.yul\":1102:1144   */\n      0xffffffffffffffffffffffffffffffffffffffff\n        /* \"#utility.yul\":1095:1100   */\n      dup3\n        /* \"#utility.yul\":1091:1145   */\n      and\n        /* \"#utility.yul\":1080:1145   */\n      swap1\n      pop\n        /* \"#utility.yul\":1025:1151   */\n      swap2\n      swap1\n      pop\n      jump\t// out\n        /* \"#utility.yul\":1157:1253   */\n    tag_47:\n        /* \"#utility.yul\":1194:1201   */\n      0x00\n        /* \"#utility.yul\":1223:1247   */\n      tag_92\n        /* \"#utility.yul\":1241:1246   */\n      dup3\n        /* \"#utility.yul\":1223:1247   */\n      tag_46\n      jump\t// in\n    tag_92:\n        /* \"#utility.yul\":1212:1247   */\n      swap1\n      pop\n        /* \"#utility.yul\":1157:1253   */\n      swap2\n      swap1\n      pop\n      jump\t// out\n        /* \"#utility.yul\":1259:1377   */\n    tag_48:\n        /* \"#utility.yul\":1346:1370   */\n      tag_94\n        /* \"#utility.yul\":1364:1369   */\n      dup2\n        /* \"#utility.yul\":1346:1370   */\n      tag_47\n      jump\t// in\n    tag_94:\n        /* \"#utility.yul\":1341:1344   */\n      dup3\n        /* \"#utility.yul\":1334:1371   */\n      mstore\n        /* \"#utility.yul\":1259:1377   */\n      pop\n      pop\n      jump\t// out\n        /* \"#utility.yul\":1383:1605   */\n    tag_11:\n        /* \"#utility.yul\":1476:1480   */\n      0x00\n        /* \"#utility.yul\":1514:1516   */\n      0x20\n        /* \"#utility.yul\":1503:1512   */\n      dup3\n        /* \"#utility.yul\":1499:1517   */\n      add\n        /* \"#utility.yul\":1491:1517   */\n      swap1\n      pop\n        /* \"#utility.yul\":1527:1598   */\n      tag_96\n        /* \"#utility.yul\":1595:1596   */\n      0x00\n        /* \"#utility.yul\":1584:1593   */\n      dup4\n        /* \"#utility.yul\":1580:1597   */\n      add\n        /* \"#utility.yul\":1571:1577   */\n      dup5\n        /* \"#utility.yul\":1527:1598   */\n      tag_48\n      jump\t// in\n    tag_96:\n        /* \"#utility.yul\":1383:1605   */\n      swap3\n      swap2\n      pop\n      pop\n      jump\t// out\n        /* \"#utility.yul\":1611:1725   */\n    tag_49:\n        /* \"#utility.yul\":1678:1684   */\n      0x00\n        /* \"#utility.yul\":1712:1717   */\n      dup2\n        /* \"#utility.yul\":1706:1718   */\n      mload\n        /* \"#utility.yul\":1696:1718   */\n      swap1\n      pop\n        /* \"#utility.yul\":1611:1725   */\n      swap2\n      swap1\n      pop\n      jump\t// out\n        /* \"#utility.yul\":1731:1915   */\n    tag_50:\n        /* \"#utility.yul\":1830:1841   */\n      0x00\n        /* \"#utility.yul\":1864:1870   */\n      dup3\n        /* \"#utility.yul\":1859:1862   */\n      dup3\n        /* \"#utility.yul\":1852:1871   */\n      mstore\n        /* \"#utility.yul\":1904:1908   */\n      0x20\n        /* \"#utility.yul\":1899:1902   */\n      dup3\n        /* \"#utility.yul\":1895:1909   */\n      add\n        /* \"#utility.yul\":1880:1909   */\n      swap1\n      pop\n        /* \"#utility.yul\":1731:1915   */\n      swap3\n      swap2\n      pop\n      pop\n      jump\t// out\n        /* \"#utility.yul\":1921:2053   */\n    tag_51:\n        /* \"#utility.yul\":1988:1992   */\n      0x00\n        /* \"#utility.yul\":2011:2014   */\n      dup2\n        /* \"#utility.yul\":2003:2014   */\n      swap1\n      pop\n        /* \"#utility.yul\":2041:2045   */\n      0x20\n        /* \"#utility.yul\":2036:2039   */\n      dup3\n        /* \"#utility.yul\":2032:2046   */\n      add\n        /* \"#utility.yul\":2024:2046   */\n      swap1\n      pop\n        /* \"#utility.yul\":1921:2053   */\n      swap2\n      swap1\n      pop\n      jump\t// out\n        /* \"#utility.yul\":2059:2167   */\n    tag_52:\n        /* \"#utility.yul\":2136:2160   */\n      tag_101\n        /* \"#utility.yul\":2154:2159   */\n      dup2\n        /* \"#utility.yul\":2136:2160   */\n      tag_47\n      jump\t// in\n    tag_101:\n        /* \"#utility.yul\":2131:2134   */\n      dup3\n        /* \"#utility.yul\":2124:2161   */\n      mstore\n        /* \"#utility.yul\":2059:2167   */\n      pop\n      pop\n      jump\t// out\n        /* \"#utility.yul\":2173:2352   */\n    tag_53:\n        /* \"#utility.yul\":2242:2252   */\n      0x00\n        /* \"#utility.yul\":2263:2309   */\n      tag_103\n        /* \"#utility.yul\":2305:2308   */\n      dup4\n        /* \"#utility.yul\":2297:2303   */\n      dup4\n        /* \"#utility.yul\":2263:2309   */\n      tag_52\n      jump\t// in\n    tag_103:\n        /* \"#utility.yul\":2341:2345   */\n      0x20\n        /* \"#utility.yul\":2336:2339   */\n      dup4\n        /* \"#utility.yul\":2332:2346   */\n      add\n        /* \"#utility.yul\":2318:2346   */\n      swap1\n      pop\n        /* \"#utility.yul\":2173:2352   */\n      swap3\n      swap2\n      pop\n      pop\n      jump\t// out\n        /* \"#utility.yul\":2358:2471   */\n    tag_54:\n        /* \"#utility.yul\":2428:2432   */\n      0x00\n        /* \"#utility.yul\":2460:2464   */\n      0x20\n        /* \"#utility.yul\":2455:2458   */\n      dup3\n        /* \"#utility.yul\":2451:2465   */\n      add\n        /* \"#utility.yul\":2443:2465   */\n      swap1\n      pop\n        /* \"#utility.yul\":2358:2471   */\n      swap2\n      swap1\n      pop\n      jump\t// out\n        /* \"#utility.yul\":2507:3239   */\n    tag_55:\n        /* \"#utility.yul\":2626:2629   */\n      0x00\n        /* \"#utility.yul\":2655:2709   */\n      tag_106\n        /* \"#utility.yul\":2703:2708   */\n      dup3\n        /* \"#utility.yul\":2655:2709   */\n      tag_49\n      jump\t// in\n    tag_106:\n        /* \"#utility.yul\":2725:2811   */\n      tag_107\n        /* \"#utility.yul\":2804:2810   */\n      dup2\n        /* \"#utility.yul\":2799:2802   */\n      dup6\n        /* \"#utility.yul\":2725:2811   */\n      tag_50\n      jump\t// in\n    tag_107:\n        /* \"#utility.yul\":2718:2811   */\n      swap4\n      pop\n        /* \"#utility.yul\":2835:2891   */\n      tag_108\n        /* \"#utility.yul\":2885:2890   */\n      dup4\n        /* \"#utility.yul\":2835:2891   */\n      tag_51\n      jump\t// in\n    tag_108:\n        /* \"#utility.yul\":2914:2921   */\n      dup1\n        /* \"#utility.yul\":2945:2946   */\n      0x00\n        /* \"#utility.yul\":2930:3214   */\n    tag_109:\n        /* \"#utility.yul\":2955:2961   */\n      dup4\n        /* \"#utility.yul\":2952:2953   */\n      dup2\n        /* \"#utility.yul\":2949:2962   */\n      lt\n        /* \"#utility.yul\":2930:3214   */\n      iszero\n      tag_111\n      jumpi\n        /* \"#utility.yul\":3031:3037   */\n      dup2\n        /* \"#utility.yul\":3025:3038   */\n      mload\n        /* \"#utility.yul\":3058:3121   */\n      tag_112\n        /* \"#utility.yul\":3117:3120   */\n      dup9\n        /* \"#utility.yul\":3102:3115   */\n      dup3\n        /* \"#utility.yul\":3058:3121   */\n      tag_53\n      jump\t// in\n    tag_112:\n        /* \"#utility.yul\":3051:3121   */\n      swap8\n      pop\n        /* \"#utility.yul\":3144:3204   */\n      tag_113\n        /* \"#utility.yul\":3197:3203   */\n      dup4\n        /* \"#utility.yul\":3144:3204   */\n      tag_54\n      jump\t// in\n    tag_113:\n        /* \"#utility.yul\":3134:3204   */\n      swap3\n      pop\n        /* \"#utility.yul\":2990:3214   */\n      pop\n        /* \"#utility.yul\":2977:2978   */\n      0x01\n        /* \"#utility.yul\":2974:2975   */\n      dup2\n        /* \"#utility.yul\":2970:2979   */\n      add\n        /* \"#utility.yul\":2965:2979   */\n      swap1\n      pop\n        /* \"#utility.yul\":2930:3214   */\n      jump(tag_109)\n    tag_111:\n        /* \"#utility.yul\":2934:2948   */\n      pop\n        /* \"#utility.yul\":3230:3233   */\n      dup6\n        /* \"#utility.yul\":3223:3233   */\n      swap4\n      pop\n        /* \"#utility.yul\":2631:3239   */\n      pop\n      pop\n      pop\n        /* \"#utility.yul\":2507:3239   */\n      swap3\n      swap2\n      pop\n      pop\n      jump\t// out\n        /* \"#utility.yul\":3245:3618   */\n    tag_15:\n        /* \"#utility.yul\":3388:3392   */\n      0x00\n        /* \"#utility.yul\":3426:3428   */\n      0x20\n        /* \"#utility.yul\":3415:3424   */\n      dup3\n        /* \"#utility.yul\":3411:3429   */\n      add\n        /* \"#utility.yul\":3403:3429   */\n      swap1\n      pop\n        /* \"#utility.yul\":3475:3484   */\n      dup2\n        /* \"#utility.yul\":3469:3473   */\n      dup2\n        /* \"#utility.yul\":3465:3485   */\n      sub\n        /* \"#utility.yul\":3461:3462   */\n      0x00\n        /* \"#utility.yul\":3450:3459   */\n      dup4\n        /* \"#utility.yul\":3446:3463   */\n      add\n        /* \"#utility.yul\":3439:3486   */\n      mstore\n        /* \"#utility.yul\":3503:3611   */\n      tag_115\n        /* \"#utility.yul\":3606:3610   */\n      dup2\n        /* \"#utility.yul\":3597:3603   */\n      dup5\n        /* \"#utility.yul\":3503:3611   */\n      tag_55\n      jump\t// in\n    tag_115:\n        /* \"#utility.yul\":3495:3611   */\n      swap1\n      pop\n        /* \"#utility.yul\":3245:3618   */\n      swap3\n      swap2\n      pop\n      pop\n      jump\t// out\n        /* \"#utility.yul\":3624:3741   */\n    tag_56:\n        /* \"#utility.yul\":3733:3734   */\n      0x00\n        /* \"#utility.yul\":3730:3731   */\n      dup1\n        /* \"#utility.yul\":3723:3735   */\n      revert\n        /* \"#utility.yul\":3747:3864   */\n    tag_57:\n        /* \"#utility.yul\":3856:3857   */\n      0x00\n        /* \"#utility.yul\":3853:3854   */\n      dup1\n        /* \"#utility.yul\":3846:3858   */\n      revert\n        /* \"#utility.yul\":3870:3972   */\n    tag_58:\n        /* \"#utility.yul\":3911:3917   */\n      0x00\n        /* \"#utility.yul\":3962:3964   */\n      0x1f\n        /* \"#utility.yul\":3958:3965   */\n      not\n        /* \"#utility.yul\":3953:3955   */\n      0x1f\n        /* \"#utility.yul\":3946:3951   */\n      dup4\n        /* \"#utility.yul\":3942:3956   */\n      add\n        /* \"#utility.yul\":3938:3966   */\n      and\n        /* \"#utility.yul\":3928:3966   */\n      swap1\n      pop\n        /* \"#utility.yul\":3870:3972   */\n      swap2\n      swap1\n      pop\n      jump\t// out\n        /* \"#utility.yul\":3978:4158   */\n    tag_59:\n        /* \"#utility.yul\":4026:4103   */\n      0x4e487b7100000000000000000000000000000000000000000000000000000000\n        /* \"#utility.yul\":4023:4024   */\n      0x00\n        /* \"#utility.yul\":4016:4104   */\n      mstore\n        /* \"#utility.yul\":4123:4127   */\n      0x41\n        /* \"#utility.yul\":4120:4121   */\n      0x04\n        /* \"#utility.yul\":4113:4128   */\n      mstore\n        /* \"#utility.yul\":4147:4151   */\n      0x24\n        /* \"#utility.yul\":4144:4145   */\n      0x00\n        /* \"#utility.yul\":4137:4152   */\n      revert\n        /* \"#utility.yul\":4164:4445   */\n    tag_60:\n        /* \"#utility.yul\":4247:4274   */\n      tag_121\n        /* \"#utility.yul\":4269:4273   */\n      dup3\n        /* \"#utility.yul\":4247:4274   */\n      tag_58\n      jump\t// in\n    tag_121:\n        /* \"#utility.yul\":4239:4245   */\n      dup2\n        /* \"#utility.yul\":4235:4275   */\n      add\n        /* \"#utility.yul\":4377:4383   */\n      dup2\n        /* \"#utility.yul\":4365:4375   */\n      dup2\n        /* \"#utility.yul\":4362:4384   */\n      lt\n        /* \"#utility.yul\":4341:4359   */\n      0xffffffffffffffff\n        /* \"#utility.yul\":4329:4339   */\n      dup3\n        /* \"#utility.yul\":4326:4360   */\n      gt\n        /* \"#utility.yul\":4323:4385   */\n      or\n        /* \"#utility.yul\":4320:4408   */\n      iszero\n      tag_122\n      jumpi\n        /* \"#utility.yul\":4388:4406   */\n      tag_123\n      tag_59\n      jump\t// in\n    tag_123:\n        /* \"#utility.yul\":4320:4408   */\n    tag_122:\n        /* \"#utility.yul\":4428:4438   */\n      dup1\n        /* \"#utility.yul\":4424:4426   */\n      0x40\n        /* \"#utility.yul\":4417:4439   */\n      mstore\n        /* \"#utility.yul\":4207:4445   */\n      pop\n        /* \"#utility.yul\":4164:4445   */\n      pop\n      pop\n      jump\t// out\n        /* \"#utility.yul\":4451:4580   */\n    tag_61:\n        /* \"#utility.yul\":4485:4491   */\n      0x00\n        /* \"#utility.yul\":4512:4532   */\n      tag_125\n      tag_40\n      jump\t// in\n    tag_125:\n        /* \"#utility.yul\":4502:4532   */\n      swap1\n      pop\n        /* \"#utility.yul\":4541:4574   */\n      tag_126\n        /* \"#utility.yul\":4569:4573   */\n      dup3\n        /* \"#utility.yul\":4561:4567   */\n      dup3\n        /* \"#utility.yul\":4541:4574   */\n      tag_60\n      jump\t// in\n    tag_126:\n        /* \"#utility.yul\":4451:4580   */\n      swap2\n      swap1\n      pop\n      jump\t// out\n        /* \"#utility.yul\":4586:4894   */\n    tag_62:\n        /* \"#utility.yul\":4648:4652   */\n      0x00\n        /* \"#utility.yul\":4738:4756   */\n      0xffffffffffffffff\n        /* \"#utility.yul\":4730:4736   */\n      dup3\n        /* \"#utility.yul\":4727:4757   */\n      gt\n        /* \"#utility.yul\":4724:4780   */\n      iszero\n      tag_128\n      jumpi\n        /* \"#utility.yul\":4760:4778   */\n      tag_129\n      tag_59\n      jump\t// in\n    tag_129:\n        /* \"#utility.yul\":4724:4780   */\n    tag_128:\n        /* \"#utility.yul\":4798:4827   */\n      tag_130\n        /* \"#utility.yul\":4820:4826   */\n      dup3\n        /* \"#utility.yul\":4798:4827   */\n      tag_58\n      jump\t// in\n    tag_130:\n        /* \"#utility.yul\":4790:4827   */\n      swap1\n      pop\n        /* \"#utility.yul\":4882:4886   */\n      0x20\n        /* \"#utility.yul\":4876:4880   */\n      dup2\n        /* \"#utility.yul\":4872:4887   */\n      add\n        /* \"#utility.yul\":4864:4887   */\n      swap1\n      pop\n        /* \"#utility.yul\":4586:4894   */\n      swap2\n      swap1\n      pop\n      jump\t// out\n        /* \"#utility.yul\":4900:5054   */\n    tag_63:\n        /* \"#utility.yul\":4984:4990   */\n      dup3\n        /* \"#utility.yul\":4979:4982   */\n      dup2\n        /* \"#utility.yul\":4974:4977   */\n      dup4\n        /* \"#utility.yul\":4961:4991   */\n      calldatacopy\n        /* \"#utility.yul\":5046:5047   */\n      0x00\n        /* \"#utility.yul\":5037:5043   */\n      dup4\n        /* \"#utility.yul\":5032:5035   */\n      dup4\n        /* \"#utility.yul\":5028:5044   */\n      add\n        /* \"#utility.yul\":5021:5048   */\n      mstore\n        /* \"#utility.yul\":4900:5054   */\n      pop\n      pop\n      pop\n      jump\t// out\n        /* \"#utility.yul\":5060:5472   */\n    tag_64:\n        /* \"#utility.yul\":5138:5143   */\n      0x00\n        /* \"#utility.yul\":5163:5229   */\n      tag_133\n        /* \"#utility.yul\":5179:5228   */\n      tag_134\n        /* \"#utility.yul\":5221:5227   */\n      dup5\n        /* \"#utility.yul\":5179:5228   */\n      tag_62\n      jump\t// in\n    tag_134:\n        /* \"#utility.yul\":5163:5229   */\n      tag_61\n      jump\t// in\n    tag_133:\n        /* \"#utility.yul\":5154:5229   */\n      swap1\n      pop\n        /* \"#utility.yul\":5252:5258   */\n      dup3\n        /* \"#utility.yul\":5245:5250   */\n      dup2\n        /* \"#utility.yul\":5238:5259   */\n      mstore\n        /* \"#utility.yul\":5290:5294   */\n      0x20\n        /* \"#utility.yul\":5283:5288   */\n      dup2\n        /* \"#utility.yul\":5279:5295   */\n      add\n        /* \"#utility.yul\":5328:5331   */\n      dup5\n        /* \"#utility.yul\":5319:5325   */\n      dup5\n        /* \"#utility.yul\":5314:5317   */\n      dup5\n        /* \"#utility.yul\":5310:5326   */\n      add\n        /* \"#utility.yul\":5307:5332   */\n      gt\n        /* \"#utility.yul\":5304:5416   */\n      iszero\n      tag_135\n      jumpi\n        /* \"#utility.yul\":5335:5414   */\n      tag_136\n      tag_57\n      jump\t// in\n    tag_136:\n        /* \"#utility.yul\":5304:5416   */\n    tag_135:\n        /* \"#utility.yul\":5425:5466   */\n      tag_137\n        /* \"#utility.yul\":5459:5465   */\n      dup5\n        /* \"#utility.yul\":5454:5457   */\n      dup3\n        /* \"#utility.yul\":5449:5452   */\n      dup6\n        /* \"#utility.yul\":5425:5466   */\n      tag_63\n      jump\t// in\n    tag_137:\n        /* \"#utility.yul\":5144:5472   */\n      pop\n        /* \"#utility.yul\":5060:5472   */\n      swap4\n      swap3\n      pop\n      pop\n      pop\n      jump\t// out\n        /* \"#utility.yul\":5492:5832   */\n    tag_65:\n        /* \"#utility.yul\":5548:5553   */\n      0x00\n        /* \"#utility.yul\":5597:5600   */\n      dup3\n        /* \"#utility.yul\":5590:5594   */\n      0x1f\n        /* \"#utility.yul\":5582:5588   */\n      dup4\n        /* \"#utility.yul\":5578:5595   */\n      add\n        /* \"#utility.yul\":5574:5601   */\n      slt\n        /* \"#utility.yul\":5564:5686   */\n      tag_139\n      jumpi\n        /* \"#utility.yul\":5605:5684   */\n      tag_140\n      tag_56\n      jump\t// in\n    tag_140:\n        /* \"#utility.yul\":5564:5686   */\n    tag_139:\n        /* \"#utility.yul\":5722:5728   */\n      dup2\n        /* \"#utility.yul\":5709:5729   */\n      calldataload\n        /* \"#utility.yul\":5747:5826   */\n      tag_141\n        /* \"#utility.yul\":5822:5825   */\n      dup5\n        /* \"#utility.yul\":5814:5820   */\n      dup3\n        /* \"#utility.yul\":5807:5811   */\n      0x20\n        /* \"#utility.yul\":5799:5805   */\n      dup7\n        /* \"#utility.yul\":5795:5812   */\n      add\n        /* \"#utility.yul\":5747:5826   */\n      tag_64\n      jump\t// in\n    tag_141:\n        /* \"#utility.yul\":5738:5826   */\n      swap2\n      pop\n        /* \"#utility.yul\":5554:5832   */\n      pop\n        /* \"#utility.yul\":5492:5832   */\n      swap3\n      swap2\n      pop\n      pop\n      jump\t// out\n        /* \"#utility.yul\":5838:7289   */\n    tag_18:\n        /* \"#utility.yul\":5963:5969   */\n      0x00\n        /* \"#utility.yul\":5971:5977   */\n      dup1\n        /* \"#utility.yul\":5979:5985   */\n      0x00\n        /* \"#utility.yul\":5987:5993   */\n      dup1\n        /* \"#utility.yul\":5995:6001   */\n      0x00\n        /* \"#utility.yul\":6044:6047   */\n      0xa0\n        /* \"#utility.yul\":6032:6041   */\n      dup7\n        /* \"#utility.yul\":6023:6030   */\n      dup9\n        /* \"#utility.yul\":6019:6042   */\n      sub\n        /* \"#utility.yul\":6015:6048   */\n      slt\n        /* \"#utility.yul\":6012:6132   */\n      iszero\n      tag_143\n      jumpi\n        /* \"#utility.yul\":6051:6130   */\n      tag_144\n      tag_41\n      jump\t// in\n    tag_144:\n        /* \"#utility.yul\":6012:6132   */\n    tag_143:\n        /* \"#utility.yul\":6171:6172   */\n      0x00\n        /* \"#utility.yul\":6196:6249   */\n      tag_145\n        /* \"#utility.yul\":6241:6248   */\n      dup9\n        /* \"#utility.yul\":6232:6238   */\n      dup3\n        /* \"#utility.yul\":6221:6230   */\n      dup10\n        /* \"#utility.yul\":6217:6239   */\n      add\n        /* \"#utility.yul\":6196:6249   */\n      tag_45\n      jump\t// in\n    tag_145:\n        /* \"#utility.yul\":6186:6249   */\n      swap6\n      pop\n        /* \"#utility.yul\":6142:6259   */\n      pop\n        /* \"#utility.yul\":6326:6328   */\n      0x20\n        /* \"#utility.yul\":6315:6324   */\n      dup7\n        /* \"#utility.yul\":6311:6329   */\n      add\n        /* \"#utility.yul\":6298:6330   */\n      calldataload\n        /* \"#utility.yul\":6357:6375   */\n      0xffffffffffffffff\n        /* \"#utility.yul\":6349:6355   */\n      dup2\n        /* \"#utility.yul\":6346:6376   */\n      gt\n        /* \"#utility.yul\":6343:6460   */\n      iszero\n      tag_146\n      jumpi\n        /* \"#utility.yul\":6379:6458   */\n      tag_147\n      tag_42\n      jump\t// in\n    tag_147:\n        /* \"#utility.yul\":6343:6460   */\n    tag_146:\n        /* \"#utility.yul\":6484:6547   */\n      tag_148\n        /* \"#utility.yul\":6539:6546   */\n      dup9\n        /* \"#utility.yul\":6530:6536   */\n      dup3\n        /* \"#utility.yul\":6519:6528   */\n      dup10\n        /* \"#utility.yul\":6515:6537   */\n      add\n        /* \"#utility.yul\":6484:6547   */\n      tag_65\n      jump\t// in\n    tag_148:\n        /* \"#utility.yul\":6474:6547   */\n      swap5\n      pop\n        /* \"#utility.yul\":6269:6557   */\n      pop\n        /* \"#utility.yul\":6624:6626   */\n      0x40\n        /* \"#utility.yul\":6613:6622   */\n      dup7\n        /* \"#utility.yul\":6609:6627   */\n      add\n        /* \"#utility.yul\":6596:6628   */\n      calldataload\n        /* \"#utility.yul\":6655:6673   */\n      0xffffffffffffffff\n        /* \"#utility.yul\":6647:6653   */\n      dup2\n        /* \"#utility.yul\":6644:6674   */\n      gt\n        /* \"#utility.yul\":6641:6758   */\n      iszero\n      tag_149\n      jumpi\n        /* \"#utility.yul\":6677:6756   */\n      tag_150\n      tag_42\n      jump\t// in\n    tag_150:\n        /* \"#utility.yul\":6641:6758   */\n    tag_149:\n        /* \"#utility.yul\":6782:6845   */\n      tag_151\n        /* \"#utility.yul\":6837:6844   */\n      dup9\n        /* \"#utility.yul\":6828:6834   */\n      dup3\n        /* \"#utility.yul\":6817:6826   */\n      dup10\n        /* \"#utility.yul\":6813:6835   */\n      add\n        /* \"#utility.yul\":6782:6845   */\n      tag_65\n      jump\t// in\n    tag_151:\n        /* \"#utility.yul\":6772:6845   */\n      swap4\n      pop\n        /* \"#utility.yul\":6567:6855   */\n      pop\n        /* \"#utility.yul\":6922:6924   */\n      0x60\n        /* \"#utility.yul\":6911:6920   */\n      dup7\n        /* \"#utility.yul\":6907:6925   */\n      add\n        /* \"#utility.yul\":6894:6926   */\n      calldataload\n        /* \"#utility.yul\":6953:6971   */\n      0xffffffffffffffff\n        /* \"#utility.yul\":6945:6951   */\n      dup2\n        /* \"#utility.yul\":6942:6972   */\n      gt\n        /* \"#utility.yul\":6939:7056   */\n      iszero\n      tag_152\n      jumpi\n        /* \"#utility.yul\":6975:7054   */\n      tag_153\n      tag_42\n      jump\t// in\n    tag_153:\n        /* \"#utility.yul\":6939:7056   */\n    tag_152:\n        /* \"#utility.yul\":7080:7143   */\n      tag_154\n        /* \"#utility.yul\":7135:7142   */\n      dup9\n        /* \"#utility.yul\":7126:7132   */\n      dup3\n        /* \"#utility.yul\":7115:7124   */\n      dup10\n        /* \"#utility.yul\":7111:7133   */\n      add\n        /* \"#utility.yul\":7080:7143   */\n      tag_65\n      jump\t// in\n    tag_154:\n        /* \"#utility.yul\":7070:7143   */\n      swap3\n      pop\n        /* \"#utility.yul\":6865:7153   */\n      pop\n        /* \"#utility.yul\":7192:7195   */\n      0x80\n        /* \"#utility.yul\":7219:7272   */\n      tag_155\n        /* \"#utility.yul\":7264:7271   */\n      dup9\n        /* \"#utility.yul\":7255:7261   */\n      dup3\n        /* \"#utility.yul\":7244:7253   */\n      dup10\n        /* \"#utility.yul\":7240:7262   */\n      add\n        /* \"#utility.yul\":7219:7272   */\n      tag_45\n      jump\t// in\n    tag_155:\n        /* \"#utility.yul\":7209:7272   */\n      swap2\n      pop\n        /* \"#utility.yul\":7163:7282   */\n      pop\n        /* \"#utility.yul\":5838:7289   */\n      swap3\n      swap6\n      pop\n      swap3\n      swap6\n      swap1\n      swap4\n      pop\n      jump\t// out\n        /* \"#utility.yul\":7295:7464   */\n    tag_66:\n        /* \"#utility.yul\":7379:7390   */\n      0x00\n        /* \"#utility.yul\":7413:7419   */\n      dup3\n        /* \"#utility.yul\":7408:7411   */\n      dup3\n        /* \"#utility.yul\":7401:7420   */\n      mstore\n        /* \"#utility.yul\":7453:7457   */\n      0x20\n        /* \"#utility.yul\":7448:7451   */\n      dup3\n        /* \"#utility.yul\":7444:7458   */\n      add\n        /* \"#utility.yul\":7429:7458   */\n      swap1\n      pop\n        /* \"#utility.yul\":7295:7464   */\n      swap3\n      swap2\n      pop\n      pop\n      jump\t// out\n        /* \"#utility.yul\":7470:7631   */\n    tag_67:\n        /* \"#utility.yul\":7610:7623   */\n      0x66756e645f726169736572000000000000000000000000000000000000000000\n        /* \"#utility.yul\":7606:7607   */\n      0x00\n        /* \"#utility.yul\":7598:7604   */\n      dup3\n        /* \"#utility.yul\":7594:7608   */\n      add\n        /* \"#utility.yul\":7587:7624   */\n      mstore\n        /* \"#utility.yul\":7470:7631   */\n      pop\n      jump\t// out\n        /* \"#utility.yul\":7637:8003   */\n    tag_68:\n        /* \"#utility.yul\":7779:7782   */\n      0x00\n        /* \"#utility.yul\":7800:7867   */\n      tag_159\n        /* \"#utility.yul\":7864:7866   */\n      0x0b\n        /* \"#utility.yul\":7859:7862   */\n      dup4\n        /* \"#utility.yul\":7800:7867   */\n      tag_66\n      jump\t// in\n    tag_159:\n        /* \"#utility.yul\":7793:7867   */\n      swap2\n      pop\n        /* \"#utility.yul\":7876:7969   */\n      tag_160\n        /* \"#utility.yul\":7965:7968   */\n      dup3\n        /* \"#utility.yul\":7876:7969   */\n      tag_67\n      jump\t// in\n    tag_160:\n        /* \"#utility.yul\":7994:7996   */\n      0x20\n        /* \"#utility.yul\":7989:7992   */\n      dup3\n        /* \"#utility.yul\":7985:7997   */\n      add\n        /* \"#utility.yul\":7978:7997   */\n      swap1\n      pop\n        /* \"#utility.yul\":7637:8003   */\n      swap2\n      swap1\n      pop\n      jump\t// out\n        /* \"#utility.yul\":8009:8538   */\n    tag_27:\n        /* \"#utility.yul\":8203:8207   */\n      0x00\n        /* \"#utility.yul\":8241:8243   */\n      0x40\n        /* \"#utility.yul\":8230:8239   */\n      dup3\n        /* \"#utility.yul\":8226:8244   */\n      add\n        /* \"#utility.yul\":8218:8244   */\n      swap1\n      pop\n        /* \"#utility.yul\":8254:8325   */\n      tag_162\n        /* \"#utility.yul\":8322:8323   */\n      0x00\n        /* \"#utility.yul\":8311:8320   */\n      dup4\n        /* \"#utility.yul\":8307:8324   */\n      add\n        /* \"#utility.yul\":8298:8304   */\n      dup5\n        /* \"#utility.yul\":8254:8325   */\n      tag_48\n      jump\t// in\n    tag_162:\n        /* \"#utility.yul\":8372:8381   */\n      dup2\n        /* \"#utility.yul\":8366:8370   */\n      dup2\n        /* \"#utility.yul\":8362:8382   */\n      sub\n        /* \"#utility.yul\":8357:8359   */\n      0x20\n        /* \"#utility.yul\":8346:8355   */\n      dup4\n        /* \"#utility.yul\":8342:8360   */\n      add\n        /* \"#utility.yul\":8335:8383   */\n      mstore\n        /* \"#utility.yul\":8400:8531   */\n      tag_163\n        /* \"#utility.yul\":8526:8530   */\n      dup2\n        /* \"#utility.yul\":8400:8531   */\n      tag_68\n      jump\t// in\n    tag_163:\n        /* \"#utility.yul\":8392:8531   */\n      swap1\n      pop\n        /* \"#utility.yul\":8009:8538   */\n      swap3\n      swap2\n      pop\n      pop\n      jump\t// out\n        /* \"#utility.yul\":8544:8634   */\n    tag_69:\n        /* \"#utility.yul\":8578:8585   */\n      0x00\n        /* \"#utility.yul\":8621:8626   */\n      dup2\n        /* \"#utility.yul\":8614:8627   */\n      iszero\n        /* \"#utility.yul\":8607:8628   */\n      iszero\n        /* \"#utility.yul\":8596:8628   */\n      swap1\n      pop\n        /* \"#utility.yul\":8544:8634   */\n      swap2\n      swap1\n      pop\n      jump\t// out\n        /* \"#utility.yul\":8640:8756   */\n    tag_70:\n        /* \"#utility.yul\":8710:8731   */\n      tag_166\n        /* \"#utility.yul\":8725:8730   */\n      dup2\n        /* \"#utility.yul\":8710:8731   */\n      tag_69\n      jump\t// in\n    tag_166:\n        /* \"#utility.yul\":8703:8708   */\n      dup2\n        /* \"#utility.yul\":8700:8732   */\n      eq\n        /* \"#utility.yul\":8690:8750   */\n      tag_167\n      jumpi\n        /* \"#utility.yul\":8746:8747   */\n      0x00\n        /* \"#utility.yul\":8743:8744   */\n      dup1\n        /* \"#utility.yul\":8736:8748   */\n      revert\n        /* \"#utility.yul\":8690:8750   */\n    tag_167:\n        /* \"#utility.yul\":8640:8756   */\n      pop\n      jump\t// out\n        /* \"#utility.yul\":8762:8899   */\n    tag_71:\n        /* \"#utility.yul\":8816:8821   */\n      0x00\n        /* \"#utility.yul\":8847:8853   */\n      dup2\n        /* \"#utility.yul\":8841:8854   */\n      mload\n        /* \"#utility.yul\":8832:8854   */\n      swap1\n      pop\n        /* \"#utility.yul\":8863:8893   */\n      tag_169\n        /* \"#utility.yul\":8887:8892   */\n      dup2\n        /* \"#utility.yul\":8863:8893   */\n      tag_70\n      jump\t// in\n    tag_169:\n        /* \"#utility.yul\":8762:8899   */\n      swap3\n      swap2\n      pop\n      pop\n      jump\t// out\n        /* \"#utility.yul\":8905:9250   */\n    tag_31:\n        /* \"#utility.yul\":8972:8978   */\n      0x00\n        /* \"#utility.yul\":9021:9023   */\n      0x20\n        /* \"#utility.yul\":9009:9018   */\n      dup3\n        /* \"#utility.yul\":9000:9007   */\n      dup5\n        /* \"#utility.yul\":8996:9019   */\n      sub\n        /* \"#utility.yul\":8992:9024   */\n      slt\n        /* \"#utility.yul\":8989:9108   */\n      iszero\n      tag_171\n      jumpi\n        /* \"#utility.yul\":9027:9106   */\n      tag_172\n      tag_41\n      jump\t// in\n    tag_172:\n        /* \"#utility.yul\":8989:9108   */\n    tag_171:\n        /* \"#utility.yul\":9147:9148   */\n      0x00\n        /* \"#utility.yul\":9172:9233   */\n      tag_173\n        /* \"#utility.yul\":9225:9232   */\n      dup5\n        /* \"#utility.yul\":9216:9222   */\n      dup3\n        /* \"#utility.yul\":9205:9214   */\n      dup6\n        /* \"#utility.yul\":9201:9223   */\n      add\n        /* \"#utility.yul\":9172:9233   */\n      tag_71\n      jump\t// in\n    tag_173:\n        /* \"#utility.yul\":9162:9233   */\n      swap2\n      pop\n        /* \"#utility.yul\":9118:9243   */\n      pop\n        /* \"#utility.yul\":8905:9250   */\n      swap3\n      swap2\n      pop\n      pop\n      jump\t// out\n        /* \"#utility.yul\":9256:9374   */\n    tag_72:\n        /* \"#utility.yul\":9343:9367   */\n      tag_175\n        /* \"#utility.yul\":9361:9366   */\n      dup2\n        /* \"#utility.yul\":9343:9367   */\n      tag_43\n      jump\t// in\n    tag_175:\n        /* \"#utility.yul\":9338:9341   */\n      dup3\n        /* \"#utility.yul\":9331:9368   */\n      mstore\n        /* \"#utility.yul\":9256:9374   */\n      pop\n      pop\n      jump\t// out\n        /* \"#utility.yul\":9380:9479   */\n    tag_73:\n        /* \"#utility.yul\":9432:9438   */\n      0x00\n        /* \"#utility.yul\":9466:9471   */\n      dup2\n        /* \"#utility.yul\":9460:9472   */\n      mload\n        /* \"#utility.yul\":9450:9472   */\n      swap1\n      pop\n        /* \"#utility.yul\":9380:9479   */\n      swap2\n      swap1\n      pop\n      jump\t// out\n        /* \"#utility.yul\":9485:9792   */\n    tag_74:\n        /* \"#utility.yul\":9553:9554   */\n      0x00\n        /* \"#utility.yul\":9563:9676   */\n    tag_178:\n        /* \"#utility.yul\":9577:9583   */\n      dup4\n        /* \"#utility.yul\":9574:9575   */\n      dup2\n        /* \"#utility.yul\":9571:9584   */\n      lt\n        /* \"#utility.yul\":9563:9676   */\n      iszero\n      tag_180\n      jumpi\n        /* \"#utility.yul\":9662:9663   */\n      dup1\n        /* \"#utility.yul\":9657:9660   */\n      dup3\n        /* \"#utility.yul\":9653:9664   */\n      add\n        /* \"#utility.yul\":9647:9665   */\n      mload\n        /* \"#utility.yul\":9643:9644   */\n      dup2\n        /* \"#utility.yul\":9638:9641   */\n      dup5\n        /* \"#utility.yul\":9634:9645   */\n      add\n        /* \"#utility.yul\":9627:9666   */\n      mstore\n        /* \"#utility.yul\":9599:9601   */\n      0x20\n        /* \"#utility.yul\":9596:9597   */\n      dup2\n        /* \"#utility.yul\":9592:9602   */\n      add\n        /* \"#utility.yul\":9587:9602   */\n      swap1\n      pop\n        /* \"#utility.yul\":9563:9676   */\n      jump(tag_178)\n    tag_180:\n        /* \"#utility.yul\":9694:9700   */\n      dup4\n        /* \"#utility.yul\":9691:9692   */\n      dup2\n        /* \"#utility.yul\":9688:9701   */\n      gt\n        /* \"#utility.yul\":9685:9786   */\n      iszero\n      tag_181\n      jumpi\n        /* \"#utility.yul\":9774:9775   */\n      0x00\n        /* \"#utility.yul\":9765:9771   */\n      dup5\n        /* \"#utility.yul\":9760:9763   */\n      dup5\n        /* \"#utility.yul\":9756:9772   */\n      add\n        /* \"#utility.yul\":9749:9776   */\n      mstore\n        /* \"#utility.yul\":9685:9786   */\n    tag_181:\n        /* \"#utility.yul\":9534:9792   */\n      pop\n        /* \"#utility.yul\":9485:9792   */\n      pop\n      pop\n      pop\n      jump\t// out\n        /* \"#utility.yul\":9798:10162   */\n    tag_75:\n        /* \"#utility.yul\":9886:9889   */\n      0x00\n        /* \"#utility.yul\":9914:9953   */\n      tag_183\n        /* \"#utility.yul\":9947:9952   */\n      dup3\n        /* \"#utility.yul\":9914:9953   */\n      tag_73\n      jump\t// in\n    tag_183:\n        /* \"#utility.yul\":9969:10040   */\n      tag_184\n        /* \"#utility.yul\":10033:10039   */\n      dup2\n        /* \"#utility.yul\":10028:10031   */\n      dup6\n        /* \"#utility.yul\":9969:10040   */\n      tag_66\n      jump\t// in\n    tag_184:\n        /* \"#utility.yul\":9962:10040   */\n      swap4\n      pop\n        /* \"#utility.yul\":10049:10101   */\n      tag_185\n        /* \"#utility.yul\":10094:10100   */\n      dup2\n        /* \"#utility.yul\":10089:10092   */\n      dup6\n        /* \"#utility.yul\":10082:10086   */\n      0x20\n        /* \"#utility.yul\":10075:10080   */\n      dup7\n        /* \"#utility.yul\":10071:10087   */\n      add\n        /* \"#utility.yul\":10049:10101   */\n      tag_74\n      jump\t// in\n    tag_185:\n        /* \"#utility.yul\":10126:10155   */\n      tag_186\n        /* \"#utility.yul\":10148:10154   */\n      dup2\n        /* \"#utility.yul\":10126:10155   */\n      tag_58\n      jump\t// in\n    tag_186:\n        /* \"#utility.yul\":10121:10124   */\n      dup5\n        /* \"#utility.yul\":10117:10156   */\n      add\n        /* \"#utility.yul\":10110:10156   */\n      swap2\n      pop\n        /* \"#utility.yul\":9890:10162   */\n      pop\n        /* \"#utility.yul\":9798:10162   */\n      swap3\n      swap2\n      pop\n      pop\n      jump\t// out\n        /* \"#utility.yul\":10168:11216   */\n    tag_37:\n        /* \"#utility.yul\":10461:10465   */\n      0x00\n        /* \"#utility.yul\":10499:10502   */\n      0xc0\n        /* \"#utility.yul\":10488:10497   */\n      dup3\n        /* \"#utility.yul\":10484:10503   */\n      add\n        /* \"#utility.yul\":10476:10503   */\n      swap1\n      pop\n        /* \"#utility.yul\":10513:10584   */\n      tag_188\n        /* \"#utility.yul\":10581:10582   */\n      0x00\n        /* \"#utility.yul\":10570:10579   */\n      dup4\n        /* \"#utility.yul\":10566:10583   */\n      add\n        /* \"#utility.yul\":10557:10563   */\n      dup10\n        /* \"#utility.yul\":10513:10584   */\n      tag_72\n      jump\t// in\n    tag_188:\n        /* \"#utility.yul\":10594:10666   */\n      tag_189\n        /* \"#utility.yul\":10662:10664   */\n      0x20\n        /* \"#utility.yul\":10651:10660   */\n      dup4\n        /* \"#utility.yul\":10647:10665   */\n      add\n        /* \"#utility.yul\":10638:10644   */\n      dup9\n        /* \"#utility.yul\":10594:10666   */\n      tag_48\n      jump\t// in\n    tag_189:\n        /* \"#utility.yul\":10713:10722   */\n      dup2\n        /* \"#utility.yul\":10707:10711   */\n      dup2\n        /* \"#utility.yul\":10703:10723   */\n      sub\n        /* \"#utility.yul\":10698:10700   */\n      0x40\n        /* \"#utility.yul\":10687:10696   */\n      dup4\n        /* \"#utility.yul\":10683:10701   */\n      add\n        /* \"#utility.yul\":10676:10724   */\n      mstore\n        /* \"#utility.yul\":10741:10819   */\n      tag_190\n        /* \"#utility.yul\":10814:10818   */\n      dup2\n        /* \"#utility.yul\":10805:10811   */\n      dup8\n        /* \"#utility.yul\":10741:10819   */\n      tag_75\n      jump\t// in\n    tag_190:\n        /* \"#utility.yul\":10733:10819   */\n      swap1\n      pop\n        /* \"#utility.yul\":10866:10875   */\n      dup2\n        /* \"#utility.yul\":10860:10864   */\n      dup2\n        /* \"#utility.yul\":10856:10876   */\n      sub\n        /* \"#utility.yul\":10851:10853   */\n      0x60\n        /* \"#utility.yul\":10840:10849   */\n      dup4\n        /* \"#utility.yul\":10836:10854   */\n      add\n        /* \"#utility.yul\":10829:10877   */\n      mstore\n        /* \"#utility.yul\":10894:10972   */\n      tag_191\n        /* \"#utility.yul\":10967:10971   */\n      dup2\n        /* \"#utility.yul\":10958:10964   */\n      dup7\n        /* \"#utility.yul\":10894:10972   */\n      tag_75\n      jump\t// in\n    tag_191:\n        /* \"#utility.yul\":10886:10972   */\n      swap1\n      pop\n        /* \"#utility.yul\":11020:11029   */\n      dup2\n        /* \"#utility.yul\":11014:11018   */\n      dup2\n        /* \"#utility.yul\":11010:11030   */\n      sub\n        /* \"#utility.yul\":11004:11007   */\n      0x80\n        /* \"#utility.yul\":10993:11002   */\n      dup4\n        /* \"#utility.yul\":10989:11008   */\n      add\n        /* \"#utility.yul\":10982:11031   */\n      mstore\n        /* \"#utility.yul\":11048:11126   */\n      tag_192\n        /* \"#utility.yul\":11121:11125   */\n      dup2\n        /* \"#utility.yul\":11112:11118   */\n      dup6\n        /* \"#utility.yul\":11048:11126   */\n      tag_75\n      jump\t// in\n    tag_192:\n        /* \"#utility.yul\":11040:11126   */\n      swap1\n      pop\n        /* \"#utility.yul\":11136:11209   */\n      tag_193\n        /* \"#utility.yul\":11204:11207   */\n      0xa0\n        /* \"#utility.yul\":11193:11202   */\n      dup4\n        /* \"#utility.yul\":11189:11208   */\n      add\n        /* \"#utility.yul\":11180:11186   */\n      dup5\n        /* \"#utility.yul\":11136:11209   */\n      tag_72\n      jump\t// in\n    tag_193:\n        /* \"#utility.yul\":10168:11216   */\n      swap8\n      swap7\n      pop\n      pop\n      pop\n      pop\n      pop\n      pop\n      pop\n      jump\t// out\n    stop\n\n    sub_0: assembly {\n            /* \"Campaigns.sol\":10115:12522  contract Campaign {... */\n          mstore(0x40, 0x80)\n            /* \"Campaigns.sol\":10171:10213  0xb8FeD7AD2bfCE5e906E1e2299d348639Ac377044 */\n          0xb8fed7ad2bfce5e906e1e2299d348639ac377044\n            /* \"Campaigns.sol\":10139:10214  Whitelist whitelist = Whitelist(0xb8FeD7AD2bfCE5e906E1e2299d348639Ac377044) */\n          0x00\n          dup1\n          0x0100\n          exp\n          dup2\n          sload\n          dup2\n          0xffffffffffffffffffffffffffffffffffffffff\n          mul\n          not\n          and\n          swap1\n          dup4\n          0xffffffffffffffffffffffffffffffffffffffff\n          and\n          mul\n          or\n          swap1\n          sstore\n          pop\n            /* \"Campaigns.sol\":10830:11281  constructor(... */\n          callvalue\n          dup1\n          iszero\n          tag_1\n          jumpi\n          0x00\n          dup1\n          revert\n        tag_1:\n          pop\n          mload(0x40)\n          sub(codesize, bytecodeSize)\n          dup1\n          bytecodeSize\n          dup4\n          codecopy\n          dup2\n          dup2\n          add\n          0x40\n          mstore\n          dup2\n          add\n          swap1\n          tag_2\n          swap2\n          swap1\n          tag_3\n          jump\t// in\n        tag_2:\n            /* \"Campaigns.sol\":11034:11041  creator */\n          dup5\n            /* \"Campaigns.sol\":11024:11031  manager */\n          0x01\n          0x00\n            /* \"Campaigns.sol\":11024:11041  manager = creator */\n          0x0100\n          exp\n          dup2\n          sload\n          dup2\n          0xffffffffffffffffffffffffffffffffffffffff\n          mul\n          not\n          and\n          swap1\n          dup4\n          0xffffffffffffffffffffffffffffffffffffffff\n          and\n          mul\n          or\n          swap1\n          sstore\n          pop\n            /* \"Campaigns.sol\":11073:11080  minimun */\n          dup6\n            /* \"Campaigns.sol\":11051:11070  minimunContribution */\n          0x02\n            /* \"Campaigns.sol\":11051:11080  minimunContribution = minimun */\n          dup2\n          swap1\n          sstore\n          pop\n            /* \"Campaigns.sol\":11105:11109  name */\n          dup4\n            /* \"Campaigns.sol\":11090:11102  CampaignName */\n          0x04\n            /* \"Campaigns.sol\":11090:11109  CampaignName = name */\n          swap1\n          dup1\n          mload\n          swap1\n          0x20\n          add\n          swap1\n          tag_6\n          swap3\n          swap2\n          swap1\n          tag_7\n          jump\t// in\n        tag_6:\n          pop\n            /* \"Campaigns.sol\":11141:11152  description */\n          dup3\n            /* \"Campaigns.sol\":11119:11138  CampaignDescription */\n          0x05\n            /* \"Campaigns.sol\":11119:11152  CampaignDescription = description */\n          swap1\n          dup1\n          mload\n          swap1\n          0x20\n          add\n          swap1\n          tag_8\n          swap3\n          swap2\n          swap1\n          tag_7\n          jump\t// in\n        tag_8:\n          pop\n            /* \"Campaigns.sol\":11173:11178  image */\n          dup2\n            /* \"Campaigns.sol\":11162:11170  imageUrl */\n          0x06\n            /* \"Campaigns.sol\":11162:11178  imageUrl = image */\n          swap1\n          dup1\n          mload\n          swap1\n          0x20\n          add\n          swap1\n          tag_9\n          swap3\n          swap2\n          swap1\n          tag_7\n          jump\t// in\n        tag_9:\n          pop\n            /* \"Campaigns.sol\":11206:11212  target */\n          dup1\n            /* \"Campaigns.sol\":11188:11203  targetToAchieve */\n          0x08\n            /* \"Campaigns.sol\":11188:11212  targetToAchieve = target */\n          dup2\n          swap1\n          sstore\n          pop\n            /* \"Campaigns.sol\":11232:11233  0 */\n          0x00\n            /* \"Campaigns.sol\":11222:11229  balance */\n          0x07\n            /* \"Campaigns.sol\":11222:11233  balance = 0 */\n          dup2\n          swap1\n          sstore\n          pop\n            /* \"Campaigns.sol\":11252:11274  Campaign_Status.Active */\n          0x00\n            /* \"Campaigns.sol\":11243:11249  status */\n          0x03\n          0x00\n            /* \"Campaigns.sol\":11243:11274  status = Campaign_Status.Active */\n          0x0100\n          exp\n          dup2\n          sload\n          dup2\n          0xff\n          mul\n          not\n          and\n          swap1\n          dup4\n          0x01\n          dup2\n          gt\n          iszero\n          tag_10\n          jumpi\n          tag_11\n          tag_12\n          jump\t// in\n        tag_11:\n        tag_10:\n          mul\n          or\n          swap1\n          sstore\n          pop\n            /* \"Campaigns.sol\":10830:11281  constructor(... */\n          pop\n          pop\n          pop\n          pop\n          pop\n          pop\n            /* \"Campaigns.sol\":10115:12522  contract Campaign {... */\n          jump(tag_13)\n        tag_7:\n          dup3\n          dup1\n          sload\n          tag_14\n          swap1\n          tag_15\n          jump\t// in\n        tag_14:\n          swap1\n          0x00\n          mstore\n          keccak256(0x00, 0x20)\n          swap1\n          0x1f\n          add\n          0x20\n          swap1\n          div\n          dup2\n          add\n          swap3\n          dup3\n          tag_17\n          jumpi\n          0x00\n          dup6\n          sstore\n          jump(tag_16)\n        tag_17:\n          dup3\n          0x1f\n          lt\n          tag_18\n          jumpi\n          dup1\n          mload\n          not(0xff)\n          and\n          dup4\n          dup1\n          add\n          or\n          dup6\n          sstore\n          jump(tag_16)\n        tag_18:\n          dup3\n          dup1\n          add\n          0x01\n          add\n          dup6\n          sstore\n          dup3\n          iszero\n          tag_16\n          jumpi\n          swap2\n          dup3\n          add\n        tag_19:\n          dup3\n          dup2\n          gt\n          iszero\n          tag_20\n          jumpi\n          dup3\n          mload\n          dup3\n          sstore\n          swap2\n          0x20\n          add\n          swap2\n          swap1\n          0x01\n          add\n          swap1\n          jump(tag_19)\n        tag_20:\n        tag_16:\n          pop\n          swap1\n          pop\n          tag_21\n          swap2\n          swap1\n          tag_22\n          jump\t// in\n        tag_21:\n          pop\n          swap1\n          jump\t// out\n        tag_22:\n        tag_23:\n          dup1\n          dup3\n          gt\n          iszero\n          tag_24\n          jumpi\n          0x00\n          dup2\n          0x00\n          swap1\n          sstore\n          pop\n          0x01\n          add\n          jump(tag_23)\n        tag_24:\n          pop\n          swap1\n          jump\t// out\n            /* \"#utility.yul\":7:82   */\n        tag_25:\n            /* \"#utility.yul\":40:46   */\n          0x00\n            /* \"#utility.yul\":73:75   */\n          0x40\n            /* \"#utility.yul\":67:76   */\n          mload\n            /* \"#utility.yul\":57:76   */\n          swap1\n          pop\n            /* \"#utility.yul\":7:82   */\n          swap1\n          jump\t// out\n            /* \"#utility.yul\":88:205   */\n        tag_26:\n            /* \"#utility.yul\":197:198   */\n          0x00\n            /* \"#utility.yul\":194:195   */\n          dup1\n            /* \"#utility.yul\":187:199   */\n          revert\n            /* \"#utility.yul\":211:328   */\n        tag_27:\n            /* \"#utility.yul\":320:321   */\n          0x00\n            /* \"#utility.yul\":317:318   */\n          dup1\n            /* \"#utility.yul\":310:322   */\n          revert\n            /* \"#utility.yul\":334:411   */\n        tag_28:\n            /* \"#utility.yul\":371:378   */\n          0x00\n            /* \"#utility.yul\":400:405   */\n          dup2\n            /* \"#utility.yul\":389:405   */\n          swap1\n          pop\n            /* \"#utility.yul\":334:411   */\n          swap2\n          swap1\n          pop\n          jump\t// out\n            /* \"#utility.yul\":417:539   */\n        tag_29:\n            /* \"#utility.yul\":490:514   */\n          tag_52\n            /* \"#utility.yul\":508:513   */\n          dup2\n            /* \"#utility.yul\":490:514   */\n          tag_28\n          jump\t// in\n        tag_52:\n            /* \"#utility.yul\":483:488   */\n          dup2\n            /* \"#utility.yul\":480:515   */\n          eq\n            /* \"#utility.yul\":470:533   */\n          tag_53\n          jumpi\n            /* \"#utility.yul\":529:530   */\n          0x00\n            /* \"#utility.yul\":526:527   */\n          dup1\n            /* \"#utility.yul\":519:531   */\n          revert\n            /* \"#utility.yul\":470:533   */\n        tag_53:\n            /* \"#utility.yul\":417:539   */\n          pop\n          jump\t// out\n            /* \"#utility.yul\":545:688   */\n        tag_30:\n            /* \"#utility.yul\":602:607   */\n          0x00\n            /* \"#utility.yul\":633:639   */\n          dup2\n            /* \"#utility.yul\":627:640   */\n          mload\n            /* \"#utility.yul\":618:640   */\n          swap1\n          pop\n            /* \"#utility.yul\":649:682   */\n          tag_55\n            /* \"#utility.yul\":676:681   */\n          dup2\n            /* \"#utility.yul\":649:682   */\n          tag_29\n          jump\t// in\n        tag_55:\n            /* \"#utility.yul\":545:688   */\n          swap3\n          swap2\n          pop\n          pop\n          jump\t// out\n            /* \"#utility.yul\":694:820   */\n        tag_31:\n            /* \"#utility.yul\":731:738   */\n          0x00\n            /* \"#utility.yul\":771:813   */\n          0xffffffffffffffffffffffffffffffffffffffff\n            /* \"#utility.yul\":764:769   */\n          dup3\n            /* \"#utility.yul\":760:814   */\n          and\n            /* \"#utility.yul\":749:814   */\n          swap1\n          pop\n            /* \"#utility.yul\":694:820   */\n          swap2\n          swap1\n          pop\n          jump\t// out\n            /* \"#utility.yul\":826:922   */\n        tag_32:\n            /* \"#utility.yul\":863:870   */\n          0x00\n            /* \"#utility.yul\":892:916   */\n          tag_58\n            /* \"#utility.yul\":910:915   */\n          dup3\n            /* \"#utility.yul\":892:916   */\n          tag_31\n          jump\t// in\n        tag_58:\n            /* \"#utility.yul\":881:916   */\n          swap1\n          pop\n            /* \"#utility.yul\":826:922   */\n          swap2\n          swap1\n          pop\n          jump\t// out\n            /* \"#utility.yul\":928:1050   */\n        tag_33:\n            /* \"#utility.yul\":1001:1025   */\n          tag_60\n            /* \"#utility.yul\":1019:1024   */\n          dup2\n            /* \"#utility.yul\":1001:1025   */\n          tag_32\n          jump\t// in\n        tag_60:\n            /* \"#utility.yul\":994:999   */\n          dup2\n            /* \"#utility.yul\":991:1026   */\n          eq\n            /* \"#utility.yul\":981:1044   */\n          tag_61\n          jumpi\n            /* \"#utility.yul\":1040:1041   */\n          0x00\n            /* \"#utility.yul\":1037:1038   */\n          dup1\n            /* \"#utility.yul\":1030:1042   */\n          revert\n            /* \"#utility.yul\":981:1044   */\n        tag_61:\n            /* \"#utility.yul\":928:1050   */\n          pop\n          jump\t// out\n            /* \"#utility.yul\":1056:1199   */\n        tag_34:\n            /* \"#utility.yul\":1113:1118   */\n          0x00\n            /* \"#utility.yul\":1144:1150   */\n          dup2\n            /* \"#utility.yul\":1138:1151   */\n          mload\n            /* \"#utility.yul\":1129:1151   */\n          swap1\n          pop\n            /* \"#utility.yul\":1160:1193   */\n          tag_63\n            /* \"#utility.yul\":1187:1192   */\n          dup2\n            /* \"#utility.yul\":1160:1193   */\n          tag_33\n          jump\t// in\n        tag_63:\n            /* \"#utility.yul\":1056:1199   */\n          swap3\n          swap2\n          pop\n          pop\n          jump\t// out\n            /* \"#utility.yul\":1205:1322   */\n        tag_35:\n            /* \"#utility.yul\":1314:1315   */\n          0x00\n            /* \"#utility.yul\":1311:1312   */\n          dup1\n            /* \"#utility.yul\":1304:1316   */\n          revert\n            /* \"#utility.yul\":1328:1445   */\n        tag_36:\n            /* \"#utility.yul\":1437:1438   */\n          0x00\n            /* \"#utility.yul\":1434:1435   */\n          dup1\n            /* \"#utility.yul\":1427:1439   */\n          revert\n            /* \"#utility.yul\":1451:1553   */\n        tag_37:\n            /* \"#utility.yul\":1492:1498   */\n          0x00\n            /* \"#utility.yul\":1543:1545   */\n          0x1f\n            /* \"#utility.yul\":1539:1546   */\n          not\n            /* \"#utility.yul\":1534:1536   */\n          0x1f\n            /* \"#utility.yul\":1527:1532   */\n          dup4\n            /* \"#utility.yul\":1523:1537   */\n          add\n            /* \"#utility.yul\":1519:1547   */\n          and\n            /* \"#utility.yul\":1509:1547   */\n          swap1\n          pop\n            /* \"#utility.yul\":1451:1553   */\n          swap2\n          swap1\n          pop\n          jump\t// out\n            /* \"#utility.yul\":1559:1739   */\n        tag_38:\n            /* \"#utility.yul\":1607:1684   */\n          0x4e487b7100000000000000000000000000000000000000000000000000000000\n            /* \"#utility.yul\":1604:1605   */\n          0x00\n            /* \"#utility.yul\":1597:1685   */\n          mstore\n            /* \"#utility.yul\":1704:1708   */\n          0x41\n            /* \"#utility.yul\":1701:1702   */\n          0x04\n            /* \"#utility.yul\":1694:1709   */\n          mstore\n            /* \"#utility.yul\":1728:1732   */\n          0x24\n            /* \"#utility.yul\":1725:1726   */\n          0x00\n            /* \"#utility.yul\":1718:1733   */\n          revert\n            /* \"#utility.yul\":1745:2026   */\n        tag_39:\n            /* \"#utility.yul\":1828:1855   */\n          tag_69\n            /* \"#utility.yul\":1850:1854   */\n          dup3\n            /* \"#utility.yul\":1828:1855   */\n          tag_37\n          jump\t// in\n        tag_69:\n            /* \"#utility.yul\":1820:1826   */\n          dup2\n            /* \"#utility.yul\":1816:1856   */\n          add\n            /* \"#utility.yul\":1958:1964   */\n          dup2\n            /* \"#utility.yul\":1946:1956   */\n          dup2\n            /* \"#utility.yul\":1943:1965   */\n          lt\n            /* \"#utility.yul\":1922:1940   */\n          0xffffffffffffffff\n            /* \"#utility.yul\":1910:1920   */\n          dup3\n            /* \"#utility.yul\":1907:1941   */\n          gt\n            /* \"#utility.yul\":1904:1966   */\n          or\n            /* \"#utility.yul\":1901:1989   */\n          iszero\n          tag_70\n          jumpi\n            /* \"#utility.yul\":1969:1987   */\n          tag_71\n          tag_38\n          jump\t// in\n        tag_71:\n            /* \"#utility.yul\":1901:1989   */\n        tag_70:\n            /* \"#utility.yul\":2009:2019   */\n          dup1\n            /* \"#utility.yul\":2005:2007   */\n          0x40\n            /* \"#utility.yul\":1998:2020   */\n          mstore\n            /* \"#utility.yul\":1788:2026   */\n          pop\n            /* \"#utility.yul\":1745:2026   */\n          pop\n          pop\n          jump\t// out\n            /* \"#utility.yul\":2032:2161   */\n        tag_40:\n            /* \"#utility.yul\":2066:2072   */\n          0x00\n            /* \"#utility.yul\":2093:2113   */\n          tag_73\n          tag_25\n          jump\t// in\n        tag_73:\n            /* \"#utility.yul\":2083:2113   */\n          swap1\n          pop\n            /* \"#utility.yul\":2122:2155   */\n          tag_74\n            /* \"#utility.yul\":2150:2154   */\n          dup3\n            /* \"#utility.yul\":2142:2148   */\n          dup3\n            /* \"#utility.yul\":2122:2155   */\n          tag_39\n          jump\t// in\n        tag_74:\n            /* \"#utility.yul\":2032:2161   */\n          swap2\n          swap1\n          pop\n          jump\t// out\n            /* \"#utility.yul\":2167:2475   */\n        tag_41:\n            /* \"#utility.yul\":2229:2233   */\n          0x00\n            /* \"#utility.yul\":2319:2337   */\n          0xffffffffffffffff\n            /* \"#utility.yul\":2311:2317   */\n          dup3\n            /* \"#utility.yul\":2308:2338   */\n          gt\n            /* \"#utility.yul\":2305:2361   */\n          iszero\n          tag_76\n          jumpi\n            /* \"#utility.yul\":2341:2359   */\n          tag_77\n          tag_38\n          jump\t// in\n        tag_77:\n            /* \"#utility.yul\":2305:2361   */\n        tag_76:\n            /* \"#utility.yul\":2379:2408   */\n          tag_78\n            /* \"#utility.yul\":2401:2407   */\n          dup3\n            /* \"#utility.yul\":2379:2408   */\n          tag_37\n          jump\t// in\n        tag_78:\n            /* \"#utility.yul\":2371:2408   */\n          swap1\n          pop\n            /* \"#utility.yul\":2463:2467   */\n          0x20\n            /* \"#utility.yul\":2457:2461   */\n          dup2\n            /* \"#utility.yul\":2453:2468   */\n          add\n            /* \"#utility.yul\":2445:2468   */\n          swap1\n          pop\n            /* \"#utility.yul\":2167:2475   */\n          swap2\n          swap1\n          pop\n          jump\t// out\n            /* \"#utility.yul\":2481:2788   */\n        tag_42:\n            /* \"#utility.yul\":2549:2550   */\n          0x00\n            /* \"#utility.yul\":2559:2672   */\n        tag_80:\n            /* \"#utility.yul\":2573:2579   */\n          dup4\n            /* \"#utility.yul\":2570:2571   */\n          dup2\n            /* \"#utility.yul\":2567:2580   */\n          lt\n            /* \"#utility.yul\":2559:2672   */\n          iszero\n          tag_82\n          jumpi\n            /* \"#utility.yul\":2658:2659   */\n          dup1\n            /* \"#utility.yul\":2653:2656   */\n          dup3\n            /* \"#utility.yul\":2649:2660   */\n          add\n            /* \"#utility.yul\":2643:2661   */\n          mload\n            /* \"#utility.yul\":2639:2640   */\n          dup2\n            /* \"#utility.yul\":2634:2637   */\n          dup5\n            /* \"#utility.yul\":2630:2641   */\n          add\n            /* \"#utility.yul\":2623:2662   */\n          mstore\n            /* \"#utility.yul\":2595:2597   */\n          0x20\n            /* \"#utility.yul\":2592:2593   */\n          dup2\n            /* \"#utility.yul\":2588:2598   */\n          add\n            /* \"#utility.yul\":2583:2598   */\n          swap1\n          pop\n            /* \"#utility.yul\":2559:2672   */\n          jump(tag_80)\n        tag_82:\n            /* \"#utility.yul\":2690:2696   */\n          dup4\n            /* \"#utility.yul\":2687:2688   */\n          dup2\n            /* \"#utility.yul\":2684:2697   */\n          gt\n            /* \"#utility.yul\":2681:2782   */\n          iszero\n          tag_83\n          jumpi\n            /* \"#utility.yul\":2770:2771   */\n          0x00\n            /* \"#utility.yul\":2761:2767   */\n          dup5\n            /* \"#utility.yul\":2756:2759   */\n          dup5\n            /* \"#utility.yul\":2752:2768   */\n          add\n            /* \"#utility.yul\":2745:2772   */\n          mstore\n            /* \"#utility.yul\":2681:2782   */\n        tag_83:\n            /* \"#utility.yul\":2530:2788   */\n          pop\n            /* \"#utility.yul\":2481:2788   */\n          pop\n          pop\n          pop\n          jump\t// out\n            /* \"#utility.yul\":2794:3215   */\n        tag_43:\n            /* \"#utility.yul\":2883:2888   */\n          0x00\n            /* \"#utility.yul\":2908:2974   */\n          tag_85\n            /* \"#utility.yul\":2924:2973   */\n          tag_86\n            /* \"#utility.yul\":2966:2972   */\n          dup5\n            /* \"#utility.yul\":2924:2973   */\n          tag_41\n          jump\t// in\n        tag_86:\n            /* \"#utility.yul\":2908:2974   */\n          tag_40\n          jump\t// in\n        tag_85:\n            /* \"#utility.yul\":2899:2974   */\n          swap1\n          pop\n            /* \"#utility.yul\":2997:3003   */\n          dup3\n            /* \"#utility.yul\":2990:2995   */\n          dup2\n            /* \"#utility.yul\":2983:3004   */\n          mstore\n            /* \"#utility.yul\":3035:3039   */\n          0x20\n            /* \"#utility.yul\":3028:3033   */\n          dup2\n            /* \"#utility.yul\":3024:3040   */\n          add\n            /* \"#utility.yul\":3073:3076   */\n          dup5\n            /* \"#utility.yul\":3064:3070   */\n          dup5\n            /* \"#utility.yul\":3059:3062   */\n          dup5\n            /* \"#utility.yul\":3055:3071   */\n          add\n            /* \"#utility.yul\":3052:3077   */\n          gt\n            /* \"#utility.yul\":3049:3161   */\n          iszero\n          tag_87\n          jumpi\n            /* \"#utility.yul\":3080:3159   */\n          tag_88\n          tag_36\n          jump\t// in\n        tag_88:\n            /* \"#utility.yul\":3049:3161   */\n        tag_87:\n            /* \"#utility.yul\":3170:3209   */\n          tag_89\n            /* \"#utility.yul\":3202:3208   */\n          dup5\n            /* \"#utility.yul\":3197:3200   */\n          dup3\n            /* \"#utility.yul\":3192:3195   */\n          dup6\n            /* \"#utility.yul\":3170:3209   */\n          tag_42\n          jump\t// in\n        tag_89:\n            /* \"#utility.yul\":2889:3215   */\n          pop\n            /* \"#utility.yul\":2794:3215   */\n          swap4\n          swap3\n          pop\n          pop\n          pop\n          jump\t// out\n            /* \"#utility.yul\":3235:3590   */\n        tag_44:\n            /* \"#utility.yul\":3302:3307   */\n          0x00\n            /* \"#utility.yul\":3351:3354   */\n          dup3\n            /* \"#utility.yul\":3344:3348   */\n          0x1f\n            /* \"#utility.yul\":3336:3342   */\n          dup4\n            /* \"#utility.yul\":3332:3349   */\n          add\n            /* \"#utility.yul\":3328:3355   */\n          slt\n            /* \"#utility.yul\":3318:3440   */\n          tag_91\n          jumpi\n            /* \"#utility.yul\":3359:3438   */\n          tag_92\n          tag_35\n          jump\t// in\n        tag_92:\n            /* \"#utility.yul\":3318:3440   */\n        tag_91:\n            /* \"#utility.yul\":3469:3475   */\n          dup2\n            /* \"#utility.yul\":3463:3476   */\n          mload\n            /* \"#utility.yul\":3494:3584   */\n          tag_93\n            /* \"#utility.yul\":3580:3583   */\n          dup5\n            /* \"#utility.yul\":3572:3578   */\n          dup3\n            /* \"#utility.yul\":3565:3569   */\n          0x20\n            /* \"#utility.yul\":3557:3563   */\n          dup7\n            /* \"#utility.yul\":3553:3570   */\n          add\n            /* \"#utility.yul\":3494:3584   */\n          tag_43\n          jump\t// in\n        tag_93:\n            /* \"#utility.yul\":3485:3584   */\n          swap2\n          pop\n            /* \"#utility.yul\":3308:3590   */\n          pop\n            /* \"#utility.yul\":3235:3590   */\n          swap3\n          swap2\n          pop\n          pop\n          jump\t// out\n            /* \"#utility.yul\":3596:5249   */\n        tag_3:\n            /* \"#utility.yul\":3741:3747   */\n          0x00\n            /* \"#utility.yul\":3749:3755   */\n          dup1\n            /* \"#utility.yul\":3757:3763   */\n          0x00\n            /* \"#utility.yul\":3765:3771   */\n          dup1\n            /* \"#utility.yul\":3773:3779   */\n          0x00\n            /* \"#utility.yul\":3781:3787   */\n          dup1\n            /* \"#utility.yul\":3830:3833   */\n          0xc0\n            /* \"#utility.yul\":3818:3827   */\n          dup8\n            /* \"#utility.yul\":3809:3816   */\n          dup10\n            /* \"#utility.yul\":3805:3828   */\n          sub\n            /* \"#utility.yul\":3801:3834   */\n          slt\n            /* \"#utility.yul\":3798:3918   */\n          iszero\n          tag_95\n          jumpi\n            /* \"#utility.yul\":3837:3916   */\n          tag_96\n          tag_26\n          jump\t// in\n        tag_96:\n            /* \"#utility.yul\":3798:3918   */\n        tag_95:\n            /* \"#utility.yul\":3957:3958   */\n          0x00\n            /* \"#utility.yul\":3982:4046   */\n          tag_97\n            /* \"#utility.yul\":4038:4045   */\n          dup10\n            /* \"#utility.yul\":4029:4035   */\n          dup3\n            /* \"#utility.yul\":4018:4027   */\n          dup11\n            /* \"#utility.yul\":4014:4036   */\n          add\n            /* \"#utility.yul\":3982:4046   */\n          tag_30\n          jump\t// in\n        tag_97:\n            /* \"#utility.yul\":3972:4046   */\n          swap7\n          pop\n            /* \"#utility.yul\":3928:4056   */\n          pop\n            /* \"#utility.yul\":4095:4097   */\n          0x20\n            /* \"#utility.yul\":4121:4185   */\n          tag_98\n            /* \"#utility.yul\":4177:4184   */\n          dup10\n            /* \"#utility.yul\":4168:4174   */\n          dup3\n            /* \"#utility.yul\":4157:4166   */\n          dup11\n            /* \"#utility.yul\":4153:4175   */\n          add\n            /* \"#utility.yul\":4121:4185   */\n          tag_34\n          jump\t// in\n        tag_98:\n            /* \"#utility.yul\":4111:4185   */\n          swap6\n          pop\n            /* \"#utility.yul\":4066:4195   */\n          pop\n            /* \"#utility.yul\":4255:4257   */\n          0x40\n            /* \"#utility.yul\":4244:4253   */\n          dup8\n            /* \"#utility.yul\":4240:4258   */\n          add\n            /* \"#utility.yul\":4234:4259   */\n          mload\n            /* \"#utility.yul\":4286:4304   */\n          0xffffffffffffffff\n            /* \"#utility.yul\":4278:4284   */\n          dup2\n            /* \"#utility.yul\":4275:4305   */\n          gt\n            /* \"#utility.yul\":4272:4389   */\n          iszero\n          tag_99\n          jumpi\n            /* \"#utility.yul\":4308:4387   */\n          tag_100\n          tag_27\n          jump\t// in\n        tag_100:\n            /* \"#utility.yul\":4272:4389   */\n        tag_99:\n            /* \"#utility.yul\":4413:4487   */\n          tag_101\n            /* \"#utility.yul\":4479:4486   */\n          dup10\n            /* \"#utility.yul\":4470:4476   */\n          dup3\n            /* \"#utility.yul\":4459:4468   */\n          dup11\n            /* \"#utility.yul\":4455:4477   */\n          add\n            /* \"#utility.yul\":4413:4487   */\n          tag_44\n          jump\t// in\n        tag_101:\n            /* \"#utility.yul\":4403:4487   */\n          swap5\n          pop\n            /* \"#utility.yul\":4205:4497   */\n          pop\n            /* \"#utility.yul\":4557:4559   */\n          0x60\n            /* \"#utility.yul\":4546:4555   */\n          dup8\n            /* \"#utility.yul\":4542:4560   */\n          add\n            /* \"#utility.yul\":4536:4561   */\n          mload\n            /* \"#utility.yul\":4588:4606   */\n          0xffffffffffffffff\n            /* \"#utility.yul\":4580:4586   */\n          dup2\n            /* \"#utility.yul\":4577:4607   */\n          gt\n            /* \"#utility.yul\":4574:4691   */\n          iszero\n          tag_102\n          jumpi\n            /* \"#utility.yul\":4610:4689   */\n          tag_103\n          tag_27\n          jump\t// in\n        tag_103:\n            /* \"#utility.yul\":4574:4691   */\n        tag_102:\n            /* \"#utility.yul\":4715:4789   */\n          tag_104\n            /* \"#utility.yul\":4781:4788   */\n          dup10\n            /* \"#utility.yul\":4772:4778   */\n          dup3\n            /* \"#utility.yul\":4761:4770   */\n          dup11\n            /* \"#utility.yul\":4757:4779   */\n          add\n            /* \"#utility.yul\":4715:4789   */\n          tag_44\n          jump\t// in\n        tag_104:\n            /* \"#utility.yul\":4705:4789   */\n          swap4\n          pop\n            /* \"#utility.yul\":4507:4799   */\n          pop\n            /* \"#utility.yul\":4859:4862   */\n          0x80\n            /* \"#utility.yul\":4848:4857   */\n          dup8\n            /* \"#utility.yul\":4844:4863   */\n          add\n            /* \"#utility.yul\":4838:4864   */\n          mload\n            /* \"#utility.yul\":4891:4909   */\n          0xffffffffffffffff\n            /* \"#utility.yul\":4883:4889   */\n          dup2\n            /* \"#utility.yul\":4880:4910   */\n          gt\n            /* \"#utility.yul\":4877:4994   */\n          iszero\n          tag_105\n          jumpi\n            /* \"#utility.yul\":4913:4992   */\n          tag_106\n          tag_27\n          jump\t// in\n        tag_106:\n            /* \"#utility.yul\":4877:4994   */\n        tag_105:\n            /* \"#utility.yul\":5018:5092   */\n          tag_107\n            /* \"#utility.yul\":5084:5091   */\n          dup10\n            /* \"#utility.yul\":5075:5081   */\n          dup3\n            /* \"#utility.yul\":5064:5073   */\n          dup11\n            /* \"#utility.yul\":5060:5082   */\n          add\n            /* \"#utility.yul\":5018:5092   */\n          tag_44\n          jump\t// in\n        tag_107:\n            /* \"#utility.yul\":5008:5092   */\n          swap3\n          pop\n            /* \"#utility.yul\":4809:5102   */\n          pop\n            /* \"#utility.yul\":5141:5144   */\n          0xa0\n            /* \"#utility.yul\":5168:5232   */\n          tag_108\n            /* \"#utility.yul\":5224:5231   */\n          dup10\n            /* \"#utility.yul\":5215:5221   */\n          dup3\n            /* \"#utility.yul\":5204:5213   */\n          dup11\n            /* \"#utility.yul\":5200:5222   */\n          add\n            /* \"#utility.yul\":5168:5232   */\n          tag_30\n          jump\t// in\n        tag_108:\n            /* \"#utility.yul\":5158:5232   */\n          swap2\n          pop\n            /* \"#utility.yul\":5112:5242   */\n          pop\n            /* \"#utility.yul\":3596:5249   */\n          swap3\n          swap6\n          pop\n          swap3\n          swap6\n          pop\n          swap3\n          swap6\n          jump\t// out\n            /* \"#utility.yul\":5255:5435   */\n        tag_12:\n            /* \"#utility.yul\":5303:5380   */\n          0x4e487b7100000000000000000000000000000000000000000000000000000000\n            /* \"#utility.yul\":5300:5301   */\n          0x00\n            /* \"#utility.yul\":5293:5381   */\n          mstore\n            /* \"#utility.yul\":5400:5404   */\n          0x21\n            /* \"#utility.yul\":5397:5398   */\n          0x04\n            /* \"#utility.yul\":5390:5405   */\n          mstore\n            /* \"#utility.yul\":5424:5428   */\n          0x24\n            /* \"#utility.yul\":5421:5422   */\n          0x00\n            /* \"#utility.yul\":5414:5429   */\n          revert\n            /* \"#utility.yul\":5441:5621   */\n        tag_45:\n            /* \"#utility.yul\":5489:5566   */\n          0x4e487b7100000000000000000000000000000000000000000000000000000000\n            /* \"#utility.yul\":5486:5487   */\n          0x00\n            /* \"#utility.yul\":5479:5567   */\n          mstore\n            /* \"#utility.yul\":5586:5590   */\n          0x22\n            /* \"#utility.yul\":5583:5584   */\n          0x04\n            /* \"#utility.yul\":5576:5591   */\n          mstore\n            /* \"#utility.yul\":5610:5614   */\n          0x24\n            /* \"#utility.yul\":5607:5608   */\n          0x00\n            /* \"#utility.yul\":5600:5615   */\n          revert\n            /* \"#utility.yul\":5627:5947   */\n        tag_15:\n            /* \"#utility.yul\":5671:5677   */\n          0x00\n            /* \"#utility.yul\":5708:5709   */\n          0x02\n            /* \"#utility.yul\":5702:5706   */\n          dup3\n            /* \"#utility.yul\":5698:5710   */\n          div\n            /* \"#utility.yul\":5688:5710   */\n          swap1\n          pop\n            /* \"#utility.yul\":5755:5756   */\n          0x01\n            /* \"#utility.yul\":5749:5753   */\n          dup3\n            /* \"#utility.yul\":5745:5757   */\n          and\n            /* \"#utility.yul\":5776:5794   */\n          dup1\n            /* \"#utility.yul\":5766:5847   */\n          tag_112\n          jumpi\n            /* \"#utility.yul\":5832:5836   */\n          0x7f\n            /* \"#utility.yul\":5824:5830   */\n          dup3\n            /* \"#utility.yul\":5820:5837   */\n          and\n            /* \"#utility.yul\":5810:5837   */\n          swap2\n          pop\n            /* \"#utility.yul\":5766:5847   */\n        tag_112:\n            /* \"#utility.yul\":5894:5896   */\n          0x20\n            /* \"#utility.yul\":5886:5892   */\n          dup3\n            /* \"#utility.yul\":5883:5897   */\n          lt\n            /* \"#utility.yul\":5863:5881   */\n          dup2\n            /* \"#utility.yul\":5860:5898   */\n          sub\n            /* \"#utility.yul\":5857:5941   */\n          tag_113\n          jumpi\n            /* \"#utility.yul\":5913:5931   */\n          tag_114\n          tag_45\n          jump\t// in\n        tag_114:\n            /* \"#utility.yul\":5857:5941   */\n        tag_113:\n            /* \"#utility.yul\":5678:5947   */\n          pop\n            /* \"#utility.yul\":5627:5947   */\n          swap2\n          swap1\n          pop\n          jump\t// out\n            /* \"Campaigns.sol\":10115:12522  contract Campaign {... */\n        tag_13:\n          dataSize(sub_0)\n          dup1\n          dataOffset(sub_0)\n          0x00\n          codecopy\n          0x00\n          return\n        stop\n\n        sub_0: assembly {\n                /* \"Campaigns.sol\":10115:12522  contract Campaign {... */\n              mstore(0x40, 0x80)\n              jumpi(tag_1, lt(calldatasize, 0x04))\n              shr(0xe0, calldataload(0x00))\n              dup1\n              0x97654a8c\n              gt\n              tag_13\n              jumpi\n              dup1\n              0x97654a8c\n              eq\n              tag_7\n              jumpi\n              dup1\n              0xa7f33715\n              eq\n              tag_8\n              jumpi\n              dup1\n              0xaba83150\n              eq\n              tag_9\n              jumpi\n              dup1\n              0xb2a87fc3\n              eq\n              tag_10\n              jumpi\n              dup1\n              0xb69ef8a8\n              eq\n              tag_11\n              jumpi\n              dup1\n              0xd7bb99ba\n              eq\n              tag_12\n              jumpi\n              jump(tag_1)\n            tag_13:\n              dup1\n              0x1fbed579\n              eq\n              tag_2\n              jumpi\n              dup1\n              0x200d2ed2\n              eq\n              tag_3\n              jumpi\n              dup1\n              0x4051ddac\n              eq\n              tag_4\n              jumpi\n              dup1\n              0x481c6a75\n              eq\n              tag_5\n              jumpi\n              dup1\n              0x7e7cd1b3\n              eq\n              tag_6\n              jumpi\n            tag_1:\n              0x00\n              dup1\n              revert\n                /* \"Campaigns.sol\":10674:10703  address[] public contributers */\n            tag_2:\n              callvalue\n              dup1\n              iszero\n              tag_14\n              jumpi\n              0x00\n              dup1\n              revert\n            tag_14:\n              pop\n              tag_15\n              0x04\n              dup1\n              calldatasize\n              sub\n              dup2\n              add\n              swap1\n              tag_16\n              swap2\n              swap1\n              tag_17\n              jump\t// in\n            tag_16:\n              tag_18\n              jump\t// in\n            tag_15:\n              mload(0x40)\n              tag_19\n              swap2\n              swap1\n              tag_20\n              jump\t// in\n            tag_19:\n              mload(0x40)\n              dup1\n              swap2\n              sub\n              swap1\n              return\n                /* \"Campaigns.sol\":10476:10505  Campaign_Status public status */\n            tag_3:\n              callvalue\n              dup1\n              iszero\n              tag_21\n              jumpi\n              0x00\n              dup1\n              revert\n            tag_21:\n              pop\n              tag_22\n              tag_23\n              jump\t// in\n            tag_22:\n              mload(0x40)\n              tag_24\n              swap2\n              swap1\n              tag_25\n              jump\t// in\n            tag_24:\n              mload(0x40)\n              dup1\n              swap2\n              sub\n              swap1\n              return\n                /* \"Campaigns.sol\":12075:12519  function getSummary()... */\n            tag_4:\n              callvalue\n              dup1\n              iszero\n              tag_26\n              jumpi\n              0x00\n              dup1\n              revert\n            tag_26:\n              pop\n              tag_27\n              tag_28\n              jump\t// in\n            tag_27:\n              mload(0x40)\n              tag_29\n              swap8\n              swap7\n              swap6\n              swap5\n              swap4\n              swap3\n              swap2\n              swap1\n              tag_30\n              jump\t// in\n            tag_29:\n              mload(0x40)\n              dup1\n              swap2\n              sub\n              swap1\n              return\n                /* \"Campaigns.sol\":10343:10365  address public manager */\n            tag_5:\n              callvalue\n              dup1\n              iszero\n              tag_31\n              jumpi\n              0x00\n              dup1\n              revert\n            tag_31:\n              pop\n              tag_32\n              tag_33\n              jump\t// in\n            tag_32:\n              mload(0x40)\n              tag_34\n              swap2\n              swap1\n              tag_20\n              jump\t// in\n            tag_34:\n              mload(0x40)\n              dup1\n              swap2\n              sub\n              swap1\n              return\n                /* \"Campaigns.sol\":10511:10537  string public CampaignName */\n            tag_6:\n              callvalue\n              dup1\n              iszero\n              tag_35\n              jumpi\n              0x00\n              dup1\n              revert\n            tag_35:\n              pop\n              tag_36\n              tag_37\n              jump\t// in\n            tag_36:\n              mload(0x40)\n              tag_38\n              swap2\n              swap1\n              tag_39\n              jump\t// in\n            tag_38:\n              mload(0x40)\n              dup1\n              swap2\n              sub\n              swap1\n              return\n                /* \"Campaigns.sol\":10543:10576  string public CampaignDescription */\n            tag_7:\n              callvalue\n              dup1\n              iszero\n              tag_40\n              jumpi\n              0x00\n              dup1\n              revert\n            tag_40:\n              pop\n              tag_41\n              tag_42\n              jump\t// in\n            tag_41:\n              mload(0x40)\n              tag_43\n              swap2\n              swap1\n              tag_39\n              jump\t// in\n            tag_43:\n              mload(0x40)\n              dup1\n              swap2\n              sub\n              swap1\n              return\n                /* \"Campaigns.sol\":10371:10405  uint256 public minimunContribution */\n            tag_8:\n              callvalue\n              dup1\n              iszero\n              tag_44\n              jumpi\n              0x00\n              dup1\n              revert\n            tag_44:\n              pop\n              tag_45\n              tag_46\n              jump\t// in\n            tag_45:\n              mload(0x40)\n              tag_47\n              swap2\n              swap1\n              tag_48\n              jump\t// in\n            tag_47:\n              mload(0x40)\n              dup1\n              swap2\n              sub\n              swap1\n              return\n                /* \"Campaigns.sol\":10582:10604  string public imageUrl */\n            tag_9:\n              callvalue\n              dup1\n              iszero\n              tag_49\n              jumpi\n              0x00\n              dup1\n              revert\n            tag_49:\n              pop\n              tag_50\n              tag_51\n              jump\t// in\n            tag_50:\n              mload(0x40)\n              tag_52\n              swap2\n              swap1\n              tag_39\n              jump\t// in\n            tag_52:\n              mload(0x40)\n              dup1\n              swap2\n              sub\n              swap1\n              return\n                /* \"Campaigns.sol\":10638:10668  uint256 public targetToAchieve */\n            tag_10:\n              callvalue\n              dup1\n              iszero\n              tag_53\n              jumpi\n              0x00\n              dup1\n              revert\n            tag_53:\n              pop\n              tag_54\n              tag_55\n              jump\t// in\n            tag_54:\n              mload(0x40)\n              tag_56\n              swap2\n              swap1\n              tag_48\n              jump\t// in\n            tag_56:\n              mload(0x40)\n              dup1\n              swap2\n              sub\n              swap1\n              return\n                /* \"Campaigns.sol\":10610:10632  uint256 public balance */\n            tag_11:\n              callvalue\n              dup1\n              iszero\n              tag_57\n              jumpi\n              0x00\n              dup1\n              revert\n            tag_57:\n              pop\n              tag_58\n              tag_59\n              jump\t// in\n            tag_58:\n              mload(0x40)\n              tag_60\n              swap2\n              swap1\n              tag_48\n              jump\t// in\n            tag_60:\n              mload(0x40)\n              dup1\n              swap2\n              sub\n              swap1\n              return\n                /* \"Campaigns.sol\":11287:11522  function contribute() public payable onlyFundContributor {... */\n            tag_12:\n              tag_61\n              tag_62\n              jump\t// in\n            tag_61:\n              stop\n                /* \"Campaigns.sol\":10674:10703  address[] public contributers */\n            tag_18:\n              0x09\n              dup2\n              dup2\n              sload\n              dup2\n              lt\n              tag_63\n              jumpi\n              0x00\n              dup1\n              revert\n            tag_63:\n              swap1\n              0x00\n              mstore\n              keccak256(0x00, 0x20)\n              add\n              0x00\n              swap2\n              pop\n              sload\n              swap1\n              0x0100\n              exp\n              swap1\n              div\n              0xffffffffffffffffffffffffffffffffffffffff\n              and\n              dup2\n              jump\t// out\n                /* \"Campaigns.sol\":10476:10505  Campaign_Status public status */\n            tag_23:\n              0x03\n              0x00\n              swap1\n              sload\n              swap1\n              0x0100\n              exp\n              swap1\n              div\n              0xff\n              and\n              dup2\n              jump\t// out\n                /* \"Campaigns.sol\":12075:12519  function getSummary()... */\n            tag_28:\n                /* \"Campaigns.sol\":12143:12150  uint256 */\n              0x00\n                /* \"Campaigns.sol\":12160:12167  uint256 */\n              dup1\n                /* \"Campaigns.sol\":12177:12184  address */\n              0x00\n                /* \"Campaigns.sol\":12194:12207  string memory */\n              0x60\n                /* \"Campaigns.sol\":12217:12230  string memory */\n              dup1\n                /* \"Campaigns.sol\":12240:12253  string memory */\n              0x60\n                /* \"Campaigns.sol\":12263:12270  uint256 */\n              0x00\n                /* \"Campaigns.sol\":12317:12336  minimunContribution */\n              sload(0x02)\n                /* \"Campaigns.sol\":12350:12371  address(this).balance */\n              selfbalance\n                /* \"Campaigns.sol\":12385:12392  manager */\n              0x01\n              0x00\n              swap1\n              sload\n              swap1\n              0x0100\n              exp\n              swap1\n              div\n              0xffffffffffffffffffffffffffffffffffffffff\n              and\n                /* \"Campaigns.sol\":12406:12418  CampaignName */\n              0x04\n                /* \"Campaigns.sol\":12432:12451  CampaignDescription */\n              0x05\n                /* \"Campaigns.sol\":12465:12473  imageUrl */\n              0x06\n                /* \"Campaigns.sol\":12487:12502  targetToAchieve */\n              sload(0x08)\n                /* \"Campaigns.sol\":12296:12512  return (... */\n              dup4\n              dup1\n              sload\n              tag_66\n              swap1\n              tag_67\n              jump\t// in\n            tag_66:\n              dup1\n              0x1f\n              add\n              0x20\n              dup1\n              swap2\n              div\n              mul\n              0x20\n              add\n              mload(0x40)\n              swap1\n              dup2\n              add\n              0x40\n              mstore\n              dup1\n              swap3\n              swap2\n              swap1\n              dup2\n              dup2\n              mstore\n              0x20\n              add\n              dup3\n              dup1\n              sload\n              tag_68\n              swap1\n              tag_67\n              jump\t// in\n            tag_68:\n              dup1\n              iszero\n              tag_69\n              jumpi\n              dup1\n              0x1f\n              lt\n              tag_70\n              jumpi\n              0x0100\n              dup1\n              dup4\n              sload\n              div\n              mul\n              dup4\n              mstore\n              swap2\n              0x20\n              add\n              swap2\n              jump(tag_69)\n            tag_70:\n              dup3\n              add\n              swap2\n              swap1\n              0x00\n              mstore\n              keccak256(0x00, 0x20)\n              swap1\n            tag_71:\n              dup2\n              sload\n              dup2\n              mstore\n              swap1\n              0x01\n              add\n              swap1\n              0x20\n              add\n              dup1\n              dup4\n              gt\n              tag_71\n              jumpi\n              dup3\n              swap1\n              sub\n              0x1f\n              and\n              dup3\n              add\n              swap2\n            tag_69:\n              pop\n              pop\n              pop\n              pop\n              pop\n              swap4\n              pop\n              dup3\n              dup1\n              sload\n              tag_72\n              swap1\n              tag_67\n              jump\t// in\n            tag_72:\n              dup1\n              0x1f\n              add\n              0x20\n              dup1\n              swap2\n              div\n              mul\n              0x20\n              add\n              mload(0x40)\n              swap1\n              dup2\n              add\n              0x40\n              mstore\n              dup1\n              swap3\n              swap2\n              swap1\n              dup2\n              dup2\n              mstore\n              0x20\n              add\n              dup3\n              dup1\n              sload\n              tag_73\n              swap1\n              tag_67\n              jump\t// in\n            tag_73:\n              dup1\n              iszero\n              tag_74\n              jumpi\n              dup1\n              0x1f\n              lt\n              tag_75\n              jumpi\n              0x0100\n              dup1\n              dup4\n              sload\n              div\n              mul\n              dup4\n              mstore\n              swap2\n              0x20\n              add\n              swap2\n              jump(tag_74)\n            tag_75:\n              dup3\n              add\n              swap2\n              swap1\n              0x00\n              mstore\n              keccak256(0x00, 0x20)\n              swap1\n            tag_76:\n              dup2\n              sload\n              dup2\n              mstore\n              swap1\n              0x01\n              add\n              swap1\n              0x20\n              add\n              dup1\n              dup4\n              gt\n              tag_76\n              jumpi\n              dup3\n              swap1\n              sub\n              0x1f\n              and\n              dup3\n              add\n              swap2\n            tag_74:\n              pop\n              pop\n              pop\n              pop\n              pop\n              swap3\n              pop\n              dup2\n              dup1\n              sload\n              tag_77\n              swap1\n              tag_67\n              jump\t// in\n            tag_77:\n              dup1\n              0x1f\n              add\n              0x20\n              dup1\n              swap2\n              div\n              mul\n              0x20\n              add\n              mload(0x40)\n              swap1\n              dup2\n              add\n              0x40\n              mstore\n              dup1\n              swap3\n              swap2\n              swap1\n              dup2\n              dup2\n              mstore\n              0x20\n              add\n              dup3\n              dup1\n              sload\n              tag_78\n              swap1\n              tag_67\n              jump\t// in\n            tag_78:\n              dup1\n              iszero\n              tag_79\n              jumpi\n              dup1\n              0x1f\n              lt\n              tag_80\n              jumpi\n              0x0100\n              dup1\n              dup4\n              sload\n              div\n              mul\n              dup4\n              mstore\n              swap2\n              0x20\n              add\n              swap2\n              jump(tag_79)\n            tag_80:\n              dup3\n              add\n              swap2\n              swap1\n              0x00\n              mstore\n              keccak256(0x00, 0x20)\n              swap1\n            tag_81:\n              dup2\n              sload\n              dup2\n              mstore\n              swap1\n              0x01\n              add\n              swap1\n              0x20\n              add\n              dup1\n              dup4\n              gt\n              tag_81\n              jumpi\n              dup3\n              swap1\n              sub\n              0x1f\n              and\n              dup3\n              add\n              swap2\n            tag_79:\n              pop\n              pop\n              pop\n              pop\n              pop\n              swap2\n              pop\n              swap7\n              pop\n              swap7\n              pop\n              swap7\n              pop\n              swap7\n              pop\n              swap7\n              pop\n              swap7\n              pop\n              swap7\n              pop\n                /* \"Campaigns.sol\":12075:12519  function getSummary()... */\n              swap1\n              swap2\n              swap3\n              swap4\n              swap5\n              swap6\n              swap7\n              jump\t// out\n                /* \"Campaigns.sol\":10343:10365  address public manager */\n            tag_33:\n              0x01\n              0x00\n              swap1\n              sload\n              swap1\n              0x0100\n              exp\n              swap1\n              div\n              0xffffffffffffffffffffffffffffffffffffffff\n              and\n              dup2\n              jump\t// out\n                /* \"Campaigns.sol\":10511:10537  string public CampaignName */\n            tag_37:\n              0x04\n              dup1\n              sload\n              tag_82\n              swap1\n              tag_67\n              jump\t// in\n            tag_82:\n              dup1\n              0x1f\n              add\n              0x20\n              dup1\n              swap2\n              div\n              mul\n              0x20\n              add\n              mload(0x40)\n              swap1\n              dup2\n              add\n              0x40\n              mstore\n              dup1\n              swap3\n              swap2\n              swap1\n              dup2\n              dup2\n              mstore\n              0x20\n              add\n              dup3\n              dup1\n              sload\n              tag_83\n              swap1\n              tag_67\n              jump\t// in\n            tag_83:\n              dup1\n              iszero\n              tag_84\n              jumpi\n              dup1\n              0x1f\n              lt\n              tag_85\n              jumpi\n              0x0100\n              dup1\n              dup4\n              sload\n              div\n              mul\n              dup4\n              mstore\n              swap2\n              0x20\n              add\n              swap2\n              jump(tag_84)\n            tag_85:\n              dup3\n              add\n              swap2\n              swap1\n              0x00\n              mstore\n              keccak256(0x00, 0x20)\n              swap1\n            tag_86:\n              dup2\n              sload\n              dup2\n              mstore\n              swap1\n              0x01\n              add\n              swap1\n              0x20\n              add\n              dup1\n              dup4\n              gt\n              tag_86\n              jumpi\n              dup3\n              swap1\n              sub\n              0x1f\n              and\n              dup3\n              add\n              swap2\n            tag_84:\n              pop\n              pop\n              pop\n              pop\n              pop\n              dup2\n              jump\t// out\n                /* \"Campaigns.sol\":10543:10576  string public CampaignDescription */\n            tag_42:\n              0x05\n              dup1\n              sload\n              tag_87\n              swap1\n              tag_67\n              jump\t// in\n            tag_87:\n              dup1\n              0x1f\n              add\n              0x20\n              dup1\n              swap2\n              div\n              mul\n              0x20\n              add\n              mload(0x40)\n              swap1\n              dup2\n              add\n              0x40\n              mstore\n              dup1\n              swap3\n              swap2\n              swap1\n              dup2\n              dup2\n              mstore\n              0x20\n              add\n              dup3\n              dup1\n              sload\n              tag_88\n              swap1\n              tag_67\n              jump\t// in\n            tag_88:\n              dup1\n              iszero\n              tag_89\n              jumpi\n              dup1\n              0x1f\n              lt\n              tag_90\n              jumpi\n              0x0100\n              dup1\n              dup4\n              sload\n              div\n              mul\n              dup4\n              mstore\n              swap2\n              0x20\n              add\n              swap2\n              jump(tag_89)\n            tag_90:\n              dup3\n              add\n              swap2\n              swap1\n              0x00\n              mstore\n              keccak256(0x00, 0x20)\n              swap1\n            tag_91:\n              dup2\n              sload\n              dup2\n              mstore\n              swap1\n              0x01\n              add\n              swap1\n              0x20\n              add\n              dup1\n              dup4\n              gt\n              tag_91\n              jumpi\n              dup3\n              swap1\n              sub\n              0x1f\n              and\n              dup3\n              add\n              swap2\n            tag_89:\n              pop\n              pop\n              pop\n              pop\n              pop\n              dup2\n              jump\t// out\n                /* \"Campaigns.sol\":10371:10405  uint256 public minimunContribution */\n            tag_46:\n              sload(0x02)\n              dup2\n              jump\t// out\n                /* \"Campaigns.sol\":10582:10604  string public imageUrl */\n            tag_51:\n              0x06\n              dup1\n              sload\n              tag_92\n              swap1\n              tag_67\n              jump\t// in\n            tag_92:\n              dup1\n              0x1f\n              add\n              0x20\n              dup1\n              swap2\n              div\n              mul\n              0x20\n              add\n              mload(0x40)\n              swap1\n              dup2\n              add\n              0x40\n              mstore\n              dup1\n              swap3\n              swap2\n              swap1\n              dup2\n              dup2\n              mstore\n              0x20\n              add\n              dup3\n              dup1\n              sload\n              tag_93\n              swap1\n              tag_67\n              jump\t// in\n            tag_93:\n              dup1\n              iszero\n              tag_94\n              jumpi\n              dup1\n              0x1f\n              lt\n              tag_95\n              jumpi\n              0x0100\n              dup1\n              dup4\n              sload\n              div\n              mul\n              dup4\n              mstore\n              swap2\n              0x20\n              add\n              swap2\n              jump(tag_94)\n            tag_95:\n              dup3\n              add\n              swap2\n              swap1\n              0x00\n              mstore\n              keccak256(0x00, 0x20)\n              swap1\n            tag_96:\n              dup2\n              sload\n              dup2\n              mstore\n              swap1\n              0x01\n              add\n              swap1\n              0x20\n              add\n              dup1\n              dup4\n              gt\n              tag_96\n              jumpi\n              dup3\n              swap1\n              sub\n              0x1f\n              and\n              dup3\n              add\n              swap2\n            tag_94:\n              pop\n              pop\n              pop\n              pop\n              pop\n              dup2\n              jump\t// out\n                /* \"Campaigns.sol\":10638:10668  uint256 public targetToAchieve */\n            tag_55:\n              sload(0x08)\n              dup2\n              jump\t// out\n                /* \"Campaigns.sol\":10610:10632  uint256 public balance */\n            tag_59:\n              sload(0x07)\n              dup2\n              jump\t// out\n                /* \"Campaigns.sol\":11287:11522  function contribute() public payable onlyFundContributor {... */\n            tag_62:\n                /* \"Campaigns.sol\":10269:10278  whitelist */\n              0x00\n              dup1\n              sload\n              swap1\n              0x0100\n              exp\n              swap1\n              div\n              0xffffffffffffffffffffffffffffffffffffffff\n              and\n                /* \"Campaigns.sol\":10269:10286  whitelist.hasRole */\n              0xffffffffffffffffffffffffffffffffffffffff\n              and\n              0x217fe6c6\n                /* \"Campaigns.sol\":10287:10297  msg.sender */\n              caller\n                /* \"Campaigns.sol\":10269:10318  whitelist.hasRole(msg.sender, \"fund_contributor\") */\n              mload(0x40)\n              dup3\n              0xffffffff\n              and\n              0xe0\n              shl\n              dup2\n              mstore\n              0x04\n              add\n              tag_98\n              swap2\n              swap1\n              tag_99\n              jump\t// in\n            tag_98:\n              0x20\n              mload(0x40)\n              dup1\n              dup4\n              sub\n              dup2\n              dup7\n              gas\n              staticcall\n              iszero\n              dup1\n              iszero\n              tag_101\n              jumpi\n              returndatasize\n              0x00\n              dup1\n              returndatacopy\n              revert(0x00, returndatasize)\n            tag_101:\n              pop\n              pop\n              pop\n              pop\n              mload(0x40)\n              returndatasize\n              not(0x1f)\n              0x1f\n              dup3\n              add\n              and\n              dup3\n              add\n              dup1\n              0x40\n              mstore\n              pop\n              dup2\n              add\n              swap1\n              tag_102\n              swap2\n              swap1\n              tag_103\n              jump\t// in\n            tag_102:\n                /* \"Campaigns.sol\":10261:10319  require(whitelist.hasRole(msg.sender, \"fund_contributor\")) */\n              tag_104\n              jumpi\n              0x00\n              dup1\n              revert\n            tag_104:\n                /* \"Campaigns.sol\":11374:11393  minimunContribution */\n              sload(0x02)\n                /* \"Campaigns.sol\":11362:11371  msg.value */\n              callvalue\n                /* \"Campaigns.sol\":11362:11393  msg.value > minimunContribution */\n              gt\n                /* \"Campaigns.sol\":11354:11394  require(msg.value > minimunContribution) */\n              tag_106\n              jumpi\n              0x00\n              dup1\n              revert\n            tag_106:\n                /* \"Campaigns.sol\":11451:11466  targetToAchieve */\n              sload(0x08)\n                /* \"Campaigns.sol\":11437:11446  msg.value */\n              callvalue\n                /* \"Campaigns.sol\":11413:11434  address(this).balance */\n              selfbalance\n                /* \"Campaigns.sol\":11413:11446  address(this).balance + msg.value */\n              tag_107\n              swap2\n              swap1\n              tag_108\n              jump\t// in\n            tag_107:\n                /* \"Campaigns.sol\":11412:11466  (address(this).balance + msg.value) <= targetToAchieve */\n              gt\n              iszero\n                /* \"Campaigns.sol\":11404:11467  require((address(this).balance + msg.value) <= targetToAchieve) */\n              tag_109\n              jumpi\n              0x00\n              dup1\n              revert\n            tag_109:\n                /* \"Campaigns.sol\":11477:11515  payOut(address(this).balance, manager) */\n              tag_110\n                /* \"Campaigns.sol\":11484:11505  address(this).balance */\n              selfbalance\n                /* \"Campaigns.sol\":11507:11514  manager */\n              0x01\n              0x00\n              swap1\n              sload\n              swap1\n              0x0100\n              exp\n              swap1\n              div\n              0xffffffffffffffffffffffffffffffffffffffff\n              and\n                /* \"Campaigns.sol\":11477:11483  payOut */\n              tag_111\n                /* \"Campaigns.sol\":11477:11515  payOut(address(this).balance, manager) */\n              jump\t// in\n            tag_110:\n                /* \"Campaigns.sol\":11287:11522  function contribute() public payable onlyFundContributor {... */\n              jump\t// out\n                /* \"Campaigns.sol\":11587:11828  function payOut(uint256 bal, address addr) internal {... */\n            tag_111:\n                /* \"Campaigns.sol\":11660:11675  targetToAchieve */\n              sload(0x08)\n                /* \"Campaigns.sol\":11653:11656  bal */\n              dup3\n                /* \"Campaigns.sol\":11653:11675  bal == targetToAchieve */\n              sub\n                /* \"Campaigns.sol\":11649:11822  if (bal == targetToAchieve) {... */\n              tag_113\n              jumpi\n                /* \"Campaigns.sol\":11699:11703  addr */\n              dup1\n                /* \"Campaigns.sol\":11691:11713  payable(addr).transfer */\n              0xffffffffffffffffffffffffffffffffffffffff\n              and\n                /* \"Campaigns.sol\":11691:11730  payable(addr).transfer(targetToAchieve) */\n              0x08fc\n                /* \"Campaigns.sol\":11714:11729  targetToAchieve */\n              sload(0x08)\n                /* \"Campaigns.sol\":11691:11730  payable(addr).transfer(targetToAchieve) */\n              swap1\n              dup2\n              iszero\n              mul\n              swap1\n              mload(0x40)\n              0x00\n              mload(0x40)\n              dup1\n              dup4\n              sub\n              dup2\n              dup6\n              dup9\n              dup9\n              call\n              swap4\n              pop\n              pop\n              pop\n              pop\n              iszero\n              dup1\n              iszero\n              tag_115\n              jumpi\n              returndatasize\n              0x00\n              dup1\n              returndatacopy\n              revert(0x00, returndatasize)\n            tag_115:\n              pop\n                /* \"Campaigns.sol\":11749:11766  CreatorPaid(addr) */\n              0x2f256415efc8561af8db667cb242964b19be7380f379ccdafaa0e54a6f6b7069\n                /* \"Campaigns.sol\":11761:11765  addr */\n              dup2\n                /* \"Campaigns.sol\":11749:11766  CreatorPaid(addr) */\n              mload(0x40)\n              tag_116\n              swap2\n              swap1\n              tag_20\n              jump\t// in\n            tag_116:\n              mload(0x40)\n              dup1\n              swap2\n              sub\n              swap1\n              log1\n                /* \"Campaigns.sol\":11789:11811  Campaign_Status.Closed */\n              0x01\n                /* \"Campaigns.sol\":11780:11786  status */\n              0x03\n              0x00\n                /* \"Campaigns.sol\":11780:11811  status = Campaign_Status.Closed */\n              0x0100\n              exp\n              dup2\n              sload\n              dup2\n              0xff\n              mul\n              not\n              and\n              swap1\n              dup4\n              0x01\n              dup2\n              gt\n              iszero\n              tag_117\n              jumpi\n              tag_118\n              tag_119\n              jump\t// in\n            tag_118:\n            tag_117:\n              mul\n              or\n              swap1\n              sstore\n              pop\n                /* \"Campaigns.sol\":11649:11822  if (bal == targetToAchieve) {... */\n            tag_113:\n                /* \"Campaigns.sol\":11587:11828  function payOut(uint256 bal, address addr) internal {... */\n              pop\n              pop\n              jump\t// out\n                /* \"#utility.yul\":88:205   */\n            tag_121:\n                /* \"#utility.yul\":197:198   */\n              0x00\n                /* \"#utility.yul\":194:195   */\n              dup1\n                /* \"#utility.yul\":187:199   */\n              revert\n                /* \"#utility.yul\":334:411   */\n            tag_123:\n                /* \"#utility.yul\":371:378   */\n              0x00\n                /* \"#utility.yul\":400:405   */\n              dup2\n                /* \"#utility.yul\":389:405   */\n              swap1\n              pop\n                /* \"#utility.yul\":334:411   */\n              swap2\n              swap1\n              pop\n              jump\t// out\n                /* \"#utility.yul\":417:539   */\n            tag_124:\n                /* \"#utility.yul\":490:514   */\n              tag_152\n                /* \"#utility.yul\":508:513   */\n              dup2\n                /* \"#utility.yul\":490:514   */\n              tag_123\n              jump\t// in\n            tag_152:\n                /* \"#utility.yul\":483:488   */\n              dup2\n                /* \"#utility.yul\":480:515   */\n              eq\n                /* \"#utility.yul\":470:533   */\n              tag_153\n              jumpi\n                /* \"#utility.yul\":529:530   */\n              0x00\n                /* \"#utility.yul\":526:527   */\n              dup1\n                /* \"#utility.yul\":519:531   */\n              revert\n                /* \"#utility.yul\":470:533   */\n            tag_153:\n                /* \"#utility.yul\":417:539   */\n              pop\n              jump\t// out\n                /* \"#utility.yul\":545:684   */\n            tag_125:\n                /* \"#utility.yul\":591:596   */\n              0x00\n                /* \"#utility.yul\":629:635   */\n              dup2\n                /* \"#utility.yul\":616:636   */\n              calldataload\n                /* \"#utility.yul\":607:636   */\n              swap1\n              pop\n                /* \"#utility.yul\":645:678   */\n              tag_155\n                /* \"#utility.yul\":672:677   */\n              dup2\n                /* \"#utility.yul\":645:678   */\n              tag_124\n              jump\t// in\n            tag_155:\n                /* \"#utility.yul\":545:684   */\n              swap3\n              swap2\n              pop\n              pop\n              jump\t// out\n                /* \"#utility.yul\":690:1019   */\n            tag_17:\n                /* \"#utility.yul\":749:755   */\n              0x00\n                /* \"#utility.yul\":798:800   */\n              0x20\n                /* \"#utility.yul\":786:795   */\n              dup3\n                /* \"#utility.yul\":777:784   */\n              dup5\n                /* \"#utility.yul\":773:796   */\n              sub\n                /* \"#utility.yul\":769:801   */\n              slt\n                /* \"#utility.yul\":766:885   */\n              iszero\n              tag_157\n              jumpi\n                /* \"#utility.yul\":804:883   */\n              tag_158\n              tag_121\n              jump\t// in\n            tag_158:\n                /* \"#utility.yul\":766:885   */\n            tag_157:\n                /* \"#utility.yul\":924:925   */\n              0x00\n                /* \"#utility.yul\":949:1002   */\n              tag_159\n                /* \"#utility.yul\":994:1001   */\n              dup5\n                /* \"#utility.yul\":985:991   */\n              dup3\n                /* \"#utility.yul\":974:983   */\n              dup6\n                /* \"#utility.yul\":970:992   */\n              add\n                /* \"#utility.yul\":949:1002   */\n              tag_125\n              jump\t// in\n            tag_159:\n                /* \"#utility.yul\":939:1002   */\n              swap2\n              pop\n                /* \"#utility.yul\":895:1012   */\n              pop\n                /* \"#utility.yul\":690:1019   */\n              swap3\n              swap2\n              pop\n              pop\n              jump\t// out\n                /* \"#utility.yul\":1025:1151   */\n            tag_126:\n                /* \"#utility.yul\":1062:1069   */\n              0x00\n                /* \"#utility.yul\":1102:1144   */\n              0xffffffffffffffffffffffffffffffffffffffff\n                /* \"#utility.yul\":1095:1100   */\n              dup3\n                /* \"#utility.yul\":1091:1145   */\n              and\n                /* \"#utility.yul\":1080:1145   */\n              swap1\n              pop\n                /* \"#utility.yul\":1025:1151   */\n              swap2\n              swap1\n              pop\n              jump\t// out\n                /* \"#utility.yul\":1157:1253   */\n            tag_127:\n                /* \"#utility.yul\":1194:1201   */\n              0x00\n                /* \"#utility.yul\":1223:1247   */\n              tag_162\n                /* \"#utility.yul\":1241:1246   */\n              dup3\n                /* \"#utility.yul\":1223:1247   */\n              tag_126\n              jump\t// in\n            tag_162:\n                /* \"#utility.yul\":1212:1247   */\n              swap1\n              pop\n                /* \"#utility.yul\":1157:1253   */\n              swap2\n              swap1\n              pop\n              jump\t// out\n                /* \"#utility.yul\":1259:1377   */\n            tag_128:\n                /* \"#utility.yul\":1346:1370   */\n              tag_164\n                /* \"#utility.yul\":1364:1369   */\n              dup2\n                /* \"#utility.yul\":1346:1370   */\n              tag_127\n              jump\t// in\n            tag_164:\n                /* \"#utility.yul\":1341:1344   */\n              dup3\n                /* \"#utility.yul\":1334:1371   */\n              mstore\n                /* \"#utility.yul\":1259:1377   */\n              pop\n              pop\n              jump\t// out\n                /* \"#utility.yul\":1383:1605   */\n            tag_20:\n                /* \"#utility.yul\":1476:1480   */\n              0x00\n                /* \"#utility.yul\":1514:1516   */\n              0x20\n                /* \"#utility.yul\":1503:1512   */\n              dup3\n                /* \"#utility.yul\":1499:1517   */\n              add\n                /* \"#utility.yul\":1491:1517   */\n              swap1\n              pop\n                /* \"#utility.yul\":1527:1598   */\n              tag_166\n                /* \"#utility.yul\":1595:1596   */\n              0x00\n                /* \"#utility.yul\":1584:1593   */\n              dup4\n                /* \"#utility.yul\":1580:1597   */\n              add\n                /* \"#utility.yul\":1571:1577   */\n              dup5\n                /* \"#utility.yul\":1527:1598   */\n              tag_128\n              jump\t// in\n            tag_166:\n                /* \"#utility.yul\":1383:1605   */\n              swap3\n              swap2\n              pop\n              pop\n              jump\t// out\n                /* \"#utility.yul\":1611:1791   */\n            tag_119:\n                /* \"#utility.yul\":1659:1736   */\n              0x4e487b7100000000000000000000000000000000000000000000000000000000\n                /* \"#utility.yul\":1656:1657   */\n              0x00\n                /* \"#utility.yul\":1649:1737   */\n              mstore\n                /* \"#utility.yul\":1756:1760   */\n              0x21\n                /* \"#utility.yul\":1753:1754   */\n              0x04\n                /* \"#utility.yul\":1746:1761   */\n              mstore\n                /* \"#utility.yul\":1780:1784   */\n              0x24\n                /* \"#utility.yul\":1777:1778   */\n              0x00\n                /* \"#utility.yul\":1770:1785   */\n              revert\n                /* \"#utility.yul\":1797:1921   */\n            tag_129:\n                /* \"#utility.yul\":1889:1890   */\n              0x02\n                /* \"#utility.yul\":1882:1887   */\n              dup2\n                /* \"#utility.yul\":1879:1891   */\n              lt\n                /* \"#utility.yul\":1869:1915   */\n              tag_169\n              jumpi\n                /* \"#utility.yul\":1895:1913   */\n              tag_170\n              tag_119\n              jump\t// in\n            tag_170:\n                /* \"#utility.yul\":1869:1915   */\n            tag_169:\n                /* \"#utility.yul\":1797:1921   */\n              pop\n              jump\t// out\n                /* \"#utility.yul\":1927:2076   */\n            tag_130:\n                /* \"#utility.yul\":1983:1990   */\n              0x00\n                /* \"#utility.yul\":2012:2017   */\n              dup2\n                /* \"#utility.yul\":2001:2017   */\n              swap1\n              pop\n                /* \"#utility.yul\":2018:2070   */\n              tag_172\n                /* \"#utility.yul\":2064:2069   */\n              dup3\n                /* \"#utility.yul\":2018:2070   */\n              tag_129\n              jump\t// in\n            tag_172:\n                /* \"#utility.yul\":1927:2076   */\n              swap2\n              swap1\n              pop\n              jump\t// out\n                /* \"#utility.yul\":2082:2231   */\n            tag_131:\n                /* \"#utility.yul\":2149:2158   */\n              0x00\n                /* \"#utility.yul\":2182:2225   */\n              tag_174\n                /* \"#utility.yul\":2219:2224   */\n              dup3\n                /* \"#utility.yul\":2182:2225   */\n              tag_130\n              jump\t// in\n            tag_174:\n                /* \"#utility.yul\":2169:2225   */\n              swap1\n              pop\n                /* \"#utility.yul\":2082:2231   */\n              swap2\n              swap1\n              pop\n              jump\t// out\n                /* \"#utility.yul\":2237:2402   */\n            tag_132:\n                /* \"#utility.yul\":2341:2395   */\n              tag_176\n                /* \"#utility.yul\":2389:2394   */\n              dup2\n                /* \"#utility.yul\":2341:2395   */\n              tag_131\n              jump\t// in\n            tag_176:\n                /* \"#utility.yul\":2336:2339   */\n              dup3\n                /* \"#utility.yul\":2329:2396   */\n              mstore\n                /* \"#utility.yul\":2237:2402   */\n              pop\n              pop\n              jump\t// out\n                /* \"#utility.yul\":2408:2664   */\n            tag_25:\n                /* \"#utility.yul\":2518:2522   */\n              0x00\n                /* \"#utility.yul\":2556:2558   */\n              0x20\n                /* \"#utility.yul\":2545:2554   */\n              dup3\n                /* \"#utility.yul\":2541:2559   */\n              add\n                /* \"#utility.yul\":2533:2559   */\n              swap1\n              pop\n                /* \"#utility.yul\":2569:2657   */\n              tag_178\n                /* \"#utility.yul\":2654:2655   */\n              0x00\n                /* \"#utility.yul\":2643:2652   */\n              dup4\n                /* \"#utility.yul\":2639:2656   */\n              add\n                /* \"#utility.yul\":2630:2636   */\n              dup5\n                /* \"#utility.yul\":2569:2657   */\n              tag_132\n              jump\t// in\n            tag_178:\n                /* \"#utility.yul\":2408:2664   */\n              swap3\n              swap2\n              pop\n              pop\n              jump\t// out\n                /* \"#utility.yul\":2670:2788   */\n            tag_133:\n                /* \"#utility.yul\":2757:2781   */\n              tag_180\n                /* \"#utility.yul\":2775:2780   */\n              dup2\n                /* \"#utility.yul\":2757:2781   */\n              tag_123\n              jump\t// in\n            tag_180:\n                /* \"#utility.yul\":2752:2755   */\n              dup3\n                /* \"#utility.yul\":2745:2782   */\n              mstore\n                /* \"#utility.yul\":2670:2788   */\n              pop\n              pop\n              jump\t// out\n                /* \"#utility.yul\":2794:2893   */\n            tag_134:\n                /* \"#utility.yul\":2846:2852   */\n              0x00\n                /* \"#utility.yul\":2880:2885   */\n              dup2\n                /* \"#utility.yul\":2874:2886   */\n              mload\n                /* \"#utility.yul\":2864:2886   */\n              swap1\n              pop\n                /* \"#utility.yul\":2794:2893   */\n              swap2\n              swap1\n              pop\n              jump\t// out\n                /* \"#utility.yul\":2899:3068   */\n            tag_135:\n                /* \"#utility.yul\":2983:2994   */\n              0x00\n                /* \"#utility.yul\":3017:3023   */\n              dup3\n                /* \"#utility.yul\":3012:3015   */\n              dup3\n                /* \"#utility.yul\":3005:3024   */\n              mstore\n                /* \"#utility.yul\":3057:3061   */\n              0x20\n                /* \"#utility.yul\":3052:3055   */\n              dup3\n                /* \"#utility.yul\":3048:3062   */\n              add\n                /* \"#utility.yul\":3033:3062   */\n              swap1\n              pop\n                /* \"#utility.yul\":2899:3068   */\n              swap3\n              swap2\n              pop\n              pop\n              jump\t// out\n                /* \"#utility.yul\":3074:3381   */\n            tag_136:\n                /* \"#utility.yul\":3142:3143   */\n              0x00\n                /* \"#utility.yul\":3152:3265   */\n            tag_184:\n                /* \"#utility.yul\":3166:3172   */\n              dup4\n                /* \"#utility.yul\":3163:3164   */\n              dup2\n                /* \"#utility.yul\":3160:3173   */\n              lt\n                /* \"#utility.yul\":3152:3265   */\n              iszero\n              tag_186\n              jumpi\n                /* \"#utility.yul\":3251:3252   */\n              dup1\n                /* \"#utility.yul\":3246:3249   */\n              dup3\n                /* \"#utility.yul\":3242:3253   */\n              add\n                /* \"#utility.yul\":3236:3254   */\n              mload\n                /* \"#utility.yul\":3232:3233   */\n              dup2\n                /* \"#utility.yul\":3227:3230   */\n              dup5\n                /* \"#utility.yul\":3223:3234   */\n              add\n                /* \"#utility.yul\":3216:3255   */\n              mstore\n                /* \"#utility.yul\":3188:3190   */\n              0x20\n                /* \"#utility.yul\":3185:3186   */\n              dup2\n                /* \"#utility.yul\":3181:3191   */\n              add\n                /* \"#utility.yul\":3176:3191   */\n              swap1\n              pop\n                /* \"#utility.yul\":3152:3265   */\n              jump(tag_184)\n            tag_186:\n                /* \"#utility.yul\":3283:3289   */\n              dup4\n                /* \"#utility.yul\":3280:3281   */\n              dup2\n                /* \"#utility.yul\":3277:3290   */\n              gt\n                /* \"#utility.yul\":3274:3375   */\n              iszero\n              tag_187\n              jumpi\n                /* \"#utility.yul\":3363:3364   */\n              0x00\n                /* \"#utility.yul\":3354:3360   */\n              dup5\n                /* \"#utility.yul\":3349:3352   */\n              dup5\n                /* \"#utility.yul\":3345:3361   */\n              add\n                /* \"#utility.yul\":3338:3365   */\n              mstore\n                /* \"#utility.yul\":3274:3375   */\n            tag_187:\n                /* \"#utility.yul\":3123:3381   */\n              pop\n                /* \"#utility.yul\":3074:3381   */\n              pop\n              pop\n              pop\n              jump\t// out\n                /* \"#utility.yul\":3387:3489   */\n            tag_137:\n                /* \"#utility.yul\":3428:3434   */\n              0x00\n                /* \"#utility.yul\":3479:3481   */\n              0x1f\n                /* \"#utility.yul\":3475:3482   */\n              not\n                /* \"#utility.yul\":3470:3472   */\n              0x1f\n                /* \"#utility.yul\":3463:3468   */\n              dup4\n                /* \"#utility.yul\":3459:3473   */\n              add\n                /* \"#utility.yul\":3455:3483   */\n              and\n                /* \"#utility.yul\":3445:3483   */\n              swap1\n              pop\n                /* \"#utility.yul\":3387:3489   */\n              swap2\n              swap1\n              pop\n              jump\t// out\n                /* \"#utility.yul\":3495:3859   */\n            tag_138:\n                /* \"#utility.yul\":3583:3586   */\n              0x00\n                /* \"#utility.yul\":3611:3650   */\n              tag_190\n                /* \"#utility.yul\":3644:3649   */\n              dup3\n                /* \"#utility.yul\":3611:3650   */\n              tag_134\n              jump\t// in\n            tag_190:\n                /* \"#utility.yul\":3666:3737   */\n              tag_191\n                /* \"#utility.yul\":3730:3736   */\n              dup2\n                /* \"#utility.yul\":3725:3728   */\n              dup6\n                /* \"#utility.yul\":3666:3737   */\n              tag_135\n              jump\t// in\n            tag_191:\n                /* \"#utility.yul\":3659:3737   */\n              swap4\n              pop\n                /* \"#utility.yul\":3746:3798   */\n              tag_192\n                /* \"#utility.yul\":3791:3797   */\n              dup2\n                /* \"#utility.yul\":3786:3789   */\n              dup6\n                /* \"#utility.yul\":3779:3783   */\n              0x20\n                /* \"#utility.yul\":3772:3777   */\n              dup7\n                /* \"#utility.yul\":3768:3784   */\n              add\n                /* \"#utility.yul\":3746:3798   */\n              tag_136\n              jump\t// in\n            tag_192:\n                /* \"#utility.yul\":3823:3852   */\n              tag_193\n                /* \"#utility.yul\":3845:3851   */\n              dup2\n                /* \"#utility.yul\":3823:3852   */\n              tag_137\n              jump\t// in\n            tag_193:\n                /* \"#utility.yul\":3818:3821   */\n              dup5\n                /* \"#utility.yul\":3814:3853   */\n              add\n                /* \"#utility.yul\":3807:3853   */\n              swap2\n              pop\n                /* \"#utility.yul\":3587:3859   */\n              pop\n                /* \"#utility.yul\":3495:3859   */\n              swap3\n              swap2\n              pop\n              pop\n              jump\t// out\n                /* \"#utility.yul\":3865:5024   */\n            tag_30:\n                /* \"#utility.yul\":4186:4190   */\n              0x00\n                /* \"#utility.yul\":4224:4227   */\n              0xe0\n                /* \"#utility.yul\":4213:4222   */\n              dup3\n                /* \"#utility.yul\":4209:4228   */\n              add\n                /* \"#utility.yul\":4201:4228   */\n              swap1\n              pop\n                /* \"#utility.yul\":4238:4309   */\n              tag_195\n                /* \"#utility.yul\":4306:4307   */\n              0x00\n                /* \"#utility.yul\":4295:4304   */\n              dup4\n                /* \"#utility.yul\":4291:4308   */\n              add\n                /* \"#utility.yul\":4282:4288   */\n              dup11\n                /* \"#utility.yul\":4238:4309   */\n              tag_133\n              jump\t// in\n            tag_195:\n                /* \"#utility.yul\":4319:4391   */\n              tag_196\n                /* \"#utility.yul\":4387:4389   */\n              0x20\n                /* \"#utility.yul\":4376:4385   */\n              dup4\n                /* \"#utility.yul\":4372:4390   */\n              add\n                /* \"#utility.yul\":4363:4369   */\n              dup10\n                /* \"#utility.yul\":4319:4391   */\n              tag_133\n              jump\t// in\n            tag_196:\n                /* \"#utility.yul\":4401:4473   */\n              tag_197\n                /* \"#utility.yul\":4469:4471   */\n              0x40\n                /* \"#utility.yul\":4458:4467   */\n              dup4\n                /* \"#utility.yul\":4454:4472   */\n              add\n                /* \"#utility.yul\":4445:4451   */\n              dup9\n                /* \"#utility.yul\":4401:4473   */\n              tag_128\n              jump\t// in\n            tag_197:\n                /* \"#utility.yul\":4520:4529   */\n              dup2\n                /* \"#utility.yul\":4514:4518   */\n              dup2\n                /* \"#utility.yul\":4510:4530   */\n              sub\n                /* \"#utility.yul\":4505:4507   */\n              0x60\n                /* \"#utility.yul\":4494:4503   */\n              dup4\n                /* \"#utility.yul\":4490:4508   */\n              add\n                /* \"#utility.yul\":4483:4531   */\n              mstore\n                /* \"#utility.yul\":4548:4626   */\n              tag_198\n                /* \"#utility.yul\":4621:4625   */\n              dup2\n                /* \"#utility.yul\":4612:4618   */\n              dup8\n                /* \"#utility.yul\":4548:4626   */\n              tag_138\n              jump\t// in\n            tag_198:\n                /* \"#utility.yul\":4540:4626   */\n              swap1\n              pop\n                /* \"#utility.yul\":4674:4683   */\n              dup2\n                /* \"#utility.yul\":4668:4672   */\n              dup2\n                /* \"#utility.yul\":4664:4684   */\n              sub\n                /* \"#utility.yul\":4658:4661   */\n              0x80\n                /* \"#utility.yul\":4647:4656   */\n              dup4\n                /* \"#utility.yul\":4643:4662   */\n              add\n                /* \"#utility.yul\":4636:4685   */\n              mstore\n                /* \"#utility.yul\":4702:4780   */\n              tag_199\n                /* \"#utility.yul\":4775:4779   */\n              dup2\n                /* \"#utility.yul\":4766:4772   */\n              dup7\n                /* \"#utility.yul\":4702:4780   */\n              tag_138\n              jump\t// in\n            tag_199:\n                /* \"#utility.yul\":4694:4780   */\n              swap1\n              pop\n                /* \"#utility.yul\":4828:4837   */\n              dup2\n                /* \"#utility.yul\":4822:4826   */\n              dup2\n                /* \"#utility.yul\":4818:4838   */\n              sub\n                /* \"#utility.yul\":4812:4815   */\n              0xa0\n                /* \"#utility.yul\":4801:4810   */\n              dup4\n                /* \"#utility.yul\":4797:4816   */\n              add\n                /* \"#utility.yul\":4790:4839   */\n              mstore\n                /* \"#utility.yul\":4856:4934   */\n              tag_200\n                /* \"#utility.yul\":4929:4933   */\n              dup2\n                /* \"#utility.yul\":4920:4926   */\n              dup6\n                /* \"#utility.yul\":4856:4934   */\n              tag_138\n              jump\t// in\n            tag_200:\n                /* \"#utility.yul\":4848:4934   */\n              swap1\n              pop\n                /* \"#utility.yul\":4944:5017   */\n              tag_201\n                /* \"#utility.yul\":5012:5015   */\n              0xc0\n                /* \"#utility.yul\":5001:5010   */\n              dup4\n                /* \"#utility.yul\":4997:5016   */\n              add\n                /* \"#utility.yul\":4988:4994   */\n              dup5\n                /* \"#utility.yul\":4944:5017   */\n              tag_133\n              jump\t// in\n            tag_201:\n                /* \"#utility.yul\":3865:5024   */\n              swap9\n              swap8\n              pop\n              pop\n              pop\n              pop\n              pop\n              pop\n              pop\n              pop\n              jump\t// out\n                /* \"#utility.yul\":5030:5343   */\n            tag_39:\n                /* \"#utility.yul\":5143:5147   */\n              0x00\n                /* \"#utility.yul\":5181:5183   */\n              0x20\n                /* \"#utility.yul\":5170:5179   */\n              dup3\n                /* \"#utility.yul\":5166:5184   */\n              add\n                /* \"#utility.yul\":5158:5184   */\n              swap1\n              pop\n                /* \"#utility.yul\":5230:5239   */\n              dup2\n                /* \"#utility.yul\":5224:5228   */\n              dup2\n                /* \"#utility.yul\":5220:5240   */\n              sub\n                /* \"#utility.yul\":5216:5217   */\n              0x00\n                /* \"#utility.yul\":5205:5214   */\n              dup4\n                /* \"#utility.yul\":5201:5218   */\n              add\n                /* \"#utility.yul\":5194:5241   */\n              mstore\n                /* \"#utility.yul\":5258:5336   */\n              tag_203\n                /* \"#utility.yul\":5331:5335   */\n              dup2\n                /* \"#utility.yul\":5322:5328   */\n              dup5\n                /* \"#utility.yul\":5258:5336   */\n              tag_138\n              jump\t// in\n            tag_203:\n                /* \"#utility.yul\":5250:5336   */\n              swap1\n              pop\n                /* \"#utility.yul\":5030:5343   */\n              swap3\n              swap2\n              pop\n              pop\n              jump\t// out\n                /* \"#utility.yul\":5349:5571   */\n            tag_48:\n                /* \"#utility.yul\":5442:5446   */\n              0x00\n                /* \"#utility.yul\":5480:5482   */\n              0x20\n                /* \"#utility.yul\":5469:5478   */\n              dup3\n                /* \"#utility.yul\":5465:5483   */\n              add\n                /* \"#utility.yul\":5457:5483   */\n              swap1\n              pop\n                /* \"#utility.yul\":5493:5564   */\n              tag_205\n                /* \"#utility.yul\":5561:5562   */\n              0x00\n                /* \"#utility.yul\":5550:5559   */\n              dup4\n                /* \"#utility.yul\":5546:5563   */\n              add\n                /* \"#utility.yul\":5537:5543   */\n              dup5\n                /* \"#utility.yul\":5493:5564   */\n              tag_133\n              jump\t// in\n            tag_205:\n                /* \"#utility.yul\":5349:5571   */\n              swap3\n              swap2\n              pop\n              pop\n              jump\t// out\n                /* \"#utility.yul\":5577:5757   */\n            tag_139:\n                /* \"#utility.yul\":5625:5702   */\n              0x4e487b7100000000000000000000000000000000000000000000000000000000\n                /* \"#utility.yul\":5622:5623   */\n              0x00\n                /* \"#utility.yul\":5615:5703   */\n              mstore\n                /* \"#utility.yul\":5722:5726   */\n              0x22\n                /* \"#utility.yul\":5719:5720   */\n              0x04\n                /* \"#utility.yul\":5712:5727   */\n              mstore\n                /* \"#utility.yul\":5746:5750   */\n              0x24\n                /* \"#utility.yul\":5743:5744   */\n              0x00\n                /* \"#utility.yul\":5736:5751   */\n              revert\n                /* \"#utility.yul\":5763:6083   */\n            tag_67:\n                /* \"#utility.yul\":5807:5813   */\n              0x00\n                /* \"#utility.yul\":5844:5845   */\n              0x02\n                /* \"#utility.yul\":5838:5842   */\n              dup3\n                /* \"#utility.yul\":5834:5846   */\n              div\n                /* \"#utility.yul\":5824:5846   */\n              swap1\n              pop\n                /* \"#utility.yul\":5891:5892   */\n              0x01\n                /* \"#utility.yul\":5885:5889   */\n              dup3\n                /* \"#utility.yul\":5881:5893   */\n              and\n                /* \"#utility.yul\":5912:5930   */\n              dup1\n                /* \"#utility.yul\":5902:5983   */\n              tag_208\n              jumpi\n                /* \"#utility.yul\":5968:5972   */\n              0x7f\n                /* \"#utility.yul\":5960:5966   */\n              dup3\n                /* \"#utility.yul\":5956:5973   */\n              and\n                /* \"#utility.yul\":5946:5973   */\n              swap2\n              pop\n                /* \"#utility.yul\":5902:5983   */\n            tag_208:\n                /* \"#utility.yul\":6030:6032   */\n              0x20\n                /* \"#utility.yul\":6022:6028   */\n              dup3\n                /* \"#utility.yul\":6019:6033   */\n              lt\n                /* \"#utility.yul\":5999:6017   */\n              dup2\n                /* \"#utility.yul\":5996:6034   */\n              sub\n                /* \"#utility.yul\":5993:6077   */\n              tag_209\n              jumpi\n                /* \"#utility.yul\":6049:6067   */\n              tag_210\n              tag_139\n              jump\t// in\n            tag_210:\n                /* \"#utility.yul\":5993:6077   */\n            tag_209:\n                /* \"#utility.yul\":5814:6083   */\n              pop\n                /* \"#utility.yul\":5763:6083   */\n              swap2\n              swap1\n              pop\n              jump\t// out\n                /* \"#utility.yul\":6089:6255   */\n            tag_140:\n                /* \"#utility.yul\":6229:6247   */\n              0x66756e645f636f6e7472696275746f7200000000000000000000000000000000\n                /* \"#utility.yul\":6225:6226   */\n              0x00\n                /* \"#utility.yul\":6217:6223   */\n              dup3\n                /* \"#utility.yul\":6213:6227   */\n              add\n                /* \"#utility.yul\":6206:6248   */\n              mstore\n                /* \"#utility.yul\":6089:6255   */\n              pop\n              jump\t// out\n                /* \"#utility.yul\":6261:6627   */\n            tag_141:\n                /* \"#utility.yul\":6403:6406   */\n              0x00\n                /* \"#utility.yul\":6424:6491   */\n              tag_213\n                /* \"#utility.yul\":6488:6490   */\n              0x10\n                /* \"#utility.yul\":6483:6486   */\n              dup4\n                /* \"#utility.yul\":6424:6491   */\n              tag_135\n              jump\t// in\n            tag_213:\n                /* \"#utility.yul\":6417:6491   */\n              swap2\n              pop\n                /* \"#utility.yul\":6500:6593   */\n              tag_214\n                /* \"#utility.yul\":6589:6592   */\n              dup3\n                /* \"#utility.yul\":6500:6593   */\n              tag_140\n              jump\t// in\n            tag_214:\n                /* \"#utility.yul\":6618:6620   */\n              0x20\n                /* \"#utility.yul\":6613:6616   */\n              dup3\n                /* \"#utility.yul\":6609:6621   */\n              add\n                /* \"#utility.yul\":6602:6621   */\n              swap1\n              pop\n                /* \"#utility.yul\":6261:6627   */\n              swap2\n              swap1\n              pop\n              jump\t// out\n                /* \"#utility.yul\":6633:7162   */\n            tag_99:\n                /* \"#utility.yul\":6827:6831   */\n              0x00\n                /* \"#utility.yul\":6865:6867   */\n              0x40\n                /* \"#utility.yul\":6854:6863   */\n              dup3\n                /* \"#utility.yul\":6850:6868   */\n              add\n                /* \"#utility.yul\":6842:6868   */\n              swap1\n              pop\n                /* \"#utility.yul\":6878:6949   */\n              tag_216\n                /* \"#utility.yul\":6946:6947   */\n              0x00\n                /* \"#utility.yul\":6935:6944   */\n              dup4\n                /* \"#utility.yul\":6931:6948   */\n              add\n                /* \"#utility.yul\":6922:6928   */\n              dup5\n                /* \"#utility.yul\":6878:6949   */\n              tag_128\n              jump\t// in\n            tag_216:\n                /* \"#utility.yul\":6996:7005   */\n              dup2\n                /* \"#utility.yul\":6990:6994   */\n              dup2\n                /* \"#utility.yul\":6986:7006   */\n              sub\n                /* \"#utility.yul\":6981:6983   */\n              0x20\n                /* \"#utility.yul\":6970:6979   */\n              dup4\n                /* \"#utility.yul\":6966:6984   */\n              add\n                /* \"#utility.yul\":6959:7007   */\n              mstore\n                /* \"#utility.yul\":7024:7155   */\n              tag_217\n                /* \"#utility.yul\":7150:7154   */\n              dup2\n                /* \"#utility.yul\":7024:7155   */\n              tag_141\n              jump\t// in\n            tag_217:\n                /* \"#utility.yul\":7016:7155   */\n              swap1\n              pop\n                /* \"#utility.yul\":6633:7162   */\n              swap3\n              swap2\n              pop\n              pop\n              jump\t// out\n                /* \"#utility.yul\":7168:7258   */\n            tag_142:\n                /* \"#utility.yul\":7202:7209   */\n              0x00\n                /* \"#utility.yul\":7245:7250   */\n              dup2\n                /* \"#utility.yul\":7238:7251   */\n              iszero\n                /* \"#utility.yul\":7231:7252   */\n              iszero\n                /* \"#utility.yul\":7220:7252   */\n              swap1\n              pop\n                /* \"#utility.yul\":7168:7258   */\n              swap2\n              swap1\n              pop\n              jump\t// out\n                /* \"#utility.yul\":7264:7380   */\n            tag_143:\n                /* \"#utility.yul\":7334:7355   */\n              tag_220\n                /* \"#utility.yul\":7349:7354   */\n              dup2\n                /* \"#utility.yul\":7334:7355   */\n              tag_142\n              jump\t// in\n            tag_220:\n                /* \"#utility.yul\":7327:7332   */\n              dup2\n                /* \"#utility.yul\":7324:7356   */\n              eq\n                /* \"#utility.yul\":7314:7374   */\n              tag_221\n              jumpi\n                /* \"#utility.yul\":7370:7371   */\n              0x00\n                /* \"#utility.yul\":7367:7368   */\n              dup1\n                /* \"#utility.yul\":7360:7372   */\n              revert\n                /* \"#utility.yul\":7314:7374   */\n            tag_221:\n                /* \"#utility.yul\":7264:7380   */\n              pop\n              jump\t// out\n                /* \"#utility.yul\":7386:7523   */\n            tag_144:\n                /* \"#utility.yul\":7440:7445   */\n              0x00\n                /* \"#utility.yul\":7471:7477   */\n              dup2\n                /* \"#utility.yul\":7465:7478   */\n              mload\n                /* \"#utility.yul\":7456:7478   */\n              swap1\n              pop\n                /* \"#utility.yul\":7487:7517   */\n              tag_223\n                /* \"#utility.yul\":7511:7516   */\n              dup2\n                /* \"#utility.yul\":7487:7517   */\n              tag_143\n              jump\t// in\n            tag_223:\n                /* \"#utility.yul\":7386:7523   */\n              swap3\n              swap2\n              pop\n              pop\n              jump\t// out\n                /* \"#utility.yul\":7529:7874   */\n            tag_103:\n                /* \"#utility.yul\":7596:7602   */\n              0x00\n                /* \"#utility.yul\":7645:7647   */\n              0x20\n                /* \"#utility.yul\":7633:7642   */\n              dup3\n                /* \"#utility.yul\":7624:7631   */\n              dup5\n                /* \"#utility.yul\":7620:7643   */\n              sub\n                /* \"#utility.yul\":7616:7648   */\n              slt\n                /* \"#utility.yul\":7613:7732   */\n              iszero\n              tag_225\n              jumpi\n                /* \"#utility.yul\":7651:7730   */\n              tag_226\n              tag_121\n              jump\t// in\n            tag_226:\n                /* \"#utility.yul\":7613:7732   */\n            tag_225:\n                /* \"#utility.yul\":7771:7772   */\n              0x00\n                /* \"#utility.yul\":7796:7857   */\n              tag_227\n                /* \"#utility.yul\":7849:7856   */\n              dup5\n                /* \"#utility.yul\":7840:7846   */\n              dup3\n                /* \"#utility.yul\":7829:7838   */\n              dup6\n                /* \"#utility.yul\":7825:7847   */\n              add\n                /* \"#utility.yul\":7796:7857   */\n              tag_144\n              jump\t// in\n            tag_227:\n                /* \"#utility.yul\":7786:7857   */\n              swap2\n              pop\n                /* \"#utility.yul\":7742:7867   */\n              pop\n                /* \"#utility.yul\":7529:7874   */\n              swap3\n              swap2\n              pop\n              pop\n              jump\t// out\n                /* \"#utility.yul\":7880:8060   */\n            tag_145:\n                /* \"#utility.yul\":7928:8005   */\n              0x4e487b7100000000000000000000000000000000000000000000000000000000\n                /* \"#utility.yul\":7925:7926   */\n              0x00\n                /* \"#utility.yul\":7918:8006   */\n              mstore\n                /* \"#utility.yul\":8025:8029   */\n              0x11\n                /* \"#utility.yul\":8022:8023   */\n              0x04\n                /* \"#utility.yul\":8015:8030   */\n              mstore\n                /* \"#utility.yul\":8049:8053   */\n              0x24\n                /* \"#utility.yul\":8046:8047   */\n              0x00\n                /* \"#utility.yul\":8039:8054   */\n              revert\n                /* \"#utility.yul\":8066:8371   */\n            tag_108:\n                /* \"#utility.yul\":8106:8109   */\n              0x00\n                /* \"#utility.yul\":8125:8145   */\n              tag_230\n                /* \"#utility.yul\":8143:8144   */\n              dup3\n                /* \"#utility.yul\":8125:8145   */\n              tag_123\n              jump\t// in\n            tag_230:\n                /* \"#utility.yul\":8120:8145   */\n              swap2\n              pop\n                /* \"#utility.yul\":8159:8179   */\n              tag_231\n                /* \"#utility.yul\":8177:8178   */\n              dup4\n                /* \"#utility.yul\":8159:8179   */\n              tag_123\n              jump\t// in\n            tag_231:\n                /* \"#utility.yul\":8154:8179   */\n              swap3\n              pop\n                /* \"#utility.yul\":8313:8314   */\n              dup3\n                /* \"#utility.yul\":8245:8311   */\n              0xffffffffffffffffffffffffffffffffffffffffffffffffffffffffffffffff\n                /* \"#utility.yul\":8241:8315   */\n              sub\n                /* \"#utility.yul\":8238:8239   */\n              dup3\n                /* \"#utility.yul\":8235:8316   */\n              gt\n                /* \"#utility.yul\":8232:8339   */\n              iszero\n              tag_232\n              jumpi\n                /* \"#utility.yul\":8319:8337   */\n              tag_233\n              tag_145\n              jump\t// in\n            tag_233:\n                /* \"#utility.yul\":8232:8339   */\n            tag_232:\n                /* \"#utility.yul\":8363:8364   */\n              dup3\n                /* \"#utility.yul\":8360:8361   */\n              dup3\n                /* \"#utility.yul\":8356:8365   */\n              add\n                /* \"#utility.yul\":8349:8365   */\n              swap1\n              pop\n                /* \"#utility.yul\":8066:8371   */\n              swap3\n              swap2\n              pop\n              pop\n              jump\t// out\n\n            auxdata: 0xa2646970667358221220005b86c8079dedd5839dfe14b7206ebf6d47073a5b75a4e130e5d032b80a63f364736f6c634300080d0033\n        }\n    }\n\n    auxdata: 0xa2646970667358221220ea00f63b0d3ded1650f1705e8c996788eb42dc7a848ae361858c59189228bf6364736f6c634300080d0033\n}\n","bytecode":{"linkReferences":{},"object":"6080604052739dc1e8f41113b41f796a337a4a7f889acf4cc7486000806101000a81548173ffffffffffffffffffffffffffffffffffffffff021916908373ffffffffffffffffffffffffffffffffffffffff16021790555034801561006457600080fd5b50611c5c806100746000396000f3fe60806040523480156200001157600080fd5b5060043610620000465760003560e01c8063339d50a5146200004b5780634acb9d4f1462000081578063d4ddd71a14620000a3575b600080fd5b6200006960048036038101906200006391906200034b565b620000c3565b604051620000789190620003c2565b60405180910390f35b6200008b62000103565b6040516200009a9190620004ad565b60405180910390f35b620000c16004803603810190620000bb919062000633565b62000193565b005b60018181548110620000d457600080fd5b906000526020600020016000915054906101000a900473ffffffffffffffffffffffffffffffffffffffff1681565b606060018054806020026020016040519081016040528092919081815260200182805480156200018957602002820191906000526020600020905b8160009054906101000a900473ffffffffffffffffffffffffffffffffffffffff1673ffffffffffffffffffffffffffffffffffffffff16815260200190600101908083116200013e575b5050505050905090565b60008054906101000a900473ffffffffffffffffffffffffffffffffffffffff1673ffffffffffffffffffffffffffffffffffffffff1663217fe6c6336040518263ffffffff1660e01b8152600401620001ee919062000779565b602060405180830381865afa1580156200020c573d6000803e3d6000fd5b505050506040513d601f19601f82011682018060405250810190620002329190620007e8565b6200023c57600080fd5b60008533868686866040516200025290620002ee565b6200026396959493929190620008ad565b604051809103906000f08015801562000280573d6000803e3d6000fd5b5090506001819080600181540180825580915050600190039060005260206000200160009091909190916101000a81548173ffffffffffffffffffffffffffffffffffffffff021916908373ffffffffffffffffffffffffffffffffffffffff160217905550505050505050565b6112f7806200093083390190565b6000604051905090565b600080fd5b600080fd5b6000819050919050565b620003258162000310565b81146200033157600080fd5b50565b60008135905062000345816200031a565b92915050565b60006020828403121562000364576200036362000306565b5b6000620003748482850162000334565b91505092915050565b600073ffffffffffffffffffffffffffffffffffffffff82169050919050565b6000620003aa826200037d565b9050919050565b620003bc816200039d565b82525050565b6000602082019050620003d96000830184620003b1565b92915050565b600081519050919050565b600082825260208201905092915050565b6000819050602082019050919050565b62000416816200039d565b82525050565b60006200042a83836200040b565b60208301905092915050565b6000602082019050919050565b60006200045082620003df565b6200045c8185620003ea565b93506200046983620003fb565b8060005b83811015620004a05781516200048488826200041c565b9750620004918362000436565b9250506001810190506200046d565b5085935050505092915050565b60006020820190508181036000830152620004c9818462000443565b905092915050565b600080fd5b600080fd5b6000601f19601f8301169050919050565b7f4e487b7100000000000000000000000000000000000000000000000000000000600052604160045260246000fd5b6200052682620004db565b810181811067ffffffffffffffff82111715620005485762000547620004ec565b5b80604052505050565b60006200055d620002fc565b90506200056b82826200051b565b919050565b600067ffffffffffffffff8211156200058e576200058d620004ec565b5b6200059982620004db565b9050602081019050919050565b82818337600083830152505050565b6000620005cc620005c68462000570565b62000551565b905082815260208101848484011115620005eb57620005ea620004d6565b5b620005f8848285620005a6565b509392505050565b600082601f830112620006185762000617620004d1565b5b81356200062a848260208601620005b5565b91505092915050565b600080600080600060a0868803121562000652576200065162000306565b5b6000620006628882890162000334565b955050602086013567ffffffffffffffff8111156200068657620006856200030b565b5b620006948882890162000600565b945050604086013567ffffffffffffffff811115620006b857620006b76200030b565b5b620006c68882890162000600565b935050606086013567ffffffffffffffff811115620006ea57620006e96200030b565b5b620006f88882890162000600565b92505060806200070b8882890162000334565b9150509295509295909350565b600082825260208201905092915050565b7f66756e645f726169736572000000000000000000000000000000000000000000600082015250565b600062000761600b8362000718565b91506200076e8262000729565b602082019050919050565b6000604082019050620007906000830184620003b1565b8181036020830152620007a38162000752565b905092915050565b60008115159050919050565b620007c281620007ab565b8114620007ce57600080fd5b50565b600081519050620007e281620007b7565b92915050565b60006020828403121562000801576200080062000306565b5b60006200081184828501620007d1565b91505092915050565b620008258162000310565b82525050565b600081519050919050565b60005b838110156200085657808201518184015260208101905062000839565b8381111562000866576000848401525b50505050565b600062000879826200082b565b62000885818562000718565b93506200089781856020860162000836565b620008a281620004db565b840191505092915050565b600060c082019050620008c460008301896200081a565b620008d36020830188620003b1565b8181036040830152620008e781876200086c565b90508181036060830152620008fd81866200086c565b905081810360808301526200091381856200086c565b90506200092460a08301846200081a565b97965050505050505056fe608060405273b8fed7ad2bfce5e906e1e2299d348639ac3770446000806101000a81548173ffffffffffffffffffffffffffffffffffffffff021916908373ffffffffffffffffffffffffffffffffffffffff1602179055503480156200006557600080fd5b50604051620012f7380380620012f783398181016040528101906200008b919062000454565b84600160006101000a81548173ffffffffffffffffffffffffffffffffffffffff021916908373ffffffffffffffffffffffffffffffffffffffff160217905550856002819055508360049080519060200190620000eb92919062000167565b5082600590805190602001906200010492919062000167565b5081600690805190602001906200011d92919062000167565b508060088190555060006007819055506000600360006101000a81548160ff021916908360018111156200015657620001556200054d565b5b0217905550505050505050620005e0565b8280546200017590620005ab565b90600052602060002090601f016020900481019282620001995760008555620001e5565b82601f10620001b457805160ff1916838001178555620001e5565b82800160010185558215620001e5579182015b82811115620001e4578251825591602001919060010190620001c7565b5b509050620001f49190620001f8565b5090565b5b8082111562000213576000816000905550600101620001f9565b5090565b6000604051905090565b600080fd5b600080fd5b6000819050919050565b62000240816200022b565b81146200024c57600080fd5b50565b600081519050620002608162000235565b92915050565b600073ffffffffffffffffffffffffffffffffffffffff82169050919050565b6000620002938262000266565b9050919050565b620002a58162000286565b8114620002b157600080fd5b50565b600081519050620002c5816200029a565b92915050565b600080fd5b600080fd5b6000601f19601f8301169050919050565b7f4e487b7100000000000000000000000000000000000000000000000000000000600052604160045260246000fd5b6200032082620002d5565b810181811067ffffffffffffffff82111715620003425762000341620002e6565b5b80604052505050565b60006200035762000217565b905062000365828262000315565b919050565b600067ffffffffffffffff821115620003885762000387620002e6565b5b6200039382620002d5565b9050602081019050919050565b60005b83811015620003c0578082015181840152602081019050620003a3565b83811115620003d0576000848401525b50505050565b6000620003ed620003e7846200036a565b6200034b565b9050828152602081018484840111156200040c576200040b620002d0565b5b62000419848285620003a0565b509392505050565b600082601f830112620004395762000438620002cb565b5b81516200044b848260208601620003d6565b91505092915050565b60008060008060008060c0878903121562000474576200047362000221565b5b60006200048489828a016200024f565b96505060206200049789828a01620002b4565b955050604087015167ffffffffffffffff811115620004bb57620004ba62000226565b5b620004c989828a0162000421565b945050606087015167ffffffffffffffff811115620004ed57620004ec62000226565b5b620004fb89828a0162000421565b935050608087015167ffffffffffffffff8111156200051f576200051e62000226565b5b6200052d89828a0162000421565b92505060a06200054089828a016200024f565b9150509295509295509295565b7f4e487b7100000000000000000000000000000000000000000000000000000000600052602160045260246000fd5b7f4e487b7100000000000000000000000000000000000000000000000000000000600052602260045260246000fd5b60006002820490506001821680620005c457607f821691505b602082108103620005da57620005d96200057c565b5b50919050565b610d0780620005f06000396000f3fe60806040526004361061009c5760003560e01c806397654a8c1161006457806397654a8c14610190578063a7f33715146101bb578063aba83150146101e6578063b2a87fc314610211578063b69ef8a81461023c578063d7bb99ba146102675761009c565b80631fbed579146100a1578063200d2ed2146100de5780634051ddac14610109578063481c6a751461013a5780637e7cd1b314610165575b600080fd5b3480156100ad57600080fd5b506100c860048036038101906100c39190610889565b610271565b6040516100d591906108f7565b60405180910390f35b3480156100ea57600080fd5b506100f36102b0565b6040516101009190610989565b60405180910390f35b34801561011557600080fd5b5061011e6102c3565b6040516101319796959493929190610a4c565b60405180910390f35b34801561014657600080fd5b5061014f6104ba565b60405161015c91906108f7565b60405180910390f35b34801561017157600080fd5b5061017a6104e0565b6040516101879190610ad0565b60405180910390f35b34801561019c57600080fd5b506101a561056e565b6040516101b29190610ad0565b60405180910390f35b3480156101c757600080fd5b506101d06105fc565b6040516101dd9190610af2565b60405180910390f35b3480156101f257600080fd5b506101fb610602565b6040516102089190610ad0565b60405180910390f35b34801561021d57600080fd5b50610226610690565b6040516102339190610af2565b60405180910390f35b34801561024857600080fd5b50610251610696565b60405161025e9190610af2565b60405180910390f35b61026f61069c565b005b6009818154811061028157600080fd5b906000526020600020016000915054906101000a900473ffffffffffffffffffffffffffffffffffffffff1681565b600360009054906101000a900460ff1681565b60008060006060806060600060025447600160009054906101000a900473ffffffffffffffffffffffffffffffffffffffff1660046005600660085483805461030b90610b3c565b80601f016020809104026020016040519081016040528092919081815260200182805461033790610b3c565b80156103845780601f1061035957610100808354040283529160200191610384565b820191906000526020600020905b81548152906001019060200180831161036757829003601f168201915b5050505050935082805461039790610b3c565b80601f01602080910402602001604051908101604052809291908181526020018280546103c390610b3c565b80156104105780601f106103e557610100808354040283529160200191610410565b820191906000526020600020905b8154815290600101906020018083116103f357829003601f168201915b5050505050925081805461042390610b3c565b80601f016020809104026020016040519081016040528092919081815260200182805461044f90610b3c565b801561049c5780601f106104715761010080835404028352916020019161049c565b820191906000526020600020905b81548152906001019060200180831161047f57829003601f168201915b50505050509150965096509650965096509650965090919293949596565b600160009054906101000a900473ffffffffffffffffffffffffffffffffffffffff1681565b600480546104ed90610b3c565b80601f016020809104026020016040519081016040528092919081815260200182805461051990610b3c565b80156105665780601f1061053b57610100808354040283529160200191610566565b820191906000526020600020905b81548152906001019060200180831161054957829003601f168201915b505050505081565b6005805461057b90610b3c565b80601f01602080910402602001604051908101604052809291908181526020018280546105a790610b3c565b80156105f45780601f106105c9576101008083540402835291602001916105f4565b820191906000526020600020905b8154815290600101906020018083116105d757829003601f168201915b505050505081565b60025481565b6006805461060f90610b3c565b80601f016020809104026020016040519081016040528092919081815260200182805461063b90610b3c565b80156106885780601f1061065d57610100808354040283529160200191610688565b820191906000526020600020905b81548152906001019060200180831161066b57829003601f168201915b505050505081565b60085481565b60075481565b60008054906101000a900473ffffffffffffffffffffffffffffffffffffffff1673ffffffffffffffffffffffffffffffffffffffff1663217fe6c6336040518263ffffffff1660e01b81526004016106f59190610bb9565b602060405180830381865afa158015610712573d6000803e3d6000fd5b505050506040513d601f19601f820116820180604052508101906107369190610c1f565b61073f57600080fd5b600254341161074d57600080fd5b600854344761075c9190610c7b565b111561076757600080fd5b61079347600160009054906101000a900473ffffffffffffffffffffffffffffffffffffffff16610795565b565b600854820361084a578073ffffffffffffffffffffffffffffffffffffffff166108fc6008549081150290604051600060405180830381858888f193505050501580156107e6573d6000803e3d6000fd5b507f2f256415efc8561af8db667cb242964b19be7380f379ccdafaa0e54a6f6b70698160405161081691906108f7565b60405180910390a16001600360006101000a81548160ff0219169083600181111561084457610843610912565b5b02179055505b5050565b600080fd5b6000819050919050565b61086681610853565b811461087157600080fd5b50565b6000813590506108838161085d565b92915050565b60006020828403121561089f5761089e61084e565b5b60006108ad84828501610874565b91505092915050565b600073ffffffffffffffffffffffffffffffffffffffff82169050919050565b60006108e1826108b6565b9050919050565b6108f1816108d6565b82525050565b600060208201905061090c60008301846108e8565b92915050565b7f4e487b7100000000000000000000000000000000000000000000000000000000600052602160045260246000fd5b6002811061095257610951610912565b5b50565b600081905061096382610941565b919050565b600061097382610955565b9050919050565b61098381610968565b82525050565b600060208201905061099e600083018461097a565b92915050565b6109ad81610853565b82525050565b600081519050919050565b600082825260208201905092915050565b60005b838110156109ed5780820151818401526020810190506109d2565b838111156109fc576000848401525b50505050565b6000601f19601f8301169050919050565b6000610a1e826109b3565b610a2881856109be565b9350610a388185602086016109cf565b610a4181610a02565b840191505092915050565b600060e082019050610a61600083018a6109a4565b610a6e60208301896109a4565b610a7b60408301886108e8565b8181036060830152610a8d8187610a13565b90508181036080830152610aa18186610a13565b905081810360a0830152610ab58185610a13565b9050610ac460c08301846109a4565b98975050505050505050565b60006020820190508181036000830152610aea8184610a13565b905092915050565b6000602082019050610b0760008301846109a4565b92915050565b7f4e487b7100000000000000000000000000000000000000000000000000000000600052602260045260246000fd5b60006002820490506001821680610b5457607f821691505b602082108103610b6757610b66610b0d565b5b50919050565b7f66756e645f636f6e7472696275746f7200000000000000000000000000000000600082015250565b6000610ba36010836109be565b9150610bae82610b6d565b602082019050919050565b6000604082019050610bce60008301846108e8565b8181036020830152610bdf81610b96565b905092915050565b60008115159050919050565b610bfc81610be7565b8114610c0757600080fd5b50565b600081519050610c1981610bf3565b92915050565b600060208284031215610c3557610c3461084e565b5b6000610c4384828501610c0a565b91505092915050565b7f4e487b7100000000000000000000000000000000000000000000000000000000600052601160045260246000fd5b6000610c8682610853565b9150610c9183610853565b9250827fffffffffffffffffffffffffffffffffffffffffffffffffffffffffffffffff03821115610cc657610cc5610c4c565b5b82820190509291505056fea2646970667358221220005b86c8079dedd5839dfe14b7206ebf6d47073a5b75a4e130e5d032b80a63f364736f6c634300080d0033a2646970667358221220ea00f63b0d3ded1650f1705e8c996788eb42dc7a848ae361858c59189228bf6364736f6c634300080d0033","opcodes":"PUSH1 0x80 PUSH1 0x40 MSTORE PUSH20 0x9DC1E8F41113B41F796A337A4A7F889ACF4CC748 PUSH1 0x0 DUP1 PUSH2 0x100 EXP DUP2 SLOAD DUP2 PUSH20 0xFFFFFFFFFFFFFFFFFFFFFFFFFFFFFFFFFFFFFFFF MUL NOT AND SWAP1 DUP4 PUSH20 0xFFFFFFFFFFFFFFFFFFFFFFFFFFFFFFFFFFFFFFFF AND MUL OR SWAP1 SSTORE POP CALLVALUE DUP1 ISZERO PUSH2 0x64 JUMPI PUSH1 0x0 DUP1 REVERT JUMPDEST POP PUSH2 0x1C5C DUP1 PUSH2 0x74 PUSH1 0x0 CODECOPY PUSH1 0x0 RETURN INVALID PUSH1 0x80 PUSH1 0x40 MSTORE CALLVALUE DUP1 ISZERO PUSH3 0x11 JUMPI PUSH1 0x0 DUP1 REVERT JUMPDEST POP PUSH1 0x4 CALLDATASIZE LT PUSH3 0x46 JUMPI PUSH1 0x0 CALLDATALOAD PUSH1 0xE0 SHR DUP1 PUSH4 0x339D50A5 EQ PUSH3 0x4B JUMPI DUP1 PUSH4 0x4ACB9D4F EQ PUSH3 0x81 JUMPI DUP1 PUSH4 0xD4DDD71A EQ PUSH3 0xA3 JUMPI JUMPDEST PUSH1 0x0 DUP1 REVERT JUMPDEST PUSH3 0x69 PUSH1 0x4 DUP1 CALLDATASIZE SUB DUP2 ADD SWAP1 PUSH3 0x63 SWAP2 SWAP1 PUSH3 0x34B JUMP JUMPDEST PUSH3 0xC3 JUMP JUMPDEST PUSH1 0x40 MLOAD PUSH3 0x78 SWAP2 SWAP1 PUSH3 0x3C2 JUMP JUMPDEST PUSH1 0x40 MLOAD DUP1 SWAP2 SUB SWAP1 RETURN JUMPDEST PUSH3 0x8B PUSH3 0x103 JUMP JUMPDEST PUSH1 0x40 MLOAD PUSH3 0x9A SWAP2 SWAP1 PUSH3 0x4AD JUMP JUMPDEST PUSH1 0x40 MLOAD DUP1 SWAP2 SUB SWAP1 RETURN JUMPDEST PUSH3 0xC1 PUSH1 0x4 DUP1 CALLDATASIZE SUB DUP2 ADD SWAP1 PUSH3 0xBB SWAP2 SWAP1 PUSH3 0x633 JUMP JUMPDEST PUSH3 0x193 JUMP JUMPDEST STOP JUMPDEST PUSH1 0x1 DUP2 DUP2 SLOAD DUP2 LT PUSH3 0xD4 JUMPI PUSH1 0x0 DUP1 REVERT JUMPDEST SWAP1 PUSH1 0x0 MSTORE PUSH1 0x20 PUSH1 0x0 KECCAK256 ADD PUSH1 0x0 SWAP2 POP SLOAD SWAP1 PUSH2 0x100 EXP SWAP1 DIV PUSH20 0xFFFFFFFFFFFFFFFFFFFFFFFFFFFFFFFFFFFFFFFF AND DUP2 JUMP JUMPDEST PUSH1 0x60 PUSH1 0x1 DUP1 SLOAD DUP1 PUSH1 0x20 MUL PUSH1 0x20 ADD PUSH1 0x40 MLOAD SWAP1 DUP2 ADD PUSH1 0x40 MSTORE DUP1 SWAP3 SWAP2 SWAP1 DUP2 DUP2 MSTORE PUSH1 0x20 ADD DUP3 DUP1 SLOAD DUP1 ISZERO PUSH3 0x189 JUMPI PUSH1 0x20 MUL DUP3 ADD SWAP2 SWAP1 PUSH1 0x0 MSTORE PUSH1 0x20 PUSH1 0x0 KECCAK256 SWAP1 JUMPDEST DUP2 PUSH1 0x0 SWAP1 SLOAD SWAP1 PUSH2 0x100 EXP SWAP1 DIV PUSH20 0xFFFFFFFFFFFFFFFFFFFFFFFFFFFFFFFFFFFFFFFF AND PUSH20 0xFFFFFFFFFFFFFFFFFFFFFFFFFFFFFFFFFFFFFFFF AND DUP2 MSTORE PUSH1 0x20 ADD SWAP1 PUSH1 0x1 ADD SWAP1 DUP1 DUP4 GT PUSH3 0x13E JUMPI JUMPDEST POP POP POP POP POP SWAP1 POP SWAP1 JUMP JUMPDEST PUSH1 0x0 DUP1 SLOAD SWAP1 PUSH2 0x100 EXP SWAP1 DIV PUSH20 0xFFFFFFFFFFFFFFFFFFFFFFFFFFFFFFFFFFFFFFFF AND PUSH20 0xFFFFFFFFFFFFFFFFFFFFFFFFFFFFFFFFFFFFFFFF AND PUSH4 0x217FE6C6 CALLER PUSH1 0x40 MLOAD DUP3 PUSH4 0xFFFFFFFF AND PUSH1 0xE0 SHL DUP2 MSTORE PUSH1 0x4 ADD PUSH3 0x1EE SWAP2 SWAP1 PUSH3 0x779 JUMP JUMPDEST PUSH1 0x20 PUSH1 0x40 MLOAD DUP1 DUP4 SUB DUP2 DUP7 GAS STATICCALL ISZERO DUP1 ISZERO PUSH3 0x20C JUMPI RETURNDATASIZE PUSH1 0x0 DUP1 RETURNDATACOPY RETURNDATASIZE PUSH1 0x0 REVERT JUMPDEST POP POP POP POP PUSH1 0x40 MLOAD RETURNDATASIZE PUSH1 0x1F NOT PUSH1 0x1F DUP3 ADD AND DUP3 ADD DUP1 PUSH1 0x40 MSTORE POP DUP2 ADD SWAP1 PUSH3 0x232 SWAP2 SWAP1 PUSH3 0x7E8 JUMP JUMPDEST PUSH3 0x23C JUMPI PUSH1 0x0 DUP1 REVERT JUMPDEST PUSH1 0x0 DUP6 CALLER DUP7 DUP7 DUP7 DUP7 PUSH1 0x40 MLOAD PUSH3 0x252 SWAP1 PUSH3 0x2EE JUMP JUMPDEST PUSH3 0x263 SWAP7 SWAP6 SWAP5 SWAP4 SWAP3 SWAP2 SWAP1 PUSH3 0x8AD JUMP JUMPDEST PUSH1 0x40 MLOAD DUP1 SWAP2 SUB SWAP1 PUSH1 0x0 CREATE DUP1 ISZERO DUP1 ISZERO PUSH3 0x280 JUMPI RETURNDATASIZE PUSH1 0x0 DUP1 RETURNDATACOPY RETURNDATASIZE PUSH1 0x0 REVERT JUMPDEST POP SWAP1 POP PUSH1 0x1 DUP2 SWAP1 DUP1 PUSH1 0x1 DUP2 SLOAD ADD DUP1 DUP3 SSTORE DUP1 SWAP2 POP POP PUSH1 0x1 SWAP1 SUB SWAP1 PUSH1 0x0 MSTORE PUSH1 0x20 PUSH1 0x0 KECCAK256 ADD PUSH1 0x0 SWAP1 SWAP2 SWAP1 SWAP2 SWAP1 SWAP2 PUSH2 0x100 EXP DUP2 SLOAD DUP2 PUSH20 0xFFFFFFFFFFFFFFFFFFFFFFFFFFFFFFFFFFFFFFFF MUL NOT AND SWAP1 DUP4 PUSH20 0xFFFFFFFFFFFFFFFFFFFFFFFFFFFFFFFFFFFFFFFF AND MUL OR SWAP1 SSTORE POP POP POP POP POP POP POP JUMP JUMPDEST PUSH2 0x12F7 DUP1 PUSH3 0x930 DUP4 CODECOPY ADD SWAP1 JUMP JUMPDEST PUSH1 0x0 PUSH1 0x40 MLOAD SWAP1 POP SWAP1 JUMP JUMPDEST PUSH1 0x0 DUP1 REVERT JUMPDEST PUSH1 0x0 DUP1 REVERT JUMPDEST PUSH1 0x0 DUP2 SWAP1 POP SWAP2 SWAP1 POP JUMP JUMPDEST PUSH3 0x325 DUP2 PUSH3 0x310 JUMP JUMPDEST DUP2 EQ PUSH3 0x331 JUMPI PUSH1 0x0 DUP1 REVERT JUMPDEST POP JUMP JUMPDEST PUSH1 0x0 DUP2 CALLDATALOAD SWAP1 POP PUSH3 0x345 DUP2 PUSH3 0x31A JUMP JUMPDEST SWAP3 SWAP2 POP POP JUMP JUMPDEST PUSH1 0x0 PUSH1 0x20 DUP3 DUP5 SUB SLT ISZERO PUSH3 0x364 JUMPI PUSH3 0x363 PUSH3 0x306 JUMP JUMPDEST JUMPDEST PUSH1 0x0 PUSH3 0x374 DUP5 DUP3 DUP6 ADD PUSH3 0x334 JUMP JUMPDEST SWAP2 POP POP SWAP3 SWAP2 POP POP JUMP JUMPDEST PUSH1 0x0 PUSH20 0xFFFFFFFFFFFFFFFFFFFFFFFFFFFFFFFFFFFFFFFF DUP3 AND SWAP1 POP SWAP2 SWAP1 POP JUMP JUMPDEST PUSH1 0x0 PUSH3 0x3AA DUP3 PUSH3 0x37D JUMP JUMPDEST SWAP1 POP SWAP2 SWAP1 POP JUMP JUMPDEST PUSH3 0x3BC DUP2 PUSH3 0x39D JUMP JUMPDEST DUP3 MSTORE POP POP JUMP JUMPDEST PUSH1 0x0 PUSH1 0x20 DUP3 ADD SWAP1 POP PUSH3 0x3D9 PUSH1 0x0 DUP4 ADD DUP5 PUSH3 0x3B1 JUMP JUMPDEST SWAP3 SWAP2 POP POP JUMP JUMPDEST PUSH1 0x0 DUP2 MLOAD SWAP1 POP SWAP2 SWAP1 POP JUMP JUMPDEST PUSH1 0x0 DUP3 DUP3 MSTORE PUSH1 0x20 DUP3 ADD SWAP1 POP SWAP3 SWAP2 POP POP JUMP JUMPDEST PUSH1 0x0 DUP2 SWAP1 POP PUSH1 0x20 DUP3 ADD SWAP1 POP SWAP2 SWAP1 POP JUMP JUMPDEST PUSH3 0x416 DUP2 PUSH3 0x39D JUMP JUMPDEST DUP3 MSTORE POP POP JUMP JUMPDEST PUSH1 0x0 PUSH3 0x42A DUP4 DUP4 PUSH3 0x40B JUMP JUMPDEST PUSH1 0x20 DUP4 ADD SWAP1 POP SWAP3 SWAP2 POP POP JUMP JUMPDEST PUSH1 0x0 PUSH1 0x20 DUP3 ADD SWAP1 POP SWAP2 SWAP1 POP JUMP JUMPDEST PUSH1 0x0 PUSH3 0x450 DUP3 PUSH3 0x3DF JUMP JUMPDEST PUSH3 0x45C DUP2 DUP6 PUSH3 0x3EA JUMP JUMPDEST SWAP4 POP PUSH3 0x469 DUP4 PUSH3 0x3FB JUMP JUMPDEST DUP1 PUSH1 0x0 JUMPDEST DUP4 DUP2 LT ISZERO PUSH3 0x4A0 JUMPI DUP2 MLOAD PUSH3 0x484 DUP9 DUP3 PUSH3 0x41C JUMP JUMPDEST SWAP8 POP PUSH3 0x491 DUP4 PUSH3 0x436 JUMP JUMPDEST SWAP3 POP POP PUSH1 0x1 DUP2 ADD SWAP1 POP PUSH3 0x46D JUMP JUMPDEST POP DUP6 SWAP4 POP POP POP POP SWAP3 SWAP2 POP POP JUMP JUMPDEST PUSH1 0x0 PUSH1 0x20 DUP3 ADD SWAP1 POP DUP2 DUP2 SUB PUSH1 0x0 DUP4 ADD MSTORE PUSH3 0x4C9 DUP2 DUP5 PUSH3 0x443 JUMP JUMPDEST SWAP1 POP SWAP3 SWAP2 POP POP JUMP JUMPDEST PUSH1 0x0 DUP1 REVERT JUMPDEST PUSH1 0x0 DUP1 REVERT JUMPDEST PUSH1 0x0 PUSH1 0x1F NOT PUSH1 0x1F DUP4 ADD AND SWAP1 POP SWAP2 SWAP1 POP JUMP JUMPDEST PUSH32 0x4E487B7100000000000000000000000000000000000000000000000000000000 PUSH1 0x0 MSTORE PUSH1 0x41 PUSH1 0x4 MSTORE PUSH1 0x24 PUSH1 0x0 REVERT JUMPDEST PUSH3 0x526 DUP3 PUSH3 0x4DB JUMP JUMPDEST DUP2 ADD DUP2 DUP2 LT PUSH8 0xFFFFFFFFFFFFFFFF DUP3 GT OR ISZERO PUSH3 0x548 JUMPI PUSH3 0x547 PUSH3 0x4EC JUMP JUMPDEST JUMPDEST DUP1 PUSH1 0x40 MSTORE POP POP POP JUMP JUMPDEST PUSH1 0x0 PUSH3 0x55D PUSH3 0x2FC JUMP JUMPDEST SWAP1 POP PUSH3 0x56B DUP3 DUP3 PUSH3 0x51B JUMP JUMPDEST SWAP2 SWAP1 POP JUMP JUMPDEST PUSH1 0x0 PUSH8 0xFFFFFFFFFFFFFFFF DUP3 GT ISZERO PUSH3 0x58E JUMPI PUSH3 0x58D PUSH3 0x4EC JUMP JUMPDEST JUMPDEST PUSH3 0x599 DUP3 PUSH3 0x4DB JUMP JUMPDEST SWAP1 POP PUSH1 0x20 DUP2 ADD SWAP1 POP SWAP2 SWAP1 POP JUMP JUMPDEST DUP3 DUP2 DUP4 CALLDATACOPY PUSH1 0x0 DUP4 DUP4 ADD MSTORE POP POP POP JUMP JUMPDEST PUSH1 0x0 PUSH3 0x5CC PUSH3 0x5C6 DUP5 PUSH3 0x570 JUMP JUMPDEST PUSH3 0x551 JUMP JUMPDEST SWAP1 POP DUP3 DUP2 MSTORE PUSH1 0x20 DUP2 ADD DUP5 DUP5 DUP5 ADD GT ISZERO PUSH3 0x5EB JUMPI PUSH3 0x5EA PUSH3 0x4D6 JUMP JUMPDEST JUMPDEST PUSH3 0x5F8 DUP5 DUP3 DUP6 PUSH3 0x5A6 JUMP JUMPDEST POP SWAP4 SWAP3 POP POP POP JUMP JUMPDEST PUSH1 0x0 DUP3 PUSH1 0x1F DUP4 ADD SLT PUSH3 0x618 JUMPI PUSH3 0x617 PUSH3 0x4D1 JUMP JUMPDEST JUMPDEST DUP2 CALLDATALOAD PUSH3 0x62A DUP5 DUP3 PUSH1 0x20 DUP7 ADD PUSH3 0x5B5 JUMP JUMPDEST SWAP2 POP POP SWAP3 SWAP2 POP POP JUMP JUMPDEST PUSH1 0x0 DUP1 PUSH1 0x0 DUP1 PUSH1 0x0 PUSH1 0xA0 DUP7 DUP9 SUB SLT ISZERO PUSH3 0x652 JUMPI PUSH3 0x651 PUSH3 0x306 JUMP JUMPDEST JUMPDEST PUSH1 0x0 PUSH3 0x662 DUP9 DUP3 DUP10 ADD PUSH3 0x334 JUMP JUMPDEST SWAP6 POP POP PUSH1 0x20 DUP7 ADD CALLDATALOAD PUSH8 0xFFFFFFFFFFFFFFFF DUP2 GT ISZERO PUSH3 0x686 JUMPI PUSH3 0x685 PUSH3 0x30B JUMP JUMPDEST JUMPDEST PUSH3 0x694 DUP9 DUP3 DUP10 ADD PUSH3 0x600 JUMP JUMPDEST SWAP5 POP POP PUSH1 0x40 DUP7 ADD CALLDATALOAD PUSH8 0xFFFFFFFFFFFFFFFF DUP2 GT ISZERO PUSH3 0x6B8 JUMPI PUSH3 0x6B7 PUSH3 0x30B JUMP JUMPDEST JUMPDEST PUSH3 0x6C6 DUP9 DUP3 DUP10 ADD PUSH3 0x600 JUMP JUMPDEST SWAP4 POP POP PUSH1 0x60 DUP7 ADD CALLDATALOAD PUSH8 0xFFFFFFFFFFFFFFFF DUP2 GT ISZERO PUSH3 0x6EA JUMPI PUSH3 0x6E9 PUSH3 0x30B JUMP JUMPDEST JUMPDEST PUSH3 0x6F8 DUP9 DUP3 DUP10 ADD PUSH3 0x600 JUMP JUMPDEST SWAP3 POP POP PUSH1 0x80 PUSH3 0x70B DUP9 DUP3 DUP10 ADD PUSH3 0x334 JUMP JUMPDEST SWAP2 POP POP SWAP3 SWAP6 POP SWAP3 SWAP6 SWAP1 SWAP4 POP JUMP JUMPDEST PUSH1 0x0 DUP3 DUP3 MSTORE PUSH1 0x20 DUP3 ADD SWAP1 POP SWAP3 SWAP2 POP POP JUMP JUMPDEST PUSH32 0x66756E645F726169736572000000000000000000000000000000000000000000 PUSH1 0x0 DUP3 ADD MSTORE POP JUMP JUMPDEST PUSH1 0x0 PUSH3 0x761 PUSH1 0xB DUP4 PUSH3 0x718 JUMP JUMPDEST SWAP2 POP PUSH3 0x76E DUP3 PUSH3 0x729 JUMP JUMPDEST PUSH1 0x20 DUP3 ADD SWAP1 POP SWAP2 SWAP1 POP JUMP JUMPDEST PUSH1 0x0 PUSH1 0x40 DUP3 ADD SWAP1 POP PUSH3 0x790 PUSH1 0x0 DUP4 ADD DUP5 PUSH3 0x3B1 JUMP JUMPDEST DUP2 DUP2 SUB PUSH1 0x20 DUP4 ADD MSTORE PUSH3 0x7A3 DUP2 PUSH3 0x752 JUMP JUMPDEST SWAP1 POP SWAP3 SWAP2 POP POP JUMP JUMPDEST PUSH1 0x0 DUP2 ISZERO ISZERO SWAP1 POP SWAP2 SWAP1 POP JUMP JUMPDEST PUSH3 0x7C2 DUP2 PUSH3 0x7AB JUMP JUMPDEST DUP2 EQ PUSH3 0x7CE JUMPI PUSH1 0x0 DUP1 REVERT JUMPDEST POP JUMP JUMPDEST PUSH1 0x0 DUP2 MLOAD SWAP1 POP PUSH3 0x7E2 DUP2 PUSH3 0x7B7 JUMP JUMPDEST SWAP3 SWAP2 POP POP JUMP JUMPDEST PUSH1 0x0 PUSH1 0x20 DUP3 DUP5 SUB SLT ISZERO PUSH3 0x801 JUMPI PUSH3 0x800 PUSH3 0x306 JUMP JUMPDEST JUMPDEST PUSH1 0x0 PUSH3 0x811 DUP5 DUP3 DUP6 ADD PUSH3 0x7D1 JUMP JUMPDEST SWAP2 POP POP SWAP3 SWAP2 POP POP JUMP JUMPDEST PUSH3 0x825 DUP2 PUSH3 0x310 JUMP JUMPDEST DUP3 MSTORE POP POP JUMP JUMPDEST PUSH1 0x0 DUP2 MLOAD SWAP1 POP SWAP2 SWAP1 POP JUMP JUMPDEST PUSH1 0x0 JUMPDEST DUP4 DUP2 LT ISZERO PUSH3 0x856 JUMPI DUP1 DUP3 ADD MLOAD DUP2 DUP5 ADD MSTORE PUSH1 0x20 DUP2 ADD SWAP1 POP PUSH3 0x839 JUMP JUMPDEST DUP4 DUP2 GT ISZERO PUSH3 0x866 JUMPI PUSH1 0x0 DUP5 DUP5 ADD MSTORE JUMPDEST POP POP POP POP JUMP JUMPDEST PUSH1 0x0 PUSH3 0x879 DUP3 PUSH3 0x82B JUMP JUMPDEST PUSH3 0x885 DUP2 DUP6 PUSH3 0x718 JUMP JUMPDEST SWAP4 POP PUSH3 0x897 DUP2 DUP6 PUSH1 0x20 DUP7 ADD PUSH3 0x836 JUMP JUMPDEST PUSH3 0x8A2 DUP2 PUSH3 0x4DB JUMP JUMPDEST DUP5 ADD SWAP2 POP POP SWAP3 SWAP2 POP POP JUMP JUMPDEST PUSH1 0x0 PUSH1 0xC0 DUP3 ADD SWAP1 POP PUSH3 0x8C4 PUSH1 0x0 DUP4 ADD DUP10 PUSH3 0x81A JUMP JUMPDEST PUSH3 0x8D3 PUSH1 0x20 DUP4 ADD DUP9 PUSH3 0x3B1 JUMP JUMPDEST DUP2 DUP2 SUB PUSH1 0x40 DUP4 ADD MSTORE PUSH3 0x8E7 DUP2 DUP8 PUSH3 0x86C JUMP JUMPDEST SWAP1 POP DUP2 DUP2 SUB PUSH1 0x60 DUP4 ADD MSTORE PUSH3 0x8FD DUP2 DUP7 PUSH3 0x86C JUMP JUMPDEST SWAP1 POP DUP2 DUP2 SUB PUSH1 0x80 DUP4 ADD MSTORE PUSH3 0x913 DUP2 DUP6 PUSH3 0x86C JUMP JUMPDEST SWAP1 POP PUSH3 0x924 PUSH1 0xA0 DUP4 ADD DUP5 PUSH3 0x81A JUMP JUMPDEST SWAP8 SWAP7 POP POP POP POP POP POP POP JUMP INVALID PUSH1 0x80 PUSH1 0x40 MSTORE PUSH20 0xB8FED7AD2BFCE5E906E1E2299D348639AC377044 PUSH1 0x0 DUP1 PUSH2 0x100 EXP DUP2 SLOAD DUP2 PUSH20 0xFFFFFFFFFFFFFFFFFFFFFFFFFFFFFFFFFFFFFFFF MUL NOT AND SWAP1 DUP4 PUSH20 0xFFFFFFFFFFFFFFFFFFFFFFFFFFFFFFFFFFFFFFFF AND MUL OR SWAP1 SSTORE POP CALLVALUE DUP1 ISZERO PUSH3 0x65 JUMPI PUSH1 0x0 DUP1 REVERT JUMPDEST POP PUSH1 0x40 MLOAD PUSH3 0x12F7 CODESIZE SUB DUP1 PUSH3 0x12F7 DUP4 CODECOPY DUP2 DUP2 ADD PUSH1 0x40 MSTORE DUP2 ADD SWAP1 PUSH3 0x8B SWAP2 SWAP1 PUSH3 0x454 JUMP JUMPDEST DUP5 PUSH1 0x1 PUSH1 0x0 PUSH2 0x100 EXP DUP2 SLOAD DUP2 PUSH20 0xFFFFFFFFFFFFFFFFFFFFFFFFFFFFFFFFFFFFFFFF MUL NOT AND SWAP1 DUP4 PUSH20 0xFFFFFFFFFFFFFFFFFFFFFFFFFFFFFFFFFFFFFFFF AND MUL OR SWAP1 SSTORE POP DUP6 PUSH1 0x2 DUP2 SWAP1 SSTORE POP DUP4 PUSH1 0x4 SWAP1 DUP1 MLOAD SWAP1 PUSH1 0x20 ADD SWAP1 PUSH3 0xEB SWAP3 SWAP2 SWAP1 PUSH3 0x167 JUMP JUMPDEST POP DUP3 PUSH1 0x5 SWAP1 DUP1 MLOAD SWAP1 PUSH1 0x20 ADD SWAP1 PUSH3 0x104 SWAP3 SWAP2 SWAP1 PUSH3 0x167 JUMP JUMPDEST POP DUP2 PUSH1 0x6 SWAP1 DUP1 MLOAD SWAP1 PUSH1 0x20 ADD SWAP1 PUSH3 0x11D SWAP3 SWAP2 SWAP1 PUSH3 0x167 JUMP JUMPDEST POP DUP1 PUSH1 0x8 DUP2 SWAP1 SSTORE POP PUSH1 0x0 PUSH1 0x7 DUP2 SWAP1 SSTORE POP PUSH1 0x0 PUSH1 0x3 PUSH1 0x0 PUSH2 0x100 EXP DUP2 SLOAD DUP2 PUSH1 0xFF MUL NOT AND SWAP1 DUP4 PUSH1 0x1 DUP2 GT ISZERO PUSH3 0x156 JUMPI PUSH3 0x155 PUSH3 0x54D JUMP JUMPDEST JUMPDEST MUL OR SWAP1 SSTORE POP POP POP POP POP POP POP PUSH3 0x5E0 JUMP JUMPDEST DUP3 DUP1 SLOAD PUSH3 0x175 SWAP1 PUSH3 0x5AB JUMP JUMPDEST SWAP1 PUSH1 0x0 MSTORE PUSH1 0x20 PUSH1 0x0 KECCAK256 SWAP1 PUSH1 0x1F ADD PUSH1 0x20 SWAP1 DIV DUP2 ADD SWAP3 DUP3 PUSH3 0x199 JUMPI PUSH1 0x0 DUP6 SSTORE PUSH3 0x1E5 JUMP JUMPDEST DUP3 PUSH1 0x1F LT PUSH3 0x1B4 JUMPI DUP1 MLOAD PUSH1 0xFF NOT AND DUP4 DUP1 ADD OR DUP6 SSTORE PUSH3 0x1E5 JUMP JUMPDEST DUP3 DUP1 ADD PUSH1 0x1 ADD DUP6 SSTORE DUP3 ISZERO PUSH3 0x1E5 JUMPI SWAP2 DUP3 ADD JUMPDEST DUP3 DUP2 GT ISZERO PUSH3 0x1E4 JUMPI DUP3 MLOAD DUP3 SSTORE SWAP2 PUSH1 0x20 ADD SWAP2 SWAP1 PUSH1 0x1 ADD SWAP1 PUSH3 0x1C7 JUMP JUMPDEST JUMPDEST POP SWAP1 POP PUSH3 0x1F4 SWAP2 SWAP1 PUSH3 0x1F8 JUMP JUMPDEST POP SWAP1 JUMP JUMPDEST JUMPDEST DUP1 DUP3 GT ISZERO PUSH3 0x213 JUMPI PUSH1 0x0 DUP2 PUSH1 0x0 SWAP1 SSTORE POP PUSH1 0x1 ADD PUSH3 0x1F9 JUMP JUMPDEST POP SWAP1 JUMP JUMPDEST PUSH1 0x0 PUSH1 0x40 MLOAD SWAP1 POP SWAP1 JUMP JUMPDEST PUSH1 0x0 DUP1 REVERT JUMPDEST PUSH1 0x0 DUP1 REVERT JUMPDEST PUSH1 0x0 DUP2 SWAP1 POP SWAP2 SWAP1 POP JUMP JUMPDEST PUSH3 0x240 DUP2 PUSH3 0x22B JUMP JUMPDEST DUP2 EQ PUSH3 0x24C JUMPI PUSH1 0x0 DUP1 REVERT JUMPDEST POP JUMP JUMPDEST PUSH1 0x0 DUP2 MLOAD SWAP1 POP PUSH3 0x260 DUP2 PUSH3 0x235 JUMP JUMPDEST SWAP3 SWAP2 POP POP JUMP JUMPDEST PUSH1 0x0 PUSH20 0xFFFFFFFFFFFFFFFFFFFFFFFFFFFFFFFFFFFFFFFF DUP3 AND SWAP1 POP SWAP2 SWAP1 POP JUMP JUMPDEST PUSH1 0x0 PUSH3 0x293 DUP3 PUSH3 0x266 JUMP JUMPDEST SWAP1 POP SWAP2 SWAP1 POP JUMP JUMPDEST PUSH3 0x2A5 DUP2 PUSH3 0x286 JUMP JUMPDEST DUP2 EQ PUSH3 0x2B1 JUMPI PUSH1 0x0 DUP1 REVERT JUMPDEST POP JUMP JUMPDEST PUSH1 0x0 DUP2 MLOAD SWAP1 POP PUSH3 0x2C5 DUP2 PUSH3 0x29A JUMP JUMPDEST SWAP3 SWAP2 POP POP JUMP JUMPDEST PUSH1 0x0 DUP1 REVERT JUMPDEST PUSH1 0x0 DUP1 REVERT JUMPDEST PUSH1 0x0 PUSH1 0x1F NOT PUSH1 0x1F DUP4 ADD AND SWAP1 POP SWAP2 SWAP1 POP JUMP JUMPDEST PUSH32 0x4E487B7100000000000000000000000000000000000000000000000000000000 PUSH1 0x0 MSTORE PUSH1 0x41 PUSH1 0x4 MSTORE PUSH1 0x24 PUSH1 0x0 REVERT JUMPDEST PUSH3 0x320 DUP3 PUSH3 0x2D5 JUMP JUMPDEST DUP2 ADD DUP2 DUP2 LT PUSH8 0xFFFFFFFFFFFFFFFF DUP3 GT OR ISZERO PUSH3 0x342 JUMPI PUSH3 0x341 PUSH3 0x2E6 JUMP JUMPDEST JUMPDEST DUP1 PUSH1 0x40 MSTORE POP POP POP JUMP JUMPDEST PUSH1 0x0 PUSH3 0x357 PUSH3 0x217 JUMP JUMPDEST SWAP1 POP PUSH3 0x365 DUP3 DUP3 PUSH3 0x315 JUMP JUMPDEST SWAP2 SWAP1 POP JUMP JUMPDEST PUSH1 0x0 PUSH8 0xFFFFFFFFFFFFFFFF DUP3 GT ISZERO PUSH3 0x388 JUMPI PUSH3 0x387 PUSH3 0x2E6 JUMP JUMPDEST JUMPDEST PUSH3 0x393 DUP3 PUSH3 0x2D5 JUMP JUMPDEST SWAP1 POP PUSH1 0x20 DUP2 ADD SWAP1 POP SWAP2 SWAP1 POP JUMP JUMPDEST PUSH1 0x0 JUMPDEST DUP4 DUP2 LT ISZERO PUSH3 0x3C0 JUMPI DUP1 DUP3 ADD MLOAD DUP2 DUP5 ADD MSTORE PUSH1 0x20 DUP2 ADD SWAP1 POP PUSH3 0x3A3 JUMP JUMPDEST DUP4 DUP2 GT ISZERO PUSH3 0x3D0 JUMPI PUSH1 0x0 DUP5 DUP5 ADD MSTORE JUMPDEST POP POP POP POP JUMP JUMPDEST PUSH1 0x0 PUSH3 0x3ED PUSH3 0x3E7 DUP5 PUSH3 0x36A JUMP JUMPDEST PUSH3 0x34B JUMP JUMPDEST SWAP1 POP DUP3 DUP2 MSTORE PUSH1 0x20 DUP2 ADD DUP5 DUP5 DUP5 ADD GT ISZERO PUSH3 0x40C JUMPI PUSH3 0x40B PUSH3 0x2D0 JUMP JUMPDEST JUMPDEST PUSH3 0x419 DUP5 DUP3 DUP6 PUSH3 0x3A0 JUMP JUMPDEST POP SWAP4 SWAP3 POP POP POP JUMP JUMPDEST PUSH1 0x0 DUP3 PUSH1 0x1F DUP4 ADD SLT PUSH3 0x439 JUMPI PUSH3 0x438 PUSH3 0x2CB JUMP JUMPDEST JUMPDEST DUP2 MLOAD PUSH3 0x44B DUP5 DUP3 PUSH1 0x20 DUP7 ADD PUSH3 0x3D6 JUMP JUMPDEST SWAP2 POP POP SWAP3 SWAP2 POP POP JUMP JUMPDEST PUSH1 0x0 DUP1 PUSH1 0x0 DUP1 PUSH1 0x0 DUP1 PUSH1 0xC0 DUP8 DUP10 SUB SLT ISZERO PUSH3 0x474 JUMPI PUSH3 0x473 PUSH3 0x221 JUMP JUMPDEST JUMPDEST PUSH1 0x0 PUSH3 0x484 DUP10 DUP3 DUP11 ADD PUSH3 0x24F JUMP JUMPDEST SWAP7 POP POP PUSH1 0x20 PUSH3 0x497 DUP10 DUP3 DUP11 ADD PUSH3 0x2B4 JUMP JUMPDEST SWAP6 POP POP PUSH1 0x40 DUP8 ADD MLOAD PUSH8 0xFFFFFFFFFFFFFFFF DUP2 GT ISZERO PUSH3 0x4BB JUMPI PUSH3 0x4BA PUSH3 0x226 JUMP JUMPDEST JUMPDEST PUSH3 0x4C9 DUP10 DUP3 DUP11 ADD PUSH3 0x421 JUMP JUMPDEST SWAP5 POP POP PUSH1 0x60 DUP8 ADD MLOAD PUSH8 0xFFFFFFFFFFFFFFFF DUP2 GT ISZERO PUSH3 0x4ED JUMPI PUSH3 0x4EC PUSH3 0x226 JUMP JUMPDEST JUMPDEST PUSH3 0x4FB DUP10 DUP3 DUP11 ADD PUSH3 0x421 JUMP JUMPDEST SWAP4 POP POP PUSH1 0x80 DUP8 ADD MLOAD PUSH8 0xFFFFFFFFFFFFFFFF DUP2 GT ISZERO PUSH3 0x51F JUMPI PUSH3 0x51E PUSH3 0x226 JUMP JUMPDEST JUMPDEST PUSH3 0x52D DUP10 DUP3 DUP11 ADD PUSH3 0x421 JUMP JUMPDEST SWAP3 POP POP PUSH1 0xA0 PUSH3 0x540 DUP10 DUP3 DUP11 ADD PUSH3 0x24F JUMP JUMPDEST SWAP2 POP POP SWAP3 SWAP6 POP SWAP3 SWAP6 POP SWAP3 SWAP6 JUMP JUMPDEST PUSH32 0x4E487B7100000000000000000000000000000000000000000000000000000000 PUSH1 0x0 MSTORE PUSH1 0x21 PUSH1 0x4 MSTORE PUSH1 0x24 PUSH1 0x0 REVERT JUMPDEST PUSH32 0x4E487B7100000000000000000000000000000000000000000000000000000000 PUSH1 0x0 MSTORE PUSH1 0x22 PUSH1 0x4 MSTORE PUSH1 0x24 PUSH1 0x0 REVERT JUMPDEST PUSH1 0x0 PUSH1 0x2 DUP3 DIV SWAP1 POP PUSH1 0x1 DUP3 AND DUP1 PUSH3 0x5C4 JUMPI PUSH1 0x7F DUP3 AND SWAP2 POP JUMPDEST PUSH1 0x20 DUP3 LT DUP2 SUB PUSH3 0x5DA JUMPI PUSH3 0x5D9 PUSH3 0x57C JUMP JUMPDEST JUMPDEST POP SWAP2 SWAP1 POP JUMP JUMPDEST PUSH2 0xD07 DUP1 PUSH3 0x5F0 PUSH1 0x0 CODECOPY PUSH1 0x0 RETURN INVALID PUSH1 0x80 PUSH1 0x40 MSTORE PUSH1 0x4 CALLDATASIZE LT PUSH2 0x9C JUMPI PUSH1 0x0 CALLDATALOAD PUSH1 0xE0 SHR DUP1 PUSH4 0x97654A8C GT PUSH2 0x64 JUMPI DUP1 PUSH4 0x97654A8C EQ PUSH2 0x190 JUMPI DUP1 PUSH4 0xA7F33715 EQ PUSH2 0x1BB JUMPI DUP1 PUSH4 0xABA83150 EQ PUSH2 0x1E6 JUMPI DUP1 PUSH4 0xB2A87FC3 EQ PUSH2 0x211 JUMPI DUP1 PUSH4 0xB69EF8A8 EQ PUSH2 0x23C JUMPI DUP1 PUSH4 0xD7BB99BA EQ PUSH2 0x267 JUMPI PUSH2 0x9C JUMP JUMPDEST DUP1 PUSH4 0x1FBED579 EQ PUSH2 0xA1 JUMPI DUP1 PUSH4 0x200D2ED2 EQ PUSH2 0xDE JUMPI DUP1 PUSH4 0x4051DDAC EQ PUSH2 0x109 JUMPI DUP1 PUSH4 0x481C6A75 EQ PUSH2 0x13A JUMPI DUP1 PUSH4 0x7E7CD1B3 EQ PUSH2 0x165 JUMPI JUMPDEST PUSH1 0x0 DUP1 REVERT JUMPDEST CALLVALUE DUP1 ISZERO PUSH2 0xAD JUMPI PUSH1 0x0 DUP1 REVERT JUMPDEST POP PUSH2 0xC8 PUSH1 0x4 DUP1 CALLDATASIZE SUB DUP2 ADD SWAP1 PUSH2 0xC3 SWAP2 SWAP1 PUSH2 0x889 JUMP JUMPDEST PUSH2 0x271 JUMP JUMPDEST PUSH1 0x40 MLOAD PUSH2 0xD5 SWAP2 SWAP1 PUSH2 0x8F7 JUMP JUMPDEST PUSH1 0x40 MLOAD DUP1 SWAP2 SUB SWAP1 RETURN JUMPDEST CALLVALUE DUP1 ISZERO PUSH2 0xEA JUMPI PUSH1 0x0 DUP1 REVERT JUMPDEST POP PUSH2 0xF3 PUSH2 0x2B0 JUMP JUMPDEST PUSH1 0x40 MLOAD PUSH2 0x100 SWAP2 SWAP1 PUSH2 0x989 JUMP JUMPDEST PUSH1 0x40 MLOAD DUP1 SWAP2 SUB SWAP1 RETURN JUMPDEST CALLVALUE DUP1 ISZERO PUSH2 0x115 JUMPI PUSH1 0x0 DUP1 REVERT JUMPDEST POP PUSH2 0x11E PUSH2 0x2C3 JUMP JUMPDEST PUSH1 0x40 MLOAD PUSH2 0x131 SWAP8 SWAP7 SWAP6 SWAP5 SWAP4 SWAP3 SWAP2 SWAP1 PUSH2 0xA4C JUMP JUMPDEST PUSH1 0x40 MLOAD DUP1 SWAP2 SUB SWAP1 RETURN JUMPDEST CALLVALUE DUP1 ISZERO PUSH2 0x146 JUMPI PUSH1 0x0 DUP1 REVERT JUMPDEST POP PUSH2 0x14F PUSH2 0x4BA JUMP JUMPDEST PUSH1 0x40 MLOAD PUSH2 0x15C SWAP2 SWAP1 PUSH2 0x8F7 JUMP JUMPDEST PUSH1 0x40 MLOAD DUP1 SWAP2 SUB SWAP1 RETURN JUMPDEST CALLVALUE DUP1 ISZERO PUSH2 0x171 JUMPI PUSH1 0x0 DUP1 REVERT JUMPDEST POP PUSH2 0x17A PUSH2 0x4E0 JUMP JUMPDEST PUSH1 0x40 MLOAD PUSH2 0x187 SWAP2 SWAP1 PUSH2 0xAD0 JUMP JUMPDEST PUSH1 0x40 MLOAD DUP1 SWAP2 SUB SWAP1 RETURN JUMPDEST CALLVALUE DUP1 ISZERO PUSH2 0x19C JUMPI PUSH1 0x0 DUP1 REVERT JUMPDEST POP PUSH2 0x1A5 PUSH2 0x56E JUMP JUMPDEST PUSH1 0x40 MLOAD PUSH2 0x1B2 SWAP2 SWAP1 PUSH2 0xAD0 JUMP JUMPDEST PUSH1 0x40 MLOAD DUP1 SWAP2 SUB SWAP1 RETURN JUMPDEST CALLVALUE DUP1 ISZERO PUSH2 0x1C7 JUMPI PUSH1 0x0 DUP1 REVERT JUMPDEST POP PUSH2 0x1D0 PUSH2 0x5FC JUMP JUMPDEST PUSH1 0x40 MLOAD PUSH2 0x1DD SWAP2 SWAP1 PUSH2 0xAF2 JUMP JUMPDEST PUSH1 0x40 MLOAD DUP1 SWAP2 SUB SWAP1 RETURN JUMPDEST CALLVALUE DUP1 ISZERO PUSH2 0x1F2 JUMPI PUSH1 0x0 DUP1 REVERT JUMPDEST POP PUSH2 0x1FB PUSH2 0x602 JUMP JUMPDEST PUSH1 0x40 MLOAD PUSH2 0x208 SWAP2 SWAP1 PUSH2 0xAD0 JUMP JUMPDEST PUSH1 0x40 MLOAD DUP1 SWAP2 SUB SWAP1 RETURN JUMPDEST CALLVALUE DUP1 ISZERO PUSH2 0x21D JUMPI PUSH1 0x0 DUP1 REVERT JUMPDEST POP PUSH2 0x226 PUSH2 0x690 JUMP JUMPDEST PUSH1 0x40 MLOAD PUSH2 0x233 SWAP2 SWAP1 PUSH2 0xAF2 JUMP JUMPDEST PUSH1 0x40 MLOAD DUP1 SWAP2 SUB SWAP1 RETURN JUMPDEST CALLVALUE DUP1 ISZERO PUSH2 0x248 JUMPI PUSH1 0x0 DUP1 REVERT JUMPDEST POP PUSH2 0x251 PUSH2 0x696 JUMP JUMPDEST PUSH1 0x40 MLOAD PUSH2 0x25E SWAP2 SWAP1 PUSH2 0xAF2 JUMP JUMPDEST PUSH1 0x40 MLOAD DUP1 SWAP2 SUB SWAP1 RETURN JUMPDEST PUSH2 0x26F PUSH2 0x69C JUMP JUMPDEST STOP JUMPDEST PUSH1 0x9 DUP2 DUP2 SLOAD DUP2 LT PUSH2 0x281 JUMPI PUSH1 0x0 DUP1 REVERT JUMPDEST SWAP1 PUSH1 0x0 MSTORE PUSH1 0x20 PUSH1 0x0 KECCAK256 ADD PUSH1 0x0 SWAP2 POP SLOAD SWAP1 PUSH2 0x100 EXP SWAP1 DIV PUSH20 0xFFFFFFFFFFFFFFFFFFFFFFFFFFFFFFFFFFFFFFFF AND DUP2 JUMP JUMPDEST PUSH1 0x3 PUSH1 0x0 SWAP1 SLOAD SWAP1 PUSH2 0x100 EXP SWAP1 DIV PUSH1 0xFF AND DUP2 JUMP JUMPDEST PUSH1 0x0 DUP1 PUSH1 0x0 PUSH1 0x60 DUP1 PUSH1 0x60 PUSH1 0x0 PUSH1 0x2 SLOAD SELFBALANCE PUSH1 0x1 PUSH1 0x0 SWAP1 SLOAD SWAP1 PUSH2 0x100 EXP SWAP1 DIV PUSH20 0xFFFFFFFFFFFFFFFFFFFFFFFFFFFFFFFFFFFFFFFF AND PUSH1 0x4 PUSH1 0x5 PUSH1 0x6 PUSH1 0x8 SLOAD DUP4 DUP1 SLOAD PUSH2 0x30B SWAP1 PUSH2 0xB3C JUMP JUMPDEST DUP1 PUSH1 0x1F ADD PUSH1 0x20 DUP1 SWAP2 DIV MUL PUSH1 0x20 ADD PUSH1 0x40 MLOAD SWAP1 DUP2 ADD PUSH1 0x40 MSTORE DUP1 SWAP3 SWAP2 SWAP1 DUP2 DUP2 MSTORE PUSH1 0x20 ADD DUP3 DUP1 SLOAD PUSH2 0x337 SWAP1 PUSH2 0xB3C JUMP JUMPDEST DUP1 ISZERO PUSH2 0x384 JUMPI DUP1 PUSH1 0x1F LT PUSH2 0x359 JUMPI PUSH2 0x100 DUP1 DUP4 SLOAD DIV MUL DUP4 MSTORE SWAP2 PUSH1 0x20 ADD SWAP2 PUSH2 0x384 JUMP JUMPDEST DUP3 ADD SWAP2 SWAP1 PUSH1 0x0 MSTORE PUSH1 0x20 PUSH1 0x0 KECCAK256 SWAP1 JUMPDEST DUP2 SLOAD DUP2 MSTORE SWAP1 PUSH1 0x1 ADD SWAP1 PUSH1 0x20 ADD DUP1 DUP4 GT PUSH2 0x367 JUMPI DUP3 SWAP1 SUB PUSH1 0x1F AND DUP3 ADD SWAP2 JUMPDEST POP POP POP POP POP SWAP4 POP DUP3 DUP1 SLOAD PUSH2 0x397 SWAP1 PUSH2 0xB3C JUMP JUMPDEST DUP1 PUSH1 0x1F ADD PUSH1 0x20 DUP1 SWAP2 DIV MUL PUSH1 0x20 ADD PUSH1 0x40 MLOAD SWAP1 DUP2 ADD PUSH1 0x40 MSTORE DUP1 SWAP3 SWAP2 SWAP1 DUP2 DUP2 MSTORE PUSH1 0x20 ADD DUP3 DUP1 SLOAD PUSH2 0x3C3 SWAP1 PUSH2 0xB3C JUMP JUMPDEST DUP1 ISZERO PUSH2 0x410 JUMPI DUP1 PUSH1 0x1F LT PUSH2 0x3E5 JUMPI PUSH2 0x100 DUP1 DUP4 SLOAD DIV MUL DUP4 MSTORE SWAP2 PUSH1 0x20 ADD SWAP2 PUSH2 0x410 JUMP JUMPDEST DUP3 ADD SWAP2 SWAP1 PUSH1 0x0 MSTORE PUSH1 0x20 PUSH1 0x0 KECCAK256 SWAP1 JUMPDEST DUP2 SLOAD DUP2 MSTORE SWAP1 PUSH1 0x1 ADD SWAP1 PUSH1 0x20 ADD DUP1 DUP4 GT PUSH2 0x3F3 JUMPI DUP3 SWAP1 SUB PUSH1 0x1F AND DUP3 ADD SWAP2 JUMPDEST POP POP POP POP POP SWAP3 POP DUP2 DUP1 SLOAD PUSH2 0x423 SWAP1 PUSH2 0xB3C JUMP JUMPDEST DUP1 PUSH1 0x1F ADD PUSH1 0x20 DUP1 SWAP2 DIV MUL PUSH1 0x20 ADD PUSH1 0x40 MLOAD SWAP1 DUP2 ADD PUSH1 0x40 MSTORE DUP1 SWAP3 SWAP2 SWAP1 DUP2 DUP2 MSTORE PUSH1 0x20 ADD DUP3 DUP1 SLOAD PUSH2 0x44F SWAP1 PUSH2 0xB3C JUMP JUMPDEST DUP1 ISZERO PUSH2 0x49C JUMPI DUP1 PUSH1 0x1F LT PUSH2 0x471 JUMPI PUSH2 0x100 DUP1 DUP4 SLOAD DIV MUL DUP4 MSTORE SWAP2 PUSH1 0x20 ADD SWAP2 PUSH2 0x49C JUMP JUMPDEST DUP3 ADD SWAP2 SWAP1 PUSH1 0x0 MSTORE PUSH1 0x20 PUSH1 0x0 KECCAK256 SWAP1 JUMPDEST DUP2 SLOAD DUP2 MSTORE SWAP1 PUSH1 0x1 ADD SWAP1 PUSH1 0x20 ADD DUP1 DUP4 GT PUSH2 0x47F JUMPI DUP3 SWAP1 SUB PUSH1 0x1F AND DUP3 ADD SWAP2 JUMPDEST POP POP POP POP POP SWAP2 POP SWAP7 POP SWAP7 POP SWAP7 POP SWAP7 POP SWAP7 POP SWAP7 POP SWAP7 POP SWAP1 SWAP2 SWAP3 SWAP4 SWAP5 SWAP6 SWAP7 JUMP JUMPDEST PUSH1 0x1 PUSH1 0x0 SWAP1 SLOAD SWAP1 PUSH2 0x100 EXP SWAP1 DIV PUSH20 0xFFFFFFFFFFFFFFFFFFFFFFFFFFFFFFFFFFFFFFFF AND DUP2 JUMP JUMPDEST PUSH1 0x4 DUP1 SLOAD PUSH2 0x4ED SWAP1 PUSH2 0xB3C JUMP JUMPDEST DUP1 PUSH1 0x1F ADD PUSH1 0x20 DUP1 SWAP2 DIV MUL PUSH1 0x20 ADD PUSH1 0x40 MLOAD SWAP1 DUP2 ADD PUSH1 0x40 MSTORE DUP1 SWAP3 SWAP2 SWAP1 DUP2 DUP2 MSTORE PUSH1 0x20 ADD DUP3 DUP1 SLOAD PUSH2 0x519 SWAP1 PUSH2 0xB3C JUMP JUMPDEST DUP1 ISZERO PUSH2 0x566 JUMPI DUP1 PUSH1 0x1F LT PUSH2 0x53B JUMPI PUSH2 0x100 DUP1 DUP4 SLOAD DIV MUL DUP4 MSTORE SWAP2 PUSH1 0x20 ADD SWAP2 PUSH2 0x566 JUMP JUMPDEST DUP3 ADD SWAP2 SWAP1 PUSH1 0x0 MSTORE PUSH1 0x20 PUSH1 0x0 KECCAK256 SWAP1 JUMPDEST DUP2 SLOAD DUP2 MSTORE SWAP1 PUSH1 0x1 ADD SWAP1 PUSH1 0x20 ADD DUP1 DUP4 GT PUSH2 0x549 JUMPI DUP3 SWAP1 SUB PUSH1 0x1F AND DUP3 ADD SWAP2 JUMPDEST POP POP POP POP POP DUP2 JUMP JUMPDEST PUSH1 0x5 DUP1 SLOAD PUSH2 0x57B SWAP1 PUSH2 0xB3C JUMP JUMPDEST DUP1 PUSH1 0x1F ADD PUSH1 0x20 DUP1 SWAP2 DIV MUL PUSH1 0x20 ADD PUSH1 0x40 MLOAD SWAP1 DUP2 ADD PUSH1 0x40 MSTORE DUP1 SWAP3 SWAP2 SWAP1 DUP2 DUP2 MSTORE PUSH1 0x20 ADD DUP3 DUP1 SLOAD PUSH2 0x5A7 SWAP1 PUSH2 0xB3C JUMP JUMPDEST DUP1 ISZERO PUSH2 0x5F4 JUMPI DUP1 PUSH1 0x1F LT PUSH2 0x5C9 JUMPI PUSH2 0x100 DUP1 DUP4 SLOAD DIV MUL DUP4 MSTORE SWAP2 PUSH1 0x20 ADD SWAP2 PUSH2 0x5F4 JUMP JUMPDEST DUP3 ADD SWAP2 SWAP1 PUSH1 0x0 MSTORE PUSH1 0x20 PUSH1 0x0 KECCAK256 SWAP1 JUMPDEST DUP2 SLOAD DUP2 MSTORE SWAP1 PUSH1 0x1 ADD SWAP1 PUSH1 0x20 ADD DUP1 DUP4 GT PUSH2 0x5D7 JUMPI DUP3 SWAP1 SUB PUSH1 0x1F AND DUP3 ADD SWAP2 JUMPDEST POP POP POP POP POP DUP2 JUMP JUMPDEST PUSH1 0x2 SLOAD DUP2 JUMP JUMPDEST PUSH1 0x6 DUP1 SLOAD PUSH2 0x60F SWAP1 PUSH2 0xB3C JUMP JUMPDEST DUP1 PUSH1 0x1F ADD PUSH1 0x20 DUP1 SWAP2 DIV MUL PUSH1 0x20 ADD PUSH1 0x40 MLOAD SWAP1 DUP2 ADD PUSH1 0x40 MSTORE DUP1 SWAP3 SWAP2 SWAP1 DUP2 DUP2 MSTORE PUSH1 0x20 ADD DUP3 DUP1 SLOAD PUSH2 0x63B SWAP1 PUSH2 0xB3C JUMP JUMPDEST DUP1 ISZERO PUSH2 0x688 JUMPI DUP1 PUSH1 0x1F LT PUSH2 0x65D JUMPI PUSH2 0x100 DUP1 DUP4 SLOAD DIV MUL DUP4 MSTORE SWAP2 PUSH1 0x20 ADD SWAP2 PUSH2 0x688 JUMP JUMPDEST DUP3 ADD SWAP2 SWAP1 PUSH1 0x0 MSTORE PUSH1 0x20 PUSH1 0x0 KECCAK256 SWAP1 JUMPDEST DUP2 SLOAD DUP2 MSTORE SWAP1 PUSH1 0x1 ADD SWAP1 PUSH1 0x20 ADD DUP1 DUP4 GT PUSH2 0x66B JUMPI DUP3 SWAP1 SUB PUSH1 0x1F AND DUP3 ADD SWAP2 JUMPDEST POP POP POP POP POP DUP2 JUMP JUMPDEST PUSH1 0x8 SLOAD DUP2 JUMP JUMPDEST PUSH1 0x7 SLOAD DUP2 JUMP JUMPDEST PUSH1 0x0 DUP1 SLOAD SWAP1 PUSH2 0x100 EXP SWAP1 DIV PUSH20 0xFFFFFFFFFFFFFFFFFFFFFFFFFFFFFFFFFFFFFFFF AND PUSH20 0xFFFFFFFFFFFFFFFFFFFFFFFFFFFFFFFFFFFFFFFF AND PUSH4 0x217FE6C6 CALLER PUSH1 0x40 MLOAD DUP3 PUSH4 0xFFFFFFFF AND PUSH1 0xE0 SHL DUP2 MSTORE PUSH1 0x4 ADD PUSH2 0x6F5 SWAP2 SWAP1 PUSH2 0xBB9 JUMP JUMPDEST PUSH1 0x20 PUSH1 0x40 MLOAD DUP1 DUP4 SUB DUP2 DUP7 GAS STATICCALL ISZERO DUP1 ISZERO PUSH2 0x712 JUMPI RETURNDATASIZE PUSH1 0x0 DUP1 RETURNDATACOPY RETURNDATASIZE PUSH1 0x0 REVERT JUMPDEST POP POP POP POP PUSH1 0x40 MLOAD RETURNDATASIZE PUSH1 0x1F NOT PUSH1 0x1F DUP3 ADD AND DUP3 ADD DUP1 PUSH1 0x40 MSTORE POP DUP2 ADD SWAP1 PUSH2 0x736 SWAP2 SWAP1 PUSH2 0xC1F JUMP JUMPDEST PUSH2 0x73F JUMPI PUSH1 0x0 DUP1 REVERT JUMPDEST PUSH1 0x2 SLOAD CALLVALUE GT PUSH2 0x74D JUMPI PUSH1 0x0 DUP1 REVERT JUMPDEST PUSH1 0x8 SLOAD CALLVALUE SELFBALANCE PUSH2 0x75C SWAP2 SWAP1 PUSH2 0xC7B JUMP JUMPDEST GT ISZERO PUSH2 0x767 JUMPI PUSH1 0x0 DUP1 REVERT JUMPDEST PUSH2 0x793 SELFBALANCE PUSH1 0x1 PUSH1 0x0 SWAP1 SLOAD SWAP1 PUSH2 0x100 EXP SWAP1 DIV PUSH20 0xFFFFFFFFFFFFFFFFFFFFFFFFFFFFFFFFFFFFFFFF AND PUSH2 0x795 JUMP JUMPDEST JUMP JUMPDEST PUSH1 0x8 SLOAD DUP3 SUB PUSH2 0x84A JUMPI DUP1 PUSH20 0xFFFFFFFFFFFFFFFFFFFFFFFFFFFFFFFFFFFFFFFF AND PUSH2 0x8FC PUSH1 0x8 SLOAD SWAP1 DUP2 ISZERO MUL SWAP1 PUSH1 0x40 MLOAD PUSH1 0x0 PUSH1 0x40 MLOAD DUP1 DUP4 SUB DUP2 DUP6 DUP9 DUP9 CALL SWAP4 POP POP POP POP ISZERO DUP1 ISZERO PUSH2 0x7E6 JUMPI RETURNDATASIZE PUSH1 0x0 DUP1 RETURNDATACOPY RETURNDATASIZE PUSH1 0x0 REVERT JUMPDEST POP PUSH32 0x2F256415EFC8561AF8DB667CB242964B19BE7380F379CCDAFAA0E54A6F6B7069 DUP2 PUSH1 0x40 MLOAD PUSH2 0x816 SWAP2 SWAP1 PUSH2 0x8F7 JUMP JUMPDEST PUSH1 0x40 MLOAD DUP1 SWAP2 SUB SWAP1 LOG1 PUSH1 0x1 PUSH1 0x3 PUSH1 0x0 PUSH2 0x100 EXP DUP2 SLOAD DUP2 PUSH1 0xFF MUL NOT AND SWAP1 DUP4 PUSH1 0x1 DUP2 GT ISZERO PUSH2 0x844 JUMPI PUSH2 0x843 PUSH2 0x912 JUMP JUMPDEST JUMPDEST MUL OR SWAP1 SSTORE POP JUMPDEST POP POP JUMP JUMPDEST PUSH1 0x0 DUP1 REVERT JUMPDEST PUSH1 0x0 DUP2 SWAP1 POP SWAP2 SWAP1 POP JUMP JUMPDEST PUSH2 0x866 DUP2 PUSH2 0x853 JUMP JUMPDEST DUP2 EQ PUSH2 0x871 JUMPI PUSH1 0x0 DUP1 REVERT JUMPDEST POP JUMP JUMPDEST PUSH1 0x0 DUP2 CALLDATALOAD SWAP1 POP PUSH2 0x883 DUP2 PUSH2 0x85D JUMP JUMPDEST SWAP3 SWAP2 POP POP JUMP JUMPDEST PUSH1 0x0 PUSH1 0x20 DUP3 DUP5 SUB SLT ISZERO PUSH2 0x89F JUMPI PUSH2 0x89E PUSH2 0x84E JUMP JUMPDEST JUMPDEST PUSH1 0x0 PUSH2 0x8AD DUP5 DUP3 DUP6 ADD PUSH2 0x874 JUMP JUMPDEST SWAP2 POP POP SWAP3 SWAP2 POP POP JUMP JUMPDEST PUSH1 0x0 PUSH20 0xFFFFFFFFFFFFFFFFFFFFFFFFFFFFFFFFFFFFFFFF DUP3 AND SWAP1 POP SWAP2 SWAP1 POP JUMP JUMPDEST PUSH1 0x0 PUSH2 0x8E1 DUP3 PUSH2 0x8B6 JUMP JUMPDEST SWAP1 POP SWAP2 SWAP1 POP JUMP JUMPDEST PUSH2 0x8F1 DUP2 PUSH2 0x8D6 JUMP JUMPDEST DUP3 MSTORE POP POP JUMP JUMPDEST PUSH1 0x0 PUSH1 0x20 DUP3 ADD SWAP1 POP PUSH2 0x90C PUSH1 0x0 DUP4 ADD DUP5 PUSH2 0x8E8 JUMP JUMPDEST SWAP3 SWAP2 POP POP JUMP JUMPDEST PUSH32 0x4E487B7100000000000000000000000000000000000000000000000000000000 PUSH1 0x0 MSTORE PUSH1 0x21 PUSH1 0x4 MSTORE PUSH1 0x24 PUSH1 0x0 REVERT JUMPDEST PUSH1 0x2 DUP2 LT PUSH2 0x952 JUMPI PUSH2 0x951 PUSH2 0x912 JUMP JUMPDEST JUMPDEST POP JUMP JUMPDEST PUSH1 0x0 DUP2 SWAP1 POP PUSH2 0x963 DUP3 PUSH2 0x941 JUMP JUMPDEST SWAP2 SWAP1 POP JUMP JUMPDEST PUSH1 0x0 PUSH2 0x973 DUP3 PUSH2 0x955 JUMP JUMPDEST SWAP1 POP SWAP2 SWAP1 POP JUMP JUMPDEST PUSH2 0x983 DUP2 PUSH2 0x968 JUMP JUMPDEST DUP3 MSTORE POP POP JUMP JUMPDEST PUSH1 0x0 PUSH1 0x20 DUP3 ADD SWAP1 POP PUSH2 0x99E PUSH1 0x0 DUP4 ADD DUP5 PUSH2 0x97A JUMP JUMPDEST SWAP3 SWAP2 POP POP JUMP JUMPDEST PUSH2 0x9AD DUP2 PUSH2 0x853 JUMP JUMPDEST DUP3 MSTORE POP POP JUMP JUMPDEST PUSH1 0x0 DUP2 MLOAD SWAP1 POP SWAP2 SWAP1 POP JUMP JUMPDEST PUSH1 0x0 DUP3 DUP3 MSTORE PUSH1 0x20 DUP3 ADD SWAP1 POP SWAP3 SWAP2 POP POP JUMP JUMPDEST PUSH1 0x0 JUMPDEST DUP4 DUP2 LT ISZERO PUSH2 0x9ED JUMPI DUP1 DUP3 ADD MLOAD DUP2 DUP5 ADD MSTORE PUSH1 0x20 DUP2 ADD SWAP1 POP PUSH2 0x9D2 JUMP JUMPDEST DUP4 DUP2 GT ISZERO PUSH2 0x9FC JUMPI PUSH1 0x0 DUP5 DUP5 ADD MSTORE JUMPDEST POP POP POP POP JUMP JUMPDEST PUSH1 0x0 PUSH1 0x1F NOT PUSH1 0x1F DUP4 ADD AND SWAP1 POP SWAP2 SWAP1 POP JUMP JUMPDEST PUSH1 0x0 PUSH2 0xA1E DUP3 PUSH2 0x9B3 JUMP JUMPDEST PUSH2 0xA28 DUP2 DUP6 PUSH2 0x9BE JUMP JUMPDEST SWAP4 POP PUSH2 0xA38 DUP2 DUP6 PUSH1 0x20 DUP7 ADD PUSH2 0x9CF JUMP JUMPDEST PUSH2 0xA41 DUP2 PUSH2 0xA02 JUMP JUMPDEST DUP5 ADD SWAP2 POP POP SWAP3 SWAP2 POP POP JUMP JUMPDEST PUSH1 0x0 PUSH1 0xE0 DUP3 ADD SWAP1 POP PUSH2 0xA61 PUSH1 0x0 DUP4 ADD DUP11 PUSH2 0x9A4 JUMP JUMPDEST PUSH2 0xA6E PUSH1 0x20 DUP4 ADD DUP10 PUSH2 0x9A4 JUMP JUMPDEST PUSH2 0xA7B PUSH1 0x40 DUP4 ADD DUP9 PUSH2 0x8E8 JUMP JUMPDEST DUP2 DUP2 SUB PUSH1 0x60 DUP4 ADD MSTORE PUSH2 0xA8D DUP2 DUP8 PUSH2 0xA13 JUMP JUMPDEST SWAP1 POP DUP2 DUP2 SUB PUSH1 0x80 DUP4 ADD MSTORE PUSH2 0xAA1 DUP2 DUP7 PUSH2 0xA13 JUMP JUMPDEST SWAP1 POP DUP2 DUP2 SUB PUSH1 0xA0 DUP4 ADD MSTORE PUSH2 0xAB5 DUP2 DUP6 PUSH2 0xA13 JUMP JUMPDEST SWAP1 POP PUSH2 0xAC4 PUSH1 0xC0 DUP4 ADD DUP5 PUSH2 0x9A4 JUMP JUMPDEST SWAP9 SWAP8 POP POP POP POP POP POP POP POP JUMP JUMPDEST PUSH1 0x0 PUSH1 0x20 DUP3 ADD SWAP1 POP DUP2 DUP2 SUB PUSH1 0x0 DUP4 ADD MSTORE PUSH2 0xAEA DUP2 DUP5 PUSH2 0xA13 JUMP JUMPDEST SWAP1 POP SWAP3 SWAP2 POP POP JUMP JUMPDEST PUSH1 0x0 PUSH1 0x20 DUP3 ADD SWAP1 POP PUSH2 0xB07 PUSH1 0x0 DUP4 ADD DUP5 PUSH2 0x9A4 JUMP JUMPDEST SWAP3 SWAP2 POP POP JUMP JUMPDEST PUSH32 0x4E487B7100000000000000000000000000000000000000000000000000000000 PUSH1 0x0 MSTORE PUSH1 0x22 PUSH1 0x4 MSTORE PUSH1 0x24 PUSH1 0x0 REVERT JUMPDEST PUSH1 0x0 PUSH1 0x2 DUP3 DIV SWAP1 POP PUSH1 0x1 DUP3 AND DUP1 PUSH2 0xB54 JUMPI PUSH1 0x7F DUP3 AND SWAP2 POP JUMPDEST PUSH1 0x20 DUP3 LT DUP2 SUB PUSH2 0xB67 JUMPI PUSH2 0xB66 PUSH2 0xB0D JUMP JUMPDEST JUMPDEST POP SWAP2 SWAP1 POP JUMP JUMPDEST PUSH32 0x66756E645F636F6E7472696275746F7200000000000000000000000000000000 PUSH1 0x0 DUP3 ADD MSTORE POP JUMP JUMPDEST PUSH1 0x0 PUSH2 0xBA3 PUSH1 0x10 DUP4 PUSH2 0x9BE JUMP JUMPDEST SWAP2 POP PUSH2 0xBAE DUP3 PUSH2 0xB6D JUMP JUMPDEST PUSH1 0x20 DUP3 ADD SWAP1 POP SWAP2 SWAP1 POP JUMP JUMPDEST PUSH1 0x0 PUSH1 0x40 DUP3 ADD SWAP1 POP PUSH2 0xBCE PUSH1 0x0 DUP4 ADD DUP5 PUSH2 0x8E8 JUMP JUMPDEST DUP2 DUP2 SUB PUSH1 0x20 DUP4 ADD MSTORE PUSH2 0xBDF DUP2 PUSH2 0xB96 JUMP JUMPDEST SWAP1 POP SWAP3 SWAP2 POP POP JUMP JUMPDEST PUSH1 0x0 DUP2 ISZERO ISZERO SWAP1 POP SWAP2 SWAP1 POP JUMP JUMPDEST PUSH2 0xBFC DUP2 PUSH2 0xBE7 JUMP JUMPDEST DUP2 EQ PUSH2 0xC07 JUMPI PUSH1 0x0 DUP1 REVERT JUMPDEST POP JUMP JUMPDEST PUSH1 0x0 DUP2 MLOAD SWAP1 POP PUSH2 0xC19 DUP2 PUSH2 0xBF3 JUMP JUMPDEST SWAP3 SWAP2 POP POP JUMP JUMPDEST PUSH1 0x0 PUSH1 0x20 DUP3 DUP5 SUB SLT ISZERO PUSH2 0xC35 JUMPI PUSH2 0xC34 PUSH2 0x84E JUMP JUMPDEST JUMPDEST PUSH1 0x0 PUSH2 0xC43 DUP5 DUP3 DUP6 ADD PUSH2 0xC0A JUMP JUMPDEST SWAP2 POP POP SWAP3 SWAP2 POP POP JUMP JUMPDEST PUSH32 0x4E487B7100000000000000000000000000000000000000000000000000000000 PUSH1 0x0 MSTORE PUSH1 0x11 PUSH1 0x4 MSTORE PUSH1 0x24 PUSH1 0x0 REVERT JUMPDEST PUSH1 0x0 PUSH2 0xC86 DUP3 PUSH2 0x853 JUMP JUMPDEST SWAP2 POP PUSH2 0xC91 DUP4 PUSH2 0x853 JUMP JUMPDEST SWAP3 POP DUP3 PUSH32 0xFFFFFFFFFFFFFFFFFFFFFFFFFFFFFFFFFFFFFFFFFFFFFFFFFFFFFFFFFFFFFFFF SUB DUP3 GT ISZERO PUSH2 0xCC6 JUMPI PUSH2 0xCC5 PUSH2 0xC4C JUMP JUMPDEST JUMPDEST DUP3 DUP3 ADD SWAP1 POP SWAP3 SWAP2 POP POP JUMP INVALID LOG2 PUSH5 0x6970667358 0x22 SLT KECCAK256 STOP JUMPDEST DUP7 0xC8 SMOD SWAP14 0xED 0xD5 DUP4 SWAP14 INVALID EQ 0xB7 KECCAK256 PUSH15 0xBF6D47073A5B75A4E130E5D032B80A PUSH4 0xF364736F PUSH13 0x634300080D0033A26469706673 PC 0x22 SLT KECCAK256 0xEA STOP 0xF6 EXTCODESIZE 0xD RETURNDATASIZE 0xED AND POP CALL PUSH17 0x5E8C996788EB42DC7A848AE361858C5918 SWAP3 0x28 0xBF PUSH4 0x64736F6C PUSH4 0x4300080D STOP CALLER "},"gasEstimates":{"creation":{"codeDepositCost":"1452000","executionCost":"25780","totalCost":"1477780"},"external":{"createCampaign(uint256,string,string,string,uint256)":"infinite","deployedCampaigns(uint256)":"4934","getDeployedCampaigns()":"infinite"}},"methodIdentifiers":{"createCampaign(uint256,string,string,string,uint256)":"d4ddd71a","deployedCampaigns(uint256)":"339d50a5","getDeployedCampaigns()":"4acb9d4f"}},"storageLayout":{"storage":[{"astId":768,"contract":"Campaigns.sol:CampaignFactory","label":"whitelist","offset":0,"slot":"0","type":"t_contract(Whitelist)747"},{"astId":771,"contract":"Campaigns.sol:CampaignFactory","label":"deployedCampaigns","offset":0,"slot":"1","type":"t_array(t_address)dyn_storage"}],"types":{"t_address":{"encoding":"inplace","label":"address","numberOfBytes":"20"},"t_array(t_address)dyn_storage":{"base":"t_address","encoding":"dynamic_array","label":"address[]","numberOfBytes":"32"},"t_contract(Whitelist)747":{"encoding":"inplace","label":"contract Whitelist","numberOfBytes":"20"}}},"userdoc":{"kind":"user","methods":{},"version":1}}