{"abi":[{"inputs":[{"internalType":"uint256","name":"minimun","type":"uint256"},{"internalType":"address","name":"creator","type":"address"},{"internalType":"string","name":"name","type":"string"},{"internalType":"string","name":"description","type":"string"},{"internalType":"string","name":"image","type":"string"},{"internalType":"uint256","name":"target","type":"uint256"}],"stateMutability":"nonpayable","type":"constructor"},{"anonymous":false,"inputs":[{"indexed":false,"internalType":"address","name":"","type":"address"}],"name":"CreatorPaid","type":"event"},{"inputs":[],"name":"CampaignDescription","outputs":[{"internalType":"string","name":"","type":"string"}],"stateMutability":"view","type":"function"},{"inputs":[],"name":"CampaignName","outputs":[{"internalType":"string","name":"","type":"string"}],"stateMutability":"view","type":"function"},{"inputs":[],"name":"balance","outputs":[{"internalType":"uint256","name":"","type":"uint256"}],"stateMutability":"view","type":"function"},{"inputs":[],"name":"contribute","outputs":[],"stateMutability":"payable","type":"function"},{"inputs":[{"internalType":"uint256","name":"","type":"uint256"}],"name":"contributers","outputs":[{"internalType":"address","name":"","type":"address"}],"stateMutability":"view","type":"function"},{"inputs":[],"name":"getSummary","outputs":[{"internalType":"uint256","name":"","type":"uint256"},{"internalType":"uint256","name":"","type":"uint256"},{"internalType":"address","name":"","type":"address"},{"internalType":"string","name":"","type":"string"},{"internalType":"string","name":"","type":"string"},{"internalType":"string","name":"","type":"string"},{"internalType":"uint256","name":"","type":"uint256"}],"stateMutability":"view","type":"function"},{"inputs":[],"name":"imageUrl","outputs":[{"internalType":"string","name":"","type":"string"}],"stateMutability":"view","type":"function"},{"inputs":[],"name":"manager","outputs":[{"internalType":"address","name":"","type":"address"}],"stateMutability":"view","type":"function"},{"inputs":[],"name":"minimunContribution","outputs":[{"internalType":"uint256","name":"","type":"uint256"}],"stateMutability":"view","type":"function"},{"inputs":[],"name":"status","outputs":[{"internalType":"enum Campaign.Campaign_Status","name":"","type":"uint8"}],"stateMutability":"view","type":"function"},{"inputs":[],"name":"targetToAchieve","outputs":[{"internalType":"uint256","name":"","type":"uint256"}],"stateMutability":"view","type":"function"}],"devdoc":{"kind":"dev","methods":{},"version":1},"evm":{"assembly":"    /* \"Campaigns.sol\":10115:12522  contract Campaign {... */\n  mstore(0x40, 0x80)\n    /* \"Campaigns.sol\":10171:10213  0xb8FeD7AD2bfCE5e906E1e2299d348639Ac377044 */\n  0xb8fed7ad2bfce5e906e1e2299d348639ac377044\n    /* \"Campaigns.sol\":10139:10214  Whitelist whitelist = Whitelist(0xb8FeD7AD2bfCE5e906E1e2299d348639Ac377044) */\n  0x00\n  dup1\n  0x0100\n  exp\n  dup2\n  sload\n  dup2\n  0xffffffffffffffffffffffffffffffffffffffff\n  mul\n  not\n  and\n  swap1\n  dup4\n  0xffffffffffffffffffffffffffffffffffffffff\n  and\n  mul\n  or\n  swap1\n  sstore\n  pop\n    /* \"Campaigns.sol\":10830:11281  constructor(... */\n  callvalue\n  dup1\n  iszero\n  tag_1\n  jumpi\n  0x00\n  dup1\n  revert\ntag_1:\n  pop\n  mload(0x40)\n  sub(codesize, bytecodeSize)\n  dup1\n  bytecodeSize\n  dup4\n  codecopy\n  dup2\n  dup2\n  add\n  0x40\n  mstore\n  dup2\n  add\n  swap1\n  tag_2\n  swap2\n  swap1\n  tag_3\n  jump\t// in\ntag_2:\n    /* \"Campaigns.sol\":11034:11041  creator */\n  dup5\n    /* \"Campaigns.sol\":11024:11031  manager */\n  0x01\n  0x00\n    /* \"Campaigns.sol\":11024:11041  manager = creator */\n  0x0100\n  exp\n  dup2\n  sload\n  dup2\n  0xffffffffffffffffffffffffffffffffffffffff\n  mul\n  not\n  and\n  swap1\n  dup4\n  0xffffffffffffffffffffffffffffffffffffffff\n  and\n  mul\n  or\n  swap1\n  sstore\n  pop\n    /* \"Campaigns.sol\":11073:11080  minimun */\n  dup6\n    /* \"Campaigns.sol\":11051:11070  minimunContribution */\n  0x02\n    /* \"Campaigns.sol\":11051:11080  minimunContribution = minimun */\n  dup2\n  swap1\n  sstore\n  pop\n    /* \"Campaigns.sol\":11105:11109  name */\n  dup4\n    /* \"Campaigns.sol\":11090:11102  CampaignName */\n  0x04\n    /* \"Campaigns.sol\":11090:11109  CampaignName = name */\n  swap1\n  dup1\n  mload\n  swap1\n  0x20\n  add\n  swap1\n  tag_6\n  swap3\n  swap2\n  swap1\n  tag_7\n  jump\t// in\ntag_6:\n  pop\n    /* \"Campaigns.sol\":11141:11152  description */\n  dup3\n    /* \"Campaigns.sol\":11119:11138  CampaignDescription */\n  0x05\n    /* \"Campaigns.sol\":11119:11152  CampaignDescription = description */\n  swap1\n  dup1\n  mload\n  swap1\n  0x20\n  add\n  swap1\n  tag_8\n  swap3\n  swap2\n  swap1\n  tag_7\n  jump\t// in\ntag_8:\n  pop\n    /* \"Campaigns.sol\":11173:11178  image */\n  dup2\n    /* \"Campaigns.sol\":11162:11170  imageUrl */\n  0x06\n    /* \"Campaigns.sol\":11162:11178  imageUrl = image */\n  swap1\n  dup1\n  mload\n  swap1\n  0x20\n  add\n  swap1\n  tag_9\n  swap3\n  swap2\n  swap1\n  tag_7\n  jump\t// in\ntag_9:\n  pop\n    /* \"Campaigns.sol\":11206:11212  target */\n  dup1\n    /* \"Campaigns.sol\":11188:11203  targetToAchieve */\n  0x08\n    /* \"Campaigns.sol\":11188:11212  targetToAchieve = target */\n  dup2\n  swap1\n  sstore\n  pop\n    /* \"Campaigns.sol\":11232:11233  0 */\n  0x00\n    /* \"Campaigns.sol\":11222:11229  balance */\n  0x07\n    /* \"Campaigns.sol\":11222:11233  balance = 0 */\n  dup2\n  swap1\n  sstore\n  pop\n    /* \"Campaigns.sol\":11252:11274  Campaign_Status.Active */\n  0x00\n    /* \"Campaigns.sol\":11243:11249  status */\n  0x03\n  0x00\n    /* \"Campaigns.sol\":11243:11274  status = Campaign_Status.Active */\n  0x0100\n  exp\n  dup2\n  sload\n  dup2\n  0xff\n  mul\n  not\n  and\n  swap1\n  dup4\n  0x01\n  dup2\n  gt\n  iszero\n  tag_10\n  jumpi\n  tag_11\n  tag_12\n  jump\t// in\ntag_11:\ntag_10:\n  mul\n  or\n  swap1\n  sstore\n  pop\n    /* \"Campaigns.sol\":10830:11281  constructor(... */\n  pop\n  pop\n  pop\n  pop\n  pop\n  pop\n    /* \"Campaigns.sol\":10115:12522  contract Campaign {... */\n  jump(tag_13)\ntag_7:\n  dup3\n  dup1\n  sload\n  tag_14\n  swap1\n  tag_15\n  jump\t// in\ntag_14:\n  swap1\n  0x00\n  mstore\n  keccak256(0x00, 0x20)\n  swap1\n  0x1f\n  add\n  0x20\n  swap1\n  div\n  dup2\n  add\n  swap3\n  dup3\n  tag_17\n  jumpi\n  0x00\n  dup6\n  sstore\n  jump(tag_16)\ntag_17:\n  dup3\n  0x1f\n  lt\n  tag_18\n  jumpi\n  dup1\n  mload\n  not(0xff)\n  and\n  dup4\n  dup1\n  add\n  or\n  dup6\n  sstore\n  jump(tag_16)\ntag_18:\n  dup3\n  dup1\n  add\n  0x01\n  add\n  dup6\n  sstore\n  dup3\n  iszero\n  tag_16\n  jumpi\n  swap2\n  dup3\n  add\ntag_19:\n  dup3\n  dup2\n  gt\n  iszero\n  tag_20\n  jumpi\n  dup3\n  mload\n  dup3\n  sstore\n  swap2\n  0x20\n  add\n  swap2\n  swap1\n  0x01\n  add\n  swap1\n  jump(tag_19)\ntag_20:\ntag_16:\n  pop\n  swap1\n  pop\n  tag_21\n  swap2\n  swap1\n  tag_22\n  jump\t// in\ntag_21:\n  pop\n  swap1\n  jump\t// out\ntag_22:\ntag_23:\n  dup1\n  dup3\n  gt\n  iszero\n  tag_24\n  jumpi\n  0x00\n  dup2\n  0x00\n  swap1\n  sstore\n  pop\n  0x01\n  add\n  jump(tag_23)\ntag_24:\n  pop\n  swap1\n  jump\t// out\n    /* \"#utility.yul\":7:82   */\ntag_25:\n    /* \"#utility.yul\":40:46   */\n  0x00\n    /* \"#utility.yul\":73:75   */\n  0x40\n    /* \"#utility.yul\":67:76   */\n  mload\n    /* \"#utility.yul\":57:76   */\n  swap1\n  pop\n    /* \"#utility.yul\":7:82   */\n  swap1\n  jump\t// out\n    /* \"#utility.yul\":88:205   */\ntag_26:\n    /* \"#utility.yul\":197:198   */\n  0x00\n    /* \"#utility.yul\":194:195   */\n  dup1\n    /* \"#utility.yul\":187:199   */\n  revert\n    /* \"#utility.yul\":211:328   */\ntag_27:\n    /* \"#utility.yul\":320:321   */\n  0x00\n    /* \"#utility.yul\":317:318   */\n  dup1\n    /* \"#utility.yul\":310:322   */\n  revert\n    /* \"#utility.yul\":334:411   */\ntag_28:\n    /* \"#utility.yul\":371:378   */\n  0x00\n    /* \"#utility.yul\":400:405   */\n  dup2\n    /* \"#utility.yul\":389:405   */\n  swap1\n  pop\n    /* \"#utility.yul\":334:411   */\n  swap2\n  swap1\n  pop\n  jump\t// out\n    /* \"#utility.yul\":417:539   */\ntag_29:\n    /* \"#utility.yul\":490:514   */\n  tag_52\n    /* \"#utility.yul\":508:513   */\n  dup2\n    /* \"#utility.yul\":490:514   */\n  tag_28\n  jump\t// in\ntag_52:\n    /* \"#utility.yul\":483:488   */\n  dup2\n    /* \"#utility.yul\":480:515   */\n  eq\n    /* \"#utility.yul\":470:533   */\n  tag_53\n  jumpi\n    /* \"#utility.yul\":529:530   */\n  0x00\n    /* \"#utility.yul\":526:527   */\n  dup1\n    /* \"#utility.yul\":519:531   */\n  revert\n    /* \"#utility.yul\":470:533   */\ntag_53:\n    /* \"#utility.yul\":417:539   */\n  pop\n  jump\t// out\n    /* \"#utility.yul\":545:688   */\ntag_30:\n    /* \"#utility.yul\":602:607   */\n  0x00\n    /* \"#utility.yul\":633:639   */\n  dup2\n    /* \"#utility.yul\":627:640   */\n  mload\n    /* \"#utility.yul\":618:640   */\n  swap1\n  pop\n    /* \"#utility.yul\":649:682   */\n  tag_55\n    /* \"#utility.yul\":676:681   */\n  dup2\n    /* \"#utility.yul\":649:682   */\n  tag_29\n  jump\t// in\ntag_55:\n    /* \"#utility.yul\":545:688   */\n  swap3\n  swap2\n  pop\n  pop\n  jump\t// out\n    /* \"#utility.yul\":694:820   */\ntag_31:\n    /* \"#utility.yul\":731:738   */\n  0x00\n    /* \"#utility.yul\":771:813   */\n  0xffffffffffffffffffffffffffffffffffffffff\n    /* \"#utility.yul\":764:769   */\n  dup3\n    /* \"#utility.yul\":760:814   */\n  and\n    /* \"#utility.yul\":749:814   */\n  swap1\n  pop\n    /* \"#utility.yul\":694:820   */\n  swap2\n  swap1\n  pop\n  jump\t// out\n    /* \"#utility.yul\":826:922   */\ntag_32:\n    /* \"#utility.yul\":863:870   */\n  0x00\n    /* \"#utility.yul\":892:916   */\n  tag_58\n    /* \"#utility.yul\":910:915   */\n  dup3\n    /* \"#utility.yul\":892:916   */\n  tag_31\n  jump\t// in\ntag_58:\n    /* \"#utility.yul\":881:916   */\n  swap1\n  pop\n    /* \"#utility.yul\":826:922   */\n  swap2\n  swap1\n  pop\n  jump\t// out\n    /* \"#utility.yul\":928:1050   */\ntag_33:\n    /* \"#utility.yul\":1001:1025   */\n  tag_60\n    /* \"#utility.yul\":1019:1024   */\n  dup2\n    /* \"#utility.yul\":1001:1025   */\n  tag_32\n  jump\t// in\ntag_60:\n    /* \"#utility.yul\":994:999   */\n  dup2\n    /* \"#utility.yul\":991:1026   */\n  eq\n    /* \"#utility.yul\":981:1044   */\n  tag_61\n  jumpi\n    /* \"#utility.yul\":1040:1041   */\n  0x00\n    /* \"#utility.yul\":1037:1038   */\n  dup1\n    /* \"#utility.yul\":1030:1042   */\n  revert\n    /* \"#utility.yul\":981:1044   */\ntag_61:\n    /* \"#utility.yul\":928:1050   */\n  pop\n  jump\t// out\n    /* \"#utility.yul\":1056:1199   */\ntag_34:\n    /* \"#utility.yul\":1113:1118   */\n  0x00\n    /* \"#utility.yul\":1144:1150   */\n  dup2\n    /* \"#utility.yul\":1138:1151   */\n  mload\n    /* \"#utility.yul\":1129:1151   */\n  swap1\n  pop\n    /* \"#utility.yul\":1160:1193   */\n  tag_63\n    /* \"#utility.yul\":1187:1192   */\n  dup2\n    /* \"#utility.yul\":1160:1193   */\n  tag_33\n  jump\t// in\ntag_63:\n    /* \"#utility.yul\":1056:1199   */\n  swap3\n  swap2\n  pop\n  pop\n  jump\t// out\n    /* \"#utility.yul\":1205:1322   */\ntag_35:\n    /* \"#utility.yul\":1314:1315   */\n  0x00\n    /* \"#utility.yul\":1311:1312   */\n  dup1\n    /* \"#utility.yul\":1304:1316   */\n  revert\n    /* \"#utility.yul\":1328:1445   */\ntag_36:\n    /* \"#utility.yul\":1437:1438   */\n  0x00\n    /* \"#utility.yul\":1434:1435   */\n  dup1\n    /* \"#utility.yul\":1427:1439   */\n  revert\n    /* \"#utility.yul\":1451:1553   */\ntag_37:\n    /* \"#utility.yul\":1492:1498   */\n  0x00\n    /* \"#utility.yul\":1543:1545   */\n  0x1f\n    /* \"#utility.yul\":1539:1546   */\n  not\n    /* \"#utility.yul\":1534:1536   */\n  0x1f\n    /* \"#utility.yul\":1527:1532   */\n  dup4\n    /* \"#utility.yul\":1523:1537   */\n  add\n    /* \"#utility.yul\":1519:1547   */\n  and\n    /* \"#utility.yul\":1509:1547   */\n  swap1\n  pop\n    /* \"#utility.yul\":1451:1553   */\n  swap2\n  swap1\n  pop\n  jump\t// out\n    /* \"#utility.yul\":1559:1739   */\ntag_38:\n    /* \"#utility.yul\":1607:1684   */\n  0x4e487b7100000000000000000000000000000000000000000000000000000000\n    /* \"#utility.yul\":1604:1605   */\n  0x00\n    /* \"#utility.yul\":1597:1685   */\n  mstore\n    /* \"#utility.yul\":1704:1708   */\n  0x41\n    /* \"#utility.yul\":1701:1702   */\n  0x04\n    /* \"#utility.yul\":1694:1709   */\n  mstore\n    /* \"#utility.yul\":1728:1732   */\n  0x24\n    /* \"#utility.yul\":1725:1726   */\n  0x00\n    /* \"#utility.yul\":1718:1733   */\n  revert\n    /* \"#utility.yul\":1745:2026   */\ntag_39:\n    /* \"#utility.yul\":1828:1855   */\n  tag_69\n    /* \"#utility.yul\":1850:1854   */\n  dup3\n    /* \"#utility.yul\":1828:1855   */\n  tag_37\n  jump\t// in\ntag_69:\n    /* \"#utility.yul\":1820:1826   */\n  dup2\n    /* \"#utility.yul\":1816:1856   */\n  add\n    /* \"#utility.yul\":1958:1964   */\n  dup2\n    /* \"#utility.yul\":1946:1956   */\n  dup2\n    /* \"#utility.yul\":1943:1965   */\n  lt\n    /* \"#utility.yul\":1922:1940   */\n  0xffffffffffffffff\n    /* \"#utility.yul\":1910:1920   */\n  dup3\n    /* \"#utility.yul\":1907:1941   */\n  gt\n    /* \"#utility.yul\":1904:1966   */\n  or\n    /* \"#utility.yul\":1901:1989   */\n  iszero\n  tag_70\n  jumpi\n    /* \"#utility.yul\":1969:1987   */\n  tag_71\n  tag_38\n  jump\t// in\ntag_71:\n    /* \"#utility.yul\":1901:1989   */\ntag_70:\n    /* \"#utility.yul\":2009:2019   */\n  dup1\n    /* \"#utility.yul\":2005:2007   */\n  0x40\n    /* \"#utility.yul\":1998:2020   */\n  mstore\n    /* \"#utility.yul\":1788:2026   */\n  pop\n    /* \"#utility.yul\":1745:2026   */\n  pop\n  pop\n  jump\t// out\n    /* \"#utility.yul\":2032:2161   */\ntag_40:\n    /* \"#utility.yul\":2066:2072   */\n  0x00\n    /* \"#utility.yul\":2093:2113   */\n  tag_73\n  tag_25\n  jump\t// in\ntag_73:\n    /* \"#utility.yul\":2083:2113   */\n  swap1\n  pop\n    /* \"#utility.yul\":2122:2155   */\n  tag_74\n    /* \"#utility.yul\":2150:2154   */\n  dup3\n    /* \"#utility.yul\":2142:2148   */\n  dup3\n    /* \"#utility.yul\":2122:2155   */\n  tag_39\n  jump\t// in\ntag_74:\n    /* \"#utility.yul\":2032:2161   */\n  swap2\n  swap1\n  pop\n  jump\t// out\n    /* \"#utility.yul\":2167:2475   */\ntag_41:\n    /* \"#utility.yul\":2229:2233   */\n  0x00\n    /* \"#utility.yul\":2319:2337   */\n  0xffffffffffffffff\n    /* \"#utility.yul\":2311:2317   */\n  dup3\n    /* \"#utility.yul\":2308:2338   */\n  gt\n    /* \"#utility.yul\":2305:2361   */\n  iszero\n  tag_76\n  jumpi\n    /* \"#utility.yul\":2341:2359   */\n  tag_77\n  tag_38\n  jump\t// in\ntag_77:\n    /* \"#utility.yul\":2305:2361   */\ntag_76:\n    /* \"#utility.yul\":2379:2408   */\n  tag_78\n    /* \"#utility.yul\":2401:2407   */\n  dup3\n    /* \"#utility.yul\":2379:2408   */\n  tag_37\n  jump\t// in\ntag_78:\n    /* \"#utility.yul\":2371:2408   */\n  swap1\n  pop\n    /* \"#utility.yul\":2463:2467   */\n  0x20\n    /* \"#utility.yul\":2457:2461   */\n  dup2\n    /* \"#utility.yul\":2453:2468   */\n  add\n    /* \"#utility.yul\":2445:2468   */\n  swap1\n  pop\n    /* \"#utility.yul\":2167:2475   */\n  swap2\n  swap1\n  pop\n  jump\t// out\n    /* \"#utility.yul\":2481:2788   */\ntag_42:\n    /* \"#utility.yul\":2549:2550   */\n  0x00\n    /* \"#utility.yul\":2559:2672   */\ntag_80:\n    /* \"#utility.yul\":2573:2579   */\n  dup4\n    /* \"#utility.yul\":2570:2571   */\n  dup2\n    /* \"#utility.yul\":2567:2580   */\n  lt\n    /* \"#utility.yul\":2559:2672   */\n  iszero\n  tag_82\n  jumpi\n    /* \"#utility.yul\":2658:2659   */\n  dup1\n    /* \"#utility.yul\":2653:2656   */\n  dup3\n    /* \"#utility.yul\":2649:2660   */\n  add\n    /* \"#utility.yul\":2643:2661   */\n  mload\n    /* \"#utility.yul\":2639:2640   */\n  dup2\n    /* \"#utility.yul\":2634:2637   */\n  dup5\n    /* \"#utility.yul\":2630:2641   */\n  add\n    /* \"#utility.yul\":2623:2662   */\n  mstore\n    /* \"#utility.yul\":2595:2597   */\n  0x20\n    /* \"#utility.yul\":2592:2593   */\n  dup2\n    /* \"#utility.yul\":2588:2598   */\n  add\n    /* \"#utility.yul\":2583:2598   */\n  swap1\n  pop\n    /* \"#utility.yul\":2559:2672   */\n  jump(tag_80)\ntag_82:\n    /* \"#utility.yul\":2690:2696   */\n  dup4\n    /* \"#utility.yul\":2687:2688   */\n  dup2\n    /* \"#utility.yul\":2684:2697   */\n  gt\n    /* \"#utility.yul\":2681:2782   */\n  iszero\n  tag_83\n  jumpi\n    /* \"#utility.yul\":2770:2771   */\n  0x00\n    /* \"#utility.yul\":2761:2767   */\n  dup5\n    /* \"#utility.yul\":2756:2759   */\n  dup5\n    /* \"#utility.yul\":2752:2768   */\n  add\n    /* \"#utility.yul\":2745:2772   */\n  mstore\n    /* \"#utility.yul\":2681:2782   */\ntag_83:\n    /* \"#utility.yul\":2530:2788   */\n  pop\n    /* \"#utility.yul\":2481:2788   */\n  pop\n  pop\n  pop\n  jump\t// out\n    /* \"#utility.yul\":2794:3215   */\ntag_43:\n    /* \"#utility.yul\":2883:2888   */\n  0x00\n    /* \"#utility.yul\":2908:2974   */\n  tag_85\n    /* \"#utility.yul\":2924:2973   */\n  tag_86\n    /* \"#utility.yul\":2966:2972   */\n  dup5\n    /* \"#utility.yul\":2924:2973   */\n  tag_41\n  jump\t// in\ntag_86:\n    /* \"#utility.yul\":2908:2974   */\n  tag_40\n  jump\t// in\ntag_85:\n    /* \"#utility.yul\":2899:2974   */\n  swap1\n  pop\n    /* \"#utility.yul\":2997:3003   */\n  dup3\n    /* \"#utility.yul\":2990:2995   */\n  dup2\n    /* \"#utility.yul\":2983:3004   */\n  mstore\n    /* \"#utility.yul\":3035:3039   */\n  0x20\n    /* \"#utility.yul\":3028:3033   */\n  dup2\n    /* \"#utility.yul\":3024:3040   */\n  add\n    /* \"#utility.yul\":3073:3076   */\n  dup5\n    /* \"#utility.yul\":3064:3070   */\n  dup5\n    /* \"#utility.yul\":3059:3062   */\n  dup5\n    /* \"#utility.yul\":3055:3071   */\n  add\n    /* \"#utility.yul\":3052:3077   */\n  gt\n    /* \"#utility.yul\":3049:3161   */\n  iszero\n  tag_87\n  jumpi\n    /* \"#utility.yul\":3080:3159   */\n  tag_88\n  tag_36\n  jump\t// in\ntag_88:\n    /* \"#utility.yul\":3049:3161   */\ntag_87:\n    /* \"#utility.yul\":3170:3209   */\n  tag_89\n    /* \"#utility.yul\":3202:3208   */\n  dup5\n    /* \"#utility.yul\":3197:3200   */\n  dup3\n    /* \"#utility.yul\":3192:3195   */\n  dup6\n    /* \"#utility.yul\":3170:3209   */\n  tag_42\n  jump\t// in\ntag_89:\n    /* \"#utility.yul\":2889:3215   */\n  pop\n    /* \"#utility.yul\":2794:3215   */\n  swap4\n  swap3\n  pop\n  pop\n  pop\n  jump\t// out\n    /* \"#utility.yul\":3235:3590   */\ntag_44:\n    /* \"#utility.yul\":3302:3307   */\n  0x00\n    /* \"#utility.yul\":3351:3354   */\n  dup3\n    /* \"#utility.yul\":3344:3348   */\n  0x1f\n    /* \"#utility.yul\":3336:3342   */\n  dup4\n    /* \"#utility.yul\":3332:3349   */\n  add\n    /* \"#utility.yul\":3328:3355   */\n  slt\n    /* \"#utility.yul\":3318:3440   */\n  tag_91\n  jumpi\n    /* \"#utility.yul\":3359:3438   */\n  tag_92\n  tag_35\n  jump\t// in\ntag_92:\n    /* \"#utility.yul\":3318:3440   */\ntag_91:\n    /* \"#utility.yul\":3469:3475   */\n  dup2\n    /* \"#utility.yul\":3463:3476   */\n  mload\n    /* \"#utility.yul\":3494:3584   */\n  tag_93\n    /* \"#utility.yul\":3580:3583   */\n  dup5\n    /* \"#utility.yul\":3572:3578   */\n  dup3\n    /* \"#utility.yul\":3565:3569   */\n  0x20\n    /* \"#utility.yul\":3557:3563   */\n  dup7\n    /* \"#utility.yul\":3553:3570   */\n  add\n    /* \"#utility.yul\":3494:3584   */\n  tag_43\n  jump\t// in\ntag_93:\n    /* \"#utility.yul\":3485:3584   */\n  swap2\n  pop\n    /* \"#utility.yul\":3308:3590   */\n  pop\n    /* \"#utility.yul\":3235:3590   */\n  swap3\n  swap2\n  pop\n  pop\n  jump\t// out\n    /* \"#utility.yul\":3596:5249   */\ntag_3:\n    /* \"#utility.yul\":3741:3747   */\n  0x00\n    /* \"#utility.yul\":3749:3755   */\n  dup1\n    /* \"#utility.yul\":3757:3763   */\n  0x00\n    /* \"#utility.yul\":3765:3771   */\n  dup1\n    /* \"#utility.yul\":3773:3779   */\n  0x00\n    /* \"#utility.yul\":3781:3787   */\n  dup1\n    /* \"#utility.yul\":3830:3833   */\n  0xc0\n    /* \"#utility.yul\":3818:3827   */\n  dup8\n    /* \"#utility.yul\":3809:3816   */\n  dup10\n    /* \"#utility.yul\":3805:3828   */\n  sub\n    /* \"#utility.yul\":3801:3834   */\n  slt\n    /* \"#utility.yul\":3798:3918   */\n  iszero\n  tag_95\n  jumpi\n    /* \"#utility.yul\":3837:3916   */\n  tag_96\n  tag_26\n  jump\t// in\ntag_96:\n    /* \"#utility.yul\":3798:3918   */\ntag_95:\n    /* \"#utility.yul\":3957:3958   */\n  0x00\n    /* \"#utility.yul\":3982:4046   */\n  tag_97\n    /* \"#utility.yul\":4038:4045   */\n  dup10\n    /* \"#utility.yul\":4029:4035   */\n  dup3\n    /* \"#utility.yul\":4018:4027   */\n  dup11\n    /* \"#utility.yul\":4014:4036   */\n  add\n    /* \"#utility.yul\":3982:4046   */\n  tag_30\n  jump\t// in\ntag_97:\n    /* \"#utility.yul\":3972:4046   */\n  swap7\n  pop\n    /* \"#utility.yul\":3928:4056   */\n  pop\n    /* \"#utility.yul\":4095:4097   */\n  0x20\n    /* \"#utility.yul\":4121:4185   */\n  tag_98\n    /* \"#utility.yul\":4177:4184   */\n  dup10\n    /* \"#utility.yul\":4168:4174   */\n  dup3\n    /* \"#utility.yul\":4157:4166   */\n  dup11\n    /* \"#utility.yul\":4153:4175   */\n  add\n    /* \"#utility.yul\":4121:4185   */\n  tag_34\n  jump\t// in\ntag_98:\n    /* \"#utility.yul\":4111:4185   */\n  swap6\n  pop\n    /* \"#utility.yul\":4066:4195   */\n  pop\n    /* \"#utility.yul\":4255:4257   */\n  0x40\n    /* \"#utility.yul\":4244:4253   */\n  dup8\n    /* \"#utility.yul\":4240:4258   */\n  add\n    /* \"#utility.yul\":4234:4259   */\n  mload\n    /* \"#utility.yul\":4286:4304   */\n  0xffffffffffffffff\n    /* \"#utility.yul\":4278:4284   */\n  dup2\n    /* \"#utility.yul\":4275:4305   */\n  gt\n    /* \"#utility.yul\":4272:4389   */\n  iszero\n  tag_99\n  jumpi\n    /* \"#utility.yul\":4308:4387   */\n  tag_100\n  tag_27\n  jump\t// in\ntag_100:\n    /* \"#utility.yul\":4272:4389   */\ntag_99:\n    /* \"#utility.yul\":4413:4487   */\n  tag_101\n    /* \"#utility.yul\":4479:4486   */\n  dup10\n    /* \"#utility.yul\":4470:4476   */\n  dup3\n    /* \"#utility.yul\":4459:4468   */\n  dup11\n    /* \"#utility.yul\":4455:4477   */\n  add\n    /* \"#utility.yul\":4413:4487   */\n  tag_44\n  jump\t// in\ntag_101:\n    /* \"#utility.yul\":4403:4487   */\n  swap5\n  pop\n    /* \"#utility.yul\":4205:4497   */\n  pop\n    /* \"#utility.yul\":4557:4559   */\n  0x60\n    /* \"#utility.yul\":4546:4555   */\n  dup8\n    /* \"#utility.yul\":4542:4560   */\n  add\n    /* \"#utility.yul\":4536:4561   */\n  mload\n    /* \"#utility.yul\":4588:4606   */\n  0xffffffffffffffff\n    /* \"#utility.yul\":4580:4586   */\n  dup2\n    /* \"#utility.yul\":4577:4607   */\n  gt\n    /* \"#utility.yul\":4574:4691   */\n  iszero\n  tag_102\n  jumpi\n    /* \"#utility.yul\":4610:4689   */\n  tag_103\n  tag_27\n  jump\t// in\ntag_103:\n    /* \"#utility.yul\":4574:4691   */\ntag_102:\n    /* \"#utility.yul\":4715:4789   */\n  tag_104\n    /* \"#utility.yul\":4781:4788   */\n  dup10\n    /* \"#utility.yul\":4772:4778   */\n  dup3\n    /* \"#utility.yul\":4761:4770   */\n  dup11\n    /* \"#utility.yul\":4757:4779   */\n  add\n    /* \"#utility.yul\":4715:4789   */\n  tag_44\n  jump\t// in\ntag_104:\n    /* \"#utility.yul\":4705:4789   */\n  swap4\n  pop\n    /* \"#utility.yul\":4507:4799   */\n  pop\n    /* \"#utility.yul\":4859:4862   */\n  0x80\n    /* \"#utility.yul\":4848:4857   */\n  dup8\n    /* \"#utility.yul\":4844:4863   */\n  add\n    /* \"#utility.yul\":4838:4864   */\n  mload\n    /* \"#utility.yul\":4891:4909   */\n  0xffffffffffffffff\n    /* \"#utility.yul\":4883:4889   */\n  dup2\n    /* \"#utility.yul\":4880:4910   */\n  gt\n    /* \"#utility.yul\":4877:4994   */\n  iszero\n  tag_105\n  jumpi\n    /* \"#utility.yul\":4913:4992   */\n  tag_106\n  tag_27\n  jump\t// in\ntag_106:\n    /* \"#utility.yul\":4877:4994   */\ntag_105:\n    /* \"#utility.yul\":5018:5092   */\n  tag_107\n    /* \"#utility.yul\":5084:5091   */\n  dup10\n    /* \"#utility.yul\":5075:5081   */\n  dup3\n    /* \"#utility.yul\":5064:5073   */\n  dup11\n    /* \"#utility.yul\":5060:5082   */\n  add\n    /* \"#utility.yul\":5018:5092   */\n  tag_44\n  jump\t// in\ntag_107:\n    /* \"#utility.yul\":5008:5092   */\n  swap3\n  pop\n    /* \"#utility.yul\":4809:5102   */\n  pop\n    /* \"#utility.yul\":5141:5144   */\n  0xa0\n    /* \"#utility.yul\":5168:5232   */\n  tag_108\n    /* \"#utility.yul\":5224:5231   */\n  dup10\n    /* \"#utility.yul\":5215:5221   */\n  dup3\n    /* \"#utility.yul\":5204:5213   */\n  dup11\n    /* \"#utility.yul\":5200:5222   */\n  add\n    /* \"#utility.yul\":5168:5232   */\n  tag_30\n  jump\t// in\ntag_108:\n    /* \"#utility.yul\":5158:5232   */\n  swap2\n  pop\n    /* \"#utility.yul\":5112:5242   */\n  pop\n    /* \"#utility.yul\":3596:5249   */\n  swap3\n  swap6\n  pop\n  swap3\n  swap6\n  pop\n  swap3\n  swap6\n  jump\t// out\n    /* \"#utility.yul\":5255:5435   */\ntag_12:\n    /* \"#utility.yul\":5303:5380   */\n  0x4e487b7100000000000000000000000000000000000000000000000000000000\n    /* \"#utility.yul\":5300:5301   */\n  0x00\n    /* \"#utility.yul\":5293:5381   */\n  mstore\n    /* \"#utility.yul\":5400:5404   */\n  0x21\n    /* \"#utility.yul\":5397:5398   */\n  0x04\n    /* \"#utility.yul\":5390:5405   */\n  mstore\n    /* \"#utility.yul\":5424:5428   */\n  0x24\n    /* \"#utility.yul\":5421:5422   */\n  0x00\n    /* \"#utility.yul\":5414:5429   */\n  revert\n    /* \"#utility.yul\":5441:5621   */\ntag_45:\n    /* \"#utility.yul\":5489:5566   */\n  0x4e487b7100000000000000000000000000000000000000000000000000000000\n    /* \"#utility.yul\":5486:5487   */\n  0x00\n    /* \"#utility.yul\":5479:5567   */\n  mstore\n    /* \"#utility.yul\":5586:5590   */\n  0x22\n    /* \"#utility.yul\":5583:5584   */\n  0x04\n    /* \"#utility.yul\":5576:5591   */\n  mstore\n    /* \"#utility.yul\":5610:5614   */\n  0x24\n    /* \"#utility.yul\":5607:5608   */\n  0x00\n    /* \"#utility.yul\":5600:5615   */\n  revert\n    /* \"#utility.yul\":5627:5947   */\ntag_15:\n    /* \"#utility.yul\":5671:5677   */\n  0x00\n    /* \"#utility.yul\":5708:5709   */\n  0x02\n    /* \"#utility.yul\":5702:5706   */\n  dup3\n    /* \"#utility.yul\":5698:5710   */\n  div\n    /* \"#utility.yul\":5688:5710   */\n  swap1\n  pop\n    /* \"#utility.yul\":5755:5756   */\n  0x01\n    /* \"#utility.yul\":5749:5753   */\n  dup3\n    /* \"#utility.yul\":5745:5757   */\n  and\n    /* \"#utility.yul\":5776:5794   */\n  dup1\n    /* \"#utility.yul\":5766:5847   */\n  tag_112\n  jumpi\n    /* \"#utility.yul\":5832:5836   */\n  0x7f\n    /* \"#utility.yul\":5824:5830   */\n  dup3\n    /* \"#utility.yul\":5820:5837   */\n  and\n    /* \"#utility.yul\":5810:5837   */\n  swap2\n  pop\n    /* \"#utility.yul\":5766:5847   */\ntag_112:\n    /* \"#utility.yul\":5894:5896   */\n  0x20\n    /* \"#utility.yul\":5886:5892   */\n  dup3\n    /* \"#utility.yul\":5883:5897   */\n  lt\n    /* \"#utility.yul\":5863:5881   */\n  dup2\n    /* \"#utility.yul\":5860:5898   */\n  sub\n    /* \"#utility.yul\":5857:5941   */\n  tag_113\n  jumpi\n    /* \"#utility.yul\":5913:5931   */\n  tag_114\n  tag_45\n  jump\t// in\ntag_114:\n    /* \"#utility.yul\":5857:5941   */\ntag_113:\n    /* \"#utility.yul\":5678:5947   */\n  pop\n    /* \"#utility.yul\":5627:5947   */\n  swap2\n  swap1\n  pop\n  jump\t// out\n    /* \"Campaigns.sol\":10115:12522  contract Campaign {... */\ntag_13:\n  dataSize(sub_0)\n  dup1\n  dataOffset(sub_0)\n  0x00\n  codecopy\n  0x00\n  return\nstop\n\nsub_0: assembly {\n        /* \"Campaigns.sol\":10115:12522  contract Campaign {... */\n      mstore(0x40, 0x80)\n      jumpi(tag_1, lt(calldatasize, 0x04))\n      shr(0xe0, calldataload(0x00))\n      dup1\n      0x97654a8c\n      gt\n      tag_13\n      jumpi\n      dup1\n      0x97654a8c\n      eq\n      tag_7\n      jumpi\n      dup1\n      0xa7f33715\n      eq\n      tag_8\n      jumpi\n      dup1\n      0xaba83150\n      eq\n      tag_9\n      jumpi\n      dup1\n      0xb2a87fc3\n      eq\n      tag_10\n      jumpi\n      dup1\n      0xb69ef8a8\n      eq\n      tag_11\n      jumpi\n      dup1\n      0xd7bb99ba\n      eq\n      tag_12\n      jumpi\n      jump(tag_1)\n    tag_13:\n      dup1\n      0x1fbed579\n      eq\n      tag_2\n      jumpi\n      dup1\n      0x200d2ed2\n      eq\n      tag_3\n      jumpi\n      dup1\n      0x4051ddac\n      eq\n      tag_4\n      jumpi\n      dup1\n      0x481c6a75\n      eq\n      tag_5\n      jumpi\n      dup1\n      0x7e7cd1b3\n      eq\n      tag_6\n      jumpi\n    tag_1:\n      0x00\n      dup1\n      revert\n        /* \"Campaigns.sol\":10674:10703  address[] public contributers */\n    tag_2:\n      callvalue\n      dup1\n      iszero\n      tag_14\n      jumpi\n      0x00\n      dup1\n      revert\n    tag_14:\n      pop\n      tag_15\n      0x04\n      dup1\n      calldatasize\n      sub\n      dup2\n      add\n      swap1\n      tag_16\n      swap2\n      swap1\n      tag_17\n      jump\t// in\n    tag_16:\n      tag_18\n      jump\t// in\n    tag_15:\n      mload(0x40)\n      tag_19\n      swap2\n      swap1\n      tag_20\n      jump\t// in\n    tag_19:\n      mload(0x40)\n      dup1\n      swap2\n      sub\n      swap1\n      return\n        /* \"Campaigns.sol\":10476:10505  Campaign_Status public status */\n    tag_3:\n      callvalue\n      dup1\n      iszero\n      tag_21\n      jumpi\n      0x00\n      dup1\n      revert\n    tag_21:\n      pop\n      tag_22\n      tag_23\n      jump\t// in\n    tag_22:\n      mload(0x40)\n      tag_24\n      swap2\n      swap1\n      tag_25\n      jump\t// in\n    tag_24:\n      mload(0x40)\n      dup1\n      swap2\n      sub\n      swap1\n      return\n        /* \"Campaigns.sol\":12075:12519  function getSummary()... */\n    tag_4:\n      callvalue\n      dup1\n      iszero\n      tag_26\n      jumpi\n      0x00\n      dup1\n      revert\n    tag_26:\n      pop\n      tag_27\n      tag_28\n      jump\t// in\n    tag_27:\n      mload(0x40)\n      tag_29\n      swap8\n      swap7\n      swap6\n      swap5\n      swap4\n      swap3\n      swap2\n      swap1\n      tag_30\n      jump\t// in\n    tag_29:\n      mload(0x40)\n      dup1\n      swap2\n      sub\n      swap1\n      return\n        /* \"Campaigns.sol\":10343:10365  address public manager */\n    tag_5:\n      callvalue\n      dup1\n      iszero\n      tag_31\n      jumpi\n      0x00\n      dup1\n      revert\n    tag_31:\n      pop\n      tag_32\n      tag_33\n      jump\t// in\n    tag_32:\n      mload(0x40)\n      tag_34\n      swap2\n      swap1\n      tag_20\n      jump\t// in\n    tag_34:\n      mload(0x40)\n      dup1\n      swap2\n      sub\n      swap1\n      return\n        /* \"Campaigns.sol\":10511:10537  string public CampaignName */\n    tag_6:\n      callvalue\n      dup1\n      iszero\n      tag_35\n      jumpi\n      0x00\n      dup1\n      revert\n    tag_35:\n      pop\n      tag_36\n      tag_37\n      jump\t// in\n    tag_36:\n      mload(0x40)\n      tag_38\n      swap2\n      swap1\n      tag_39\n      jump\t// in\n    tag_38:\n      mload(0x40)\n      dup1\n      swap2\n      sub\n      swap1\n      return\n        /* \"Campaigns.sol\":10543:10576  string public CampaignDescription */\n    tag_7:\n      callvalue\n      dup1\n      iszero\n      tag_40\n      jumpi\n      0x00\n      dup1\n      revert\n    tag_40:\n      pop\n      tag_41\n      tag_42\n      jump\t// in\n    tag_41:\n      mload(0x40)\n      tag_43\n      swap2\n      swap1\n      tag_39\n      jump\t// in\n    tag_43:\n      mload(0x40)\n      dup1\n      swap2\n      sub\n      swap1\n      return\n        /* \"Campaigns.sol\":10371:10405  uint256 public minimunContribution */\n    tag_8:\n      callvalue\n      dup1\n      iszero\n      tag_44\n      jumpi\n      0x00\n      dup1\n      revert\n    tag_44:\n      pop\n      tag_45\n      tag_46\n      jump\t// in\n    tag_45:\n      mload(0x40)\n      tag_47\n      swap2\n      swap1\n      tag_48\n      jump\t// in\n    tag_47:\n      mload(0x40)\n      dup1\n      swap2\n      sub\n      swap1\n      return\n        /* \"Campaigns.sol\":10582:10604  string public imageUrl */\n    tag_9:\n      callvalue\n      dup1\n      iszero\n      tag_49\n      jumpi\n      0x00\n      dup1\n      revert\n    tag_49:\n      pop\n      tag_50\n      tag_51\n      jump\t// in\n    tag_50:\n      mload(0x40)\n      tag_52\n      swap2\n      swap1\n      tag_39\n      jump\t// in\n    tag_52:\n      mload(0x40)\n      dup1\n      swap2\n      sub\n      swap1\n      return\n        /* \"Campaigns.sol\":10638:10668  uint256 public targetToAchieve */\n    tag_10:\n      callvalue\n      dup1\n      iszero\n      tag_53\n      jumpi\n      0x00\n      dup1\n      revert\n    tag_53:\n      pop\n      tag_54\n      tag_55\n      jump\t// in\n    tag_54:\n      mload(0x40)\n      tag_56\n      swap2\n      swap1\n      tag_48\n      jump\t// in\n    tag_56:\n      mload(0x40)\n      dup1\n      swap2\n      sub\n      swap1\n      return\n        /* \"Campaigns.sol\":10610:10632  uint256 public balance */\n    tag_11:\n      callvalue\n      dup1\n      iszero\n      tag_57\n      jumpi\n      0x00\n      dup1\n      revert\n    tag_57:\n      pop\n      tag_58\n      tag_59\n      jump\t// in\n    tag_58:\n      mload(0x40)\n      tag_60\n      swap2\n      swap1\n      tag_48\n      jump\t// in\n    tag_60:\n      mload(0x40)\n      dup1\n      swap2\n      sub\n      swap1\n      return\n        /* \"Campaigns.sol\":11287:11522  function contribute() public payable onlyFundContributor {... */\n    tag_12:\n      tag_61\n      tag_62\n      jump\t// in\n    tag_61:\n      stop\n        /* \"Campaigns.sol\":10674:10703  address[] public contributers */\n    tag_18:\n      0x09\n      dup2\n      dup2\n      sload\n      dup2\n      lt\n      tag_63\n      jumpi\n      0x00\n      dup1\n      revert\n    tag_63:\n      swap1\n      0x00\n      mstore\n      keccak256(0x00, 0x20)\n      add\n      0x00\n      swap2\n      pop\n      sload\n      swap1\n      0x0100\n      exp\n      swap1\n      div\n      0xffffffffffffffffffffffffffffffffffffffff\n      and\n      dup2\n      jump\t// out\n        /* \"Campaigns.sol\":10476:10505  Campaign_Status public status */\n    tag_23:\n      0x03\n      0x00\n      swap1\n      sload\n      swap1\n      0x0100\n      exp\n      swap1\n      div\n      0xff\n      and\n      dup2\n      jump\t// out\n        /* \"Campaigns.sol\":12075:12519  function getSummary()... */\n    tag_28:\n        /* \"Campaigns.sol\":12143:12150  uint256 */\n      0x00\n        /* \"Campaigns.sol\":12160:12167  uint256 */\n      dup1\n        /* \"Campaigns.sol\":12177:12184  address */\n      0x00\n        /* \"Campaigns.sol\":12194:12207  string memory */\n      0x60\n        /* \"Campaigns.sol\":12217:12230  string memory */\n      dup1\n        /* \"Campaigns.sol\":12240:12253  string memory */\n      0x60\n        /* \"Campaigns.sol\":12263:12270  uint256 */\n      0x00\n        /* \"Campaigns.sol\":12317:12336  minimunContribution */\n      sload(0x02)\n        /* \"Campaigns.sol\":12350:12371  address(this).balance */\n      selfbalance\n        /* \"Campaigns.sol\":12385:12392  manager */\n      0x01\n      0x00\n      swap1\n      sload\n      swap1\n      0x0100\n      exp\n      swap1\n      div\n      0xffffffffffffffffffffffffffffffffffffffff\n      and\n        /* \"Campaigns.sol\":12406:12418  CampaignName */\n      0x04\n        /* \"Campaigns.sol\":12432:12451  CampaignDescription */\n      0x05\n        /* \"Campaigns.sol\":12465:12473  imageUrl */\n      0x06\n        /* \"Campaigns.sol\":12487:12502  targetToAchieve */\n      sload(0x08)\n        /* \"Campaigns.sol\":12296:12512  return (... */\n      dup4\n      dup1\n      sload\n      tag_66\n      swap1\n      tag_67\n      jump\t// in\n    tag_66:\n      dup1\n      0x1f\n      add\n      0x20\n      dup1\n      swap2\n      div\n      mul\n      0x20\n      add\n      mload(0x40)\n      swap1\n      dup2\n      add\n      0x40\n      mstore\n      dup1\n      swap3\n      swap2\n      swap1\n      dup2\n      dup2\n      mstore\n      0x20\n      add\n      dup3\n      dup1\n      sload\n      tag_68\n      swap1\n      tag_67\n      jump\t// in\n    tag_68:\n      dup1\n      iszero\n      tag_69\n      jumpi\n      dup1\n      0x1f\n      lt\n      tag_70\n      jumpi\n      0x0100\n      dup1\n      dup4\n      sload\n      div\n      mul\n      dup4\n      mstore\n      swap2\n      0x20\n      add\n      swap2\n      jump(tag_69)\n    tag_70:\n      dup3\n      add\n      swap2\n      swap1\n      0x00\n      mstore\n      keccak256(0x00, 0x20)\n      swap1\n    tag_71:\n      dup2\n      sload\n      dup2\n      mstore\n      swap1\n      0x01\n      add\n      swap1\n      0x20\n      add\n      dup1\n      dup4\n      gt\n      tag_71\n      jumpi\n      dup3\n      swap1\n      sub\n      0x1f\n      and\n      dup3\n      add\n      swap2\n    tag_69:\n      pop\n      pop\n      pop\n      pop\n      pop\n      swap4\n      pop\n      dup3\n      dup1\n      sload\n      tag_72\n      swap1\n      tag_67\n      jump\t// in\n    tag_72:\n      dup1\n      0x1f\n      add\n      0x20\n      dup1\n      swap2\n      div\n      mul\n      0x20\n      add\n      mload(0x40)\n      swap1\n      dup2\n      add\n      0x40\n      mstore\n      dup1\n      swap3\n      swap2\n      swap1\n      dup2\n      dup2\n      mstore\n      0x20\n      add\n      dup3\n      dup1\n      sload\n      tag_73\n      swap1\n      tag_67\n      jump\t// in\n    tag_73:\n      dup1\n      iszero\n      tag_74\n      jumpi\n      dup1\n      0x1f\n      lt\n      tag_75\n      jumpi\n      0x0100\n      dup1\n      dup4\n      sload\n      div\n      mul\n      dup4\n      mstore\n      swap2\n      0x20\n      add\n      swap2\n      jump(tag_74)\n    tag_75:\n      dup3\n      add\n      swap2\n      swap1\n      0x00\n      mstore\n      keccak256(0x00, 0x20)\n      swap1\n    tag_76:\n      dup2\n      sload\n      dup2\n      mstore\n      swap1\n      0x01\n      add\n      swap1\n      0x20\n      add\n      dup1\n      dup4\n      gt\n      tag_76\n      jumpi\n      dup3\n      swap1\n      sub\n      0x1f\n      and\n      dup3\n      add\n      swap2\n    tag_74:\n      pop\n      pop\n      pop\n      pop\n      pop\n      swap3\n      pop\n      dup2\n      dup1\n      sload\n      tag_77\n      swap1\n      tag_67\n      jump\t// in\n    tag_77:\n      dup1\n      0x1f\n      add\n      0x20\n      dup1\n      swap2\n      div\n      mul\n      0x20\n      add\n      mload(0x40)\n      swap1\n      dup2\n      add\n      0x40\n      mstore\n      dup1\n      swap3\n      swap2\n      swap1\n      dup2\n      dup2\n      mstore\n      0x20\n      add\n      dup3\n      dup1\n      sload\n      tag_78\n      swap1\n      tag_67\n      jump\t// in\n    tag_78:\n      dup1\n      iszero\n      tag_79\n      jumpi\n      dup1\n      0x1f\n      lt\n      tag_80\n      jumpi\n      0x0100\n      dup1\n      dup4\n      sload\n      div\n      mul\n      dup4\n      mstore\n      swap2\n      0x20\n      add\n      swap2\n      jump(tag_79)\n    tag_80:\n      dup3\n      add\n      swap2\n      swap1\n      0x00\n      mstore\n      keccak256(0x00, 0x20)\n      swap1\n    tag_81:\n      dup2\n      sload\n      dup2\n      mstore\n      swap1\n      0x01\n      add\n      swap1\n      0x20\n      add\n      dup1\n      dup4\n      gt\n      tag_81\n      jumpi\n      dup3\n      swap1\n      sub\n      0x1f\n      and\n      dup3\n      add\n      swap2\n    tag_79:\n      pop\n      pop\n      pop\n      pop\n      pop\n      swap2\n      pop\n      swap7\n      pop\n      swap7\n      pop\n      swap7\n      pop\n      swap7\n      pop\n      swap7\n      pop\n      swap7\n      pop\n      swap7\n      pop\n        /* \"Campaigns.sol\":12075:12519  function getSummary()... */\n      swap1\n      swap2\n      swap3\n      swap4\n      swap5\n      swap6\n      swap7\n      jump\t// out\n        /* \"Campaigns.sol\":10343:10365  address public manager */\n    tag_33:\n      0x01\n      0x00\n      swap1\n      sload\n      swap1\n      0x0100\n      exp\n      swap1\n      div\n      0xffffffffffffffffffffffffffffffffffffffff\n      and\n      dup2\n      jump\t// out\n        /* \"Campaigns.sol\":10511:10537  string public CampaignName */\n    tag_37:\n      0x04\n      dup1\n      sload\n      tag_82\n      swap1\n      tag_67\n      jump\t// in\n    tag_82:\n      dup1\n      0x1f\n      add\n      0x20\n      dup1\n      swap2\n      div\n      mul\n      0x20\n      add\n      mload(0x40)\n      swap1\n      dup2\n      add\n      0x40\n      mstore\n      dup1\n      swap3\n      swap2\n      swap1\n      dup2\n      dup2\n      mstore\n      0x20\n      add\n      dup3\n      dup1\n      sload\n      tag_83\n      swap1\n      tag_67\n      jump\t// in\n    tag_83:\n      dup1\n      iszero\n      tag_84\n      jumpi\n      dup1\n      0x1f\n      lt\n      tag_85\n      jumpi\n      0x0100\n      dup1\n      dup4\n      sload\n      div\n      mul\n      dup4\n      mstore\n      swap2\n      0x20\n      add\n      swap2\n      jump(tag_84)\n    tag_85:\n      dup3\n      add\n      swap2\n      swap1\n      0x00\n      mstore\n      keccak256(0x00, 0x20)\n      swap1\n    tag_86:\n      dup2\n      sload\n      dup2\n      mstore\n      swap1\n      0x01\n      add\n      swap1\n      0x20\n      add\n      dup1\n      dup4\n      gt\n      tag_86\n      jumpi\n      dup3\n      swap1\n      sub\n      0x1f\n      and\n      dup3\n      add\n      swap2\n    tag_84:\n      pop\n      pop\n      pop\n      pop\n      pop\n      dup2\n      jump\t// out\n        /* \"Campaigns.sol\":10543:10576  string public CampaignDescription */\n    tag_42:\n      0x05\n      dup1\n      sload\n      tag_87\n      swap1\n      tag_67\n      jump\t// in\n    tag_87:\n      dup1\n      0x1f\n      add\n      0x20\n      dup1\n      swap2\n      div\n      mul\n      0x20\n      add\n      mload(0x40)\n      swap1\n      dup2\n      add\n      0x40\n      mstore\n      dup1\n      swap3\n      swap2\n      swap1\n      dup2\n      dup2\n      mstore\n      0x20\n      add\n      dup3\n      dup1\n      sload\n      tag_88\n      swap1\n      tag_67\n      jump\t// in\n    tag_88:\n      dup1\n      iszero\n      tag_89\n      jumpi\n      dup1\n      0x1f\n      lt\n      tag_90\n      jumpi\n      0x0100\n      dup1\n      dup4\n      sload\n      div\n      mul\n      dup4\n      mstore\n      swap2\n      0x20\n      add\n      swap2\n      jump(tag_89)\n    tag_90:\n      dup3\n      add\n      swap2\n      swap1\n      0x00\n      mstore\n      keccak256(0x00, 0x20)\n      swap1\n    tag_91:\n      dup2\n      sload\n      dup2\n      mstore\n      swap1\n      0x01\n      add\n      swap1\n      0x20\n      add\n      dup1\n      dup4\n      gt\n      tag_91\n      jumpi\n      dup3\n      swap1\n      sub\n      0x1f\n      and\n      dup3\n      add\n      swap2\n    tag_89:\n      pop\n      pop\n      pop\n      pop\n      pop\n      dup2\n      jump\t// out\n        /* \"Campaigns.sol\":10371:10405  uint256 public minimunContribution */\n    tag_46:\n      sload(0x02)\n      dup2\n      jump\t// out\n        /* \"Campaigns.sol\":10582:10604  string public imageUrl */\n    tag_51:\n      0x06\n      dup1\n      sload\n      tag_92\n      swap1\n      tag_67\n      jump\t// in\n    tag_92:\n      dup1\n      0x1f\n      add\n      0x20\n      dup1\n      swap2\n      div\n      mul\n      0x20\n      add\n      mload(0x40)\n      swap1\n      dup2\n      add\n      0x40\n      mstore\n      dup1\n      swap3\n      swap2\n      swap1\n      dup2\n      dup2\n      mstore\n      0x20\n      add\n      dup3\n      dup1\n      sload\n      tag_93\n      swap1\n      tag_67\n      jump\t// in\n    tag_93:\n      dup1\n      iszero\n      tag_94\n      jumpi\n      dup1\n      0x1f\n      lt\n      tag_95\n      jumpi\n      0x0100\n      dup1\n      dup4\n      sload\n      div\n      mul\n      dup4\n      mstore\n      swap2\n      0x20\n      add\n      swap2\n      jump(tag_94)\n    tag_95:\n      dup3\n      add\n      swap2\n      swap1\n      0x00\n      mstore\n      keccak256(0x00, 0x20)\n      swap1\n    tag_96:\n      dup2\n      sload\n      dup2\n      mstore\n      swap1\n      0x01\n      add\n      swap1\n      0x20\n      add\n      dup1\n      dup4\n      gt\n      tag_96\n      jumpi\n      dup3\n      swap1\n      sub\n      0x1f\n      and\n      dup3\n      add\n      swap2\n    tag_94:\n      pop\n      pop\n      pop\n      pop\n      pop\n      dup2\n      jump\t// out\n        /* \"Campaigns.sol\":10638:10668  uint256 public targetToAchieve */\n    tag_55:\n      sload(0x08)\n      dup2\n      jump\t// out\n        /* \"Campaigns.sol\":10610:10632  uint256 public balance */\n    tag_59:\n      sload(0x07)\n      dup2\n      jump\t// out\n        /* \"Campaigns.sol\":11287:11522  function contribute() public payable onlyFundContributor {... */\n    tag_62:\n        /* \"Campaigns.sol\":10269:10278  whitelist */\n      0x00\n      dup1\n      sload\n      swap1\n      0x0100\n      exp\n      swap1\n      div\n      0xffffffffffffffffffffffffffffffffffffffff\n      and\n        /* \"Campaigns.sol\":10269:10286  whitelist.hasRole */\n      0xffffffffffffffffffffffffffffffffffffffff\n      and\n      0x217fe6c6\n        /* \"Campaigns.sol\":10287:10297  msg.sender */\n      caller\n        /* \"Campaigns.sol\":10269:10318  whitelist.hasRole(msg.sender, \"fund_contributor\") */\n      mload(0x40)\n      dup3\n      0xffffffff\n      and\n      0xe0\n      shl\n      dup2\n      mstore\n      0x04\n      add\n      tag_98\n      swap2\n      swap1\n      tag_99\n      jump\t// in\n    tag_98:\n      0x20\n      mload(0x40)\n      dup1\n      dup4\n      sub\n      dup2\n      dup7\n      gas\n      staticcall\n      iszero\n      dup1\n      iszero\n      tag_101\n      jumpi\n      returndatasize\n      0x00\n      dup1\n      returndatacopy\n      revert(0x00, returndatasize)\n    tag_101:\n      pop\n      pop\n      pop\n      pop\n      mload(0x40)\n      returndatasize\n      not(0x1f)\n      0x1f\n      dup3\n      add\n      and\n      dup3\n      add\n      dup1\n      0x40\n      mstore\n      pop\n      dup2\n      add\n      swap1\n      tag_102\n      swap2\n      swap1\n      tag_103\n      jump\t// in\n    tag_102:\n        /* \"Campaigns.sol\":10261:10319  require(whitelist.hasRole(msg.sender, \"fund_contributor\")) */\n      tag_104\n      jumpi\n      0x00\n      dup1\n      revert\n    tag_104:\n        /* \"Campaigns.sol\":11374:11393  minimunContribution */\n      sload(0x02)\n        /* \"Campaigns.sol\":11362:11371  msg.value */\n      callvalue\n        /* \"Campaigns.sol\":11362:11393  msg.value > minimunContribution */\n      gt\n        /* \"Campaigns.sol\":11354:11394  require(msg.value > minimunContribution) */\n      tag_106\n      jumpi\n      0x00\n      dup1\n      revert\n    tag_106:\n        /* \"Campaigns.sol\":11451:11466  targetToAchieve */\n      sload(0x08)\n        /* \"Campaigns.sol\":11437:11446  msg.value */\n      callvalue\n        /* \"Campaigns.sol\":11413:11434  address(this).balance */\n      selfbalance\n        /* \"Campaigns.sol\":11413:11446  address(this).balance + msg.value */\n      tag_107\n      swap2\n      swap1\n      tag_108\n      jump\t// in\n    tag_107:\n        /* \"Campaigns.sol\":11412:11466  (address(this).balance + msg.value) <= targetToAchieve */\n      gt\n      iszero\n        /* \"Campaigns.sol\":11404:11467  require((address(this).balance + msg.value) <= targetToAchieve) */\n      tag_109\n      jumpi\n      0x00\n      dup1\n      revert\n    tag_109:\n        /* \"Campaigns.sol\":11477:11515  payOut(address(this).balance, manager) */\n      tag_110\n        /* \"Campaigns.sol\":11484:11505  address(this).balance */\n      selfbalance\n        /* \"Campaigns.sol\":11507:11514  manager */\n      0x01\n      0x00\n      swap1\n      sload\n      swap1\n      0x0100\n      exp\n      swap1\n      div\n      0xffffffffffffffffffffffffffffffffffffffff\n      and\n        /* \"Campaigns.sol\":11477:11483  payOut */\n      tag_111\n        /* \"Campaigns.sol\":11477:11515  payOut(address(this).balance, manager) */\n      jump\t// in\n    tag_110:\n        /* \"Campaigns.sol\":11287:11522  function contribute() public payable onlyFundContributor {... */\n      jump\t// out\n        /* \"Campaigns.sol\":11587:11828  function payOut(uint256 bal, address addr) internal {... */\n    tag_111:\n        /* \"Campaigns.sol\":11660:11675  targetToAchieve */\n      sload(0x08)\n        /* \"Campaigns.sol\":11653:11656  bal */\n      dup3\n        /* \"Campaigns.sol\":11653:11675  bal == targetToAchieve */\n      sub\n        /* \"Campaigns.sol\":11649:11822  if (bal == targetToAchieve) {... */\n      tag_113\n      jumpi\n        /* \"Campaigns.sol\":11699:11703  addr */\n      dup1\n        /* \"Campaigns.sol\":11691:11713  payable(addr).transfer */\n      0xffffffffffffffffffffffffffffffffffffffff\n      and\n        /* \"Campaigns.sol\":11691:11730  payable(addr).transfer(targetToAchieve) */\n      0x08fc\n        /* \"Campaigns.sol\":11714:11729  targetToAchieve */\n      sload(0x08)\n        /* \"Campaigns.sol\":11691:11730  payable(addr).transfer(targetToAchieve) */\n      swap1\n      dup2\n      iszero\n      mul\n      swap1\n      mload(0x40)\n      0x00\n      mload(0x40)\n      dup1\n      dup4\n      sub\n      dup2\n      dup6\n      dup9\n      dup9\n      call\n      swap4\n      pop\n      pop\n      pop\n      pop\n      iszero\n      dup1\n      iszero\n      tag_115\n      jumpi\n      returndatasize\n      0x00\n      dup1\n      returndatacopy\n      revert(0x00, returndatasize)\n    tag_115:\n      pop\n        /* \"Campaigns.sol\":11749:11766  CreatorPaid(addr) */\n      0x2f256415efc8561af8db667cb242964b19be7380f379ccdafaa0e54a6f6b7069\n        /* \"Campaigns.sol\":11761:11765  addr */\n      dup2\n        /* \"Campaigns.sol\":11749:11766  CreatorPaid(addr) */\n      mload(0x40)\n      tag_116\n      swap2\n      swap1\n      tag_20\n      jump\t// in\n    tag_116:\n      mload(0x40)\n      dup1\n      swap2\n      sub\n      swap1\n      log1\n        /* \"Campaigns.sol\":11789:11811  Campaign_Status.Closed */\n      0x01\n        /* \"Campaigns.sol\":11780:11786  status */\n      0x03\n      0x00\n        /* \"Campaigns.sol\":11780:11811  status = Campaign_Status.Closed */\n      0x0100\n      exp\n      dup2\n      sload\n      dup2\n      0xff\n      mul\n      not\n      and\n      swap1\n      dup4\n      0x01\n      dup2\n      gt\n      iszero\n      tag_117\n      jumpi\n      tag_118\n      tag_119\n      jump\t// in\n    tag_118:\n    tag_117:\n      mul\n      or\n      swap1\n      sstore\n      pop\n        /* \"Campaigns.sol\":11649:11822  if (bal == targetToAchieve) {... */\n    tag_113:\n        /* \"Campaigns.sol\":11587:11828  function payOut(uint256 bal, address addr) internal {... */\n      pop\n      pop\n      jump\t// out\n        /* \"#utility.yul\":88:205   */\n    tag_121:\n        /* \"#utility.yul\":197:198   */\n      0x00\n        /* \"#utility.yul\":194:195   */\n      dup1\n        /* \"#utility.yul\":187:199   */\n      revert\n        /* \"#utility.yul\":334:411   */\n    tag_123:\n        /* \"#utility.yul\":371:378   */\n      0x00\n        /* \"#utility.yul\":400:405   */\n      dup2\n        /* \"#utility.yul\":389:405   */\n      swap1\n      pop\n        /* \"#utility.yul\":334:411   */\n      swap2\n      swap1\n      pop\n      jump\t// out\n        /* \"#utility.yul\":417:539   */\n    tag_124:\n        /* \"#utility.yul\":490:514   */\n      tag_152\n        /* \"#utility.yul\":508:513   */\n      dup2\n        /* \"#utility.yul\":490:514   */\n      tag_123\n      jump\t// in\n    tag_152:\n        /* \"#utility.yul\":483:488   */\n      dup2\n        /* \"#utility.yul\":480:515   */\n      eq\n        /* \"#utility.yul\":470:533   */\n      tag_153\n      jumpi\n        /* \"#utility.yul\":529:530   */\n      0x00\n        /* \"#utility.yul\":526:527   */\n      dup1\n        /* \"#utility.yul\":519:531   */\n      revert\n        /* \"#utility.yul\":470:533   */\n    tag_153:\n        /* \"#utility.yul\":417:539   */\n      pop\n      jump\t// out\n        /* \"#utility.yul\":545:684   */\n    tag_125:\n        /* \"#utility.yul\":591:596   */\n      0x00\n        /* \"#utility.yul\":629:635   */\n      dup2\n        /* \"#utility.yul\":616:636   */\n      calldataload\n        /* \"#utility.yul\":607:636   */\n      swap1\n      pop\n        /* \"#utility.yul\":645:678   */\n      tag_155\n        /* \"#utility.yul\":672:677   */\n      dup2\n        /* \"#utility.yul\":645:678   */\n      tag_124\n      jump\t// in\n    tag_155:\n        /* \"#utility.yul\":545:684   */\n      swap3\n      swap2\n      pop\n      pop\n      jump\t// out\n        /* \"#utility.yul\":690:1019   */\n    tag_17:\n        /* \"#utility.yul\":749:755   */\n      0x00\n        /* \"#utility.yul\":798:800   */\n      0x20\n        /* \"#utility.yul\":786:795   */\n      dup3\n        /* \"#utility.yul\":777:784   */\n      dup5\n        /* \"#utility.yul\":773:796   */\n      sub\n        /* \"#utility.yul\":769:801   */\n      slt\n        /* \"#utility.yul\":766:885   */\n      iszero\n      tag_157\n      jumpi\n        /* \"#utility.yul\":804:883   */\n      tag_158\n      tag_121\n      jump\t// in\n    tag_158:\n        /* \"#utility.yul\":766:885   */\n    tag_157:\n        /* \"#utility.yul\":924:925   */\n      0x00\n        /* \"#utility.yul\":949:1002   */\n      tag_159\n        /* \"#utility.yul\":994:1001   */\n      dup5\n        /* \"#utility.yul\":985:991   */\n      dup3\n        /* \"#utility.yul\":974:983   */\n      dup6\n        /* \"#utility.yul\":970:992   */\n      add\n        /* \"#utility.yul\":949:1002   */\n      tag_125\n      jump\t// in\n    tag_159:\n        /* \"#utility.yul\":939:1002   */\n      swap2\n      pop\n        /* \"#utility.yul\":895:1012   */\n      pop\n        /* \"#utility.yul\":690:1019   */\n      swap3\n      swap2\n      pop\n      pop\n      jump\t// out\n        /* \"#utility.yul\":1025:1151   */\n    tag_126:\n        /* \"#utility.yul\":1062:1069   */\n      0x00\n        /* \"#utility.yul\":1102:1144   */\n      0xffffffffffffffffffffffffffffffffffffffff\n        /* \"#utility.yul\":1095:1100   */\n      dup3\n        /* \"#utility.yul\":1091:1145   */\n      and\n        /* \"#utility.yul\":1080:1145   */\n      swap1\n      pop\n        /* \"#utility.yul\":1025:1151   */\n      swap2\n      swap1\n      pop\n      jump\t// out\n        /* \"#utility.yul\":1157:1253   */\n    tag_127:\n        /* \"#utility.yul\":1194:1201   */\n      0x00\n        /* \"#utility.yul\":1223:1247   */\n      tag_162\n        /* \"#utility.yul\":1241:1246   */\n      dup3\n        /* \"#utility.yul\":1223:1247   */\n      tag_126\n      jump\t// in\n    tag_162:\n        /* \"#utility.yul\":1212:1247   */\n      swap1\n      pop\n        /* \"#utility.yul\":1157:1253   */\n      swap2\n      swap1\n      pop\n      jump\t// out\n        /* \"#utility.yul\":1259:1377   */\n    tag_128:\n        /* \"#utility.yul\":1346:1370   */\n      tag_164\n        /* \"#utility.yul\":1364:1369   */\n      dup2\n        /* \"#utility.yul\":1346:1370   */\n      tag_127\n      jump\t// in\n    tag_164:\n        /* \"#utility.yul\":1341:1344   */\n      dup3\n        /* \"#utility.yul\":1334:1371   */\n      mstore\n        /* \"#utility.yul\":1259:1377   */\n      pop\n      pop\n      jump\t// out\n        /* \"#utility.yul\":1383:1605   */\n    tag_20:\n        /* \"#utility.yul\":1476:1480   */\n      0x00\n        /* \"#utility.yul\":1514:1516   */\n      0x20\n        /* \"#utility.yul\":1503:1512   */\n      dup3\n        /* \"#utility.yul\":1499:1517   */\n      add\n        /* \"#utility.yul\":1491:1517   */\n      swap1\n      pop\n        /* \"#utility.yul\":1527:1598   */\n      tag_166\n        /* \"#utility.yul\":1595:1596   */\n      0x00\n        /* \"#utility.yul\":1584:1593   */\n      dup4\n        /* \"#utility.yul\":1580:1597   */\n      add\n        /* \"#utility.yul\":1571:1577   */\n      dup5\n        /* \"#utility.yul\":1527:1598   */\n      tag_128\n      jump\t// in\n    tag_166:\n        /* \"#utility.yul\":1383:1605   */\n      swap3\n      swap2\n      pop\n      pop\n      jump\t// out\n        /* \"#utility.yul\":1611:1791   */\n    tag_119:\n        /* \"#utility.yul\":1659:1736   */\n      0x4e487b7100000000000000000000000000000000000000000000000000000000\n        /* \"#utility.yul\":1656:1657   */\n      0x00\n        /* \"#utility.yul\":1649:1737   */\n      mstore\n        /* \"#utility.yul\":1756:1760   */\n      0x21\n        /* \"#utility.yul\":1753:1754   */\n      0x04\n        /* \"#utility.yul\":1746:1761   */\n      mstore\n        /* \"#utility.yul\":1780:1784   */\n      0x24\n        /* \"#utility.yul\":1777:1778   */\n      0x00\n        /* \"#utility.yul\":1770:1785   */\n      revert\n        /* \"#utility.yul\":1797:1921   */\n    tag_129:\n        /* \"#utility.yul\":1889:1890   */\n      0x02\n        /* \"#utility.yul\":1882:1887   */\n      dup2\n        /* \"#utility.yul\":1879:1891   */\n      lt\n        /* \"#utility.yul\":1869:1915   */\n      tag_169\n      jumpi\n        /* \"#utility.yul\":1895:1913   */\n      tag_170\n      tag_119\n      jump\t// in\n    tag_170:\n        /* \"#utility.yul\":1869:1915   */\n    tag_169:\n        /* \"#utility.yul\":1797:1921   */\n      pop\n      jump\t// out\n        /* \"#utility.yul\":1927:2076   */\n    tag_130:\n        /* \"#utility.yul\":1983:1990   */\n      0x00\n        /* \"#utility.yul\":2012:2017   */\n      dup2\n        /* \"#utility.yul\":2001:2017   */\n      swap1\n      pop\n        /* \"#utility.yul\":2018:2070   */\n      tag_172\n        /* \"#utility.yul\":2064:2069   */\n      dup3\n        /* \"#utility.yul\":2018:2070   */\n      tag_129\n      jump\t// in\n    tag_172:\n        /* \"#utility.yul\":1927:2076   */\n      swap2\n      swap1\n      pop\n      jump\t// out\n        /* \"#utility.yul\":2082:2231   */\n    tag_131:\n        /* \"#utility.yul\":2149:2158   */\n      0x00\n        /* \"#utility.yul\":2182:2225   */\n      tag_174\n        /* \"#utility.yul\":2219:2224   */\n      dup3\n        /* \"#utility.yul\":2182:2225   */\n      tag_130\n      jump\t// in\n    tag_174:\n        /* \"#utility.yul\":2169:2225   */\n      swap1\n      pop\n        /* \"#utility.yul\":2082:2231   */\n      swap2\n      swap1\n      pop\n      jump\t// out\n        /* \"#utility.yul\":2237:2402   */\n    tag_132:\n        /* \"#utility.yul\":2341:2395   */\n      tag_176\n        /* \"#utility.yul\":2389:2394   */\n      dup2\n        /* \"#utility.yul\":2341:2395   */\n      tag_131\n      jump\t// in\n    tag_176:\n        /* \"#utility.yul\":2336:2339   */\n      dup3\n        /* \"#utility.yul\":2329:2396   */\n      mstore\n        /* \"#utility.yul\":2237:2402   */\n      pop\n      pop\n      jump\t// out\n        /* \"#utility.yul\":2408:2664   */\n    tag_25:\n        /* \"#utility.yul\":2518:2522   */\n      0x00\n        /* \"#utility.yul\":2556:2558   */\n      0x20\n        /* \"#utility.yul\":2545:2554   */\n      dup3\n        /* \"#utility.yul\":2541:2559   */\n      add\n        /* \"#utility.yul\":2533:2559   */\n      swap1\n      pop\n        /* \"#utility.yul\":2569:2657   */\n      tag_178\n        /* \"#utility.yul\":2654:2655   */\n      0x00\n        /* \"#utility.yul\":2643:2652   */\n      dup4\n        /* \"#utility.yul\":2639:2656   */\n      add\n        /* \"#utility.yul\":2630:2636   */\n      dup5\n        /* \"#utility.yul\":2569:2657   */\n      tag_132\n      jump\t// in\n    tag_178:\n        /* \"#utility.yul\":2408:2664   */\n      swap3\n      swap2\n      pop\n      pop\n      jump\t// out\n        /* \"#utility.yul\":2670:2788   */\n    tag_133:\n        /* \"#utility.yul\":2757:2781   */\n      tag_180\n        /* \"#utility.yul\":2775:2780   */\n      dup2\n        /* \"#utility.yul\":2757:2781   */\n      tag_123\n      jump\t// in\n    tag_180:\n        /* \"#utility.yul\":2752:2755   */\n      dup3\n        /* \"#utility.yul\":2745:2782   */\n      mstore\n        /* \"#utility.yul\":2670:2788   */\n      pop\n      pop\n      jump\t// out\n        /* \"#utility.yul\":2794:2893   */\n    tag_134:\n        /* \"#utility.yul\":2846:2852   */\n      0x00\n        /* \"#utility.yul\":2880:2885   */\n      dup2\n        /* \"#utility.yul\":2874:2886   */\n      mload\n        /* \"#utility.yul\":2864:2886   */\n      swap1\n      pop\n        /* \"#utility.yul\":2794:2893   */\n      swap2\n      swap1\n      pop\n      jump\t// out\n        /* \"#utility.yul\":2899:3068   */\n    tag_135:\n        /* \"#utility.yul\":2983:2994   */\n      0x00\n        /* \"#utility.yul\":3017:3023   */\n      dup3\n        /* \"#utility.yul\":3012:3015   */\n      dup3\n        /* \"#utility.yul\":3005:3024   */\n      mstore\n        /* \"#utility.yul\":3057:3061   */\n      0x20\n        /* \"#utility.yul\":3052:3055   */\n      dup3\n        /* \"#utility.yul\":3048:3062   */\n      add\n        /* \"#utility.yul\":3033:3062   */\n      swap1\n      pop\n        /* \"#utility.yul\":2899:3068   */\n      swap3\n      swap2\n      pop\n      pop\n      jump\t// out\n        /* \"#utility.yul\":3074:3381   */\n    tag_136:\n        /* \"#utility.yul\":3142:3143   */\n      0x00\n        /* \"#utility.yul\":3152:3265   */\n    tag_184:\n        /* \"#utility.yul\":3166:3172   */\n      dup4\n        /* \"#utility.yul\":3163:3164   */\n      dup2\n        /* \"#utility.yul\":3160:3173   */\n      lt\n        /* \"#utility.yul\":3152:3265   */\n      iszero\n      tag_186\n      jumpi\n        /* \"#utility.yul\":3251:3252   */\n      dup1\n        /* \"#utility.yul\":3246:3249   */\n      dup3\n        /* \"#utility.yul\":3242:3253   */\n      add\n        /* \"#utility.yul\":3236:3254   */\n      mload\n        /* \"#utility.yul\":3232:3233   */\n      dup2\n        /* \"#utility.yul\":3227:3230   */\n      dup5\n        /* \"#utility.yul\":3223:3234   */\n      add\n        /* \"#utility.yul\":3216:3255   */\n      mstore\n        /* \"#utility.yul\":3188:3190   */\n      0x20\n        /* \"#utility.yul\":3185:3186   */\n      dup2\n        /* \"#utility.yul\":3181:3191   */\n      add\n        /* \"#utility.yul\":3176:3191   */\n      swap1\n      pop\n        /* \"#utility.yul\":3152:3265   */\n      jump(tag_184)\n    tag_186:\n        /* \"#utility.yul\":3283:3289   */\n      dup4\n        /* \"#utility.yul\":3280:3281   */\n      dup2\n        /* \"#utility.yul\":3277:3290   */\n      gt\n        /* \"#utility.yul\":3274:3375   */\n      iszero\n      tag_187\n      jumpi\n        /* \"#utility.yul\":3363:3364   */\n      0x00\n        /* \"#utility.yul\":3354:3360   */\n      dup5\n        /* \"#utility.yul\":3349:3352   */\n      dup5\n        /* \"#utility.yul\":3345:3361   */\n      add\n        /* \"#utility.yul\":3338:3365   */\n      mstore\n        /* \"#utility.yul\":3274:3375   */\n    tag_187:\n        /* \"#utility.yul\":3123:3381   */\n      pop\n        /* \"#utility.yul\":3074:3381   */\n      pop\n      pop\n      pop\n      jump\t// out\n        /* \"#utility.yul\":3387:3489   */\n    tag_137:\n        /* \"#utility.yul\":3428:3434   */\n      0x00\n        /* \"#utility.yul\":3479:3481   */\n      0x1f\n        /* \"#utility.yul\":3475:3482   */\n      not\n        /* \"#utility.yul\":3470:3472   */\n      0x1f\n        /* \"#utility.yul\":3463:3468   */\n      dup4\n        /* \"#utility.yul\":3459:3473   */\n      add\n        /* \"#utility.yul\":3455:3483   */\n      and\n        /* \"#utility.yul\":3445:3483   */\n      swap1\n      pop\n        /* \"#utility.yul\":3387:3489   */\n      swap2\n      swap1\n      pop\n      jump\t// out\n        /* \"#utility.yul\":3495:3859   */\n    tag_138:\n        /* \"#utility.yul\":3583:3586   */\n      0x00\n        /* \"#utility.yul\":3611:3650   */\n      tag_190\n        /* \"#utility.yul\":3644:3649   */\n      dup3\n        /* \"#utility.yul\":3611:3650   */\n      tag_134\n      jump\t// in\n    tag_190:\n        /* \"#utility.yul\":3666:3737   */\n      tag_191\n        /* \"#utility.yul\":3730:3736   */\n      dup2\n        /* \"#utility.yul\":3725:3728   */\n      dup6\n        /* \"#utility.yul\":3666:3737   */\n      tag_135\n      jump\t// in\n    tag_191:\n        /* \"#utility.yul\":3659:3737   */\n      swap4\n      pop\n        /* \"#utility.yul\":3746:3798   */\n      tag_192\n        /* \"#utility.yul\":3791:3797   */\n      dup2\n        /* \"#utility.yul\":3786:3789   */\n      dup6\n        /* \"#utility.yul\":3779:3783   */\n      0x20\n        /* \"#utility.yul\":3772:3777   */\n      dup7\n        /* \"#utility.yul\":3768:3784   */\n      add\n        /* \"#utility.yul\":3746:3798   */\n      tag_136\n      jump\t// in\n    tag_192:\n        /* \"#utility.yul\":3823:3852   */\n      tag_193\n        /* \"#utility.yul\":3845:3851   */\n      dup2\n        /* \"#utility.yul\":3823:3852   */\n      tag_137\n      jump\t// in\n    tag_193:\n        /* \"#utility.yul\":3818:3821   */\n      dup5\n        /* \"#utility.yul\":3814:3853   */\n      add\n        /* \"#utility.yul\":3807:3853   */\n      swap2\n      pop\n        /* \"#utility.yul\":3587:3859   */\n      pop\n        /* \"#utility.yul\":3495:3859   */\n      swap3\n      swap2\n      pop\n      pop\n      jump\t// out\n        /* \"#utility.yul\":3865:5024   */\n    tag_30:\n        /* \"#utility.yul\":4186:4190   */\n      0x00\n        /* \"#utility.yul\":4224:4227   */\n      0xe0\n        /* \"#utility.yul\":4213:4222   */\n      dup3\n        /* \"#utility.yul\":4209:4228   */\n      add\n        /* \"#utility.yul\":4201:4228   */\n      swap1\n      pop\n        /* \"#utility.yul\":4238:4309   */\n      tag_195\n        /* \"#utility.yul\":4306:4307   */\n      0x00\n        /* \"#utility.yul\":4295:4304   */\n      dup4\n        /* \"#utility.yul\":4291:4308   */\n      add\n        /* \"#utility.yul\":4282:4288   */\n      dup11\n        /* \"#utility.yul\":4238:4309   */\n      tag_133\n      jump\t// in\n    tag_195:\n        /* \"#utility.yul\":4319:4391   */\n      tag_196\n        /* \"#utility.yul\":4387:4389   */\n      0x20\n        /* \"#utility.yul\":4376:4385   */\n      dup4\n        /* \"#utility.yul\":4372:4390   */\n      add\n        /* \"#utility.yul\":4363:4369   */\n      dup10\n        /* \"#utility.yul\":4319:4391   */\n      tag_133\n      jump\t// in\n    tag_196:\n        /* \"#utility.yul\":4401:4473   */\n      tag_197\n        /* \"#utility.yul\":4469:4471   */\n      0x40\n        /* \"#utility.yul\":4458:4467   */\n      dup4\n        /* \"#utility.yul\":4454:4472   */\n      add\n        /* \"#utility.yul\":4445:4451   */\n      dup9\n        /* \"#utility.yul\":4401:4473   */\n      tag_128\n      jump\t// in\n    tag_197:\n        /* \"#utility.yul\":4520:4529   */\n      dup2\n        /* \"#utility.yul\":4514:4518   */\n      dup2\n        /* \"#utility.yul\":4510:4530   */\n      sub\n        /* \"#utility.yul\":4505:4507   */\n      0x60\n        /* \"#utility.yul\":4494:4503   */\n      dup4\n        /* \"#utility.yul\":4490:4508   */\n      add\n        /* \"#utility.yul\":4483:4531   */\n      mstore\n        /* \"#utility.yul\":4548:4626   */\n      tag_198\n        /* \"#utility.yul\":4621:4625   */\n      dup2\n        /* \"#utility.yul\":4612:4618   */\n      dup8\n        /* \"#utility.yul\":4548:4626   */\n      tag_138\n      jump\t// in\n    tag_198:\n        /* \"#utility.yul\":4540:4626   */\n      swap1\n      pop\n        /* \"#utility.yul\":4674:4683   */\n      dup2\n        /* \"#utility.yul\":4668:4672   */\n      dup2\n        /* \"#utility.yul\":4664:4684   */\n      sub\n        /* \"#utility.yul\":4658:4661   */\n      0x80\n        /* \"#utility.yul\":4647:4656   */\n      dup4\n        /* \"#utility.yul\":4643:4662   */\n      add\n        /* \"#utility.yul\":4636:4685   */\n      mstore\n        /* \"#utility.yul\":4702:4780   */\n      tag_199\n        /* \"#utility.yul\":4775:4779   */\n      dup2\n        /* \"#utility.yul\":4766:4772   */\n      dup7\n        /* \"#utility.yul\":4702:4780   */\n      tag_138\n      jump\t// in\n    tag_199:\n        /* \"#utility.yul\":4694:4780   */\n      swap1\n      pop\n        /* \"#utility.yul\":4828:4837   */\n      dup2\n        /* \"#utility.yul\":4822:4826   */\n      dup2\n        /* \"#utility.yul\":4818:4838   */\n      sub\n        /* \"#utility.yul\":4812:4815   */\n      0xa0\n        /* \"#utility.yul\":4801:4810   */\n      dup4\n        /* \"#utility.yul\":4797:4816   */\n      add\n        /* \"#utility.yul\":4790:4839   */\n      mstore\n        /* \"#utility.yul\":4856:4934   */\n      tag_200\n        /* \"#utility.yul\":4929:4933   */\n      dup2\n        /* \"#utility.yul\":4920:4926   */\n      dup6\n        /* \"#utility.yul\":4856:4934   */\n      tag_138\n      jump\t// in\n    tag_200:\n        /* \"#utility.yul\":4848:4934   */\n      swap1\n      pop\n        /* \"#utility.yul\":4944:5017   */\n      tag_201\n        /* \"#utility.yul\":5012:5015   */\n      0xc0\n        /* \"#utility.yul\":5001:5010   */\n      dup4\n        /* \"#utility.yul\":4997:5016   */\n      add\n        /* \"#utility.yul\":4988:4994   */\n      dup5\n        /* \"#utility.yul\":4944:5017   */\n      tag_133\n      jump\t// in\n    tag_201:\n        /* \"#utility.yul\":3865:5024   */\n      swap9\n      swap8\n      pop\n      pop\n      pop\n      pop\n      pop\n      pop\n      pop\n      pop\n      jump\t// out\n        /* \"#utility.yul\":5030:5343   */\n    tag_39:\n        /* \"#utility.yul\":5143:5147   */\n      0x00\n        /* \"#utility.yul\":5181:5183   */\n      0x20\n        /* \"#utility.yul\":5170:5179   */\n      dup3\n        /* \"#utility.yul\":5166:5184   */\n      add\n        /* \"#utility.yul\":5158:5184   */\n      swap1\n      pop\n        /* \"#utility.yul\":5230:5239   */\n      dup2\n        /* \"#utility.yul\":5224:5228   */\n      dup2\n        /* \"#utility.yul\":5220:5240   */\n      sub\n        /* \"#utility.yul\":5216:5217   */\n      0x00\n        /* \"#utility.yul\":5205:5214   */\n      dup4\n        /* \"#utility.yul\":5201:5218   */\n      add\n        /* \"#utility.yul\":5194:5241   */\n      mstore\n        /* \"#utility.yul\":5258:5336   */\n      tag_203\n        /* \"#utility.yul\":5331:5335   */\n      dup2\n        /* \"#utility.yul\":5322:5328   */\n      dup5\n        /* \"#utility.yul\":5258:5336   */\n      tag_138\n      jump\t// in\n    tag_203:\n        /* \"#utility.yul\":5250:5336   */\n      swap1\n      pop\n        /* \"#utility.yul\":5030:5343   */\n      swap3\n      swap2\n      pop\n      pop\n      jump\t// out\n        /* \"#utility.yul\":5349:5571   */\n    tag_48:\n        /* \"#utility.yul\":5442:5446   */\n      0x00\n        /* \"#utility.yul\":5480:5482   */\n      0x20\n        /* \"#utility.yul\":5469:5478   */\n      dup3\n        /* \"#utility.yul\":5465:5483   */\n      add\n        /* \"#utility.yul\":5457:5483   */\n      swap1\n      pop\n        /* \"#utility.yul\":5493:5564   */\n      tag_205\n        /* \"#utility.yul\":5561:5562   */\n      0x00\n        /* \"#utility.yul\":5550:5559   */\n      dup4\n        /* \"#utility.yul\":5546:5563   */\n      add\n        /* \"#utility.yul\":5537:5543   */\n      dup5\n        /* \"#utility.yul\":5493:5564   */\n      tag_133\n      jump\t// in\n    tag_205:\n        /* \"#utility.yul\":5349:5571   */\n      swap3\n      swap2\n      pop\n      pop\n      jump\t// out\n        /* \"#utility.yul\":5577:5757   */\n    tag_139:\n        /* \"#utility.yul\":5625:5702   */\n      0x4e487b7100000000000000000000000000000000000000000000000000000000\n        /* \"#utility.yul\":5622:5623   */\n      0x00\n        /* \"#utility.yul\":5615:5703   */\n      mstore\n        /* \"#utility.yul\":5722:5726   */\n      0x22\n        /* \"#utility.yul\":5719:5720   */\n      0x04\n        /* \"#utility.yul\":5712:5727   */\n      mstore\n        /* \"#utility.yul\":5746:5750   */\n      0x24\n        /* \"#utility.yul\":5743:5744   */\n      0x00\n        /* \"#utility.yul\":5736:5751   */\n      revert\n        /* \"#utility.yul\":5763:6083   */\n    tag_67:\n        /* \"#utility.yul\":5807:5813   */\n      0x00\n        /* \"#utility.yul\":5844:5845   */\n      0x02\n        /* \"#utility.yul\":5838:5842   */\n      dup3\n        /* \"#utility.yul\":5834:5846   */\n      div\n        /* \"#utility.yul\":5824:5846   */\n      swap1\n      pop\n        /* \"#utility.yul\":5891:5892   */\n      0x01\n        /* \"#utility.yul\":5885:5889   */\n      dup3\n        /* \"#utility.yul\":5881:5893   */\n      and\n        /* \"#utility.yul\":5912:5930   */\n      dup1\n        /* \"#utility.yul\":5902:5983   */\n      tag_208\n      jumpi\n        /* \"#utility.yul\":5968:5972   */\n      0x7f\n        /* \"#utility.yul\":5960:5966   */\n      dup3\n        /* \"#utility.yul\":5956:5973   */\n      and\n        /* \"#utility.yul\":5946:5973   */\n      swap2\n      pop\n        /* \"#utility.yul\":5902:5983   */\n    tag_208:\n        /* \"#utility.yul\":6030:6032   */\n      0x20\n        /* \"#utility.yul\":6022:6028   */\n      dup3\n        /* \"#utility.yul\":6019:6033   */\n      lt\n        /* \"#utility.yul\":5999:6017   */\n      dup2\n        /* \"#utility.yul\":5996:6034   */\n      sub\n        /* \"#utility.yul\":5993:6077   */\n      tag_209\n      jumpi\n        /* \"#utility.yul\":6049:6067   */\n      tag_210\n      tag_139\n      jump\t// in\n    tag_210:\n        /* \"#utility.yul\":5993:6077   */\n    tag_209:\n        /* \"#utility.yul\":5814:6083   */\n      pop\n        /* \"#utility.yul\":5763:6083   */\n      swap2\n      swap1\n      pop\n      jump\t// out\n        /* \"#utility.yul\":6089:6255   */\n    tag_140:\n        /* \"#utility.yul\":6229:6247   */\n      0x66756e645f636f6e7472696275746f7200000000000000000000000000000000\n        /* \"#utility.yul\":6225:6226   */\n      0x00\n        /* \"#utility.yul\":6217:6223   */\n      dup3\n        /* \"#utility.yul\":6213:6227   */\n      add\n        /* \"#utility.yul\":6206:6248   */\n      mstore\n        /* \"#utility.yul\":6089:6255   */\n      pop\n      jump\t// out\n        /* \"#utility.yul\":6261:6627   */\n    tag_141:\n        /* \"#utility.yul\":6403:6406   */\n      0x00\n        /* \"#utility.yul\":6424:6491   */\n      tag_213\n        /* \"#utility.yul\":6488:6490   */\n      0x10\n        /* \"#utility.yul\":6483:6486   */\n      dup4\n        /* \"#utility.yul\":6424:6491   */\n      tag_135\n      jump\t// in\n    tag_213:\n        /* \"#utility.yul\":6417:6491   */\n      swap2\n      pop\n        /* \"#utility.yul\":6500:6593   */\n      tag_214\n        /* \"#utility.yul\":6589:6592   */\n      dup3\n        /* \"#utility.yul\":6500:6593   */\n      tag_140\n      jump\t// in\n    tag_214:\n        /* \"#utility.yul\":6618:6620   */\n      0x20\n        /* \"#utility.yul\":6613:6616   */\n      dup3\n        /* \"#utility.yul\":6609:6621   */\n      add\n        /* \"#utility.yul\":6602:6621   */\n      swap1\n      pop\n        /* \"#utility.yul\":6261:6627   */\n      swap2\n      swap1\n      pop\n      jump\t// out\n        /* \"#utility.yul\":6633:7162   */\n    tag_99:\n        /* \"#utility.yul\":6827:6831   */\n      0x00\n        /* \"#utility.yul\":6865:6867   */\n      0x40\n        /* \"#utility.yul\":6854:6863   */\n      dup3\n        /* \"#utility.yul\":6850:6868   */\n      add\n        /* \"#utility.yul\":6842:6868   */\n      swap1\n      pop\n        /* \"#utility.yul\":6878:6949   */\n      tag_216\n        /* \"#utility.yul\":6946:6947   */\n      0x00\n        /* \"#utility.yul\":6935:6944   */\n      dup4\n        /* \"#utility.yul\":6931:6948   */\n      add\n        /* \"#utility.yul\":6922:6928   */\n      dup5\n        /* \"#utility.yul\":6878:6949   */\n      tag_128\n      jump\t// in\n    tag_216:\n        /* \"#utility.yul\":6996:7005   */\n      dup2\n        /* \"#utility.yul\":6990:6994   */\n      dup2\n        /* \"#utility.yul\":6986:7006   */\n      sub\n        /* \"#utility.yul\":6981:6983   */\n      0x20\n        /* \"#utility.yul\":6970:6979   */\n      dup4\n        /* \"#utility.yul\":6966:6984   */\n      add\n        /* \"#utility.yul\":6959:7007   */\n      mstore\n        /* \"#utility.yul\":7024:7155   */\n      tag_217\n        /* \"#utility.yul\":7150:7154   */\n      dup2\n        /* \"#utility.yul\":7024:7155   */\n      tag_141\n      jump\t// in\n    tag_217:\n        /* \"#utility.yul\":7016:7155   */\n      swap1\n      pop\n        /* \"#utility.yul\":6633:7162   */\n      swap3\n      swap2\n      pop\n      pop\n      jump\t// out\n        /* \"#utility.yul\":7168:7258   */\n    tag_142:\n        /* \"#utility.yul\":7202:7209   */\n      0x00\n        /* \"#utility.yul\":7245:7250   */\n      dup2\n        /* \"#utility.yul\":7238:7251   */\n      iszero\n        /* \"#utility.yul\":7231:7252   */\n      iszero\n        /* \"#utility.yul\":7220:7252   */\n      swap1\n      pop\n        /* \"#utility.yul\":7168:7258   */\n      swap2\n      swap1\n      pop\n      jump\t// out\n        /* \"#utility.yul\":7264:7380   */\n    tag_143:\n        /* \"#utility.yul\":7334:7355   */\n      tag_220\n        /* \"#utility.yul\":7349:7354   */\n      dup2\n        /* \"#utility.yul\":7334:7355   */\n      tag_142\n      jump\t// in\n    tag_220:\n        /* \"#utility.yul\":7327:7332   */\n      dup2\n        /* \"#utility.yul\":7324:7356   */\n      eq\n        /* \"#utility.yul\":7314:7374   */\n      tag_221\n      jumpi\n        /* \"#utility.yul\":7370:7371   */\n      0x00\n        /* \"#utility.yul\":7367:7368   */\n      dup1\n        /* \"#utility.yul\":7360:7372   */\n      revert\n        /* \"#utility.yul\":7314:7374   */\n    tag_221:\n        /* \"#utility.yul\":7264:7380   */\n      pop\n      jump\t// out\n        /* \"#utility.yul\":7386:7523   */\n    tag_144:\n        /* \"#utility.yul\":7440:7445   */\n      0x00\n        /* \"#utility.yul\":7471:7477   */\n      dup2\n        /* \"#utility.yul\":7465:7478   */\n      mload\n        /* \"#utility.yul\":7456:7478   */\n      swap1\n      pop\n        /* \"#utility.yul\":7487:7517   */\n      tag_223\n        /* \"#utility.yul\":7511:7516   */\n      dup2\n        /* \"#utility.yul\":7487:7517   */\n      tag_143\n      jump\t// in\n    tag_223:\n        /* \"#utility.yul\":7386:7523   */\n      swap3\n      swap2\n      pop\n      pop\n      jump\t// out\n        /* \"#utility.yul\":7529:7874   */\n    tag_103:\n        /* \"#utility.yul\":7596:7602   */\n      0x00\n        /* \"#utility.yul\":7645:7647   */\n      0x20\n        /* \"#utility.yul\":7633:7642   */\n      dup3\n        /* \"#utility.yul\":7624:7631   */\n      dup5\n        /* \"#utility.yul\":7620:7643   */\n      sub\n        /* \"#utility.yul\":7616:7648   */\n      slt\n        /* \"#utility.yul\":7613:7732   */\n      iszero\n      tag_225\n      jumpi\n        /* \"#utility.yul\":7651:7730   */\n      tag_226\n      tag_121\n      jump\t// in\n    tag_226:\n        /* \"#utility.yul\":7613:7732   */\n    tag_225:\n        /* \"#utility.yul\":7771:7772   */\n      0x00\n        /* \"#utility.yul\":7796:7857   */\n      tag_227\n        /* \"#utility.yul\":7849:7856   */\n      dup5\n        /* \"#utility.yul\":7840:7846   */\n      dup3\n        /* \"#utility.yul\":7829:7838   */\n      dup6\n        /* \"#utility.yul\":7825:7847   */\n      add\n        /* \"#utility.yul\":7796:7857   */\n      tag_144\n      jump\t// in\n    tag_227:\n        /* \"#utility.yul\":7786:7857   */\n      swap2\n      pop\n        /* \"#utility.yul\":7742:7867   */\n      pop\n        /* \"#utility.yul\":7529:7874   */\n      swap3\n      swap2\n      pop\n      pop\n      jump\t// out\n        /* \"#utility.yul\":7880:8060   */\n    tag_145:\n        /* \"#utility.yul\":7928:8005   */\n      0x4e487b7100000000000000000000000000000000000000000000000000000000\n        /* \"#utility.yul\":7925:7926   */\n      0x00\n        /* \"#utility.yul\":7918:8006   */\n      mstore\n        /* \"#utility.yul\":8025:8029   */\n      0x11\n        /* \"#utility.yul\":8022:8023   */\n      0x04\n        /* \"#utility.yul\":8015:8030   */\n      mstore\n        /* \"#utility.yul\":8049:8053   */\n      0x24\n        /* \"#utility.yul\":8046:8047   */\n      0x00\n        /* \"#utility.yul\":8039:8054   */\n      revert\n        /* \"#utility.yul\":8066:8371   */\n    tag_108:\n        /* \"#utility.yul\":8106:8109   */\n      0x00\n        /* \"#utility.yul\":8125:8145   */\n      tag_230\n        /* \"#utility.yul\":8143:8144   */\n      dup3\n        /* \"#utility.yul\":8125:8145   */\n      tag_123\n      jump\t// in\n    tag_230:\n        /* \"#utility.yul\":8120:8145   */\n      swap2\n      pop\n        /* \"#utility.yul\":8159:8179   */\n      tag_231\n        /* \"#utility.yul\":8177:8178   */\n      dup4\n        /* \"#utility.yul\":8159:8179   */\n      tag_123\n      jump\t// in\n    tag_231:\n        /* \"#utility.yul\":8154:8179   */\n      swap3\n      pop\n        /* \"#utility.yul\":8313:8314   */\n      dup3\n        /* \"#utility.yul\":8245:8311   */\n      0xffffffffffffffffffffffffffffffffffffffffffffffffffffffffffffffff\n        /* \"#utility.yul\":8241:8315   */\n      sub\n        /* \"#utility.yul\":8238:8239   */\n      dup3\n        /* \"#utility.yul\":8235:8316   */\n      gt\n        /* \"#utility.yul\":8232:8339   */\n      iszero\n      tag_232\n      jumpi\n        /* \"#utility.yul\":8319:8337   */\n      tag_233\n      tag_145\n      jump\t// in\n    tag_233:\n        /* \"#utility.yul\":8232:8339   */\n    tag_232:\n        /* \"#utility.yul\":8363:8364   */\n      dup3\n        /* \"#utility.yul\":8360:8361   */\n      dup3\n        /* \"#utility.yul\":8356:8365   */\n      add\n        /* \"#utility.yul\":8349:8365   */\n      swap1\n      pop\n        /* \"#utility.yul\":8066:8371   */\n      swap3\n      swap2\n      pop\n      pop\n      jump\t// out\n\n    auxdata: 0xa2646970667358221220b3954c52683c0905af1a9daa7620e425381ae710f97508ef836025d90527331364736f6c634300080d0033\n}\n","bytecode":{"linkReferences":{},"object":"608060405273b8fed7ad2bfce5e906e1e2299d348639ac3770446000806101000a81548173ffffffffffffffffffffffffffffffffffffffff021916908373ffffffffffffffffffffffffffffffffffffffff1602179055503480156200006557600080fd5b50604051620012f7380380620012f783398181016040528101906200008b919062000454565b84600160006101000a81548173ffffffffffffffffffffffffffffffffffffffff021916908373ffffffffffffffffffffffffffffffffffffffff160217905550856002819055508360049080519060200190620000eb92919062000167565b5082600590805190602001906200010492919062000167565b5081600690805190602001906200011d92919062000167565b508060088190555060006007819055506000600360006101000a81548160ff021916908360018111156200015657620001556200054d565b5b0217905550505050505050620005e0565b8280546200017590620005ab565b90600052602060002090601f016020900481019282620001995760008555620001e5565b82601f10620001b457805160ff1916838001178555620001e5565b82800160010185558215620001e5579182015b82811115620001e4578251825591602001919060010190620001c7565b5b509050620001f49190620001f8565b5090565b5b8082111562000213576000816000905550600101620001f9565b5090565b6000604051905090565b600080fd5b600080fd5b6000819050919050565b62000240816200022b565b81146200024c57600080fd5b50565b600081519050620002608162000235565b92915050565b600073ffffffffffffffffffffffffffffffffffffffff82169050919050565b6000620002938262000266565b9050919050565b620002a58162000286565b8114620002b157600080fd5b50565b600081519050620002c5816200029a565b92915050565b600080fd5b600080fd5b6000601f19601f8301169050919050565b7f4e487b7100000000000000000000000000000000000000000000000000000000600052604160045260246000fd5b6200032082620002d5565b810181811067ffffffffffffffff82111715620003425762000341620002e6565b5b80604052505050565b60006200035762000217565b905062000365828262000315565b919050565b600067ffffffffffffffff821115620003885762000387620002e6565b5b6200039382620002d5565b9050602081019050919050565b60005b83811015620003c0578082015181840152602081019050620003a3565b83811115620003d0576000848401525b50505050565b6000620003ed620003e7846200036a565b6200034b565b9050828152602081018484840111156200040c576200040b620002d0565b5b62000419848285620003a0565b509392505050565b600082601f830112620004395762000438620002cb565b5b81516200044b848260208601620003d6565b91505092915050565b60008060008060008060c0878903121562000474576200047362000221565b5b60006200048489828a016200024f565b96505060206200049789828a01620002b4565b955050604087015167ffffffffffffffff811115620004bb57620004ba62000226565b5b620004c989828a0162000421565b945050606087015167ffffffffffffffff811115620004ed57620004ec62000226565b5b620004fb89828a0162000421565b935050608087015167ffffffffffffffff8111156200051f576200051e62000226565b5b6200052d89828a0162000421565b92505060a06200054089828a016200024f565b9150509295509295509295565b7f4e487b7100000000000000000000000000000000000000000000000000000000600052602160045260246000fd5b7f4e487b7100000000000000000000000000000000000000000000000000000000600052602260045260246000fd5b60006002820490506001821680620005c457607f821691505b602082108103620005da57620005d96200057c565b5b50919050565b610d0780620005f06000396000f3fe60806040526004361061009c5760003560e01c806397654a8c1161006457806397654a8c14610190578063a7f33715146101bb578063aba83150146101e6578063b2a87fc314610211578063b69ef8a81461023c578063d7bb99ba146102675761009c565b80631fbed579146100a1578063200d2ed2146100de5780634051ddac14610109578063481c6a751461013a5780637e7cd1b314610165575b600080fd5b3480156100ad57600080fd5b506100c860048036038101906100c39190610889565b610271565b6040516100d591906108f7565b60405180910390f35b3480156100ea57600080fd5b506100f36102b0565b6040516101009190610989565b60405180910390f35b34801561011557600080fd5b5061011e6102c3565b6040516101319796959493929190610a4c565b60405180910390f35b34801561014657600080fd5b5061014f6104ba565b60405161015c91906108f7565b60405180910390f35b34801561017157600080fd5b5061017a6104e0565b6040516101879190610ad0565b60405180910390f35b34801561019c57600080fd5b506101a561056e565b6040516101b29190610ad0565b60405180910390f35b3480156101c757600080fd5b506101d06105fc565b6040516101dd9190610af2565b60405180910390f35b3480156101f257600080fd5b506101fb610602565b6040516102089190610ad0565b60405180910390f35b34801561021d57600080fd5b50610226610690565b6040516102339190610af2565b60405180910390f35b34801561024857600080fd5b50610251610696565b60405161025e9190610af2565b60405180910390f35b61026f61069c565b005b6009818154811061028157600080fd5b906000526020600020016000915054906101000a900473ffffffffffffffffffffffffffffffffffffffff1681565b600360009054906101000a900460ff1681565b60008060006060806060600060025447600160009054906101000a900473ffffffffffffffffffffffffffffffffffffffff1660046005600660085483805461030b90610b3c565b80601f016020809104026020016040519081016040528092919081815260200182805461033790610b3c565b80156103845780601f1061035957610100808354040283529160200191610384565b820191906000526020600020905b81548152906001019060200180831161036757829003601f168201915b5050505050935082805461039790610b3c565b80601f01602080910402602001604051908101604052809291908181526020018280546103c390610b3c565b80156104105780601f106103e557610100808354040283529160200191610410565b820191906000526020600020905b8154815290600101906020018083116103f357829003601f168201915b5050505050925081805461042390610b3c565b80601f016020809104026020016040519081016040528092919081815260200182805461044f90610b3c565b801561049c5780601f106104715761010080835404028352916020019161049c565b820191906000526020600020905b81548152906001019060200180831161047f57829003601f168201915b50505050509150965096509650965096509650965090919293949596565b600160009054906101000a900473ffffffffffffffffffffffffffffffffffffffff1681565b600480546104ed90610b3c565b80601f016020809104026020016040519081016040528092919081815260200182805461051990610b3c565b80156105665780601f1061053b57610100808354040283529160200191610566565b820191906000526020600020905b81548152906001019060200180831161054957829003601f168201915b505050505081565b6005805461057b90610b3c565b80601f01602080910402602001604051908101604052809291908181526020018280546105a790610b3c565b80156105f45780601f106105c9576101008083540402835291602001916105f4565b820191906000526020600020905b8154815290600101906020018083116105d757829003601f168201915b505050505081565b60025481565b6006805461060f90610b3c565b80601f016020809104026020016040519081016040528092919081815260200182805461063b90610b3c565b80156106885780601f1061065d57610100808354040283529160200191610688565b820191906000526020600020905b81548152906001019060200180831161066b57829003601f168201915b505050505081565b60085481565b60075481565b60008054906101000a900473ffffffffffffffffffffffffffffffffffffffff1673ffffffffffffffffffffffffffffffffffffffff1663217fe6c6336040518263ffffffff1660e01b81526004016106f59190610bb9565b602060405180830381865afa158015610712573d6000803e3d6000fd5b505050506040513d601f19601f820116820180604052508101906107369190610c1f565b61073f57600080fd5b600254341161074d57600080fd5b600854344761075c9190610c7b565b111561076757600080fd5b61079347600160009054906101000a900473ffffffffffffffffffffffffffffffffffffffff16610795565b565b600854820361084a578073ffffffffffffffffffffffffffffffffffffffff166108fc6008549081150290604051600060405180830381858888f193505050501580156107e6573d6000803e3d6000fd5b507f2f256415efc8561af8db667cb242964b19be7380f379ccdafaa0e54a6f6b70698160405161081691906108f7565b60405180910390a16001600360006101000a81548160ff0219169083600181111561084457610843610912565b5b02179055505b5050565b600080fd5b6000819050919050565b61086681610853565b811461087157600080fd5b50565b6000813590506108838161085d565b92915050565b60006020828403121561089f5761089e61084e565b5b60006108ad84828501610874565b91505092915050565b600073ffffffffffffffffffffffffffffffffffffffff82169050919050565b60006108e1826108b6565b9050919050565b6108f1816108d6565b82525050565b600060208201905061090c60008301846108e8565b92915050565b7f4e487b7100000000000000000000000000000000000000000000000000000000600052602160045260246000fd5b6002811061095257610951610912565b5b50565b600081905061096382610941565b919050565b600061097382610955565b9050919050565b61098381610968565b82525050565b600060208201905061099e600083018461097a565b92915050565b6109ad81610853565b82525050565b600081519050919050565b600082825260208201905092915050565b60005b838110156109ed5780820151818401526020810190506109d2565b838111156109fc576000848401525b50505050565b6000601f19601f8301169050919050565b6000610a1e826109b3565b610a2881856109be565b9350610a388185602086016109cf565b610a4181610a02565b840191505092915050565b600060e082019050610a61600083018a6109a4565b610a6e60208301896109a4565b610a7b60408301886108e8565b8181036060830152610a8d8187610a13565b90508181036080830152610aa18186610a13565b905081810360a0830152610ab58185610a13565b9050610ac460c08301846109a4565b98975050505050505050565b60006020820190508181036000830152610aea8184610a13565b905092915050565b6000602082019050610b0760008301846109a4565b92915050565b7f4e487b7100000000000000000000000000000000000000000000000000000000600052602260045260246000fd5b60006002820490506001821680610b5457607f821691505b602082108103610b6757610b66610b0d565b5b50919050565b7f66756e645f636f6e7472696275746f7200000000000000000000000000000000600082015250565b6000610ba36010836109be565b9150610bae82610b6d565b602082019050919050565b6000604082019050610bce60008301846108e8565b8181036020830152610bdf81610b96565b905092915050565b60008115159050919050565b610bfc81610be7565b8114610c0757600080fd5b50565b600081519050610c1981610bf3565b92915050565b600060208284031215610c3557610c3461084e565b5b6000610c4384828501610c0a565b91505092915050565b7f4e487b7100000000000000000000000000000000000000000000000000000000600052601160045260246000fd5b6000610c8682610853565b9150610c9183610853565b9250827fffffffffffffffffffffffffffffffffffffffffffffffffffffffffffffffff03821115610cc657610cc5610c4c565b5b82820190509291505056fea2646970667358221220b3954c52683c0905af1a9daa7620e425381ae710f97508ef836025d90527331364736f6c634300080d0033","opcodes":"PUSH1 0x80 PUSH1 0x40 MSTORE PUSH20 0xB8FED7AD2BFCE5E906E1E2299D348639AC377044 PUSH1 0x0 DUP1 PUSH2 0x100 EXP DUP2 SLOAD DUP2 PUSH20 0xFFFFFFFFFFFFFFFFFFFFFFFFFFFFFFFFFFFFFFFF MUL NOT AND SWAP1 DUP4 PUSH20 0xFFFFFFFFFFFFFFFFFFFFFFFFFFFFFFFFFFFFFFFF AND MUL OR SWAP1 SSTORE POP CALLVALUE DUP1 ISZERO PUSH3 0x65 JUMPI PUSH1 0x0 DUP1 REVERT JUMPDEST POP PUSH1 0x40 MLOAD PUSH3 0x12F7 CODESIZE SUB DUP1 PUSH3 0x12F7 DUP4 CODECOPY DUP2 DUP2 ADD PUSH1 0x40 MSTORE DUP2 ADD SWAP1 PUSH3 0x8B SWAP2 SWAP1 PUSH3 0x454 JUMP JUMPDEST DUP5 PUSH1 0x1 PUSH1 0x0 PUSH2 0x100 EXP DUP2 SLOAD DUP2 PUSH20 0xFFFFFFFFFFFFFFFFFFFFFFFFFFFFFFFFFFFFFFFF MUL NOT AND SWAP1 DUP4 PUSH20 0xFFFFFFFFFFFFFFFFFFFFFFFFFFFFFFFFFFFFFFFF AND MUL OR SWAP1 SSTORE POP DUP6 PUSH1 0x2 DUP2 SWAP1 SSTORE POP DUP4 PUSH1 0x4 SWAP1 DUP1 MLOAD SWAP1 PUSH1 0x20 ADD SWAP1 PUSH3 0xEB SWAP3 SWAP2 SWAP1 PUSH3 0x167 JUMP JUMPDEST POP DUP3 PUSH1 0x5 SWAP1 DUP1 MLOAD SWAP1 PUSH1 0x20 ADD SWAP1 PUSH3 0x104 SWAP3 SWAP2 SWAP1 PUSH3 0x167 JUMP JUMPDEST POP DUP2 PUSH1 0x6 SWAP1 DUP1 MLOAD SWAP1 PUSH1 0x20 ADD SWAP1 PUSH3 0x11D SWAP3 SWAP2 SWAP1 PUSH3 0x167 JUMP JUMPDEST POP DUP1 PUSH1 0x8 DUP2 SWAP1 SSTORE POP PUSH1 0x0 PUSH1 0x7 DUP2 SWAP1 SSTORE POP PUSH1 0x0 PUSH1 0x3 PUSH1 0x0 PUSH2 0x100 EXP DUP2 SLOAD DUP2 PUSH1 0xFF MUL NOT AND SWAP1 DUP4 PUSH1 0x1 DUP2 GT ISZERO PUSH3 0x156 JUMPI PUSH3 0x155 PUSH3 0x54D JUMP JUMPDEST JUMPDEST MUL OR SWAP1 SSTORE POP POP POP POP POP POP POP PUSH3 0x5E0 JUMP JUMPDEST DUP3 DUP1 SLOAD PUSH3 0x175 SWAP1 PUSH3 0x5AB JUMP JUMPDEST SWAP1 PUSH1 0x0 MSTORE PUSH1 0x20 PUSH1 0x0 KECCAK256 SWAP1 PUSH1 0x1F ADD PUSH1 0x20 SWAP1 DIV DUP2 ADD SWAP3 DUP3 PUSH3 0x199 JUMPI PUSH1 0x0 DUP6 SSTORE PUSH3 0x1E5 JUMP JUMPDEST DUP3 PUSH1 0x1F LT PUSH3 0x1B4 JUMPI DUP1 MLOAD PUSH1 0xFF NOT AND DUP4 DUP1 ADD OR DUP6 SSTORE PUSH3 0x1E5 JUMP JUMPDEST DUP3 DUP1 ADD PUSH1 0x1 ADD DUP6 SSTORE DUP3 ISZERO PUSH3 0x1E5 JUMPI SWAP2 DUP3 ADD JUMPDEST DUP3 DUP2 GT ISZERO PUSH3 0x1E4 JUMPI DUP3 MLOAD DUP3 SSTORE SWAP2 PUSH1 0x20 ADD SWAP2 SWAP1 PUSH1 0x1 ADD SWAP1 PUSH3 0x1C7 JUMP JUMPDEST JUMPDEST POP SWAP1 POP PUSH3 0x1F4 SWAP2 SWAP1 PUSH3 0x1F8 JUMP JUMPDEST POP SWAP1 JUMP JUMPDEST JUMPDEST DUP1 DUP3 GT ISZERO PUSH3 0x213 JUMPI PUSH1 0x0 DUP2 PUSH1 0x0 SWAP1 SSTORE POP PUSH1 0x1 ADD PUSH3 0x1F9 JUMP JUMPDEST POP SWAP1 JUMP JUMPDEST PUSH1 0x0 PUSH1 0x40 MLOAD SWAP1 POP SWAP1 JUMP JUMPDEST PUSH1 0x0 DUP1 REVERT JUMPDEST PUSH1 0x0 DUP1 REVERT JUMPDEST PUSH1 0x0 DUP2 SWAP1 POP SWAP2 SWAP1 POP JUMP JUMPDEST PUSH3 0x240 DUP2 PUSH3 0x22B JUMP JUMPDEST DUP2 EQ PUSH3 0x24C JUMPI PUSH1 0x0 DUP1 REVERT JUMPDEST POP JUMP JUMPDEST PUSH1 0x0 DUP2 MLOAD SWAP1 POP PUSH3 0x260 DUP2 PUSH3 0x235 JUMP JUMPDEST SWAP3 SWAP2 POP POP JUMP JUMPDEST PUSH1 0x0 PUSH20 0xFFFFFFFFFFFFFFFFFFFFFFFFFFFFFFFFFFFFFFFF DUP3 AND SWAP1 POP SWAP2 SWAP1 POP JUMP JUMPDEST PUSH1 0x0 PUSH3 0x293 DUP3 PUSH3 0x266 JUMP JUMPDEST SWAP1 POP SWAP2 SWAP1 POP JUMP JUMPDEST PUSH3 0x2A5 DUP2 PUSH3 0x286 JUMP JUMPDEST DUP2 EQ PUSH3 0x2B1 JUMPI PUSH1 0x0 DUP1 REVERT JUMPDEST POP JUMP JUMPDEST PUSH1 0x0 DUP2 MLOAD SWAP1 POP PUSH3 0x2C5 DUP2 PUSH3 0x29A JUMP JUMPDEST SWAP3 SWAP2 POP POP JUMP JUMPDEST PUSH1 0x0 DUP1 REVERT JUMPDEST PUSH1 0x0 DUP1 REVERT JUMPDEST PUSH1 0x0 PUSH1 0x1F NOT PUSH1 0x1F DUP4 ADD AND SWAP1 POP SWAP2 SWAP1 POP JUMP JUMPDEST PUSH32 0x4E487B7100000000000000000000000000000000000000000000000000000000 PUSH1 0x0 MSTORE PUSH1 0x41 PUSH1 0x4 MSTORE PUSH1 0x24 PUSH1 0x0 REVERT JUMPDEST PUSH3 0x320 DUP3 PUSH3 0x2D5 JUMP JUMPDEST DUP2 ADD DUP2 DUP2 LT PUSH8 0xFFFFFFFFFFFFFFFF DUP3 GT OR ISZERO PUSH3 0x342 JUMPI PUSH3 0x341 PUSH3 0x2E6 JUMP JUMPDEST JUMPDEST DUP1 PUSH1 0x40 MSTORE POP POP POP JUMP JUMPDEST PUSH1 0x0 PUSH3 0x357 PUSH3 0x217 JUMP JUMPDEST SWAP1 POP PUSH3 0x365 DUP3 DUP3 PUSH3 0x315 JUMP JUMPDEST SWAP2 SWAP1 POP JUMP JUMPDEST PUSH1 0x0 PUSH8 0xFFFFFFFFFFFFFFFF DUP3 GT ISZERO PUSH3 0x388 JUMPI PUSH3 0x387 PUSH3 0x2E6 JUMP JUMPDEST JUMPDEST PUSH3 0x393 DUP3 PUSH3 0x2D5 JUMP JUMPDEST SWAP1 POP PUSH1 0x20 DUP2 ADD SWAP1 POP SWAP2 SWAP1 POP JUMP JUMPDEST PUSH1 0x0 JUMPDEST DUP4 DUP2 LT ISZERO PUSH3 0x3C0 JUMPI DUP1 DUP3 ADD MLOAD DUP2 DUP5 ADD MSTORE PUSH1 0x20 DUP2 ADD SWAP1 POP PUSH3 0x3A3 JUMP JUMPDEST DUP4 DUP2 GT ISZERO PUSH3 0x3D0 JUMPI PUSH1 0x0 DUP5 DUP5 ADD MSTORE JUMPDEST POP POP POP POP JUMP JUMPDEST PUSH1 0x0 PUSH3 0x3ED PUSH3 0x3E7 DUP5 PUSH3 0x36A JUMP JUMPDEST PUSH3 0x34B JUMP JUMPDEST SWAP1 POP DUP3 DUP2 MSTORE PUSH1 0x20 DUP2 ADD DUP5 DUP5 DUP5 ADD GT ISZERO PUSH3 0x40C JUMPI PUSH3 0x40B PUSH3 0x2D0 JUMP JUMPDEST JUMPDEST PUSH3 0x419 DUP5 DUP3 DUP6 PUSH3 0x3A0 JUMP JUMPDEST POP SWAP4 SWAP3 POP POP POP JUMP JUMPDEST PUSH1 0x0 DUP3 PUSH1 0x1F DUP4 ADD SLT PUSH3 0x439 JUMPI PUSH3 0x438 PUSH3 0x2CB JUMP JUMPDEST JUMPDEST DUP2 MLOAD PUSH3 0x44B DUP5 DUP3 PUSH1 0x20 DUP7 ADD PUSH3 0x3D6 JUMP JUMPDEST SWAP2 POP POP SWAP3 SWAP2 POP POP JUMP JUMPDEST PUSH1 0x0 DUP1 PUSH1 0x0 DUP1 PUSH1 0x0 DUP1 PUSH1 0xC0 DUP8 DUP10 SUB SLT ISZERO PUSH3 0x474 JUMPI PUSH3 0x473 PUSH3 0x221 JUMP JUMPDEST JUMPDEST PUSH1 0x0 PUSH3 0x484 DUP10 DUP3 DUP11 ADD PUSH3 0x24F JUMP JUMPDEST SWAP7 POP POP PUSH1 0x20 PUSH3 0x497 DUP10 DUP3 DUP11 ADD PUSH3 0x2B4 JUMP JUMPDEST SWAP6 POP POP PUSH1 0x40 DUP8 ADD MLOAD PUSH8 0xFFFFFFFFFFFFFFFF DUP2 GT ISZERO PUSH3 0x4BB JUMPI PUSH3 0x4BA PUSH3 0x226 JUMP JUMPDEST JUMPDEST PUSH3 0x4C9 DUP10 DUP3 DUP11 ADD PUSH3 0x421 JUMP JUMPDEST SWAP5 POP POP PUSH1 0x60 DUP8 ADD MLOAD PUSH8 0xFFFFFFFFFFFFFFFF DUP2 GT ISZERO PUSH3 0x4ED JUMPI PUSH3 0x4EC PUSH3 0x226 JUMP JUMPDEST JUMPDEST PUSH3 0x4FB DUP10 DUP3 DUP11 ADD PUSH3 0x421 JUMP JUMPDEST SWAP4 POP POP PUSH1 0x80 DUP8 ADD MLOAD PUSH8 0xFFFFFFFFFFFFFFFF DUP2 GT ISZERO PUSH3 0x51F JUMPI PUSH3 0x51E PUSH3 0x226 JUMP JUMPDEST JUMPDEST PUSH3 0x52D DUP10 DUP3 DUP11 ADD PUSH3 0x421 JUMP JUMPDEST SWAP3 POP POP PUSH1 0xA0 PUSH3 0x540 DUP10 DUP3 DUP11 ADD PUSH3 0x24F JUMP JUMPDEST SWAP2 POP POP SWAP3 SWAP6 POP SWAP3 SWAP6 POP SWAP3 SWAP6 JUMP JUMPDEST PUSH32 0x4E487B7100000000000000000000000000000000000000000000000000000000 PUSH1 0x0 MSTORE PUSH1 0x21 PUSH1 0x4 MSTORE PUSH1 0x24 PUSH1 0x0 REVERT JUMPDEST PUSH32 0x4E487B7100000000000000000000000000000000000000000000000000000000 PUSH1 0x0 MSTORE PUSH1 0x22 PUSH1 0x4 MSTORE PUSH1 0x24 PUSH1 0x0 REVERT JUMPDEST PUSH1 0x0 PUSH1 0x2 DUP3 DIV SWAP1 POP PUSH1 0x1 DUP3 AND DUP1 PUSH3 0x5C4 JUMPI PUSH1 0x7F DUP3 AND SWAP2 POP JUMPDEST PUSH1 0x20 DUP3 LT DUP2 SUB PUSH3 0x5DA JUMPI PUSH3 0x5D9 PUSH3 0x57C JUMP JUMPDEST JUMPDEST POP SWAP2 SWAP1 POP JUMP JUMPDEST PUSH2 0xD07 DUP1 PUSH3 0x5F0 PUSH1 0x0 CODECOPY PUSH1 0x0 RETURN INVALID PUSH1 0x80 PUSH1 0x40 MSTORE PUSH1 0x4 CALLDATASIZE LT PUSH2 0x9C JUMPI PUSH1 0x0 CALLDATALOAD PUSH1 0xE0 SHR DUP1 PUSH4 0x97654A8C GT PUSH2 0x64 JUMPI DUP1 PUSH4 0x97654A8C EQ PUSH2 0x190 JUMPI DUP1 PUSH4 0xA7F33715 EQ PUSH2 0x1BB JUMPI DUP1 PUSH4 0xABA83150 EQ PUSH2 0x1E6 JUMPI DUP1 PUSH4 0xB2A87FC3 EQ PUSH2 0x211 JUMPI DUP1 PUSH4 0xB69EF8A8 EQ PUSH2 0x23C JUMPI DUP1 PUSH4 0xD7BB99BA EQ PUSH2 0x267 JUMPI PUSH2 0x9C JUMP JUMPDEST DUP1 PUSH4 0x1FBED579 EQ PUSH2 0xA1 JUMPI DUP1 PUSH4 0x200D2ED2 EQ PUSH2 0xDE JUMPI DUP1 PUSH4 0x4051DDAC EQ PUSH2 0x109 JUMPI DUP1 PUSH4 0x481C6A75 EQ PUSH2 0x13A JUMPI DUP1 PUSH4 0x7E7CD1B3 EQ PUSH2 0x165 JUMPI JUMPDEST PUSH1 0x0 DUP1 REVERT JUMPDEST CALLVALUE DUP1 ISZERO PUSH2 0xAD JUMPI PUSH1 0x0 DUP1 REVERT JUMPDEST POP PUSH2 0xC8 PUSH1 0x4 DUP1 CALLDATASIZE SUB DUP2 ADD SWAP1 PUSH2 0xC3 SWAP2 SWAP1 PUSH2 0x889 JUMP JUMPDEST PUSH2 0x271 JUMP JUMPDEST PUSH1 0x40 MLOAD PUSH2 0xD5 SWAP2 SWAP1 PUSH2 0x8F7 JUMP JUMPDEST PUSH1 0x40 MLOAD DUP1 SWAP2 SUB SWAP1 RETURN JUMPDEST CALLVALUE DUP1 ISZERO PUSH2 0xEA JUMPI PUSH1 0x0 DUP1 REVERT JUMPDEST POP PUSH2 0xF3 PUSH2 0x2B0 JUMP JUMPDEST PUSH1 0x40 MLOAD PUSH2 0x100 SWAP2 SWAP1 PUSH2 0x989 JUMP JUMPDEST PUSH1 0x40 MLOAD DUP1 SWAP2 SUB SWAP1 RETURN JUMPDEST CALLVALUE DUP1 ISZERO PUSH2 0x115 JUMPI PUSH1 0x0 DUP1 REVERT JUMPDEST POP PUSH2 0x11E PUSH2 0x2C3 JUMP JUMPDEST PUSH1 0x40 MLOAD PUSH2 0x131 SWAP8 SWAP7 SWAP6 SWAP5 SWAP4 SWAP3 SWAP2 SWAP1 PUSH2 0xA4C JUMP JUMPDEST PUSH1 0x40 MLOAD DUP1 SWAP2 SUB SWAP1 RETURN JUMPDEST CALLVALUE DUP1 ISZERO PUSH2 0x146 JUMPI PUSH1 0x0 DUP1 REVERT JUMPDEST POP PUSH2 0x14F PUSH2 0x4BA JUMP JUMPDEST PUSH1 0x40 MLOAD PUSH2 0x15C SWAP2 SWAP1 PUSH2 0x8F7 JUMP JUMPDEST PUSH1 0x40 MLOAD DUP1 SWAP2 SUB SWAP1 RETURN JUMPDEST CALLVALUE DUP1 ISZERO PUSH2 0x171 JUMPI PUSH1 0x0 DUP1 REVERT JUMPDEST POP PUSH2 0x17A PUSH2 0x4E0 JUMP JUMPDEST PUSH1 0x40 MLOAD PUSH2 0x187 SWAP2 SWAP1 PUSH2 0xAD0 JUMP JUMPDEST PUSH1 0x40 MLOAD DUP1 SWAP2 SUB SWAP1 RETURN JUMPDEST CALLVALUE DUP1 ISZERO PUSH2 0x19C JUMPI PUSH1 0x0 DUP1 REVERT JUMPDEST POP PUSH2 0x1A5 PUSH2 0x56E JUMP JUMPDEST PUSH1 0x40 MLOAD PUSH2 0x1B2 SWAP2 SWAP1 PUSH2 0xAD0 JUMP JUMPDEST PUSH1 0x40 MLOAD DUP1 SWAP2 SUB SWAP1 RETURN JUMPDEST CALLVALUE DUP1 ISZERO PUSH2 0x1C7 JUMPI PUSH1 0x0 DUP1 REVERT JUMPDEST POP PUSH2 0x1D0 PUSH2 0x5FC JUMP JUMPDEST PUSH1 0x40 MLOAD PUSH2 0x1DD SWAP2 SWAP1 PUSH2 0xAF2 JUMP JUMPDEST PUSH1 0x40 MLOAD DUP1 SWAP2 SUB SWAP1 RETURN JUMPDEST CALLVALUE DUP1 ISZERO PUSH2 0x1F2 JUMPI PUSH1 0x0 DUP1 REVERT JUMPDEST POP PUSH2 0x1FB PUSH2 0x602 JUMP JUMPDEST PUSH1 0x40 MLOAD PUSH2 0x208 SWAP2 SWAP1 PUSH2 0xAD0 JUMP JUMPDEST PUSH1 0x40 MLOAD DUP1 SWAP2 SUB SWAP1 RETURN JUMPDEST CALLVALUE DUP1 ISZERO PUSH2 0x21D JUMPI PUSH1 0x0 DUP1 REVERT JUMPDEST POP PUSH2 0x226 PUSH2 0x690 JUMP JUMPDEST PUSH1 0x40 MLOAD PUSH2 0x233 SWAP2 SWAP1 PUSH2 0xAF2 JUMP JUMPDEST PUSH1 0x40 MLOAD DUP1 SWAP2 SUB SWAP1 RETURN JUMPDEST CALLVALUE DUP1 ISZERO PUSH2 0x248 JUMPI PUSH1 0x0 DUP1 REVERT JUMPDEST POP PUSH2 0x251 PUSH2 0x696 JUMP JUMPDEST PUSH1 0x40 MLOAD PUSH2 0x25E SWAP2 SWAP1 PUSH2 0xAF2 JUMP JUMPDEST PUSH1 0x40 MLOAD DUP1 SWAP2 SUB SWAP1 RETURN JUMPDEST PUSH2 0x26F PUSH2 0x69C JUMP JUMPDEST STOP JUMPDEST PUSH1 0x9 DUP2 DUP2 SLOAD DUP2 LT PUSH2 0x281 JUMPI PUSH1 0x0 DUP1 REVERT JUMPDEST SWAP1 PUSH1 0x0 MSTORE PUSH1 0x20 PUSH1 0x0 KECCAK256 ADD PUSH1 0x0 SWAP2 POP SLOAD SWAP1 PUSH2 0x100 EXP SWAP1 DIV PUSH20 0xFFFFFFFFFFFFFFFFFFFFFFFFFFFFFFFFFFFFFFFF AND DUP2 JUMP JUMPDEST PUSH1 0x3 PUSH1 0x0 SWAP1 SLOAD SWAP1 PUSH2 0x100 EXP SWAP1 DIV PUSH1 0xFF AND DUP2 JUMP JUMPDEST PUSH1 0x0 DUP1 PUSH1 0x0 PUSH1 0x60 DUP1 PUSH1 0x60 PUSH1 0x0 PUSH1 0x2 SLOAD SELFBALANCE PUSH1 0x1 PUSH1 0x0 SWAP1 SLOAD SWAP1 PUSH2 0x100 EXP SWAP1 DIV PUSH20 0xFFFFFFFFFFFFFFFFFFFFFFFFFFFFFFFFFFFFFFFF AND PUSH1 0x4 PUSH1 0x5 PUSH1 0x6 PUSH1 0x8 SLOAD DUP4 DUP1 SLOAD PUSH2 0x30B SWAP1 PUSH2 0xB3C JUMP JUMPDEST DUP1 PUSH1 0x1F ADD PUSH1 0x20 DUP1 SWAP2 DIV MUL PUSH1 0x20 ADD PUSH1 0x40 MLOAD SWAP1 DUP2 ADD PUSH1 0x40 MSTORE DUP1 SWAP3 SWAP2 SWAP1 DUP2 DUP2 MSTORE PUSH1 0x20 ADD DUP3 DUP1 SLOAD PUSH2 0x337 SWAP1 PUSH2 0xB3C JUMP JUMPDEST DUP1 ISZERO PUSH2 0x384 JUMPI DUP1 PUSH1 0x1F LT PUSH2 0x359 JUMPI PUSH2 0x100 DUP1 DUP4 SLOAD DIV MUL DUP4 MSTORE SWAP2 PUSH1 0x20 ADD SWAP2 PUSH2 0x384 JUMP JUMPDEST DUP3 ADD SWAP2 SWAP1 PUSH1 0x0 MSTORE PUSH1 0x20 PUSH1 0x0 KECCAK256 SWAP1 JUMPDEST DUP2 SLOAD DUP2 MSTORE SWAP1 PUSH1 0x1 ADD SWAP1 PUSH1 0x20 ADD DUP1 DUP4 GT PUSH2 0x367 JUMPI DUP3 SWAP1 SUB PUSH1 0x1F AND DUP3 ADD SWAP2 JUMPDEST POP POP POP POP POP SWAP4 POP DUP3 DUP1 SLOAD PUSH2 0x397 SWAP1 PUSH2 0xB3C JUMP JUMPDEST DUP1 PUSH1 0x1F ADD PUSH1 0x20 DUP1 SWAP2 DIV MUL PUSH1 0x20 ADD PUSH1 0x40 MLOAD SWAP1 DUP2 ADD PUSH1 0x40 MSTORE DUP1 SWAP3 SWAP2 SWAP1 DUP2 DUP2 MSTORE PUSH1 0x20 ADD DUP3 DUP1 SLOAD PUSH2 0x3C3 SWAP1 PUSH2 0xB3C JUMP JUMPDEST DUP1 ISZERO PUSH2 0x410 JUMPI DUP1 PUSH1 0x1F LT PUSH2 0x3E5 JUMPI PUSH2 0x100 DUP1 DUP4 SLOAD DIV MUL DUP4 MSTORE SWAP2 PUSH1 0x20 ADD SWAP2 PUSH2 0x410 JUMP JUMPDEST DUP3 ADD SWAP2 SWAP1 PUSH1 0x0 MSTORE PUSH1 0x20 PUSH1 0x0 KECCAK256 SWAP1 JUMPDEST DUP2 SLOAD DUP2 MSTORE SWAP1 PUSH1 0x1 ADD SWAP1 PUSH1 0x20 ADD DUP1 DUP4 GT PUSH2 0x3F3 JUMPI DUP3 SWAP1 SUB PUSH1 0x1F AND DUP3 ADD SWAP2 JUMPDEST POP POP POP POP POP SWAP3 POP DUP2 DUP1 SLOAD PUSH2 0x423 SWAP1 PUSH2 0xB3C JUMP JUMPDEST DUP1 PUSH1 0x1F ADD PUSH1 0x20 DUP1 SWAP2 DIV MUL PUSH1 0x20 ADD PUSH1 0x40 MLOAD SWAP1 DUP2 ADD PUSH1 0x40 MSTORE DUP1 SWAP3 SWAP2 SWAP1 DUP2 DUP2 MSTORE PUSH1 0x20 ADD DUP3 DUP1 SLOAD PUSH2 0x44F SWAP1 PUSH2 0xB3C JUMP JUMPDEST DUP1 ISZERO PUSH2 0x49C JUMPI DUP1 PUSH1 0x1F LT PUSH2 0x471 JUMPI PUSH2 0x100 DUP1 DUP4 SLOAD DIV MUL DUP4 MSTORE SWAP2 PUSH1 0x20 ADD SWAP2 PUSH2 0x49C JUMP JUMPDEST DUP3 ADD SWAP2 SWAP1 PUSH1 0x0 MSTORE PUSH1 0x20 PUSH1 0x0 KECCAK256 SWAP1 JUMPDEST DUP2 SLOAD DUP2 MSTORE SWAP1 PUSH1 0x1 ADD SWAP1 PUSH1 0x20 ADD DUP1 DUP4 GT PUSH2 0x47F JUMPI DUP3 SWAP1 SUB PUSH1 0x1F AND DUP3 ADD SWAP2 JUMPDEST POP POP POP POP POP SWAP2 POP SWAP7 POP SWAP7 POP SWAP7 POP SWAP7 POP SWAP7 POP SWAP7 POP SWAP7 POP SWAP1 SWAP2 SWAP3 SWAP4 SWAP5 SWAP6 SWAP7 JUMP JUMPDEST PUSH1 0x1 PUSH1 0x0 SWAP1 SLOAD SWAP1 PUSH2 0x100 EXP SWAP1 DIV PUSH20 0xFFFFFFFFFFFFFFFFFFFFFFFFFFFFFFFFFFFFFFFF AND DUP2 JUMP JUMPDEST PUSH1 0x4 DUP1 SLOAD PUSH2 0x4ED SWAP1 PUSH2 0xB3C JUMP JUMPDEST DUP1 PUSH1 0x1F ADD PUSH1 0x20 DUP1 SWAP2 DIV MUL PUSH1 0x20 ADD PUSH1 0x40 MLOAD SWAP1 DUP2 ADD PUSH1 0x40 MSTORE DUP1 SWAP3 SWAP2 SWAP1 DUP2 DUP2 MSTORE PUSH1 0x20 ADD DUP3 DUP1 SLOAD PUSH2 0x519 SWAP1 PUSH2 0xB3C JUMP JUMPDEST DUP1 ISZERO PUSH2 0x566 JUMPI DUP1 PUSH1 0x1F LT PUSH2 0x53B JUMPI PUSH2 0x100 DUP1 DUP4 SLOAD DIV MUL DUP4 MSTORE SWAP2 PUSH1 0x20 ADD SWAP2 PUSH2 0x566 JUMP JUMPDEST DUP3 ADD SWAP2 SWAP1 PUSH1 0x0 MSTORE PUSH1 0x20 PUSH1 0x0 KECCAK256 SWAP1 JUMPDEST DUP2 SLOAD DUP2 MSTORE SWAP1 PUSH1 0x1 ADD SWAP1 PUSH1 0x20 ADD DUP1 DUP4 GT PUSH2 0x549 JUMPI DUP3 SWAP1 SUB PUSH1 0x1F AND DUP3 ADD SWAP2 JUMPDEST POP POP POP POP POP DUP2 JUMP JUMPDEST PUSH1 0x5 DUP1 SLOAD PUSH2 0x57B SWAP1 PUSH2 0xB3C JUMP JUMPDEST DUP1 PUSH1 0x1F ADD PUSH1 0x20 DUP1 SWAP2 DIV MUL PUSH1 0x20 ADD PUSH1 0x40 MLOAD SWAP1 DUP2 ADD PUSH1 0x40 MSTORE DUP1 SWAP3 SWAP2 SWAP1 DUP2 DUP2 MSTORE PUSH1 0x20 ADD DUP3 DUP1 SLOAD PUSH2 0x5A7 SWAP1 PUSH2 0xB3C JUMP JUMPDEST DUP1 ISZERO PUSH2 0x5F4 JUMPI DUP1 PUSH1 0x1F LT PUSH2 0x5C9 JUMPI PUSH2 0x100 DUP1 DUP4 SLOAD DIV MUL DUP4 MSTORE SWAP2 PUSH1 0x20 ADD SWAP2 PUSH2 0x5F4 JUMP JUMPDEST DUP3 ADD SWAP2 SWAP1 PUSH1 0x0 MSTORE PUSH1 0x20 PUSH1 0x0 KECCAK256 SWAP1 JUMPDEST DUP2 SLOAD DUP2 MSTORE SWAP1 PUSH1 0x1 ADD SWAP1 PUSH1 0x20 ADD DUP1 DUP4 GT PUSH2 0x5D7 JUMPI DUP3 SWAP1 SUB PUSH1 0x1F AND DUP3 ADD SWAP2 JUMPDEST POP POP POP POP POP DUP2 JUMP JUMPDEST PUSH1 0x2 SLOAD DUP2 JUMP JUMPDEST PUSH1 0x6 DUP1 SLOAD PUSH2 0x60F SWAP1 PUSH2 0xB3C JUMP JUMPDEST DUP1 PUSH1 0x1F ADD PUSH1 0x20 DUP1 SWAP2 DIV MUL PUSH1 0x20 ADD PUSH1 0x40 MLOAD SWAP1 DUP2 ADD PUSH1 0x40 MSTORE DUP1 SWAP3 SWAP2 SWAP1 DUP2 DUP2 MSTORE PUSH1 0x20 ADD DUP3 DUP1 SLOAD PUSH2 0x63B SWAP1 PUSH2 0xB3C JUMP JUMPDEST DUP1 ISZERO PUSH2 0x688 JUMPI DUP1 PUSH1 0x1F LT PUSH2 0x65D JUMPI PUSH2 0x100 DUP1 DUP4 SLOAD DIV MUL DUP4 MSTORE SWAP2 PUSH1 0x20 ADD SWAP2 PUSH2 0x688 JUMP JUMPDEST DUP3 ADD SWAP2 SWAP1 PUSH1 0x0 MSTORE PUSH1 0x20 PUSH1 0x0 KECCAK256 SWAP1 JUMPDEST DUP2 SLOAD DUP2 MSTORE SWAP1 PUSH1 0x1 ADD SWAP1 PUSH1 0x20 ADD DUP1 DUP4 GT PUSH2 0x66B JUMPI DUP3 SWAP1 SUB PUSH1 0x1F AND DUP3 ADD SWAP2 JUMPDEST POP POP POP POP POP DUP2 JUMP JUMPDEST PUSH1 0x8 SLOAD DUP2 JUMP JUMPDEST PUSH1 0x7 SLOAD DUP2 JUMP JUMPDEST PUSH1 0x0 DUP1 SLOAD SWAP1 PUSH2 0x100 EXP SWAP1 DIV PUSH20 0xFFFFFFFFFFFFFFFFFFFFFFFFFFFFFFFFFFFFFFFF AND PUSH20 0xFFFFFFFFFFFFFFFFFFFFFFFFFFFFFFFFFFFFFFFF AND PUSH4 0x217FE6C6 CALLER PUSH1 0x40 MLOAD DUP3 PUSH4 0xFFFFFFFF AND PUSH1 0xE0 SHL DUP2 MSTORE PUSH1 0x4 ADD PUSH2 0x6F5 SWAP2 SWAP1 PUSH2 0xBB9 JUMP JUMPDEST PUSH1 0x20 PUSH1 0x40 MLOAD DUP1 DUP4 SUB DUP2 DUP7 GAS STATICCALL ISZERO DUP1 ISZERO PUSH2 0x712 JUMPI RETURNDATASIZE PUSH1 0x0 DUP1 RETURNDATACOPY RETURNDATASIZE PUSH1 0x0 REVERT JUMPDEST POP POP POP POP PUSH1 0x40 MLOAD RETURNDATASIZE PUSH1 0x1F NOT PUSH1 0x1F DUP3 ADD AND DUP3 ADD DUP1 PUSH1 0x40 MSTORE POP DUP2 ADD SWAP1 PUSH2 0x736 SWAP2 SWAP1 PUSH2 0xC1F JUMP JUMPDEST PUSH2 0x73F JUMPI PUSH1 0x0 DUP1 REVERT JUMPDEST PUSH1 0x2 SLOAD CALLVALUE GT PUSH2 0x74D JUMPI PUSH1 0x0 DUP1 REVERT JUMPDEST PUSH1 0x8 SLOAD CALLVALUE SELFBALANCE PUSH2 0x75C SWAP2 SWAP1 PUSH2 0xC7B JUMP JUMPDEST GT ISZERO PUSH2 0x767 JUMPI PUSH1 0x0 DUP1 REVERT JUMPDEST PUSH2 0x793 SELFBALANCE PUSH1 0x1 PUSH1 0x0 SWAP1 SLOAD SWAP1 PUSH2 0x100 EXP SWAP1 DIV PUSH20 0xFFFFFFFFFFFFFFFFFFFFFFFFFFFFFFFFFFFFFFFF AND PUSH2 0x795 JUMP JUMPDEST JUMP JUMPDEST PUSH1 0x8 SLOAD DUP3 SUB PUSH2 0x84A JUMPI DUP1 PUSH20 0xFFFFFFFFFFFFFFFFFFFFFFFFFFFFFFFFFFFFFFFF AND PUSH2 0x8FC PUSH1 0x8 SLOAD SWAP1 DUP2 ISZERO MUL SWAP1 PUSH1 0x40 MLOAD PUSH1 0x0 PUSH1 0x40 MLOAD DUP1 DUP4 SUB DUP2 DUP6 DUP9 DUP9 CALL SWAP4 POP POP POP POP ISZERO DUP1 ISZERO PUSH2 0x7E6 JUMPI RETURNDATASIZE PUSH1 0x0 DUP1 RETURNDATACOPY RETURNDATASIZE PUSH1 0x0 REVERT JUMPDEST POP PUSH32 0x2F256415EFC8561AF8DB667CB242964B19BE7380F379CCDAFAA0E54A6F6B7069 DUP2 PUSH1 0x40 MLOAD PUSH2 0x816 SWAP2 SWAP1 PUSH2 0x8F7 JUMP JUMPDEST PUSH1 0x40 MLOAD DUP1 SWAP2 SUB SWAP1 LOG1 PUSH1 0x1 PUSH1 0x3 PUSH1 0x0 PUSH2 0x100 EXP DUP2 SLOAD DUP2 PUSH1 0xFF MUL NOT AND SWAP1 DUP4 PUSH1 0x1 DUP2 GT ISZERO PUSH2 0x844 JUMPI PUSH2 0x843 PUSH2 0x912 JUMP JUMPDEST JUMPDEST MUL OR SWAP1 SSTORE POP JUMPDEST POP POP JUMP JUMPDEST PUSH1 0x0 DUP1 REVERT JUMPDEST PUSH1 0x0 DUP2 SWAP1 POP SWAP2 SWAP1 POP JUMP JUMPDEST PUSH2 0x866 DUP2 PUSH2 0x853 JUMP JUMPDEST DUP2 EQ PUSH2 0x871 JUMPI PUSH1 0x0 DUP1 REVERT JUMPDEST POP JUMP JUMPDEST PUSH1 0x0 DUP2 CALLDATALOAD SWAP1 POP PUSH2 0x883 DUP2 PUSH2 0x85D JUMP JUMPDEST SWAP3 SWAP2 POP POP JUMP JUMPDEST PUSH1 0x0 PUSH1 0x20 DUP3 DUP5 SUB SLT ISZERO PUSH2 0x89F JUMPI PUSH2 0x89E PUSH2 0x84E JUMP JUMPDEST JUMPDEST PUSH1 0x0 PUSH2 0x8AD DUP5 DUP3 DUP6 ADD PUSH2 0x874 JUMP JUMPDEST SWAP2 POP POP SWAP3 SWAP2 POP POP JUMP JUMPDEST PUSH1 0x0 PUSH20 0xFFFFFFFFFFFFFFFFFFFFFFFFFFFFFFFFFFFFFFFF DUP3 AND SWAP1 POP SWAP2 SWAP1 POP JUMP JUMPDEST PUSH1 0x0 PUSH2 0x8E1 DUP3 PUSH2 0x8B6 JUMP JUMPDEST SWAP1 POP SWAP2 SWAP1 POP JUMP JUMPDEST PUSH2 0x8F1 DUP2 PUSH2 0x8D6 JUMP JUMPDEST DUP3 MSTORE POP POP JUMP JUMPDEST PUSH1 0x0 PUSH1 0x20 DUP3 ADD SWAP1 POP PUSH2 0x90C PUSH1 0x0 DUP4 ADD DUP5 PUSH2 0x8E8 JUMP JUMPDEST SWAP3 SWAP2 POP POP JUMP JUMPDEST PUSH32 0x4E487B7100000000000000000000000000000000000000000000000000000000 PUSH1 0x0 MSTORE PUSH1 0x21 PUSH1 0x4 MSTORE PUSH1 0x24 PUSH1 0x0 REVERT JUMPDEST PUSH1 0x2 DUP2 LT PUSH2 0x952 JUMPI PUSH2 0x951 PUSH2 0x912 JUMP JUMPDEST JUMPDEST POP JUMP JUMPDEST PUSH1 0x0 DUP2 SWAP1 POP PUSH2 0x963 DUP3 PUSH2 0x941 JUMP JUMPDEST SWAP2 SWAP1 POP JUMP JUMPDEST PUSH1 0x0 PUSH2 0x973 DUP3 PUSH2 0x955 JUMP JUMPDEST SWAP1 POP SWAP2 SWAP1 POP JUMP JUMPDEST PUSH2 0x983 DUP2 PUSH2 0x968 JUMP JUMPDEST DUP3 MSTORE POP POP JUMP JUMPDEST PUSH1 0x0 PUSH1 0x20 DUP3 ADD SWAP1 POP PUSH2 0x99E PUSH1 0x0 DUP4 ADD DUP5 PUSH2 0x97A JUMP JUMPDEST SWAP3 SWAP2 POP POP JUMP JUMPDEST PUSH2 0x9AD DUP2 PUSH2 0x853 JUMP JUMPDEST DUP3 MSTORE POP POP JUMP JUMPDEST PUSH1 0x0 DUP2 MLOAD SWAP1 POP SWAP2 SWAP1 POP JUMP JUMPDEST PUSH1 0x0 DUP3 DUP3 MSTORE PUSH1 0x20 DUP3 ADD SWAP1 POP SWAP3 SWAP2 POP POP JUMP JUMPDEST PUSH1 0x0 JUMPDEST DUP4 DUP2 LT ISZERO PUSH2 0x9ED JUMPI DUP1 DUP3 ADD MLOAD DUP2 DUP5 ADD MSTORE PUSH1 0x20 DUP2 ADD SWAP1 POP PUSH2 0x9D2 JUMP JUMPDEST DUP4 DUP2 GT ISZERO PUSH2 0x9FC JUMPI PUSH1 0x0 DUP5 DUP5 ADD MSTORE JUMPDEST POP POP POP POP JUMP JUMPDEST PUSH1 0x0 PUSH1 0x1F NOT PUSH1 0x1F DUP4 ADD AND SWAP1 POP SWAP2 SWAP1 POP JUMP JUMPDEST PUSH1 0x0 PUSH2 0xA1E DUP3 PUSH2 0x9B3 JUMP JUMPDEST PUSH2 0xA28 DUP2 DUP6 PUSH2 0x9BE JUMP JUMPDEST SWAP4 POP PUSH2 0xA38 DUP2 DUP6 PUSH1 0x20 DUP7 ADD PUSH2 0x9CF JUMP JUMPDEST PUSH2 0xA41 DUP2 PUSH2 0xA02 JUMP JUMPDEST DUP5 ADD SWAP2 POP POP SWAP3 SWAP2 POP POP JUMP JUMPDEST PUSH1 0x0 PUSH1 0xE0 DUP3 ADD SWAP1 POP PUSH2 0xA61 PUSH1 0x0 DUP4 ADD DUP11 PUSH2 0x9A4 JUMP JUMPDEST PUSH2 0xA6E PUSH1 0x20 DUP4 ADD DUP10 PUSH2 0x9A4 JUMP JUMPDEST PUSH2 0xA7B PUSH1 0x40 DUP4 ADD DUP9 PUSH2 0x8E8 JUMP JUMPDEST DUP2 DUP2 SUB PUSH1 0x60 DUP4 ADD MSTORE PUSH2 0xA8D DUP2 DUP8 PUSH2 0xA13 JUMP JUMPDEST SWAP1 POP DUP2 DUP2 SUB PUSH1 0x80 DUP4 ADD MSTORE PUSH2 0xAA1 DUP2 DUP7 PUSH2 0xA13 JUMP JUMPDEST SWAP1 POP DUP2 DUP2 SUB PUSH1 0xA0 DUP4 ADD MSTORE PUSH2 0xAB5 DUP2 DUP6 PUSH2 0xA13 JUMP JUMPDEST SWAP1 POP PUSH2 0xAC4 PUSH1 0xC0 DUP4 ADD DUP5 PUSH2 0x9A4 JUMP JUMPDEST SWAP9 SWAP8 POP POP POP POP POP POP POP POP JUMP JUMPDEST PUSH1 0x0 PUSH1 0x20 DUP3 ADD SWAP1 POP DUP2 DUP2 SUB PUSH1 0x0 DUP4 ADD MSTORE PUSH2 0xAEA DUP2 DUP5 PUSH2 0xA13 JUMP JUMPDEST SWAP1 POP SWAP3 SWAP2 POP POP JUMP JUMPDEST PUSH1 0x0 PUSH1 0x20 DUP3 ADD SWAP1 POP PUSH2 0xB07 PUSH1 0x0 DUP4 ADD DUP5 PUSH2 0x9A4 JUMP JUMPDEST SWAP3 SWAP2 POP POP JUMP JUMPDEST PUSH32 0x4E487B7100000000000000000000000000000000000000000000000000000000 PUSH1 0x0 MSTORE PUSH1 0x22 PUSH1 0x4 MSTORE PUSH1 0x24 PUSH1 0x0 REVERT JUMPDEST PUSH1 0x0 PUSH1 0x2 DUP3 DIV SWAP1 POP PUSH1 0x1 DUP3 AND DUP1 PUSH2 0xB54 JUMPI PUSH1 0x7F DUP3 AND SWAP2 POP JUMPDEST PUSH1 0x20 DUP3 LT DUP2 SUB PUSH2 0xB67 JUMPI PUSH2 0xB66 PUSH2 0xB0D JUMP JUMPDEST JUMPDEST POP SWAP2 SWAP1 POP JUMP JUMPDEST PUSH32 0x66756E645F636F6E7472696275746F7200000000000000000000000000000000 PUSH1 0x0 DUP3 ADD MSTORE POP JUMP JUMPDEST PUSH1 0x0 PUSH2 0xBA3 PUSH1 0x10 DUP4 PUSH2 0x9BE JUMP JUMPDEST SWAP2 POP PUSH2 0xBAE DUP3 PUSH2 0xB6D JUMP JUMPDEST PUSH1 0x20 DUP3 ADD SWAP1 POP SWAP2 SWAP1 POP JUMP JUMPDEST PUSH1 0x0 PUSH1 0x40 DUP3 ADD SWAP1 POP PUSH2 0xBCE PUSH1 0x0 DUP4 ADD DUP5 PUSH2 0x8E8 JUMP JUMPDEST DUP2 DUP2 SUB PUSH1 0x20 DUP4 ADD MSTORE PUSH2 0xBDF DUP2 PUSH2 0xB96 JUMP JUMPDEST SWAP1 POP SWAP3 SWAP2 POP POP JUMP JUMPDEST PUSH1 0x0 DUP2 ISZERO ISZERO SWAP1 POP SWAP2 SWAP1 POP JUMP JUMPDEST PUSH2 0xBFC DUP2 PUSH2 0xBE7 JUMP JUMPDEST DUP2 EQ PUSH2 0xC07 JUMPI PUSH1 0x0 DUP1 REVERT JUMPDEST POP JUMP JUMPDEST PUSH1 0x0 DUP2 MLOAD SWAP1 POP PUSH2 0xC19 DUP2 PUSH2 0xBF3 JUMP JUMPDEST SWAP3 SWAP2 POP POP JUMP JUMPDEST PUSH1 0x0 PUSH1 0x20 DUP3 DUP5 SUB SLT ISZERO PUSH2 0xC35 JUMPI PUSH2 0xC34 PUSH2 0x84E JUMP JUMPDEST JUMPDEST PUSH1 0x0 PUSH2 0xC43 DUP5 DUP3 DUP6 ADD PUSH2 0xC0A JUMP JUMPDEST SWAP2 POP POP SWAP3 SWAP2 POP POP JUMP JUMPDEST PUSH32 0x4E487B7100000000000000000000000000000000000000000000000000000000 PUSH1 0x0 MSTORE PUSH1 0x11 PUSH1 0x4 MSTORE PUSH1 0x24 PUSH1 0x0 REVERT JUMPDEST PUSH1 0x0 PUSH2 0xC86 DUP3 PUSH2 0x853 JUMP JUMPDEST SWAP2 POP PUSH2 0xC91 DUP4 PUSH2 0x853 JUMP JUMPDEST SWAP3 POP DUP3 PUSH32 0xFFFFFFFFFFFFFFFFFFFFFFFFFFFFFFFFFFFFFFFFFFFFFFFFFFFFFFFFFFFFFFFF SUB DUP3 GT ISZERO PUSH2 0xCC6 JUMPI PUSH2 0xCC5 PUSH2 0xC4C JUMP JUMPDEST JUMPDEST DUP3 DUP3 ADD SWAP1 POP SWAP3 SWAP2 POP POP JUMP INVALID LOG2 PUSH5 0x6970667358 0x22 SLT KECCAK256 0xB3 SWAP6 0x4C MSTORE PUSH9 0x3C0905AF1A9DAA7620 0xE4 0x25 CODESIZE BYTE 0xE7 LT 0xF9 PUSH22 0x8EF836025D90527331364736F6C634300080D003300 "},"gasEstimates":{"creation":{"codeDepositCost":"667000","executionCost":"infinite","totalCost":"infinite"},"external":{"CampaignDescription()":"infinite","CampaignName()":"infinite","balance()":"2517","contribute()":"infinite","contributers(uint256)":"4957","getSummary()":"infinite","imageUrl()":"infinite","manager()":"2581","minimunContribution()":"2451","status()":"2583","targetToAchieve()":"2495"},"internal":{"payOut(uint256,address)":"infinite"}},"methodIdentifiers":{"CampaignDescription()":"97654a8c","CampaignName()":"7e7cd1b3","balance()":"b69ef8a8","contribute()":"d7bb99ba","contributers(uint256)":"1fbed579","getSummary()":"4051ddac","imageUrl()":"aba83150","manager()":"481c6a75","minimunContribution()":"a7f33715","status()":"200d2ed2","targetToAchieve()":"b2a87fc3"}},"storageLayout":{"storage":[{"astId":839,"contract":"Campaigns.sol:Campaign","label":"whitelist","offset":0,"slot":"0","type":"t_contract(Whitelist)747"},{"astId":854,"contract":"Campaigns.sol:Campaign","label":"manager","offset":0,"slot":"1","type":"t_address"},{"astId":856,"contract":"Campaigns.sol:Campaign","label":"minimunContribution","offset":0,"slot":"2","type":"t_uint256"},{"astId":862,"contract":"Campaigns.sol:Campaign","label":"status","offset":0,"slot":"3","type":"t_enum(Campaign_Status)859"},{"astId":864,"contract":"Campaigns.sol:Campaign","label":"CampaignName","offset":0,"slot":"4","type":"t_string_storage"},{"astId":866,"contract":"Campaigns.sol:Campaign","label":"CampaignDescription","offset":0,"slot":"5","type":"t_string_storage"},{"astId":868,"contract":"Campaigns.sol:Campaign","label":"imageUrl","offset":0,"slot":"6","type":"t_string_storage"},{"astId":870,"contract":"Campaigns.sol:Campaign","label":"balance","offset":0,"slot":"7","type":"t_uint256"},{"astId":872,"contract":"Campaigns.sol:Campaign","label":"targetToAchieve","offset":0,"slot":"8","type":"t_uint256"},{"astId":875,"contract":"Campaigns.sol:Campaign","label":"contributers","offset":0,"slot":"9","type":"t_array(t_address)dyn_storage"}],"types":{"t_address":{"encoding":"inplace","label":"address","numberOfBytes":"20"},"t_array(t_address)dyn_storage":{"base":"t_address","encoding":"dynamic_array","label":"address[]","numberOfBytes":"32"},"t_contract(Whitelist)747":{"encoding":"inplace","label":"contract Whitelist","numberOfBytes":"20"},"t_enum(Campaign_Status)859":{"encoding":"inplace","label":"enum Campaign.Campaign_Status","numberOfBytes":"1"},"t_string_storage":{"encoding":"bytes","label":"string","numberOfBytes":"32"},"t_uint256":{"encoding":"inplace","label":"uint256","numberOfBytes":"32"}}},"userdoc":{"kind":"user","methods":{},"version":1}}