{"abi":[{"anonymous":false,"inputs":[{"indexed":false,"internalType":"address","name":"addr","type":"address"},{"indexed":false,"internalType":"string","name":"roleName","type":"string"}],"name":"RoleAdded","type":"event"},{"anonymous":false,"inputs":[{"indexed":false,"internalType":"address","name":"addr","type":"address"},{"indexed":false,"internalType":"string","name":"roleName","type":"string"}],"name":"RoleRemoved","type":"event"},{"inputs":[{"internalType":"address","name":"addr","type":"address"},{"internalType":"string","name":"roleName","type":"string"}],"name":"addRole","outputs":[],"stateMutability":"nonpayable","type":"function"},{"inputs":[{"internalType":"address","name":"addr","type":"address"},{"internalType":"string","name":"roleName","type":"string"}],"name":"checkRole","outputs":[],"stateMutability":"view","type":"function"},{"inputs":[{"internalType":"address","name":"addr","type":"address"},{"internalType":"string","name":"roleName","type":"string"}],"name":"hasRole","outputs":[{"internalType":"bool","name":"","type":"bool"}],"stateMutability":"view","type":"function"}],"devdoc":{"kind":"dev","methods":{},"version":1},"evm":{"assembly":"    /* \"Campaigns.sol\":881:1790  contract RBAC {... */\n  mstore(0x40, 0x80)\n  callvalue\n  dup1\n  iszero\n  tag_1\n  jumpi\n  0x00\n  dup1\n  revert\ntag_1:\n  pop\n  dataSize(sub_0)\n  dup1\n  dataOffset(sub_0)\n  0x00\n  codecopy\n  0x00\n  return\nstop\n\nsub_0: assembly {\n        /* \"Campaigns.sol\":881:1790  contract RBAC {... */\n      mstore(0x40, 0x80)\n      callvalue\n      dup1\n      iszero\n      tag_1\n      jumpi\n      0x00\n      dup1\n      revert\n    tag_1:\n      pop\n      jumpi(tag_2, lt(calldatasize, 0x04))\n      shr(0xe0, calldataload(0x00))\n      dup1\n      0x0988ca8c\n      eq\n      tag_3\n      jumpi\n      dup1\n      0x217fe6c6\n      eq\n      tag_4\n      jumpi\n      dup1\n      0x7d72aa65\n      eq\n      tag_5\n      jumpi\n    tag_2:\n      0x00\n      dup1\n      revert\n        /* \"Campaigns.sol\":1091:1204  function checkRole(address addr, string memory roleName) public view {... */\n    tag_3:\n      tag_6\n      0x04\n      dup1\n      calldatasize\n      sub\n      dup2\n      add\n      swap1\n      tag_7\n      swap2\n      swap1\n      tag_8\n      jump\t// in\n    tag_7:\n      tag_9\n      jump\t// in\n    tag_6:\n      stop\n        /* \"Campaigns.sol\":1210:1369  function hasRole(address addr, string memory roleName)... */\n    tag_4:\n      tag_10\n      0x04\n      dup1\n      calldatasize\n      sub\n      dup2\n      add\n      swap1\n      tag_11\n      swap2\n      swap1\n      tag_8\n      jump\t// in\n    tag_11:\n      tag_12\n      jump\t// in\n    tag_10:\n      mload(0x40)\n      tag_13\n      swap2\n      swap1\n      tag_14\n      jump\t// in\n    tag_13:\n      mload(0x40)\n      dup1\n      swap2\n      sub\n      swap1\n      return\n        /* \"Campaigns.sol\":1375:1519  function addRole(address addr, string memory roleName) public {... */\n    tag_5:\n      tag_15\n      0x04\n      dup1\n      calldatasize\n      sub\n      dup2\n      add\n      swap1\n      tag_16\n      swap2\n      swap1\n      tag_8\n      jump\t// in\n    tag_16:\n      tag_17\n      jump\t// in\n    tag_15:\n      stop\n        /* \"Campaigns.sol\":1091:1204  function checkRole(address addr, string memory roleName) public view {... */\n    tag_9:\n        /* \"Campaigns.sol\":1170:1197  roles[roleName].check(addr) */\n      tag_19\n        /* \"Campaigns.sol\":1192:1196  addr */\n      dup3\n        /* \"Campaigns.sol\":1170:1175  roles */\n      0x00\n        /* \"Campaigns.sol\":1176:1184  roleName */\n      dup4\n        /* \"Campaigns.sol\":1170:1185  roles[roleName] */\n      mload(0x40)\n      tag_20\n      swap2\n      swap1\n      tag_21\n      jump\t// in\n    tag_20:\n      swap1\n      dup2\n      mstore\n      0x20\n      add\n      mload(0x40)\n      dup1\n      swap2\n      sub\n      swap1\n      keccak256\n        /* \"Campaigns.sol\":1170:1191  roles[roleName].check */\n      tag_22\n      swap1\n        /* \"Campaigns.sol\":1170:1197  roles[roleName].check(addr) */\n      swap2\n      swap1\n      0xffffffff\n      and\n      jump\t// in\n    tag_19:\n        /* \"Campaigns.sol\":1091:1204  function checkRole(address addr, string memory roleName) public view {... */\n      pop\n      pop\n      jump\t// out\n        /* \"Campaigns.sol\":1210:1369  function hasRole(address addr, string memory roleName)... */\n    tag_12:\n        /* \"Campaigns.sol\":1310:1314  bool */\n      0x00\n        /* \"Campaigns.sol\":1337:1362  roles[roleName].has(addr) */\n      tag_24\n        /* \"Campaigns.sol\":1357:1361  addr */\n      dup4\n        /* \"Campaigns.sol\":1337:1342  roles */\n      0x00\n        /* \"Campaigns.sol\":1343:1351  roleName */\n      dup5\n        /* \"Campaigns.sol\":1337:1352  roles[roleName] */\n      mload(0x40)\n      tag_25\n      swap2\n      swap1\n      tag_21\n      jump\t// in\n    tag_25:\n      swap1\n      dup2\n      mstore\n      0x20\n      add\n      mload(0x40)\n      dup1\n      swap2\n      sub\n      swap1\n      keccak256\n        /* \"Campaigns.sol\":1337:1356  roles[roleName].has */\n      tag_26\n      swap1\n        /* \"Campaigns.sol\":1337:1362  roles[roleName].has(addr) */\n      swap2\n      swap1\n      0xffffffff\n      and\n      jump\t// in\n    tag_24:\n        /* \"Campaigns.sol\":1330:1362  return roles[roleName].has(addr) */\n      swap1\n      pop\n        /* \"Campaigns.sol\":1210:1369  function hasRole(address addr, string memory roleName)... */\n      swap3\n      swap2\n      pop\n      pop\n      jump\t// out\n        /* \"Campaigns.sol\":1375:1519  function addRole(address addr, string memory roleName) public {... */\n    tag_17:\n        /* \"Campaigns.sol\":1447:1472  roles[roleName].add(addr) */\n      tag_28\n        /* \"Campaigns.sol\":1467:1471  addr */\n      dup3\n        /* \"Campaigns.sol\":1447:1452  roles */\n      0x00\n        /* \"Campaigns.sol\":1453:1461  roleName */\n      dup4\n        /* \"Campaigns.sol\":1447:1462  roles[roleName] */\n      mload(0x40)\n      tag_29\n      swap2\n      swap1\n      tag_21\n      jump\t// in\n    tag_29:\n      swap1\n      dup2\n      mstore\n      0x20\n      add\n      mload(0x40)\n      dup1\n      swap2\n      sub\n      swap1\n      keccak256\n        /* \"Campaigns.sol\":1447:1466  roles[roleName].add */\n      tag_30\n      swap1\n        /* \"Campaigns.sol\":1447:1472  roles[roleName].add(addr) */\n      swap2\n      swap1\n      0xffffffff\n      and\n      jump\t// in\n    tag_28:\n        /* \"Campaigns.sol\":1487:1512  RoleAdded(addr, roleName) */\n      0xbfec83d64eaa953f2708271a023ab9ee82057f8f3578d548c1a4ba0b5b700489\n        /* \"Campaigns.sol\":1497:1501  addr */\n      dup3\n        /* \"Campaigns.sol\":1503:1511  roleName */\n      dup3\n        /* \"Campaigns.sol\":1487:1512  RoleAdded(addr, roleName) */\n      mload(0x40)\n      tag_31\n      swap3\n      swap2\n      swap1\n      tag_32\n      jump\t// in\n    tag_31:\n      mload(0x40)\n      dup1\n      swap2\n      sub\n      swap1\n      log1\n        /* \"Campaigns.sol\":1375:1519  function addRole(address addr, string memory roleName) public {... */\n      pop\n      pop\n      jump\t// out\n        /* \"Campaigns.sol\":571:674  function check(Role storage role, address addr) internal view {... */\n    tag_22:\n        /* \"Campaigns.sol\":651:666  has(role, addr) */\n      tag_34\n        /* \"Campaigns.sol\":655:659  role */\n      dup3\n        /* \"Campaigns.sol\":661:665  addr */\n      dup3\n        /* \"Campaigns.sol\":651:654  has */\n      tag_26\n        /* \"Campaigns.sol\":651:666  has(role, addr) */\n      jump\t// in\n    tag_34:\n        /* \"Campaigns.sol\":643:667  require(has(role, addr)) */\n      tag_35\n      jumpi\n      0x00\n      dup1\n      revert\n    tag_35:\n        /* \"Campaigns.sol\":571:674  function check(Role storage role, address addr) internal view {... */\n      pop\n      pop\n      jump\t// out\n        /* \"Campaigns.sol\":761:877  function has(Role storage role, address addr) internal view returns (bool) {... */\n    tag_26:\n        /* \"Campaigns.sol\":830:834  bool */\n      0x00\n        /* \"Campaigns.sol\":853:857  role */\n      dup3\n        /* \"Campaigns.sol\":853:864  role.bearer */\n      0x00\n      add\n        /* \"Campaigns.sol\":853:870  role.bearer[addr] */\n      0x00\n        /* \"Campaigns.sol\":865:869  addr */\n      dup4\n        /* \"Campaigns.sol\":853:870  role.bearer[addr] */\n      0xffffffffffffffffffffffffffffffffffffffff\n      and\n      0xffffffffffffffffffffffffffffffffffffffff\n      and\n      dup2\n      mstore\n      0x20\n      add\n      swap1\n      dup2\n      mstore\n      0x20\n      add\n      0x00\n      keccak256\n      0x00\n      swap1\n      sload\n      swap1\n      0x0100\n      exp\n      swap1\n      div\n      0xff\n      and\n        /* \"Campaigns.sol\":846:870  return role.bearer[addr] */\n      swap1\n      pop\n        /* \"Campaigns.sol\":761:877  function has(Role storage role, address addr) internal view returns (bool) {... */\n      swap3\n      swap2\n      pop\n      pop\n      jump\t// out\n        /* \"Campaigns.sol\":217:313  function add(Role storage role, address addr) internal {... */\n    tag_30:\n        /* \"Campaigns.sol\":302:306  true */\n      0x01\n        /* \"Campaigns.sol\":282:286  role */\n      dup3\n        /* \"Campaigns.sol\":282:293  role.bearer */\n      0x00\n      add\n        /* \"Campaigns.sol\":282:299  role.bearer[addr] */\n      0x00\n        /* \"Campaigns.sol\":294:298  addr */\n      dup4\n        /* \"Campaigns.sol\":282:299  role.bearer[addr] */\n      0xffffffffffffffffffffffffffffffffffffffff\n      and\n      0xffffffffffffffffffffffffffffffffffffffff\n      and\n      dup2\n      mstore\n      0x20\n      add\n      swap1\n      dup2\n      mstore\n      0x20\n      add\n      0x00\n      keccak256\n      0x00\n        /* \"Campaigns.sol\":282:306  role.bearer[addr] = true */\n      0x0100\n      exp\n      dup2\n      sload\n      dup2\n      0xff\n      mul\n      not\n      and\n      swap1\n      dup4\n      iszero\n      iszero\n      mul\n      or\n      swap1\n      sstore\n      pop\n        /* \"Campaigns.sol\":217:313  function add(Role storage role, address addr) internal {... */\n      pop\n      pop\n      jump\t// out\n        /* \"#utility.yul\":7:82   */\n    tag_38:\n        /* \"#utility.yul\":40:46   */\n      0x00\n        /* \"#utility.yul\":73:75   */\n      0x40\n        /* \"#utility.yul\":67:76   */\n      mload\n        /* \"#utility.yul\":57:76   */\n      swap1\n      pop\n        /* \"#utility.yul\":7:82   */\n      swap1\n      jump\t// out\n        /* \"#utility.yul\":88:205   */\n    tag_39:\n        /* \"#utility.yul\":197:198   */\n      0x00\n        /* \"#utility.yul\":194:195   */\n      dup1\n        /* \"#utility.yul\":187:199   */\n      revert\n        /* \"#utility.yul\":211:328   */\n    tag_40:\n        /* \"#utility.yul\":320:321   */\n      0x00\n        /* \"#utility.yul\":317:318   */\n      dup1\n        /* \"#utility.yul\":310:322   */\n      revert\n        /* \"#utility.yul\":334:460   */\n    tag_41:\n        /* \"#utility.yul\":371:378   */\n      0x00\n        /* \"#utility.yul\":411:453   */\n      0xffffffffffffffffffffffffffffffffffffffff\n        /* \"#utility.yul\":404:409   */\n      dup3\n        /* \"#utility.yul\":400:454   */\n      and\n        /* \"#utility.yul\":389:454   */\n      swap1\n      pop\n        /* \"#utility.yul\":334:460   */\n      swap2\n      swap1\n      pop\n      jump\t// out\n        /* \"#utility.yul\":466:562   */\n    tag_42:\n        /* \"#utility.yul\":503:510   */\n      0x00\n        /* \"#utility.yul\":532:556   */\n      tag_70\n        /* \"#utility.yul\":550:555   */\n      dup3\n        /* \"#utility.yul\":532:556   */\n      tag_41\n      jump\t// in\n    tag_70:\n        /* \"#utility.yul\":521:556   */\n      swap1\n      pop\n        /* \"#utility.yul\":466:562   */\n      swap2\n      swap1\n      pop\n      jump\t// out\n        /* \"#utility.yul\":568:690   */\n    tag_43:\n        /* \"#utility.yul\":641:665   */\n      tag_72\n        /* \"#utility.yul\":659:664   */\n      dup2\n        /* \"#utility.yul\":641:665   */\n      tag_42\n      jump\t// in\n    tag_72:\n        /* \"#utility.yul\":634:639   */\n      dup2\n        /* \"#utility.yul\":631:666   */\n      eq\n        /* \"#utility.yul\":621:684   */\n      tag_73\n      jumpi\n        /* \"#utility.yul\":680:681   */\n      0x00\n        /* \"#utility.yul\":677:678   */\n      dup1\n        /* \"#utility.yul\":670:682   */\n      revert\n        /* \"#utility.yul\":621:684   */\n    tag_73:\n        /* \"#utility.yul\":568:690   */\n      pop\n      jump\t// out\n        /* \"#utility.yul\":696:835   */\n    tag_44:\n        /* \"#utility.yul\":742:747   */\n      0x00\n        /* \"#utility.yul\":780:786   */\n      dup2\n        /* \"#utility.yul\":767:787   */\n      calldataload\n        /* \"#utility.yul\":758:787   */\n      swap1\n      pop\n        /* \"#utility.yul\":796:829   */\n      tag_75\n        /* \"#utility.yul\":823:828   */\n      dup2\n        /* \"#utility.yul\":796:829   */\n      tag_43\n      jump\t// in\n    tag_75:\n        /* \"#utility.yul\":696:835   */\n      swap3\n      swap2\n      pop\n      pop\n      jump\t// out\n        /* \"#utility.yul\":841:958   */\n    tag_45:\n        /* \"#utility.yul\":950:951   */\n      0x00\n        /* \"#utility.yul\":947:948   */\n      dup1\n        /* \"#utility.yul\":940:952   */\n      revert\n        /* \"#utility.yul\":964:1081   */\n    tag_46:\n        /* \"#utility.yul\":1073:1074   */\n      0x00\n        /* \"#utility.yul\":1070:1071   */\n      dup1\n        /* \"#utility.yul\":1063:1075   */\n      revert\n        /* \"#utility.yul\":1087:1189   */\n    tag_47:\n        /* \"#utility.yul\":1128:1134   */\n      0x00\n        /* \"#utility.yul\":1179:1181   */\n      0x1f\n        /* \"#utility.yul\":1175:1182   */\n      not\n        /* \"#utility.yul\":1170:1172   */\n      0x1f\n        /* \"#utility.yul\":1163:1168   */\n      dup4\n        /* \"#utility.yul\":1159:1173   */\n      add\n        /* \"#utility.yul\":1155:1183   */\n      and\n        /* \"#utility.yul\":1145:1183   */\n      swap1\n      pop\n        /* \"#utility.yul\":1087:1189   */\n      swap2\n      swap1\n      pop\n      jump\t// out\n        /* \"#utility.yul\":1195:1375   */\n    tag_48:\n        /* \"#utility.yul\":1243:1320   */\n      0x4e487b7100000000000000000000000000000000000000000000000000000000\n        /* \"#utility.yul\":1240:1241   */\n      0x00\n        /* \"#utility.yul\":1233:1321   */\n      mstore\n        /* \"#utility.yul\":1340:1344   */\n      0x41\n        /* \"#utility.yul\":1337:1338   */\n      0x04\n        /* \"#utility.yul\":1330:1345   */\n      mstore\n        /* \"#utility.yul\":1364:1368   */\n      0x24\n        /* \"#utility.yul\":1361:1362   */\n      0x00\n        /* \"#utility.yul\":1354:1369   */\n      revert\n        /* \"#utility.yul\":1381:1662   */\n    tag_49:\n        /* \"#utility.yul\":1464:1491   */\n      tag_81\n        /* \"#utility.yul\":1486:1490   */\n      dup3\n        /* \"#utility.yul\":1464:1491   */\n      tag_47\n      jump\t// in\n    tag_81:\n        /* \"#utility.yul\":1456:1462   */\n      dup2\n        /* \"#utility.yul\":1452:1492   */\n      add\n        /* \"#utility.yul\":1594:1600   */\n      dup2\n        /* \"#utility.yul\":1582:1592   */\n      dup2\n        /* \"#utility.yul\":1579:1601   */\n      lt\n        /* \"#utility.yul\":1558:1576   */\n      0xffffffffffffffff\n        /* \"#utility.yul\":1546:1556   */\n      dup3\n        /* \"#utility.yul\":1543:1577   */\n      gt\n        /* \"#utility.yul\":1540:1602   */\n      or\n        /* \"#utility.yul\":1537:1625   */\n      iszero\n      tag_82\n      jumpi\n        /* \"#utility.yul\":1605:1623   */\n      tag_83\n      tag_48\n      jump\t// in\n    tag_83:\n        /* \"#utility.yul\":1537:1625   */\n    tag_82:\n        /* \"#utility.yul\":1645:1655   */\n      dup1\n        /* \"#utility.yul\":1641:1643   */\n      0x40\n        /* \"#utility.yul\":1634:1656   */\n      mstore\n        /* \"#utility.yul\":1424:1662   */\n      pop\n        /* \"#utility.yul\":1381:1662   */\n      pop\n      pop\n      jump\t// out\n        /* \"#utility.yul\":1668:1797   */\n    tag_50:\n        /* \"#utility.yul\":1702:1708   */\n      0x00\n        /* \"#utility.yul\":1729:1749   */\n      tag_85\n      tag_38\n      jump\t// in\n    tag_85:\n        /* \"#utility.yul\":1719:1749   */\n      swap1\n      pop\n        /* \"#utility.yul\":1758:1791   */\n      tag_86\n        /* \"#utility.yul\":1786:1790   */\n      dup3\n        /* \"#utility.yul\":1778:1784   */\n      dup3\n        /* \"#utility.yul\":1758:1791   */\n      tag_49\n      jump\t// in\n    tag_86:\n        /* \"#utility.yul\":1668:1797   */\n      swap2\n      swap1\n      pop\n      jump\t// out\n        /* \"#utility.yul\":1803:2111   */\n    tag_51:\n        /* \"#utility.yul\":1865:1869   */\n      0x00\n        /* \"#utility.yul\":1955:1973   */\n      0xffffffffffffffff\n        /* \"#utility.yul\":1947:1953   */\n      dup3\n        /* \"#utility.yul\":1944:1974   */\n      gt\n        /* \"#utility.yul\":1941:1997   */\n      iszero\n      tag_88\n      jumpi\n        /* \"#utility.yul\":1977:1995   */\n      tag_89\n      tag_48\n      jump\t// in\n    tag_89:\n        /* \"#utility.yul\":1941:1997   */\n    tag_88:\n        /* \"#utility.yul\":2015:2044   */\n      tag_90\n        /* \"#utility.yul\":2037:2043   */\n      dup3\n        /* \"#utility.yul\":2015:2044   */\n      tag_47\n      jump\t// in\n    tag_90:\n        /* \"#utility.yul\":2007:2044   */\n      swap1\n      pop\n        /* \"#utility.yul\":2099:2103   */\n      0x20\n        /* \"#utility.yul\":2093:2097   */\n      dup2\n        /* \"#utility.yul\":2089:2104   */\n      add\n        /* \"#utility.yul\":2081:2104   */\n      swap1\n      pop\n        /* \"#utility.yul\":1803:2111   */\n      swap2\n      swap1\n      pop\n      jump\t// out\n        /* \"#utility.yul\":2117:2271   */\n    tag_52:\n        /* \"#utility.yul\":2201:2207   */\n      dup3\n        /* \"#utility.yul\":2196:2199   */\n      dup2\n        /* \"#utility.yul\":2191:2194   */\n      dup4\n        /* \"#utility.yul\":2178:2208   */\n      calldatacopy\n        /* \"#utility.yul\":2263:2264   */\n      0x00\n        /* \"#utility.yul\":2254:2260   */\n      dup4\n        /* \"#utility.yul\":2249:2252   */\n      dup4\n        /* \"#utility.yul\":2245:2261   */\n      add\n        /* \"#utility.yul\":2238:2265   */\n      mstore\n        /* \"#utility.yul\":2117:2271   */\n      pop\n      pop\n      pop\n      jump\t// out\n        /* \"#utility.yul\":2277:2689   */\n    tag_53:\n        /* \"#utility.yul\":2355:2360   */\n      0x00\n        /* \"#utility.yul\":2380:2446   */\n      tag_93\n        /* \"#utility.yul\":2396:2445   */\n      tag_94\n        /* \"#utility.yul\":2438:2444   */\n      dup5\n        /* \"#utility.yul\":2396:2445   */\n      tag_51\n      jump\t// in\n    tag_94:\n        /* \"#utility.yul\":2380:2446   */\n      tag_50\n      jump\t// in\n    tag_93:\n        /* \"#utility.yul\":2371:2446   */\n      swap1\n      pop\n        /* \"#utility.yul\":2469:2475   */\n      dup3\n        /* \"#utility.yul\":2462:2467   */\n      dup2\n        /* \"#utility.yul\":2455:2476   */\n      mstore\n        /* \"#utility.yul\":2507:2511   */\n      0x20\n        /* \"#utility.yul\":2500:2505   */\n      dup2\n        /* \"#utility.yul\":2496:2512   */\n      add\n        /* \"#utility.yul\":2545:2548   */\n      dup5\n        /* \"#utility.yul\":2536:2542   */\n      dup5\n        /* \"#utility.yul\":2531:2534   */\n      dup5\n        /* \"#utility.yul\":2527:2543   */\n      add\n        /* \"#utility.yul\":2524:2549   */\n      gt\n        /* \"#utility.yul\":2521:2633   */\n      iszero\n      tag_95\n      jumpi\n        /* \"#utility.yul\":2552:2631   */\n      tag_96\n      tag_46\n      jump\t// in\n    tag_96:\n        /* \"#utility.yul\":2521:2633   */\n    tag_95:\n        /* \"#utility.yul\":2642:2683   */\n      tag_97\n        /* \"#utility.yul\":2676:2682   */\n      dup5\n        /* \"#utility.yul\":2671:2674   */\n      dup3\n        /* \"#utility.yul\":2666:2669   */\n      dup6\n        /* \"#utility.yul\":2642:2683   */\n      tag_52\n      jump\t// in\n    tag_97:\n        /* \"#utility.yul\":2361:2689   */\n      pop\n        /* \"#utility.yul\":2277:2689   */\n      swap4\n      swap3\n      pop\n      pop\n      pop\n      jump\t// out\n        /* \"#utility.yul\":2709:3049   */\n    tag_54:\n        /* \"#utility.yul\":2765:2770   */\n      0x00\n        /* \"#utility.yul\":2814:2817   */\n      dup3\n        /* \"#utility.yul\":2807:2811   */\n      0x1f\n        /* \"#utility.yul\":2799:2805   */\n      dup4\n        /* \"#utility.yul\":2795:2812   */\n      add\n        /* \"#utility.yul\":2791:2818   */\n      slt\n        /* \"#utility.yul\":2781:2903   */\n      tag_99\n      jumpi\n        /* \"#utility.yul\":2822:2901   */\n      tag_100\n      tag_45\n      jump\t// in\n    tag_100:\n        /* \"#utility.yul\":2781:2903   */\n    tag_99:\n        /* \"#utility.yul\":2939:2945   */\n      dup2\n        /* \"#utility.yul\":2926:2946   */\n      calldataload\n        /* \"#utility.yul\":2964:3043   */\n      tag_101\n        /* \"#utility.yul\":3039:3042   */\n      dup5\n        /* \"#utility.yul\":3031:3037   */\n      dup3\n        /* \"#utility.yul\":3024:3028   */\n      0x20\n        /* \"#utility.yul\":3016:3022   */\n      dup7\n        /* \"#utility.yul\":3012:3029   */\n      add\n        /* \"#utility.yul\":2964:3043   */\n      tag_53\n      jump\t// in\n    tag_101:\n        /* \"#utility.yul\":2955:3043   */\n      swap2\n      pop\n        /* \"#utility.yul\":2771:3049   */\n      pop\n        /* \"#utility.yul\":2709:3049   */\n      swap3\n      swap2\n      pop\n      pop\n      jump\t// out\n        /* \"#utility.yul\":3055:3709   */\n    tag_8:\n        /* \"#utility.yul\":3133:3139   */\n      0x00\n        /* \"#utility.yul\":3141:3147   */\n      dup1\n        /* \"#utility.yul\":3190:3192   */\n      0x40\n        /* \"#utility.yul\":3178:3187   */\n      dup4\n        /* \"#utility.yul\":3169:3176   */\n      dup6\n        /* \"#utility.yul\":3165:3188   */\n      sub\n        /* \"#utility.yul\":3161:3193   */\n      slt\n        /* \"#utility.yul\":3158:3277   */\n      iszero\n      tag_103\n      jumpi\n        /* \"#utility.yul\":3196:3275   */\n      tag_104\n      tag_39\n      jump\t// in\n    tag_104:\n        /* \"#utility.yul\":3158:3277   */\n    tag_103:\n        /* \"#utility.yul\":3316:3317   */\n      0x00\n        /* \"#utility.yul\":3341:3394   */\n      tag_105\n        /* \"#utility.yul\":3386:3393   */\n      dup6\n        /* \"#utility.yul\":3377:3383   */\n      dup3\n        /* \"#utility.yul\":3366:3375   */\n      dup7\n        /* \"#utility.yul\":3362:3384   */\n      add\n        /* \"#utility.yul\":3341:3394   */\n      tag_44\n      jump\t// in\n    tag_105:\n        /* \"#utility.yul\":3331:3394   */\n      swap3\n      pop\n        /* \"#utility.yul\":3287:3404   */\n      pop\n        /* \"#utility.yul\":3471:3473   */\n      0x20\n        /* \"#utility.yul\":3460:3469   */\n      dup4\n        /* \"#utility.yul\":3456:3474   */\n      add\n        /* \"#utility.yul\":3443:3475   */\n      calldataload\n        /* \"#utility.yul\":3502:3520   */\n      0xffffffffffffffff\n        /* \"#utility.yul\":3494:3500   */\n      dup2\n        /* \"#utility.yul\":3491:3521   */\n      gt\n        /* \"#utility.yul\":3488:3605   */\n      iszero\n      tag_106\n      jumpi\n        /* \"#utility.yul\":3524:3603   */\n      tag_107\n      tag_40\n      jump\t// in\n    tag_107:\n        /* \"#utility.yul\":3488:3605   */\n    tag_106:\n        /* \"#utility.yul\":3629:3692   */\n      tag_108\n        /* \"#utility.yul\":3684:3691   */\n      dup6\n        /* \"#utility.yul\":3675:3681   */\n      dup3\n        /* \"#utility.yul\":3664:3673   */\n      dup7\n        /* \"#utility.yul\":3660:3682   */\n      add\n        /* \"#utility.yul\":3629:3692   */\n      tag_54\n      jump\t// in\n    tag_108:\n        /* \"#utility.yul\":3619:3692   */\n      swap2\n      pop\n        /* \"#utility.yul\":3414:3702   */\n      pop\n        /* \"#utility.yul\":3055:3709   */\n      swap3\n      pop\n      swap3\n      swap1\n      pop\n      jump\t// out\n        /* \"#utility.yul\":3715:3805   */\n    tag_55:\n        /* \"#utility.yul\":3749:3756   */\n      0x00\n        /* \"#utility.yul\":3792:3797   */\n      dup2\n        /* \"#utility.yul\":3785:3798   */\n      iszero\n        /* \"#utility.yul\":3778:3799   */\n      iszero\n        /* \"#utility.yul\":3767:3799   */\n      swap1\n      pop\n        /* \"#utility.yul\":3715:3805   */\n      swap2\n      swap1\n      pop\n      jump\t// out\n        /* \"#utility.yul\":3811:3920   */\n    tag_56:\n        /* \"#utility.yul\":3892:3913   */\n      tag_111\n        /* \"#utility.yul\":3907:3912   */\n      dup2\n        /* \"#utility.yul\":3892:3913   */\n      tag_55\n      jump\t// in\n    tag_111:\n        /* \"#utility.yul\":3887:3890   */\n      dup3\n        /* \"#utility.yul\":3880:3914   */\n      mstore\n        /* \"#utility.yul\":3811:3920   */\n      pop\n      pop\n      jump\t// out\n        /* \"#utility.yul\":3926:4136   */\n    tag_14:\n        /* \"#utility.yul\":4013:4017   */\n      0x00\n        /* \"#utility.yul\":4051:4053   */\n      0x20\n        /* \"#utility.yul\":4040:4049   */\n      dup3\n        /* \"#utility.yul\":4036:4054   */\n      add\n        /* \"#utility.yul\":4028:4054   */\n      swap1\n      pop\n        /* \"#utility.yul\":4064:4129   */\n      tag_113\n        /* \"#utility.yul\":4126:4127   */\n      0x00\n        /* \"#utility.yul\":4115:4124   */\n      dup4\n        /* \"#utility.yul\":4111:4128   */\n      add\n        /* \"#utility.yul\":4102:4108   */\n      dup5\n        /* \"#utility.yul\":4064:4129   */\n      tag_56\n      jump\t// in\n    tag_113:\n        /* \"#utility.yul\":3926:4136   */\n      swap3\n      swap2\n      pop\n      pop\n      jump\t// out\n        /* \"#utility.yul\":4142:4241   */\n    tag_57:\n        /* \"#utility.yul\":4194:4200   */\n      0x00\n        /* \"#utility.yul\":4228:4233   */\n      dup2\n        /* \"#utility.yul\":4222:4234   */\n      mload\n        /* \"#utility.yul\":4212:4234   */\n      swap1\n      pop\n        /* \"#utility.yul\":4142:4241   */\n      swap2\n      swap1\n      pop\n      jump\t// out\n        /* \"#utility.yul\":4247:4395   */\n    tag_58:\n        /* \"#utility.yul\":4349:4360   */\n      0x00\n        /* \"#utility.yul\":4386:4389   */\n      dup2\n        /* \"#utility.yul\":4371:4389   */\n      swap1\n      pop\n        /* \"#utility.yul\":4247:4395   */\n      swap3\n      swap2\n      pop\n      pop\n      jump\t// out\n        /* \"#utility.yul\":4401:4708   */\n    tag_59:\n        /* \"#utility.yul\":4469:4470   */\n      0x00\n        /* \"#utility.yul\":4479:4592   */\n    tag_117:\n        /* \"#utility.yul\":4493:4499   */\n      dup4\n        /* \"#utility.yul\":4490:4491   */\n      dup2\n        /* \"#utility.yul\":4487:4500   */\n      lt\n        /* \"#utility.yul\":4479:4592   */\n      iszero\n      tag_119\n      jumpi\n        /* \"#utility.yul\":4578:4579   */\n      dup1\n        /* \"#utility.yul\":4573:4576   */\n      dup3\n        /* \"#utility.yul\":4569:4580   */\n      add\n        /* \"#utility.yul\":4563:4581   */\n      mload\n        /* \"#utility.yul\":4559:4560   */\n      dup2\n        /* \"#utility.yul\":4554:4557   */\n      dup5\n        /* \"#utility.yul\":4550:4561   */\n      add\n        /* \"#utility.yul\":4543:4582   */\n      mstore\n        /* \"#utility.yul\":4515:4517   */\n      0x20\n        /* \"#utility.yul\":4512:4513   */\n      dup2\n        /* \"#utility.yul\":4508:4518   */\n      add\n        /* \"#utility.yul\":4503:4518   */\n      swap1\n      pop\n        /* \"#utility.yul\":4479:4592   */\n      jump(tag_117)\n    tag_119:\n        /* \"#utility.yul\":4610:4616   */\n      dup4\n        /* \"#utility.yul\":4607:4608   */\n      dup2\n        /* \"#utility.yul\":4604:4617   */\n      gt\n        /* \"#utility.yul\":4601:4702   */\n      iszero\n      tag_120\n      jumpi\n        /* \"#utility.yul\":4690:4691   */\n      0x00\n        /* \"#utility.yul\":4681:4687   */\n      dup5\n        /* \"#utility.yul\":4676:4679   */\n      dup5\n        /* \"#utility.yul\":4672:4688   */\n      add\n        /* \"#utility.yul\":4665:4692   */\n      mstore\n        /* \"#utility.yul\":4601:4702   */\n    tag_120:\n        /* \"#utility.yul\":4450:4708   */\n      pop\n        /* \"#utility.yul\":4401:4708   */\n      pop\n      pop\n      pop\n      jump\t// out\n        /* \"#utility.yul\":4714:5091   */\n    tag_60:\n        /* \"#utility.yul\":4820:4823   */\n      0x00\n        /* \"#utility.yul\":4848:4887   */\n      tag_122\n        /* \"#utility.yul\":4881:4886   */\n      dup3\n        /* \"#utility.yul\":4848:4887   */\n      tag_57\n      jump\t// in\n    tag_122:\n        /* \"#utility.yul\":4903:4992   */\n      tag_123\n        /* \"#utility.yul\":4985:4991   */\n      dup2\n        /* \"#utility.yul\":4980:4983   */\n      dup6\n        /* \"#utility.yul\":4903:4992   */\n      tag_58\n      jump\t// in\n    tag_123:\n        /* \"#utility.yul\":4896:4992   */\n      swap4\n      pop\n        /* \"#utility.yul\":5001:5053   */\n      tag_124\n        /* \"#utility.yul\":5046:5052   */\n      dup2\n        /* \"#utility.yul\":5041:5044   */\n      dup6\n        /* \"#utility.yul\":5034:5038   */\n      0x20\n        /* \"#utility.yul\":5027:5032   */\n      dup7\n        /* \"#utility.yul\":5023:5039   */\n      add\n        /* \"#utility.yul\":5001:5053   */\n      tag_59\n      jump\t// in\n    tag_124:\n        /* \"#utility.yul\":5078:5084   */\n      dup1\n        /* \"#utility.yul\":5073:5076   */\n      dup5\n        /* \"#utility.yul\":5069:5085   */\n      add\n        /* \"#utility.yul\":5062:5085   */\n      swap2\n      pop\n        /* \"#utility.yul\":4824:5091   */\n      pop\n        /* \"#utility.yul\":4714:5091   */\n      swap3\n      swap2\n      pop\n      pop\n      jump\t// out\n        /* \"#utility.yul\":5097:5372   */\n    tag_21:\n        /* \"#utility.yul\":5229:5232   */\n      0x00\n        /* \"#utility.yul\":5251:5346   */\n      tag_126\n        /* \"#utility.yul\":5342:5345   */\n      dup3\n        /* \"#utility.yul\":5333:5339   */\n      dup5\n        /* \"#utility.yul\":5251:5346   */\n      tag_60\n      jump\t// in\n    tag_126:\n        /* \"#utility.yul\":5244:5346   */\n      swap2\n      pop\n        /* \"#utility.yul\":5363:5366   */\n      dup2\n        /* \"#utility.yul\":5356:5366   */\n      swap1\n      pop\n        /* \"#utility.yul\":5097:5372   */\n      swap3\n      swap2\n      pop\n      pop\n      jump\t// out\n        /* \"#utility.yul\":5378:5496   */\n    tag_61:\n        /* \"#utility.yul\":5465:5489   */\n      tag_128\n        /* \"#utility.yul\":5483:5488   */\n      dup2\n        /* \"#utility.yul\":5465:5489   */\n      tag_42\n      jump\t// in\n    tag_128:\n        /* \"#utility.yul\":5460:5463   */\n      dup3\n        /* \"#utility.yul\":5453:5490   */\n      mstore\n        /* \"#utility.yul\":5378:5496   */\n      pop\n      pop\n      jump\t// out\n        /* \"#utility.yul\":5502:5671   */\n    tag_62:\n        /* \"#utility.yul\":5586:5597   */\n      0x00\n        /* \"#utility.yul\":5620:5626   */\n      dup3\n        /* \"#utility.yul\":5615:5618   */\n      dup3\n        /* \"#utility.yul\":5608:5627   */\n      mstore\n        /* \"#utility.yul\":5660:5664   */\n      0x20\n        /* \"#utility.yul\":5655:5658   */\n      dup3\n        /* \"#utility.yul\":5651:5665   */\n      add\n        /* \"#utility.yul\":5636:5665   */\n      swap1\n      pop\n        /* \"#utility.yul\":5502:5671   */\n      swap3\n      swap2\n      pop\n      pop\n      jump\t// out\n        /* \"#utility.yul\":5677:6041   */\n    tag_63:\n        /* \"#utility.yul\":5765:5768   */\n      0x00\n        /* \"#utility.yul\":5793:5832   */\n      tag_131\n        /* \"#utility.yul\":5826:5831   */\n      dup3\n        /* \"#utility.yul\":5793:5832   */\n      tag_57\n      jump\t// in\n    tag_131:\n        /* \"#utility.yul\":5848:5919   */\n      tag_132\n        /* \"#utility.yul\":5912:5918   */\n      dup2\n        /* \"#utility.yul\":5907:5910   */\n      dup6\n        /* \"#utility.yul\":5848:5919   */\n      tag_62\n      jump\t// in\n    tag_132:\n        /* \"#utility.yul\":5841:5919   */\n      swap4\n      pop\n        /* \"#utility.yul\":5928:5980   */\n      tag_133\n        /* \"#utility.yul\":5973:5979   */\n      dup2\n        /* \"#utility.yul\":5968:5971   */\n      dup6\n        /* \"#utility.yul\":5961:5965   */\n      0x20\n        /* \"#utility.yul\":5954:5959   */\n      dup7\n        /* \"#utility.yul\":5950:5966   */\n      add\n        /* \"#utility.yul\":5928:5980   */\n      tag_59\n      jump\t// in\n    tag_133:\n        /* \"#utility.yul\":6005:6034   */\n      tag_134\n        /* \"#utility.yul\":6027:6033   */\n      dup2\n        /* \"#utility.yul\":6005:6034   */\n      tag_47\n      jump\t// in\n    tag_134:\n        /* \"#utility.yul\":6000:6003   */\n      dup5\n        /* \"#utility.yul\":5996:6035   */\n      add\n        /* \"#utility.yul\":5989:6035   */\n      swap2\n      pop\n        /* \"#utility.yul\":5769:6041   */\n      pop\n        /* \"#utility.yul\":5677:6041   */\n      swap3\n      swap2\n      pop\n      pop\n      jump\t// out\n        /* \"#utility.yul\":6047:6470   */\n    tag_32:\n        /* \"#utility.yul\":6188:6192   */\n      0x00\n        /* \"#utility.yul\":6226:6228   */\n      0x40\n        /* \"#utility.yul\":6215:6224   */\n      dup3\n        /* \"#utility.yul\":6211:6229   */\n      add\n        /* \"#utility.yul\":6203:6229   */\n      swap1\n      pop\n        /* \"#utility.yul\":6239:6310   */\n      tag_136\n        /* \"#utility.yul\":6307:6308   */\n      0x00\n        /* \"#utility.yul\":6296:6305   */\n      dup4\n        /* \"#utility.yul\":6292:6309   */\n      add\n        /* \"#utility.yul\":6283:6289   */\n      dup6\n        /* \"#utility.yul\":6239:6310   */\n      tag_61\n      jump\t// in\n    tag_136:\n        /* \"#utility.yul\":6357:6366   */\n      dup2\n        /* \"#utility.yul\":6351:6355   */\n      dup2\n        /* \"#utility.yul\":6347:6367   */\n      sub\n        /* \"#utility.yul\":6342:6344   */\n      0x20\n        /* \"#utility.yul\":6331:6340   */\n      dup4\n        /* \"#utility.yul\":6327:6345   */\n      add\n        /* \"#utility.yul\":6320:6368   */\n      mstore\n        /* \"#utility.yul\":6385:6463   */\n      tag_137\n        /* \"#utility.yul\":6458:6462   */\n      dup2\n        /* \"#utility.yul\":6449:6455   */\n      dup5\n        /* \"#utility.yul\":6385:6463   */\n      tag_63\n      jump\t// in\n    tag_137:\n        /* \"#utility.yul\":6377:6463   */\n      swap1\n      pop\n        /* \"#utility.yul\":6047:6470   */\n      swap4\n      swap3\n      pop\n      pop\n      pop\n      jump\t// out\n\n    auxdata: 0xa2646970667358221220b25841037482210243123df0dec04323b38230322f8e4dd6099d25407267e1c264736f6c634300080d0033\n}\n","bytecode":{"linkReferences":{},"object":"608060405234801561001057600080fd5b506105f1806100206000396000f3fe608060405234801561001057600080fd5b50600436106100415760003560e01c80630988ca8c14610046578063217fe6c6146100625780637d72aa6514610092575b600080fd5b610060600480360381019061005b919061040f565b6100ae565b005b61007c6004803603810190610077919061040f565b6100e2565b6040516100899190610486565b60405180910390f35b6100ac60048036038101906100a7919061040f565b61011c565b005b6100de826000836040516100c2919061051b565b908152602001604051809103902061018990919063ffffffff16565b5050565b6000610114836000846040516100f8919061051b565b90815260200160405180910390206101a090919063ffffffff16565b905092915050565b61014c82600083604051610130919061051b565b90815260200160405180910390206101f990919063ffffffff16565b7fbfec83d64eaa953f2708271a023ab9ee82057f8f3578d548c1a4ba0b5b700489828260405161017d92919061058b565b60405180910390a15050565b61019382826101a0565b61019c57600080fd5b5050565b60008260000160008373ffffffffffffffffffffffffffffffffffffffff1673ffffffffffffffffffffffffffffffffffffffff16815260200190815260200160002060009054906101000a900460ff16905092915050565b60018260000160008373ffffffffffffffffffffffffffffffffffffffff1673ffffffffffffffffffffffffffffffffffffffff16815260200190815260200160002060006101000a81548160ff0219169083151502179055505050565b6000604051905090565b600080fd5b600080fd5b600073ffffffffffffffffffffffffffffffffffffffff82169050919050565b60006102968261026b565b9050919050565b6102a68161028b565b81146102b157600080fd5b50565b6000813590506102c38161029d565b92915050565b600080fd5b600080fd5b6000601f19601f8301169050919050565b7f4e487b7100000000000000000000000000000000000000000000000000000000600052604160045260246000fd5b61031c826102d3565b810181811067ffffffffffffffff8211171561033b5761033a6102e4565b5b80604052505050565b600061034e610257565b905061035a8282610313565b919050565b600067ffffffffffffffff82111561037a576103796102e4565b5b610383826102d3565b9050602081019050919050565b82818337600083830152505050565b60006103b26103ad8461035f565b610344565b9050828152602081018484840111156103ce576103cd6102ce565b5b6103d9848285610390565b509392505050565b600082601f8301126103f6576103f56102c9565b5b813561040684826020860161039f565b91505092915050565b6000806040838503121561042657610425610261565b5b6000610434858286016102b4565b925050602083013567ffffffffffffffff81111561045557610454610266565b5b610461858286016103e1565b9150509250929050565b60008115159050919050565b6104808161046b565b82525050565b600060208201905061049b6000830184610477565b92915050565b600081519050919050565b600081905092915050565b60005b838110156104d55780820151818401526020810190506104ba565b838111156104e4576000848401525b50505050565b60006104f5826104a1565b6104ff81856104ac565b935061050f8185602086016104b7565b80840191505092915050565b600061052782846104ea565b915081905092915050565b61053b8161028b565b82525050565b600082825260208201905092915050565b600061055d826104a1565b6105678185610541565b93506105778185602086016104b7565b610580816102d3565b840191505092915050565b60006040820190506105a06000830185610532565b81810360208301526105b28184610552565b9050939250505056fea2646970667358221220b25841037482210243123df0dec04323b38230322f8e4dd6099d25407267e1c264736f6c634300080d0033","opcodes":"PUSH1 0x80 PUSH1 0x40 MSTORE CALLVALUE DUP1 ISZERO PUSH2 0x10 JUMPI PUSH1 0x0 DUP1 REVERT JUMPDEST POP PUSH2 0x5F1 DUP1 PUSH2 0x20 PUSH1 0x0 CODECOPY PUSH1 0x0 RETURN INVALID PUSH1 0x80 PUSH1 0x40 MSTORE CALLVALUE DUP1 ISZERO PUSH2 0x10 JUMPI PUSH1 0x0 DUP1 REVERT JUMPDEST POP PUSH1 0x4 CALLDATASIZE LT PUSH2 0x41 JUMPI PUSH1 0x0 CALLDATALOAD PUSH1 0xE0 SHR DUP1 PUSH4 0x988CA8C EQ PUSH2 0x46 JUMPI DUP1 PUSH4 0x217FE6C6 EQ PUSH2 0x62 JUMPI DUP1 PUSH4 0x7D72AA65 EQ PUSH2 0x92 JUMPI JUMPDEST PUSH1 0x0 DUP1 REVERT JUMPDEST PUSH2 0x60 PUSH1 0x4 DUP1 CALLDATASIZE SUB DUP2 ADD SWAP1 PUSH2 0x5B SWAP2 SWAP1 PUSH2 0x40F JUMP JUMPDEST PUSH2 0xAE JUMP JUMPDEST STOP JUMPDEST PUSH2 0x7C PUSH1 0x4 DUP1 CALLDATASIZE SUB DUP2 ADD SWAP1 PUSH2 0x77 SWAP2 SWAP1 PUSH2 0x40F JUMP JUMPDEST PUSH2 0xE2 JUMP JUMPDEST PUSH1 0x40 MLOAD PUSH2 0x89 SWAP2 SWAP1 PUSH2 0x486 JUMP JUMPDEST PUSH1 0x40 MLOAD DUP1 SWAP2 SUB SWAP1 RETURN JUMPDEST PUSH2 0xAC PUSH1 0x4 DUP1 CALLDATASIZE SUB DUP2 ADD SWAP1 PUSH2 0xA7 SWAP2 SWAP1 PUSH2 0x40F JUMP JUMPDEST PUSH2 0x11C JUMP JUMPDEST STOP JUMPDEST PUSH2 0xDE DUP3 PUSH1 0x0 DUP4 PUSH1 0x40 MLOAD PUSH2 0xC2 SWAP2 SWAP1 PUSH2 0x51B JUMP JUMPDEST SWAP1 DUP2 MSTORE PUSH1 0x20 ADD PUSH1 0x40 MLOAD DUP1 SWAP2 SUB SWAP1 KECCAK256 PUSH2 0x189 SWAP1 SWAP2 SWAP1 PUSH4 0xFFFFFFFF AND JUMP JUMPDEST POP POP JUMP JUMPDEST PUSH1 0x0 PUSH2 0x114 DUP4 PUSH1 0x0 DUP5 PUSH1 0x40 MLOAD PUSH2 0xF8 SWAP2 SWAP1 PUSH2 0x51B JUMP JUMPDEST SWAP1 DUP2 MSTORE PUSH1 0x20 ADD PUSH1 0x40 MLOAD DUP1 SWAP2 SUB SWAP1 KECCAK256 PUSH2 0x1A0 SWAP1 SWAP2 SWAP1 PUSH4 0xFFFFFFFF AND JUMP JUMPDEST SWAP1 POP SWAP3 SWAP2 POP POP JUMP JUMPDEST PUSH2 0x14C DUP3 PUSH1 0x0 DUP4 PUSH1 0x40 MLOAD PUSH2 0x130 SWAP2 SWAP1 PUSH2 0x51B JUMP JUMPDEST SWAP1 DUP2 MSTORE PUSH1 0x20 ADD PUSH1 0x40 MLOAD DUP1 SWAP2 SUB SWAP1 KECCAK256 PUSH2 0x1F9 SWAP1 SWAP2 SWAP1 PUSH4 0xFFFFFFFF AND JUMP JUMPDEST PUSH32 0xBFEC83D64EAA953F2708271A023AB9EE82057F8F3578D548C1A4BA0B5B700489 DUP3 DUP3 PUSH1 0x40 MLOAD PUSH2 0x17D SWAP3 SWAP2 SWAP1 PUSH2 0x58B JUMP JUMPDEST PUSH1 0x40 MLOAD DUP1 SWAP2 SUB SWAP1 LOG1 POP POP JUMP JUMPDEST PUSH2 0x193 DUP3 DUP3 PUSH2 0x1A0 JUMP JUMPDEST PUSH2 0x19C JUMPI PUSH1 0x0 DUP1 REVERT JUMPDEST POP POP JUMP JUMPDEST PUSH1 0x0 DUP3 PUSH1 0x0 ADD PUSH1 0x0 DUP4 PUSH20 0xFFFFFFFFFFFFFFFFFFFFFFFFFFFFFFFFFFFFFFFF AND PUSH20 0xFFFFFFFFFFFFFFFFFFFFFFFFFFFFFFFFFFFFFFFF AND DUP2 MSTORE PUSH1 0x20 ADD SWAP1 DUP2 MSTORE PUSH1 0x20 ADD PUSH1 0x0 KECCAK256 PUSH1 0x0 SWAP1 SLOAD SWAP1 PUSH2 0x100 EXP SWAP1 DIV PUSH1 0xFF AND SWAP1 POP SWAP3 SWAP2 POP POP JUMP JUMPDEST PUSH1 0x1 DUP3 PUSH1 0x0 ADD PUSH1 0x0 DUP4 PUSH20 0xFFFFFFFFFFFFFFFFFFFFFFFFFFFFFFFFFFFFFFFF AND PUSH20 0xFFFFFFFFFFFFFFFFFFFFFFFFFFFFFFFFFFFFFFFF AND DUP2 MSTORE PUSH1 0x20 ADD SWAP1 DUP2 MSTORE PUSH1 0x20 ADD PUSH1 0x0 KECCAK256 PUSH1 0x0 PUSH2 0x100 EXP DUP2 SLOAD DUP2 PUSH1 0xFF MUL NOT AND SWAP1 DUP4 ISZERO ISZERO MUL OR SWAP1 SSTORE POP POP POP JUMP JUMPDEST PUSH1 0x0 PUSH1 0x40 MLOAD SWAP1 POP SWAP1 JUMP JUMPDEST PUSH1 0x0 DUP1 REVERT JUMPDEST PUSH1 0x0 DUP1 REVERT JUMPDEST PUSH1 0x0 PUSH20 0xFFFFFFFFFFFFFFFFFFFFFFFFFFFFFFFFFFFFFFFF DUP3 AND SWAP1 POP SWAP2 SWAP1 POP JUMP JUMPDEST PUSH1 0x0 PUSH2 0x296 DUP3 PUSH2 0x26B JUMP JUMPDEST SWAP1 POP SWAP2 SWAP1 POP JUMP JUMPDEST PUSH2 0x2A6 DUP2 PUSH2 0x28B JUMP JUMPDEST DUP2 EQ PUSH2 0x2B1 JUMPI PUSH1 0x0 DUP1 REVERT JUMPDEST POP JUMP JUMPDEST PUSH1 0x0 DUP2 CALLDATALOAD SWAP1 POP PUSH2 0x2C3 DUP2 PUSH2 0x29D JUMP JUMPDEST SWAP3 SWAP2 POP POP JUMP JUMPDEST PUSH1 0x0 DUP1 REVERT JUMPDEST PUSH1 0x0 DUP1 REVERT JUMPDEST PUSH1 0x0 PUSH1 0x1F NOT PUSH1 0x1F DUP4 ADD AND SWAP1 POP SWAP2 SWAP1 POP JUMP JUMPDEST PUSH32 0x4E487B7100000000000000000000000000000000000000000000000000000000 PUSH1 0x0 MSTORE PUSH1 0x41 PUSH1 0x4 MSTORE PUSH1 0x24 PUSH1 0x0 REVERT JUMPDEST PUSH2 0x31C DUP3 PUSH2 0x2D3 JUMP JUMPDEST DUP2 ADD DUP2 DUP2 LT PUSH8 0xFFFFFFFFFFFFFFFF DUP3 GT OR ISZERO PUSH2 0x33B JUMPI PUSH2 0x33A PUSH2 0x2E4 JUMP JUMPDEST JUMPDEST DUP1 PUSH1 0x40 MSTORE POP POP POP JUMP JUMPDEST PUSH1 0x0 PUSH2 0x34E PUSH2 0x257 JUMP JUMPDEST SWAP1 POP PUSH2 0x35A DUP3 DUP3 PUSH2 0x313 JUMP JUMPDEST SWAP2 SWAP1 POP JUMP JUMPDEST PUSH1 0x0 PUSH8 0xFFFFFFFFFFFFFFFF DUP3 GT ISZERO PUSH2 0x37A JUMPI PUSH2 0x379 PUSH2 0x2E4 JUMP JUMPDEST JUMPDEST PUSH2 0x383 DUP3 PUSH2 0x2D3 JUMP JUMPDEST SWAP1 POP PUSH1 0x20 DUP2 ADD SWAP1 POP SWAP2 SWAP1 POP JUMP JUMPDEST DUP3 DUP2 DUP4 CALLDATACOPY PUSH1 0x0 DUP4 DUP4 ADD MSTORE POP POP POP JUMP JUMPDEST PUSH1 0x0 PUSH2 0x3B2 PUSH2 0x3AD DUP5 PUSH2 0x35F JUMP JUMPDEST PUSH2 0x344 JUMP JUMPDEST SWAP1 POP DUP3 DUP2 MSTORE PUSH1 0x20 DUP2 ADD DUP5 DUP5 DUP5 ADD GT ISZERO PUSH2 0x3CE JUMPI PUSH2 0x3CD PUSH2 0x2CE JUMP JUMPDEST JUMPDEST PUSH2 0x3D9 DUP5 DUP3 DUP6 PUSH2 0x390 JUMP JUMPDEST POP SWAP4 SWAP3 POP POP POP JUMP JUMPDEST PUSH1 0x0 DUP3 PUSH1 0x1F DUP4 ADD SLT PUSH2 0x3F6 JUMPI PUSH2 0x3F5 PUSH2 0x2C9 JUMP JUMPDEST JUMPDEST DUP2 CALLDATALOAD PUSH2 0x406 DUP5 DUP3 PUSH1 0x20 DUP7 ADD PUSH2 0x39F JUMP JUMPDEST SWAP2 POP POP SWAP3 SWAP2 POP POP JUMP JUMPDEST PUSH1 0x0 DUP1 PUSH1 0x40 DUP4 DUP6 SUB SLT ISZERO PUSH2 0x426 JUMPI PUSH2 0x425 PUSH2 0x261 JUMP JUMPDEST JUMPDEST PUSH1 0x0 PUSH2 0x434 DUP6 DUP3 DUP7 ADD PUSH2 0x2B4 JUMP JUMPDEST SWAP3 POP POP PUSH1 0x20 DUP4 ADD CALLDATALOAD PUSH8 0xFFFFFFFFFFFFFFFF DUP2 GT ISZERO PUSH2 0x455 JUMPI PUSH2 0x454 PUSH2 0x266 JUMP JUMPDEST JUMPDEST PUSH2 0x461 DUP6 DUP3 DUP7 ADD PUSH2 0x3E1 JUMP JUMPDEST SWAP2 POP POP SWAP3 POP SWAP3 SWAP1 POP JUMP JUMPDEST PUSH1 0x0 DUP2 ISZERO ISZERO SWAP1 POP SWAP2 SWAP1 POP JUMP JUMPDEST PUSH2 0x480 DUP2 PUSH2 0x46B JUMP JUMPDEST DUP3 MSTORE POP POP JUMP JUMPDEST PUSH1 0x0 PUSH1 0x20 DUP3 ADD SWAP1 POP PUSH2 0x49B PUSH1 0x0 DUP4 ADD DUP5 PUSH2 0x477 JUMP JUMPDEST SWAP3 SWAP2 POP POP JUMP JUMPDEST PUSH1 0x0 DUP2 MLOAD SWAP1 POP SWAP2 SWAP1 POP JUMP JUMPDEST PUSH1 0x0 DUP2 SWAP1 POP SWAP3 SWAP2 POP POP JUMP JUMPDEST PUSH1 0x0 JUMPDEST DUP4 DUP2 LT ISZERO PUSH2 0x4D5 JUMPI DUP1 DUP3 ADD MLOAD DUP2 DUP5 ADD MSTORE PUSH1 0x20 DUP2 ADD SWAP1 POP PUSH2 0x4BA JUMP JUMPDEST DUP4 DUP2 GT ISZERO PUSH2 0x4E4 JUMPI PUSH1 0x0 DUP5 DUP5 ADD MSTORE JUMPDEST POP POP POP POP JUMP JUMPDEST PUSH1 0x0 PUSH2 0x4F5 DUP3 PUSH2 0x4A1 JUMP JUMPDEST PUSH2 0x4FF DUP2 DUP6 PUSH2 0x4AC JUMP JUMPDEST SWAP4 POP PUSH2 0x50F DUP2 DUP6 PUSH1 0x20 DUP7 ADD PUSH2 0x4B7 JUMP JUMPDEST DUP1 DUP5 ADD SWAP2 POP POP SWAP3 SWAP2 POP POP JUMP JUMPDEST PUSH1 0x0 PUSH2 0x527 DUP3 DUP5 PUSH2 0x4EA JUMP JUMPDEST SWAP2 POP DUP2 SWAP1 POP SWAP3 SWAP2 POP POP JUMP JUMPDEST PUSH2 0x53B DUP2 PUSH2 0x28B JUMP JUMPDEST DUP3 MSTORE POP POP JUMP JUMPDEST PUSH1 0x0 DUP3 DUP3 MSTORE PUSH1 0x20 DUP3 ADD SWAP1 POP SWAP3 SWAP2 POP POP JUMP JUMPDEST PUSH1 0x0 PUSH2 0x55D DUP3 PUSH2 0x4A1 JUMP JUMPDEST PUSH2 0x567 DUP2 DUP6 PUSH2 0x541 JUMP JUMPDEST SWAP4 POP PUSH2 0x577 DUP2 DUP6 PUSH1 0x20 DUP7 ADD PUSH2 0x4B7 JUMP JUMPDEST PUSH2 0x580 DUP2 PUSH2 0x2D3 JUMP JUMPDEST DUP5 ADD SWAP2 POP POP SWAP3 SWAP2 POP POP JUMP JUMPDEST PUSH1 0x0 PUSH1 0x40 DUP3 ADD SWAP1 POP PUSH2 0x5A0 PUSH1 0x0 DUP4 ADD DUP6 PUSH2 0x532 JUMP JUMPDEST DUP2 DUP2 SUB PUSH1 0x20 DUP4 ADD MSTORE PUSH2 0x5B2 DUP2 DUP5 PUSH2 0x552 JUMP JUMPDEST SWAP1 POP SWAP4 SWAP3 POP POP POP JUMP INVALID LOG2 PUSH5 0x6970667358 0x22 SLT KECCAK256 0xB2 PC COINBASE SUB PUSH21 0x82210243123DF0DEC04323B38230322F8E4DD6099D 0x25 BLOCKHASH PUSH19 0x67E1C264736F6C634300080D00330000000000 "},"gasEstimates":{"creation":{"codeDepositCost":"304200","executionCost":"343","totalCost":"304543"},"external":{"addRole(address,string)":"infinite","checkRole(address,string)":"infinite","hasRole(address,string)":"infinite"},"internal":{"removeRole(address,string memory)":"infinite"}},"methodIdentifiers":{"addRole(address,string)":"7d72aa65","checkRole(address,string)":"0988ca8c","hasRole(address,string)":"217fe6c6"}},"storageLayout":{"storage":[{"astId":84,"contract":"Campaigns.sol:RBAC","label":"roles","offset":0,"slot":"0","type":"t_mapping(t_string_memory_ptr,t_struct(Role)6_storage)"}],"types":{"t_address":{"encoding":"inplace","label":"address","numberOfBytes":"20"},"t_bool":{"encoding":"inplace","label":"bool","numberOfBytes":"1"},"t_mapping(t_address,t_bool)":{"encoding":"mapping","key":"t_address","label":"mapping(address => bool)","numberOfBytes":"32","value":"t_bool"},"t_mapping(t_string_memory_ptr,t_struct(Role)6_storage)":{"encoding":"mapping","key":"t_string_memory_ptr","label":"mapping(string => struct Roles.Role)","numberOfBytes":"32","value":"t_struct(Role)6_storage"},"t_string_memory_ptr":{"encoding":"bytes","label":"string","numberOfBytes":"32"},"t_struct(Role)6_storage":{"encoding":"inplace","label":"struct Roles.Role","members":[{"astId":5,"contract":"Campaigns.sol:RBAC","label":"bearer","offset":0,"slot":"0","type":"t_mapping(t_address,t_bool)"}],"numberOfBytes":"32"}}},"userdoc":{"kind":"user","methods":{},"version":1}}