{"abi":[{"inputs":[],"stateMutability":"nonpayable","type":"constructor"},{"anonymous":false,"inputs":[{"indexed":false,"internalType":"address","name":"addr","type":"address"},{"indexed":false,"internalType":"string","name":"roleName","type":"string"}],"name":"RoleAdded","type":"event"},{"anonymous":false,"inputs":[{"indexed":false,"internalType":"address","name":"addr","type":"address"},{"indexed":false,"internalType":"string","name":"roleName","type":"string"}],"name":"RoleRemoved","type":"event"},{"anonymous":false,"inputs":[{"indexed":false,"internalType":"address","name":"addr","type":"address"},{"indexed":false,"internalType":"string","name":"roleName","type":"string"}],"name":"WhitelistedAddressAdded","type":"event"},{"anonymous":false,"inputs":[{"indexed":false,"internalType":"address","name":"addr","type":"address"},{"indexed":false,"internalType":"string","name":"roleName","type":"string"}],"name":"WhitelistedAddressRemoved","type":"event"},{"inputs":[],"name":"FUND_APPROVER","outputs":[{"internalType":"string","name":"","type":"string"}],"stateMutability":"view","type":"function"},{"inputs":[],"name":"FUND_CONTRIBUTOR","outputs":[{"internalType":"string","name":"","type":"string"}],"stateMutability":"view","type":"function"},{"inputs":[],"name":"FUND_RAISER","outputs":[{"internalType":"string","name":"","type":"string"}],"stateMutability":"view","type":"function"},{"inputs":[{"internalType":"address","name":"addr","type":"address"}],"name":"addAddressToFundApprover","outputs":[],"stateMutability":"nonpayable","type":"function"},{"inputs":[{"internalType":"address","name":"addr","type":"address"}],"name":"addAddressToFundContributor","outputs":[],"stateMutability":"nonpayable","type":"function"},{"inputs":[{"internalType":"address","name":"addr","type":"address"}],"name":"addAddressToFundRaiser","outputs":[],"stateMutability":"nonpayable","type":"function"},{"inputs":[{"internalType":"address","name":"addr","type":"address"},{"internalType":"string","name":"roleName","type":"string"}],"name":"addRole","outputs":[],"stateMutability":"nonpayable","type":"function"},{"inputs":[{"internalType":"address","name":"addr","type":"address"},{"internalType":"string","name":"role_applied","type":"string"}],"name":"approveKYCRequest","outputs":[],"stateMutability":"nonpayable","type":"function"},{"inputs":[{"internalType":"address","name":"addr","type":"address"},{"internalType":"string","name":"roleName","type":"string"}],"name":"checkRole","outputs":[],"stateMutability":"view","type":"function"},{"inputs":[{"internalType":"string","name":"_first_name","type":"string"},{"internalType":"string","name":"_last_name","type":"string"},{"internalType":"string","name":"_email","type":"string"},{"internalType":"string","name":"_phone","type":"string"},{"internalType":"string","name":"_doctype","type":"string"},{"internalType":"string","name":"_role_applied_for","type":"string"}],"name":"createKYCRequest","outputs":[],"stateMutability":"nonpayable","type":"function"},{"inputs":[],"name":"fetchKYCRequests","outputs":[{"components":[{"internalType":"string","name":"first_Name","type":"string"},{"internalType":"string","name":"last_Name","type":"string"},{"internalType":"string","name":"email","type":"string"},{"internalType":"string","name":"phone","type":"string"},{"internalType":"address","name":"user_address","type":"address"},{"internalType":"string","name":"docType","type":"string"},{"internalType":"string","name":"role_applied_for","type":"string"},{"internalType":"string","name":"status","type":"string"}],"internalType":"struct Whitelist.KYCRequest[]","name":"","type":"tuple[]"}],"stateMutability":"view","type":"function"},{"inputs":[{"internalType":"address","name":"addr","type":"address"}],"name":"getRolesOfUser","outputs":[{"internalType":"string[]","name":"","type":"string[]"}],"stateMutability":"nonpayable","type":"function"},{"inputs":[{"internalType":"address","name":"addr","type":"address"},{"internalType":"string","name":"roleName","type":"string"}],"name":"hasRole","outputs":[{"internalType":"bool","name":"","type":"bool"}],"stateMutability":"view","type":"function"},{"inputs":[{"internalType":"address","name":"addr","type":"address"}],"name":"isFundApprover","outputs":[{"internalType":"bool","name":"","type":"bool"}],"stateMutability":"view","type":"function"},{"inputs":[{"internalType":"address","name":"addr","type":"address"}],"name":"isFundContributor","outputs":[{"internalType":"bool","name":"","type":"bool"}],"stateMutability":"view","type":"function"},{"inputs":[{"internalType":"address","name":"addr","type":"address"}],"name":"isFundRaiser","outputs":[{"internalType":"bool","name":"","type":"bool"}],"stateMutability":"view","type":"function"},{"inputs":[{"internalType":"uint256","name":"","type":"uint256"}],"name":"kycRequests","outputs":[{"internalType":"string","name":"first_Name","type":"string"},{"internalType":"string","name":"last_Name","type":"string"},{"internalType":"string","name":"email","type":"string"},{"internalType":"string","name":"phone","type":"string"},{"internalType":"address","name":"user_address","type":"address"},{"internalType":"string","name":"docType","type":"string"},{"internalType":"string","name":"role_applied_for","type":"string"},{"internalType":"string","name":"status","type":"string"}],"stateMutability":"view","type":"function"},{"inputs":[],"name":"owner","outputs":[{"internalType":"address","name":"","type":"address"}],"stateMutability":"view","type":"function"},{"inputs":[{"internalType":"address","name":"addr","type":"address"},{"internalType":"string","name":"role_applied","type":"string"}],"name":"rejectKYCRequest","outputs":[],"stateMutability":"nonpayable","type":"function"},{"inputs":[{"internalType":"address","name":"addr","type":"address"}],"name":"removeAddressFromFundApprover","outputs":[],"stateMutability":"nonpayable","type":"function"},{"inputs":[{"internalType":"address","name":"addr","type":"address"}],"name":"removeAddressFromFundContributor","outputs":[],"stateMutability":"nonpayable","type":"function"},{"inputs":[{"internalType":"address","name":"addr","type":"address"}],"name":"removeAddressFromFundRaiser","outputs":[],"stateMutability":"nonpayable","type":"function"}],"devdoc":{"kind":"dev","methods":{},"version":1},"evm":{"assembly":"    /* \"Campaigns.sol\":1793:7033  contract Whitelist is RBAC {... */\n  mstore(0x40, 0x80)\n    /* \"Campaigns.sol\":2170:2219  constructor() {... */\n  callvalue\n  dup1\n  iszero\n  tag_1\n  jumpi\n  0x00\n  dup1\n  revert\ntag_1:\n  pop\n    /* \"Campaigns.sol\":2202:2212  msg.sender */\n  caller\n    /* \"Campaigns.sol\":2194:2199  owner */\n  0x01\n  0x00\n    /* \"Campaigns.sol\":2194:2212  owner = msg.sender */\n  0x0100\n  exp\n  dup2\n  sload\n  dup2\n  0xffffffffffffffffffffffffffffffffffffffff\n  mul\n  not\n  and\n  swap1\n  dup4\n  0xffffffffffffffffffffffffffffffffffffffff\n  and\n  mul\n  or\n  swap1\n  sstore\n  pop\n    /* \"Campaigns.sol\":1793:7033  contract Whitelist is RBAC {... */\n  dataSize(sub_0)\n  dup1\n  dataOffset(sub_0)\n  0x00\n  codecopy\n  0x00\n  return\nstop\n\nsub_0: assembly {\n        /* \"Campaigns.sol\":1793:7033  contract Whitelist is RBAC {... */\n      mstore(0x40, 0x80)\n      callvalue\n      dup1\n      iszero\n      tag_1\n      jumpi\n      0x00\n      dup1\n      revert\n    tag_1:\n      pop\n      jumpi(tag_2, lt(calldatasize, 0x04))\n      shr(0xe0, calldataload(0x00))\n      dup1\n      0x782fea80\n      gt\n      tag_25\n      jumpi\n      dup1\n      0x9114520d\n      gt\n      tag_26\n      jumpi\n      dup1\n      0x9114520d\n      eq\n      tag_19\n      jumpi\n      dup1\n      0xa0874b90\n      eq\n      tag_20\n      jumpi\n      dup1\n      0xb3a6ad09\n      eq\n      tag_21\n      jumpi\n      dup1\n      0xdca51ef7\n      eq\n      tag_22\n      jumpi\n      dup1\n      0xde8dc653\n      eq\n      tag_23\n      jumpi\n      dup1\n      0xe2c1ca20\n      eq\n      tag_24\n      jumpi\n      jump(tag_2)\n    tag_26:\n      dup1\n      0x782fea80\n      eq\n      tag_14\n      jumpi\n      dup1\n      0x7d72aa65\n      eq\n      tag_15\n      jumpi\n      dup1\n      0x82c25e72\n      eq\n      tag_16\n      jumpi\n      dup1\n      0x89fdc973\n      eq\n      tag_17\n      jumpi\n      dup1\n      0x8da5cb5b\n      eq\n      tag_18\n      jumpi\n      jump(tag_2)\n    tag_25:\n      dup1\n      0x2470cfe0\n      gt\n      tag_27\n      jumpi\n      dup1\n      0x2470cfe0\n      eq\n      tag_8\n      jumpi\n      dup1\n      0x2e4e88d0\n      eq\n      tag_9\n      jumpi\n      dup1\n      0x30d8aae7\n      eq\n      tag_10\n      jumpi\n      dup1\n      0x47ab42cd\n      eq\n      tag_11\n      jumpi\n      dup1\n      0x564f63c4\n      eq\n      tag_12\n      jumpi\n      dup1\n      0x592c4ac4\n      eq\n      tag_13\n      jumpi\n      jump(tag_2)\n    tag_27:\n      dup1\n      0x0988ca8c\n      eq\n      tag_3\n      jumpi\n      dup1\n      0x0e07d45b\n      eq\n      tag_4\n      jumpi\n      dup1\n      0x19a80f5d\n      eq\n      tag_5\n      jumpi\n      dup1\n      0x217fe6c6\n      eq\n      tag_6\n      jumpi\n      dup1\n      0x2234ab57\n      eq\n      tag_7\n      jumpi\n    tag_2:\n      0x00\n      dup1\n      revert\n        /* \"Campaigns.sol\":1091:1204  function checkRole(address addr, string memory roleName) public view {... */\n    tag_3:\n      tag_28\n      0x04\n      dup1\n      calldatasize\n      sub\n      dup2\n      add\n      swap1\n      tag_29\n      swap2\n      swap1\n      tag_30\n      jump\t// in\n    tag_29:\n      tag_31\n      jump\t// in\n    tag_28:\n      stop\n        /* \"Campaigns.sol\":5123:5286  function addAddressToFundRaiser(address addr) public onlyOwner {... */\n    tag_4:\n      tag_32\n      0x04\n      dup1\n      calldatasize\n      sub\n      dup2\n      add\n      swap1\n      tag_33\n      swap2\n      swap1\n      tag_34\n      jump\t// in\n    tag_33:\n      tag_35\n      jump\t// in\n    tag_32:\n      stop\n        /* \"Campaigns.sol\":2907:3443  function createKYCRequest(... */\n    tag_5:\n      tag_36\n      0x04\n      dup1\n      calldatasize\n      sub\n      dup2\n      add\n      swap1\n      tag_37\n      swap2\n      swap1\n      tag_38\n      jump\t// in\n    tag_37:\n      tag_39\n      jump\t// in\n    tag_36:\n      stop\n        /* \"Campaigns.sol\":1210:1369  function hasRole(address addr, string memory roleName)... */\n    tag_6:\n      tag_40\n      0x04\n      dup1\n      calldatasize\n      sub\n      dup2\n      add\n      swap1\n      tag_41\n      swap2\n      swap1\n      tag_30\n      jump\t// in\n    tag_41:\n      tag_42\n      jump\t// in\n    tag_40:\n      mload(0x40)\n      tag_43\n      swap2\n      swap1\n      tag_44\n      jump\t// in\n    tag_43:\n      mload(0x40)\n      dup1\n      swap2\n      sub\n      swap1\n      return\n        /* \"Campaigns.sol\":3618:4308  function approveKYCRequest(address addr, string memory role_applied)... */\n    tag_7:\n      tag_45\n      0x04\n      dup1\n      calldatasize\n      sub\n      dup2\n      add\n      swap1\n      tag_46\n      swap2\n      swap1\n      tag_30\n      jump\t// in\n    tag_46:\n      tag_47\n      jump\t// in\n    tag_45:\n      stop\n        /* \"Campaigns.sol\":2842:2873  KYCRequest[] public kycRequests */\n    tag_8:\n      tag_48\n      0x04\n      dup1\n      calldatasize\n      sub\n      dup2\n      add\n      swap1\n      tag_49\n      swap2\n      swap1\n      tag_50\n      jump\t// in\n    tag_49:\n      tag_51\n      jump\t// in\n    tag_48:\n      mload(0x40)\n      tag_52\n      swap9\n      swap8\n      swap7\n      swap6\n      swap5\n      swap4\n      swap3\n      swap2\n      swap1\n      tag_53\n      jump\t// in\n    tag_52:\n      mload(0x40)\n      dup1\n      swap2\n      sub\n      swap1\n      return\n        /* \"Campaigns.sol\":6386:6574  function removeAddressFromFundContributor(address addr) public onlyOwner {... */\n    tag_9:\n      tag_54\n      0x04\n      dup1\n      calldatasize\n      sub\n      dup2\n      add\n      swap1\n      tag_55\n      swap2\n      swap1\n      tag_34\n      jump\t// in\n    tag_55:\n      tag_56\n      jump\t// in\n    tag_54:\n      stop\n        /* \"Campaigns.sol\":5651:5768  function isFundApprover(address addr) public view returns (bool) {... */\n    tag_10:\n      tag_57\n      0x04\n      dup1\n      calldatasize\n      sub\n      dup2\n      add\n      swap1\n      tag_58\n      swap2\n      swap1\n      tag_34\n      jump\t// in\n    tag_58:\n      tag_59\n      jump\t// in\n    tag_57:\n      mload(0x40)\n      tag_60\n      swap2\n      swap1\n      tag_44\n      jump\t// in\n    tag_60:\n      mload(0x40)\n      dup1\n      swap2\n      sub\n      swap1\n      return\n        /* \"Campaigns.sol\":5467:5645  function addAddressToFundContributor(address addr) public onlyOwner {... */\n    tag_11:\n      tag_61\n      0x04\n      dup1\n      calldatasize\n      sub\n      dup2\n      add\n      swap1\n      tag_62\n      swap2\n      swap1\n      tag_34\n      jump\t// in\n    tag_62:\n      tag_63\n      jump\t// in\n    tag_61:\n      stop\n        /* \"Campaigns.sol\":5292:5461  function addAddressToFundApprover(address addr) public onlyOwner {... */\n    tag_12:\n      tag_64\n      0x04\n      dup1\n      calldatasize\n      sub\n      dup2\n      add\n      swap1\n      tag_65\n      swap2\n      swap1\n      tag_34\n      jump\t// in\n    tag_65:\n      tag_66\n      jump\t// in\n    tag_64:\n      stop\n        /* \"Campaigns.sol\":6207:6380  function removeAddressFromFundRaiser(address addr) public onlyOwner {... */\n    tag_13:\n      tag_67\n      0x04\n      dup1\n      calldatasize\n      sub\n      dup2\n      add\n      swap1\n      tag_68\n      swap2\n      swap1\n      tag_34\n      jump\t// in\n    tag_68:\n      tag_69\n      jump\t// in\n    tag_67:\n      stop\n        /* \"Campaigns.sol\":4340:4502  function rejectKYCRequest(address addr, string memory role_applied) public onlyFundApprover {... */\n    tag_14:\n      tag_70\n      0x04\n      dup1\n      calldatasize\n      sub\n      dup2\n      add\n      swap1\n      tag_71\n      swap2\n      swap1\n      tag_30\n      jump\t// in\n    tag_71:\n      tag_72\n      jump\t// in\n    tag_70:\n      stop\n        /* \"Campaigns.sol\":1375:1519  function addRole(address addr, string memory roleName) public {... */\n    tag_15:\n      tag_73\n      0x04\n      dup1\n      calldatasize\n      sub\n      dup2\n      add\n      swap1\n      tag_74\n      swap2\n      swap1\n      tag_30\n      jump\t// in\n    tag_74:\n      tag_75\n      jump\t// in\n    tag_73:\n      stop\n        /* \"Campaigns.sol\":1987:2037  string public constant FUND_RAISER = \"fund_raiser\" */\n    tag_16:\n      tag_76\n      tag_77\n      jump\t// in\n    tag_76:\n      mload(0x40)\n      tag_78\n      swap2\n      swap1\n      tag_79\n      jump\t// in\n    tag_78:\n      mload(0x40)\n      dup1\n      swap2\n      sub\n      swap1\n      return\n        /* \"Campaigns.sol\":6022:6201  function removeAddressFromFundApprover(address addr) public onlyOwner {... */\n    tag_17:\n      tag_80\n      0x04\n      dup1\n      calldatasize\n      sub\n      dup2\n      add\n      swap1\n      tag_81\n      swap2\n      swap1\n      tag_34\n      jump\t// in\n    tag_81:\n      tag_82\n      jump\t// in\n    tag_80:\n      stop\n        /* \"Campaigns.sol\":1961:1981  address public owner */\n    tag_18:\n      tag_83\n      tag_84\n      jump\t// in\n    tag_83:\n      mload(0x40)\n      tag_85\n      swap2\n      swap1\n      tag_86\n      jump\t// in\n    tag_85:\n      mload(0x40)\n      dup1\n      swap2\n      sub\n      swap1\n      return\n        /* \"Campaigns.sol\":5893:6016  function isFundContributor(address addr) public view returns (bool) {... */\n    tag_19:\n      tag_87\n      0x04\n      dup1\n      calldatasize\n      sub\n      dup2\n      add\n      swap1\n      tag_88\n      swap2\n      swap1\n      tag_34\n      jump\t// in\n    tag_88:\n      tag_89\n      jump\t// in\n    tag_87:\n      mload(0x40)\n      tag_90\n      swap2\n      swap1\n      tag_44\n      jump\t// in\n    tag_90:\n      mload(0x40)\n      dup1\n      swap2\n      sub\n      swap1\n      return\n        /* \"Campaigns.sol\":3475:3582  function fetchKYCRequests() public view returns (KYCRequest[] memory) {... */\n    tag_20:\n      tag_91\n      tag_92\n      jump\t// in\n    tag_91:\n      mload(0x40)\n      tag_93\n      swap2\n      swap1\n      tag_94\n      jump\t// in\n    tag_93:\n      mload(0x40)\n      dup1\n      swap2\n      sub\n      swap1\n      return\n        /* \"Campaigns.sol\":2043:2103  string public constant FUND_CONTRIBUTOR = \"fund_contributor\" */\n    tag_21:\n      tag_95\n      tag_96\n      jump\t// in\n    tag_95:\n      mload(0x40)\n      tag_97\n      swap2\n      swap1\n      tag_79\n      jump\t// in\n    tag_97:\n      mload(0x40)\n      dup1\n      swap2\n      sub\n      swap1\n      return\n        /* \"Campaigns.sol\":6605:7031  function getRolesOfUser(address addr) public returns(string[] memory) {... */\n    tag_22:\n      tag_98\n      0x04\n      dup1\n      calldatasize\n      sub\n      dup2\n      add\n      swap1\n      tag_99\n      swap2\n      swap1\n      tag_34\n      jump\t// in\n    tag_99:\n      tag_100\n      jump\t// in\n    tag_98:\n      mload(0x40)\n      tag_101\n      swap2\n      swap1\n      tag_102\n      jump\t// in\n    tag_101:\n      mload(0x40)\n      dup1\n      swap2\n      sub\n      swap1\n      return\n        /* \"Campaigns.sol\":5774:5887  function isFundRaiser(address addr) public view returns (bool) {... */\n    tag_23:\n      tag_103\n      0x04\n      dup1\n      calldatasize\n      sub\n      dup2\n      add\n      swap1\n      tag_104\n      swap2\n      swap1\n      tag_34\n      jump\t// in\n    tag_104:\n      tag_105\n      jump\t// in\n    tag_103:\n      mload(0x40)\n      tag_106\n      swap2\n      swap1\n      tag_44\n      jump\t// in\n    tag_106:\n      mload(0x40)\n      dup1\n      swap2\n      sub\n      swap1\n      return\n        /* \"Campaigns.sol\":2109:2163  string public constant FUND_APPROVER = \"fund_approver\" */\n    tag_24:\n      tag_107\n      tag_108\n      jump\t// in\n    tag_107:\n      mload(0x40)\n      tag_109\n      swap2\n      swap1\n      tag_79\n      jump\t// in\n    tag_109:\n      mload(0x40)\n      dup1\n      swap2\n      sub\n      swap1\n      return\n        /* \"Campaigns.sol\":1091:1204  function checkRole(address addr, string memory roleName) public view {... */\n    tag_31:\n        /* \"Campaigns.sol\":1170:1197  roles[roleName].check(addr) */\n      tag_111\n        /* \"Campaigns.sol\":1192:1196  addr */\n      dup3\n        /* \"Campaigns.sol\":1170:1175  roles */\n      0x00\n        /* \"Campaigns.sol\":1176:1184  roleName */\n      dup4\n        /* \"Campaigns.sol\":1170:1185  roles[roleName] */\n      mload(0x40)\n      tag_112\n      swap2\n      swap1\n      tag_113\n      jump\t// in\n    tag_112:\n      swap1\n      dup2\n      mstore\n      0x20\n      add\n      mload(0x40)\n      dup1\n      swap2\n      sub\n      swap1\n      keccak256\n        /* \"Campaigns.sol\":1170:1191  roles[roleName].check */\n      tag_114\n      swap1\n        /* \"Campaigns.sol\":1170:1197  roles[roleName].check(addr) */\n      swap2\n      swap1\n      0xffffffff\n      and\n      jump\t// in\n    tag_111:\n        /* \"Campaigns.sol\":1091:1204  function checkRole(address addr, string memory roleName) public view {... */\n      pop\n      pop\n      jump\t// out\n        /* \"Campaigns.sol\":5123:5286  function addAddressToFundRaiser(address addr) public onlyOwner {... */\n    tag_35:\n        /* \"Campaigns.sol\":2278:2283  owner */\n      0x01\n      0x00\n      swap1\n      sload\n      swap1\n      0x0100\n      exp\n      swap1\n      div\n      0xffffffffffffffffffffffffffffffffffffffff\n      and\n        /* \"Campaigns.sol\":2264:2283  msg.sender == owner */\n      0xffffffffffffffffffffffffffffffffffffffff\n      and\n        /* \"Campaigns.sol\":2264:2274  msg.sender */\n      caller\n        /* \"Campaigns.sol\":2264:2283  msg.sender == owner */\n      0xffffffffffffffffffffffffffffffffffffffff\n      and\n      eq\n        /* \"Campaigns.sol\":2256:2284  require(msg.sender == owner) */\n      tag_116\n      jumpi\n      0x00\n      dup1\n      revert\n    tag_116:\n        /* \"Campaigns.sol\":5196:5222  addRole(addr, FUND_RAISER) */\n      tag_118\n        /* \"Campaigns.sol\":5204:5208  addr */\n      dup2\n        /* \"Campaigns.sol\":5210:5221  FUND_RAISER */\n      mload(0x40)\n      dup1\n      0x40\n      add\n      0x40\n      mstore\n      dup1\n      0x0b\n      dup2\n      mstore\n      0x20\n      add\n      0x66756e645f726169736572000000000000000000000000000000000000000000\n      dup2\n      mstore\n      pop\n        /* \"Campaigns.sol\":5196:5203  addRole */\n      tag_75\n        /* \"Campaigns.sol\":5196:5222  addRole(addr, FUND_RAISER) */\n      jump\t// in\n    tag_118:\n        /* \"Campaigns.sol\":5237:5279  WhitelistedAddressAdded(addr, FUND_RAISER) */\n      0x7d02e6403c89cb5aa8f22321b96fd9357cf8895e4a77c10e16c55aa5fc589d20\n        /* \"Campaigns.sol\":5261:5265  addr */\n      dup2\n        /* \"Campaigns.sol\":5267:5278  FUND_RAISER */\n      mload(0x40)\n      dup1\n      0x40\n      add\n      0x40\n      mstore\n      dup1\n      0x0b\n      dup2\n      mstore\n      0x20\n      add\n      0x66756e645f726169736572000000000000000000000000000000000000000000\n      dup2\n      mstore\n      pop\n        /* \"Campaigns.sol\":5237:5279  WhitelistedAddressAdded(addr, FUND_RAISER) */\n      mload(0x40)\n      tag_119\n      swap3\n      swap2\n      swap1\n      tag_120\n      jump\t// in\n    tag_119:\n      mload(0x40)\n      dup1\n      swap2\n      sub\n      swap1\n      log1\n        /* \"Campaigns.sol\":5123:5286  function addAddressToFundRaiser(address addr) public onlyOwner {... */\n      pop\n      jump\t// out\n        /* \"Campaigns.sol\":2907:3443  function createKYCRequest(... */\n    tag_39:\n        /* \"Campaigns.sol\":3158:3186  KYCRequest memory newRequest */\n      0x00\n        /* \"Campaigns.sol\":3189:3398  KYCRequest(... */\n      mload(0x40)\n      dup1\n      0x0100\n      add\n      0x40\n      mstore\n      dup1\n        /* \"Campaigns.sol\":3213:3224  _first_name */\n      dup9\n        /* \"Campaigns.sol\":3189:3398  KYCRequest(... */\n      dup2\n      mstore\n      0x20\n      add\n        /* \"Campaigns.sol\":3238:3248  _last_name */\n      dup8\n        /* \"Campaigns.sol\":3189:3398  KYCRequest(... */\n      dup2\n      mstore\n      0x20\n      add\n        /* \"Campaigns.sol\":3262:3268  _email */\n      dup7\n        /* \"Campaigns.sol\":3189:3398  KYCRequest(... */\n      dup2\n      mstore\n      0x20\n      add\n        /* \"Campaigns.sol\":3282:3288  _phone */\n      dup6\n        /* \"Campaigns.sol\":3189:3398  KYCRequest(... */\n      dup2\n      mstore\n      0x20\n      add\n        /* \"Campaigns.sol\":3302:3312  msg.sender */\n      caller\n        /* \"Campaigns.sol\":3189:3398  KYCRequest(... */\n      0xffffffffffffffffffffffffffffffffffffffff\n      and\n      dup2\n      mstore\n      0x20\n      add\n        /* \"Campaigns.sol\":3326:3334  _doctype */\n      dup5\n        /* \"Campaigns.sol\":3189:3398  KYCRequest(... */\n      dup2\n      mstore\n      0x20\n      add\n        /* \"Campaigns.sol\":3348:3365  _role_applied_for */\n      dup4\n        /* \"Campaigns.sol\":3189:3398  KYCRequest(... */\n      dup2\n      mstore\n      0x20\n      add\n      mload(0x40)\n      dup1\n      0x40\n      add\n      0x40\n      mstore\n      dup1\n      0x07\n      dup2\n      mstore\n      0x20\n      add\n      0x50656e64696e6700000000000000000000000000000000000000000000000000\n      dup2\n      mstore\n      pop\n      dup2\n      mstore\n      pop\n        /* \"Campaigns.sol\":3158:3398  KYCRequest memory newRequest = KYCRequest(... */\n      swap1\n      pop\n        /* \"Campaigns.sol\":3408:3419  kycRequests */\n      0x02\n        /* \"Campaigns.sol\":3425:3435  newRequest */\n      dup2\n        /* \"Campaigns.sol\":3408:3436  kycRequests.push(newRequest) */\n      swap1\n      dup1\n      0x01\n      dup2\n      sload\n      add\n      dup1\n      dup3\n      sstore\n      dup1\n      swap2\n      pop\n      pop\n      0x01\n      swap1\n      sub\n      swap1\n      0x00\n      mstore\n      keccak256(0x00, 0x20)\n      swap1\n      0x08\n      mul\n      add\n      0x00\n      swap1\n      swap2\n      swap1\n      swap2\n      swap1\n      swap2\n      pop\n      0x00\n      dup3\n      add\n      mload\n      dup2\n      0x00\n      add\n      swap1\n      dup1\n      mload\n      swap1\n      0x20\n      add\n      swap1\n      tag_123\n      swap3\n      swap2\n      swap1\n      tag_124\n      jump\t// in\n    tag_123:\n      pop\n      0x20\n      dup3\n      add\n      mload\n      dup2\n      0x01\n      add\n      swap1\n      dup1\n      mload\n      swap1\n      0x20\n      add\n      swap1\n      tag_125\n      swap3\n      swap2\n      swap1\n      tag_124\n      jump\t// in\n    tag_125:\n      pop\n      0x40\n      dup3\n      add\n      mload\n      dup2\n      0x02\n      add\n      swap1\n      dup1\n      mload\n      swap1\n      0x20\n      add\n      swap1\n      tag_126\n      swap3\n      swap2\n      swap1\n      tag_124\n      jump\t// in\n    tag_126:\n      pop\n      0x60\n      dup3\n      add\n      mload\n      dup2\n      0x03\n      add\n      swap1\n      dup1\n      mload\n      swap1\n      0x20\n      add\n      swap1\n      tag_127\n      swap3\n      swap2\n      swap1\n      tag_124\n      jump\t// in\n    tag_127:\n      pop\n      0x80\n      dup3\n      add\n      mload\n      dup2\n      0x04\n      add\n      exp(0x0100, 0x00)\n      dup2\n      sload\n      dup2\n      0xffffffffffffffffffffffffffffffffffffffff\n      mul\n      not\n      and\n      swap1\n      dup4\n      0xffffffffffffffffffffffffffffffffffffffff\n      and\n      mul\n      or\n      swap1\n      sstore\n      pop\n      0xa0\n      dup3\n      add\n      mload\n      dup2\n      0x05\n      add\n      swap1\n      dup1\n      mload\n      swap1\n      0x20\n      add\n      swap1\n      tag_128\n      swap3\n      swap2\n      swap1\n      tag_124\n      jump\t// in\n    tag_128:\n      pop\n      0xc0\n      dup3\n      add\n      mload\n      dup2\n      0x06\n      add\n      swap1\n      dup1\n      mload\n      swap1\n      0x20\n      add\n      swap1\n      tag_129\n      swap3\n      swap2\n      swap1\n      tag_124\n      jump\t// in\n    tag_129:\n      pop\n      0xe0\n      dup3\n      add\n      mload\n      dup2\n      0x07\n      add\n      swap1\n      dup1\n      mload\n      swap1\n      0x20\n      add\n      swap1\n      tag_130\n      swap3\n      swap2\n      swap1\n      tag_124\n      jump\t// in\n    tag_130:\n      pop\n      pop\n      pop\n        /* \"Campaigns.sol\":3148:3443  {... */\n      pop\n        /* \"Campaigns.sol\":2907:3443  function createKYCRequest(... */\n      pop\n      pop\n      pop\n      pop\n      pop\n      pop\n      jump\t// out\n        /* \"Campaigns.sol\":1210:1369  function hasRole(address addr, string memory roleName)... */\n    tag_42:\n        /* \"Campaigns.sol\":1310:1314  bool */\n      0x00\n        /* \"Campaigns.sol\":1337:1362  roles[roleName].has(addr) */\n      tag_132\n        /* \"Campaigns.sol\":1357:1361  addr */\n      dup4\n        /* \"Campaigns.sol\":1337:1342  roles */\n      0x00\n        /* \"Campaigns.sol\":1343:1351  roleName */\n      dup5\n        /* \"Campaigns.sol\":1337:1352  roles[roleName] */\n      mload(0x40)\n      tag_133\n      swap2\n      swap1\n      tag_113\n      jump\t// in\n    tag_133:\n      swap1\n      dup2\n      mstore\n      0x20\n      add\n      mload(0x40)\n      dup1\n      swap2\n      sub\n      swap1\n      keccak256\n        /* \"Campaigns.sol\":1337:1356  roles[roleName].has */\n      tag_134\n      swap1\n        /* \"Campaigns.sol\":1337:1362  roles[roleName].has(addr) */\n      swap2\n      swap1\n      0xffffffff\n      and\n      jump\t// in\n    tag_132:\n        /* \"Campaigns.sol\":1330:1362  return roles[roleName].has(addr) */\n      swap1\n      pop\n        /* \"Campaigns.sol\":1210:1369  function hasRole(address addr, string memory roleName)... */\n      swap3\n      swap2\n      pop\n      pop\n      jump\t// out\n        /* \"Campaigns.sol\":3618:4308  function approveKYCRequest(address addr, string memory role_applied)... */\n    tag_47:\n        /* \"Campaigns.sol\":2346:2382  checkRole(msg.sender, FUND_APPROVER) */\n      tag_136\n        /* \"Campaigns.sol\":2356:2366  msg.sender */\n      caller\n        /* \"Campaigns.sol\":2368:2381  FUND_APPROVER */\n      mload(0x40)\n      dup1\n      0x40\n      add\n      0x40\n      mstore\n      dup1\n      0x0d\n      dup2\n      mstore\n      0x20\n      add\n      0x66756e645f617070726f76657200000000000000000000000000000000000000\n      dup2\n      mstore\n      pop\n        /* \"Campaigns.sol\":2346:2355  checkRole */\n      tag_31\n        /* \"Campaigns.sol\":2346:2382  checkRole(msg.sender, FUND_APPROVER) */\n      jump\t// in\n    tag_136:\n        /* \"Campaigns.sol\":3837:3848  FUND_RAISER */\n      mload(0x40)\n      dup1\n      0x40\n      add\n      0x40\n      mstore\n      dup1\n      0x0b\n      dup2\n      mstore\n      0x20\n      add\n      0x66756e645f726169736572000000000000000000000000000000000000000000\n      dup2\n      mstore\n      pop\n        /* \"Campaigns.sol\":3819:3850  abi.encodePacked((FUND_RAISER)) */\n      add(0x20, mload(0x40))\n      tag_138\n      swap2\n      swap1\n      tag_113\n      jump\t// in\n    tag_138:\n      mload(0x40)\n      0x20\n      dup2\n      dup4\n      sub\n      sub\n      dup2\n      mstore\n      swap1\n      0x40\n      mstore\n        /* \"Campaigns.sol\":3809:3851  keccak256(abi.encodePacked((FUND_RAISER))) */\n      dup1\n      mload\n      swap1\n      0x20\n      add\n      keccak256\n        /* \"Campaigns.sol\":3778:3790  role_applied */\n      dup2\n        /* \"Campaigns.sol\":3760:3792  abi.encodePacked((role_applied)) */\n      add(0x20, mload(0x40))\n      tag_139\n      swap2\n      swap1\n      tag_113\n      jump\t// in\n    tag_139:\n      mload(0x40)\n      0x20\n      dup2\n      dup4\n      sub\n      sub\n      dup2\n      mstore\n      swap1\n      0x40\n      mstore\n        /* \"Campaigns.sol\":3750:3793  keccak256(abi.encodePacked((role_applied))) */\n      dup1\n      mload\n      swap1\n      0x20\n      add\n      keccak256\n        /* \"Campaigns.sol\":3750:3851  keccak256(abi.encodePacked((role_applied))) ==... */\n      sub\n        /* \"Campaigns.sol\":3733:3974  if (... */\n      tag_140\n      jumpi\n        /* \"Campaigns.sol\":3876:3902  addRole(addr, FUND_RAISER) */\n      tag_141\n        /* \"Campaigns.sol\":3884:3888  addr */\n      dup3\n        /* \"Campaigns.sol\":3890:3901  FUND_RAISER */\n      mload(0x40)\n      dup1\n      0x40\n      add\n      0x40\n      mstore\n      dup1\n      0x0b\n      dup2\n      mstore\n      0x20\n      add\n      0x66756e645f726169736572000000000000000000000000000000000000000000\n      dup2\n      mstore\n      pop\n        /* \"Campaigns.sol\":3876:3883  addRole */\n      tag_75\n        /* \"Campaigns.sol\":3876:3902  addRole(addr, FUND_RAISER) */\n      jump\t// in\n    tag_141:\n        /* \"Campaigns.sol\":3921:3963  WhitelistedAddressAdded(addr, FUND_RAISER) */\n      0x7d02e6403c89cb5aa8f22321b96fd9357cf8895e4a77c10e16c55aa5fc589d20\n        /* \"Campaigns.sol\":3945:3949  addr */\n      dup3\n        /* \"Campaigns.sol\":3951:3962  FUND_RAISER */\n      mload(0x40)\n      dup1\n      0x40\n      add\n      0x40\n      mstore\n      dup1\n      0x0b\n      dup2\n      mstore\n      0x20\n      add\n      0x66756e645f726169736572000000000000000000000000000000000000000000\n      dup2\n      mstore\n      pop\n        /* \"Campaigns.sol\":3921:3963  WhitelistedAddressAdded(addr, FUND_RAISER) */\n      mload(0x40)\n      tag_142\n      swap3\n      swap2\n      swap1\n      tag_120\n      jump\t// in\n    tag_142:\n      mload(0x40)\n      dup1\n      swap2\n      sub\n      swap1\n      log1\n        /* \"Campaigns.sol\":3733:3974  if (... */\n    tag_140:\n        /* \"Campaigns.sol\":4087:4103  FUND_CONTRIBUTOR */\n      mload(0x40)\n      dup1\n      0x40\n      add\n      0x40\n      mstore\n      dup1\n      0x10\n      dup2\n      mstore\n      0x20\n      add\n      0x66756e645f636f6e7472696275746f7200000000000000000000000000000000\n      dup2\n      mstore\n      pop\n        /* \"Campaigns.sol\":4069:4105  abi.encodePacked((FUND_CONTRIBUTOR)) */\n      add(0x20, mload(0x40))\n      tag_143\n      swap2\n      swap1\n      tag_113\n      jump\t// in\n    tag_143:\n      mload(0x40)\n      0x20\n      dup2\n      dup4\n      sub\n      sub\n      dup2\n      mstore\n      swap1\n      0x40\n      mstore\n        /* \"Campaigns.sol\":4059:4106  keccak256(abi.encodePacked((FUND_CONTRIBUTOR))) */\n      dup1\n      mload\n      swap1\n      0x20\n      add\n      keccak256\n        /* \"Campaigns.sol\":4028:4040  role_applied */\n      dup2\n        /* \"Campaigns.sol\":4010:4042  abi.encodePacked((role_applied)) */\n      add(0x20, mload(0x40))\n      tag_144\n      swap2\n      swap1\n      tag_113\n      jump\t// in\n    tag_144:\n      mload(0x40)\n      0x20\n      dup2\n      dup4\n      sub\n      sub\n      dup2\n      mstore\n      swap1\n      0x40\n      mstore\n        /* \"Campaigns.sol\":4000:4043  keccak256(abi.encodePacked((role_applied))) */\n      dup1\n      mload\n      swap1\n      0x20\n      add\n      keccak256\n        /* \"Campaigns.sol\":4000:4106  keccak256(abi.encodePacked((role_applied))) ==... */\n      sub\n        /* \"Campaigns.sol\":3983:4239  if (... */\n      tag_145\n      jumpi\n        /* \"Campaigns.sol\":4131:4162  addRole(addr, FUND_CONTRIBUTOR) */\n      tag_146\n        /* \"Campaigns.sol\":4139:4143  addr */\n      dup3\n        /* \"Campaigns.sol\":4145:4161  FUND_CONTRIBUTOR */\n      mload(0x40)\n      dup1\n      0x40\n      add\n      0x40\n      mstore\n      dup1\n      0x10\n      dup2\n      mstore\n      0x20\n      add\n      0x66756e645f636f6e7472696275746f7200000000000000000000000000000000\n      dup2\n      mstore\n      pop\n        /* \"Campaigns.sol\":4131:4138  addRole */\n      tag_75\n        /* \"Campaigns.sol\":4131:4162  addRole(addr, FUND_CONTRIBUTOR) */\n      jump\t// in\n    tag_146:\n        /* \"Campaigns.sol\":4181:4228  WhitelistedAddressAdded(addr, FUND_CONTRIBUTOR) */\n      0x7d02e6403c89cb5aa8f22321b96fd9357cf8895e4a77c10e16c55aa5fc589d20\n        /* \"Campaigns.sol\":4205:4209  addr */\n      dup3\n        /* \"Campaigns.sol\":4211:4227  FUND_CONTRIBUTOR */\n      mload(0x40)\n      dup1\n      0x40\n      add\n      0x40\n      mstore\n      dup1\n      0x10\n      dup2\n      mstore\n      0x20\n      add\n      0x66756e645f636f6e7472696275746f7200000000000000000000000000000000\n      dup2\n      mstore\n      pop\n        /* \"Campaigns.sol\":4181:4228  WhitelistedAddressAdded(addr, FUND_CONTRIBUTOR) */\n      mload(0x40)\n      tag_147\n      swap3\n      swap2\n      swap1\n      tag_120\n      jump\t// in\n    tag_147:\n      mload(0x40)\n      dup1\n      swap2\n      sub\n      swap1\n      log1\n        /* \"Campaigns.sol\":3983:4239  if (... */\n    tag_145:\n        /* \"Campaigns.sol\":4248:4301  updateStatusOfRequest(addr, role_applied, \"Approved\") */\n      tag_148\n        /* \"Campaigns.sol\":4270:4274  addr */\n      dup3\n        /* \"Campaigns.sol\":4276:4288  role_applied */\n      dup3\n        /* \"Campaigns.sol\":4248:4301  updateStatusOfRequest(addr, role_applied, \"Approved\") */\n      mload(0x40)\n      dup1\n      0x40\n      add\n      0x40\n      mstore\n      dup1\n      0x08\n      dup2\n      mstore\n      0x20\n      add\n      0x417070726f766564000000000000000000000000000000000000000000000000\n      dup2\n      mstore\n      pop\n        /* \"Campaigns.sol\":4248:4269  updateStatusOfRequest */\n      tag_149\n        /* \"Campaigns.sol\":4248:4301  updateStatusOfRequest(addr, role_applied, \"Approved\") */\n      jump\t// in\n    tag_148:\n        /* \"Campaigns.sol\":3618:4308  function approveKYCRequest(address addr, string memory role_applied)... */\n      pop\n      pop\n      jump\t// out\n        /* \"Campaigns.sol\":2842:2873  KYCRequest[] public kycRequests */\n    tag_51:\n      0x02\n      dup2\n      dup2\n      sload\n      dup2\n      lt\n      tag_150\n      jumpi\n      0x00\n      dup1\n      revert\n    tag_150:\n      swap1\n      0x00\n      mstore\n      keccak256(0x00, 0x20)\n      swap1\n      0x08\n      mul\n      add\n      0x00\n      swap2\n      pop\n      swap1\n      pop\n      dup1\n      0x00\n      add\n      dup1\n      sload\n      tag_152\n      swap1\n      tag_153\n      jump\t// in\n    tag_152:\n      dup1\n      0x1f\n      add\n      0x20\n      dup1\n      swap2\n      div\n      mul\n      0x20\n      add\n      mload(0x40)\n      swap1\n      dup2\n      add\n      0x40\n      mstore\n      dup1\n      swap3\n      swap2\n      swap1\n      dup2\n      dup2\n      mstore\n      0x20\n      add\n      dup3\n      dup1\n      sload\n      tag_154\n      swap1\n      tag_153\n      jump\t// in\n    tag_154:\n      dup1\n      iszero\n      tag_155\n      jumpi\n      dup1\n      0x1f\n      lt\n      tag_156\n      jumpi\n      0x0100\n      dup1\n      dup4\n      sload\n      div\n      mul\n      dup4\n      mstore\n      swap2\n      0x20\n      add\n      swap2\n      jump(tag_155)\n    tag_156:\n      dup3\n      add\n      swap2\n      swap1\n      0x00\n      mstore\n      keccak256(0x00, 0x20)\n      swap1\n    tag_157:\n      dup2\n      sload\n      dup2\n      mstore\n      swap1\n      0x01\n      add\n      swap1\n      0x20\n      add\n      dup1\n      dup4\n      gt\n      tag_157\n      jumpi\n      dup3\n      swap1\n      sub\n      0x1f\n      and\n      dup3\n      add\n      swap2\n    tag_155:\n      pop\n      pop\n      pop\n      pop\n      pop\n      swap1\n      dup1\n      0x01\n      add\n      dup1\n      sload\n      tag_158\n      swap1\n      tag_153\n      jump\t// in\n    tag_158:\n      dup1\n      0x1f\n      add\n      0x20\n      dup1\n      swap2\n      div\n      mul\n      0x20\n      add\n      mload(0x40)\n      swap1\n      dup2\n      add\n      0x40\n      mstore\n      dup1\n      swap3\n      swap2\n      swap1\n      dup2\n      dup2\n      mstore\n      0x20\n      add\n      dup3\n      dup1\n      sload\n      tag_159\n      swap1\n      tag_153\n      jump\t// in\n    tag_159:\n      dup1\n      iszero\n      tag_160\n      jumpi\n      dup1\n      0x1f\n      lt\n      tag_161\n      jumpi\n      0x0100\n      dup1\n      dup4\n      sload\n      div\n      mul\n      dup4\n      mstore\n      swap2\n      0x20\n      add\n      swap2\n      jump(tag_160)\n    tag_161:\n      dup3\n      add\n      swap2\n      swap1\n      0x00\n      mstore\n      keccak256(0x00, 0x20)\n      swap1\n    tag_162:\n      dup2\n      sload\n      dup2\n      mstore\n      swap1\n      0x01\n      add\n      swap1\n      0x20\n      add\n      dup1\n      dup4\n      gt\n      tag_162\n      jumpi\n      dup3\n      swap1\n      sub\n      0x1f\n      and\n      dup3\n      add\n      swap2\n    tag_160:\n      pop\n      pop\n      pop\n      pop\n      pop\n      swap1\n      dup1\n      0x02\n      add\n      dup1\n      sload\n      tag_163\n      swap1\n      tag_153\n      jump\t// in\n    tag_163:\n      dup1\n      0x1f\n      add\n      0x20\n      dup1\n      swap2\n      div\n      mul\n      0x20\n      add\n      mload(0x40)\n      swap1\n      dup2\n      add\n      0x40\n      mstore\n      dup1\n      swap3\n      swap2\n      swap1\n      dup2\n      dup2\n      mstore\n      0x20\n      add\n      dup3\n      dup1\n      sload\n      tag_164\n      swap1\n      tag_153\n      jump\t// in\n    tag_164:\n      dup1\n      iszero\n      tag_165\n      jumpi\n      dup1\n      0x1f\n      lt\n      tag_166\n      jumpi\n      0x0100\n      dup1\n      dup4\n      sload\n      div\n      mul\n      dup4\n      mstore\n      swap2\n      0x20\n      add\n      swap2\n      jump(tag_165)\n    tag_166:\n      dup3\n      add\n      swap2\n      swap1\n      0x00\n      mstore\n      keccak256(0x00, 0x20)\n      swap1\n    tag_167:\n      dup2\n      sload\n      dup2\n      mstore\n      swap1\n      0x01\n      add\n      swap1\n      0x20\n      add\n      dup1\n      dup4\n      gt\n      tag_167\n      jumpi\n      dup3\n      swap1\n      sub\n      0x1f\n      and\n      dup3\n      add\n      swap2\n    tag_165:\n      pop\n      pop\n      pop\n      pop\n      pop\n      swap1\n      dup1\n      0x03\n      add\n      dup1\n      sload\n      tag_168\n      swap1\n      tag_153\n      jump\t// in\n    tag_168:\n      dup1\n      0x1f\n      add\n      0x20\n      dup1\n      swap2\n      div\n      mul\n      0x20\n      add\n      mload(0x40)\n      swap1\n      dup2\n      add\n      0x40\n      mstore\n      dup1\n      swap3\n      swap2\n      swap1\n      dup2\n      dup2\n      mstore\n      0x20\n      add\n      dup3\n      dup1\n      sload\n      tag_169\n      swap1\n      tag_153\n      jump\t// in\n    tag_169:\n      dup1\n      iszero\n      tag_170\n      jumpi\n      dup1\n      0x1f\n      lt\n      tag_171\n      jumpi\n      0x0100\n      dup1\n      dup4\n      sload\n      div\n      mul\n      dup4\n      mstore\n      swap2\n      0x20\n      add\n      swap2\n      jump(tag_170)\n    tag_171:\n      dup3\n      add\n      swap2\n      swap1\n      0x00\n      mstore\n      keccak256(0x00, 0x20)\n      swap1\n    tag_172:\n      dup2\n      sload\n      dup2\n      mstore\n      swap1\n      0x01\n      add\n      swap1\n      0x20\n      add\n      dup1\n      dup4\n      gt\n      tag_172\n      jumpi\n      dup3\n      swap1\n      sub\n      0x1f\n      and\n      dup3\n      add\n      swap2\n    tag_170:\n      pop\n      pop\n      pop\n      pop\n      pop\n      swap1\n      dup1\n      0x04\n      add\n      0x00\n      swap1\n      sload\n      swap1\n      0x0100\n      exp\n      swap1\n      div\n      0xffffffffffffffffffffffffffffffffffffffff\n      and\n      swap1\n      dup1\n      0x05\n      add\n      dup1\n      sload\n      tag_173\n      swap1\n      tag_153\n      jump\t// in\n    tag_173:\n      dup1\n      0x1f\n      add\n      0x20\n      dup1\n      swap2\n      div\n      mul\n      0x20\n      add\n      mload(0x40)\n      swap1\n      dup2\n      add\n      0x40\n      mstore\n      dup1\n      swap3\n      swap2\n      swap1\n      dup2\n      dup2\n      mstore\n      0x20\n      add\n      dup3\n      dup1\n      sload\n      tag_174\n      swap1\n      tag_153\n      jump\t// in\n    tag_174:\n      dup1\n      iszero\n      tag_175\n      jumpi\n      dup1\n      0x1f\n      lt\n      tag_176\n      jumpi\n      0x0100\n      dup1\n      dup4\n      sload\n      div\n      mul\n      dup4\n      mstore\n      swap2\n      0x20\n      add\n      swap2\n      jump(tag_175)\n    tag_176:\n      dup3\n      add\n      swap2\n      swap1\n      0x00\n      mstore\n      keccak256(0x00, 0x20)\n      swap1\n    tag_177:\n      dup2\n      sload\n      dup2\n      mstore\n      swap1\n      0x01\n      add\n      swap1\n      0x20\n      add\n      dup1\n      dup4\n      gt\n      tag_177\n      jumpi\n      dup3\n      swap1\n      sub\n      0x1f\n      and\n      dup3\n      add\n      swap2\n    tag_175:\n      pop\n      pop\n      pop\n      pop\n      pop\n      swap1\n      dup1\n      0x06\n      add\n      dup1\n      sload\n      tag_178\n      swap1\n      tag_153\n      jump\t// in\n    tag_178:\n      dup1\n      0x1f\n      add\n      0x20\n      dup1\n      swap2\n      div\n      mul\n      0x20\n      add\n      mload(0x40)\n      swap1\n      dup2\n      add\n      0x40\n      mstore\n      dup1\n      swap3\n      swap2\n      swap1\n      dup2\n      dup2\n      mstore\n      0x20\n      add\n      dup3\n      dup1\n      sload\n      tag_179\n      swap1\n      tag_153\n      jump\t// in\n    tag_179:\n      dup1\n      iszero\n      tag_180\n      jumpi\n      dup1\n      0x1f\n      lt\n      tag_181\n      jumpi\n      0x0100\n      dup1\n      dup4\n      sload\n      div\n      mul\n      dup4\n      mstore\n      swap2\n      0x20\n      add\n      swap2\n      jump(tag_180)\n    tag_181:\n      dup3\n      add\n      swap2\n      swap1\n      0x00\n      mstore\n      keccak256(0x00, 0x20)\n      swap1\n    tag_182:\n      dup2\n      sload\n      dup2\n      mstore\n      swap1\n      0x01\n      add\n      swap1\n      0x20\n      add\n      dup1\n      dup4\n      gt\n      tag_182\n      jumpi\n      dup3\n      swap1\n      sub\n      0x1f\n      and\n      dup3\n      add\n      swap2\n    tag_180:\n      pop\n      pop\n      pop\n      pop\n      pop\n      swap1\n      dup1\n      0x07\n      add\n      dup1\n      sload\n      tag_183\n      swap1\n      tag_153\n      jump\t// in\n    tag_183:\n      dup1\n      0x1f\n      add\n      0x20\n      dup1\n      swap2\n      div\n      mul\n      0x20\n      add\n      mload(0x40)\n      swap1\n      dup2\n      add\n      0x40\n      mstore\n      dup1\n      swap3\n      swap2\n      swap1\n      dup2\n      dup2\n      mstore\n      0x20\n      add\n      dup3\n      dup1\n      sload\n      tag_184\n      swap1\n      tag_153\n      jump\t// in\n    tag_184:\n      dup1\n      iszero\n      tag_185\n      jumpi\n      dup1\n      0x1f\n      lt\n      tag_186\n      jumpi\n      0x0100\n      dup1\n      dup4\n      sload\n      div\n      mul\n      dup4\n      mstore\n      swap2\n      0x20\n      add\n      swap2\n      jump(tag_185)\n    tag_186:\n      dup3\n      add\n      swap2\n      swap1\n      0x00\n      mstore\n      keccak256(0x00, 0x20)\n      swap1\n    tag_187:\n      dup2\n      sload\n      dup2\n      mstore\n      swap1\n      0x01\n      add\n      swap1\n      0x20\n      add\n      dup1\n      dup4\n      gt\n      tag_187\n      jumpi\n      dup3\n      swap1\n      sub\n      0x1f\n      and\n      dup3\n      add\n      swap2\n    tag_185:\n      pop\n      pop\n      pop\n      pop\n      pop\n      swap1\n      pop\n      dup9\n      jump\t// out\n        /* \"Campaigns.sol\":6386:6574  function removeAddressFromFundContributor(address addr) public onlyOwner {... */\n    tag_56:\n        /* \"Campaigns.sol\":2278:2283  owner */\n      0x01\n      0x00\n      swap1\n      sload\n      swap1\n      0x0100\n      exp\n      swap1\n      div\n      0xffffffffffffffffffffffffffffffffffffffff\n      and\n        /* \"Campaigns.sol\":2264:2283  msg.sender == owner */\n      0xffffffffffffffffffffffffffffffffffffffff\n      and\n        /* \"Campaigns.sol\":2264:2274  msg.sender */\n      caller\n        /* \"Campaigns.sol\":2264:2283  msg.sender == owner */\n      0xffffffffffffffffffffffffffffffffffffffff\n      and\n      eq\n        /* \"Campaigns.sol\":2256:2284  require(msg.sender == owner) */\n      tag_189\n      jumpi\n      0x00\n      dup1\n      revert\n    tag_189:\n        /* \"Campaigns.sol\":6469:6503  removeRole(addr, FUND_CONTRIBUTOR) */\n      tag_191\n        /* \"Campaigns.sol\":6480:6484  addr */\n      dup2\n        /* \"Campaigns.sol\":6486:6502  FUND_CONTRIBUTOR */\n      mload(0x40)\n      dup1\n      0x40\n      add\n      0x40\n      mstore\n      dup1\n      0x10\n      dup2\n      mstore\n      0x20\n      add\n      0x66756e645f636f6e7472696275746f7200000000000000000000000000000000\n      dup2\n      mstore\n      pop\n        /* \"Campaigns.sol\":6469:6479  removeRole */\n      tag_192\n        /* \"Campaigns.sol\":6469:6503  removeRole(addr, FUND_CONTRIBUTOR) */\n      jump\t// in\n    tag_191:\n        /* \"Campaigns.sol\":6518:6567  WhitelistedAddressRemoved(addr, FUND_CONTRIBUTOR) */\n      0x420b6d6124d847399574626cc16ce1504c11d6923c10c76900fe29c2933e310f\n        /* \"Campaigns.sol\":6544:6548  addr */\n      dup2\n        /* \"Campaigns.sol\":6550:6566  FUND_CONTRIBUTOR */\n      mload(0x40)\n      dup1\n      0x40\n      add\n      0x40\n      mstore\n      dup1\n      0x10\n      dup2\n      mstore\n      0x20\n      add\n      0x66756e645f636f6e7472696275746f7200000000000000000000000000000000\n      dup2\n      mstore\n      pop\n        /* \"Campaigns.sol\":6518:6567  WhitelistedAddressRemoved(addr, FUND_CONTRIBUTOR) */\n      mload(0x40)\n      tag_193\n      swap3\n      swap2\n      swap1\n      tag_120\n      jump\t// in\n    tag_193:\n      mload(0x40)\n      dup1\n      swap2\n      sub\n      swap1\n      log1\n        /* \"Campaigns.sol\":6386:6574  function removeAddressFromFundContributor(address addr) public onlyOwner {... */\n      pop\n      jump\t// out\n        /* \"Campaigns.sol\":5651:5768  function isFundApprover(address addr) public view returns (bool) {... */\n    tag_59:\n        /* \"Campaigns.sol\":5710:5714  bool */\n      0x00\n        /* \"Campaigns.sol\":5733:5761  hasRole(addr, FUND_APPROVER) */\n      tag_195\n        /* \"Campaigns.sol\":5741:5745  addr */\n      dup3\n        /* \"Campaigns.sol\":5747:5760  FUND_APPROVER */\n      mload(0x40)\n      dup1\n      0x40\n      add\n      0x40\n      mstore\n      dup1\n      0x0d\n      dup2\n      mstore\n      0x20\n      add\n      0x66756e645f617070726f76657200000000000000000000000000000000000000\n      dup2\n      mstore\n      pop\n        /* \"Campaigns.sol\":5733:5740  hasRole */\n      tag_42\n        /* \"Campaigns.sol\":5733:5761  hasRole(addr, FUND_APPROVER) */\n      jump\t// in\n    tag_195:\n        /* \"Campaigns.sol\":5726:5761  return hasRole(addr, FUND_APPROVER) */\n      swap1\n      pop\n        /* \"Campaigns.sol\":5651:5768  function isFundApprover(address addr) public view returns (bool) {... */\n      swap2\n      swap1\n      pop\n      jump\t// out\n        /* \"Campaigns.sol\":5467:5645  function addAddressToFundContributor(address addr) public onlyOwner {... */\n    tag_63:\n        /* \"Campaigns.sol\":2278:2283  owner */\n      0x01\n      0x00\n      swap1\n      sload\n      swap1\n      0x0100\n      exp\n      swap1\n      div\n      0xffffffffffffffffffffffffffffffffffffffff\n      and\n        /* \"Campaigns.sol\":2264:2283  msg.sender == owner */\n      0xffffffffffffffffffffffffffffffffffffffff\n      and\n        /* \"Campaigns.sol\":2264:2274  msg.sender */\n      caller\n        /* \"Campaigns.sol\":2264:2283  msg.sender == owner */\n      0xffffffffffffffffffffffffffffffffffffffff\n      and\n      eq\n        /* \"Campaigns.sol\":2256:2284  require(msg.sender == owner) */\n      tag_197\n      jumpi\n      0x00\n      dup1\n      revert\n    tag_197:\n        /* \"Campaigns.sol\":5545:5576  addRole(addr, FUND_CONTRIBUTOR) */\n      tag_199\n        /* \"Campaigns.sol\":5553:5557  addr */\n      dup2\n        /* \"Campaigns.sol\":5559:5575  FUND_CONTRIBUTOR */\n      mload(0x40)\n      dup1\n      0x40\n      add\n      0x40\n      mstore\n      dup1\n      0x10\n      dup2\n      mstore\n      0x20\n      add\n      0x66756e645f636f6e7472696275746f7200000000000000000000000000000000\n      dup2\n      mstore\n      pop\n        /* \"Campaigns.sol\":5545:5552  addRole */\n      tag_75\n        /* \"Campaigns.sol\":5545:5576  addRole(addr, FUND_CONTRIBUTOR) */\n      jump\t// in\n    tag_199:\n        /* \"Campaigns.sol\":5591:5638  WhitelistedAddressAdded(addr, FUND_CONTRIBUTOR) */\n      0x7d02e6403c89cb5aa8f22321b96fd9357cf8895e4a77c10e16c55aa5fc589d20\n        /* \"Campaigns.sol\":5615:5619  addr */\n      dup2\n        /* \"Campaigns.sol\":5621:5637  FUND_CONTRIBUTOR */\n      mload(0x40)\n      dup1\n      0x40\n      add\n      0x40\n      mstore\n      dup1\n      0x10\n      dup2\n      mstore\n      0x20\n      add\n      0x66756e645f636f6e7472696275746f7200000000000000000000000000000000\n      dup2\n      mstore\n      pop\n        /* \"Campaigns.sol\":5591:5638  WhitelistedAddressAdded(addr, FUND_CONTRIBUTOR) */\n      mload(0x40)\n      tag_200\n      swap3\n      swap2\n      swap1\n      tag_120\n      jump\t// in\n    tag_200:\n      mload(0x40)\n      dup1\n      swap2\n      sub\n      swap1\n      log1\n        /* \"Campaigns.sol\":5467:5645  function addAddressToFundContributor(address addr) public onlyOwner {... */\n      pop\n      jump\t// out\n        /* \"Campaigns.sol\":5292:5461  function addAddressToFundApprover(address addr) public onlyOwner {... */\n    tag_66:\n        /* \"Campaigns.sol\":2278:2283  owner */\n      0x01\n      0x00\n      swap1\n      sload\n      swap1\n      0x0100\n      exp\n      swap1\n      div\n      0xffffffffffffffffffffffffffffffffffffffff\n      and\n        /* \"Campaigns.sol\":2264:2283  msg.sender == owner */\n      0xffffffffffffffffffffffffffffffffffffffff\n      and\n        /* \"Campaigns.sol\":2264:2274  msg.sender */\n      caller\n        /* \"Campaigns.sol\":2264:2283  msg.sender == owner */\n      0xffffffffffffffffffffffffffffffffffffffff\n      and\n      eq\n        /* \"Campaigns.sol\":2256:2284  require(msg.sender == owner) */\n      tag_202\n      jumpi\n      0x00\n      dup1\n      revert\n    tag_202:\n        /* \"Campaigns.sol\":5367:5395  addRole(addr, FUND_APPROVER) */\n      tag_204\n        /* \"Campaigns.sol\":5375:5379  addr */\n      dup2\n        /* \"Campaigns.sol\":5381:5394  FUND_APPROVER */\n      mload(0x40)\n      dup1\n      0x40\n      add\n      0x40\n      mstore\n      dup1\n      0x0d\n      dup2\n      mstore\n      0x20\n      add\n      0x66756e645f617070726f76657200000000000000000000000000000000000000\n      dup2\n      mstore\n      pop\n        /* \"Campaigns.sol\":5367:5374  addRole */\n      tag_75\n        /* \"Campaigns.sol\":5367:5395  addRole(addr, FUND_APPROVER) */\n      jump\t// in\n    tag_204:\n        /* \"Campaigns.sol\":5410:5454  WhitelistedAddressAdded(addr, FUND_APPROVER) */\n      0x7d02e6403c89cb5aa8f22321b96fd9357cf8895e4a77c10e16c55aa5fc589d20\n        /* \"Campaigns.sol\":5434:5438  addr */\n      dup2\n        /* \"Campaigns.sol\":5440:5453  FUND_APPROVER */\n      mload(0x40)\n      dup1\n      0x40\n      add\n      0x40\n      mstore\n      dup1\n      0x0d\n      dup2\n      mstore\n      0x20\n      add\n      0x66756e645f617070726f76657200000000000000000000000000000000000000\n      dup2\n      mstore\n      pop\n        /* \"Campaigns.sol\":5410:5454  WhitelistedAddressAdded(addr, FUND_APPROVER) */\n      mload(0x40)\n      tag_205\n      swap3\n      swap2\n      swap1\n      tag_120\n      jump\t// in\n    tag_205:\n      mload(0x40)\n      dup1\n      swap2\n      sub\n      swap1\n      log1\n        /* \"Campaigns.sol\":5292:5461  function addAddressToFundApprover(address addr) public onlyOwner {... */\n      pop\n      jump\t// out\n        /* \"Campaigns.sol\":6207:6380  function removeAddressFromFundRaiser(address addr) public onlyOwner {... */\n    tag_69:\n        /* \"Campaigns.sol\":2278:2283  owner */\n      0x01\n      0x00\n      swap1\n      sload\n      swap1\n      0x0100\n      exp\n      swap1\n      div\n      0xffffffffffffffffffffffffffffffffffffffff\n      and\n        /* \"Campaigns.sol\":2264:2283  msg.sender == owner */\n      0xffffffffffffffffffffffffffffffffffffffff\n      and\n        /* \"Campaigns.sol\":2264:2274  msg.sender */\n      caller\n        /* \"Campaigns.sol\":2264:2283  msg.sender == owner */\n      0xffffffffffffffffffffffffffffffffffffffff\n      and\n      eq\n        /* \"Campaigns.sol\":2256:2284  require(msg.sender == owner) */\n      tag_207\n      jumpi\n      0x00\n      dup1\n      revert\n    tag_207:\n        /* \"Campaigns.sol\":6285:6314  removeRole(addr, FUND_RAISER) */\n      tag_209\n        /* \"Campaigns.sol\":6296:6300  addr */\n      dup2\n        /* \"Campaigns.sol\":6302:6313  FUND_RAISER */\n      mload(0x40)\n      dup1\n      0x40\n      add\n      0x40\n      mstore\n      dup1\n      0x0b\n      dup2\n      mstore\n      0x20\n      add\n      0x66756e645f726169736572000000000000000000000000000000000000000000\n      dup2\n      mstore\n      pop\n        /* \"Campaigns.sol\":6285:6295  removeRole */\n      tag_192\n        /* \"Campaigns.sol\":6285:6314  removeRole(addr, FUND_RAISER) */\n      jump\t// in\n    tag_209:\n        /* \"Campaigns.sol\":6329:6373  WhitelistedAddressRemoved(addr, FUND_RAISER) */\n      0x420b6d6124d847399574626cc16ce1504c11d6923c10c76900fe29c2933e310f\n        /* \"Campaigns.sol\":6355:6359  addr */\n      dup2\n        /* \"Campaigns.sol\":6361:6372  FUND_RAISER */\n      mload(0x40)\n      dup1\n      0x40\n      add\n      0x40\n      mstore\n      dup1\n      0x0b\n      dup2\n      mstore\n      0x20\n      add\n      0x66756e645f726169736572000000000000000000000000000000000000000000\n      dup2\n      mstore\n      pop\n        /* \"Campaigns.sol\":6329:6373  WhitelistedAddressRemoved(addr, FUND_RAISER) */\n      mload(0x40)\n      tag_210\n      swap3\n      swap2\n      swap1\n      tag_120\n      jump\t// in\n    tag_210:\n      mload(0x40)\n      dup1\n      swap2\n      sub\n      swap1\n      log1\n        /* \"Campaigns.sol\":6207:6380  function removeAddressFromFundRaiser(address addr) public onlyOwner {... */\n      pop\n      jump\t// out\n        /* \"Campaigns.sol\":4340:4502  function rejectKYCRequest(address addr, string memory role_applied) public onlyFundApprover {... */\n    tag_72:\n        /* \"Campaigns.sol\":2346:2382  checkRole(msg.sender, FUND_APPROVER) */\n      tag_212\n        /* \"Campaigns.sol\":2356:2366  msg.sender */\n      caller\n        /* \"Campaigns.sol\":2368:2381  FUND_APPROVER */\n      mload(0x40)\n      dup1\n      0x40\n      add\n      0x40\n      mstore\n      dup1\n      0x0d\n      dup2\n      mstore\n      0x20\n      add\n      0x66756e645f617070726f76657200000000000000000000000000000000000000\n      dup2\n      mstore\n      pop\n        /* \"Campaigns.sol\":2346:2355  checkRole */\n      tag_31\n        /* \"Campaigns.sol\":2346:2382  checkRole(msg.sender, FUND_APPROVER) */\n      jump\t// in\n    tag_212:\n        /* \"Campaigns.sol\":4442:4495  updateStatusOfRequest(addr, role_applied, \"Rejected\") */\n      tag_214\n        /* \"Campaigns.sol\":4464:4468  addr */\n      dup3\n        /* \"Campaigns.sol\":4470:4482  role_applied */\n      dup3\n        /* \"Campaigns.sol\":4442:4495  updateStatusOfRequest(addr, role_applied, \"Rejected\") */\n      mload(0x40)\n      dup1\n      0x40\n      add\n      0x40\n      mstore\n      dup1\n      0x08\n      dup2\n      mstore\n      0x20\n      add\n      0x52656a6563746564000000000000000000000000000000000000000000000000\n      dup2\n      mstore\n      pop\n        /* \"Campaigns.sol\":4442:4463  updateStatusOfRequest */\n      tag_149\n        /* \"Campaigns.sol\":4442:4495  updateStatusOfRequest(addr, role_applied, \"Rejected\") */\n      jump\t// in\n    tag_214:\n        /* \"Campaigns.sol\":4340:4502  function rejectKYCRequest(address addr, string memory role_applied) public onlyFundApprover {... */\n      pop\n      pop\n      jump\t// out\n        /* \"Campaigns.sol\":1375:1519  function addRole(address addr, string memory roleName) public {... */\n    tag_75:\n        /* \"Campaigns.sol\":1447:1472  roles[roleName].add(addr) */\n      tag_216\n        /* \"Campaigns.sol\":1467:1471  addr */\n      dup3\n        /* \"Campaigns.sol\":1447:1452  roles */\n      0x00\n        /* \"Campaigns.sol\":1453:1461  roleName */\n      dup4\n        /* \"Campaigns.sol\":1447:1462  roles[roleName] */\n      mload(0x40)\n      tag_217\n      swap2\n      swap1\n      tag_113\n      jump\t// in\n    tag_217:\n      swap1\n      dup2\n      mstore\n      0x20\n      add\n      mload(0x40)\n      dup1\n      swap2\n      sub\n      swap1\n      keccak256\n        /* \"Campaigns.sol\":1447:1466  roles[roleName].add */\n      tag_218\n      swap1\n        /* \"Campaigns.sol\":1447:1472  roles[roleName].add(addr) */\n      swap2\n      swap1\n      0xffffffff\n      and\n      jump\t// in\n    tag_216:\n        /* \"Campaigns.sol\":1487:1512  RoleAdded(addr, roleName) */\n      0xbfec83d64eaa953f2708271a023ab9ee82057f8f3578d548c1a4ba0b5b700489\n        /* \"Campaigns.sol\":1497:1501  addr */\n      dup3\n        /* \"Campaigns.sol\":1503:1511  roleName */\n      dup3\n        /* \"Campaigns.sol\":1487:1512  RoleAdded(addr, roleName) */\n      mload(0x40)\n      tag_219\n      swap3\n      swap2\n      swap1\n      tag_120\n      jump\t// in\n    tag_219:\n      mload(0x40)\n      dup1\n      swap2\n      sub\n      swap1\n      log1\n        /* \"Campaigns.sol\":1375:1519  function addRole(address addr, string memory roleName) public {... */\n      pop\n      pop\n      jump\t// out\n        /* \"Campaigns.sol\":1987:2037  string public constant FUND_RAISER = \"fund_raiser\" */\n    tag_77:\n      mload(0x40)\n      dup1\n      0x40\n      add\n      0x40\n      mstore\n      dup1\n      0x0b\n      dup2\n      mstore\n      0x20\n      add\n      0x66756e645f726169736572000000000000000000000000000000000000000000\n      dup2\n      mstore\n      pop\n      dup2\n      jump\t// out\n        /* \"Campaigns.sol\":6022:6201  function removeAddressFromFundApprover(address addr) public onlyOwner {... */\n    tag_82:\n        /* \"Campaigns.sol\":2278:2283  owner */\n      0x01\n      0x00\n      swap1\n      sload\n      swap1\n      0x0100\n      exp\n      swap1\n      div\n      0xffffffffffffffffffffffffffffffffffffffff\n      and\n        /* \"Campaigns.sol\":2264:2283  msg.sender == owner */\n      0xffffffffffffffffffffffffffffffffffffffff\n      and\n        /* \"Campaigns.sol\":2264:2274  msg.sender */\n      caller\n        /* \"Campaigns.sol\":2264:2283  msg.sender == owner */\n      0xffffffffffffffffffffffffffffffffffffffff\n      and\n      eq\n        /* \"Campaigns.sol\":2256:2284  require(msg.sender == owner) */\n      tag_221\n      jumpi\n      0x00\n      dup1\n      revert\n    tag_221:\n        /* \"Campaigns.sol\":6102:6133  removeRole(addr, FUND_APPROVER) */\n      tag_223\n        /* \"Campaigns.sol\":6113:6117  addr */\n      dup2\n        /* \"Campaigns.sol\":6119:6132  FUND_APPROVER */\n      mload(0x40)\n      dup1\n      0x40\n      add\n      0x40\n      mstore\n      dup1\n      0x0d\n      dup2\n      mstore\n      0x20\n      add\n      0x66756e645f617070726f76657200000000000000000000000000000000000000\n      dup2\n      mstore\n      pop\n        /* \"Campaigns.sol\":6102:6112  removeRole */\n      tag_192\n        /* \"Campaigns.sol\":6102:6133  removeRole(addr, FUND_APPROVER) */\n      jump\t// in\n    tag_223:\n        /* \"Campaigns.sol\":6148:6194  WhitelistedAddressRemoved(addr, FUND_APPROVER) */\n      0x420b6d6124d847399574626cc16ce1504c11d6923c10c76900fe29c2933e310f\n        /* \"Campaigns.sol\":6174:6178  addr */\n      dup2\n        /* \"Campaigns.sol\":6180:6193  FUND_APPROVER */\n      mload(0x40)\n      dup1\n      0x40\n      add\n      0x40\n      mstore\n      dup1\n      0x0d\n      dup2\n      mstore\n      0x20\n      add\n      0x66756e645f617070726f76657200000000000000000000000000000000000000\n      dup2\n      mstore\n      pop\n        /* \"Campaigns.sol\":6148:6194  WhitelistedAddressRemoved(addr, FUND_APPROVER) */\n      mload(0x40)\n      tag_224\n      swap3\n      swap2\n      swap1\n      tag_120\n      jump\t// in\n    tag_224:\n      mload(0x40)\n      dup1\n      swap2\n      sub\n      swap1\n      log1\n        /* \"Campaigns.sol\":6022:6201  function removeAddressFromFundApprover(address addr) public onlyOwner {... */\n      pop\n      jump\t// out\n        /* \"Campaigns.sol\":1961:1981  address public owner */\n    tag_84:\n      0x01\n      0x00\n      swap1\n      sload\n      swap1\n      0x0100\n      exp\n      swap1\n      div\n      0xffffffffffffffffffffffffffffffffffffffff\n      and\n      dup2\n      jump\t// out\n        /* \"Campaigns.sol\":5893:6016  function isFundContributor(address addr) public view returns (bool) {... */\n    tag_89:\n        /* \"Campaigns.sol\":5955:5959  bool */\n      0x00\n        /* \"Campaigns.sol\":5978:6009  hasRole(addr, FUND_CONTRIBUTOR) */\n      tag_226\n        /* \"Campaigns.sol\":5986:5990  addr */\n      dup3\n        /* \"Campaigns.sol\":5992:6008  FUND_CONTRIBUTOR */\n      mload(0x40)\n      dup1\n      0x40\n      add\n      0x40\n      mstore\n      dup1\n      0x10\n      dup2\n      mstore\n      0x20\n      add\n      0x66756e645f636f6e7472696275746f7200000000000000000000000000000000\n      dup2\n      mstore\n      pop\n        /* \"Campaigns.sol\":5978:5985  hasRole */\n      tag_42\n        /* \"Campaigns.sol\":5978:6009  hasRole(addr, FUND_CONTRIBUTOR) */\n      jump\t// in\n    tag_226:\n        /* \"Campaigns.sol\":5971:6009  return hasRole(addr, FUND_CONTRIBUTOR) */\n      swap1\n      pop\n        /* \"Campaigns.sol\":5893:6016  function isFundContributor(address addr) public view returns (bool) {... */\n      swap2\n      swap1\n      pop\n      jump\t// out\n        /* \"Campaigns.sol\":3475:3582  function fetchKYCRequests() public view returns (KYCRequest[] memory) {... */\n    tag_92:\n        /* \"Campaigns.sol\":3524:3543  KYCRequest[] memory */\n      0x60\n        /* \"Campaigns.sol\":3563:3574  kycRequests */\n      0x02\n        /* \"Campaigns.sol\":3555:3575  return (kycRequests) */\n      dup1\n      sload\n      dup1\n      0x20\n      mul\n      0x20\n      add\n      mload(0x40)\n      swap1\n      dup2\n      add\n      0x40\n      mstore\n      dup1\n      swap3\n      swap2\n      swap1\n      dup2\n      dup2\n      mstore\n      0x20\n      add\n      0x00\n      swap1\n    tag_228:\n      dup3\n      dup3\n      lt\n      iszero\n      tag_229\n      jumpi\n      dup4\n      dup3\n      swap1\n      0x00\n      mstore\n      keccak256(0x00, 0x20)\n      swap1\n      0x08\n      mul\n      add\n      mload(0x40)\n      dup1\n      0x0100\n      add\n      0x40\n      mstore\n      swap1\n      dup2\n      0x00\n      dup3\n      add\n      dup1\n      sload\n      tag_231\n      swap1\n      tag_153\n      jump\t// in\n    tag_231:\n      dup1\n      0x1f\n      add\n      0x20\n      dup1\n      swap2\n      div\n      mul\n      0x20\n      add\n      mload(0x40)\n      swap1\n      dup2\n      add\n      0x40\n      mstore\n      dup1\n      swap3\n      swap2\n      swap1\n      dup2\n      dup2\n      mstore\n      0x20\n      add\n      dup3\n      dup1\n      sload\n      tag_232\n      swap1\n      tag_153\n      jump\t// in\n    tag_232:\n      dup1\n      iszero\n      tag_233\n      jumpi\n      dup1\n      0x1f\n      lt\n      tag_234\n      jumpi\n      0x0100\n      dup1\n      dup4\n      sload\n      div\n      mul\n      dup4\n      mstore\n      swap2\n      0x20\n      add\n      swap2\n      jump(tag_233)\n    tag_234:\n      dup3\n      add\n      swap2\n      swap1\n      0x00\n      mstore\n      keccak256(0x00, 0x20)\n      swap1\n    tag_235:\n      dup2\n      sload\n      dup2\n      mstore\n      swap1\n      0x01\n      add\n      swap1\n      0x20\n      add\n      dup1\n      dup4\n      gt\n      tag_235\n      jumpi\n      dup3\n      swap1\n      sub\n      0x1f\n      and\n      dup3\n      add\n      swap2\n    tag_233:\n      pop\n      pop\n      pop\n      pop\n      pop\n      dup2\n      mstore\n      0x20\n      add\n      0x01\n      dup3\n      add\n      dup1\n      sload\n      tag_236\n      swap1\n      tag_153\n      jump\t// in\n    tag_236:\n      dup1\n      0x1f\n      add\n      0x20\n      dup1\n      swap2\n      div\n      mul\n      0x20\n      add\n      mload(0x40)\n      swap1\n      dup2\n      add\n      0x40\n      mstore\n      dup1\n      swap3\n      swap2\n      swap1\n      dup2\n      dup2\n      mstore\n      0x20\n      add\n      dup3\n      dup1\n      sload\n      tag_237\n      swap1\n      tag_153\n      jump\t// in\n    tag_237:\n      dup1\n      iszero\n      tag_238\n      jumpi\n      dup1\n      0x1f\n      lt\n      tag_239\n      jumpi\n      0x0100\n      dup1\n      dup4\n      sload\n      div\n      mul\n      dup4\n      mstore\n      swap2\n      0x20\n      add\n      swap2\n      jump(tag_238)\n    tag_239:\n      dup3\n      add\n      swap2\n      swap1\n      0x00\n      mstore\n      keccak256(0x00, 0x20)\n      swap1\n    tag_240:\n      dup2\n      sload\n      dup2\n      mstore\n      swap1\n      0x01\n      add\n      swap1\n      0x20\n      add\n      dup1\n      dup4\n      gt\n      tag_240\n      jumpi\n      dup3\n      swap1\n      sub\n      0x1f\n      and\n      dup3\n      add\n      swap2\n    tag_238:\n      pop\n      pop\n      pop\n      pop\n      pop\n      dup2\n      mstore\n      0x20\n      add\n      0x02\n      dup3\n      add\n      dup1\n      sload\n      tag_241\n      swap1\n      tag_153\n      jump\t// in\n    tag_241:\n      dup1\n      0x1f\n      add\n      0x20\n      dup1\n      swap2\n      div\n      mul\n      0x20\n      add\n      mload(0x40)\n      swap1\n      dup2\n      add\n      0x40\n      mstore\n      dup1\n      swap3\n      swap2\n      swap1\n      dup2\n      dup2\n      mstore\n      0x20\n      add\n      dup3\n      dup1\n      sload\n      tag_242\n      swap1\n      tag_153\n      jump\t// in\n    tag_242:\n      dup1\n      iszero\n      tag_243\n      jumpi\n      dup1\n      0x1f\n      lt\n      tag_244\n      jumpi\n      0x0100\n      dup1\n      dup4\n      sload\n      div\n      mul\n      dup4\n      mstore\n      swap2\n      0x20\n      add\n      swap2\n      jump(tag_243)\n    tag_244:\n      dup3\n      add\n      swap2\n      swap1\n      0x00\n      mstore\n      keccak256(0x00, 0x20)\n      swap1\n    tag_245:\n      dup2\n      sload\n      dup2\n      mstore\n      swap1\n      0x01\n      add\n      swap1\n      0x20\n      add\n      dup1\n      dup4\n      gt\n      tag_245\n      jumpi\n      dup3\n      swap1\n      sub\n      0x1f\n      and\n      dup3\n      add\n      swap2\n    tag_243:\n      pop\n      pop\n      pop\n      pop\n      pop\n      dup2\n      mstore\n      0x20\n      add\n      0x03\n      dup3\n      add\n      dup1\n      sload\n      tag_246\n      swap1\n      tag_153\n      jump\t// in\n    tag_246:\n      dup1\n      0x1f\n      add\n      0x20\n      dup1\n      swap2\n      div\n      mul\n      0x20\n      add\n      mload(0x40)\n      swap1\n      dup2\n      add\n      0x40\n      mstore\n      dup1\n      swap3\n      swap2\n      swap1\n      dup2\n      dup2\n      mstore\n      0x20\n      add\n      dup3\n      dup1\n      sload\n      tag_247\n      swap1\n      tag_153\n      jump\t// in\n    tag_247:\n      dup1\n      iszero\n      tag_248\n      jumpi\n      dup1\n      0x1f\n      lt\n      tag_249\n      jumpi\n      0x0100\n      dup1\n      dup4\n      sload\n      div\n      mul\n      dup4\n      mstore\n      swap2\n      0x20\n      add\n      swap2\n      jump(tag_248)\n    tag_249:\n      dup3\n      add\n      swap2\n      swap1\n      0x00\n      mstore\n      keccak256(0x00, 0x20)\n      swap1\n    tag_250:\n      dup2\n      sload\n      dup2\n      mstore\n      swap1\n      0x01\n      add\n      swap1\n      0x20\n      add\n      dup1\n      dup4\n      gt\n      tag_250\n      jumpi\n      dup3\n      swap1\n      sub\n      0x1f\n      and\n      dup3\n      add\n      swap2\n    tag_248:\n      pop\n      pop\n      pop\n      pop\n      pop\n      dup2\n      mstore\n      0x20\n      add\n      0x04\n      dup3\n      add\n      0x00\n      swap1\n      sload\n      swap1\n      0x0100\n      exp\n      swap1\n      div\n      0xffffffffffffffffffffffffffffffffffffffff\n      and\n      0xffffffffffffffffffffffffffffffffffffffff\n      and\n      0xffffffffffffffffffffffffffffffffffffffff\n      and\n      dup2\n      mstore\n      0x20\n      add\n      0x05\n      dup3\n      add\n      dup1\n      sload\n      tag_251\n      swap1\n      tag_153\n      jump\t// in\n    tag_251:\n      dup1\n      0x1f\n      add\n      0x20\n      dup1\n      swap2\n      div\n      mul\n      0x20\n      add\n      mload(0x40)\n      swap1\n      dup2\n      add\n      0x40\n      mstore\n      dup1\n      swap3\n      swap2\n      swap1\n      dup2\n      dup2\n      mstore\n      0x20\n      add\n      dup3\n      dup1\n      sload\n      tag_252\n      swap1\n      tag_153\n      jump\t// in\n    tag_252:\n      dup1\n      iszero\n      tag_253\n      jumpi\n      dup1\n      0x1f\n      lt\n      tag_254\n      jumpi\n      0x0100\n      dup1\n      dup4\n      sload\n      div\n      mul\n      dup4\n      mstore\n      swap2\n      0x20\n      add\n      swap2\n      jump(tag_253)\n    tag_254:\n      dup3\n      add\n      swap2\n      swap1\n      0x00\n      mstore\n      keccak256(0x00, 0x20)\n      swap1\n    tag_255:\n      dup2\n      sload\n      dup2\n      mstore\n      swap1\n      0x01\n      add\n      swap1\n      0x20\n      add\n      dup1\n      dup4\n      gt\n      tag_255\n      jumpi\n      dup3\n      swap1\n      sub\n      0x1f\n      and\n      dup3\n      add\n      swap2\n    tag_253:\n      pop\n      pop\n      pop\n      pop\n      pop\n      dup2\n      mstore\n      0x20\n      add\n      0x06\n      dup3\n      add\n      dup1\n      sload\n      tag_256\n      swap1\n      tag_153\n      jump\t// in\n    tag_256:\n      dup1\n      0x1f\n      add\n      0x20\n      dup1\n      swap2\n      div\n      mul\n      0x20\n      add\n      mload(0x40)\n      swap1\n      dup2\n      add\n      0x40\n      mstore\n      dup1\n      swap3\n      swap2\n      swap1\n      dup2\n      dup2\n      mstore\n      0x20\n      add\n      dup3\n      dup1\n      sload\n      tag_257\n      swap1\n      tag_153\n      jump\t// in\n    tag_257:\n      dup1\n      iszero\n      tag_258\n      jumpi\n      dup1\n      0x1f\n      lt\n      tag_259\n      jumpi\n      0x0100\n      dup1\n      dup4\n      sload\n      div\n      mul\n      dup4\n      mstore\n      swap2\n      0x20\n      add\n      swap2\n      jump(tag_258)\n    tag_259:\n      dup3\n      add\n      swap2\n      swap1\n      0x00\n      mstore\n      keccak256(0x00, 0x20)\n      swap1\n    tag_260:\n      dup2\n      sload\n      dup2\n      mstore\n      swap1\n      0x01\n      add\n      swap1\n      0x20\n      add\n      dup1\n      dup4\n      gt\n      tag_260\n      jumpi\n      dup3\n      swap1\n      sub\n      0x1f\n      and\n      dup3\n      add\n      swap2\n    tag_258:\n      pop\n      pop\n      pop\n      pop\n      pop\n      dup2\n      mstore\n      0x20\n      add\n      0x07\n      dup3\n      add\n      dup1\n      sload\n      tag_261\n      swap1\n      tag_153\n      jump\t// in\n    tag_261:\n      dup1\n      0x1f\n      add\n      0x20\n      dup1\n      swap2\n      div\n      mul\n      0x20\n      add\n      mload(0x40)\n      swap1\n      dup2\n      add\n      0x40\n      mstore\n      dup1\n      swap3\n      swap2\n      swap1\n      dup2\n      dup2\n      mstore\n      0x20\n      add\n      dup3\n      dup1\n      sload\n      tag_262\n      swap1\n      tag_153\n      jump\t// in\n    tag_262:\n      dup1\n      iszero\n      tag_263\n      jumpi\n      dup1\n      0x1f\n      lt\n      tag_264\n      jumpi\n      0x0100\n      dup1\n      dup4\n      sload\n      div\n      mul\n      dup4\n      mstore\n      swap2\n      0x20\n      add\n      swap2\n      jump(tag_263)\n    tag_264:\n      dup3\n      add\n      swap2\n      swap1\n      0x00\n      mstore\n      keccak256(0x00, 0x20)\n      swap1\n    tag_265:\n      dup2\n      sload\n      dup2\n      mstore\n      swap1\n      0x01\n      add\n      swap1\n      0x20\n      add\n      dup1\n      dup4\n      gt\n      tag_265\n      jumpi\n      dup3\n      swap1\n      sub\n      0x1f\n      and\n      dup3\n      add\n      swap2\n    tag_263:\n      pop\n      pop\n      pop\n      pop\n      pop\n      dup2\n      mstore\n      pop\n      pop\n      dup2\n      mstore\n      0x20\n      add\n      swap1\n      0x01\n      add\n      swap1\n      jump(tag_228)\n    tag_229:\n      pop\n      pop\n      pop\n      pop\n      swap1\n      pop\n        /* \"Campaigns.sol\":3475:3582  function fetchKYCRequests() public view returns (KYCRequest[] memory) {... */\n      swap1\n      jump\t// out\n        /* \"Campaigns.sol\":2043:2103  string public constant FUND_CONTRIBUTOR = \"fund_contributor\" */\n    tag_96:\n      mload(0x40)\n      dup1\n      0x40\n      add\n      0x40\n      mstore\n      dup1\n      0x10\n      dup2\n      mstore\n      0x20\n      add\n      0x66756e645f636f6e7472696275746f7200000000000000000000000000000000\n      dup2\n      mstore\n      pop\n      dup2\n      jump\t// out\n        /* \"Campaigns.sol\":6605:7031  function getRolesOfUser(address addr) public returns(string[] memory) {... */\n    tag_100:\n        /* \"Campaigns.sol\":6658:6673  string[] memory */\n      0x60\n        /* \"Campaigns.sol\":6711:6712  0 */\n      0x00\n        /* \"Campaigns.sol\":6698:6713  new string[](0) */\n      0xffffffffffffffff\n      dup2\n      gt\n      iszero\n      tag_267\n      jumpi\n      tag_268\n      tag_269\n      jump\t// in\n    tag_268:\n    tag_267:\n      mload(0x40)\n      swap1\n      dup1\n      dup3\n      mstore\n      dup1\n      0x20\n      mul\n      0x20\n      add\n      dup3\n      add\n      0x40\n      mstore\n      dup1\n      iszero\n      tag_270\n      jumpi\n      dup2\n      0x20\n      add\n    tag_271:\n      0x60\n      dup2\n      mstore\n      0x20\n      add\n      swap1\n      0x01\n      swap1\n      sub\n      swap1\n      dup2\n      tag_271\n      jumpi\n      swap1\n      pop\n    tag_270:\n      pop\n        /* \"Campaigns.sol\":6685:6695  user_roles */\n      0x03\n        /* \"Campaigns.sol\":6685:6713  user_roles = new string[](0) */\n      swap1\n      dup1\n      mload\n      swap1\n      0x20\n      add\n      swap1\n      tag_272\n      swap3\n      swap2\n      swap1\n      tag_273\n      jump\t// in\n    tag_272:\n      pop\n        /* \"Campaigns.sol\":6726:6757  hasRole(addr, FUND_CONTRIBUTOR) */\n      tag_274\n        /* \"Campaigns.sol\":6734:6738  addr */\n      dup3\n        /* \"Campaigns.sol\":6740:6756  FUND_CONTRIBUTOR */\n      mload(0x40)\n      dup1\n      0x40\n      add\n      0x40\n      mstore\n      dup1\n      0x10\n      dup2\n      mstore\n      0x20\n      add\n      0x66756e645f636f6e7472696275746f7200000000000000000000000000000000\n      dup2\n      mstore\n      pop\n        /* \"Campaigns.sol\":6726:6733  hasRole */\n      tag_42\n        /* \"Campaigns.sol\":6726:6757  hasRole(addr, FUND_CONTRIBUTOR) */\n      jump\t// in\n    tag_274:\n        /* \"Campaigns.sol\":6723:6814  if(hasRole(addr, FUND_CONTRIBUTOR)){... */\n      iszero\n      tag_275\n      jumpi\n        /* \"Campaigns.sol\":6770:6780  user_roles */\n      0x03\n        /* \"Campaigns.sol\":6786:6802  FUND_CONTRIBUTOR */\n      mload(0x40)\n      dup1\n      0x40\n      add\n      0x40\n      mstore\n      dup1\n      0x10\n      dup2\n      mstore\n      0x20\n      add\n      0x66756e645f636f6e7472696275746f7200000000000000000000000000000000\n      dup2\n      mstore\n      pop\n        /* \"Campaigns.sol\":6770:6803  user_roles.push(FUND_CONTRIBUTOR) */\n      swap1\n      dup1\n      0x01\n      dup2\n      sload\n      add\n      dup1\n      dup3\n      sstore\n      dup1\n      swap2\n      pop\n      pop\n      0x01\n      swap1\n      sub\n      swap1\n      0x00\n      mstore\n      keccak256(0x00, 0x20)\n      add\n      0x00\n      swap1\n      swap2\n      swap1\n      swap2\n      swap1\n      swap2\n      pop\n      swap1\n      dup1\n      mload\n      swap1\n      0x20\n      add\n      swap1\n      tag_277\n      swap3\n      swap2\n      swap1\n      tag_124\n      jump\t// in\n    tag_277:\n      pop\n        /* \"Campaigns.sol\":6723:6814  if(hasRole(addr, FUND_CONTRIBUTOR)){... */\n    tag_275:\n        /* \"Campaigns.sol\":6826:6852  hasRole(addr, FUND_RAISER) */\n      tag_278\n        /* \"Campaigns.sol\":6834:6838  addr */\n      dup3\n        /* \"Campaigns.sol\":6840:6851  FUND_RAISER */\n      mload(0x40)\n      dup1\n      0x40\n      add\n      0x40\n      mstore\n      dup1\n      0x0b\n      dup2\n      mstore\n      0x20\n      add\n      0x66756e645f726169736572000000000000000000000000000000000000000000\n      dup2\n      mstore\n      pop\n        /* \"Campaigns.sol\":6826:6833  hasRole */\n      tag_42\n        /* \"Campaigns.sol\":6826:6852  hasRole(addr, FUND_RAISER) */\n      jump\t// in\n    tag_278:\n        /* \"Campaigns.sol\":6823:6904  if(hasRole(addr, FUND_RAISER)){... */\n      iszero\n      tag_279\n      jumpi\n        /* \"Campaigns.sol\":6865:6875  user_roles */\n      0x03\n        /* \"Campaigns.sol\":6881:6892  FUND_RAISER */\n      mload(0x40)\n      dup1\n      0x40\n      add\n      0x40\n      mstore\n      dup1\n      0x0b\n      dup2\n      mstore\n      0x20\n      add\n      0x66756e645f726169736572000000000000000000000000000000000000000000\n      dup2\n      mstore\n      pop\n        /* \"Campaigns.sol\":6865:6893  user_roles.push(FUND_RAISER) */\n      swap1\n      dup1\n      0x01\n      dup2\n      sload\n      add\n      dup1\n      dup3\n      sstore\n      dup1\n      swap2\n      pop\n      pop\n      0x01\n      swap1\n      sub\n      swap1\n      0x00\n      mstore\n      keccak256(0x00, 0x20)\n      add\n      0x00\n      swap1\n      swap2\n      swap1\n      swap2\n      swap1\n      swap2\n      pop\n      swap1\n      dup1\n      mload\n      swap1\n      0x20\n      add\n      swap1\n      tag_281\n      swap3\n      swap2\n      swap1\n      tag_124\n      jump\t// in\n    tag_281:\n      pop\n        /* \"Campaigns.sol\":6823:6904  if(hasRole(addr, FUND_RAISER)){... */\n    tag_279:\n        /* \"Campaigns.sol\":6916:6944  hasRole(addr, FUND_APPROVER) */\n      tag_282\n        /* \"Campaigns.sol\":6924:6928  addr */\n      dup3\n        /* \"Campaigns.sol\":6930:6943  FUND_APPROVER */\n      mload(0x40)\n      dup1\n      0x40\n      add\n      0x40\n      mstore\n      dup1\n      0x0d\n      dup2\n      mstore\n      0x20\n      add\n      0x66756e645f617070726f76657200000000000000000000000000000000000000\n      dup2\n      mstore\n      pop\n        /* \"Campaigns.sol\":6916:6923  hasRole */\n      tag_42\n        /* \"Campaigns.sol\":6916:6944  hasRole(addr, FUND_APPROVER) */\n      jump\t// in\n    tag_282:\n        /* \"Campaigns.sol\":6913:6998  if(hasRole(addr, FUND_APPROVER)){... */\n      iszero\n      tag_283\n      jumpi\n        /* \"Campaigns.sol\":6957:6967  user_roles */\n      0x03\n        /* \"Campaigns.sol\":6973:6986  FUND_APPROVER */\n      mload(0x40)\n      dup1\n      0x40\n      add\n      0x40\n      mstore\n      dup1\n      0x0d\n      dup2\n      mstore\n      0x20\n      add\n      0x66756e645f617070726f76657200000000000000000000000000000000000000\n      dup2\n      mstore\n      pop\n        /* \"Campaigns.sol\":6957:6987  user_roles.push(FUND_APPROVER) */\n      swap1\n      dup1\n      0x01\n      dup2\n      sload\n      add\n      dup1\n      dup3\n      sstore\n      dup1\n      swap2\n      pop\n      pop\n      0x01\n      swap1\n      sub\n      swap1\n      0x00\n      mstore\n      keccak256(0x00, 0x20)\n      add\n      0x00\n      swap1\n      swap2\n      swap1\n      swap2\n      swap1\n      swap2\n      pop\n      swap1\n      dup1\n      mload\n      swap1\n      0x20\n      add\n      swap1\n      tag_285\n      swap3\n      swap2\n      swap1\n      tag_124\n      jump\t// in\n    tag_285:\n      pop\n        /* \"Campaigns.sol\":6913:6998  if(hasRole(addr, FUND_APPROVER)){... */\n    tag_283:\n        /* \"Campaigns.sol\":7014:7024  user_roles */\n      0x03\n        /* \"Campaigns.sol\":7007:7024  return user_roles */\n      dup1\n      sload\n      dup1\n      0x20\n      mul\n      0x20\n      add\n      mload(0x40)\n      swap1\n      dup2\n      add\n      0x40\n      mstore\n      dup1\n      swap3\n      swap2\n      swap1\n      dup2\n      dup2\n      mstore\n      0x20\n      add\n      0x00\n      swap1\n    tag_286:\n      dup3\n      dup3\n      lt\n      iszero\n      tag_287\n      jumpi\n      dup4\n      dup3\n      swap1\n      0x00\n      mstore\n      keccak256(0x00, 0x20)\n      add\n      dup1\n      sload\n      tag_289\n      swap1\n      tag_153\n      jump\t// in\n    tag_289:\n      dup1\n      0x1f\n      add\n      0x20\n      dup1\n      swap2\n      div\n      mul\n      0x20\n      add\n      mload(0x40)\n      swap1\n      dup2\n      add\n      0x40\n      mstore\n      dup1\n      swap3\n      swap2\n      swap1\n      dup2\n      dup2\n      mstore\n      0x20\n      add\n      dup3\n      dup1\n      sload\n      tag_290\n      swap1\n      tag_153\n      jump\t// in\n    tag_290:\n      dup1\n      iszero\n      tag_291\n      jumpi\n      dup1\n      0x1f\n      lt\n      tag_292\n      jumpi\n      0x0100\n      dup1\n      dup4\n      sload\n      div\n      mul\n      dup4\n      mstore\n      swap2\n      0x20\n      add\n      swap2\n      jump(tag_291)\n    tag_292:\n      dup3\n      add\n      swap2\n      swap1\n      0x00\n      mstore\n      keccak256(0x00, 0x20)\n      swap1\n    tag_293:\n      dup2\n      sload\n      dup2\n      mstore\n      swap1\n      0x01\n      add\n      swap1\n      0x20\n      add\n      dup1\n      dup4\n      gt\n      tag_293\n      jumpi\n      dup3\n      swap1\n      sub\n      0x1f\n      and\n      dup3\n      add\n      swap2\n    tag_291:\n      pop\n      pop\n      pop\n      pop\n      pop\n      dup2\n      mstore\n      0x20\n      add\n      swap1\n      0x01\n      add\n      swap1\n      jump(tag_286)\n    tag_287:\n      pop\n      pop\n      pop\n      pop\n      swap1\n      pop\n        /* \"Campaigns.sol\":6605:7031  function getRolesOfUser(address addr) public returns(string[] memory) {... */\n      swap2\n      swap1\n      pop\n      jump\t// out\n        /* \"Campaigns.sol\":5774:5887  function isFundRaiser(address addr) public view returns (bool) {... */\n    tag_105:\n        /* \"Campaigns.sol\":5831:5835  bool */\n      0x00\n        /* \"Campaigns.sol\":5854:5880  hasRole(addr, FUND_RAISER) */\n      tag_295\n        /* \"Campaigns.sol\":5862:5866  addr */\n      dup3\n        /* \"Campaigns.sol\":5868:5879  FUND_RAISER */\n      mload(0x40)\n      dup1\n      0x40\n      add\n      0x40\n      mstore\n      dup1\n      0x0b\n      dup2\n      mstore\n      0x20\n      add\n      0x66756e645f726169736572000000000000000000000000000000000000000000\n      dup2\n      mstore\n      pop\n        /* \"Campaigns.sol\":5854:5861  hasRole */\n      tag_42\n        /* \"Campaigns.sol\":5854:5880  hasRole(addr, FUND_RAISER) */\n      jump\t// in\n    tag_295:\n        /* \"Campaigns.sol\":5847:5880  return hasRole(addr, FUND_RAISER) */\n      swap1\n      pop\n        /* \"Campaigns.sol\":5774:5887  function isFundRaiser(address addr) public view returns (bool) {... */\n      swap2\n      swap1\n      pop\n      jump\t// out\n        /* \"Campaigns.sol\":2109:2163  string public constant FUND_APPROVER = \"fund_approver\" */\n    tag_108:\n      mload(0x40)\n      dup1\n      0x40\n      add\n      0x40\n      mstore\n      dup1\n      0x0d\n      dup2\n      mstore\n      0x20\n      add\n      0x66756e645f617070726f76657200000000000000000000000000000000000000\n      dup2\n      mstore\n      pop\n      dup2\n      jump\t// out\n        /* \"Campaigns.sol\":571:674  function check(Role storage role, address addr) internal view {... */\n    tag_114:\n        /* \"Campaigns.sol\":651:666  has(role, addr) */\n      tag_297\n        /* \"Campaigns.sol\":655:659  role */\n      dup3\n        /* \"Campaigns.sol\":661:665  addr */\n      dup3\n        /* \"Campaigns.sol\":651:654  has */\n      tag_134\n        /* \"Campaigns.sol\":651:666  has(role, addr) */\n      jump\t// in\n    tag_297:\n        /* \"Campaigns.sol\":643:667  require(has(role, addr)) */\n      tag_298\n      jumpi\n      0x00\n      dup1\n      revert\n    tag_298:\n        /* \"Campaigns.sol\":571:674  function check(Role storage role, address addr) internal view {... */\n      pop\n      pop\n      jump\t// out\n        /* \"Campaigns.sol\":761:877  function has(Role storage role, address addr) internal view returns (bool) {... */\n    tag_134:\n        /* \"Campaigns.sol\":830:834  bool */\n      0x00\n        /* \"Campaigns.sol\":853:857  role */\n      dup3\n        /* \"Campaigns.sol\":853:864  role.bearer */\n      0x00\n      add\n        /* \"Campaigns.sol\":853:870  role.bearer[addr] */\n      0x00\n        /* \"Campaigns.sol\":865:869  addr */\n      dup4\n        /* \"Campaigns.sol\":853:870  role.bearer[addr] */\n      0xffffffffffffffffffffffffffffffffffffffff\n      and\n      0xffffffffffffffffffffffffffffffffffffffff\n      and\n      dup2\n      mstore\n      0x20\n      add\n      swap1\n      dup2\n      mstore\n      0x20\n      add\n      0x00\n      keccak256\n      0x00\n      swap1\n      sload\n      swap1\n      0x0100\n      exp\n      swap1\n      div\n      0xff\n      and\n        /* \"Campaigns.sol\":846:870  return role.bearer[addr] */\n      swap1\n      pop\n        /* \"Campaigns.sol\":761:877  function has(Role storage role, address addr) internal view returns (bool) {... */\n      swap3\n      swap2\n      pop\n      pop\n      jump\t// out\n        /* \"Campaigns.sol\":4549:5116  function updateStatusOfRequest(... */\n    tag_149:\n        /* \"Campaigns.sol\":4693:4704  uint256 len */\n      0x00\n        /* \"Campaigns.sol\":4707:4718  kycRequests */\n      0x02\n        /* \"Campaigns.sol\":4707:4725  kycRequests.length */\n      dup1\n      sload\n      swap1\n      pop\n        /* \"Campaigns.sol\":4693:4725  uint256 len = kycRequests.length */\n      swap1\n      pop\n        /* \"Campaigns.sol\":4740:4749  uint256 i */\n      0x00\n        /* \"Campaigns.sol\":4735:5110  for (uint256 i = 0; i < len; i++) {... */\n    tag_301:\n        /* \"Campaigns.sol\":4759:4762  len */\n      dup2\n        /* \"Campaigns.sol\":4755:4756  i */\n      dup2\n        /* \"Campaigns.sol\":4755:4762  i < len */\n      lt\n        /* \"Campaigns.sol\":4735:5110  for (uint256 i = 0; i < len; i++) {... */\n      iszero\n      tag_302\n      jumpi\n        /* \"Campaigns.sol\":4835:4839  addr */\n      dup5\n        /* \"Campaigns.sol\":4804:4839  kycRequests[i].user_address == addr */\n      0xffffffffffffffffffffffffffffffffffffffff\n      and\n        /* \"Campaigns.sol\":4804:4815  kycRequests */\n      0x02\n        /* \"Campaigns.sol\":4816:4817  i */\n      dup3\n        /* \"Campaigns.sol\":4804:4818  kycRequests[i] */\n      dup2\n      sload\n      dup2\n      lt\n      tag_304\n      jumpi\n      tag_305\n      tag_306\n      jump\t// in\n    tag_305:\n    tag_304:\n      swap1\n      0x00\n      mstore\n      keccak256(0x00, 0x20)\n      swap1\n      0x08\n      mul\n      add\n        /* \"Campaigns.sol\":4804:4831  kycRequests[i].user_address */\n      0x04\n      add\n      0x00\n      swap1\n      sload\n      swap1\n      0x0100\n      exp\n      swap1\n      div\n      0xffffffffffffffffffffffffffffffffffffffff\n      and\n        /* \"Campaigns.sol\":4804:4839  kycRequests[i].user_address == addr */\n      0xffffffffffffffffffffffffffffffffffffffff\n      and\n      eq\n        /* \"Campaigns.sol\":4804:5022  kycRequests[i].user_address == addr &&... */\n      dup1\n      iszero\n      tag_308\n      jumpi\n      pop\n        /* \"Campaigns.sol\":5007:5019  role_applied */\n      dup4\n        /* \"Campaigns.sol\":4989:5021  abi.encodePacked((role_applied)) */\n      add(0x20, mload(0x40))\n      tag_309\n      swap2\n      swap1\n      tag_113\n      jump\t// in\n    tag_309:\n      mload(0x40)\n      0x20\n      dup2\n      dup4\n      sub\n      sub\n      dup2\n      mstore\n      swap1\n      0x40\n      mstore\n        /* \"Campaigns.sol\":4979:5022  keccak256(abi.encodePacked((role_applied))) */\n      dup1\n      mload\n      swap1\n      0x20\n      add\n      keccak256\n        /* \"Campaigns.sol\":4908:4919  kycRequests */\n      0x02\n        /* \"Campaigns.sol\":4920:4921  i */\n      dup3\n        /* \"Campaigns.sol\":4908:4922  kycRequests[i] */\n      dup2\n      sload\n      dup2\n      lt\n      tag_310\n      jumpi\n      tag_311\n      tag_306\n      jump\t// in\n    tag_311:\n    tag_310:\n      swap1\n      0x00\n      mstore\n      keccak256(0x00, 0x20)\n      swap1\n      0x08\n      mul\n      add\n        /* \"Campaigns.sol\":4908:4939  kycRequests[i].role_applied_for */\n      0x06\n      add\n        /* \"Campaigns.sol\":4890:4941  abi.encodePacked((kycRequests[i].role_applied_for)) */\n      add(0x20, mload(0x40))\n      tag_313\n      swap2\n      swap1\n      tag_314\n      jump\t// in\n    tag_313:\n      mload(0x40)\n      0x20\n      dup2\n      dup4\n      sub\n      sub\n      dup2\n      mstore\n      swap1\n      0x40\n      mstore\n        /* \"Campaigns.sol\":4859:4959  keccak256(... */\n      dup1\n      mload\n      swap1\n      0x20\n      add\n      keccak256\n        /* \"Campaigns.sol\":4859:5022  keccak256(... */\n      eq\n        /* \"Campaigns.sol\":4804:5022  kycRequests[i].user_address == addr &&... */\n    tag_308:\n        /* \"Campaigns.sol\":4783:5100  if (... */\n      iszero\n      tag_315\n      jumpi\n        /* \"Campaigns.sol\":5079:5085  status */\n      dup3\n        /* \"Campaigns.sol\":5055:5066  kycRequests */\n      0x02\n        /* \"Campaigns.sol\":5067:5068  i */\n      dup3\n        /* \"Campaigns.sol\":5055:5069  kycRequests[i] */\n      dup2\n      sload\n      dup2\n      lt\n      tag_316\n      jumpi\n      tag_317\n      tag_306\n      jump\t// in\n    tag_317:\n    tag_316:\n      swap1\n      0x00\n      mstore\n      keccak256(0x00, 0x20)\n      swap1\n      0x08\n      mul\n      add\n        /* \"Campaigns.sol\":5055:5076  kycRequests[i].status */\n      0x07\n      add\n        /* \"Campaigns.sol\":5055:5085  kycRequests[i].status = status */\n      swap1\n      dup1\n      mload\n      swap1\n      0x20\n      add\n      swap1\n      tag_319\n      swap3\n      swap2\n      swap1\n      tag_124\n      jump\t// in\n    tag_319:\n      pop\n        /* \"Campaigns.sol\":4783:5100  if (... */\n    tag_315:\n        /* \"Campaigns.sol\":4764:4767  i++ */\n      dup1\n      dup1\n      tag_320\n      swap1\n      tag_321\n      jump\t// in\n    tag_320:\n      swap2\n      pop\n      pop\n        /* \"Campaigns.sol\":4735:5110  for (uint256 i = 0; i < len; i++) {... */\n      jump(tag_301)\n    tag_302:\n      pop\n        /* \"Campaigns.sol\":4683:5116  {... */\n      pop\n        /* \"Campaigns.sol\":4549:5116  function updateStatusOfRequest(... */\n      pop\n      pop\n      pop\n      jump\t// out\n        /* \"Campaigns.sol\":1525:1679  function removeRole(address addr, string memory roleName) internal {... */\n    tag_192:\n        /* \"Campaigns.sol\":1602:1630  roles[roleName].remove(addr) */\n      tag_323\n        /* \"Campaigns.sol\":1625:1629  addr */\n      dup3\n        /* \"Campaigns.sol\":1602:1607  roles */\n      0x00\n        /* \"Campaigns.sol\":1608:1616  roleName */\n      dup4\n        /* \"Campaigns.sol\":1602:1617  roles[roleName] */\n      mload(0x40)\n      tag_324\n      swap2\n      swap1\n      tag_113\n      jump\t// in\n    tag_324:\n      swap1\n      dup2\n      mstore\n      0x20\n      add\n      mload(0x40)\n      dup1\n      swap2\n      sub\n      swap1\n      keccak256\n        /* \"Campaigns.sol\":1602:1624  roles[roleName].remove */\n      tag_325\n      swap1\n        /* \"Campaigns.sol\":1602:1630  roles[roleName].remove(addr) */\n      swap2\n      swap1\n      0xffffffff\n      and\n      jump\t// in\n    tag_323:\n        /* \"Campaigns.sol\":1645:1672  RoleRemoved(addr, roleName) */\n      0xd211483f91fc6eff862467f8de606587a30c8fc9981056f051b897a418df803a\n        /* \"Campaigns.sol\":1657:1661  addr */\n      dup3\n        /* \"Campaigns.sol\":1663:1671  roleName */\n      dup3\n        /* \"Campaigns.sol\":1645:1672  RoleRemoved(addr, roleName) */\n      mload(0x40)\n      tag_326\n      swap3\n      swap2\n      swap1\n      tag_120\n      jump\t// in\n    tag_326:\n      mload(0x40)\n      dup1\n      swap2\n      sub\n      swap1\n      log1\n        /* \"Campaigns.sol\":1525:1679  function removeRole(address addr, string memory roleName) internal {... */\n      pop\n      pop\n      jump\t// out\n        /* \"Campaigns.sol\":217:313  function add(Role storage role, address addr) internal {... */\n    tag_218:\n        /* \"Campaigns.sol\":302:306  true */\n      0x01\n        /* \"Campaigns.sol\":282:286  role */\n      dup3\n        /* \"Campaigns.sol\":282:293  role.bearer */\n      0x00\n      add\n        /* \"Campaigns.sol\":282:299  role.bearer[addr] */\n      0x00\n        /* \"Campaigns.sol\":294:298  addr */\n      dup4\n        /* \"Campaigns.sol\":282:299  role.bearer[addr] */\n      0xffffffffffffffffffffffffffffffffffffffff\n      and\n      0xffffffffffffffffffffffffffffffffffffffff\n      and\n      dup2\n      mstore\n      0x20\n      add\n      swap1\n      dup2\n      mstore\n      0x20\n      add\n      0x00\n      keccak256\n      0x00\n        /* \"Campaigns.sol\":282:306  role.bearer[addr] = true */\n      0x0100\n      exp\n      dup2\n      sload\n      dup2\n      0xff\n      mul\n      not\n      and\n      swap1\n      dup4\n      iszero\n      iszero\n      mul\n      or\n      swap1\n      sstore\n      pop\n        /* \"Campaigns.sol\":217:313  function add(Role storage role, address addr) internal {... */\n      pop\n      pop\n      jump\t// out\n        /* \"Campaigns.sol\":386:486  function remove(Role storage role, address addr) internal {... */\n    tag_325:\n        /* \"Campaigns.sol\":474:479  false */\n      0x00\n        /* \"Campaigns.sol\":454:458  role */\n      dup3\n        /* \"Campaigns.sol\":454:465  role.bearer */\n      0x00\n      add\n        /* \"Campaigns.sol\":454:471  role.bearer[addr] */\n      0x00\n        /* \"Campaigns.sol\":466:470  addr */\n      dup4\n        /* \"Campaigns.sol\":454:471  role.bearer[addr] */\n      0xffffffffffffffffffffffffffffffffffffffff\n      and\n      0xffffffffffffffffffffffffffffffffffffffff\n      and\n      dup2\n      mstore\n      0x20\n      add\n      swap1\n      dup2\n      mstore\n      0x20\n      add\n      0x00\n      keccak256\n      0x00\n        /* \"Campaigns.sol\":454:479  role.bearer[addr] = false */\n      0x0100\n      exp\n      dup2\n      sload\n      dup2\n      0xff\n      mul\n      not\n      and\n      swap1\n      dup4\n      iszero\n      iszero\n      mul\n      or\n      swap1\n      sstore\n      pop\n        /* \"Campaigns.sol\":386:486  function remove(Role storage role, address addr) internal {... */\n      pop\n      pop\n      jump\t// out\n    tag_124:\n      dup3\n      dup1\n      sload\n      tag_329\n      swap1\n      tag_153\n      jump\t// in\n    tag_329:\n      swap1\n      0x00\n      mstore\n      keccak256(0x00, 0x20)\n      swap1\n      0x1f\n      add\n      0x20\n      swap1\n      div\n      dup2\n      add\n      swap3\n      dup3\n      tag_331\n      jumpi\n      0x00\n      dup6\n      sstore\n      jump(tag_330)\n    tag_331:\n      dup3\n      0x1f\n      lt\n      tag_332\n      jumpi\n      dup1\n      mload\n      not(0xff)\n      and\n      dup4\n      dup1\n      add\n      or\n      dup6\n      sstore\n      jump(tag_330)\n    tag_332:\n      dup3\n      dup1\n      add\n      0x01\n      add\n      dup6\n      sstore\n      dup3\n      iszero\n      tag_330\n      jumpi\n      swap2\n      dup3\n      add\n    tag_333:\n      dup3\n      dup2\n      gt\n      iszero\n      tag_334\n      jumpi\n      dup3\n      mload\n      dup3\n      sstore\n      swap2\n      0x20\n      add\n      swap2\n      swap1\n      0x01\n      add\n      swap1\n      jump(tag_333)\n    tag_334:\n    tag_330:\n      pop\n      swap1\n      pop\n      tag_335\n      swap2\n      swap1\n      tag_336\n      jump\t// in\n    tag_335:\n      pop\n      swap1\n      jump\t// out\n    tag_273:\n      dup3\n      dup1\n      sload\n      dup3\n      dup3\n      sstore\n      swap1\n      0x00\n      mstore\n      keccak256(0x00, 0x20)\n      swap1\n      dup2\n      add\n      swap3\n      dup3\n      iszero\n      tag_337\n      jumpi\n      swap2\n      0x20\n      mul\n      dup3\n      add\n    tag_338:\n      dup3\n      dup2\n      gt\n      iszero\n      tag_339\n      jumpi\n      dup3\n      mload\n      dup3\n      swap1\n      dup1\n      mload\n      swap1\n      0x20\n      add\n      swap1\n      tag_340\n      swap3\n      swap2\n      swap1\n      tag_124\n      jump\t// in\n    tag_340:\n      pop\n      swap2\n      0x20\n      add\n      swap2\n      swap1\n      0x01\n      add\n      swap1\n      jump(tag_338)\n    tag_339:\n    tag_337:\n      pop\n      swap1\n      pop\n      tag_341\n      swap2\n      swap1\n      tag_342\n      jump\t// in\n    tag_341:\n      pop\n      swap1\n      jump\t// out\n    tag_336:\n    tag_343:\n      dup1\n      dup3\n      gt\n      iszero\n      tag_344\n      jumpi\n      0x00\n      dup2\n      0x00\n      swap1\n      sstore\n      pop\n      0x01\n      add\n      jump(tag_343)\n    tag_344:\n      pop\n      swap1\n      jump\t// out\n    tag_342:\n    tag_345:\n      dup1\n      dup3\n      gt\n      iszero\n      tag_346\n      jumpi\n      0x00\n      dup2\n      dup2\n      tag_347\n      swap2\n      swap1\n      tag_348\n      jump\t// in\n    tag_347:\n      pop\n      0x01\n      add\n      jump(tag_345)\n    tag_346:\n      pop\n      swap1\n      jump\t// out\n    tag_348:\n      pop\n      dup1\n      sload\n      tag_349\n      swap1\n      tag_153\n      jump\t// in\n    tag_349:\n      0x00\n      dup3\n      sstore\n      dup1\n      0x1f\n      lt\n      tag_351\n      jumpi\n      pop\n      jump(tag_350)\n    tag_351:\n      0x1f\n      add\n      0x20\n      swap1\n      div\n      swap1\n      0x00\n      mstore\n      keccak256(0x00, 0x20)\n      swap1\n      dup2\n      add\n      swap1\n      tag_352\n      swap2\n      swap1\n      tag_336\n      jump\t// in\n    tag_352:\n    tag_350:\n      pop\n      jump\t// out\n        /* \"#utility.yul\":7:82   */\n    tag_353:\n        /* \"#utility.yul\":40:46   */\n      0x00\n        /* \"#utility.yul\":73:75   */\n      0x40\n        /* \"#utility.yul\":67:76   */\n      mload\n        /* \"#utility.yul\":57:76   */\n      swap1\n      pop\n        /* \"#utility.yul\":7:82   */\n      swap1\n      jump\t// out\n        /* \"#utility.yul\":88:205   */\n    tag_354:\n        /* \"#utility.yul\":197:198   */\n      0x00\n        /* \"#utility.yul\":194:195   */\n      dup1\n        /* \"#utility.yul\":187:199   */\n      revert\n        /* \"#utility.yul\":211:328   */\n    tag_355:\n        /* \"#utility.yul\":320:321   */\n      0x00\n        /* \"#utility.yul\":317:318   */\n      dup1\n        /* \"#utility.yul\":310:322   */\n      revert\n        /* \"#utility.yul\":334:460   */\n    tag_356:\n        /* \"#utility.yul\":371:378   */\n      0x00\n        /* \"#utility.yul\":411:453   */\n      0xffffffffffffffffffffffffffffffffffffffff\n        /* \"#utility.yul\":404:409   */\n      dup3\n        /* \"#utility.yul\":400:454   */\n      and\n        /* \"#utility.yul\":389:454   */\n      swap1\n      pop\n        /* \"#utility.yul\":334:460   */\n      swap2\n      swap1\n      pop\n      jump\t// out\n        /* \"#utility.yul\":466:562   */\n    tag_357:\n        /* \"#utility.yul\":503:510   */\n      0x00\n        /* \"#utility.yul\":532:556   */\n      tag_407\n        /* \"#utility.yul\":550:555   */\n      dup3\n        /* \"#utility.yul\":532:556   */\n      tag_356\n      jump\t// in\n    tag_407:\n        /* \"#utility.yul\":521:556   */\n      swap1\n      pop\n        /* \"#utility.yul\":466:562   */\n      swap2\n      swap1\n      pop\n      jump\t// out\n        /* \"#utility.yul\":568:690   */\n    tag_358:\n        /* \"#utility.yul\":641:665   */\n      tag_409\n        /* \"#utility.yul\":659:664   */\n      dup2\n        /* \"#utility.yul\":641:665   */\n      tag_357\n      jump\t// in\n    tag_409:\n        /* \"#utility.yul\":634:639   */\n      dup2\n        /* \"#utility.yul\":631:666   */\n      eq\n        /* \"#utility.yul\":621:684   */\n      tag_410\n      jumpi\n        /* \"#utility.yul\":680:681   */\n      0x00\n        /* \"#utility.yul\":677:678   */\n      dup1\n        /* \"#utility.yul\":670:682   */\n      revert\n        /* \"#utility.yul\":621:684   */\n    tag_410:\n        /* \"#utility.yul\":568:690   */\n      pop\n      jump\t// out\n        /* \"#utility.yul\":696:835   */\n    tag_359:\n        /* \"#utility.yul\":742:747   */\n      0x00\n        /* \"#utility.yul\":780:786   */\n      dup2\n        /* \"#utility.yul\":767:787   */\n      calldataload\n        /* \"#utility.yul\":758:787   */\n      swap1\n      pop\n        /* \"#utility.yul\":796:829   */\n      tag_412\n        /* \"#utility.yul\":823:828   */\n      dup2\n        /* \"#utility.yul\":796:829   */\n      tag_358\n      jump\t// in\n    tag_412:\n        /* \"#utility.yul\":696:835   */\n      swap3\n      swap2\n      pop\n      pop\n      jump\t// out\n        /* \"#utility.yul\":841:958   */\n    tag_360:\n        /* \"#utility.yul\":950:951   */\n      0x00\n        /* \"#utility.yul\":947:948   */\n      dup1\n        /* \"#utility.yul\":940:952   */\n      revert\n        /* \"#utility.yul\":964:1081   */\n    tag_361:\n        /* \"#utility.yul\":1073:1074   */\n      0x00\n        /* \"#utility.yul\":1070:1071   */\n      dup1\n        /* \"#utility.yul\":1063:1075   */\n      revert\n        /* \"#utility.yul\":1087:1189   */\n    tag_362:\n        /* \"#utility.yul\":1128:1134   */\n      0x00\n        /* \"#utility.yul\":1179:1181   */\n      0x1f\n        /* \"#utility.yul\":1175:1182   */\n      not\n        /* \"#utility.yul\":1170:1172   */\n      0x1f\n        /* \"#utility.yul\":1163:1168   */\n      dup4\n        /* \"#utility.yul\":1159:1173   */\n      add\n        /* \"#utility.yul\":1155:1183   */\n      and\n        /* \"#utility.yul\":1145:1183   */\n      swap1\n      pop\n        /* \"#utility.yul\":1087:1189   */\n      swap2\n      swap1\n      pop\n      jump\t// out\n        /* \"#utility.yul\":1195:1375   */\n    tag_269:\n        /* \"#utility.yul\":1243:1320   */\n      0x4e487b7100000000000000000000000000000000000000000000000000000000\n        /* \"#utility.yul\":1240:1241   */\n      0x00\n        /* \"#utility.yul\":1233:1321   */\n      mstore\n        /* \"#utility.yul\":1340:1344   */\n      0x41\n        /* \"#utility.yul\":1337:1338   */\n      0x04\n        /* \"#utility.yul\":1330:1345   */\n      mstore\n        /* \"#utility.yul\":1364:1368   */\n      0x24\n        /* \"#utility.yul\":1361:1362   */\n      0x00\n        /* \"#utility.yul\":1354:1369   */\n      revert\n        /* \"#utility.yul\":1381:1662   */\n    tag_363:\n        /* \"#utility.yul\":1464:1491   */\n      tag_418\n        /* \"#utility.yul\":1486:1490   */\n      dup3\n        /* \"#utility.yul\":1464:1491   */\n      tag_362\n      jump\t// in\n    tag_418:\n        /* \"#utility.yul\":1456:1462   */\n      dup2\n        /* \"#utility.yul\":1452:1492   */\n      add\n        /* \"#utility.yul\":1594:1600   */\n      dup2\n        /* \"#utility.yul\":1582:1592   */\n      dup2\n        /* \"#utility.yul\":1579:1601   */\n      lt\n        /* \"#utility.yul\":1558:1576   */\n      0xffffffffffffffff\n        /* \"#utility.yul\":1546:1556   */\n      dup3\n        /* \"#utility.yul\":1543:1577   */\n      gt\n        /* \"#utility.yul\":1540:1602   */\n      or\n        /* \"#utility.yul\":1537:1625   */\n      iszero\n      tag_419\n      jumpi\n        /* \"#utility.yul\":1605:1623   */\n      tag_420\n      tag_269\n      jump\t// in\n    tag_420:\n        /* \"#utility.yul\":1537:1625   */\n    tag_419:\n        /* \"#utility.yul\":1645:1655   */\n      dup1\n        /* \"#utility.yul\":1641:1643   */\n      0x40\n        /* \"#utility.yul\":1634:1656   */\n      mstore\n        /* \"#utility.yul\":1424:1662   */\n      pop\n        /* \"#utility.yul\":1381:1662   */\n      pop\n      pop\n      jump\t// out\n        /* \"#utility.yul\":1668:1797   */\n    tag_364:\n        /* \"#utility.yul\":1702:1708   */\n      0x00\n        /* \"#utility.yul\":1729:1749   */\n      tag_422\n      tag_353\n      jump\t// in\n    tag_422:\n        /* \"#utility.yul\":1719:1749   */\n      swap1\n      pop\n        /* \"#utility.yul\":1758:1791   */\n      tag_423\n        /* \"#utility.yul\":1786:1790   */\n      dup3\n        /* \"#utility.yul\":1778:1784   */\n      dup3\n        /* \"#utility.yul\":1758:1791   */\n      tag_363\n      jump\t// in\n    tag_423:\n        /* \"#utility.yul\":1668:1797   */\n      swap2\n      swap1\n      pop\n      jump\t// out\n        /* \"#utility.yul\":1803:2111   */\n    tag_365:\n        /* \"#utility.yul\":1865:1869   */\n      0x00\n        /* \"#utility.yul\":1955:1973   */\n      0xffffffffffffffff\n        /* \"#utility.yul\":1947:1953   */\n      dup3\n        /* \"#utility.yul\":1944:1974   */\n      gt\n        /* \"#utility.yul\":1941:1997   */\n      iszero\n      tag_425\n      jumpi\n        /* \"#utility.yul\":1977:1995   */\n      tag_426\n      tag_269\n      jump\t// in\n    tag_426:\n        /* \"#utility.yul\":1941:1997   */\n    tag_425:\n        /* \"#utility.yul\":2015:2044   */\n      tag_427\n        /* \"#utility.yul\":2037:2043   */\n      dup3\n        /* \"#utility.yul\":2015:2044   */\n      tag_362\n      jump\t// in\n    tag_427:\n        /* \"#utility.yul\":2007:2044   */\n      swap1\n      pop\n        /* \"#utility.yul\":2099:2103   */\n      0x20\n        /* \"#utility.yul\":2093:2097   */\n      dup2\n        /* \"#utility.yul\":2089:2104   */\n      add\n        /* \"#utility.yul\":2081:2104   */\n      swap1\n      pop\n        /* \"#utility.yul\":1803:2111   */\n      swap2\n      swap1\n      pop\n      jump\t// out\n        /* \"#utility.yul\":2117:2271   */\n    tag_366:\n        /* \"#utility.yul\":2201:2207   */\n      dup3\n        /* \"#utility.yul\":2196:2199   */\n      dup2\n        /* \"#utility.yul\":2191:2194   */\n      dup4\n        /* \"#utility.yul\":2178:2208   */\n      calldatacopy\n        /* \"#utility.yul\":2263:2264   */\n      0x00\n        /* \"#utility.yul\":2254:2260   */\n      dup4\n        /* \"#utility.yul\":2249:2252   */\n      dup4\n        /* \"#utility.yul\":2245:2261   */\n      add\n        /* \"#utility.yul\":2238:2265   */\n      mstore\n        /* \"#utility.yul\":2117:2271   */\n      pop\n      pop\n      pop\n      jump\t// out\n        /* \"#utility.yul\":2277:2689   */\n    tag_367:\n        /* \"#utility.yul\":2355:2360   */\n      0x00\n        /* \"#utility.yul\":2380:2446   */\n      tag_430\n        /* \"#utility.yul\":2396:2445   */\n      tag_431\n        /* \"#utility.yul\":2438:2444   */\n      dup5\n        /* \"#utility.yul\":2396:2445   */\n      tag_365\n      jump\t// in\n    tag_431:\n        /* \"#utility.yul\":2380:2446   */\n      tag_364\n      jump\t// in\n    tag_430:\n        /* \"#utility.yul\":2371:2446   */\n      swap1\n      pop\n        /* \"#utility.yul\":2469:2475   */\n      dup3\n        /* \"#utility.yul\":2462:2467   */\n      dup2\n        /* \"#utility.yul\":2455:2476   */\n      mstore\n        /* \"#utility.yul\":2507:2511   */\n      0x20\n        /* \"#utility.yul\":2500:2505   */\n      dup2\n        /* \"#utility.yul\":2496:2512   */\n      add\n        /* \"#utility.yul\":2545:2548   */\n      dup5\n        /* \"#utility.yul\":2536:2542   */\n      dup5\n        /* \"#utility.yul\":2531:2534   */\n      dup5\n        /* \"#utility.yul\":2527:2543   */\n      add\n        /* \"#utility.yul\":2524:2549   */\n      gt\n        /* \"#utility.yul\":2521:2633   */\n      iszero\n      tag_432\n      jumpi\n        /* \"#utility.yul\":2552:2631   */\n      tag_433\n      tag_361\n      jump\t// in\n    tag_433:\n        /* \"#utility.yul\":2521:2633   */\n    tag_432:\n        /* \"#utility.yul\":2642:2683   */\n      tag_434\n        /* \"#utility.yul\":2676:2682   */\n      dup5\n        /* \"#utility.yul\":2671:2674   */\n      dup3\n        /* \"#utility.yul\":2666:2669   */\n      dup6\n        /* \"#utility.yul\":2642:2683   */\n      tag_366\n      jump\t// in\n    tag_434:\n        /* \"#utility.yul\":2361:2689   */\n      pop\n        /* \"#utility.yul\":2277:2689   */\n      swap4\n      swap3\n      pop\n      pop\n      pop\n      jump\t// out\n        /* \"#utility.yul\":2709:3049   */\n    tag_368:\n        /* \"#utility.yul\":2765:2770   */\n      0x00\n        /* \"#utility.yul\":2814:2817   */\n      dup3\n        /* \"#utility.yul\":2807:2811   */\n      0x1f\n        /* \"#utility.yul\":2799:2805   */\n      dup4\n        /* \"#utility.yul\":2795:2812   */\n      add\n        /* \"#utility.yul\":2791:2818   */\n      slt\n        /* \"#utility.yul\":2781:2903   */\n      tag_436\n      jumpi\n        /* \"#utility.yul\":2822:2901   */\n      tag_437\n      tag_360\n      jump\t// in\n    tag_437:\n        /* \"#utility.yul\":2781:2903   */\n    tag_436:\n        /* \"#utility.yul\":2939:2945   */\n      dup2\n        /* \"#utility.yul\":2926:2946   */\n      calldataload\n        /* \"#utility.yul\":2964:3043   */\n      tag_438\n        /* \"#utility.yul\":3039:3042   */\n      dup5\n        /* \"#utility.yul\":3031:3037   */\n      dup3\n        /* \"#utility.yul\":3024:3028   */\n      0x20\n        /* \"#utility.yul\":3016:3022   */\n      dup7\n        /* \"#utility.yul\":3012:3029   */\n      add\n        /* \"#utility.yul\":2964:3043   */\n      tag_367\n      jump\t// in\n    tag_438:\n        /* \"#utility.yul\":2955:3043   */\n      swap2\n      pop\n        /* \"#utility.yul\":2771:3049   */\n      pop\n        /* \"#utility.yul\":2709:3049   */\n      swap3\n      swap2\n      pop\n      pop\n      jump\t// out\n        /* \"#utility.yul\":3055:3709   */\n    tag_30:\n        /* \"#utility.yul\":3133:3139   */\n      0x00\n        /* \"#utility.yul\":3141:3147   */\n      dup1\n        /* \"#utility.yul\":3190:3192   */\n      0x40\n        /* \"#utility.yul\":3178:3187   */\n      dup4\n        /* \"#utility.yul\":3169:3176   */\n      dup6\n        /* \"#utility.yul\":3165:3188   */\n      sub\n        /* \"#utility.yul\":3161:3193   */\n      slt\n        /* \"#utility.yul\":3158:3277   */\n      iszero\n      tag_440\n      jumpi\n        /* \"#utility.yul\":3196:3275   */\n      tag_441\n      tag_354\n      jump\t// in\n    tag_441:\n        /* \"#utility.yul\":3158:3277   */\n    tag_440:\n        /* \"#utility.yul\":3316:3317   */\n      0x00\n        /* \"#utility.yul\":3341:3394   */\n      tag_442\n        /* \"#utility.yul\":3386:3393   */\n      dup6\n        /* \"#utility.yul\":3377:3383   */\n      dup3\n        /* \"#utility.yul\":3366:3375   */\n      dup7\n        /* \"#utility.yul\":3362:3384   */\n      add\n        /* \"#utility.yul\":3341:3394   */\n      tag_359\n      jump\t// in\n    tag_442:\n        /* \"#utility.yul\":3331:3394   */\n      swap3\n      pop\n        /* \"#utility.yul\":3287:3404   */\n      pop\n        /* \"#utility.yul\":3471:3473   */\n      0x20\n        /* \"#utility.yul\":3460:3469   */\n      dup4\n        /* \"#utility.yul\":3456:3474   */\n      add\n        /* \"#utility.yul\":3443:3475   */\n      calldataload\n        /* \"#utility.yul\":3502:3520   */\n      0xffffffffffffffff\n        /* \"#utility.yul\":3494:3500   */\n      dup2\n        /* \"#utility.yul\":3491:3521   */\n      gt\n        /* \"#utility.yul\":3488:3605   */\n      iszero\n      tag_443\n      jumpi\n        /* \"#utility.yul\":3524:3603   */\n      tag_444\n      tag_355\n      jump\t// in\n    tag_444:\n        /* \"#utility.yul\":3488:3605   */\n    tag_443:\n        /* \"#utility.yul\":3629:3692   */\n      tag_445\n        /* \"#utility.yul\":3684:3691   */\n      dup6\n        /* \"#utility.yul\":3675:3681   */\n      dup3\n        /* \"#utility.yul\":3664:3673   */\n      dup7\n        /* \"#utility.yul\":3660:3682   */\n      add\n        /* \"#utility.yul\":3629:3692   */\n      tag_368\n      jump\t// in\n    tag_445:\n        /* \"#utility.yul\":3619:3692   */\n      swap2\n      pop\n        /* \"#utility.yul\":3414:3702   */\n      pop\n        /* \"#utility.yul\":3055:3709   */\n      swap3\n      pop\n      swap3\n      swap1\n      pop\n      jump\t// out\n        /* \"#utility.yul\":3715:4044   */\n    tag_34:\n        /* \"#utility.yul\":3774:3780   */\n      0x00\n        /* \"#utility.yul\":3823:3825   */\n      0x20\n        /* \"#utility.yul\":3811:3820   */\n      dup3\n        /* \"#utility.yul\":3802:3809   */\n      dup5\n        /* \"#utility.yul\":3798:3821   */\n      sub\n        /* \"#utility.yul\":3794:3826   */\n      slt\n        /* \"#utility.yul\":3791:3910   */\n      iszero\n      tag_447\n      jumpi\n        /* \"#utility.yul\":3829:3908   */\n      tag_448\n      tag_354\n      jump\t// in\n    tag_448:\n        /* \"#utility.yul\":3791:3910   */\n    tag_447:\n        /* \"#utility.yul\":3949:3950   */\n      0x00\n        /* \"#utility.yul\":3974:4027   */\n      tag_449\n        /* \"#utility.yul\":4019:4026   */\n      dup5\n        /* \"#utility.yul\":4010:4016   */\n      dup3\n        /* \"#utility.yul\":3999:4008   */\n      dup6\n        /* \"#utility.yul\":3995:4017   */\n      add\n        /* \"#utility.yul\":3974:4027   */\n      tag_359\n      jump\t// in\n    tag_449:\n        /* \"#utility.yul\":3964:4027   */\n      swap2\n      pop\n        /* \"#utility.yul\":3920:4037   */\n      pop\n        /* \"#utility.yul\":3715:4044   */\n      swap3\n      swap2\n      pop\n      pop\n      jump\t// out\n        /* \"#utility.yul\":4050:6187   */\n    tag_38:\n        /* \"#utility.yul\":4214:4220   */\n      0x00\n        /* \"#utility.yul\":4222:4228   */\n      dup1\n        /* \"#utility.yul\":4230:4236   */\n      0x00\n        /* \"#utility.yul\":4238:4244   */\n      dup1\n        /* \"#utility.yul\":4246:4252   */\n      0x00\n        /* \"#utility.yul\":4254:4260   */\n      dup1\n        /* \"#utility.yul\":4303:4306   */\n      0xc0\n        /* \"#utility.yul\":4291:4300   */\n      dup8\n        /* \"#utility.yul\":4282:4289   */\n      dup10\n        /* \"#utility.yul\":4278:4301   */\n      sub\n        /* \"#utility.yul\":4274:4307   */\n      slt\n        /* \"#utility.yul\":4271:4391   */\n      iszero\n      tag_451\n      jumpi\n        /* \"#utility.yul\":4310:4389   */\n      tag_452\n      tag_354\n      jump\t// in\n    tag_452:\n        /* \"#utility.yul\":4271:4391   */\n    tag_451:\n        /* \"#utility.yul\":4458:4459   */\n      0x00\n        /* \"#utility.yul\":4447:4456   */\n      dup8\n        /* \"#utility.yul\":4443:4460   */\n      add\n        /* \"#utility.yul\":4430:4461   */\n      calldataload\n        /* \"#utility.yul\":4488:4506   */\n      0xffffffffffffffff\n        /* \"#utility.yul\":4480:4486   */\n      dup2\n        /* \"#utility.yul\":4477:4507   */\n      gt\n        /* \"#utility.yul\":4474:4591   */\n      iszero\n      tag_453\n      jumpi\n        /* \"#utility.yul\":4510:4589   */\n      tag_454\n      tag_355\n      jump\t// in\n    tag_454:\n        /* \"#utility.yul\":4474:4591   */\n    tag_453:\n        /* \"#utility.yul\":4615:4678   */\n      tag_455\n        /* \"#utility.yul\":4670:4677   */\n      dup10\n        /* \"#utility.yul\":4661:4667   */\n      dup3\n        /* \"#utility.yul\":4650:4659   */\n      dup11\n        /* \"#utility.yul\":4646:4668   */\n      add\n        /* \"#utility.yul\":4615:4678   */\n      tag_368\n      jump\t// in\n    tag_455:\n        /* \"#utility.yul\":4605:4678   */\n      swap7\n      pop\n        /* \"#utility.yul\":4401:4688   */\n      pop\n        /* \"#utility.yul\":4755:4757   */\n      0x20\n        /* \"#utility.yul\":4744:4753   */\n      dup8\n        /* \"#utility.yul\":4740:4758   */\n      add\n        /* \"#utility.yul\":4727:4759   */\n      calldataload\n        /* \"#utility.yul\":4786:4804   */\n      0xffffffffffffffff\n        /* \"#utility.yul\":4778:4784   */\n      dup2\n        /* \"#utility.yul\":4775:4805   */\n      gt\n        /* \"#utility.yul\":4772:4889   */\n      iszero\n      tag_456\n      jumpi\n        /* \"#utility.yul\":4808:4887   */\n      tag_457\n      tag_355\n      jump\t// in\n    tag_457:\n        /* \"#utility.yul\":4772:4889   */\n    tag_456:\n        /* \"#utility.yul\":4913:4976   */\n      tag_458\n        /* \"#utility.yul\":4968:4975   */\n      dup10\n        /* \"#utility.yul\":4959:4965   */\n      dup3\n        /* \"#utility.yul\":4948:4957   */\n      dup11\n        /* \"#utility.yul\":4944:4966   */\n      add\n        /* \"#utility.yul\":4913:4976   */\n      tag_368\n      jump\t// in\n    tag_458:\n        /* \"#utility.yul\":4903:4976   */\n      swap6\n      pop\n        /* \"#utility.yul\":4698:4986   */\n      pop\n        /* \"#utility.yul\":5053:5055   */\n      0x40\n        /* \"#utility.yul\":5042:5051   */\n      dup8\n        /* \"#utility.yul\":5038:5056   */\n      add\n        /* \"#utility.yul\":5025:5057   */\n      calldataload\n        /* \"#utility.yul\":5084:5102   */\n      0xffffffffffffffff\n        /* \"#utility.yul\":5076:5082   */\n      dup2\n        /* \"#utility.yul\":5073:5103   */\n      gt\n        /* \"#utility.yul\":5070:5187   */\n      iszero\n      tag_459\n      jumpi\n        /* \"#utility.yul\":5106:5185   */\n      tag_460\n      tag_355\n      jump\t// in\n    tag_460:\n        /* \"#utility.yul\":5070:5187   */\n    tag_459:\n        /* \"#utility.yul\":5211:5274   */\n      tag_461\n        /* \"#utility.yul\":5266:5273   */\n      dup10\n        /* \"#utility.yul\":5257:5263   */\n      dup3\n        /* \"#utility.yul\":5246:5255   */\n      dup11\n        /* \"#utility.yul\":5242:5264   */\n      add\n        /* \"#utility.yul\":5211:5274   */\n      tag_368\n      jump\t// in\n    tag_461:\n        /* \"#utility.yul\":5201:5274   */\n      swap5\n      pop\n        /* \"#utility.yul\":4996:5284   */\n      pop\n        /* \"#utility.yul\":5351:5353   */\n      0x60\n        /* \"#utility.yul\":5340:5349   */\n      dup8\n        /* \"#utility.yul\":5336:5354   */\n      add\n        /* \"#utility.yul\":5323:5355   */\n      calldataload\n        /* \"#utility.yul\":5382:5400   */\n      0xffffffffffffffff\n        /* \"#utility.yul\":5374:5380   */\n      dup2\n        /* \"#utility.yul\":5371:5401   */\n      gt\n        /* \"#utility.yul\":5368:5485   */\n      iszero\n      tag_462\n      jumpi\n        /* \"#utility.yul\":5404:5483   */\n      tag_463\n      tag_355\n      jump\t// in\n    tag_463:\n        /* \"#utility.yul\":5368:5485   */\n    tag_462:\n        /* \"#utility.yul\":5509:5572   */\n      tag_464\n        /* \"#utility.yul\":5564:5571   */\n      dup10\n        /* \"#utility.yul\":5555:5561   */\n      dup3\n        /* \"#utility.yul\":5544:5553   */\n      dup11\n        /* \"#utility.yul\":5540:5562   */\n      add\n        /* \"#utility.yul\":5509:5572   */\n      tag_368\n      jump\t// in\n    tag_464:\n        /* \"#utility.yul\":5499:5572   */\n      swap4\n      pop\n        /* \"#utility.yul\":5294:5582   */\n      pop\n        /* \"#utility.yul\":5649:5652   */\n      0x80\n        /* \"#utility.yul\":5638:5647   */\n      dup8\n        /* \"#utility.yul\":5634:5653   */\n      add\n        /* \"#utility.yul\":5621:5654   */\n      calldataload\n        /* \"#utility.yul\":5681:5699   */\n      0xffffffffffffffff\n        /* \"#utility.yul\":5673:5679   */\n      dup2\n        /* \"#utility.yul\":5670:5700   */\n      gt\n        /* \"#utility.yul\":5667:5784   */\n      iszero\n      tag_465\n      jumpi\n        /* \"#utility.yul\":5703:5782   */\n      tag_466\n      tag_355\n      jump\t// in\n    tag_466:\n        /* \"#utility.yul\":5667:5784   */\n    tag_465:\n        /* \"#utility.yul\":5808:5871   */\n      tag_467\n        /* \"#utility.yul\":5863:5870   */\n      dup10\n        /* \"#utility.yul\":5854:5860   */\n      dup3\n        /* \"#utility.yul\":5843:5852   */\n      dup11\n        /* \"#utility.yul\":5839:5861   */\n      add\n        /* \"#utility.yul\":5808:5871   */\n      tag_368\n      jump\t// in\n    tag_467:\n        /* \"#utility.yul\":5798:5871   */\n      swap3\n      pop\n        /* \"#utility.yul\":5592:5881   */\n      pop\n        /* \"#utility.yul\":5948:5951   */\n      0xa0\n        /* \"#utility.yul\":5937:5946   */\n      dup8\n        /* \"#utility.yul\":5933:5952   */\n      add\n        /* \"#utility.yul\":5920:5953   */\n      calldataload\n        /* \"#utility.yul\":5980:5998   */\n      0xffffffffffffffff\n        /* \"#utility.yul\":5972:5978   */\n      dup2\n        /* \"#utility.yul\":5969:5999   */\n      gt\n        /* \"#utility.yul\":5966:6083   */\n      iszero\n      tag_468\n      jumpi\n        /* \"#utility.yul\":6002:6081   */\n      tag_469\n      tag_355\n      jump\t// in\n    tag_469:\n        /* \"#utility.yul\":5966:6083   */\n    tag_468:\n        /* \"#utility.yul\":6107:6170   */\n      tag_470\n        /* \"#utility.yul\":6162:6169   */\n      dup10\n        /* \"#utility.yul\":6153:6159   */\n      dup3\n        /* \"#utility.yul\":6142:6151   */\n      dup11\n        /* \"#utility.yul\":6138:6160   */\n      add\n        /* \"#utility.yul\":6107:6170   */\n      tag_368\n      jump\t// in\n    tag_470:\n        /* \"#utility.yul\":6097:6170   */\n      swap2\n      pop\n        /* \"#utility.yul\":5891:6180   */\n      pop\n        /* \"#utility.yul\":4050:6187   */\n      swap3\n      swap6\n      pop\n      swap3\n      swap6\n      pop\n      swap3\n      swap6\n      jump\t// out\n        /* \"#utility.yul\":6193:6283   */\n    tag_369:\n        /* \"#utility.yul\":6227:6234   */\n      0x00\n        /* \"#utility.yul\":6270:6275   */\n      dup2\n        /* \"#utility.yul\":6263:6276   */\n      iszero\n        /* \"#utility.yul\":6256:6277   */\n      iszero\n        /* \"#utility.yul\":6245:6277   */\n      swap1\n      pop\n        /* \"#utility.yul\":6193:6283   */\n      swap2\n      swap1\n      pop\n      jump\t// out\n        /* \"#utility.yul\":6289:6398   */\n    tag_370:\n        /* \"#utility.yul\":6370:6391   */\n      tag_473\n        /* \"#utility.yul\":6385:6390   */\n      dup2\n        /* \"#utility.yul\":6370:6391   */\n      tag_369\n      jump\t// in\n    tag_473:\n        /* \"#utility.yul\":6365:6368   */\n      dup3\n        /* \"#utility.yul\":6358:6392   */\n      mstore\n        /* \"#utility.yul\":6289:6398   */\n      pop\n      pop\n      jump\t// out\n        /* \"#utility.yul\":6404:6614   */\n    tag_44:\n        /* \"#utility.yul\":6491:6495   */\n      0x00\n        /* \"#utility.yul\":6529:6531   */\n      0x20\n        /* \"#utility.yul\":6518:6527   */\n      dup3\n        /* \"#utility.yul\":6514:6532   */\n      add\n        /* \"#utility.yul\":6506:6532   */\n      swap1\n      pop\n        /* \"#utility.yul\":6542:6607   */\n      tag_475\n        /* \"#utility.yul\":6604:6605   */\n      0x00\n        /* \"#utility.yul\":6593:6602   */\n      dup4\n        /* \"#utility.yul\":6589:6606   */\n      add\n        /* \"#utility.yul\":6580:6586   */\n      dup5\n        /* \"#utility.yul\":6542:6607   */\n      tag_370\n      jump\t// in\n    tag_475:\n        /* \"#utility.yul\":6404:6614   */\n      swap3\n      swap2\n      pop\n      pop\n      jump\t// out\n        /* \"#utility.yul\":6620:6697   */\n    tag_371:\n        /* \"#utility.yul\":6657:6664   */\n      0x00\n        /* \"#utility.yul\":6686:6691   */\n      dup2\n        /* \"#utility.yul\":6675:6691   */\n      swap1\n      pop\n        /* \"#utility.yul\":6620:6697   */\n      swap2\n      swap1\n      pop\n      jump\t// out\n        /* \"#utility.yul\":6703:6825   */\n    tag_372:\n        /* \"#utility.yul\":6776:6800   */\n      tag_478\n        /* \"#utility.yul\":6794:6799   */\n      dup2\n        /* \"#utility.yul\":6776:6800   */\n      tag_371\n      jump\t// in\n    tag_478:\n        /* \"#utility.yul\":6769:6774   */\n      dup2\n        /* \"#utility.yul\":6766:6801   */\n      eq\n        /* \"#utility.yul\":6756:6819   */\n      tag_479\n      jumpi\n        /* \"#utility.yul\":6815:6816   */\n      0x00\n        /* \"#utility.yul\":6812:6813   */\n      dup1\n        /* \"#utility.yul\":6805:6817   */\n      revert\n        /* \"#utility.yul\":6756:6819   */\n    tag_479:\n        /* \"#utility.yul\":6703:6825   */\n      pop\n      jump\t// out\n        /* \"#utility.yul\":6831:6970   */\n    tag_373:\n        /* \"#utility.yul\":6877:6882   */\n      0x00\n        /* \"#utility.yul\":6915:6921   */\n      dup2\n        /* \"#utility.yul\":6902:6922   */\n      calldataload\n        /* \"#utility.yul\":6893:6922   */\n      swap1\n      pop\n        /* \"#utility.yul\":6931:6964   */\n      tag_481\n        /* \"#utility.yul\":6958:6963   */\n      dup2\n        /* \"#utility.yul\":6931:6964   */\n      tag_372\n      jump\t// in\n    tag_481:\n        /* \"#utility.yul\":6831:6970   */\n      swap3\n      swap2\n      pop\n      pop\n      jump\t// out\n        /* \"#utility.yul\":6976:7305   */\n    tag_50:\n        /* \"#utility.yul\":7035:7041   */\n      0x00\n        /* \"#utility.yul\":7084:7086   */\n      0x20\n        /* \"#utility.yul\":7072:7081   */\n      dup3\n        /* \"#utility.yul\":7063:7070   */\n      dup5\n        /* \"#utility.yul\":7059:7082   */\n      sub\n        /* \"#utility.yul\":7055:7087   */\n      slt\n        /* \"#utility.yul\":7052:7171   */\n      iszero\n      tag_483\n      jumpi\n        /* \"#utility.yul\":7090:7169   */\n      tag_484\n      tag_354\n      jump\t// in\n    tag_484:\n        /* \"#utility.yul\":7052:7171   */\n    tag_483:\n        /* \"#utility.yul\":7210:7211   */\n      0x00\n        /* \"#utility.yul\":7235:7288   */\n      tag_485\n        /* \"#utility.yul\":7280:7287   */\n      dup5\n        /* \"#utility.yul\":7271:7277   */\n      dup3\n        /* \"#utility.yul\":7260:7269   */\n      dup6\n        /* \"#utility.yul\":7256:7278   */\n      add\n        /* \"#utility.yul\":7235:7288   */\n      tag_373\n      jump\t// in\n    tag_485:\n        /* \"#utility.yul\":7225:7288   */\n      swap2\n      pop\n        /* \"#utility.yul\":7181:7298   */\n      pop\n        /* \"#utility.yul\":6976:7305   */\n      swap3\n      swap2\n      pop\n      pop\n      jump\t// out\n        /* \"#utility.yul\":7311:7410   */\n    tag_374:\n        /* \"#utility.yul\":7363:7369   */\n      0x00\n        /* \"#utility.yul\":7397:7402   */\n      dup2\n        /* \"#utility.yul\":7391:7403   */\n      mload\n        /* \"#utility.yul\":7381:7403   */\n      swap1\n      pop\n        /* \"#utility.yul\":7311:7410   */\n      swap2\n      swap1\n      pop\n      jump\t// out\n        /* \"#utility.yul\":7416:7585   */\n    tag_375:\n        /* \"#utility.yul\":7500:7511   */\n      0x00\n        /* \"#utility.yul\":7534:7540   */\n      dup3\n        /* \"#utility.yul\":7529:7532   */\n      dup3\n        /* \"#utility.yul\":7522:7541   */\n      mstore\n        /* \"#utility.yul\":7574:7578   */\n      0x20\n        /* \"#utility.yul\":7569:7572   */\n      dup3\n        /* \"#utility.yul\":7565:7579   */\n      add\n        /* \"#utility.yul\":7550:7579   */\n      swap1\n      pop\n        /* \"#utility.yul\":7416:7585   */\n      swap3\n      swap2\n      pop\n      pop\n      jump\t// out\n        /* \"#utility.yul\":7591:7898   */\n    tag_376:\n        /* \"#utility.yul\":7659:7660   */\n      0x00\n        /* \"#utility.yul\":7669:7782   */\n    tag_489:\n        /* \"#utility.yul\":7683:7689   */\n      dup4\n        /* \"#utility.yul\":7680:7681   */\n      dup2\n        /* \"#utility.yul\":7677:7690   */\n      lt\n        /* \"#utility.yul\":7669:7782   */\n      iszero\n      tag_491\n      jumpi\n        /* \"#utility.yul\":7768:7769   */\n      dup1\n        /* \"#utility.yul\":7763:7766   */\n      dup3\n        /* \"#utility.yul\":7759:7770   */\n      add\n        /* \"#utility.yul\":7753:7771   */\n      mload\n        /* \"#utility.yul\":7749:7750   */\n      dup2\n        /* \"#utility.yul\":7744:7747   */\n      dup5\n        /* \"#utility.yul\":7740:7751   */\n      add\n        /* \"#utility.yul\":7733:7772   */\n      mstore\n        /* \"#utility.yul\":7705:7707   */\n      0x20\n        /* \"#utility.yul\":7702:7703   */\n      dup2\n        /* \"#utility.yul\":7698:7708   */\n      add\n        /* \"#utility.yul\":7693:7708   */\n      swap1\n      pop\n        /* \"#utility.yul\":7669:7782   */\n      jump(tag_489)\n    tag_491:\n        /* \"#utility.yul\":7800:7806   */\n      dup4\n        /* \"#utility.yul\":7797:7798   */\n      dup2\n        /* \"#utility.yul\":7794:7807   */\n      gt\n        /* \"#utility.yul\":7791:7892   */\n      iszero\n      tag_492\n      jumpi\n        /* \"#utility.yul\":7880:7881   */\n      0x00\n        /* \"#utility.yul\":7871:7877   */\n      dup5\n        /* \"#utility.yul\":7866:7869   */\n      dup5\n        /* \"#utility.yul\":7862:7878   */\n      add\n        /* \"#utility.yul\":7855:7882   */\n      mstore\n        /* \"#utility.yul\":7791:7892   */\n    tag_492:\n        /* \"#utility.yul\":7640:7898   */\n      pop\n        /* \"#utility.yul\":7591:7898   */\n      pop\n      pop\n      pop\n      jump\t// out\n        /* \"#utility.yul\":7904:8268   */\n    tag_377:\n        /* \"#utility.yul\":7992:7995   */\n      0x00\n        /* \"#utility.yul\":8020:8059   */\n      tag_494\n        /* \"#utility.yul\":8053:8058   */\n      dup3\n        /* \"#utility.yul\":8020:8059   */\n      tag_374\n      jump\t// in\n    tag_494:\n        /* \"#utility.yul\":8075:8146   */\n      tag_495\n        /* \"#utility.yul\":8139:8145   */\n      dup2\n        /* \"#utility.yul\":8134:8137   */\n      dup6\n        /* \"#utility.yul\":8075:8146   */\n      tag_375\n      jump\t// in\n    tag_495:\n        /* \"#utility.yul\":8068:8146   */\n      swap4\n      pop\n        /* \"#utility.yul\":8155:8207   */\n      tag_496\n        /* \"#utility.yul\":8200:8206   */\n      dup2\n        /* \"#utility.yul\":8195:8198   */\n      dup6\n        /* \"#utility.yul\":8188:8192   */\n      0x20\n        /* \"#utility.yul\":8181:8186   */\n      dup7\n        /* \"#utility.yul\":8177:8193   */\n      add\n        /* \"#utility.yul\":8155:8207   */\n      tag_376\n      jump\t// in\n    tag_496:\n        /* \"#utility.yul\":8232:8261   */\n      tag_497\n        /* \"#utility.yul\":8254:8260   */\n      dup2\n        /* \"#utility.yul\":8232:8261   */\n      tag_362\n      jump\t// in\n    tag_497:\n        /* \"#utility.yul\":8227:8230   */\n      dup5\n        /* \"#utility.yul\":8223:8262   */\n      add\n        /* \"#utility.yul\":8216:8262   */\n      swap2\n      pop\n        /* \"#utility.yul\":7996:8268   */\n      pop\n        /* \"#utility.yul\":7904:8268   */\n      swap3\n      swap2\n      pop\n      pop\n      jump\t// out\n        /* \"#utility.yul\":8274:8392   */\n    tag_378:\n        /* \"#utility.yul\":8361:8385   */\n      tag_499\n        /* \"#utility.yul\":8379:8384   */\n      dup2\n        /* \"#utility.yul\":8361:8385   */\n      tag_357\n      jump\t// in\n    tag_499:\n        /* \"#utility.yul\":8356:8359   */\n      dup3\n        /* \"#utility.yul\":8349:8386   */\n      mstore\n        /* \"#utility.yul\":8274:8392   */\n      pop\n      pop\n      jump\t// out\n        /* \"#utility.yul\":8398:10032   */\n    tag_53:\n        /* \"#utility.yul\":8827:8831   */\n      0x00\n        /* \"#utility.yul\":8865:8868   */\n      0x0100\n        /* \"#utility.yul\":8854:8863   */\n      dup3\n        /* \"#utility.yul\":8850:8869   */\n      add\n        /* \"#utility.yul\":8842:8869   */\n      swap1\n      pop\n        /* \"#utility.yul\":8915:8924   */\n      dup2\n        /* \"#utility.yul\":8909:8913   */\n      dup2\n        /* \"#utility.yul\":8905:8925   */\n      sub\n        /* \"#utility.yul\":8901:8902   */\n      0x00\n        /* \"#utility.yul\":8890:8899   */\n      dup4\n        /* \"#utility.yul\":8886:8903   */\n      add\n        /* \"#utility.yul\":8879:8926   */\n      mstore\n        /* \"#utility.yul\":8943:9021   */\n      tag_501\n        /* \"#utility.yul\":9016:9020   */\n      dup2\n        /* \"#utility.yul\":9007:9013   */\n      dup12\n        /* \"#utility.yul\":8943:9021   */\n      tag_377\n      jump\t// in\n    tag_501:\n        /* \"#utility.yul\":8935:9021   */\n      swap1\n      pop\n        /* \"#utility.yul\":9068:9077   */\n      dup2\n        /* \"#utility.yul\":9062:9066   */\n      dup2\n        /* \"#utility.yul\":9058:9078   */\n      sub\n        /* \"#utility.yul\":9053:9055   */\n      0x20\n        /* \"#utility.yul\":9042:9051   */\n      dup4\n        /* \"#utility.yul\":9038:9056   */\n      add\n        /* \"#utility.yul\":9031:9079   */\n      mstore\n        /* \"#utility.yul\":9096:9174   */\n      tag_502\n        /* \"#utility.yul\":9169:9173   */\n      dup2\n        /* \"#utility.yul\":9160:9166   */\n      dup11\n        /* \"#utility.yul\":9096:9174   */\n      tag_377\n      jump\t// in\n    tag_502:\n        /* \"#utility.yul\":9088:9174   */\n      swap1\n      pop\n        /* \"#utility.yul\":9221:9230   */\n      dup2\n        /* \"#utility.yul\":9215:9219   */\n      dup2\n        /* \"#utility.yul\":9211:9231   */\n      sub\n        /* \"#utility.yul\":9206:9208   */\n      0x40\n        /* \"#utility.yul\":9195:9204   */\n      dup4\n        /* \"#utility.yul\":9191:9209   */\n      add\n        /* \"#utility.yul\":9184:9232   */\n      mstore\n        /* \"#utility.yul\":9249:9327   */\n      tag_503\n        /* \"#utility.yul\":9322:9326   */\n      dup2\n        /* \"#utility.yul\":9313:9319   */\n      dup10\n        /* \"#utility.yul\":9249:9327   */\n      tag_377\n      jump\t// in\n    tag_503:\n        /* \"#utility.yul\":9241:9327   */\n      swap1\n      pop\n        /* \"#utility.yul\":9374:9383   */\n      dup2\n        /* \"#utility.yul\":9368:9372   */\n      dup2\n        /* \"#utility.yul\":9364:9384   */\n      sub\n        /* \"#utility.yul\":9359:9361   */\n      0x60\n        /* \"#utility.yul\":9348:9357   */\n      dup4\n        /* \"#utility.yul\":9344:9362   */\n      add\n        /* \"#utility.yul\":9337:9385   */\n      mstore\n        /* \"#utility.yul\":9402:9480   */\n      tag_504\n        /* \"#utility.yul\":9475:9479   */\n      dup2\n        /* \"#utility.yul\":9466:9472   */\n      dup9\n        /* \"#utility.yul\":9402:9480   */\n      tag_377\n      jump\t// in\n    tag_504:\n        /* \"#utility.yul\":9394:9480   */\n      swap1\n      pop\n        /* \"#utility.yul\":9490:9563   */\n      tag_505\n        /* \"#utility.yul\":9558:9561   */\n      0x80\n        /* \"#utility.yul\":9547:9556   */\n      dup4\n        /* \"#utility.yul\":9543:9562   */\n      add\n        /* \"#utility.yul\":9534:9540   */\n      dup8\n        /* \"#utility.yul\":9490:9563   */\n      tag_378\n      jump\t// in\n    tag_505:\n        /* \"#utility.yul\":9611:9620   */\n      dup2\n        /* \"#utility.yul\":9605:9609   */\n      dup2\n        /* \"#utility.yul\":9601:9621   */\n      sub\n        /* \"#utility.yul\":9595:9598   */\n      0xa0\n        /* \"#utility.yul\":9584:9593   */\n      dup4\n        /* \"#utility.yul\":9580:9599   */\n      add\n        /* \"#utility.yul\":9573:9622   */\n      mstore\n        /* \"#utility.yul\":9639:9717   */\n      tag_506\n        /* \"#utility.yul\":9712:9716   */\n      dup2\n        /* \"#utility.yul\":9703:9709   */\n      dup7\n        /* \"#utility.yul\":9639:9717   */\n      tag_377\n      jump\t// in\n    tag_506:\n        /* \"#utility.yul\":9631:9717   */\n      swap1\n      pop\n        /* \"#utility.yul\":9765:9774   */\n      dup2\n        /* \"#utility.yul\":9759:9763   */\n      dup2\n        /* \"#utility.yul\":9755:9775   */\n      sub\n        /* \"#utility.yul\":9749:9752   */\n      0xc0\n        /* \"#utility.yul\":9738:9747   */\n      dup4\n        /* \"#utility.yul\":9734:9753   */\n      add\n        /* \"#utility.yul\":9727:9776   */\n      mstore\n        /* \"#utility.yul\":9793:9871   */\n      tag_507\n        /* \"#utility.yul\":9866:9870   */\n      dup2\n        /* \"#utility.yul\":9857:9863   */\n      dup6\n        /* \"#utility.yul\":9793:9871   */\n      tag_377\n      jump\t// in\n    tag_507:\n        /* \"#utility.yul\":9785:9871   */\n      swap1\n      pop\n        /* \"#utility.yul\":9919:9928   */\n      dup2\n        /* \"#utility.yul\":9913:9917   */\n      dup2\n        /* \"#utility.yul\":9909:9929   */\n      sub\n        /* \"#utility.yul\":9903:9906   */\n      0xe0\n        /* \"#utility.yul\":9892:9901   */\n      dup4\n        /* \"#utility.yul\":9888:9907   */\n      add\n        /* \"#utility.yul\":9881:9930   */\n      mstore\n        /* \"#utility.yul\":9947:10025   */\n      tag_508\n        /* \"#utility.yul\":10020:10024   */\n      dup2\n        /* \"#utility.yul\":10011:10017   */\n      dup5\n        /* \"#utility.yul\":9947:10025   */\n      tag_377\n      jump\t// in\n    tag_508:\n        /* \"#utility.yul\":9939:10025   */\n      swap1\n      pop\n        /* \"#utility.yul\":8398:10032   */\n      swap10\n      swap9\n      pop\n      pop\n      pop\n      pop\n      pop\n      pop\n      pop\n      pop\n      pop\n      jump\t// out\n        /* \"#utility.yul\":10038:10351   */\n    tag_79:\n        /* \"#utility.yul\":10151:10155   */\n      0x00\n        /* \"#utility.yul\":10189:10191   */\n      0x20\n        /* \"#utility.yul\":10178:10187   */\n      dup3\n        /* \"#utility.yul\":10174:10192   */\n      add\n        /* \"#utility.yul\":10166:10192   */\n      swap1\n      pop\n        /* \"#utility.yul\":10238:10247   */\n      dup2\n        /* \"#utility.yul\":10232:10236   */\n      dup2\n        /* \"#utility.yul\":10228:10248   */\n      sub\n        /* \"#utility.yul\":10224:10225   */\n      0x00\n        /* \"#utility.yul\":10213:10222   */\n      dup4\n        /* \"#utility.yul\":10209:10226   */\n      add\n        /* \"#utility.yul\":10202:10249   */\n      mstore\n        /* \"#utility.yul\":10266:10344   */\n      tag_510\n        /* \"#utility.yul\":10339:10343   */\n      dup2\n        /* \"#utility.yul\":10330:10336   */\n      dup5\n        /* \"#utility.yul\":10266:10344   */\n      tag_377\n      jump\t// in\n    tag_510:\n        /* \"#utility.yul\":10258:10344   */\n      swap1\n      pop\n        /* \"#utility.yul\":10038:10351   */\n      swap3\n      swap2\n      pop\n      pop\n      jump\t// out\n        /* \"#utility.yul\":10357:10579   */\n    tag_86:\n        /* \"#utility.yul\":10450:10454   */\n      0x00\n        /* \"#utility.yul\":10488:10490   */\n      0x20\n        /* \"#utility.yul\":10477:10486   */\n      dup3\n        /* \"#utility.yul\":10473:10491   */\n      add\n        /* \"#utility.yul\":10465:10491   */\n      swap1\n      pop\n        /* \"#utility.yul\":10501:10572   */\n      tag_512\n        /* \"#utility.yul\":10569:10570   */\n      0x00\n        /* \"#utility.yul\":10558:10567   */\n      dup4\n        /* \"#utility.yul\":10554:10571   */\n      add\n        /* \"#utility.yul\":10545:10551   */\n      dup5\n        /* \"#utility.yul\":10501:10572   */\n      tag_378\n      jump\t// in\n    tag_512:\n        /* \"#utility.yul\":10357:10579   */\n      swap3\n      swap2\n      pop\n      pop\n      jump\t// out\n        /* \"#utility.yul\":10585:10726   */\n    tag_379:\n        /* \"#utility.yul\":10679:10685   */\n      0x00\n        /* \"#utility.yul\":10713:10718   */\n      dup2\n        /* \"#utility.yul\":10707:10719   */\n      mload\n        /* \"#utility.yul\":10697:10719   */\n      swap1\n      pop\n        /* \"#utility.yul\":10585:10726   */\n      swap2\n      swap1\n      pop\n      jump\t// out\n        /* \"#utility.yul\":10732:10943   */\n    tag_380:\n        /* \"#utility.yul\":10858:10869   */\n      0x00\n        /* \"#utility.yul\":10892:10898   */\n      dup3\n        /* \"#utility.yul\":10887:10890   */\n      dup3\n        /* \"#utility.yul\":10880:10899   */\n      mstore\n        /* \"#utility.yul\":10932:10936   */\n      0x20\n        /* \"#utility.yul\":10927:10930   */\n      dup3\n        /* \"#utility.yul\":10923:10937   */\n      add\n        /* \"#utility.yul\":10908:10937   */\n      swap1\n      pop\n        /* \"#utility.yul\":10732:10943   */\n      swap3\n      swap2\n      pop\n      pop\n      jump\t// out\n        /* \"#utility.yul\":10949:11108   */\n    tag_381:\n        /* \"#utility.yul\":11043:11047   */\n      0x00\n        /* \"#utility.yul\":11066:11069   */\n      dup2\n        /* \"#utility.yul\":11058:11069   */\n      swap1\n      pop\n        /* \"#utility.yul\":11096:11100   */\n      0x20\n        /* \"#utility.yul\":11091:11094   */\n      dup3\n        /* \"#utility.yul\":11087:11101   */\n      add\n        /* \"#utility.yul\":11079:11101   */\n      swap1\n      pop\n        /* \"#utility.yul\":10949:11108   */\n      swap2\n      swap1\n      pop\n      jump\t// out\n        /* \"#utility.yul\":11114:11273   */\n    tag_382:\n        /* \"#utility.yul\":11188:11199   */\n      0x00\n        /* \"#utility.yul\":11222:11228   */\n      dup3\n        /* \"#utility.yul\":11217:11220   */\n      dup3\n        /* \"#utility.yul\":11210:11229   */\n      mstore\n        /* \"#utility.yul\":11262:11266   */\n      0x20\n        /* \"#utility.yul\":11257:11260   */\n      dup3\n        /* \"#utility.yul\":11253:11267   */\n      add\n        /* \"#utility.yul\":11238:11267   */\n      swap1\n      pop\n        /* \"#utility.yul\":11114:11273   */\n      swap3\n      swap2\n      pop\n      pop\n      jump\t// out\n        /* \"#utility.yul\":11279:11623   */\n    tag_383:\n        /* \"#utility.yul\":11357:11360   */\n      0x00\n        /* \"#utility.yul\":11385:11424   */\n      tag_518\n        /* \"#utility.yul\":11418:11423   */\n      dup3\n        /* \"#utility.yul\":11385:11424   */\n      tag_374\n      jump\t// in\n    tag_518:\n        /* \"#utility.yul\":11440:11501   */\n      tag_519\n        /* \"#utility.yul\":11494:11500   */\n      dup2\n        /* \"#utility.yul\":11489:11492   */\n      dup6\n        /* \"#utility.yul\":11440:11501   */\n      tag_382\n      jump\t// in\n    tag_519:\n        /* \"#utility.yul\":11433:11501   */\n      swap4\n      pop\n        /* \"#utility.yul\":11510:11562   */\n      tag_520\n        /* \"#utility.yul\":11555:11561   */\n      dup2\n        /* \"#utility.yul\":11550:11553   */\n      dup6\n        /* \"#utility.yul\":11543:11547   */\n      0x20\n        /* \"#utility.yul\":11536:11541   */\n      dup7\n        /* \"#utility.yul\":11532:11548   */\n      add\n        /* \"#utility.yul\":11510:11562   */\n      tag_376\n      jump\t// in\n    tag_520:\n        /* \"#utility.yul\":11587:11616   */\n      tag_521\n        /* \"#utility.yul\":11609:11615   */\n      dup2\n        /* \"#utility.yul\":11587:11616   */\n      tag_362\n      jump\t// in\n    tag_521:\n        /* \"#utility.yul\":11582:11585   */\n      dup5\n        /* \"#utility.yul\":11578:11617   */\n      add\n        /* \"#utility.yul\":11571:11617   */\n      swap2\n      pop\n        /* \"#utility.yul\":11361:11623   */\n      pop\n        /* \"#utility.yul\":11279:11623   */\n      swap3\n      swap2\n      pop\n      pop\n      jump\t// out\n        /* \"#utility.yul\":11629:11737   */\n    tag_384:\n        /* \"#utility.yul\":11706:11730   */\n      tag_523\n        /* \"#utility.yul\":11724:11729   */\n      dup2\n        /* \"#utility.yul\":11706:11730   */\n      tag_357\n      jump\t// in\n    tag_523:\n        /* \"#utility.yul\":11701:11704   */\n      dup3\n        /* \"#utility.yul\":11694:11731   */\n      mstore\n        /* \"#utility.yul\":11629:11737   */\n      pop\n      pop\n      jump\t// out\n        /* \"#utility.yul\":11809:13919   */\n    tag_385:\n        /* \"#utility.yul\":11922:11925   */\n      0x00\n        /* \"#utility.yul\":11958:11964   */\n      0x0100\n        /* \"#utility.yul\":11953:11956   */\n      dup4\n        /* \"#utility.yul\":11949:11965   */\n      add\n        /* \"#utility.yul\":12053:12057   */\n      0x00\n        /* \"#utility.yul\":12046:12051   */\n      dup4\n        /* \"#utility.yul\":12042:12058   */\n      add\n        /* \"#utility.yul\":12036:12059   */\n      mload\n        /* \"#utility.yul\":12106:12109   */\n      dup5\n        /* \"#utility.yul\":12100:12104   */\n      dup3\n        /* \"#utility.yul\":12096:12110   */\n      sub\n        /* \"#utility.yul\":12089:12093   */\n      0x00\n        /* \"#utility.yul\":12084:12087   */\n      dup7\n        /* \"#utility.yul\":12080:12094   */\n      add\n        /* \"#utility.yul\":12073:12111   */\n      mstore\n        /* \"#utility.yul\":12132:12205   */\n      tag_525\n        /* \"#utility.yul\":12200:12204   */\n      dup3\n        /* \"#utility.yul\":12186:12198   */\n      dup3\n        /* \"#utility.yul\":12132:12205   */\n      tag_383\n      jump\t// in\n    tag_525:\n        /* \"#utility.yul\":12124:12205   */\n      swap2\n      pop\n        /* \"#utility.yul\":11975:12216   */\n      pop\n        /* \"#utility.yul\":12303:12307   */\n      0x20\n        /* \"#utility.yul\":12296:12301   */\n      dup4\n        /* \"#utility.yul\":12292:12308   */\n      add\n        /* \"#utility.yul\":12286:12309   */\n      mload\n        /* \"#utility.yul\":12356:12359   */\n      dup5\n        /* \"#utility.yul\":12350:12354   */\n      dup3\n        /* \"#utility.yul\":12346:12360   */\n      sub\n        /* \"#utility.yul\":12339:12343   */\n      0x20\n        /* \"#utility.yul\":12334:12337   */\n      dup7\n        /* \"#utility.yul\":12330:12344   */\n      add\n        /* \"#utility.yul\":12323:12361   */\n      mstore\n        /* \"#utility.yul\":12382:12455   */\n      tag_526\n        /* \"#utility.yul\":12450:12454   */\n      dup3\n        /* \"#utility.yul\":12436:12448   */\n      dup3\n        /* \"#utility.yul\":12382:12455   */\n      tag_383\n      jump\t// in\n    tag_526:\n        /* \"#utility.yul\":12374:12455   */\n      swap2\n      pop\n        /* \"#utility.yul\":12226:12466   */\n      pop\n        /* \"#utility.yul\":12549:12553   */\n      0x40\n        /* \"#utility.yul\":12542:12547   */\n      dup4\n        /* \"#utility.yul\":12538:12554   */\n      add\n        /* \"#utility.yul\":12532:12555   */\n      mload\n        /* \"#utility.yul\":12602:12605   */\n      dup5\n        /* \"#utility.yul\":12596:12600   */\n      dup3\n        /* \"#utility.yul\":12592:12606   */\n      sub\n        /* \"#utility.yul\":12585:12589   */\n      0x40\n        /* \"#utility.yul\":12580:12583   */\n      dup7\n        /* \"#utility.yul\":12576:12590   */\n      add\n        /* \"#utility.yul\":12569:12607   */\n      mstore\n        /* \"#utility.yul\":12628:12701   */\n      tag_527\n        /* \"#utility.yul\":12696:12700   */\n      dup3\n        /* \"#utility.yul\":12682:12694   */\n      dup3\n        /* \"#utility.yul\":12628:12701   */\n      tag_383\n      jump\t// in\n    tag_527:\n        /* \"#utility.yul\":12620:12701   */\n      swap2\n      pop\n        /* \"#utility.yul\":12476:12712   */\n      pop\n        /* \"#utility.yul\":12795:12799   */\n      0x60\n        /* \"#utility.yul\":12788:12793   */\n      dup4\n        /* \"#utility.yul\":12784:12800   */\n      add\n        /* \"#utility.yul\":12778:12801   */\n      mload\n        /* \"#utility.yul\":12848:12851   */\n      dup5\n        /* \"#utility.yul\":12842:12846   */\n      dup3\n        /* \"#utility.yul\":12838:12852   */\n      sub\n        /* \"#utility.yul\":12831:12835   */\n      0x60\n        /* \"#utility.yul\":12826:12829   */\n      dup7\n        /* \"#utility.yul\":12822:12836   */\n      add\n        /* \"#utility.yul\":12815:12853   */\n      mstore\n        /* \"#utility.yul\":12874:12947   */\n      tag_528\n        /* \"#utility.yul\":12942:12946   */\n      dup3\n        /* \"#utility.yul\":12928:12940   */\n      dup3\n        /* \"#utility.yul\":12874:12947   */\n      tag_383\n      jump\t// in\n    tag_528:\n        /* \"#utility.yul\":12866:12947   */\n      swap2\n      pop\n        /* \"#utility.yul\":12722:12958   */\n      pop\n        /* \"#utility.yul\":13048:13052   */\n      0x80\n        /* \"#utility.yul\":13041:13046   */\n      dup4\n        /* \"#utility.yul\":13037:13053   */\n      add\n        /* \"#utility.yul\":13031:13054   */\n      mload\n        /* \"#utility.yul\":13067:13130   */\n      tag_529\n        /* \"#utility.yul\":13124:13128   */\n      0x80\n        /* \"#utility.yul\":13119:13122   */\n      dup7\n        /* \"#utility.yul\":13115:13129   */\n      add\n        /* \"#utility.yul\":13101:13113   */\n      dup3\n        /* \"#utility.yul\":13067:13130   */\n      tag_384\n      jump\t// in\n    tag_529:\n        /* \"#utility.yul\":12968:13140   */\n      pop\n        /* \"#utility.yul\":13225:13229   */\n      0xa0\n        /* \"#utility.yul\":13218:13223   */\n      dup4\n        /* \"#utility.yul\":13214:13230   */\n      add\n        /* \"#utility.yul\":13208:13231   */\n      mload\n        /* \"#utility.yul\":13278:13281   */\n      dup5\n        /* \"#utility.yul\":13272:13276   */\n      dup3\n        /* \"#utility.yul\":13268:13282   */\n      sub\n        /* \"#utility.yul\":13261:13265   */\n      0xa0\n        /* \"#utility.yul\":13256:13259   */\n      dup7\n        /* \"#utility.yul\":13252:13266   */\n      add\n        /* \"#utility.yul\":13245:13283   */\n      mstore\n        /* \"#utility.yul\":13304:13377   */\n      tag_530\n        /* \"#utility.yul\":13372:13376   */\n      dup3\n        /* \"#utility.yul\":13358:13370   */\n      dup3\n        /* \"#utility.yul\":13304:13377   */\n      tag_383\n      jump\t// in\n    tag_530:\n        /* \"#utility.yul\":13296:13377   */\n      swap2\n      pop\n        /* \"#utility.yul\":13150:13388   */\n      pop\n        /* \"#utility.yul\":13482:13486   */\n      0xc0\n        /* \"#utility.yul\":13475:13480   */\n      dup4\n        /* \"#utility.yul\":13471:13487   */\n      add\n        /* \"#utility.yul\":13465:13488   */\n      mload\n        /* \"#utility.yul\":13535:13538   */\n      dup5\n        /* \"#utility.yul\":13529:13533   */\n      dup3\n        /* \"#utility.yul\":13525:13539   */\n      sub\n        /* \"#utility.yul\":13518:13522   */\n      0xc0\n        /* \"#utility.yul\":13513:13516   */\n      dup7\n        /* \"#utility.yul\":13509:13523   */\n      add\n        /* \"#utility.yul\":13502:13540   */\n      mstore\n        /* \"#utility.yul\":13561:13634   */\n      tag_531\n        /* \"#utility.yul\":13629:13633   */\n      dup3\n        /* \"#utility.yul\":13615:13627   */\n      dup3\n        /* \"#utility.yul\":13561:13634   */\n      tag_383\n      jump\t// in\n    tag_531:\n        /* \"#utility.yul\":13553:13634   */\n      swap2\n      pop\n        /* \"#utility.yul\":13398:13645   */\n      pop\n        /* \"#utility.yul\":13729:13733   */\n      0xe0\n        /* \"#utility.yul\":13722:13727   */\n      dup4\n        /* \"#utility.yul\":13718:13734   */\n      add\n        /* \"#utility.yul\":13712:13735   */\n      mload\n        /* \"#utility.yul\":13782:13785   */\n      dup5\n        /* \"#utility.yul\":13776:13780   */\n      dup3\n        /* \"#utility.yul\":13772:13786   */\n      sub\n        /* \"#utility.yul\":13765:13769   */\n      0xe0\n        /* \"#utility.yul\":13760:13763   */\n      dup7\n        /* \"#utility.yul\":13756:13770   */\n      add\n        /* \"#utility.yul\":13749:13787   */\n      mstore\n        /* \"#utility.yul\":13808:13881   */\n      tag_532\n        /* \"#utility.yul\":13876:13880   */\n      dup3\n        /* \"#utility.yul\":13862:13874   */\n      dup3\n        /* \"#utility.yul\":13808:13881   */\n      tag_383\n      jump\t// in\n    tag_532:\n        /* \"#utility.yul\":13800:13881   */\n      swap2\n      pop\n        /* \"#utility.yul\":13655:13892   */\n      pop\n        /* \"#utility.yul\":13909:13913   */\n      dup1\n        /* \"#utility.yul\":13902:13913   */\n      swap2\n      pop\n        /* \"#utility.yul\":11927:13919   */\n      pop\n        /* \"#utility.yul\":11809:13919   */\n      swap3\n      swap2\n      pop\n      pop\n      jump\t// out\n        /* \"#utility.yul\":13925:14189   */\n    tag_386:\n        /* \"#utility.yul\":14048:14058   */\n      0x00\n        /* \"#utility.yul\":14083:14183   */\n      tag_534\n        /* \"#utility.yul\":14179:14182   */\n      dup4\n        /* \"#utility.yul\":14171:14177   */\n      dup4\n        /* \"#utility.yul\":14083:14183   */\n      tag_385\n      jump\t// in\n    tag_534:\n        /* \"#utility.yul\":14069:14183   */\n      swap1\n      pop\n        /* \"#utility.yul\":13925:14189   */\n      swap3\n      swap2\n      pop\n      pop\n      jump\t// out\n        /* \"#utility.yul\":14195:14335   */\n    tag_387:\n        /* \"#utility.yul\":14292:14296   */\n      0x00\n        /* \"#utility.yul\":14324:14328   */\n      0x20\n        /* \"#utility.yul\":14319:14322   */\n      dup3\n        /* \"#utility.yul\":14315:14329   */\n      add\n        /* \"#utility.yul\":14307:14329   */\n      swap1\n      pop\n        /* \"#utility.yul\":14195:14335   */\n      swap2\n      swap1\n      pop\n      jump\t// out\n        /* \"#utility.yul\":14411:15538   */\n    tag_388:\n        /* \"#utility.yul\":14584:14587   */\n      0x00\n        /* \"#utility.yul\":14613:14694   */\n      tag_537\n        /* \"#utility.yul\":14688:14693   */\n      dup3\n        /* \"#utility.yul\":14613:14694   */\n      tag_379\n      jump\t// in\n    tag_537:\n        /* \"#utility.yul\":14710:14823   */\n      tag_538\n        /* \"#utility.yul\":14816:14822   */\n      dup2\n        /* \"#utility.yul\":14811:14814   */\n      dup6\n        /* \"#utility.yul\":14710:14823   */\n      tag_380\n      jump\t// in\n    tag_538:\n        /* \"#utility.yul\":14703:14823   */\n      swap4\n      pop\n        /* \"#utility.yul\":14849:14852   */\n      dup4\n        /* \"#utility.yul\":14894:14898   */\n      0x20\n        /* \"#utility.yul\":14886:14892   */\n      dup3\n        /* \"#utility.yul\":14882:14899   */\n      mul\n        /* \"#utility.yul\":14877:14880   */\n      dup6\n        /* \"#utility.yul\":14873:14900   */\n      add\n        /* \"#utility.yul\":14924:15007   */\n      tag_539\n        /* \"#utility.yul\":15001:15006   */\n      dup6\n        /* \"#utility.yul\":14924:15007   */\n      tag_381\n      jump\t// in\n    tag_539:\n        /* \"#utility.yul\":15030:15037   */\n      dup1\n        /* \"#utility.yul\":15061:15062   */\n      0x00\n        /* \"#utility.yul\":15046:15493   */\n    tag_540:\n        /* \"#utility.yul\":15071:15077   */\n      dup6\n        /* \"#utility.yul\":15068:15069   */\n      dup2\n        /* \"#utility.yul\":15065:15078   */\n      lt\n        /* \"#utility.yul\":15046:15493   */\n      iszero\n      tag_542\n      jumpi\n        /* \"#utility.yul\":15142:15151   */\n      dup5\n        /* \"#utility.yul\":15136:15140   */\n      dup5\n        /* \"#utility.yul\":15132:15152   */\n      sub\n        /* \"#utility.yul\":15127:15130   */\n      dup10\n        /* \"#utility.yul\":15120:15153   */\n      mstore\n        /* \"#utility.yul\":15193:15199   */\n      dup2\n        /* \"#utility.yul\":15187:15200   */\n      mload\n        /* \"#utility.yul\":15221:15339   */\n      tag_543\n        /* \"#utility.yul\":15334:15338   */\n      dup6\n        /* \"#utility.yul\":15319:15332   */\n      dup3\n        /* \"#utility.yul\":15221:15339   */\n      tag_386\n      jump\t// in\n    tag_543:\n        /* \"#utility.yul\":15213:15339   */\n      swap5\n      pop\n        /* \"#utility.yul\":15362:15449   */\n      tag_544\n        /* \"#utility.yul\":15442:15448   */\n      dup4\n        /* \"#utility.yul\":15362:15449   */\n      tag_387\n      jump\t// in\n    tag_544:\n        /* \"#utility.yul\":15352:15449   */\n      swap3\n      pop\n        /* \"#utility.yul\":15478:15482   */\n      0x20\n        /* \"#utility.yul\":15473:15476   */\n      dup11\n        /* \"#utility.yul\":15469:15483   */\n      add\n        /* \"#utility.yul\":15462:15483   */\n      swap10\n      pop\n        /* \"#utility.yul\":15106:15493   */\n      pop\n        /* \"#utility.yul\":15093:15094   */\n      0x01\n        /* \"#utility.yul\":15090:15091   */\n      dup2\n        /* \"#utility.yul\":15086:15095   */\n      add\n        /* \"#utility.yul\":15081:15095   */\n      swap1\n      pop\n        /* \"#utility.yul\":15046:15493   */\n      jump(tag_540)\n    tag_542:\n        /* \"#utility.yul\":15050:15064   */\n      pop\n        /* \"#utility.yul\":15509:15513   */\n      dup3\n        /* \"#utility.yul\":15502:15513   */\n      swap8\n      pop\n        /* \"#utility.yul\":15529:15532   */\n      dup8\n        /* \"#utility.yul\":15522:15532   */\n      swap6\n      pop\n        /* \"#utility.yul\":14589:15538   */\n      pop\n      pop\n      pop\n      pop\n      pop\n        /* \"#utility.yul\":14411:15538   */\n      swap3\n      swap2\n      pop\n      pop\n      jump\t// out\n        /* \"#utility.yul\":15544:16025   */\n    tag_94:\n        /* \"#utility.yul\":15741:15745   */\n      0x00\n        /* \"#utility.yul\":15779:15781   */\n      0x20\n        /* \"#utility.yul\":15768:15777   */\n      dup3\n        /* \"#utility.yul\":15764:15782   */\n      add\n        /* \"#utility.yul\":15756:15782   */\n      swap1\n      pop\n        /* \"#utility.yul\":15828:15837   */\n      dup2\n        /* \"#utility.yul\":15822:15826   */\n      dup2\n        /* \"#utility.yul\":15818:15838   */\n      sub\n        /* \"#utility.yul\":15814:15815   */\n      0x00\n        /* \"#utility.yul\":15803:15812   */\n      dup4\n        /* \"#utility.yul\":15799:15816   */\n      add\n        /* \"#utility.yul\":15792:15839   */\n      mstore\n        /* \"#utility.yul\":15856:16018   */\n      tag_546\n        /* \"#utility.yul\":16013:16017   */\n      dup2\n        /* \"#utility.yul\":16004:16010   */\n      dup5\n        /* \"#utility.yul\":15856:16018   */\n      tag_388\n      jump\t// in\n    tag_546:\n        /* \"#utility.yul\":15848:16018   */\n      swap1\n      pop\n        /* \"#utility.yul\":15544:16025   */\n      swap3\n      swap2\n      pop\n      pop\n      jump\t// out\n        /* \"#utility.yul\":16031:16155   */\n    tag_389:\n        /* \"#utility.yul\":16108:16114   */\n      0x00\n        /* \"#utility.yul\":16142:16147   */\n      dup2\n        /* \"#utility.yul\":16136:16148   */\n      mload\n        /* \"#utility.yul\":16126:16148   */\n      swap1\n      pop\n        /* \"#utility.yul\":16031:16155   */\n      swap2\n      swap1\n      pop\n      jump\t// out\n        /* \"#utility.yul\":16161:16355   */\n    tag_390:\n        /* \"#utility.yul\":16270:16281   */\n      0x00\n        /* \"#utility.yul\":16304:16310   */\n      dup3\n        /* \"#utility.yul\":16299:16302   */\n      dup3\n        /* \"#utility.yul\":16292:16311   */\n      mstore\n        /* \"#utility.yul\":16344:16348   */\n      0x20\n        /* \"#utility.yul\":16339:16342   */\n      dup3\n        /* \"#utility.yul\":16335:16349   */\n      add\n        /* \"#utility.yul\":16320:16349   */\n      swap1\n      pop\n        /* \"#utility.yul\":16161:16355   */\n      swap3\n      swap2\n      pop\n      pop\n      jump\t// out\n        /* \"#utility.yul\":16361:16503   */\n    tag_391:\n        /* \"#utility.yul\":16438:16442   */\n      0x00\n        /* \"#utility.yul\":16461:16464   */\n      dup2\n        /* \"#utility.yul\":16453:16464   */\n      swap1\n      pop\n        /* \"#utility.yul\":16491:16495   */\n      0x20\n        /* \"#utility.yul\":16486:16489   */\n      dup3\n        /* \"#utility.yul\":16482:16496   */\n      add\n        /* \"#utility.yul\":16474:16496   */\n      swap1\n      pop\n        /* \"#utility.yul\":16361:16503   */\n      swap2\n      swap1\n      pop\n      jump\t// out\n        /* \"#utility.yul\":16509:16705   */\n    tag_392:\n        /* \"#utility.yul\":16598:16608   */\n      0x00\n        /* \"#utility.yul\":16633:16699   */\n      tag_551\n        /* \"#utility.yul\":16695:16698   */\n      dup4\n        /* \"#utility.yul\":16687:16693   */\n      dup4\n        /* \"#utility.yul\":16633:16699   */\n      tag_383\n      jump\t// in\n    tag_551:\n        /* \"#utility.yul\":16619:16699   */\n      swap1\n      pop\n        /* \"#utility.yul\":16509:16705   */\n      swap3\n      swap2\n      pop\n      pop\n      jump\t// out\n        /* \"#utility.yul\":16711:16834   */\n    tag_393:\n        /* \"#utility.yul\":16791:16795   */\n      0x00\n        /* \"#utility.yul\":16823:16827   */\n      0x20\n        /* \"#utility.yul\":16818:16821   */\n      dup3\n        /* \"#utility.yul\":16814:16828   */\n      add\n        /* \"#utility.yul\":16806:16828   */\n      swap1\n      pop\n        /* \"#utility.yul\":16711:16834   */\n      swap2\n      swap1\n      pop\n      jump\t// out\n        /* \"#utility.yul\":16868:17859   */\n    tag_394:\n        /* \"#utility.yul\":17007:17010   */\n      0x00\n        /* \"#utility.yul\":17036:17100   */\n      tag_554\n        /* \"#utility.yul\":17094:17099   */\n      dup3\n        /* \"#utility.yul\":17036:17100   */\n      tag_389\n      jump\t// in\n    tag_554:\n        /* \"#utility.yul\":17116:17212   */\n      tag_555\n        /* \"#utility.yul\":17205:17211   */\n      dup2\n        /* \"#utility.yul\":17200:17203   */\n      dup6\n        /* \"#utility.yul\":17116:17212   */\n      tag_390\n      jump\t// in\n    tag_555:\n        /* \"#utility.yul\":17109:17212   */\n      swap4\n      pop\n        /* \"#utility.yul\":17238:17241   */\n      dup4\n        /* \"#utility.yul\":17283:17287   */\n      0x20\n        /* \"#utility.yul\":17275:17281   */\n      dup3\n        /* \"#utility.yul\":17271:17288   */\n      mul\n        /* \"#utility.yul\":17266:17269   */\n      dup6\n        /* \"#utility.yul\":17262:17289   */\n      add\n        /* \"#utility.yul\":17313:17379   */\n      tag_556\n        /* \"#utility.yul\":17373:17378   */\n      dup6\n        /* \"#utility.yul\":17313:17379   */\n      tag_391\n      jump\t// in\n    tag_556:\n        /* \"#utility.yul\":17402:17409   */\n      dup1\n        /* \"#utility.yul\":17433:17434   */\n      0x00\n        /* \"#utility.yul\":17418:17814   */\n    tag_557:\n        /* \"#utility.yul\":17443:17449   */\n      dup6\n        /* \"#utility.yul\":17440:17441   */\n      dup2\n        /* \"#utility.yul\":17437:17450   */\n      lt\n        /* \"#utility.yul\":17418:17814   */\n      iszero\n      tag_559\n      jumpi\n        /* \"#utility.yul\":17514:17523   */\n      dup5\n        /* \"#utility.yul\":17508:17512   */\n      dup5\n        /* \"#utility.yul\":17504:17524   */\n      sub\n        /* \"#utility.yul\":17499:17502   */\n      dup10\n        /* \"#utility.yul\":17492:17525   */\n      mstore\n        /* \"#utility.yul\":17565:17571   */\n      dup2\n        /* \"#utility.yul\":17559:17572   */\n      mload\n        /* \"#utility.yul\":17593:17677   */\n      tag_560\n        /* \"#utility.yul\":17672:17676   */\n      dup6\n        /* \"#utility.yul\":17657:17670   */\n      dup3\n        /* \"#utility.yul\":17593:17677   */\n      tag_392\n      jump\t// in\n    tag_560:\n        /* \"#utility.yul\":17585:17677   */\n      swap5\n      pop\n        /* \"#utility.yul\":17700:17770   */\n      tag_561\n        /* \"#utility.yul\":17763:17769   */\n      dup4\n        /* \"#utility.yul\":17700:17770   */\n      tag_393\n      jump\t// in\n    tag_561:\n        /* \"#utility.yul\":17690:17770   */\n      swap3\n      pop\n        /* \"#utility.yul\":17799:17803   */\n      0x20\n        /* \"#utility.yul\":17794:17797   */\n      dup11\n        /* \"#utility.yul\":17790:17804   */\n      add\n        /* \"#utility.yul\":17783:17804   */\n      swap10\n      pop\n        /* \"#utility.yul\":17478:17814   */\n      pop\n        /* \"#utility.yul\":17465:17466   */\n      0x01\n        /* \"#utility.yul\":17462:17463   */\n      dup2\n        /* \"#utility.yul\":17458:17467   */\n      add\n        /* \"#utility.yul\":17453:17467   */\n      swap1\n      pop\n        /* \"#utility.yul\":17418:17814   */\n      jump(tag_557)\n    tag_559:\n        /* \"#utility.yul\":17422:17436   */\n      pop\n        /* \"#utility.yul\":17830:17834   */\n      dup3\n        /* \"#utility.yul\":17823:17834   */\n      swap8\n      pop\n        /* \"#utility.yul\":17850:17853   */\n      dup8\n        /* \"#utility.yul\":17843:17853   */\n      swap6\n      pop\n        /* \"#utility.yul\":17012:17859   */\n      pop\n      pop\n      pop\n      pop\n      pop\n        /* \"#utility.yul\":16868:17859   */\n      swap3\n      swap2\n      pop\n      pop\n      jump\t// out\n        /* \"#utility.yul\":17865:18278   */\n    tag_102:\n        /* \"#utility.yul\":18028:18032   */\n      0x00\n        /* \"#utility.yul\":18066:18068   */\n      0x20\n        /* \"#utility.yul\":18055:18064   */\n      dup3\n        /* \"#utility.yul\":18051:18069   */\n      add\n        /* \"#utility.yul\":18043:18069   */\n      swap1\n      pop\n        /* \"#utility.yul\":18115:18124   */\n      dup2\n        /* \"#utility.yul\":18109:18113   */\n      dup2\n        /* \"#utility.yul\":18105:18125   */\n      sub\n        /* \"#utility.yul\":18101:18102   */\n      0x00\n        /* \"#utility.yul\":18090:18099   */\n      dup4\n        /* \"#utility.yul\":18086:18103   */\n      add\n        /* \"#utility.yul\":18079:18126   */\n      mstore\n        /* \"#utility.yul\":18143:18271   */\n      tag_563\n        /* \"#utility.yul\":18266:18270   */\n      dup2\n        /* \"#utility.yul\":18257:18263   */\n      dup5\n        /* \"#utility.yul\":18143:18271   */\n      tag_394\n      jump\t// in\n    tag_563:\n        /* \"#utility.yul\":18135:18271   */\n      swap1\n      pop\n        /* \"#utility.yul\":17865:18278   */\n      swap3\n      swap2\n      pop\n      pop\n      jump\t// out\n        /* \"#utility.yul\":18284:18432   */\n    tag_395:\n        /* \"#utility.yul\":18386:18397   */\n      0x00\n        /* \"#utility.yul\":18423:18426   */\n      dup2\n        /* \"#utility.yul\":18408:18426   */\n      swap1\n      pop\n        /* \"#utility.yul\":18284:18432   */\n      swap3\n      swap2\n      pop\n      pop\n      jump\t// out\n        /* \"#utility.yul\":18438:18815   */\n    tag_396:\n        /* \"#utility.yul\":18544:18547   */\n      0x00\n        /* \"#utility.yul\":18572:18611   */\n      tag_566\n        /* \"#utility.yul\":18605:18610   */\n      dup3\n        /* \"#utility.yul\":18572:18611   */\n      tag_374\n      jump\t// in\n    tag_566:\n        /* \"#utility.yul\":18627:18716   */\n      tag_567\n        /* \"#utility.yul\":18709:18715   */\n      dup2\n        /* \"#utility.yul\":18704:18707   */\n      dup6\n        /* \"#utility.yul\":18627:18716   */\n      tag_395\n      jump\t// in\n    tag_567:\n        /* \"#utility.yul\":18620:18716   */\n      swap4\n      pop\n        /* \"#utility.yul\":18725:18777   */\n      tag_568\n        /* \"#utility.yul\":18770:18776   */\n      dup2\n        /* \"#utility.yul\":18765:18768   */\n      dup6\n        /* \"#utility.yul\":18758:18762   */\n      0x20\n        /* \"#utility.yul\":18751:18756   */\n      dup7\n        /* \"#utility.yul\":18747:18763   */\n      add\n        /* \"#utility.yul\":18725:18777   */\n      tag_376\n      jump\t// in\n    tag_568:\n        /* \"#utility.yul\":18802:18808   */\n      dup1\n        /* \"#utility.yul\":18797:18800   */\n      dup5\n        /* \"#utility.yul\":18793:18809   */\n      add\n        /* \"#utility.yul\":18786:18809   */\n      swap2\n      pop\n        /* \"#utility.yul\":18548:18815   */\n      pop\n        /* \"#utility.yul\":18438:18815   */\n      swap3\n      swap2\n      pop\n      pop\n      jump\t// out\n        /* \"#utility.yul\":18821:19096   */\n    tag_113:\n        /* \"#utility.yul\":18953:18956   */\n      0x00\n        /* \"#utility.yul\":18975:19070   */\n      tag_570\n        /* \"#utility.yul\":19066:19069   */\n      dup3\n        /* \"#utility.yul\":19057:19063   */\n      dup5\n        /* \"#utility.yul\":18975:19070   */\n      tag_396\n      jump\t// in\n    tag_570:\n        /* \"#utility.yul\":18968:19070   */\n      swap2\n      pop\n        /* \"#utility.yul\":19087:19090   */\n      dup2\n        /* \"#utility.yul\":19080:19090   */\n      swap1\n      pop\n        /* \"#utility.yul\":18821:19096   */\n      swap3\n      swap2\n      pop\n      pop\n      jump\t// out\n        /* \"#utility.yul\":19102:19525   */\n    tag_120:\n        /* \"#utility.yul\":19243:19247   */\n      0x00\n        /* \"#utility.yul\":19281:19283   */\n      0x40\n        /* \"#utility.yul\":19270:19279   */\n      dup3\n        /* \"#utility.yul\":19266:19284   */\n      add\n        /* \"#utility.yul\":19258:19284   */\n      swap1\n      pop\n        /* \"#utility.yul\":19294:19365   */\n      tag_572\n        /* \"#utility.yul\":19362:19363   */\n      0x00\n        /* \"#utility.yul\":19351:19360   */\n      dup4\n        /* \"#utility.yul\":19347:19364   */\n      add\n        /* \"#utility.yul\":19338:19344   */\n      dup6\n        /* \"#utility.yul\":19294:19365   */\n      tag_378\n      jump\t// in\n    tag_572:\n        /* \"#utility.yul\":19412:19421   */\n      dup2\n        /* \"#utility.yul\":19406:19410   */\n      dup2\n        /* \"#utility.yul\":19402:19422   */\n      sub\n        /* \"#utility.yul\":19397:19399   */\n      0x20\n        /* \"#utility.yul\":19386:19395   */\n      dup4\n        /* \"#utility.yul\":19382:19400   */\n      add\n        /* \"#utility.yul\":19375:19423   */\n      mstore\n        /* \"#utility.yul\":19440:19518   */\n      tag_573\n        /* \"#utility.yul\":19513:19517   */\n      dup2\n        /* \"#utility.yul\":19504:19510   */\n      dup5\n        /* \"#utility.yul\":19440:19518   */\n      tag_377\n      jump\t// in\n    tag_573:\n        /* \"#utility.yul\":19432:19518   */\n      swap1\n      pop\n        /* \"#utility.yul\":19102:19525   */\n      swap4\n      swap3\n      pop\n      pop\n      pop\n      jump\t// out\n        /* \"#utility.yul\":19531:19711   */\n    tag_397:\n        /* \"#utility.yul\":19579:19656   */\n      0x4e487b7100000000000000000000000000000000000000000000000000000000\n        /* \"#utility.yul\":19576:19577   */\n      0x00\n        /* \"#utility.yul\":19569:19657   */\n      mstore\n        /* \"#utility.yul\":19676:19680   */\n      0x22\n        /* \"#utility.yul\":19673:19674   */\n      0x04\n        /* \"#utility.yul\":19666:19681   */\n      mstore\n        /* \"#utility.yul\":19700:19704   */\n      0x24\n        /* \"#utility.yul\":19697:19698   */\n      0x00\n        /* \"#utility.yul\":19690:19705   */\n      revert\n        /* \"#utility.yul\":19717:20037   */\n    tag_153:\n        /* \"#utility.yul\":19761:19767   */\n      0x00\n        /* \"#utility.yul\":19798:19799   */\n      0x02\n        /* \"#utility.yul\":19792:19796   */\n      dup3\n        /* \"#utility.yul\":19788:19800   */\n      div\n        /* \"#utility.yul\":19778:19800   */\n      swap1\n      pop\n        /* \"#utility.yul\":19845:19846   */\n      0x01\n        /* \"#utility.yul\":19839:19843   */\n      dup3\n        /* \"#utility.yul\":19835:19847   */\n      and\n        /* \"#utility.yul\":19866:19884   */\n      dup1\n        /* \"#utility.yul\":19856:19937   */\n      tag_576\n      jumpi\n        /* \"#utility.yul\":19922:19926   */\n      0x7f\n        /* \"#utility.yul\":19914:19920   */\n      dup3\n        /* \"#utility.yul\":19910:19927   */\n      and\n        /* \"#utility.yul\":19900:19927   */\n      swap2\n      pop\n        /* \"#utility.yul\":19856:19937   */\n    tag_576:\n        /* \"#utility.yul\":19984:19986   */\n      0x20\n        /* \"#utility.yul\":19976:19982   */\n      dup3\n        /* \"#utility.yul\":19973:19987   */\n      lt\n        /* \"#utility.yul\":19953:19971   */\n      dup2\n        /* \"#utility.yul\":19950:19988   */\n      sub\n        /* \"#utility.yul\":19947:20031   */\n      tag_577\n      jumpi\n        /* \"#utility.yul\":20003:20021   */\n      tag_578\n      tag_397\n      jump\t// in\n    tag_578:\n        /* \"#utility.yul\":19947:20031   */\n    tag_577:\n        /* \"#utility.yul\":19768:20037   */\n      pop\n        /* \"#utility.yul\":19717:20037   */\n      swap2\n      swap1\n      pop\n      jump\t// out\n        /* \"#utility.yul\":20043:20223   */\n    tag_306:\n        /* \"#utility.yul\":20091:20168   */\n      0x4e487b7100000000000000000000000000000000000000000000000000000000\n        /* \"#utility.yul\":20088:20089   */\n      0x00\n        /* \"#utility.yul\":20081:20169   */\n      mstore\n        /* \"#utility.yul\":20188:20192   */\n      0x32\n        /* \"#utility.yul\":20185:20186   */\n      0x04\n        /* \"#utility.yul\":20178:20193   */\n      mstore\n        /* \"#utility.yul\":20212:20216   */\n      0x24\n        /* \"#utility.yul\":20209:20210   */\n      0x00\n        /* \"#utility.yul\":20202:20217   */\n      revert\n        /* \"#utility.yul\":20229:20370   */\n    tag_398:\n        /* \"#utility.yul\":20278:20282   */\n      0x00\n        /* \"#utility.yul\":20301:20304   */\n      dup2\n        /* \"#utility.yul\":20293:20304   */\n      swap1\n      pop\n        /* \"#utility.yul\":20324:20327   */\n      dup2\n        /* \"#utility.yul\":20321:20322   */\n      0x00\n        /* \"#utility.yul\":20314:20328   */\n      mstore\n        /* \"#utility.yul\":20358:20362   */\n      0x20\n        /* \"#utility.yul\":20355:20356   */\n      0x00\n        /* \"#utility.yul\":20345:20363   */\n      keccak256\n        /* \"#utility.yul\":20337:20363   */\n      swap1\n      pop\n        /* \"#utility.yul\":20229:20370   */\n      swap2\n      swap1\n      pop\n      jump\t// out\n        /* \"#utility.yul\":20400:21245   */\n    tag_399:\n        /* \"#utility.yul\":20503:20506   */\n      0x00\n        /* \"#utility.yul\":20540:20545   */\n      dup2\n        /* \"#utility.yul\":20534:20546   */\n      sload\n        /* \"#utility.yul\":20569:20605   */\n      tag_582\n        /* \"#utility.yul\":20595:20604   */\n      dup2\n        /* \"#utility.yul\":20569:20605   */\n      tag_153\n      jump\t// in\n    tag_582:\n        /* \"#utility.yul\":20621:20710   */\n      tag_583\n        /* \"#utility.yul\":20703:20709   */\n      dup2\n        /* \"#utility.yul\":20698:20701   */\n      dup7\n        /* \"#utility.yul\":20621:20710   */\n      tag_395\n      jump\t// in\n    tag_583:\n        /* \"#utility.yul\":20614:20710   */\n      swap5\n      pop\n        /* \"#utility.yul\":20741:20742   */\n      0x01\n        /* \"#utility.yul\":20730:20739   */\n      dup3\n        /* \"#utility.yul\":20726:20743   */\n      and\n        /* \"#utility.yul\":20757:20758   */\n      0x00\n        /* \"#utility.yul\":20752:20889   */\n      dup2\n      eq\n      tag_585\n      jumpi\n        /* \"#utility.yul\":20903:20904   */\n      0x01\n        /* \"#utility.yul\":20898:21239   */\n      dup2\n      eq\n      tag_586\n      jumpi\n        /* \"#utility.yul\":20719:21239   */\n      jump(tag_584)\n        /* \"#utility.yul\":20752:20889   */\n    tag_585:\n        /* \"#utility.yul\":20836:20840   */\n      0xff\n        /* \"#utility.yul\":20832:20841   */\n      not\n        /* \"#utility.yul\":20821:20830   */\n      dup4\n        /* \"#utility.yul\":20817:20842   */\n      and\n        /* \"#utility.yul\":20812:20815   */\n      dup7\n        /* \"#utility.yul\":20805:20843   */\n      mstore\n        /* \"#utility.yul\":20872:20878   */\n      dup2\n        /* \"#utility.yul\":20867:20870   */\n      dup7\n        /* \"#utility.yul\":20863:20879   */\n      add\n        /* \"#utility.yul\":20856:20879   */\n      swap4\n      pop\n        /* \"#utility.yul\":20752:20889   */\n      jump(tag_584)\n        /* \"#utility.yul\":20898:21239   */\n    tag_586:\n        /* \"#utility.yul\":20965:21003   */\n      tag_587\n        /* \"#utility.yul\":20997:21002   */\n      dup6\n        /* \"#utility.yul\":20965:21003   */\n      tag_398\n      jump\t// in\n    tag_587:\n        /* \"#utility.yul\":21025:21026   */\n      0x00\n        /* \"#utility.yul\":21039:21193   */\n    tag_588:\n        /* \"#utility.yul\":21053:21059   */\n      dup4\n        /* \"#utility.yul\":21050:21051   */\n      dup2\n        /* \"#utility.yul\":21047:21060   */\n      lt\n        /* \"#utility.yul\":21039:21193   */\n      iszero\n      tag_590\n      jumpi\n        /* \"#utility.yul\":21127:21134   */\n      dup2\n        /* \"#utility.yul\":21121:21135   */\n      sload\n        /* \"#utility.yul\":21117:21118   */\n      dup2\n        /* \"#utility.yul\":21112:21115   */\n      dup10\n        /* \"#utility.yul\":21108:21119   */\n      add\n        /* \"#utility.yul\":21101:21136   */\n      mstore\n        /* \"#utility.yul\":21177:21178   */\n      0x01\n        /* \"#utility.yul\":21168:21175   */\n      dup3\n        /* \"#utility.yul\":21164:21179   */\n      add\n        /* \"#utility.yul\":21153:21179   */\n      swap2\n      pop\n        /* \"#utility.yul\":21075:21079   */\n      0x20\n        /* \"#utility.yul\":21072:21073   */\n      dup2\n        /* \"#utility.yul\":21068:21080   */\n      add\n        /* \"#utility.yul\":21063:21080   */\n      swap1\n      pop\n        /* \"#utility.yul\":21039:21193   */\n      jump(tag_588)\n    tag_590:\n        /* \"#utility.yul\":21222:21228   */\n      dup4\n        /* \"#utility.yul\":21217:21220   */\n      dup9\n        /* \"#utility.yul\":21213:21229   */\n      add\n        /* \"#utility.yul\":21206:21229   */\n      swap6\n      pop\n        /* \"#utility.yul\":20905:21239   */\n      pop\n      pop\n        /* \"#utility.yul\":20719:21239   */\n    tag_584:\n      pop\n        /* \"#utility.yul\":20507:21245   */\n      pop\n      pop\n        /* \"#utility.yul\":20400:21245   */\n      swap3\n      swap2\n      pop\n      pop\n      jump\t// out\n        /* \"#utility.yul\":21251:21520   */\n    tag_314:\n        /* \"#utility.yul\":21380:21383   */\n      0x00\n        /* \"#utility.yul\":21402:21494   */\n      tag_592\n        /* \"#utility.yul\":21490:21493   */\n      dup3\n        /* \"#utility.yul\":21481:21487   */\n      dup5\n        /* \"#utility.yul\":21402:21494   */\n      tag_399\n      jump\t// in\n    tag_592:\n        /* \"#utility.yul\":21395:21494   */\n      swap2\n      pop\n        /* \"#utility.yul\":21511:21514   */\n      dup2\n        /* \"#utility.yul\":21504:21514   */\n      swap1\n      pop\n        /* \"#utility.yul\":21251:21520   */\n      swap3\n      swap2\n      pop\n      pop\n      jump\t// out\n        /* \"#utility.yul\":21526:21706   */\n    tag_400:\n        /* \"#utility.yul\":21574:21651   */\n      0x4e487b7100000000000000000000000000000000000000000000000000000000\n        /* \"#utility.yul\":21571:21572   */\n      0x00\n        /* \"#utility.yul\":21564:21652   */\n      mstore\n        /* \"#utility.yul\":21671:21675   */\n      0x11\n        /* \"#utility.yul\":21668:21669   */\n      0x04\n        /* \"#utility.yul\":21661:21676   */\n      mstore\n        /* \"#utility.yul\":21695:21699   */\n      0x24\n        /* \"#utility.yul\":21692:21693   */\n      0x00\n        /* \"#utility.yul\":21685:21700   */\n      revert\n        /* \"#utility.yul\":21712:21945   */\n    tag_321:\n        /* \"#utility.yul\":21751:21754   */\n      0x00\n        /* \"#utility.yul\":21774:21798   */\n      tag_595\n        /* \"#utility.yul\":21792:21797   */\n      dup3\n        /* \"#utility.yul\":21774:21798   */\n      tag_371\n      jump\t// in\n    tag_595:\n        /* \"#utility.yul\":21765:21798   */\n      swap2\n      pop\n        /* \"#utility.yul\":21820:21886   */\n      0xffffffffffffffffffffffffffffffffffffffffffffffffffffffffffffffff\n        /* \"#utility.yul\":21813:21818   */\n      dup3\n        /* \"#utility.yul\":21810:21887   */\n      sub\n        /* \"#utility.yul\":21807:21910   */\n      tag_596\n      jumpi\n        /* \"#utility.yul\":21890:21908   */\n      tag_597\n      tag_400\n      jump\t// in\n    tag_597:\n        /* \"#utility.yul\":21807:21910   */\n    tag_596:\n        /* \"#utility.yul\":21937:21938   */\n      0x01\n        /* \"#utility.yul\":21930:21935   */\n      dup3\n        /* \"#utility.yul\":21926:21939   */\n      add\n        /* \"#utility.yul\":21919:21939   */\n      swap1\n      pop\n        /* \"#utility.yul\":21712:21945   */\n      swap2\n      swap1\n      pop\n      jump\t// out\n\n    auxdata: 0xa264697066735822122099827e46bcbeec2e7c38a7c96eefb89855c4249675404f67b6e652bf719f164b64736f6c634300080d0033\n}\n","bytecode":{"linkReferences":{},"object":"608060405234801561001057600080fd5b5033600160006101000a81548173ffffffffffffffffffffffffffffffffffffffff021916908373ffffffffffffffffffffffffffffffffffffffff160217905550612dd7806100616000396000f3fe608060405234801561001057600080fd5b50600436106101425760003560e01c8063782fea80116100b85780639114520d1161007c5780639114520d1461034e578063a0874b901461037e578063b3a6ad091461039c578063dca51ef7146103ba578063de8dc653146103ea578063e2c1ca201461041a57610142565b8063782fea80146102be5780637d72aa65146102da57806382c25e72146102f657806389fdc973146103145780638da5cb5b1461033057610142565b80632470cfe01161010a5780632470cfe0146101e75780632e4e88d01461021e57806330d8aae71461023a57806347ab42cd1461026a578063564f63c414610286578063592c4ac4146102a257610142565b80630988ca8c146101475780630e07d45b1461016357806319a80f5d1461017f578063217fe6c61461019b5780632234ab57146101cb575b600080fd5b610161600480360381019061015c9190612498565b610438565b005b61017d600480360381019061017891906124f4565b61046c565b005b61019960048036038101906101949190612521565b610576565b005b6101b560048036038101906101b09190612498565b610748565b6040516101c29190612671565b60405180910390f35b6101e560048036038101906101e09190612498565b610782565b005b61020160048036038101906101fc91906126c2565b610a71565b604051610215989796959493929190612786565b60405180910390f35b610238600480360381019061023391906124f4565b610ea1565b005b610254600480360381019061024f91906124f4565b610fab565b6040516102619190612671565b60405180910390f35b610284600480360381019061027f91906124f4565b610ff3565b005b6102a0600480360381019061029b91906124f4565b6110fd565b005b6102bc60048036038101906102b791906124f4565b611207565b005b6102d860048036038101906102d39190612498565b611311565b005b6102f460048036038101906102ef9190612498565b611394565b005b6102fe611401565b60405161030b9190612835565b60405180910390f35b61032e600480360381019061032991906124f4565b61143a565b005b610338611544565b6040516103459190612857565b60405180910390f35b610368600480360381019061036391906124f4565b61156a565b6040516103759190612671565b60405180910390f35b6103866115b2565b6040516103939190612a67565b60405180910390f35b6103a4611a66565b6040516103b19190612835565b60405180910390f35b6103d460048036038101906103cf91906124f4565b611a9f565b6040516103e19190612b4b565b60405180910390f35b61040460048036038101906103ff91906124f4565b611e01565b6040516104119190612671565b60405180910390f35b610422611e49565b60405161042f9190612835565b60405180910390f35b6104688260008360405161044c9190612ba9565b9081526020016040518091039020611e8290919063ffffffff16565b5050565b600160009054906101000a900473ffffffffffffffffffffffffffffffffffffffff1673ffffffffffffffffffffffffffffffffffffffff163373ffffffffffffffffffffffffffffffffffffffff16146104c657600080fd5b610505816040518060400160405280600b81526020017f66756e645f726169736572000000000000000000000000000000000000000000815250611394565b7f7d02e6403c89cb5aa8f22321b96fd9357cf8895e4a77c10e16c55aa5fc589d20816040518060400160405280600b81526020017f66756e645f72616973657200000000000000000000000000000000000000000081525060405161056b929190612bc0565b60405180910390a150565b60006040518061010001604052808881526020018781526020018681526020018581526020013373ffffffffffffffffffffffffffffffffffffffff1681526020018481526020018381526020016040518060400160405280600781526020017f50656e64696e6700000000000000000000000000000000000000000000000000815250815250905060028190806001815401808255809150506001900390600052602060002090600802016000909190919091506000820151816000019080519060200190610647929190612179565b506020820151816001019080519060200190610664929190612179565b506040820151816002019080519060200190610681929190612179565b50606082015181600301908051906020019061069e929190612179565b5060808201518160040160006101000a81548173ffffffffffffffffffffffffffffffffffffffff021916908373ffffffffffffffffffffffffffffffffffffffff16021790555060a0820151816005019080519060200190610702929190612179565b5060c082015181600601908051906020019061071f929190612179565b5060e082015181600701908051906020019061073c929190612179565b50505050505050505050565b600061077a8360008460405161075e9190612ba9565b9081526020016040518091039020611e9990919063ffffffff16565b905092915050565b6107c1336040518060400160405280600d81526020017f66756e645f617070726f76657200000000000000000000000000000000000000815250610438565b6040518060400160405280600b81526020017f66756e645f7261697365720000000000000000000000000000000000000000008152506040516020016108079190612ba9565b604051602081830303815290604052805190602001208160405160200161082e9190612ba9565b60405160208183030381529060405280519060200120036108f757610888826040518060400160405280600b81526020017f66756e645f726169736572000000000000000000000000000000000000000000815250611394565b7f7d02e6403c89cb5aa8f22321b96fd9357cf8895e4a77c10e16c55aa5fc589d20826040518060400160405280600b81526020017f66756e645f7261697365720000000000000000000000000000000000000000008152506040516108ee929190612bc0565b60405180910390a15b6040518060400160405280601081526020017f66756e645f636f6e7472696275746f720000000000000000000000000000000081525060405160200161093d9190612ba9565b60405160208183030381529060405280519060200120816040516020016109649190612ba9565b6040516020818303038152906040528051906020012003610a2d576109be826040518060400160405280601081526020017f66756e645f636f6e7472696275746f7200000000000000000000000000000000815250611394565b7f7d02e6403c89cb5aa8f22321b96fd9357cf8895e4a77c10e16c55aa5fc589d20826040518060400160405280601081526020017f66756e645f636f6e7472696275746f7200000000000000000000000000000000815250604051610a24929190612bc0565b60405180910390a15b610a6d82826040518060400160405280600881526020017f417070726f766564000000000000000000000000000000000000000000000000815250611ef2565b5050565b60028181548110610a8157600080fd5b9060005260206000209060080201600091509050806000018054610aa490612c1f565b80601f0160208091040260200160405190810160405280929190818152602001828054610ad090612c1f565b8015610b1d5780601f10610af257610100808354040283529160200191610b1d565b820191906000526020600020905b815481529060010190602001808311610b0057829003601f168201915b505050505090806001018054610b3290612c1f565b80601f0160208091040260200160405190810160405280929190818152602001828054610b5e90612c1f565b8015610bab5780601f10610b8057610100808354040283529160200191610bab565b820191906000526020600020905b815481529060010190602001808311610b8e57829003601f168201915b505050505090806002018054610bc090612c1f565b80601f0160208091040260200160405190810160405280929190818152602001828054610bec90612c1f565b8015610c395780601f10610c0e57610100808354040283529160200191610c39565b820191906000526020600020905b815481529060010190602001808311610c1c57829003601f168201915b505050505090806003018054610c4e90612c1f565b80601f0160208091040260200160405190810160405280929190818152602001828054610c7a90612c1f565b8015610cc75780601f10610c9c57610100808354040283529160200191610cc7565b820191906000526020600020905b815481529060010190602001808311610caa57829003601f168201915b5050505050908060040160009054906101000a900473ffffffffffffffffffffffffffffffffffffffff1690806005018054610d0290612c1f565b80601f0160208091040260200160405190810160405280929190818152602001828054610d2e90612c1f565b8015610d7b5780601f10610d5057610100808354040283529160200191610d7b565b820191906000526020600020905b815481529060010190602001808311610d5e57829003601f168201915b505050505090806006018054610d9090612c1f565b80601f0160208091040260200160405190810160405280929190818152602001828054610dbc90612c1f565b8015610e095780601f10610dde57610100808354040283529160200191610e09565b820191906000526020600020905b815481529060010190602001808311610dec57829003601f168201915b505050505090806007018054610e1e90612c1f565b80601f0160208091040260200160405190810160405280929190818152602001828054610e4a90612c1f565b8015610e975780601f10610e6c57610100808354040283529160200191610e97565b820191906000526020600020905b815481529060010190602001808311610e7a57829003601f168201915b5050505050905088565b600160009054906101000a900473ffffffffffffffffffffffffffffffffffffffff1673ffffffffffffffffffffffffffffffffffffffff163373ffffffffffffffffffffffffffffffffffffffff1614610efb57600080fd5b610f3a816040518060400160405280601081526020017f66756e645f636f6e7472696275746f7200000000000000000000000000000000815250612050565b7f420b6d6124d847399574626cc16ce1504c11d6923c10c76900fe29c2933e310f816040518060400160405280601081526020017f66756e645f636f6e7472696275746f7200000000000000000000000000000000815250604051610fa0929190612bc0565b60405180910390a150565b6000610fec826040518060400160405280600d81526020017f66756e645f617070726f76657200000000000000000000000000000000000000815250610748565b9050919050565b600160009054906101000a900473ffffffffffffffffffffffffffffffffffffffff1673ffffffffffffffffffffffffffffffffffffffff163373ffffffffffffffffffffffffffffffffffffffff161461104d57600080fd5b61108c816040518060400160405280601081526020017f66756e645f636f6e7472696275746f7200000000000000000000000000000000815250611394565b7f7d02e6403c89cb5aa8f22321b96fd9357cf8895e4a77c10e16c55aa5fc589d20816040518060400160405280601081526020017f66756e645f636f6e7472696275746f72000000000000000000000000000000008152506040516110f2929190612bc0565b60405180910390a150565b600160009054906101000a900473ffffffffffffffffffffffffffffffffffffffff1673ffffffffffffffffffffffffffffffffffffffff163373ffffffffffffffffffffffffffffffffffffffff161461115757600080fd5b611196816040518060400160405280600d81526020017f66756e645f617070726f76657200000000000000000000000000000000000000815250611394565b7f7d02e6403c89cb5aa8f22321b96fd9357cf8895e4a77c10e16c55aa5fc589d20816040518060400160405280600d81526020017f66756e645f617070726f766572000000000000000000000000000000000000008152506040516111fc929190612bc0565b60405180910390a150565b600160009054906101000a900473ffffffffffffffffffffffffffffffffffffffff1673ffffffffffffffffffffffffffffffffffffffff163373ffffffffffffffffffffffffffffffffffffffff161461126157600080fd5b6112a0816040518060400160405280600b81526020017f66756e645f726169736572000000000000000000000000000000000000000000815250612050565b7f420b6d6124d847399574626cc16ce1504c11d6923c10c76900fe29c2933e310f816040518060400160405280600b81526020017f66756e645f726169736572000000000000000000000000000000000000000000815250604051611306929190612bc0565b60405180910390a150565b611350336040518060400160405280600d81526020017f66756e645f617070726f76657200000000000000000000000000000000000000815250610438565b61139082826040518060400160405280600881526020017f52656a6563746564000000000000000000000000000000000000000000000000815250611ef2565b5050565b6113c4826000836040516113a89190612ba9565b90815260200160405180910390206120bd90919063ffffffff16565b7fbfec83d64eaa953f2708271a023ab9ee82057f8f3578d548c1a4ba0b5b70048982826040516113f5929190612bc0565b60405180910390a15050565b6040518060400160405280600b81526020017f66756e645f72616973657200000000000000000000000000000000000000000081525081565b600160009054906101000a900473ffffffffffffffffffffffffffffffffffffffff1673ffffffffffffffffffffffffffffffffffffffff163373ffffffffffffffffffffffffffffffffffffffff161461149457600080fd5b6114d3816040518060400160405280600d81526020017f66756e645f617070726f76657200000000000000000000000000000000000000815250612050565b7f420b6d6124d847399574626cc16ce1504c11d6923c10c76900fe29c2933e310f816040518060400160405280600d81526020017f66756e645f617070726f76657200000000000000000000000000000000000000815250604051611539929190612bc0565b60405180910390a150565b600160009054906101000a900473ffffffffffffffffffffffffffffffffffffffff1681565b60006115ab826040518060400160405280601081526020017f66756e645f636f6e7472696275746f7200000000000000000000000000000000815250610748565b9050919050565b60606002805480602002602001604051908101604052809291908181526020016000905b82821015611a5d57838290600052602060002090600802016040518061010001604052908160008201805461160a90612c1f565b80601f016020809104026020016040519081016040528092919081815260200182805461163690612c1f565b80156116835780601f1061165857610100808354040283529160200191611683565b820191906000526020600020905b81548152906001019060200180831161166657829003601f168201915b5050505050815260200160018201805461169c90612c1f565b80601f01602080910402602001604051908101604052809291908181526020018280546116c890612c1f565b80156117155780601f106116ea57610100808354040283529160200191611715565b820191906000526020600020905b8154815290600101906020018083116116f857829003601f168201915b5050505050815260200160028201805461172e90612c1f565b80601f016020809104026020016040519081016040528092919081815260200182805461175a90612c1f565b80156117a75780601f1061177c576101008083540402835291602001916117a7565b820191906000526020600020905b81548152906001019060200180831161178a57829003601f168201915b505050505081526020016003820180546117c090612c1f565b80601f01602080910402602001604051908101604052809291908181526020018280546117ec90612c1f565b80156118395780601f1061180e57610100808354040283529160200191611839565b820191906000526020600020905b81548152906001019060200180831161181c57829003601f168201915b505050505081526020016004820160009054906101000a900473ffffffffffffffffffffffffffffffffffffffff1673ffffffffffffffffffffffffffffffffffffffff1673ffffffffffffffffffffffffffffffffffffffff1681526020016005820180546118a890612c1f565b80601f01602080910402602001604051908101604052809291908181526020018280546118d490612c1f565b80156119215780601f106118f657610100808354040283529160200191611921565b820191906000526020600020905b81548152906001019060200180831161190457829003601f168201915b5050505050815260200160068201805461193a90612c1f565b80601f016020809104026020016040519081016040528092919081815260200182805461196690612c1f565b80156119b35780601f10611988576101008083540402835291602001916119b3565b820191906000526020600020905b81548152906001019060200180831161199657829003601f168201915b505050505081526020016007820180546119cc90612c1f565b80601f01602080910402602001604051908101604052809291908181526020018280546119f890612c1f565b8015611a455780601f10611a1a57610100808354040283529160200191611a45565b820191906000526020600020905b815481529060010190602001808311611a2857829003601f168201915b505050505081525050815260200190600101906115d6565b50505050905090565b6040518060400160405280601081526020017f66756e645f636f6e7472696275746f720000000000000000000000000000000081525081565b6060600067ffffffffffffffff811115611abc57611abb61236d565b5b604051908082528060200260200182016040528015611aef57816020015b6060815260200190600190039081611ada5790505b5060039080519060200190611b059291906121ff565b50611b45826040518060400160405280601081526020017f66756e645f636f6e7472696275746f7200000000000000000000000000000000815250610748565b15611bbc5760036040518060400160405280601081526020017f66756e645f636f6e7472696275746f7200000000000000000000000000000000815250908060018154018082558091505060019003906000526020600020016000909190919091509080519060200190611bba929190612179565b505b611bfb826040518060400160405280600b81526020017f66756e645f726169736572000000000000000000000000000000000000000000815250610748565b15611c725760036040518060400160405280600b81526020017f66756e645f726169736572000000000000000000000000000000000000000000815250908060018154018082558091505060019003906000526020600020016000909190919091509080519060200190611c70929190612179565b505b611cb1826040518060400160405280600d81526020017f66756e645f617070726f76657200000000000000000000000000000000000000815250610748565b15611d285760036040518060400160405280600d81526020017f66756e645f617070726f76657200000000000000000000000000000000000000815250908060018154018082558091505060019003906000526020600020016000909190919091509080519060200190611d26929190612179565b505b6003805480602002602001604051908101604052809291908181526020016000905b82821015611df6578382906000526020600020018054611d6990612c1f565b80601f0160208091040260200160405190810160405280929190818152602001828054611d9590612c1f565b8015611de25780601f10611db757610100808354040283529160200191611de2565b820191906000526020600020905b815481529060010190602001808311611dc557829003601f168201915b505050505081526020019060010190611d4a565b505050509050919050565b6000611e42826040518060400160405280600b81526020017f66756e645f726169736572000000000000000000000000000000000000000000815250610748565b9050919050565b6040518060400160405280600d81526020017f66756e645f617070726f7665720000000000000000000000000000000000000081525081565b611e8c8282611e99565b611e9557600080fd5b5050565b60008260000160008373ffffffffffffffffffffffffffffffffffffffff1673ffffffffffffffffffffffffffffffffffffffff16815260200190815260200160002060009054906101000a900460ff16905092915050565b6000600280549050905060005b81811015612049578473ffffffffffffffffffffffffffffffffffffffff1660028281548110611f3257611f31612c50565b5b906000526020600020906008020160040160009054906101000a900473ffffffffffffffffffffffffffffffffffffffff1673ffffffffffffffffffffffffffffffffffffffff16148015611ff6575083604051602001611f939190612ba9565b6040516020818303038152906040528051906020012060028281548110611fbd57611fbc612c50565b5b9060005260206000209060080201600601604051602001611fde9190612d13565b60405160208183030381529060405280519060200120145b156120365782600282815481106120105761200f612c50565b5b90600052602060002090600802016007019080519060200190612034929190612179565b505b808061204190612d59565b915050611eff565b5050505050565b612080826000836040516120649190612ba9565b908152602001604051809103902061211b90919063ffffffff16565b7fd211483f91fc6eff862467f8de606587a30c8fc9981056f051b897a418df803a82826040516120b1929190612bc0565b60405180910390a15050565b60018260000160008373ffffffffffffffffffffffffffffffffffffffff1673ffffffffffffffffffffffffffffffffffffffff16815260200190815260200160002060006101000a81548160ff0219169083151502179055505050565b60008260000160008373ffffffffffffffffffffffffffffffffffffffff1673ffffffffffffffffffffffffffffffffffffffff16815260200190815260200160002060006101000a81548160ff0219169083151502179055505050565b82805461218590612c1f565b90600052602060002090601f0160209004810192826121a757600085556121ee565b82601f106121c057805160ff19168380011785556121ee565b828001600101855582156121ee579182015b828111156121ed5782518255916020019190600101906121d2565b5b5090506121fb919061225f565b5090565b82805482825590600052602060002090810192821561224e579160200282015b8281111561224d57825182908051906020019061223d929190612179565b509160200191906001019061221f565b5b50905061225b919061227c565b5090565b5b80821115612278576000816000905550600101612260565b5090565b5b8082111561229c576000818161229391906122a0565b5060010161227d565b5090565b5080546122ac90612c1f565b6000825580601f106122be57506122dd565b601f0160209004906000526020600020908101906122dc919061225f565b5b50565b6000604051905090565b600080fd5b600080fd5b600073ffffffffffffffffffffffffffffffffffffffff82169050919050565b600061231f826122f4565b9050919050565b61232f81612314565b811461233a57600080fd5b50565b60008135905061234c81612326565b92915050565b600080fd5b600080fd5b6000601f19601f8301169050919050565b7f4e487b7100000000000000000000000000000000000000000000000000000000600052604160045260246000fd5b6123a58261235c565b810181811067ffffffffffffffff821117156123c4576123c361236d565b5b80604052505050565b60006123d76122e0565b90506123e3828261239c565b919050565b600067ffffffffffffffff8211156124035761240261236d565b5b61240c8261235c565b9050602081019050919050565b82818337600083830152505050565b600061243b612436846123e8565b6123cd565b90508281526020810184848401111561245757612456612357565b5b612462848285612419565b509392505050565b600082601f83011261247f5761247e612352565b5b813561248f848260208601612428565b91505092915050565b600080604083850312156124af576124ae6122ea565b5b60006124bd8582860161233d565b925050602083013567ffffffffffffffff8111156124de576124dd6122ef565b5b6124ea8582860161246a565b9150509250929050565b60006020828403121561250a576125096122ea565b5b60006125188482850161233d565b91505092915050565b60008060008060008060c0878903121561253e5761253d6122ea565b5b600087013567ffffffffffffffff81111561255c5761255b6122ef565b5b61256889828a0161246a565b965050602087013567ffffffffffffffff811115612589576125886122ef565b5b61259589828a0161246a565b955050604087013567ffffffffffffffff8111156125b6576125b56122ef565b5b6125c289828a0161246a565b945050606087013567ffffffffffffffff8111156125e3576125e26122ef565b5b6125ef89828a0161246a565b935050608087013567ffffffffffffffff8111156126105761260f6122ef565b5b61261c89828a0161246a565b92505060a087013567ffffffffffffffff81111561263d5761263c6122ef565b5b61264989828a0161246a565b9150509295509295509295565b60008115159050919050565b61266b81612656565b82525050565b60006020820190506126866000830184612662565b92915050565b6000819050919050565b61269f8161268c565b81146126aa57600080fd5b50565b6000813590506126bc81612696565b92915050565b6000602082840312156126d8576126d76122ea565b5b60006126e6848285016126ad565b91505092915050565b600081519050919050565b600082825260208201905092915050565b60005b8381101561272957808201518184015260208101905061270e565b83811115612738576000848401525b50505050565b6000612749826126ef565b61275381856126fa565b935061276381856020860161270b565b61276c8161235c565b840191505092915050565b61278081612314565b82525050565b60006101008201905081810360008301526127a1818b61273e565b905081810360208301526127b5818a61273e565b905081810360408301526127c9818961273e565b905081810360608301526127dd818861273e565b90506127ec6080830187612777565b81810360a08301526127fe818661273e565b905081810360c0830152612812818561273e565b905081810360e0830152612826818461273e565b90509998505050505050505050565b6000602082019050818103600083015261284f818461273e565b905092915050565b600060208201905061286c6000830184612777565b92915050565b600081519050919050565b600082825260208201905092915050565b6000819050602082019050919050565b600082825260208201905092915050565b60006128ba826126ef565b6128c4818561289e565b93506128d481856020860161270b565b6128dd8161235c565b840191505092915050565b6128f181612314565b82525050565b600061010083016000830151848203600086015261291582826128af565b9150506020830151848203602086015261292f82826128af565b9150506040830151848203604086015261294982826128af565b9150506060830151848203606086015261296382826128af565b915050608083015161297860808601826128e8565b5060a083015184820360a086015261299082826128af565b91505060c083015184820360c08601526129aa82826128af565b91505060e083015184820360e08601526129c482826128af565b9150508091505092915050565b60006129dd83836128f7565b905092915050565b6000602082019050919050565b60006129fd82612872565b612a07818561287d565b935083602082028501612a198561288e565b8060005b85811015612a555784840389528151612a3685826129d1565b9450612a41836129e5565b925060208a01995050600181019050612a1d565b50829750879550505050505092915050565b60006020820190508181036000830152612a8181846129f2565b905092915050565b600081519050919050565b600082825260208201905092915050565b6000819050602082019050919050565b6000612ac183836128af565b905092915050565b6000602082019050919050565b6000612ae182612a89565b612aeb8185612a94565b935083602082028501612afd85612aa5565b8060005b85811015612b395784840389528151612b1a8582612ab5565b9450612b2583612ac9565b925060208a01995050600181019050612b01565b50829750879550505050505092915050565b60006020820190508181036000830152612b658184612ad6565b905092915050565b600081905092915050565b6000612b83826126ef565b612b8d8185612b6d565b9350612b9d81856020860161270b565b80840191505092915050565b6000612bb58284612b78565b915081905092915050565b6000604082019050612bd56000830185612777565b8181036020830152612be7818461273e565b90509392505050565b7f4e487b7100000000000000000000000000000000000000000000000000000000600052602260045260246000fd5b60006002820490506001821680612c3757607f821691505b602082108103612c4a57612c49612bf0565b5b50919050565b7f4e487b7100000000000000000000000000000000000000000000000000000000600052603260045260246000fd5b60008190508160005260206000209050919050565b60008154612ca181612c1f565b612cab8186612b6d565b94506001821660008114612cc65760018114612cd757612d0a565b60ff19831686528186019350612d0a565b612ce085612c7f565b60005b83811015612d0257815481890152600182019150602081019050612ce3565b838801955050505b50505092915050565b6000612d1f8284612c94565b915081905092915050565b7f4e487b7100000000000000000000000000000000000000000000000000000000600052601160045260246000fd5b6000612d648261268c565b91507fffffffffffffffffffffffffffffffffffffffffffffffffffffffffffffffff8203612d9657612d95612d2a565b5b60018201905091905056fea264697066735822122099827e46bcbeec2e7c38a7c96eefb89855c4249675404f67b6e652bf719f164b64736f6c634300080d0033","opcodes":"PUSH1 0x80 PUSH1 0x40 MSTORE CALLVALUE DUP1 ISZERO PUSH2 0x10 JUMPI PUSH1 0x0 DUP1 REVERT JUMPDEST POP CALLER PUSH1 0x1 PUSH1 0x0 PUSH2 0x100 EXP DUP2 SLOAD DUP2 PUSH20 0xFFFFFFFFFFFFFFFFFFFFFFFFFFFFFFFFFFFFFFFF MUL NOT AND SWAP1 DUP4 PUSH20 0xFFFFFFFFFFFFFFFFFFFFFFFFFFFFFFFFFFFFFFFF AND MUL OR SWAP1 SSTORE POP PUSH2 0x2DD7 DUP1 PUSH2 0x61 PUSH1 0x0 CODECOPY PUSH1 0x0 RETURN INVALID PUSH1 0x80 PUSH1 0x40 MSTORE CALLVALUE DUP1 ISZERO PUSH2 0x10 JUMPI PUSH1 0x0 DUP1 REVERT JUMPDEST POP PUSH1 0x4 CALLDATASIZE LT PUSH2 0x142 JUMPI PUSH1 0x0 CALLDATALOAD PUSH1 0xE0 SHR DUP1 PUSH4 0x782FEA80 GT PUSH2 0xB8 JUMPI DUP1 PUSH4 0x9114520D GT PUSH2 0x7C JUMPI DUP1 PUSH4 0x9114520D EQ PUSH2 0x34E JUMPI DUP1 PUSH4 0xA0874B90 EQ PUSH2 0x37E JUMPI DUP1 PUSH4 0xB3A6AD09 EQ PUSH2 0x39C JUMPI DUP1 PUSH4 0xDCA51EF7 EQ PUSH2 0x3BA JUMPI DUP1 PUSH4 0xDE8DC653 EQ PUSH2 0x3EA JUMPI DUP1 PUSH4 0xE2C1CA20 EQ PUSH2 0x41A JUMPI PUSH2 0x142 JUMP JUMPDEST DUP1 PUSH4 0x782FEA80 EQ PUSH2 0x2BE JUMPI DUP1 PUSH4 0x7D72AA65 EQ PUSH2 0x2DA JUMPI DUP1 PUSH4 0x82C25E72 EQ PUSH2 0x2F6 JUMPI DUP1 PUSH4 0x89FDC973 EQ PUSH2 0x314 JUMPI DUP1 PUSH4 0x8DA5CB5B EQ PUSH2 0x330 JUMPI PUSH2 0x142 JUMP JUMPDEST DUP1 PUSH4 0x2470CFE0 GT PUSH2 0x10A JUMPI DUP1 PUSH4 0x2470CFE0 EQ PUSH2 0x1E7 JUMPI DUP1 PUSH4 0x2E4E88D0 EQ PUSH2 0x21E JUMPI DUP1 PUSH4 0x30D8AAE7 EQ PUSH2 0x23A JUMPI DUP1 PUSH4 0x47AB42CD EQ PUSH2 0x26A JUMPI DUP1 PUSH4 0x564F63C4 EQ PUSH2 0x286 JUMPI DUP1 PUSH4 0x592C4AC4 EQ PUSH2 0x2A2 JUMPI PUSH2 0x142 JUMP JUMPDEST DUP1 PUSH4 0x988CA8C EQ PUSH2 0x147 JUMPI DUP1 PUSH4 0xE07D45B EQ PUSH2 0x163 JUMPI DUP1 PUSH4 0x19A80F5D EQ PUSH2 0x17F JUMPI DUP1 PUSH4 0x217FE6C6 EQ PUSH2 0x19B JUMPI DUP1 PUSH4 0x2234AB57 EQ PUSH2 0x1CB JUMPI JUMPDEST PUSH1 0x0 DUP1 REVERT JUMPDEST PUSH2 0x161 PUSH1 0x4 DUP1 CALLDATASIZE SUB DUP2 ADD SWAP1 PUSH2 0x15C SWAP2 SWAP1 PUSH2 0x2498 JUMP JUMPDEST PUSH2 0x438 JUMP JUMPDEST STOP JUMPDEST PUSH2 0x17D PUSH1 0x4 DUP1 CALLDATASIZE SUB DUP2 ADD SWAP1 PUSH2 0x178 SWAP2 SWAP1 PUSH2 0x24F4 JUMP JUMPDEST PUSH2 0x46C JUMP JUMPDEST STOP JUMPDEST PUSH2 0x199 PUSH1 0x4 DUP1 CALLDATASIZE SUB DUP2 ADD SWAP1 PUSH2 0x194 SWAP2 SWAP1 PUSH2 0x2521 JUMP JUMPDEST PUSH2 0x576 JUMP JUMPDEST STOP JUMPDEST PUSH2 0x1B5 PUSH1 0x4 DUP1 CALLDATASIZE SUB DUP2 ADD SWAP1 PUSH2 0x1B0 SWAP2 SWAP1 PUSH2 0x2498 JUMP JUMPDEST PUSH2 0x748 JUMP JUMPDEST PUSH1 0x40 MLOAD PUSH2 0x1C2 SWAP2 SWAP1 PUSH2 0x2671 JUMP JUMPDEST PUSH1 0x40 MLOAD DUP1 SWAP2 SUB SWAP1 RETURN JUMPDEST PUSH2 0x1E5 PUSH1 0x4 DUP1 CALLDATASIZE SUB DUP2 ADD SWAP1 PUSH2 0x1E0 SWAP2 SWAP1 PUSH2 0x2498 JUMP JUMPDEST PUSH2 0x782 JUMP JUMPDEST STOP JUMPDEST PUSH2 0x201 PUSH1 0x4 DUP1 CALLDATASIZE SUB DUP2 ADD SWAP1 PUSH2 0x1FC SWAP2 SWAP1 PUSH2 0x26C2 JUMP JUMPDEST PUSH2 0xA71 JUMP JUMPDEST PUSH1 0x40 MLOAD PUSH2 0x215 SWAP9 SWAP8 SWAP7 SWAP6 SWAP5 SWAP4 SWAP3 SWAP2 SWAP1 PUSH2 0x2786 JUMP JUMPDEST PUSH1 0x40 MLOAD DUP1 SWAP2 SUB SWAP1 RETURN JUMPDEST PUSH2 0x238 PUSH1 0x4 DUP1 CALLDATASIZE SUB DUP2 ADD SWAP1 PUSH2 0x233 SWAP2 SWAP1 PUSH2 0x24F4 JUMP JUMPDEST PUSH2 0xEA1 JUMP JUMPDEST STOP JUMPDEST PUSH2 0x254 PUSH1 0x4 DUP1 CALLDATASIZE SUB DUP2 ADD SWAP1 PUSH2 0x24F SWAP2 SWAP1 PUSH2 0x24F4 JUMP JUMPDEST PUSH2 0xFAB JUMP JUMPDEST PUSH1 0x40 MLOAD PUSH2 0x261 SWAP2 SWAP1 PUSH2 0x2671 JUMP JUMPDEST PUSH1 0x40 MLOAD DUP1 SWAP2 SUB SWAP1 RETURN JUMPDEST PUSH2 0x284 PUSH1 0x4 DUP1 CALLDATASIZE SUB DUP2 ADD SWAP1 PUSH2 0x27F SWAP2 SWAP1 PUSH2 0x24F4 JUMP JUMPDEST PUSH2 0xFF3 JUMP JUMPDEST STOP JUMPDEST PUSH2 0x2A0 PUSH1 0x4 DUP1 CALLDATASIZE SUB DUP2 ADD SWAP1 PUSH2 0x29B SWAP2 SWAP1 PUSH2 0x24F4 JUMP JUMPDEST PUSH2 0x10FD JUMP JUMPDEST STOP JUMPDEST PUSH2 0x2BC PUSH1 0x4 DUP1 CALLDATASIZE SUB DUP2 ADD SWAP1 PUSH2 0x2B7 SWAP2 SWAP1 PUSH2 0x24F4 JUMP JUMPDEST PUSH2 0x1207 JUMP JUMPDEST STOP JUMPDEST PUSH2 0x2D8 PUSH1 0x4 DUP1 CALLDATASIZE SUB DUP2 ADD SWAP1 PUSH2 0x2D3 SWAP2 SWAP1 PUSH2 0x2498 JUMP JUMPDEST PUSH2 0x1311 JUMP JUMPDEST STOP JUMPDEST PUSH2 0x2F4 PUSH1 0x4 DUP1 CALLDATASIZE SUB DUP2 ADD SWAP1 PUSH2 0x2EF SWAP2 SWAP1 PUSH2 0x2498 JUMP JUMPDEST PUSH2 0x1394 JUMP JUMPDEST STOP JUMPDEST PUSH2 0x2FE PUSH2 0x1401 JUMP JUMPDEST PUSH1 0x40 MLOAD PUSH2 0x30B SWAP2 SWAP1 PUSH2 0x2835 JUMP JUMPDEST PUSH1 0x40 MLOAD DUP1 SWAP2 SUB SWAP1 RETURN JUMPDEST PUSH2 0x32E PUSH1 0x4 DUP1 CALLDATASIZE SUB DUP2 ADD SWAP1 PUSH2 0x329 SWAP2 SWAP1 PUSH2 0x24F4 JUMP JUMPDEST PUSH2 0x143A JUMP JUMPDEST STOP JUMPDEST PUSH2 0x338 PUSH2 0x1544 JUMP JUMPDEST PUSH1 0x40 MLOAD PUSH2 0x345 SWAP2 SWAP1 PUSH2 0x2857 JUMP JUMPDEST PUSH1 0x40 MLOAD DUP1 SWAP2 SUB SWAP1 RETURN JUMPDEST PUSH2 0x368 PUSH1 0x4 DUP1 CALLDATASIZE SUB DUP2 ADD SWAP1 PUSH2 0x363 SWAP2 SWAP1 PUSH2 0x24F4 JUMP JUMPDEST PUSH2 0x156A JUMP JUMPDEST PUSH1 0x40 MLOAD PUSH2 0x375 SWAP2 SWAP1 PUSH2 0x2671 JUMP JUMPDEST PUSH1 0x40 MLOAD DUP1 SWAP2 SUB SWAP1 RETURN JUMPDEST PUSH2 0x386 PUSH2 0x15B2 JUMP JUMPDEST PUSH1 0x40 MLOAD PUSH2 0x393 SWAP2 SWAP1 PUSH2 0x2A67 JUMP JUMPDEST PUSH1 0x40 MLOAD DUP1 SWAP2 SUB SWAP1 RETURN JUMPDEST PUSH2 0x3A4 PUSH2 0x1A66 JUMP JUMPDEST PUSH1 0x40 MLOAD PUSH2 0x3B1 SWAP2 SWAP1 PUSH2 0x2835 JUMP JUMPDEST PUSH1 0x40 MLOAD DUP1 SWAP2 SUB SWAP1 RETURN JUMPDEST PUSH2 0x3D4 PUSH1 0x4 DUP1 CALLDATASIZE SUB DUP2 ADD SWAP1 PUSH2 0x3CF SWAP2 SWAP1 PUSH2 0x24F4 JUMP JUMPDEST PUSH2 0x1A9F JUMP JUMPDEST PUSH1 0x40 MLOAD PUSH2 0x3E1 SWAP2 SWAP1 PUSH2 0x2B4B JUMP JUMPDEST PUSH1 0x40 MLOAD DUP1 SWAP2 SUB SWAP1 RETURN JUMPDEST PUSH2 0x404 PUSH1 0x4 DUP1 CALLDATASIZE SUB DUP2 ADD SWAP1 PUSH2 0x3FF SWAP2 SWAP1 PUSH2 0x24F4 JUMP JUMPDEST PUSH2 0x1E01 JUMP JUMPDEST PUSH1 0x40 MLOAD PUSH2 0x411 SWAP2 SWAP1 PUSH2 0x2671 JUMP JUMPDEST PUSH1 0x40 MLOAD DUP1 SWAP2 SUB SWAP1 RETURN JUMPDEST PUSH2 0x422 PUSH2 0x1E49 JUMP JUMPDEST PUSH1 0x40 MLOAD PUSH2 0x42F SWAP2 SWAP1 PUSH2 0x2835 JUMP JUMPDEST PUSH1 0x40 MLOAD DUP1 SWAP2 SUB SWAP1 RETURN JUMPDEST PUSH2 0x468 DUP3 PUSH1 0x0 DUP4 PUSH1 0x40 MLOAD PUSH2 0x44C SWAP2 SWAP1 PUSH2 0x2BA9 JUMP JUMPDEST SWAP1 DUP2 MSTORE PUSH1 0x20 ADD PUSH1 0x40 MLOAD DUP1 SWAP2 SUB SWAP1 KECCAK256 PUSH2 0x1E82 SWAP1 SWAP2 SWAP1 PUSH4 0xFFFFFFFF AND JUMP JUMPDEST POP POP JUMP JUMPDEST PUSH1 0x1 PUSH1 0x0 SWAP1 SLOAD SWAP1 PUSH2 0x100 EXP SWAP1 DIV PUSH20 0xFFFFFFFFFFFFFFFFFFFFFFFFFFFFFFFFFFFFFFFF AND PUSH20 0xFFFFFFFFFFFFFFFFFFFFFFFFFFFFFFFFFFFFFFFF AND CALLER PUSH20 0xFFFFFFFFFFFFFFFFFFFFFFFFFFFFFFFFFFFFFFFF AND EQ PUSH2 0x4C6 JUMPI PUSH1 0x0 DUP1 REVERT JUMPDEST PUSH2 0x505 DUP2 PUSH1 0x40 MLOAD DUP1 PUSH1 0x40 ADD PUSH1 0x40 MSTORE DUP1 PUSH1 0xB DUP2 MSTORE PUSH1 0x20 ADD PUSH32 0x66756E645F726169736572000000000000000000000000000000000000000000 DUP2 MSTORE POP PUSH2 0x1394 JUMP JUMPDEST PUSH32 0x7D02E6403C89CB5AA8F22321B96FD9357CF8895E4A77C10E16C55AA5FC589D20 DUP2 PUSH1 0x40 MLOAD DUP1 PUSH1 0x40 ADD PUSH1 0x40 MSTORE DUP1 PUSH1 0xB DUP2 MSTORE PUSH1 0x20 ADD PUSH32 0x66756E645F726169736572000000000000000000000000000000000000000000 DUP2 MSTORE POP PUSH1 0x40 MLOAD PUSH2 0x56B SWAP3 SWAP2 SWAP1 PUSH2 0x2BC0 JUMP JUMPDEST PUSH1 0x40 MLOAD DUP1 SWAP2 SUB SWAP1 LOG1 POP JUMP JUMPDEST PUSH1 0x0 PUSH1 0x40 MLOAD DUP1 PUSH2 0x100 ADD PUSH1 0x40 MSTORE DUP1 DUP9 DUP2 MSTORE PUSH1 0x20 ADD DUP8 DUP2 MSTORE PUSH1 0x20 ADD DUP7 DUP2 MSTORE PUSH1 0x20 ADD DUP6 DUP2 MSTORE PUSH1 0x20 ADD CALLER PUSH20 0xFFFFFFFFFFFFFFFFFFFFFFFFFFFFFFFFFFFFFFFF AND DUP2 MSTORE PUSH1 0x20 ADD DUP5 DUP2 MSTORE PUSH1 0x20 ADD DUP4 DUP2 MSTORE PUSH1 0x20 ADD PUSH1 0x40 MLOAD DUP1 PUSH1 0x40 ADD PUSH1 0x40 MSTORE DUP1 PUSH1 0x7 DUP2 MSTORE PUSH1 0x20 ADD PUSH32 0x50656E64696E6700000000000000000000000000000000000000000000000000 DUP2 MSTORE POP DUP2 MSTORE POP SWAP1 POP PUSH1 0x2 DUP2 SWAP1 DUP1 PUSH1 0x1 DUP2 SLOAD ADD DUP1 DUP3 SSTORE DUP1 SWAP2 POP POP PUSH1 0x1 SWAP1 SUB SWAP1 PUSH1 0x0 MSTORE PUSH1 0x20 PUSH1 0x0 KECCAK256 SWAP1 PUSH1 0x8 MUL ADD PUSH1 0x0 SWAP1 SWAP2 SWAP1 SWAP2 SWAP1 SWAP2 POP PUSH1 0x0 DUP3 ADD MLOAD DUP2 PUSH1 0x0 ADD SWAP1 DUP1 MLOAD SWAP1 PUSH1 0x20 ADD SWAP1 PUSH2 0x647 SWAP3 SWAP2 SWAP1 PUSH2 0x2179 JUMP JUMPDEST POP PUSH1 0x20 DUP3 ADD MLOAD DUP2 PUSH1 0x1 ADD SWAP1 DUP1 MLOAD SWAP1 PUSH1 0x20 ADD SWAP1 PUSH2 0x664 SWAP3 SWAP2 SWAP1 PUSH2 0x2179 JUMP JUMPDEST POP PUSH1 0x40 DUP3 ADD MLOAD DUP2 PUSH1 0x2 ADD SWAP1 DUP1 MLOAD SWAP1 PUSH1 0x20 ADD SWAP1 PUSH2 0x681 SWAP3 SWAP2 SWAP1 PUSH2 0x2179 JUMP JUMPDEST POP PUSH1 0x60 DUP3 ADD MLOAD DUP2 PUSH1 0x3 ADD SWAP1 DUP1 MLOAD SWAP1 PUSH1 0x20 ADD SWAP1 PUSH2 0x69E SWAP3 SWAP2 SWAP1 PUSH2 0x2179 JUMP JUMPDEST POP PUSH1 0x80 DUP3 ADD MLOAD DUP2 PUSH1 0x4 ADD PUSH1 0x0 PUSH2 0x100 EXP DUP2 SLOAD DUP2 PUSH20 0xFFFFFFFFFFFFFFFFFFFFFFFFFFFFFFFFFFFFFFFF MUL NOT AND SWAP1 DUP4 PUSH20 0xFFFFFFFFFFFFFFFFFFFFFFFFFFFFFFFFFFFFFFFF AND MUL OR SWAP1 SSTORE POP PUSH1 0xA0 DUP3 ADD MLOAD DUP2 PUSH1 0x5 ADD SWAP1 DUP1 MLOAD SWAP1 PUSH1 0x20 ADD SWAP1 PUSH2 0x702 SWAP3 SWAP2 SWAP1 PUSH2 0x2179 JUMP JUMPDEST POP PUSH1 0xC0 DUP3 ADD MLOAD DUP2 PUSH1 0x6 ADD SWAP1 DUP1 MLOAD SWAP1 PUSH1 0x20 ADD SWAP1 PUSH2 0x71F SWAP3 SWAP2 SWAP1 PUSH2 0x2179 JUMP JUMPDEST POP PUSH1 0xE0 DUP3 ADD MLOAD DUP2 PUSH1 0x7 ADD SWAP1 DUP1 MLOAD SWAP1 PUSH1 0x20 ADD SWAP1 PUSH2 0x73C SWAP3 SWAP2 SWAP1 PUSH2 0x2179 JUMP JUMPDEST POP POP POP POP POP POP POP POP POP POP JUMP JUMPDEST PUSH1 0x0 PUSH2 0x77A DUP4 PUSH1 0x0 DUP5 PUSH1 0x40 MLOAD PUSH2 0x75E SWAP2 SWAP1 PUSH2 0x2BA9 JUMP JUMPDEST SWAP1 DUP2 MSTORE PUSH1 0x20 ADD PUSH1 0x40 MLOAD DUP1 SWAP2 SUB SWAP1 KECCAK256 PUSH2 0x1E99 SWAP1 SWAP2 SWAP1 PUSH4 0xFFFFFFFF AND JUMP JUMPDEST SWAP1 POP SWAP3 SWAP2 POP POP JUMP JUMPDEST PUSH2 0x7C1 CALLER PUSH1 0x40 MLOAD DUP1 PUSH1 0x40 ADD PUSH1 0x40 MSTORE DUP1 PUSH1 0xD DUP2 MSTORE PUSH1 0x20 ADD PUSH32 0x66756E645F617070726F76657200000000000000000000000000000000000000 DUP2 MSTORE POP PUSH2 0x438 JUMP JUMPDEST PUSH1 0x40 MLOAD DUP1 PUSH1 0x40 ADD PUSH1 0x40 MSTORE DUP1 PUSH1 0xB DUP2 MSTORE PUSH1 0x20 ADD PUSH32 0x66756E645F726169736572000000000000000000000000000000000000000000 DUP2 MSTORE POP PUSH1 0x40 MLOAD PUSH1 0x20 ADD PUSH2 0x807 SWAP2 SWAP1 PUSH2 0x2BA9 JUMP JUMPDEST PUSH1 0x40 MLOAD PUSH1 0x20 DUP2 DUP4 SUB SUB DUP2 MSTORE SWAP1 PUSH1 0x40 MSTORE DUP1 MLOAD SWAP1 PUSH1 0x20 ADD KECCAK256 DUP2 PUSH1 0x40 MLOAD PUSH1 0x20 ADD PUSH2 0x82E SWAP2 SWAP1 PUSH2 0x2BA9 JUMP JUMPDEST PUSH1 0x40 MLOAD PUSH1 0x20 DUP2 DUP4 SUB SUB DUP2 MSTORE SWAP1 PUSH1 0x40 MSTORE DUP1 MLOAD SWAP1 PUSH1 0x20 ADD KECCAK256 SUB PUSH2 0x8F7 JUMPI PUSH2 0x888 DUP3 PUSH1 0x40 MLOAD DUP1 PUSH1 0x40 ADD PUSH1 0x40 MSTORE DUP1 PUSH1 0xB DUP2 MSTORE PUSH1 0x20 ADD PUSH32 0x66756E645F726169736572000000000000000000000000000000000000000000 DUP2 MSTORE POP PUSH2 0x1394 JUMP JUMPDEST PUSH32 0x7D02E6403C89CB5AA8F22321B96FD9357CF8895E4A77C10E16C55AA5FC589D20 DUP3 PUSH1 0x40 MLOAD DUP1 PUSH1 0x40 ADD PUSH1 0x40 MSTORE DUP1 PUSH1 0xB DUP2 MSTORE PUSH1 0x20 ADD PUSH32 0x66756E645F726169736572000000000000000000000000000000000000000000 DUP2 MSTORE POP PUSH1 0x40 MLOAD PUSH2 0x8EE SWAP3 SWAP2 SWAP1 PUSH2 0x2BC0 JUMP JUMPDEST PUSH1 0x40 MLOAD DUP1 SWAP2 SUB SWAP1 LOG1 JUMPDEST PUSH1 0x40 MLOAD DUP1 PUSH1 0x40 ADD PUSH1 0x40 MSTORE DUP1 PUSH1 0x10 DUP2 MSTORE PUSH1 0x20 ADD PUSH32 0x66756E645F636F6E7472696275746F7200000000000000000000000000000000 DUP2 MSTORE POP PUSH1 0x40 MLOAD PUSH1 0x20 ADD PUSH2 0x93D SWAP2 SWAP1 PUSH2 0x2BA9 JUMP JUMPDEST PUSH1 0x40 MLOAD PUSH1 0x20 DUP2 DUP4 SUB SUB DUP2 MSTORE SWAP1 PUSH1 0x40 MSTORE DUP1 MLOAD SWAP1 PUSH1 0x20 ADD KECCAK256 DUP2 PUSH1 0x40 MLOAD PUSH1 0x20 ADD PUSH2 0x964 SWAP2 SWAP1 PUSH2 0x2BA9 JUMP JUMPDEST PUSH1 0x40 MLOAD PUSH1 0x20 DUP2 DUP4 SUB SUB DUP2 MSTORE SWAP1 PUSH1 0x40 MSTORE DUP1 MLOAD SWAP1 PUSH1 0x20 ADD KECCAK256 SUB PUSH2 0xA2D JUMPI PUSH2 0x9BE DUP3 PUSH1 0x40 MLOAD DUP1 PUSH1 0x40 ADD PUSH1 0x40 MSTORE DUP1 PUSH1 0x10 DUP2 MSTORE PUSH1 0x20 ADD PUSH32 0x66756E645F636F6E7472696275746F7200000000000000000000000000000000 DUP2 MSTORE POP PUSH2 0x1394 JUMP JUMPDEST PUSH32 0x7D02E6403C89CB5AA8F22321B96FD9357CF8895E4A77C10E16C55AA5FC589D20 DUP3 PUSH1 0x40 MLOAD DUP1 PUSH1 0x40 ADD PUSH1 0x40 MSTORE DUP1 PUSH1 0x10 DUP2 MSTORE PUSH1 0x20 ADD PUSH32 0x66756E645F636F6E7472696275746F7200000000000000000000000000000000 DUP2 MSTORE POP PUSH1 0x40 MLOAD PUSH2 0xA24 SWAP3 SWAP2 SWAP1 PUSH2 0x2BC0 JUMP JUMPDEST PUSH1 0x40 MLOAD DUP1 SWAP2 SUB SWAP1 LOG1 JUMPDEST PUSH2 0xA6D DUP3 DUP3 PUSH1 0x40 MLOAD DUP1 PUSH1 0x40 ADD PUSH1 0x40 MSTORE DUP1 PUSH1 0x8 DUP2 MSTORE PUSH1 0x20 ADD PUSH32 0x417070726F766564000000000000000000000000000000000000000000000000 DUP2 MSTORE POP PUSH2 0x1EF2 JUMP JUMPDEST POP POP JUMP JUMPDEST PUSH1 0x2 DUP2 DUP2 SLOAD DUP2 LT PUSH2 0xA81 JUMPI PUSH1 0x0 DUP1 REVERT JUMPDEST SWAP1 PUSH1 0x0 MSTORE PUSH1 0x20 PUSH1 0x0 KECCAK256 SWAP1 PUSH1 0x8 MUL ADD PUSH1 0x0 SWAP2 POP SWAP1 POP DUP1 PUSH1 0x0 ADD DUP1 SLOAD PUSH2 0xAA4 SWAP1 PUSH2 0x2C1F JUMP JUMPDEST DUP1 PUSH1 0x1F ADD PUSH1 0x20 DUP1 SWAP2 DIV MUL PUSH1 0x20 ADD PUSH1 0x40 MLOAD SWAP1 DUP2 ADD PUSH1 0x40 MSTORE DUP1 SWAP3 SWAP2 SWAP1 DUP2 DUP2 MSTORE PUSH1 0x20 ADD DUP3 DUP1 SLOAD PUSH2 0xAD0 SWAP1 PUSH2 0x2C1F JUMP JUMPDEST DUP1 ISZERO PUSH2 0xB1D JUMPI DUP1 PUSH1 0x1F LT PUSH2 0xAF2 JUMPI PUSH2 0x100 DUP1 DUP4 SLOAD DIV MUL DUP4 MSTORE SWAP2 PUSH1 0x20 ADD SWAP2 PUSH2 0xB1D JUMP JUMPDEST DUP3 ADD SWAP2 SWAP1 PUSH1 0x0 MSTORE PUSH1 0x20 PUSH1 0x0 KECCAK256 SWAP1 JUMPDEST DUP2 SLOAD DUP2 MSTORE SWAP1 PUSH1 0x1 ADD SWAP1 PUSH1 0x20 ADD DUP1 DUP4 GT PUSH2 0xB00 JUMPI DUP3 SWAP1 SUB PUSH1 0x1F AND DUP3 ADD SWAP2 JUMPDEST POP POP POP POP POP SWAP1 DUP1 PUSH1 0x1 ADD DUP1 SLOAD PUSH2 0xB32 SWAP1 PUSH2 0x2C1F JUMP JUMPDEST DUP1 PUSH1 0x1F ADD PUSH1 0x20 DUP1 SWAP2 DIV MUL PUSH1 0x20 ADD PUSH1 0x40 MLOAD SWAP1 DUP2 ADD PUSH1 0x40 MSTORE DUP1 SWAP3 SWAP2 SWAP1 DUP2 DUP2 MSTORE PUSH1 0x20 ADD DUP3 DUP1 SLOAD PUSH2 0xB5E SWAP1 PUSH2 0x2C1F JUMP JUMPDEST DUP1 ISZERO PUSH2 0xBAB JUMPI DUP1 PUSH1 0x1F LT PUSH2 0xB80 JUMPI PUSH2 0x100 DUP1 DUP4 SLOAD DIV MUL DUP4 MSTORE SWAP2 PUSH1 0x20 ADD SWAP2 PUSH2 0xBAB JUMP JUMPDEST DUP3 ADD SWAP2 SWAP1 PUSH1 0x0 MSTORE PUSH1 0x20 PUSH1 0x0 KECCAK256 SWAP1 JUMPDEST DUP2 SLOAD DUP2 MSTORE SWAP1 PUSH1 0x1 ADD SWAP1 PUSH1 0x20 ADD DUP1 DUP4 GT PUSH2 0xB8E JUMPI DUP3 SWAP1 SUB PUSH1 0x1F AND DUP3 ADD SWAP2 JUMPDEST POP POP POP POP POP SWAP1 DUP1 PUSH1 0x2 ADD DUP1 SLOAD PUSH2 0xBC0 SWAP1 PUSH2 0x2C1F JUMP JUMPDEST DUP1 PUSH1 0x1F ADD PUSH1 0x20 DUP1 SWAP2 DIV MUL PUSH1 0x20 ADD PUSH1 0x40 MLOAD SWAP1 DUP2 ADD PUSH1 0x40 MSTORE DUP1 SWAP3 SWAP2 SWAP1 DUP2 DUP2 MSTORE PUSH1 0x20 ADD DUP3 DUP1 SLOAD PUSH2 0xBEC SWAP1 PUSH2 0x2C1F JUMP JUMPDEST DUP1 ISZERO PUSH2 0xC39 JUMPI DUP1 PUSH1 0x1F LT PUSH2 0xC0E JUMPI PUSH2 0x100 DUP1 DUP4 SLOAD DIV MUL DUP4 MSTORE SWAP2 PUSH1 0x20 ADD SWAP2 PUSH2 0xC39 JUMP JUMPDEST DUP3 ADD SWAP2 SWAP1 PUSH1 0x0 MSTORE PUSH1 0x20 PUSH1 0x0 KECCAK256 SWAP1 JUMPDEST DUP2 SLOAD DUP2 MSTORE SWAP1 PUSH1 0x1 ADD SWAP1 PUSH1 0x20 ADD DUP1 DUP4 GT PUSH2 0xC1C JUMPI DUP3 SWAP1 SUB PUSH1 0x1F AND DUP3 ADD SWAP2 JUMPDEST POP POP POP POP POP SWAP1 DUP1 PUSH1 0x3 ADD DUP1 SLOAD PUSH2 0xC4E SWAP1 PUSH2 0x2C1F JUMP JUMPDEST DUP1 PUSH1 0x1F ADD PUSH1 0x20 DUP1 SWAP2 DIV MUL PUSH1 0x20 ADD PUSH1 0x40 MLOAD SWAP1 DUP2 ADD PUSH1 0x40 MSTORE DUP1 SWAP3 SWAP2 SWAP1 DUP2 DUP2 MSTORE PUSH1 0x20 ADD DUP3 DUP1 SLOAD PUSH2 0xC7A SWAP1 PUSH2 0x2C1F JUMP JUMPDEST DUP1 ISZERO PUSH2 0xCC7 JUMPI DUP1 PUSH1 0x1F LT PUSH2 0xC9C JUMPI PUSH2 0x100 DUP1 DUP4 SLOAD DIV MUL DUP4 MSTORE SWAP2 PUSH1 0x20 ADD SWAP2 PUSH2 0xCC7 JUMP JUMPDEST DUP3 ADD SWAP2 SWAP1 PUSH1 0x0 MSTORE PUSH1 0x20 PUSH1 0x0 KECCAK256 SWAP1 JUMPDEST DUP2 SLOAD DUP2 MSTORE SWAP1 PUSH1 0x1 ADD SWAP1 PUSH1 0x20 ADD DUP1 DUP4 GT PUSH2 0xCAA JUMPI DUP3 SWAP1 SUB PUSH1 0x1F AND DUP3 ADD SWAP2 JUMPDEST POP POP POP POP POP SWAP1 DUP1 PUSH1 0x4 ADD PUSH1 0x0 SWAP1 SLOAD SWAP1 PUSH2 0x100 EXP SWAP1 DIV PUSH20 0xFFFFFFFFFFFFFFFFFFFFFFFFFFFFFFFFFFFFFFFF AND SWAP1 DUP1 PUSH1 0x5 ADD DUP1 SLOAD PUSH2 0xD02 SWAP1 PUSH2 0x2C1F JUMP JUMPDEST DUP1 PUSH1 0x1F ADD PUSH1 0x20 DUP1 SWAP2 DIV MUL PUSH1 0x20 ADD PUSH1 0x40 MLOAD SWAP1 DUP2 ADD PUSH1 0x40 MSTORE DUP1 SWAP3 SWAP2 SWAP1 DUP2 DUP2 MSTORE PUSH1 0x20 ADD DUP3 DUP1 SLOAD PUSH2 0xD2E SWAP1 PUSH2 0x2C1F JUMP JUMPDEST DUP1 ISZERO PUSH2 0xD7B JUMPI DUP1 PUSH1 0x1F LT PUSH2 0xD50 JUMPI PUSH2 0x100 DUP1 DUP4 SLOAD DIV MUL DUP4 MSTORE SWAP2 PUSH1 0x20 ADD SWAP2 PUSH2 0xD7B JUMP JUMPDEST DUP3 ADD SWAP2 SWAP1 PUSH1 0x0 MSTORE PUSH1 0x20 PUSH1 0x0 KECCAK256 SWAP1 JUMPDEST DUP2 SLOAD DUP2 MSTORE SWAP1 PUSH1 0x1 ADD SWAP1 PUSH1 0x20 ADD DUP1 DUP4 GT PUSH2 0xD5E JUMPI DUP3 SWAP1 SUB PUSH1 0x1F AND DUP3 ADD SWAP2 JUMPDEST POP POP POP POP POP SWAP1 DUP1 PUSH1 0x6 ADD DUP1 SLOAD PUSH2 0xD90 SWAP1 PUSH2 0x2C1F JUMP JUMPDEST DUP1 PUSH1 0x1F ADD PUSH1 0x20 DUP1 SWAP2 DIV MUL PUSH1 0x20 ADD PUSH1 0x40 MLOAD SWAP1 DUP2 ADD PUSH1 0x40 MSTORE DUP1 SWAP3 SWAP2 SWAP1 DUP2 DUP2 MSTORE PUSH1 0x20 ADD DUP3 DUP1 SLOAD PUSH2 0xDBC SWAP1 PUSH2 0x2C1F JUMP JUMPDEST DUP1 ISZERO PUSH2 0xE09 JUMPI DUP1 PUSH1 0x1F LT PUSH2 0xDDE JUMPI PUSH2 0x100 DUP1 DUP4 SLOAD DIV MUL DUP4 MSTORE SWAP2 PUSH1 0x20 ADD SWAP2 PUSH2 0xE09 JUMP JUMPDEST DUP3 ADD SWAP2 SWAP1 PUSH1 0x0 MSTORE PUSH1 0x20 PUSH1 0x0 KECCAK256 SWAP1 JUMPDEST DUP2 SLOAD DUP2 MSTORE SWAP1 PUSH1 0x1 ADD SWAP1 PUSH1 0x20 ADD DUP1 DUP4 GT PUSH2 0xDEC JUMPI DUP3 SWAP1 SUB PUSH1 0x1F AND DUP3 ADD SWAP2 JUMPDEST POP POP POP POP POP SWAP1 DUP1 PUSH1 0x7 ADD DUP1 SLOAD PUSH2 0xE1E SWAP1 PUSH2 0x2C1F JUMP JUMPDEST DUP1 PUSH1 0x1F ADD PUSH1 0x20 DUP1 SWAP2 DIV MUL PUSH1 0x20 ADD PUSH1 0x40 MLOAD SWAP1 DUP2 ADD PUSH1 0x40 MSTORE DUP1 SWAP3 SWAP2 SWAP1 DUP2 DUP2 MSTORE PUSH1 0x20 ADD DUP3 DUP1 SLOAD PUSH2 0xE4A SWAP1 PUSH2 0x2C1F JUMP JUMPDEST DUP1 ISZERO PUSH2 0xE97 JUMPI DUP1 PUSH1 0x1F LT PUSH2 0xE6C JUMPI PUSH2 0x100 DUP1 DUP4 SLOAD DIV MUL DUP4 MSTORE SWAP2 PUSH1 0x20 ADD SWAP2 PUSH2 0xE97 JUMP JUMPDEST DUP3 ADD SWAP2 SWAP1 PUSH1 0x0 MSTORE PUSH1 0x20 PUSH1 0x0 KECCAK256 SWAP1 JUMPDEST DUP2 SLOAD DUP2 MSTORE SWAP1 PUSH1 0x1 ADD SWAP1 PUSH1 0x20 ADD DUP1 DUP4 GT PUSH2 0xE7A JUMPI DUP3 SWAP1 SUB PUSH1 0x1F AND DUP3 ADD SWAP2 JUMPDEST POP POP POP POP POP SWAP1 POP DUP9 JUMP JUMPDEST PUSH1 0x1 PUSH1 0x0 SWAP1 SLOAD SWAP1 PUSH2 0x100 EXP SWAP1 DIV PUSH20 0xFFFFFFFFFFFFFFFFFFFFFFFFFFFFFFFFFFFFFFFF AND PUSH20 0xFFFFFFFFFFFFFFFFFFFFFFFFFFFFFFFFFFFFFFFF AND CALLER PUSH20 0xFFFFFFFFFFFFFFFFFFFFFFFFFFFFFFFFFFFFFFFF AND EQ PUSH2 0xEFB JUMPI PUSH1 0x0 DUP1 REVERT JUMPDEST PUSH2 0xF3A DUP2 PUSH1 0x40 MLOAD DUP1 PUSH1 0x40 ADD PUSH1 0x40 MSTORE DUP1 PUSH1 0x10 DUP2 MSTORE PUSH1 0x20 ADD PUSH32 0x66756E645F636F6E7472696275746F7200000000000000000000000000000000 DUP2 MSTORE POP PUSH2 0x2050 JUMP JUMPDEST PUSH32 0x420B6D6124D847399574626CC16CE1504C11D6923C10C76900FE29C2933E310F DUP2 PUSH1 0x40 MLOAD DUP1 PUSH1 0x40 ADD PUSH1 0x40 MSTORE DUP1 PUSH1 0x10 DUP2 MSTORE PUSH1 0x20 ADD PUSH32 0x66756E645F636F6E7472696275746F7200000000000000000000000000000000 DUP2 MSTORE POP PUSH1 0x40 MLOAD PUSH2 0xFA0 SWAP3 SWAP2 SWAP1 PUSH2 0x2BC0 JUMP JUMPDEST PUSH1 0x40 MLOAD DUP1 SWAP2 SUB SWAP1 LOG1 POP JUMP JUMPDEST PUSH1 0x0 PUSH2 0xFEC DUP3 PUSH1 0x40 MLOAD DUP1 PUSH1 0x40 ADD PUSH1 0x40 MSTORE DUP1 PUSH1 0xD DUP2 MSTORE PUSH1 0x20 ADD PUSH32 0x66756E645F617070726F76657200000000000000000000000000000000000000 DUP2 MSTORE POP PUSH2 0x748 JUMP JUMPDEST SWAP1 POP SWAP2 SWAP1 POP JUMP JUMPDEST PUSH1 0x1 PUSH1 0x0 SWAP1 SLOAD SWAP1 PUSH2 0x100 EXP SWAP1 DIV PUSH20 0xFFFFFFFFFFFFFFFFFFFFFFFFFFFFFFFFFFFFFFFF AND PUSH20 0xFFFFFFFFFFFFFFFFFFFFFFFFFFFFFFFFFFFFFFFF AND CALLER PUSH20 0xFFFFFFFFFFFFFFFFFFFFFFFFFFFFFFFFFFFFFFFF AND EQ PUSH2 0x104D JUMPI PUSH1 0x0 DUP1 REVERT JUMPDEST PUSH2 0x108C DUP2 PUSH1 0x40 MLOAD DUP1 PUSH1 0x40 ADD PUSH1 0x40 MSTORE DUP1 PUSH1 0x10 DUP2 MSTORE PUSH1 0x20 ADD PUSH32 0x66756E645F636F6E7472696275746F7200000000000000000000000000000000 DUP2 MSTORE POP PUSH2 0x1394 JUMP JUMPDEST PUSH32 0x7D02E6403C89CB5AA8F22321B96FD9357CF8895E4A77C10E16C55AA5FC589D20 DUP2 PUSH1 0x40 MLOAD DUP1 PUSH1 0x40 ADD PUSH1 0x40 MSTORE DUP1 PUSH1 0x10 DUP2 MSTORE PUSH1 0x20 ADD PUSH32 0x66756E645F636F6E7472696275746F7200000000000000000000000000000000 DUP2 MSTORE POP PUSH1 0x40 MLOAD PUSH2 0x10F2 SWAP3 SWAP2 SWAP1 PUSH2 0x2BC0 JUMP JUMPDEST PUSH1 0x40 MLOAD DUP1 SWAP2 SUB SWAP1 LOG1 POP JUMP JUMPDEST PUSH1 0x1 PUSH1 0x0 SWAP1 SLOAD SWAP1 PUSH2 0x100 EXP SWAP1 DIV PUSH20 0xFFFFFFFFFFFFFFFFFFFFFFFFFFFFFFFFFFFFFFFF AND PUSH20 0xFFFFFFFFFFFFFFFFFFFFFFFFFFFFFFFFFFFFFFFF AND CALLER PUSH20 0xFFFFFFFFFFFFFFFFFFFFFFFFFFFFFFFFFFFFFFFF AND EQ PUSH2 0x1157 JUMPI PUSH1 0x0 DUP1 REVERT JUMPDEST PUSH2 0x1196 DUP2 PUSH1 0x40 MLOAD DUP1 PUSH1 0x40 ADD PUSH1 0x40 MSTORE DUP1 PUSH1 0xD DUP2 MSTORE PUSH1 0x20 ADD PUSH32 0x66756E645F617070726F76657200000000000000000000000000000000000000 DUP2 MSTORE POP PUSH2 0x1394 JUMP JUMPDEST PUSH32 0x7D02E6403C89CB5AA8F22321B96FD9357CF8895E4A77C10E16C55AA5FC589D20 DUP2 PUSH1 0x40 MLOAD DUP1 PUSH1 0x40 ADD PUSH1 0x40 MSTORE DUP1 PUSH1 0xD DUP2 MSTORE PUSH1 0x20 ADD PUSH32 0x66756E645F617070726F76657200000000000000000000000000000000000000 DUP2 MSTORE POP PUSH1 0x40 MLOAD PUSH2 0x11FC SWAP3 SWAP2 SWAP1 PUSH2 0x2BC0 JUMP JUMPDEST PUSH1 0x40 MLOAD DUP1 SWAP2 SUB SWAP1 LOG1 POP JUMP JUMPDEST PUSH1 0x1 PUSH1 0x0 SWAP1 SLOAD SWAP1 PUSH2 0x100 EXP SWAP1 DIV PUSH20 0xFFFFFFFFFFFFFFFFFFFFFFFFFFFFFFFFFFFFFFFF AND PUSH20 0xFFFFFFFFFFFFFFFFFFFFFFFFFFFFFFFFFFFFFFFF AND CALLER PUSH20 0xFFFFFFFFFFFFFFFFFFFFFFFFFFFFFFFFFFFFFFFF AND EQ PUSH2 0x1261 JUMPI PUSH1 0x0 DUP1 REVERT JUMPDEST PUSH2 0x12A0 DUP2 PUSH1 0x40 MLOAD DUP1 PUSH1 0x40 ADD PUSH1 0x40 MSTORE DUP1 PUSH1 0xB DUP2 MSTORE PUSH1 0x20 ADD PUSH32 0x66756E645F726169736572000000000000000000000000000000000000000000 DUP2 MSTORE POP PUSH2 0x2050 JUMP JUMPDEST PUSH32 0x420B6D6124D847399574626CC16CE1504C11D6923C10C76900FE29C2933E310F DUP2 PUSH1 0x40 MLOAD DUP1 PUSH1 0x40 ADD PUSH1 0x40 MSTORE DUP1 PUSH1 0xB DUP2 MSTORE PUSH1 0x20 ADD PUSH32 0x66756E645F726169736572000000000000000000000000000000000000000000 DUP2 MSTORE POP PUSH1 0x40 MLOAD PUSH2 0x1306 SWAP3 SWAP2 SWAP1 PUSH2 0x2BC0 JUMP JUMPDEST PUSH1 0x40 MLOAD DUP1 SWAP2 SUB SWAP1 LOG1 POP JUMP JUMPDEST PUSH2 0x1350 CALLER PUSH1 0x40 MLOAD DUP1 PUSH1 0x40 ADD PUSH1 0x40 MSTORE DUP1 PUSH1 0xD DUP2 MSTORE PUSH1 0x20 ADD PUSH32 0x66756E645F617070726F76657200000000000000000000000000000000000000 DUP2 MSTORE POP PUSH2 0x438 JUMP JUMPDEST PUSH2 0x1390 DUP3 DUP3 PUSH1 0x40 MLOAD DUP1 PUSH1 0x40 ADD PUSH1 0x40 MSTORE DUP1 PUSH1 0x8 DUP2 MSTORE PUSH1 0x20 ADD PUSH32 0x52656A6563746564000000000000000000000000000000000000000000000000 DUP2 MSTORE POP PUSH2 0x1EF2 JUMP JUMPDEST POP POP JUMP JUMPDEST PUSH2 0x13C4 DUP3 PUSH1 0x0 DUP4 PUSH1 0x40 MLOAD PUSH2 0x13A8 SWAP2 SWAP1 PUSH2 0x2BA9 JUMP JUMPDEST SWAP1 DUP2 MSTORE PUSH1 0x20 ADD PUSH1 0x40 MLOAD DUP1 SWAP2 SUB SWAP1 KECCAK256 PUSH2 0x20BD SWAP1 SWAP2 SWAP1 PUSH4 0xFFFFFFFF AND JUMP JUMPDEST PUSH32 0xBFEC83D64EAA953F2708271A023AB9EE82057F8F3578D548C1A4BA0B5B700489 DUP3 DUP3 PUSH1 0x40 MLOAD PUSH2 0x13F5 SWAP3 SWAP2 SWAP1 PUSH2 0x2BC0 JUMP JUMPDEST PUSH1 0x40 MLOAD DUP1 SWAP2 SUB SWAP1 LOG1 POP POP JUMP JUMPDEST PUSH1 0x40 MLOAD DUP1 PUSH1 0x40 ADD PUSH1 0x40 MSTORE DUP1 PUSH1 0xB DUP2 MSTORE PUSH1 0x20 ADD PUSH32 0x66756E645F726169736572000000000000000000000000000000000000000000 DUP2 MSTORE POP DUP2 JUMP JUMPDEST PUSH1 0x1 PUSH1 0x0 SWAP1 SLOAD SWAP1 PUSH2 0x100 EXP SWAP1 DIV PUSH20 0xFFFFFFFFFFFFFFFFFFFFFFFFFFFFFFFFFFFFFFFF AND PUSH20 0xFFFFFFFFFFFFFFFFFFFFFFFFFFFFFFFFFFFFFFFF AND CALLER PUSH20 0xFFFFFFFFFFFFFFFFFFFFFFFFFFFFFFFFFFFFFFFF AND EQ PUSH2 0x1494 JUMPI PUSH1 0x0 DUP1 REVERT JUMPDEST PUSH2 0x14D3 DUP2 PUSH1 0x40 MLOAD DUP1 PUSH1 0x40 ADD PUSH1 0x40 MSTORE DUP1 PUSH1 0xD DUP2 MSTORE PUSH1 0x20 ADD PUSH32 0x66756E645F617070726F76657200000000000000000000000000000000000000 DUP2 MSTORE POP PUSH2 0x2050 JUMP JUMPDEST PUSH32 0x420B6D6124D847399574626CC16CE1504C11D6923C10C76900FE29C2933E310F DUP2 PUSH1 0x40 MLOAD DUP1 PUSH1 0x40 ADD PUSH1 0x40 MSTORE DUP1 PUSH1 0xD DUP2 MSTORE PUSH1 0x20 ADD PUSH32 0x66756E645F617070726F76657200000000000000000000000000000000000000 DUP2 MSTORE POP PUSH1 0x40 MLOAD PUSH2 0x1539 SWAP3 SWAP2 SWAP1 PUSH2 0x2BC0 JUMP JUMPDEST PUSH1 0x40 MLOAD DUP1 SWAP2 SUB SWAP1 LOG1 POP JUMP JUMPDEST PUSH1 0x1 PUSH1 0x0 SWAP1 SLOAD SWAP1 PUSH2 0x100 EXP SWAP1 DIV PUSH20 0xFFFFFFFFFFFFFFFFFFFFFFFFFFFFFFFFFFFFFFFF AND DUP2 JUMP JUMPDEST PUSH1 0x0 PUSH2 0x15AB DUP3 PUSH1 0x40 MLOAD DUP1 PUSH1 0x40 ADD PUSH1 0x40 MSTORE DUP1 PUSH1 0x10 DUP2 MSTORE PUSH1 0x20 ADD PUSH32 0x66756E645F636F6E7472696275746F7200000000000000000000000000000000 DUP2 MSTORE POP PUSH2 0x748 JUMP JUMPDEST SWAP1 POP SWAP2 SWAP1 POP JUMP JUMPDEST PUSH1 0x60 PUSH1 0x2 DUP1 SLOAD DUP1 PUSH1 0x20 MUL PUSH1 0x20 ADD PUSH1 0x40 MLOAD SWAP1 DUP2 ADD PUSH1 0x40 MSTORE DUP1 SWAP3 SWAP2 SWAP1 DUP2 DUP2 MSTORE PUSH1 0x20 ADD PUSH1 0x0 SWAP1 JUMPDEST DUP3 DUP3 LT ISZERO PUSH2 0x1A5D JUMPI DUP4 DUP3 SWAP1 PUSH1 0x0 MSTORE PUSH1 0x20 PUSH1 0x0 KECCAK256 SWAP1 PUSH1 0x8 MUL ADD PUSH1 0x40 MLOAD DUP1 PUSH2 0x100 ADD PUSH1 0x40 MSTORE SWAP1 DUP2 PUSH1 0x0 DUP3 ADD DUP1 SLOAD PUSH2 0x160A SWAP1 PUSH2 0x2C1F JUMP JUMPDEST DUP1 PUSH1 0x1F ADD PUSH1 0x20 DUP1 SWAP2 DIV MUL PUSH1 0x20 ADD PUSH1 0x40 MLOAD SWAP1 DUP2 ADD PUSH1 0x40 MSTORE DUP1 SWAP3 SWAP2 SWAP1 DUP2 DUP2 MSTORE PUSH1 0x20 ADD DUP3 DUP1 SLOAD PUSH2 0x1636 SWAP1 PUSH2 0x2C1F JUMP JUMPDEST DUP1 ISZERO PUSH2 0x1683 JUMPI DUP1 PUSH1 0x1F LT PUSH2 0x1658 JUMPI PUSH2 0x100 DUP1 DUP4 SLOAD DIV MUL DUP4 MSTORE SWAP2 PUSH1 0x20 ADD SWAP2 PUSH2 0x1683 JUMP JUMPDEST DUP3 ADD SWAP2 SWAP1 PUSH1 0x0 MSTORE PUSH1 0x20 PUSH1 0x0 KECCAK256 SWAP1 JUMPDEST DUP2 SLOAD DUP2 MSTORE SWAP1 PUSH1 0x1 ADD SWAP1 PUSH1 0x20 ADD DUP1 DUP4 GT PUSH2 0x1666 JUMPI DUP3 SWAP1 SUB PUSH1 0x1F AND DUP3 ADD SWAP2 JUMPDEST POP POP POP POP POP DUP2 MSTORE PUSH1 0x20 ADD PUSH1 0x1 DUP3 ADD DUP1 SLOAD PUSH2 0x169C SWAP1 PUSH2 0x2C1F JUMP JUMPDEST DUP1 PUSH1 0x1F ADD PUSH1 0x20 DUP1 SWAP2 DIV MUL PUSH1 0x20 ADD PUSH1 0x40 MLOAD SWAP1 DUP2 ADD PUSH1 0x40 MSTORE DUP1 SWAP3 SWAP2 SWAP1 DUP2 DUP2 MSTORE PUSH1 0x20 ADD DUP3 DUP1 SLOAD PUSH2 0x16C8 SWAP1 PUSH2 0x2C1F JUMP JUMPDEST DUP1 ISZERO PUSH2 0x1715 JUMPI DUP1 PUSH1 0x1F LT PUSH2 0x16EA JUMPI PUSH2 0x100 DUP1 DUP4 SLOAD DIV MUL DUP4 MSTORE SWAP2 PUSH1 0x20 ADD SWAP2 PUSH2 0x1715 JUMP JUMPDEST DUP3 ADD SWAP2 SWAP1 PUSH1 0x0 MSTORE PUSH1 0x20 PUSH1 0x0 KECCAK256 SWAP1 JUMPDEST DUP2 SLOAD DUP2 MSTORE SWAP1 PUSH1 0x1 ADD SWAP1 PUSH1 0x20 ADD DUP1 DUP4 GT PUSH2 0x16F8 JUMPI DUP3 SWAP1 SUB PUSH1 0x1F AND DUP3 ADD SWAP2 JUMPDEST POP POP POP POP POP DUP2 MSTORE PUSH1 0x20 ADD PUSH1 0x2 DUP3 ADD DUP1 SLOAD PUSH2 0x172E SWAP1 PUSH2 0x2C1F JUMP JUMPDEST DUP1 PUSH1 0x1F ADD PUSH1 0x20 DUP1 SWAP2 DIV MUL PUSH1 0x20 ADD PUSH1 0x40 MLOAD SWAP1 DUP2 ADD PUSH1 0x40 MSTORE DUP1 SWAP3 SWAP2 SWAP1 DUP2 DUP2 MSTORE PUSH1 0x20 ADD DUP3 DUP1 SLOAD PUSH2 0x175A SWAP1 PUSH2 0x2C1F JUMP JUMPDEST DUP1 ISZERO PUSH2 0x17A7 JUMPI DUP1 PUSH1 0x1F LT PUSH2 0x177C JUMPI PUSH2 0x100 DUP1 DUP4 SLOAD DIV MUL DUP4 MSTORE SWAP2 PUSH1 0x20 ADD SWAP2 PUSH2 0x17A7 JUMP JUMPDEST DUP3 ADD SWAP2 SWAP1 PUSH1 0x0 MSTORE PUSH1 0x20 PUSH1 0x0 KECCAK256 SWAP1 JUMPDEST DUP2 SLOAD DUP2 MSTORE SWAP1 PUSH1 0x1 ADD SWAP1 PUSH1 0x20 ADD DUP1 DUP4 GT PUSH2 0x178A JUMPI DUP3 SWAP1 SUB PUSH1 0x1F AND DUP3 ADD SWAP2 JUMPDEST POP POP POP POP POP DUP2 MSTORE PUSH1 0x20 ADD PUSH1 0x3 DUP3 ADD DUP1 SLOAD PUSH2 0x17C0 SWAP1 PUSH2 0x2C1F JUMP JUMPDEST DUP1 PUSH1 0x1F ADD PUSH1 0x20 DUP1 SWAP2 DIV MUL PUSH1 0x20 ADD PUSH1 0x40 MLOAD SWAP1 DUP2 ADD PUSH1 0x40 MSTORE DUP1 SWAP3 SWAP2 SWAP1 DUP2 DUP2 MSTORE PUSH1 0x20 ADD DUP3 DUP1 SLOAD PUSH2 0x17EC SWAP1 PUSH2 0x2C1F JUMP JUMPDEST DUP1 ISZERO PUSH2 0x1839 JUMPI DUP1 PUSH1 0x1F LT PUSH2 0x180E JUMPI PUSH2 0x100 DUP1 DUP4 SLOAD DIV MUL DUP4 MSTORE SWAP2 PUSH1 0x20 ADD SWAP2 PUSH2 0x1839 JUMP JUMPDEST DUP3 ADD SWAP2 SWAP1 PUSH1 0x0 MSTORE PUSH1 0x20 PUSH1 0x0 KECCAK256 SWAP1 JUMPDEST DUP2 SLOAD DUP2 MSTORE SWAP1 PUSH1 0x1 ADD SWAP1 PUSH1 0x20 ADD DUP1 DUP4 GT PUSH2 0x181C JUMPI DUP3 SWAP1 SUB PUSH1 0x1F AND DUP3 ADD SWAP2 JUMPDEST POP POP POP POP POP DUP2 MSTORE PUSH1 0x20 ADD PUSH1 0x4 DUP3 ADD PUSH1 0x0 SWAP1 SLOAD SWAP1 PUSH2 0x100 EXP SWAP1 DIV PUSH20 0xFFFFFFFFFFFFFFFFFFFFFFFFFFFFFFFFFFFFFFFF AND PUSH20 0xFFFFFFFFFFFFFFFFFFFFFFFFFFFFFFFFFFFFFFFF AND PUSH20 0xFFFFFFFFFFFFFFFFFFFFFFFFFFFFFFFFFFFFFFFF AND DUP2 MSTORE PUSH1 0x20 ADD PUSH1 0x5 DUP3 ADD DUP1 SLOAD PUSH2 0x18A8 SWAP1 PUSH2 0x2C1F JUMP JUMPDEST DUP1 PUSH1 0x1F ADD PUSH1 0x20 DUP1 SWAP2 DIV MUL PUSH1 0x20 ADD PUSH1 0x40 MLOAD SWAP1 DUP2 ADD PUSH1 0x40 MSTORE DUP1 SWAP3 SWAP2 SWAP1 DUP2 DUP2 MSTORE PUSH1 0x20 ADD DUP3 DUP1 SLOAD PUSH2 0x18D4 SWAP1 PUSH2 0x2C1F JUMP JUMPDEST DUP1 ISZERO PUSH2 0x1921 JUMPI DUP1 PUSH1 0x1F LT PUSH2 0x18F6 JUMPI PUSH2 0x100 DUP1 DUP4 SLOAD DIV MUL DUP4 MSTORE SWAP2 PUSH1 0x20 ADD SWAP2 PUSH2 0x1921 JUMP JUMPDEST DUP3 ADD SWAP2 SWAP1 PUSH1 0x0 MSTORE PUSH1 0x20 PUSH1 0x0 KECCAK256 SWAP1 JUMPDEST DUP2 SLOAD DUP2 MSTORE SWAP1 PUSH1 0x1 ADD SWAP1 PUSH1 0x20 ADD DUP1 DUP4 GT PUSH2 0x1904 JUMPI DUP3 SWAP1 SUB PUSH1 0x1F AND DUP3 ADD SWAP2 JUMPDEST POP POP POP POP POP DUP2 MSTORE PUSH1 0x20 ADD PUSH1 0x6 DUP3 ADD DUP1 SLOAD PUSH2 0x193A SWAP1 PUSH2 0x2C1F JUMP JUMPDEST DUP1 PUSH1 0x1F ADD PUSH1 0x20 DUP1 SWAP2 DIV MUL PUSH1 0x20 ADD PUSH1 0x40 MLOAD SWAP1 DUP2 ADD PUSH1 0x40 MSTORE DUP1 SWAP3 SWAP2 SWAP1 DUP2 DUP2 MSTORE PUSH1 0x20 ADD DUP3 DUP1 SLOAD PUSH2 0x1966 SWAP1 PUSH2 0x2C1F JUMP JUMPDEST DUP1 ISZERO PUSH2 0x19B3 JUMPI DUP1 PUSH1 0x1F LT PUSH2 0x1988 JUMPI PUSH2 0x100 DUP1 DUP4 SLOAD DIV MUL DUP4 MSTORE SWAP2 PUSH1 0x20 ADD SWAP2 PUSH2 0x19B3 JUMP JUMPDEST DUP3 ADD SWAP2 SWAP1 PUSH1 0x0 MSTORE PUSH1 0x20 PUSH1 0x0 KECCAK256 SWAP1 JUMPDEST DUP2 SLOAD DUP2 MSTORE SWAP1 PUSH1 0x1 ADD SWAP1 PUSH1 0x20 ADD DUP1 DUP4 GT PUSH2 0x1996 JUMPI DUP3 SWAP1 SUB PUSH1 0x1F AND DUP3 ADD SWAP2 JUMPDEST POP POP POP POP POP DUP2 MSTORE PUSH1 0x20 ADD PUSH1 0x7 DUP3 ADD DUP1 SLOAD PUSH2 0x19CC SWAP1 PUSH2 0x2C1F JUMP JUMPDEST DUP1 PUSH1 0x1F ADD PUSH1 0x20 DUP1 SWAP2 DIV MUL PUSH1 0x20 ADD PUSH1 0x40 MLOAD SWAP1 DUP2 ADD PUSH1 0x40 MSTORE DUP1 SWAP3 SWAP2 SWAP1 DUP2 DUP2 MSTORE PUSH1 0x20 ADD DUP3 DUP1 SLOAD PUSH2 0x19F8 SWAP1 PUSH2 0x2C1F JUMP JUMPDEST DUP1 ISZERO PUSH2 0x1A45 JUMPI DUP1 PUSH1 0x1F LT PUSH2 0x1A1A JUMPI PUSH2 0x100 DUP1 DUP4 SLOAD DIV MUL DUP4 MSTORE SWAP2 PUSH1 0x20 ADD SWAP2 PUSH2 0x1A45 JUMP JUMPDEST DUP3 ADD SWAP2 SWAP1 PUSH1 0x0 MSTORE PUSH1 0x20 PUSH1 0x0 KECCAK256 SWAP1 JUMPDEST DUP2 SLOAD DUP2 MSTORE SWAP1 PUSH1 0x1 ADD SWAP1 PUSH1 0x20 ADD DUP1 DUP4 GT PUSH2 0x1A28 JUMPI DUP3 SWAP1 SUB PUSH1 0x1F AND DUP3 ADD SWAP2 JUMPDEST POP POP POP POP POP DUP2 MSTORE POP POP DUP2 MSTORE PUSH1 0x20 ADD SWAP1 PUSH1 0x1 ADD SWAP1 PUSH2 0x15D6 JUMP JUMPDEST POP POP POP POP SWAP1 POP SWAP1 JUMP JUMPDEST PUSH1 0x40 MLOAD DUP1 PUSH1 0x40 ADD PUSH1 0x40 MSTORE DUP1 PUSH1 0x10 DUP2 MSTORE PUSH1 0x20 ADD PUSH32 0x66756E645F636F6E7472696275746F7200000000000000000000000000000000 DUP2 MSTORE POP DUP2 JUMP JUMPDEST PUSH1 0x60 PUSH1 0x0 PUSH8 0xFFFFFFFFFFFFFFFF DUP2 GT ISZERO PUSH2 0x1ABC JUMPI PUSH2 0x1ABB PUSH2 0x236D JUMP JUMPDEST JUMPDEST PUSH1 0x40 MLOAD SWAP1 DUP1 DUP3 MSTORE DUP1 PUSH1 0x20 MUL PUSH1 0x20 ADD DUP3 ADD PUSH1 0x40 MSTORE DUP1 ISZERO PUSH2 0x1AEF JUMPI DUP2 PUSH1 0x20 ADD JUMPDEST PUSH1 0x60 DUP2 MSTORE PUSH1 0x20 ADD SWAP1 PUSH1 0x1 SWAP1 SUB SWAP1 DUP2 PUSH2 0x1ADA JUMPI SWAP1 POP JUMPDEST POP PUSH1 0x3 SWAP1 DUP1 MLOAD SWAP1 PUSH1 0x20 ADD SWAP1 PUSH2 0x1B05 SWAP3 SWAP2 SWAP1 PUSH2 0x21FF JUMP JUMPDEST POP PUSH2 0x1B45 DUP3 PUSH1 0x40 MLOAD DUP1 PUSH1 0x40 ADD PUSH1 0x40 MSTORE DUP1 PUSH1 0x10 DUP2 MSTORE PUSH1 0x20 ADD PUSH32 0x66756E645F636F6E7472696275746F7200000000000000000000000000000000 DUP2 MSTORE POP PUSH2 0x748 JUMP JUMPDEST ISZERO PUSH2 0x1BBC JUMPI PUSH1 0x3 PUSH1 0x40 MLOAD DUP1 PUSH1 0x40 ADD PUSH1 0x40 MSTORE DUP1 PUSH1 0x10 DUP2 MSTORE PUSH1 0x20 ADD PUSH32 0x66756E645F636F6E7472696275746F7200000000000000000000000000000000 DUP2 MSTORE POP SWAP1 DUP1 PUSH1 0x1 DUP2 SLOAD ADD DUP1 DUP3 SSTORE DUP1 SWAP2 POP POP PUSH1 0x1 SWAP1 SUB SWAP1 PUSH1 0x0 MSTORE PUSH1 0x20 PUSH1 0x0 KECCAK256 ADD PUSH1 0x0 SWAP1 SWAP2 SWAP1 SWAP2 SWAP1 SWAP2 POP SWAP1 DUP1 MLOAD SWAP1 PUSH1 0x20 ADD SWAP1 PUSH2 0x1BBA SWAP3 SWAP2 SWAP1 PUSH2 0x2179 JUMP JUMPDEST POP JUMPDEST PUSH2 0x1BFB DUP3 PUSH1 0x40 MLOAD DUP1 PUSH1 0x40 ADD PUSH1 0x40 MSTORE DUP1 PUSH1 0xB DUP2 MSTORE PUSH1 0x20 ADD PUSH32 0x66756E645F726169736572000000000000000000000000000000000000000000 DUP2 MSTORE POP PUSH2 0x748 JUMP JUMPDEST ISZERO PUSH2 0x1C72 JUMPI PUSH1 0x3 PUSH1 0x40 MLOAD DUP1 PUSH1 0x40 ADD PUSH1 0x40 MSTORE DUP1 PUSH1 0xB DUP2 MSTORE PUSH1 0x20 ADD PUSH32 0x66756E645F726169736572000000000000000000000000000000000000000000 DUP2 MSTORE POP SWAP1 DUP1 PUSH1 0x1 DUP2 SLOAD ADD DUP1 DUP3 SSTORE DUP1 SWAP2 POP POP PUSH1 0x1 SWAP1 SUB SWAP1 PUSH1 0x0 MSTORE PUSH1 0x20 PUSH1 0x0 KECCAK256 ADD PUSH1 0x0 SWAP1 SWAP2 SWAP1 SWAP2 SWAP1 SWAP2 POP SWAP1 DUP1 MLOAD SWAP1 PUSH1 0x20 ADD SWAP1 PUSH2 0x1C70 SWAP3 SWAP2 SWAP1 PUSH2 0x2179 JUMP JUMPDEST POP JUMPDEST PUSH2 0x1CB1 DUP3 PUSH1 0x40 MLOAD DUP1 PUSH1 0x40 ADD PUSH1 0x40 MSTORE DUP1 PUSH1 0xD DUP2 MSTORE PUSH1 0x20 ADD PUSH32 0x66756E645F617070726F76657200000000000000000000000000000000000000 DUP2 MSTORE POP PUSH2 0x748 JUMP JUMPDEST ISZERO PUSH2 0x1D28 JUMPI PUSH1 0x3 PUSH1 0x40 MLOAD DUP1 PUSH1 0x40 ADD PUSH1 0x40 MSTORE DUP1 PUSH1 0xD DUP2 MSTORE PUSH1 0x20 ADD PUSH32 0x66756E645F617070726F76657200000000000000000000000000000000000000 DUP2 MSTORE POP SWAP1 DUP1 PUSH1 0x1 DUP2 SLOAD ADD DUP1 DUP3 SSTORE DUP1 SWAP2 POP POP PUSH1 0x1 SWAP1 SUB SWAP1 PUSH1 0x0 MSTORE PUSH1 0x20 PUSH1 0x0 KECCAK256 ADD PUSH1 0x0 SWAP1 SWAP2 SWAP1 SWAP2 SWAP1 SWAP2 POP SWAP1 DUP1 MLOAD SWAP1 PUSH1 0x20 ADD SWAP1 PUSH2 0x1D26 SWAP3 SWAP2 SWAP1 PUSH2 0x2179 JUMP JUMPDEST POP JUMPDEST PUSH1 0x3 DUP1 SLOAD DUP1 PUSH1 0x20 MUL PUSH1 0x20 ADD PUSH1 0x40 MLOAD SWAP1 DUP2 ADD PUSH1 0x40 MSTORE DUP1 SWAP3 SWAP2 SWAP1 DUP2 DUP2 MSTORE PUSH1 0x20 ADD PUSH1 0x0 SWAP1 JUMPDEST DUP3 DUP3 LT ISZERO PUSH2 0x1DF6 JUMPI DUP4 DUP3 SWAP1 PUSH1 0x0 MSTORE PUSH1 0x20 PUSH1 0x0 KECCAK256 ADD DUP1 SLOAD PUSH2 0x1D69 SWAP1 PUSH2 0x2C1F JUMP JUMPDEST DUP1 PUSH1 0x1F ADD PUSH1 0x20 DUP1 SWAP2 DIV MUL PUSH1 0x20 ADD PUSH1 0x40 MLOAD SWAP1 DUP2 ADD PUSH1 0x40 MSTORE DUP1 SWAP3 SWAP2 SWAP1 DUP2 DUP2 MSTORE PUSH1 0x20 ADD DUP3 DUP1 SLOAD PUSH2 0x1D95 SWAP1 PUSH2 0x2C1F JUMP JUMPDEST DUP1 ISZERO PUSH2 0x1DE2 JUMPI DUP1 PUSH1 0x1F LT PUSH2 0x1DB7 JUMPI PUSH2 0x100 DUP1 DUP4 SLOAD DIV MUL DUP4 MSTORE SWAP2 PUSH1 0x20 ADD SWAP2 PUSH2 0x1DE2 JUMP JUMPDEST DUP3 ADD SWAP2 SWAP1 PUSH1 0x0 MSTORE PUSH1 0x20 PUSH1 0x0 KECCAK256 SWAP1 JUMPDEST DUP2 SLOAD DUP2 MSTORE SWAP1 PUSH1 0x1 ADD SWAP1 PUSH1 0x20 ADD DUP1 DUP4 GT PUSH2 0x1DC5 JUMPI DUP3 SWAP1 SUB PUSH1 0x1F AND DUP3 ADD SWAP2 JUMPDEST POP POP POP POP POP DUP2 MSTORE PUSH1 0x20 ADD SWAP1 PUSH1 0x1 ADD SWAP1 PUSH2 0x1D4A JUMP JUMPDEST POP POP POP POP SWAP1 POP SWAP2 SWAP1 POP JUMP JUMPDEST PUSH1 0x0 PUSH2 0x1E42 DUP3 PUSH1 0x40 MLOAD DUP1 PUSH1 0x40 ADD PUSH1 0x40 MSTORE DUP1 PUSH1 0xB DUP2 MSTORE PUSH1 0x20 ADD PUSH32 0x66756E645F726169736572000000000000000000000000000000000000000000 DUP2 MSTORE POP PUSH2 0x748 JUMP JUMPDEST SWAP1 POP SWAP2 SWAP1 POP JUMP JUMPDEST PUSH1 0x40 MLOAD DUP1 PUSH1 0x40 ADD PUSH1 0x40 MSTORE DUP1 PUSH1 0xD DUP2 MSTORE PUSH1 0x20 ADD PUSH32 0x66756E645F617070726F76657200000000000000000000000000000000000000 DUP2 MSTORE POP DUP2 JUMP JUMPDEST PUSH2 0x1E8C DUP3 DUP3 PUSH2 0x1E99 JUMP JUMPDEST PUSH2 0x1E95 JUMPI PUSH1 0x0 DUP1 REVERT JUMPDEST POP POP JUMP JUMPDEST PUSH1 0x0 DUP3 PUSH1 0x0 ADD PUSH1 0x0 DUP4 PUSH20 0xFFFFFFFFFFFFFFFFFFFFFFFFFFFFFFFFFFFFFFFF AND PUSH20 0xFFFFFFFFFFFFFFFFFFFFFFFFFFFFFFFFFFFFFFFF AND DUP2 MSTORE PUSH1 0x20 ADD SWAP1 DUP2 MSTORE PUSH1 0x20 ADD PUSH1 0x0 KECCAK256 PUSH1 0x0 SWAP1 SLOAD SWAP1 PUSH2 0x100 EXP SWAP1 DIV PUSH1 0xFF AND SWAP1 POP SWAP3 SWAP2 POP POP JUMP JUMPDEST PUSH1 0x0 PUSH1 0x2 DUP1 SLOAD SWAP1 POP SWAP1 POP PUSH1 0x0 JUMPDEST DUP2 DUP2 LT ISZERO PUSH2 0x2049 JUMPI DUP5 PUSH20 0xFFFFFFFFFFFFFFFFFFFFFFFFFFFFFFFFFFFFFFFF AND PUSH1 0x2 DUP3 DUP2 SLOAD DUP2 LT PUSH2 0x1F32 JUMPI PUSH2 0x1F31 PUSH2 0x2C50 JUMP JUMPDEST JUMPDEST SWAP1 PUSH1 0x0 MSTORE PUSH1 0x20 PUSH1 0x0 KECCAK256 SWAP1 PUSH1 0x8 MUL ADD PUSH1 0x4 ADD PUSH1 0x0 SWAP1 SLOAD SWAP1 PUSH2 0x100 EXP SWAP1 DIV PUSH20 0xFFFFFFFFFFFFFFFFFFFFFFFFFFFFFFFFFFFFFFFF AND PUSH20 0xFFFFFFFFFFFFFFFFFFFFFFFFFFFFFFFFFFFFFFFF AND EQ DUP1 ISZERO PUSH2 0x1FF6 JUMPI POP DUP4 PUSH1 0x40 MLOAD PUSH1 0x20 ADD PUSH2 0x1F93 SWAP2 SWAP1 PUSH2 0x2BA9 JUMP JUMPDEST PUSH1 0x40 MLOAD PUSH1 0x20 DUP2 DUP4 SUB SUB DUP2 MSTORE SWAP1 PUSH1 0x40 MSTORE DUP1 MLOAD SWAP1 PUSH1 0x20 ADD KECCAK256 PUSH1 0x2 DUP3 DUP2 SLOAD DUP2 LT PUSH2 0x1FBD JUMPI PUSH2 0x1FBC PUSH2 0x2C50 JUMP JUMPDEST JUMPDEST SWAP1 PUSH1 0x0 MSTORE PUSH1 0x20 PUSH1 0x0 KECCAK256 SWAP1 PUSH1 0x8 MUL ADD PUSH1 0x6 ADD PUSH1 0x40 MLOAD PUSH1 0x20 ADD PUSH2 0x1FDE SWAP2 SWAP1 PUSH2 0x2D13 JUMP JUMPDEST PUSH1 0x40 MLOAD PUSH1 0x20 DUP2 DUP4 SUB SUB DUP2 MSTORE SWAP1 PUSH1 0x40 MSTORE DUP1 MLOAD SWAP1 PUSH1 0x20 ADD KECCAK256 EQ JUMPDEST ISZERO PUSH2 0x2036 JUMPI DUP3 PUSH1 0x2 DUP3 DUP2 SLOAD DUP2 LT PUSH2 0x2010 JUMPI PUSH2 0x200F PUSH2 0x2C50 JUMP JUMPDEST JUMPDEST SWAP1 PUSH1 0x0 MSTORE PUSH1 0x20 PUSH1 0x0 KECCAK256 SWAP1 PUSH1 0x8 MUL ADD PUSH1 0x7 ADD SWAP1 DUP1 MLOAD SWAP1 PUSH1 0x20 ADD SWAP1 PUSH2 0x2034 SWAP3 SWAP2 SWAP1 PUSH2 0x2179 JUMP JUMPDEST POP JUMPDEST DUP1 DUP1 PUSH2 0x2041 SWAP1 PUSH2 0x2D59 JUMP JUMPDEST SWAP2 POP POP PUSH2 0x1EFF JUMP JUMPDEST POP POP POP POP POP JUMP JUMPDEST PUSH2 0x2080 DUP3 PUSH1 0x0 DUP4 PUSH1 0x40 MLOAD PUSH2 0x2064 SWAP2 SWAP1 PUSH2 0x2BA9 JUMP JUMPDEST SWAP1 DUP2 MSTORE PUSH1 0x20 ADD PUSH1 0x40 MLOAD DUP1 SWAP2 SUB SWAP1 KECCAK256 PUSH2 0x211B SWAP1 SWAP2 SWAP1 PUSH4 0xFFFFFFFF AND JUMP JUMPDEST PUSH32 0xD211483F91FC6EFF862467F8DE606587A30C8FC9981056F051B897A418DF803A DUP3 DUP3 PUSH1 0x40 MLOAD PUSH2 0x20B1 SWAP3 SWAP2 SWAP1 PUSH2 0x2BC0 JUMP JUMPDEST PUSH1 0x40 MLOAD DUP1 SWAP2 SUB SWAP1 LOG1 POP POP JUMP JUMPDEST PUSH1 0x1 DUP3 PUSH1 0x0 ADD PUSH1 0x0 DUP4 PUSH20 0xFFFFFFFFFFFFFFFFFFFFFFFFFFFFFFFFFFFFFFFF AND PUSH20 0xFFFFFFFFFFFFFFFFFFFFFFFFFFFFFFFFFFFFFFFF AND DUP2 MSTORE PUSH1 0x20 ADD SWAP1 DUP2 MSTORE PUSH1 0x20 ADD PUSH1 0x0 KECCAK256 PUSH1 0x0 PUSH2 0x100 EXP DUP2 SLOAD DUP2 PUSH1 0xFF MUL NOT AND SWAP1 DUP4 ISZERO ISZERO MUL OR SWAP1 SSTORE POP POP POP JUMP JUMPDEST PUSH1 0x0 DUP3 PUSH1 0x0 ADD PUSH1 0x0 DUP4 PUSH20 0xFFFFFFFFFFFFFFFFFFFFFFFFFFFFFFFFFFFFFFFF AND PUSH20 0xFFFFFFFFFFFFFFFFFFFFFFFFFFFFFFFFFFFFFFFF AND DUP2 MSTORE PUSH1 0x20 ADD SWAP1 DUP2 MSTORE PUSH1 0x20 ADD PUSH1 0x0 KECCAK256 PUSH1 0x0 PUSH2 0x100 EXP DUP2 SLOAD DUP2 PUSH1 0xFF MUL NOT AND SWAP1 DUP4 ISZERO ISZERO MUL OR SWAP1 SSTORE POP POP POP JUMP JUMPDEST DUP3 DUP1 SLOAD PUSH2 0x2185 SWAP1 PUSH2 0x2C1F JUMP JUMPDEST SWAP1 PUSH1 0x0 MSTORE PUSH1 0x20 PUSH1 0x0 KECCAK256 SWAP1 PUSH1 0x1F ADD PUSH1 0x20 SWAP1 DIV DUP2 ADD SWAP3 DUP3 PUSH2 0x21A7 JUMPI PUSH1 0x0 DUP6 SSTORE PUSH2 0x21EE JUMP JUMPDEST DUP3 PUSH1 0x1F LT PUSH2 0x21C0 JUMPI DUP1 MLOAD PUSH1 0xFF NOT AND DUP4 DUP1 ADD OR DUP6 SSTORE PUSH2 0x21EE JUMP JUMPDEST DUP3 DUP1 ADD PUSH1 0x1 ADD DUP6 SSTORE DUP3 ISZERO PUSH2 0x21EE JUMPI SWAP2 DUP3 ADD JUMPDEST DUP3 DUP2 GT ISZERO PUSH2 0x21ED JUMPI DUP3 MLOAD DUP3 SSTORE SWAP2 PUSH1 0x20 ADD SWAP2 SWAP1 PUSH1 0x1 ADD SWAP1 PUSH2 0x21D2 JUMP JUMPDEST JUMPDEST POP SWAP1 POP PUSH2 0x21FB SWAP2 SWAP1 PUSH2 0x225F JUMP JUMPDEST POP SWAP1 JUMP JUMPDEST DUP3 DUP1 SLOAD DUP3 DUP3 SSTORE SWAP1 PUSH1 0x0 MSTORE PUSH1 0x20 PUSH1 0x0 KECCAK256 SWAP1 DUP2 ADD SWAP3 DUP3 ISZERO PUSH2 0x224E JUMPI SWAP2 PUSH1 0x20 MUL DUP3 ADD JUMPDEST DUP3 DUP2 GT ISZERO PUSH2 0x224D JUMPI DUP3 MLOAD DUP3 SWAP1 DUP1 MLOAD SWAP1 PUSH1 0x20 ADD SWAP1 PUSH2 0x223D SWAP3 SWAP2 SWAP1 PUSH2 0x2179 JUMP JUMPDEST POP SWAP2 PUSH1 0x20 ADD SWAP2 SWAP1 PUSH1 0x1 ADD SWAP1 PUSH2 0x221F JUMP JUMPDEST JUMPDEST POP SWAP1 POP PUSH2 0x225B SWAP2 SWAP1 PUSH2 0x227C JUMP JUMPDEST POP SWAP1 JUMP JUMPDEST JUMPDEST DUP1 DUP3 GT ISZERO PUSH2 0x2278 JUMPI PUSH1 0x0 DUP2 PUSH1 0x0 SWAP1 SSTORE POP PUSH1 0x1 ADD PUSH2 0x2260 JUMP JUMPDEST POP SWAP1 JUMP JUMPDEST JUMPDEST DUP1 DUP3 GT ISZERO PUSH2 0x229C JUMPI PUSH1 0x0 DUP2 DUP2 PUSH2 0x2293 SWAP2 SWAP1 PUSH2 0x22A0 JUMP JUMPDEST POP PUSH1 0x1 ADD PUSH2 0x227D JUMP JUMPDEST POP SWAP1 JUMP JUMPDEST POP DUP1 SLOAD PUSH2 0x22AC SWAP1 PUSH2 0x2C1F JUMP JUMPDEST PUSH1 0x0 DUP3 SSTORE DUP1 PUSH1 0x1F LT PUSH2 0x22BE JUMPI POP PUSH2 0x22DD JUMP JUMPDEST PUSH1 0x1F ADD PUSH1 0x20 SWAP1 DIV SWAP1 PUSH1 0x0 MSTORE PUSH1 0x20 PUSH1 0x0 KECCAK256 SWAP1 DUP2 ADD SWAP1 PUSH2 0x22DC SWAP2 SWAP1 PUSH2 0x225F JUMP JUMPDEST JUMPDEST POP JUMP JUMPDEST PUSH1 0x0 PUSH1 0x40 MLOAD SWAP1 POP SWAP1 JUMP JUMPDEST PUSH1 0x0 DUP1 REVERT JUMPDEST PUSH1 0x0 DUP1 REVERT JUMPDEST PUSH1 0x0 PUSH20 0xFFFFFFFFFFFFFFFFFFFFFFFFFFFFFFFFFFFFFFFF DUP3 AND SWAP1 POP SWAP2 SWAP1 POP JUMP JUMPDEST PUSH1 0x0 PUSH2 0x231F DUP3 PUSH2 0x22F4 JUMP JUMPDEST SWAP1 POP SWAP2 SWAP1 POP JUMP JUMPDEST PUSH2 0x232F DUP2 PUSH2 0x2314 JUMP JUMPDEST DUP2 EQ PUSH2 0x233A JUMPI PUSH1 0x0 DUP1 REVERT JUMPDEST POP JUMP JUMPDEST PUSH1 0x0 DUP2 CALLDATALOAD SWAP1 POP PUSH2 0x234C DUP2 PUSH2 0x2326 JUMP JUMPDEST SWAP3 SWAP2 POP POP JUMP JUMPDEST PUSH1 0x0 DUP1 REVERT JUMPDEST PUSH1 0x0 DUP1 REVERT JUMPDEST PUSH1 0x0 PUSH1 0x1F NOT PUSH1 0x1F DUP4 ADD AND SWAP1 POP SWAP2 SWAP1 POP JUMP JUMPDEST PUSH32 0x4E487B7100000000000000000000000000000000000000000000000000000000 PUSH1 0x0 MSTORE PUSH1 0x41 PUSH1 0x4 MSTORE PUSH1 0x24 PUSH1 0x0 REVERT JUMPDEST PUSH2 0x23A5 DUP3 PUSH2 0x235C JUMP JUMPDEST DUP2 ADD DUP2 DUP2 LT PUSH8 0xFFFFFFFFFFFFFFFF DUP3 GT OR ISZERO PUSH2 0x23C4 JUMPI PUSH2 0x23C3 PUSH2 0x236D JUMP JUMPDEST JUMPDEST DUP1 PUSH1 0x40 MSTORE POP POP POP JUMP JUMPDEST PUSH1 0x0 PUSH2 0x23D7 PUSH2 0x22E0 JUMP JUMPDEST SWAP1 POP PUSH2 0x23E3 DUP3 DUP3 PUSH2 0x239C JUMP JUMPDEST SWAP2 SWAP1 POP JUMP JUMPDEST PUSH1 0x0 PUSH8 0xFFFFFFFFFFFFFFFF DUP3 GT ISZERO PUSH2 0x2403 JUMPI PUSH2 0x2402 PUSH2 0x236D JUMP JUMPDEST JUMPDEST PUSH2 0x240C DUP3 PUSH2 0x235C JUMP JUMPDEST SWAP1 POP PUSH1 0x20 DUP2 ADD SWAP1 POP SWAP2 SWAP1 POP JUMP JUMPDEST DUP3 DUP2 DUP4 CALLDATACOPY PUSH1 0x0 DUP4 DUP4 ADD MSTORE POP POP POP JUMP JUMPDEST PUSH1 0x0 PUSH2 0x243B PUSH2 0x2436 DUP5 PUSH2 0x23E8 JUMP JUMPDEST PUSH2 0x23CD JUMP JUMPDEST SWAP1 POP DUP3 DUP2 MSTORE PUSH1 0x20 DUP2 ADD DUP5 DUP5 DUP5 ADD GT ISZERO PUSH2 0x2457 JUMPI PUSH2 0x2456 PUSH2 0x2357 JUMP JUMPDEST JUMPDEST PUSH2 0x2462 DUP5 DUP3 DUP6 PUSH2 0x2419 JUMP JUMPDEST POP SWAP4 SWAP3 POP POP POP JUMP JUMPDEST PUSH1 0x0 DUP3 PUSH1 0x1F DUP4 ADD SLT PUSH2 0x247F JUMPI PUSH2 0x247E PUSH2 0x2352 JUMP JUMPDEST JUMPDEST DUP2 CALLDATALOAD PUSH2 0x248F DUP5 DUP3 PUSH1 0x20 DUP7 ADD PUSH2 0x2428 JUMP JUMPDEST SWAP2 POP POP SWAP3 SWAP2 POP POP JUMP JUMPDEST PUSH1 0x0 DUP1 PUSH1 0x40 DUP4 DUP6 SUB SLT ISZERO PUSH2 0x24AF JUMPI PUSH2 0x24AE PUSH2 0x22EA JUMP JUMPDEST JUMPDEST PUSH1 0x0 PUSH2 0x24BD DUP6 DUP3 DUP7 ADD PUSH2 0x233D JUMP JUMPDEST SWAP3 POP POP PUSH1 0x20 DUP4 ADD CALLDATALOAD PUSH8 0xFFFFFFFFFFFFFFFF DUP2 GT ISZERO PUSH2 0x24DE JUMPI PUSH2 0x24DD PUSH2 0x22EF JUMP JUMPDEST JUMPDEST PUSH2 0x24EA DUP6 DUP3 DUP7 ADD PUSH2 0x246A JUMP JUMPDEST SWAP2 POP POP SWAP3 POP SWAP3 SWAP1 POP JUMP JUMPDEST PUSH1 0x0 PUSH1 0x20 DUP3 DUP5 SUB SLT ISZERO PUSH2 0x250A JUMPI PUSH2 0x2509 PUSH2 0x22EA JUMP JUMPDEST JUMPDEST PUSH1 0x0 PUSH2 0x2518 DUP5 DUP3 DUP6 ADD PUSH2 0x233D JUMP JUMPDEST SWAP2 POP POP SWAP3 SWAP2 POP POP JUMP JUMPDEST PUSH1 0x0 DUP1 PUSH1 0x0 DUP1 PUSH1 0x0 DUP1 PUSH1 0xC0 DUP8 DUP10 SUB SLT ISZERO PUSH2 0x253E JUMPI PUSH2 0x253D PUSH2 0x22EA JUMP JUMPDEST JUMPDEST PUSH1 0x0 DUP8 ADD CALLDATALOAD PUSH8 0xFFFFFFFFFFFFFFFF DUP2 GT ISZERO PUSH2 0x255C JUMPI PUSH2 0x255B PUSH2 0x22EF JUMP JUMPDEST JUMPDEST PUSH2 0x2568 DUP10 DUP3 DUP11 ADD PUSH2 0x246A JUMP JUMPDEST SWAP7 POP POP PUSH1 0x20 DUP8 ADD CALLDATALOAD PUSH8 0xFFFFFFFFFFFFFFFF DUP2 GT ISZERO PUSH2 0x2589 JUMPI PUSH2 0x2588 PUSH2 0x22EF JUMP JUMPDEST JUMPDEST PUSH2 0x2595 DUP10 DUP3 DUP11 ADD PUSH2 0x246A JUMP JUMPDEST SWAP6 POP POP PUSH1 0x40 DUP8 ADD CALLDATALOAD PUSH8 0xFFFFFFFFFFFFFFFF DUP2 GT ISZERO PUSH2 0x25B6 JUMPI PUSH2 0x25B5 PUSH2 0x22EF JUMP JUMPDEST JUMPDEST PUSH2 0x25C2 DUP10 DUP3 DUP11 ADD PUSH2 0x246A JUMP JUMPDEST SWAP5 POP POP PUSH1 0x60 DUP8 ADD CALLDATALOAD PUSH8 0xFFFFFFFFFFFFFFFF DUP2 GT ISZERO PUSH2 0x25E3 JUMPI PUSH2 0x25E2 PUSH2 0x22EF JUMP JUMPDEST JUMPDEST PUSH2 0x25EF DUP10 DUP3 DUP11 ADD PUSH2 0x246A JUMP JUMPDEST SWAP4 POP POP PUSH1 0x80 DUP8 ADD CALLDATALOAD PUSH8 0xFFFFFFFFFFFFFFFF DUP2 GT ISZERO PUSH2 0x2610 JUMPI PUSH2 0x260F PUSH2 0x22EF JUMP JUMPDEST JUMPDEST PUSH2 0x261C DUP10 DUP3 DUP11 ADD PUSH2 0x246A JUMP JUMPDEST SWAP3 POP POP PUSH1 0xA0 DUP8 ADD CALLDATALOAD PUSH8 0xFFFFFFFFFFFFFFFF DUP2 GT ISZERO PUSH2 0x263D JUMPI PUSH2 0x263C PUSH2 0x22EF JUMP JUMPDEST JUMPDEST PUSH2 0x2649 DUP10 DUP3 DUP11 ADD PUSH2 0x246A JUMP JUMPDEST SWAP2 POP POP SWAP3 SWAP6 POP SWAP3 SWAP6 POP SWAP3 SWAP6 JUMP JUMPDEST PUSH1 0x0 DUP2 ISZERO ISZERO SWAP1 POP SWAP2 SWAP1 POP JUMP JUMPDEST PUSH2 0x266B DUP2 PUSH2 0x2656 JUMP JUMPDEST DUP3 MSTORE POP POP JUMP JUMPDEST PUSH1 0x0 PUSH1 0x20 DUP3 ADD SWAP1 POP PUSH2 0x2686 PUSH1 0x0 DUP4 ADD DUP5 PUSH2 0x2662 JUMP JUMPDEST SWAP3 SWAP2 POP POP JUMP JUMPDEST PUSH1 0x0 DUP2 SWAP1 POP SWAP2 SWAP1 POP JUMP JUMPDEST PUSH2 0x269F DUP2 PUSH2 0x268C JUMP JUMPDEST DUP2 EQ PUSH2 0x26AA JUMPI PUSH1 0x0 DUP1 REVERT JUMPDEST POP JUMP JUMPDEST PUSH1 0x0 DUP2 CALLDATALOAD SWAP1 POP PUSH2 0x26BC DUP2 PUSH2 0x2696 JUMP JUMPDEST SWAP3 SWAP2 POP POP JUMP JUMPDEST PUSH1 0x0 PUSH1 0x20 DUP3 DUP5 SUB SLT ISZERO PUSH2 0x26D8 JUMPI PUSH2 0x26D7 PUSH2 0x22EA JUMP JUMPDEST JUMPDEST PUSH1 0x0 PUSH2 0x26E6 DUP5 DUP3 DUP6 ADD PUSH2 0x26AD JUMP JUMPDEST SWAP2 POP POP SWAP3 SWAP2 POP POP JUMP JUMPDEST PUSH1 0x0 DUP2 MLOAD SWAP1 POP SWAP2 SWAP1 POP JUMP JUMPDEST PUSH1 0x0 DUP3 DUP3 MSTORE PUSH1 0x20 DUP3 ADD SWAP1 POP SWAP3 SWAP2 POP POP JUMP JUMPDEST PUSH1 0x0 JUMPDEST DUP4 DUP2 LT ISZERO PUSH2 0x2729 JUMPI DUP1 DUP3 ADD MLOAD DUP2 DUP5 ADD MSTORE PUSH1 0x20 DUP2 ADD SWAP1 POP PUSH2 0x270E JUMP JUMPDEST DUP4 DUP2 GT ISZERO PUSH2 0x2738 JUMPI PUSH1 0x0 DUP5 DUP5 ADD MSTORE JUMPDEST POP POP POP POP JUMP JUMPDEST PUSH1 0x0 PUSH2 0x2749 DUP3 PUSH2 0x26EF JUMP JUMPDEST PUSH2 0x2753 DUP2 DUP6 PUSH2 0x26FA JUMP JUMPDEST SWAP4 POP PUSH2 0x2763 DUP2 DUP6 PUSH1 0x20 DUP7 ADD PUSH2 0x270B JUMP JUMPDEST PUSH2 0x276C DUP2 PUSH2 0x235C JUMP JUMPDEST DUP5 ADD SWAP2 POP POP SWAP3 SWAP2 POP POP JUMP JUMPDEST PUSH2 0x2780 DUP2 PUSH2 0x2314 JUMP JUMPDEST DUP3 MSTORE POP POP JUMP JUMPDEST PUSH1 0x0 PUSH2 0x100 DUP3 ADD SWAP1 POP DUP2 DUP2 SUB PUSH1 0x0 DUP4 ADD MSTORE PUSH2 0x27A1 DUP2 DUP12 PUSH2 0x273E JUMP JUMPDEST SWAP1 POP DUP2 DUP2 SUB PUSH1 0x20 DUP4 ADD MSTORE PUSH2 0x27B5 DUP2 DUP11 PUSH2 0x273E JUMP JUMPDEST SWAP1 POP DUP2 DUP2 SUB PUSH1 0x40 DUP4 ADD MSTORE PUSH2 0x27C9 DUP2 DUP10 PUSH2 0x273E JUMP JUMPDEST SWAP1 POP DUP2 DUP2 SUB PUSH1 0x60 DUP4 ADD MSTORE PUSH2 0x27DD DUP2 DUP9 PUSH2 0x273E JUMP JUMPDEST SWAP1 POP PUSH2 0x27EC PUSH1 0x80 DUP4 ADD DUP8 PUSH2 0x2777 JUMP JUMPDEST DUP2 DUP2 SUB PUSH1 0xA0 DUP4 ADD MSTORE PUSH2 0x27FE DUP2 DUP7 PUSH2 0x273E JUMP JUMPDEST SWAP1 POP DUP2 DUP2 SUB PUSH1 0xC0 DUP4 ADD MSTORE PUSH2 0x2812 DUP2 DUP6 PUSH2 0x273E JUMP JUMPDEST SWAP1 POP DUP2 DUP2 SUB PUSH1 0xE0 DUP4 ADD MSTORE PUSH2 0x2826 DUP2 DUP5 PUSH2 0x273E JUMP JUMPDEST SWAP1 POP SWAP10 SWAP9 POP POP POP POP POP POP POP POP POP JUMP JUMPDEST PUSH1 0x0 PUSH1 0x20 DUP3 ADD SWAP1 POP DUP2 DUP2 SUB PUSH1 0x0 DUP4 ADD MSTORE PUSH2 0x284F DUP2 DUP5 PUSH2 0x273E JUMP JUMPDEST SWAP1 POP SWAP3 SWAP2 POP POP JUMP JUMPDEST PUSH1 0x0 PUSH1 0x20 DUP3 ADD SWAP1 POP PUSH2 0x286C PUSH1 0x0 DUP4 ADD DUP5 PUSH2 0x2777 JUMP JUMPDEST SWAP3 SWAP2 POP POP JUMP JUMPDEST PUSH1 0x0 DUP2 MLOAD SWAP1 POP SWAP2 SWAP1 POP JUMP JUMPDEST PUSH1 0x0 DUP3 DUP3 MSTORE PUSH1 0x20 DUP3 ADD SWAP1 POP SWAP3 SWAP2 POP POP JUMP JUMPDEST PUSH1 0x0 DUP2 SWAP1 POP PUSH1 0x20 DUP3 ADD SWAP1 POP SWAP2 SWAP1 POP JUMP JUMPDEST PUSH1 0x0 DUP3 DUP3 MSTORE PUSH1 0x20 DUP3 ADD SWAP1 POP SWAP3 SWAP2 POP POP JUMP JUMPDEST PUSH1 0x0 PUSH2 0x28BA DUP3 PUSH2 0x26EF JUMP JUMPDEST PUSH2 0x28C4 DUP2 DUP6 PUSH2 0x289E JUMP JUMPDEST SWAP4 POP PUSH2 0x28D4 DUP2 DUP6 PUSH1 0x20 DUP7 ADD PUSH2 0x270B JUMP JUMPDEST PUSH2 0x28DD DUP2 PUSH2 0x235C JUMP JUMPDEST DUP5 ADD SWAP2 POP POP SWAP3 SWAP2 POP POP JUMP JUMPDEST PUSH2 0x28F1 DUP2 PUSH2 0x2314 JUMP JUMPDEST DUP3 MSTORE POP POP JUMP JUMPDEST PUSH1 0x0 PUSH2 0x100 DUP4 ADD PUSH1 0x0 DUP4 ADD MLOAD DUP5 DUP3 SUB PUSH1 0x0 DUP7 ADD MSTORE PUSH2 0x2915 DUP3 DUP3 PUSH2 0x28AF JUMP JUMPDEST SWAP2 POP POP PUSH1 0x20 DUP4 ADD MLOAD DUP5 DUP3 SUB PUSH1 0x20 DUP7 ADD MSTORE PUSH2 0x292F DUP3 DUP3 PUSH2 0x28AF JUMP JUMPDEST SWAP2 POP POP PUSH1 0x40 DUP4 ADD MLOAD DUP5 DUP3 SUB PUSH1 0x40 DUP7 ADD MSTORE PUSH2 0x2949 DUP3 DUP3 PUSH2 0x28AF JUMP JUMPDEST SWAP2 POP POP PUSH1 0x60 DUP4 ADD MLOAD DUP5 DUP3 SUB PUSH1 0x60 DUP7 ADD MSTORE PUSH2 0x2963 DUP3 DUP3 PUSH2 0x28AF JUMP JUMPDEST SWAP2 POP POP PUSH1 0x80 DUP4 ADD MLOAD PUSH2 0x2978 PUSH1 0x80 DUP7 ADD DUP3 PUSH2 0x28E8 JUMP JUMPDEST POP PUSH1 0xA0 DUP4 ADD MLOAD DUP5 DUP3 SUB PUSH1 0xA0 DUP7 ADD MSTORE PUSH2 0x2990 DUP3 DUP3 PUSH2 0x28AF JUMP JUMPDEST SWAP2 POP POP PUSH1 0xC0 DUP4 ADD MLOAD DUP5 DUP3 SUB PUSH1 0xC0 DUP7 ADD MSTORE PUSH2 0x29AA DUP3 DUP3 PUSH2 0x28AF JUMP JUMPDEST SWAP2 POP POP PUSH1 0xE0 DUP4 ADD MLOAD DUP5 DUP3 SUB PUSH1 0xE0 DUP7 ADD MSTORE PUSH2 0x29C4 DUP3 DUP3 PUSH2 0x28AF JUMP JUMPDEST SWAP2 POP POP DUP1 SWAP2 POP POP SWAP3 SWAP2 POP POP JUMP JUMPDEST PUSH1 0x0 PUSH2 0x29DD DUP4 DUP4 PUSH2 0x28F7 JUMP JUMPDEST SWAP1 POP SWAP3 SWAP2 POP POP JUMP JUMPDEST PUSH1 0x0 PUSH1 0x20 DUP3 ADD SWAP1 POP SWAP2 SWAP1 POP JUMP JUMPDEST PUSH1 0x0 PUSH2 0x29FD DUP3 PUSH2 0x2872 JUMP JUMPDEST PUSH2 0x2A07 DUP2 DUP6 PUSH2 0x287D JUMP JUMPDEST SWAP4 POP DUP4 PUSH1 0x20 DUP3 MUL DUP6 ADD PUSH2 0x2A19 DUP6 PUSH2 0x288E JUMP JUMPDEST DUP1 PUSH1 0x0 JUMPDEST DUP6 DUP2 LT ISZERO PUSH2 0x2A55 JUMPI DUP5 DUP5 SUB DUP10 MSTORE DUP2 MLOAD PUSH2 0x2A36 DUP6 DUP3 PUSH2 0x29D1 JUMP JUMPDEST SWAP5 POP PUSH2 0x2A41 DUP4 PUSH2 0x29E5 JUMP JUMPDEST SWAP3 POP PUSH1 0x20 DUP11 ADD SWAP10 POP POP PUSH1 0x1 DUP2 ADD SWAP1 POP PUSH2 0x2A1D JUMP JUMPDEST POP DUP3 SWAP8 POP DUP8 SWAP6 POP POP POP POP POP POP SWAP3 SWAP2 POP POP JUMP JUMPDEST PUSH1 0x0 PUSH1 0x20 DUP3 ADD SWAP1 POP DUP2 DUP2 SUB PUSH1 0x0 DUP4 ADD MSTORE PUSH2 0x2A81 DUP2 DUP5 PUSH2 0x29F2 JUMP JUMPDEST SWAP1 POP SWAP3 SWAP2 POP POP JUMP JUMPDEST PUSH1 0x0 DUP2 MLOAD SWAP1 POP SWAP2 SWAP1 POP JUMP JUMPDEST PUSH1 0x0 DUP3 DUP3 MSTORE PUSH1 0x20 DUP3 ADD SWAP1 POP SWAP3 SWAP2 POP POP JUMP JUMPDEST PUSH1 0x0 DUP2 SWAP1 POP PUSH1 0x20 DUP3 ADD SWAP1 POP SWAP2 SWAP1 POP JUMP JUMPDEST PUSH1 0x0 PUSH2 0x2AC1 DUP4 DUP4 PUSH2 0x28AF JUMP JUMPDEST SWAP1 POP SWAP3 SWAP2 POP POP JUMP JUMPDEST PUSH1 0x0 PUSH1 0x20 DUP3 ADD SWAP1 POP SWAP2 SWAP1 POP JUMP JUMPDEST PUSH1 0x0 PUSH2 0x2AE1 DUP3 PUSH2 0x2A89 JUMP JUMPDEST PUSH2 0x2AEB DUP2 DUP6 PUSH2 0x2A94 JUMP JUMPDEST SWAP4 POP DUP4 PUSH1 0x20 DUP3 MUL DUP6 ADD PUSH2 0x2AFD DUP6 PUSH2 0x2AA5 JUMP JUMPDEST DUP1 PUSH1 0x0 JUMPDEST DUP6 DUP2 LT ISZERO PUSH2 0x2B39 JUMPI DUP5 DUP5 SUB DUP10 MSTORE DUP2 MLOAD PUSH2 0x2B1A DUP6 DUP3 PUSH2 0x2AB5 JUMP JUMPDEST SWAP5 POP PUSH2 0x2B25 DUP4 PUSH2 0x2AC9 JUMP JUMPDEST SWAP3 POP PUSH1 0x20 DUP11 ADD SWAP10 POP POP PUSH1 0x1 DUP2 ADD SWAP1 POP PUSH2 0x2B01 JUMP JUMPDEST POP DUP3 SWAP8 POP DUP8 SWAP6 POP POP POP POP POP POP SWAP3 SWAP2 POP POP JUMP JUMPDEST PUSH1 0x0 PUSH1 0x20 DUP3 ADD SWAP1 POP DUP2 DUP2 SUB PUSH1 0x0 DUP4 ADD MSTORE PUSH2 0x2B65 DUP2 DUP5 PUSH2 0x2AD6 JUMP JUMPDEST SWAP1 POP SWAP3 SWAP2 POP POP JUMP JUMPDEST PUSH1 0x0 DUP2 SWAP1 POP SWAP3 SWAP2 POP POP JUMP JUMPDEST PUSH1 0x0 PUSH2 0x2B83 DUP3 PUSH2 0x26EF JUMP JUMPDEST PUSH2 0x2B8D DUP2 DUP6 PUSH2 0x2B6D JUMP JUMPDEST SWAP4 POP PUSH2 0x2B9D DUP2 DUP6 PUSH1 0x20 DUP7 ADD PUSH2 0x270B JUMP JUMPDEST DUP1 DUP5 ADD SWAP2 POP POP SWAP3 SWAP2 POP POP JUMP JUMPDEST PUSH1 0x0 PUSH2 0x2BB5 DUP3 DUP5 PUSH2 0x2B78 JUMP JUMPDEST SWAP2 POP DUP2 SWAP1 POP SWAP3 SWAP2 POP POP JUMP JUMPDEST PUSH1 0x0 PUSH1 0x40 DUP3 ADD SWAP1 POP PUSH2 0x2BD5 PUSH1 0x0 DUP4 ADD DUP6 PUSH2 0x2777 JUMP JUMPDEST DUP2 DUP2 SUB PUSH1 0x20 DUP4 ADD MSTORE PUSH2 0x2BE7 DUP2 DUP5 PUSH2 0x273E JUMP JUMPDEST SWAP1 POP SWAP4 SWAP3 POP POP POP JUMP JUMPDEST PUSH32 0x4E487B7100000000000000000000000000000000000000000000000000000000 PUSH1 0x0 MSTORE PUSH1 0x22 PUSH1 0x4 MSTORE PUSH1 0x24 PUSH1 0x0 REVERT JUMPDEST PUSH1 0x0 PUSH1 0x2 DUP3 DIV SWAP1 POP PUSH1 0x1 DUP3 AND DUP1 PUSH2 0x2C37 JUMPI PUSH1 0x7F DUP3 AND SWAP2 POP JUMPDEST PUSH1 0x20 DUP3 LT DUP2 SUB PUSH2 0x2C4A JUMPI PUSH2 0x2C49 PUSH2 0x2BF0 JUMP JUMPDEST JUMPDEST POP SWAP2 SWAP1 POP JUMP JUMPDEST PUSH32 0x4E487B7100000000000000000000000000000000000000000000000000000000 PUSH1 0x0 MSTORE PUSH1 0x32 PUSH1 0x4 MSTORE PUSH1 0x24 PUSH1 0x0 REVERT JUMPDEST PUSH1 0x0 DUP2 SWAP1 POP DUP2 PUSH1 0x0 MSTORE PUSH1 0x20 PUSH1 0x0 KECCAK256 SWAP1 POP SWAP2 SWAP1 POP JUMP JUMPDEST PUSH1 0x0 DUP2 SLOAD PUSH2 0x2CA1 DUP2 PUSH2 0x2C1F JUMP JUMPDEST PUSH2 0x2CAB DUP2 DUP7 PUSH2 0x2B6D JUMP JUMPDEST SWAP5 POP PUSH1 0x1 DUP3 AND PUSH1 0x0 DUP2 EQ PUSH2 0x2CC6 JUMPI PUSH1 0x1 DUP2 EQ PUSH2 0x2CD7 JUMPI PUSH2 0x2D0A JUMP JUMPDEST PUSH1 0xFF NOT DUP4 AND DUP7 MSTORE DUP2 DUP7 ADD SWAP4 POP PUSH2 0x2D0A JUMP JUMPDEST PUSH2 0x2CE0 DUP6 PUSH2 0x2C7F JUMP JUMPDEST PUSH1 0x0 JUMPDEST DUP4 DUP2 LT ISZERO PUSH2 0x2D02 JUMPI DUP2 SLOAD DUP2 DUP10 ADD MSTORE PUSH1 0x1 DUP3 ADD SWAP2 POP PUSH1 0x20 DUP2 ADD SWAP1 POP PUSH2 0x2CE3 JUMP JUMPDEST DUP4 DUP9 ADD SWAP6 POP POP POP JUMPDEST POP POP POP SWAP3 SWAP2 POP POP JUMP JUMPDEST PUSH1 0x0 PUSH2 0x2D1F DUP3 DUP5 PUSH2 0x2C94 JUMP JUMPDEST SWAP2 POP DUP2 SWAP1 POP SWAP3 SWAP2 POP POP JUMP JUMPDEST PUSH32 0x4E487B7100000000000000000000000000000000000000000000000000000000 PUSH1 0x0 MSTORE PUSH1 0x11 PUSH1 0x4 MSTORE PUSH1 0x24 PUSH1 0x0 REVERT JUMPDEST PUSH1 0x0 PUSH2 0x2D64 DUP3 PUSH2 0x268C JUMP JUMPDEST SWAP2 POP PUSH32 0xFFFFFFFFFFFFFFFFFFFFFFFFFFFFFFFFFFFFFFFFFFFFFFFFFFFFFFFFFFFFFFFF DUP3 SUB PUSH2 0x2D96 JUMPI PUSH2 0x2D95 PUSH2 0x2D2A JUMP JUMPDEST JUMPDEST PUSH1 0x1 DUP3 ADD SWAP1 POP SWAP2 SWAP1 POP JUMP INVALID LOG2 PUSH5 0x6970667358 0x22 SLT KECCAK256 SWAP10 DUP3 PUSH31 0x46BCBEEC2E7C38A7C96EEFB89855C4249675404F67B6E652BF719F164B6473 PUSH16 0x6C634300080D00330000000000000000 "},"gasEstimates":{"creation":{"codeDepositCost":"2347000","executionCost":"26782","totalCost":"2373782"},"external":{"FUND_APPROVER()":"infinite","FUND_CONTRIBUTOR()":"infinite","FUND_RAISER()":"infinite","addAddressToFundApprover(address)":"infinite","addAddressToFundContributor(address)":"infinite","addAddressToFundRaiser(address)":"infinite","addRole(address,string)":"infinite","approveKYCRequest(address,string)":"infinite","checkRole(address,string)":"infinite","createKYCRequest(string,string,string,string,string,string)":"infinite","fetchKYCRequests()":"infinite","getRolesOfUser(address)":"infinite","hasRole(address,string)":"infinite","isFundApprover(address)":"infinite","isFundContributor(address)":"infinite","isFundRaiser(address)":"infinite","kycRequests(uint256)":"infinite","owner()":"2625","rejectKYCRequest(address,string)":"infinite","removeAddressFromFundApprover(address)":"infinite","removeAddressFromFundContributor(address)":"infinite","removeAddressFromFundRaiser(address)":"infinite"},"internal":{"updateStatusOfRequest(address,string memory,string memory)":"infinite"}},"methodIdentifiers":{"FUND_APPROVER()":"e2c1ca20","FUND_CONTRIBUTOR()":"b3a6ad09","FUND_RAISER()":"82c25e72","addAddressToFundApprover(address)":"564f63c4","addAddressToFundContributor(address)":"47ab42cd","addAddressToFundRaiser(address)":"0e07d45b","addRole(address,string)":"7d72aa65","approveKYCRequest(address,string)":"2234ab57","checkRole(address,string)":"0988ca8c","createKYCRequest(string,string,string,string,string,string)":"19a80f5d","fetchKYCRequests()":"a0874b90","getRolesOfUser(address)":"dca51ef7","hasRole(address,string)":"217fe6c6","isFundApprover(address)":"30d8aae7","isFundContributor(address)":"9114520d","isFundRaiser(address)":"de8dc653","kycRequests(uint256)":"2470cfe0","owner()":"8da5cb5b","rejectKYCRequest(address,string)":"782fea80","removeAddressFromFundApprover(address)":"89fdc973","removeAddressFromFundContributor(address)":"2e4e88d0","removeAddressFromFundRaiser(address)":"592c4ac4"}},"storageLayout":{"storage":[{"astId":84,"contract":"Campaigns.sol:Whitelist","label":"roles","offset":0,"slot":"0","type":"t_mapping(t_string_memory_ptr,t_struct(Role)6_storage)"},{"astId":197,"contract":"Campaigns.sol:Whitelist","label":"owner","offset":0,"slot":"1","type":"t_address"},{"astId":277,"contract":"Campaigns.sol:Whitelist","label":"kycRequests","offset":0,"slot":"2","type":"t_array(t_struct(KYCRequest)273_storage)dyn_storage"},{"astId":622,"contract":"Campaigns.sol:Whitelist","label":"user_roles","offset":0,"slot":"3","type":"t_array(t_string_storage)dyn_storage"}],"types":{"t_address":{"encoding":"inplace","label":"address","numberOfBytes":"20"},"t_array(t_string_storage)dyn_storage":{"base":"t_string_storage","encoding":"dynamic_array","label":"string[]","numberOfBytes":"32"},"t_array(t_struct(KYCRequest)273_storage)dyn_storage":{"base":"t_struct(KYCRequest)273_storage","encoding":"dynamic_array","label":"struct Whitelist.KYCRequest[]","numberOfBytes":"32"},"t_bool":{"encoding":"inplace","label":"bool","numberOfBytes":"1"},"t_mapping(t_address,t_bool)":{"encoding":"mapping","key":"t_address","label":"mapping(address => bool)","numberOfBytes":"32","value":"t_bool"},"t_mapping(t_string_memory_ptr,t_struct(Role)6_storage)":{"encoding":"mapping","key":"t_string_memory_ptr","label":"mapping(string => struct Roles.Role)","numberOfBytes":"32","value":"t_struct(Role)6_storage"},"t_string_memory_ptr":{"encoding":"bytes","label":"string","numberOfBytes":"32"},"t_string_storage":{"encoding":"bytes","label":"string","numberOfBytes":"32"},"t_struct(KYCRequest)273_storage":{"encoding":"inplace","label":"struct Whitelist.KYCRequest","members":[{"astId":258,"contract":"Campaigns.sol:Whitelist","label":"first_Name","offset":0,"slot":"0","type":"t_string_storage"},{"astId":260,"contract":"Campaigns.sol:Whitelist","label":"last_Name","offset":0,"slot":"1","type":"t_string_storage"},{"astId":262,"contract":"Campaigns.sol:Whitelist","label":"email","offset":0,"slot":"2","type":"t_string_storage"},{"astId":264,"contract":"Campaigns.sol:Whitelist","label":"phone","offset":0,"slot":"3","type":"t_string_storage"},{"astId":266,"contract":"Campaigns.sol:Whitelist","label":"user_address","offset":0,"slot":"4","type":"t_address"},{"astId":268,"contract":"Campaigns.sol:Whitelist","label":"docType","offset":0,"slot":"5","type":"t_string_storage"},{"astId":270,"contract":"Campaigns.sol:Whitelist","label":"role_applied_for","offset":0,"slot":"6","type":"t_string_storage"},{"astId":272,"contract":"Campaigns.sol:Whitelist","label":"status","offset":0,"slot":"7","type":"t_string_storage"}],"numberOfBytes":"256"},"t_struct(Role)6_storage":{"encoding":"inplace","label":"struct Roles.Role","members":[{"astId":5,"contract":"Campaigns.sol:Whitelist","label":"bearer","offset":0,"slot":"0","type":"t_mapping(t_address,t_bool)"}],"numberOfBytes":"32"}}},"userdoc":{"kind":"user","methods":{},"version":1}}