{"abi":[{"anonymous":false,"inputs":[{"indexed":true,"internalType":"address","name":"previousOwner","type":"address"}],"name":"OwnershipRenounced","type":"event"},{"anonymous":false,"inputs":[{"indexed":true,"internalType":"address","name":"previousOwner","type":"address"},{"indexed":true,"internalType":"address","name":"newOwner","type":"address"}],"name":"OwnershipTransferred","type":"event"},{"anonymous":false,"inputs":[{"indexed":false,"internalType":"address","name":"addr","type":"address"},{"indexed":false,"internalType":"string","name":"roleName","type":"string"}],"name":"RoleAdded","type":"event"},{"anonymous":false,"inputs":[{"indexed":false,"internalType":"address","name":"addr","type":"address"},{"indexed":false,"internalType":"string","name":"roleName","type":"string"}],"name":"RoleRemoved","type":"event"},{"anonymous":false,"inputs":[{"indexed":false,"internalType":"address","name":"addr","type":"address"},{"indexed":false,"internalType":"string","name":"roleName","type":"string"}],"name":"WhitelistedAddressAdded","type":"event"},{"anonymous":false,"inputs":[{"indexed":false,"internalType":"address","name":"addr","type":"address"},{"indexed":false,"internalType":"string","name":"roleName","type":"string"}],"name":"WhitelistedAddressRemoved","type":"event"},{"inputs":[],"name":"FUND_APPROVER","outputs":[{"internalType":"string","name":"","type":"string"}],"stateMutability":"view","type":"function"},{"inputs":[],"name":"FUND_CONTRIBUTOR","outputs":[{"internalType":"string","name":"","type":"string"}],"stateMutability":"view","type":"function"},{"inputs":[],"name":"FUND_RAISER","outputs":[{"internalType":"string","name":"","type":"string"}],"stateMutability":"view","type":"function"},{"inputs":[{"internalType":"address","name":"addr","type":"address"}],"name":"addAddressToFundApprover","outputs":[],"stateMutability":"nonpayable","type":"function"},{"inputs":[{"internalType":"address","name":"addr","type":"address"}],"name":"addAddressToFundContributor","outputs":[],"stateMutability":"nonpayable","type":"function"},{"inputs":[{"internalType":"address","name":"addr","type":"address"}],"name":"addAddressToFundRaiser","outputs":[],"stateMutability":"nonpayable","type":"function"},{"inputs":[{"internalType":"address","name":"addr","type":"address"},{"internalType":"string","name":"roleName","type":"string"}],"name":"addRole","outputs":[],"stateMutability":"nonpayable","type":"function"},{"inputs":[{"internalType":"address","name":"addr","type":"address"},{"internalType":"string","name":"role_applied","type":"string"}],"name":"approveKYCRequest","outputs":[],"stateMutability":"nonpayable","type":"function"},{"inputs":[{"internalType":"address","name":"addr","type":"address"},{"internalType":"string","name":"roleName","type":"string"}],"name":"checkRole","outputs":[],"stateMutability":"view","type":"function"},{"inputs":[{"internalType":"string","name":"_first_name","type":"string"},{"internalType":"string","name":"_last_name","type":"string"},{"internalType":"string","name":"_email","type":"string"},{"internalType":"string","name":"_phone","type":"string"},{"internalType":"string","name":"_doctype","type":"string"},{"internalType":"string","name":"_role_applied_for","type":"string"}],"name":"createKYCRequest","outputs":[],"stateMutability":"nonpayable","type":"function"},{"inputs":[],"name":"fetchKYCRequests","outputs":[{"components":[{"internalType":"string","name":"first_Name","type":"string"},{"internalType":"string","name":"last_Name","type":"string"},{"internalType":"string","name":"email","type":"string"},{"internalType":"string","name":"phone","type":"string"},{"internalType":"address","name":"user_address","type":"address"},{"internalType":"string","name":"docType","type":"string"},{"internalType":"string","name":"role_applied_for","type":"string"},{"internalType":"string","name":"status","type":"string"}],"internalType":"struct Whitelist.KYCRequest[]","name":"","type":"tuple[]"}],"stateMutability":"view","type":"function"},{"inputs":[{"internalType":"address","name":"addr","type":"address"}],"name":"getRolesOfUser","outputs":[{"internalType":"string[]","name":"","type":"string[]"}],"stateMutability":"nonpayable","type":"function"},{"inputs":[{"internalType":"address","name":"addr","type":"address"},{"internalType":"string","name":"roleName","type":"string"}],"name":"hasRole","outputs":[{"internalType":"bool","name":"","type":"bool"}],"stateMutability":"view","type":"function"},{"inputs":[{"internalType":"address","name":"addr","type":"address"}],"name":"isFundApprover","outputs":[{"internalType":"bool","name":"","type":"bool"}],"stateMutability":"view","type":"function"},{"inputs":[{"internalType":"address","name":"addr","type":"address"}],"name":"isFundContributor","outputs":[{"internalType":"bool","name":"","type":"bool"}],"stateMutability":"view","type":"function"},{"inputs":[{"internalType":"address","name":"addr","type":"address"}],"name":"isFundRaiser","outputs":[{"internalType":"bool","name":"","type":"bool"}],"stateMutability":"view","type":"function"},{"inputs":[{"internalType":"uint256","name":"","type":"uint256"}],"name":"kycRequests","outputs":[{"internalType":"string","name":"first_Name","type":"string"},{"internalType":"string","name":"last_Name","type":"string"},{"internalType":"string","name":"email","type":"string"},{"internalType":"string","name":"phone","type":"string"},{"internalType":"address","name":"user_address","type":"address"},{"internalType":"string","name":"docType","type":"string"},{"internalType":"string","name":"role_applied_for","type":"string"},{"internalType":"string","name":"status","type":"string"}],"stateMutability":"view","type":"function"},{"inputs":[],"name":"owner","outputs":[{"internalType":"address","name":"","type":"address"}],"stateMutability":"view","type":"function"},{"inputs":[{"internalType":"address","name":"addr","type":"address"},{"internalType":"string","name":"role_applied","type":"string"}],"name":"rejectKYCRequest","outputs":[],"stateMutability":"nonpayable","type":"function"},{"inputs":[{"internalType":"address","name":"addr","type":"address"}],"name":"removeAddressFromFundApprover","outputs":[],"stateMutability":"nonpayable","type":"function"},{"inputs":[{"internalType":"address","name":"addr","type":"address"}],"name":"removeAddressFromFundContributor","outputs":[],"stateMutability":"nonpayable","type":"function"},{"inputs":[{"internalType":"address","name":"addr","type":"address"}],"name":"removeAddressFromFundRaiser","outputs":[],"stateMutability":"nonpayable","type":"function"},{"inputs":[],"name":"renounceOwnership","outputs":[],"stateMutability":"nonpayable","type":"function"},{"inputs":[{"internalType":"address","name":"_newOwner","type":"address"}],"name":"transferOwnership","outputs":[],"stateMutability":"nonpayable","type":"function"}],"devdoc":{"kind":"dev","methods":{"renounceOwnership()":{"details":"Allows the current owner to relinquish control of the contract."}},"version":1},"evm":{"assembly":"    /* \"Campaigns.sol\":3365:8450  contract Whitelist is Ownable, RBAC {... */\n  mstore(0x40, 0x80)\n  callvalue\n  dup1\n  iszero\n  tag_1\n  jumpi\n  0x00\n  dup1\n  revert\ntag_1:\n  pop\n    /* \"Campaigns.sol\":2171:2181  msg.sender */\n  caller\n    /* \"Campaigns.sol\":2163:2168  owner */\n  0x00\n  dup1\n    /* \"Campaigns.sol\":2163:2181  owner = msg.sender */\n  0x0100\n  exp\n  dup2\n  sload\n  dup2\n  0xffffffffffffffffffffffffffffffffffffffff\n  mul\n  not\n  and\n  swap1\n  dup4\n  0xffffffffffffffffffffffffffffffffffffffff\n  and\n  mul\n  or\n  swap1\n  sstore\n  pop\n    /* \"Campaigns.sol\":3365:8450  contract Whitelist is Ownable, RBAC {... */\n  dataSize(sub_0)\n  dup1\n  dataOffset(sub_0)\n  0x00\n  codecopy\n  0x00\n  return\nstop\n\nsub_0: assembly {\n        /* \"Campaigns.sol\":3365:8450  contract Whitelist is Ownable, RBAC {... */\n      mstore(0x40, 0x80)\n      callvalue\n      dup1\n      iszero\n      tag_1\n      jumpi\n      0x00\n      dup1\n      revert\n    tag_1:\n      pop\n      jumpi(tag_2, lt(calldatasize, 0x04))\n      shr(0xe0, calldataload(0x00))\n      dup1\n      0x782fea80\n      gt\n      tag_27\n      jumpi\n      dup1\n      0xa0874b90\n      gt\n      tag_28\n      jumpi\n      dup1\n      0xa0874b90\n      eq\n      tag_21\n      jumpi\n      dup1\n      0xb3a6ad09\n      eq\n      tag_22\n      jumpi\n      dup1\n      0xdca51ef7\n      eq\n      tag_23\n      jumpi\n      dup1\n      0xde8dc653\n      eq\n      tag_24\n      jumpi\n      dup1\n      0xe2c1ca20\n      eq\n      tag_25\n      jumpi\n      dup1\n      0xf2fde38b\n      eq\n      tag_26\n      jumpi\n      jump(tag_2)\n    tag_28:\n      dup1\n      0x782fea80\n      eq\n      tag_15\n      jumpi\n      dup1\n      0x7d72aa65\n      eq\n      tag_16\n      jumpi\n      dup1\n      0x82c25e72\n      eq\n      tag_17\n      jumpi\n      dup1\n      0x89fdc973\n      eq\n      tag_18\n      jumpi\n      dup1\n      0x8da5cb5b\n      eq\n      tag_19\n      jumpi\n      dup1\n      0x9114520d\n      eq\n      tag_20\n      jumpi\n      jump(tag_2)\n    tag_27:\n      dup1\n      0x2e4e88d0\n      gt\n      tag_29\n      jumpi\n      dup1\n      0x2e4e88d0\n      eq\n      tag_9\n      jumpi\n      dup1\n      0x30d8aae7\n      eq\n      tag_10\n      jumpi\n      dup1\n      0x47ab42cd\n      eq\n      tag_11\n      jumpi\n      dup1\n      0x564f63c4\n      eq\n      tag_12\n      jumpi\n      dup1\n      0x592c4ac4\n      eq\n      tag_13\n      jumpi\n      dup1\n      0x715018a6\n      eq\n      tag_14\n      jumpi\n      jump(tag_2)\n    tag_29:\n      dup1\n      0x0988ca8c\n      eq\n      tag_3\n      jumpi\n      dup1\n      0x0e07d45b\n      eq\n      tag_4\n      jumpi\n      dup1\n      0x19a80f5d\n      eq\n      tag_5\n      jumpi\n      dup1\n      0x217fe6c6\n      eq\n      tag_6\n      jumpi\n      dup1\n      0x2234ab57\n      eq\n      tag_7\n      jumpi\n      dup1\n      0x2470cfe0\n      eq\n      tag_8\n      jumpi\n    tag_2:\n      0x00\n      dup1\n      revert\n        /* \"Campaigns.sol\":1091:1204  function checkRole(address addr, string memory roleName) public view {... */\n    tag_3:\n      tag_30\n      0x04\n      dup1\n      calldatasize\n      sub\n      dup2\n      add\n      swap1\n      tag_31\n      swap2\n      swap1\n      tag_32\n      jump\t// in\n    tag_31:\n      tag_33\n      jump\t// in\n    tag_30:\n      stop\n        /* \"Campaigns.sol\":6540:6703  function addAddressToFundRaiser(address addr) public onlyOwner {... */\n    tag_4:\n      tag_34\n      0x04\n      dup1\n      calldatasize\n      sub\n      dup2\n      add\n      swap1\n      tag_35\n      swap2\n      swap1\n      tag_36\n      jump\t// in\n    tag_35:\n      tag_37\n      jump\t// in\n    tag_34:\n      stop\n        /* \"Campaigns.sol\":4324:4860  function createKYCRequest(... */\n    tag_5:\n      tag_38\n      0x04\n      dup1\n      calldatasize\n      sub\n      dup2\n      add\n      swap1\n      tag_39\n      swap2\n      swap1\n      tag_40\n      jump\t// in\n    tag_39:\n      tag_41\n      jump\t// in\n    tag_38:\n      stop\n        /* \"Campaigns.sol\":1210:1369  function hasRole(address addr, string memory roleName)... */\n    tag_6:\n      tag_42\n      0x04\n      dup1\n      calldatasize\n      sub\n      dup2\n      add\n      swap1\n      tag_43\n      swap2\n      swap1\n      tag_32\n      jump\t// in\n    tag_43:\n      tag_44\n      jump\t// in\n    tag_42:\n      mload(0x40)\n      tag_45\n      swap2\n      swap1\n      tag_46\n      jump\t// in\n    tag_45:\n      mload(0x40)\n      dup1\n      swap2\n      sub\n      swap1\n      return\n        /* \"Campaigns.sol\":5035:5725  function approveKYCRequest(address addr, string memory role_applied)... */\n    tag_7:\n      tag_47\n      0x04\n      dup1\n      calldatasize\n      sub\n      dup2\n      add\n      swap1\n      tag_48\n      swap2\n      swap1\n      tag_32\n      jump\t// in\n    tag_48:\n      tag_49\n      jump\t// in\n    tag_47:\n      stop\n        /* \"Campaigns.sol\":4259:4290  KYCRequest[] public kycRequests */\n    tag_8:\n      tag_50\n      0x04\n      dup1\n      calldatasize\n      sub\n      dup2\n      add\n      swap1\n      tag_51\n      swap2\n      swap1\n      tag_52\n      jump\t// in\n    tag_51:\n      tag_53\n      jump\t// in\n    tag_50:\n      mload(0x40)\n      tag_54\n      swap9\n      swap8\n      swap7\n      swap6\n      swap5\n      swap4\n      swap3\n      swap2\n      swap1\n      tag_55\n      jump\t// in\n    tag_54:\n      mload(0x40)\n      dup1\n      swap2\n      sub\n      swap1\n      return\n        /* \"Campaigns.sol\":7803:7991  function removeAddressFromFundContributor(address addr) public onlyOwner {... */\n    tag_9:\n      tag_56\n      0x04\n      dup1\n      calldatasize\n      sub\n      dup2\n      add\n      swap1\n      tag_57\n      swap2\n      swap1\n      tag_36\n      jump\t// in\n    tag_57:\n      tag_58\n      jump\t// in\n    tag_56:\n      stop\n        /* \"Campaigns.sol\":7068:7185  function isFundApprover(address addr) public view returns (bool) {... */\n    tag_10:\n      tag_59\n      0x04\n      dup1\n      calldatasize\n      sub\n      dup2\n      add\n      swap1\n      tag_60\n      swap2\n      swap1\n      tag_36\n      jump\t// in\n    tag_60:\n      tag_61\n      jump\t// in\n    tag_59:\n      mload(0x40)\n      tag_62\n      swap2\n      swap1\n      tag_46\n      jump\t// in\n    tag_62:\n      mload(0x40)\n      dup1\n      swap2\n      sub\n      swap1\n      return\n        /* \"Campaigns.sol\":6884:7062  function addAddressToFundContributor(address addr) public onlyOwner {... */\n    tag_11:\n      tag_63\n      0x04\n      dup1\n      calldatasize\n      sub\n      dup2\n      add\n      swap1\n      tag_64\n      swap2\n      swap1\n      tag_36\n      jump\t// in\n    tag_64:\n      tag_65\n      jump\t// in\n    tag_63:\n      stop\n        /* \"Campaigns.sol\":6709:6878  function addAddressToFundApprover(address addr) public onlyOwner {... */\n    tag_12:\n      tag_66\n      0x04\n      dup1\n      calldatasize\n      sub\n      dup2\n      add\n      swap1\n      tag_67\n      swap2\n      swap1\n      tag_36\n      jump\t// in\n    tag_67:\n      tag_68\n      jump\t// in\n    tag_66:\n      stop\n        /* \"Campaigns.sol\":7624:7797  function removeAddressFromFundRaiser(address addr) public onlyOwner {... */\n    tag_13:\n      tag_69\n      0x04\n      dup1\n      calldatasize\n      sub\n      dup2\n      add\n      swap1\n      tag_70\n      swap2\n      swap1\n      tag_36\n      jump\t// in\n    tag_70:\n      tag_71\n      jump\t// in\n    tag_69:\n      stop\n        /* \"Campaigns.sol\":2631:2752  function renounceOwnership() public onlyOwner {... */\n    tag_14:\n      tag_72\n      tag_73\n      jump\t// in\n    tag_72:\n      stop\n        /* \"Campaigns.sol\":5757:5919  function rejectKYCRequest(address addr, string memory role_applied) public onlyFundApprover {... */\n    tag_15:\n      tag_74\n      0x04\n      dup1\n      calldatasize\n      sub\n      dup2\n      add\n      swap1\n      tag_75\n      swap2\n      swap1\n      tag_32\n      jump\t// in\n    tag_75:\n      tag_76\n      jump\t// in\n    tag_74:\n      stop\n        /* \"Campaigns.sol\":1375:1519  function addRole(address addr, string memory roleName) public {... */\n    tag_16:\n      tag_77\n      0x04\n      dup1\n      calldatasize\n      sub\n      dup2\n      add\n      swap1\n      tag_78\n      swap2\n      swap1\n      tag_32\n      jump\t// in\n    tag_78:\n      tag_79\n      jump\t// in\n    tag_77:\n      stop\n        /* \"Campaigns.sol\":3542:3592  string public constant FUND_RAISER = \"fund_raiser\" */\n    tag_17:\n      tag_80\n      tag_81\n      jump\t// in\n    tag_80:\n      mload(0x40)\n      tag_82\n      swap2\n      swap1\n      tag_83\n      jump\t// in\n    tag_82:\n      mload(0x40)\n      dup1\n      swap2\n      sub\n      swap1\n      return\n        /* \"Campaigns.sol\":7439:7618  function removeAddressFromFundApprover(address addr) public onlyOwner {... */\n    tag_18:\n      tag_84\n      0x04\n      dup1\n      calldatasize\n      sub\n      dup2\n      add\n      swap1\n      tag_85\n      swap2\n      swap1\n      tag_36\n      jump\t// in\n    tag_85:\n      tag_86\n      jump\t// in\n    tag_84:\n      stop\n        /* \"Campaigns.sol\":1815:1835  address public owner */\n    tag_19:\n      tag_87\n      tag_88\n      jump\t// in\n    tag_87:\n      mload(0x40)\n      tag_89\n      swap2\n      swap1\n      tag_90\n      jump\t// in\n    tag_89:\n      mload(0x40)\n      dup1\n      swap2\n      sub\n      swap1\n      return\n        /* \"Campaigns.sol\":7310:7433  function isFundContributor(address addr) public view returns (bool) {... */\n    tag_20:\n      tag_91\n      0x04\n      dup1\n      calldatasize\n      sub\n      dup2\n      add\n      swap1\n      tag_92\n      swap2\n      swap1\n      tag_36\n      jump\t// in\n    tag_92:\n      tag_93\n      jump\t// in\n    tag_91:\n      mload(0x40)\n      tag_94\n      swap2\n      swap1\n      tag_46\n      jump\t// in\n    tag_94:\n      mload(0x40)\n      dup1\n      swap2\n      sub\n      swap1\n      return\n        /* \"Campaigns.sol\":4892:4999  function fetchKYCRequests() public view returns (KYCRequest[] memory) {... */\n    tag_21:\n      tag_95\n      tag_96\n      jump\t// in\n    tag_95:\n      mload(0x40)\n      tag_97\n      swap2\n      swap1\n      tag_98\n      jump\t// in\n    tag_97:\n      mload(0x40)\n      dup1\n      swap2\n      sub\n      swap1\n      return\n        /* \"Campaigns.sol\":3598:3658  string public constant FUND_CONTRIBUTOR = \"fund_contributor\" */\n    tag_22:\n      tag_99\n      tag_100\n      jump\t// in\n    tag_99:\n      mload(0x40)\n      tag_101\n      swap2\n      swap1\n      tag_83\n      jump\t// in\n    tag_101:\n      mload(0x40)\n      dup1\n      swap2\n      sub\n      swap1\n      return\n        /* \"Campaigns.sol\":8022:8448  function getRolesOfUser(address addr) public returns(string[] memory) {... */\n    tag_23:\n      tag_102\n      0x04\n      dup1\n      calldatasize\n      sub\n      dup2\n      add\n      swap1\n      tag_103\n      swap2\n      swap1\n      tag_36\n      jump\t// in\n    tag_103:\n      tag_104\n      jump\t// in\n    tag_102:\n      mload(0x40)\n      tag_105\n      swap2\n      swap1\n      tag_106\n      jump\t// in\n    tag_105:\n      mload(0x40)\n      dup1\n      swap2\n      sub\n      swap1\n      return\n        /* \"Campaigns.sol\":7191:7304  function isFundRaiser(address addr) public view returns (bool) {... */\n    tag_24:\n      tag_107\n      0x04\n      dup1\n      calldatasize\n      sub\n      dup2\n      add\n      swap1\n      tag_108\n      swap2\n      swap1\n      tag_36\n      jump\t// in\n    tag_108:\n      tag_109\n      jump\t// in\n    tag_107:\n      mload(0x40)\n      tag_110\n      swap2\n      swap1\n      tag_46\n      jump\t// in\n    tag_110:\n      mload(0x40)\n      dup1\n      swap2\n      sub\n      swap1\n      return\n        /* \"Campaigns.sol\":3664:3718  string public constant FUND_APPROVER = \"fund_approver\" */\n    tag_25:\n      tag_111\n      tag_112\n      jump\t// in\n    tag_111:\n      mload(0x40)\n      tag_113\n      swap2\n      swap1\n      tag_83\n      jump\t// in\n    tag_113:\n      mload(0x40)\n      dup1\n      swap2\n      sub\n      swap1\n      return\n        /* \"Campaigns.sol\":2923:3032  function transferOwnership(address _newOwner) public onlyOwner {... */\n    tag_26:\n      tag_114\n      0x04\n      dup1\n      calldatasize\n      sub\n      dup2\n      add\n      swap1\n      tag_115\n      swap2\n      swap1\n      tag_36\n      jump\t// in\n    tag_115:\n      tag_116\n      jump\t// in\n    tag_114:\n      stop\n        /* \"Campaigns.sol\":1091:1204  function checkRole(address addr, string memory roleName) public view {... */\n    tag_33:\n        /* \"Campaigns.sol\":1170:1197  roles[roleName].check(addr) */\n      tag_118\n        /* \"Campaigns.sol\":1192:1196  addr */\n      dup3\n        /* \"Campaigns.sol\":1170:1175  roles */\n      0x01\n        /* \"Campaigns.sol\":1176:1184  roleName */\n      dup4\n        /* \"Campaigns.sol\":1170:1185  roles[roleName] */\n      mload(0x40)\n      tag_119\n      swap2\n      swap1\n      tag_120\n      jump\t// in\n    tag_119:\n      swap1\n      dup2\n      mstore\n      0x20\n      add\n      mload(0x40)\n      dup1\n      swap2\n      sub\n      swap1\n      keccak256\n        /* \"Campaigns.sol\":1170:1191  roles[roleName].check */\n      tag_121\n      swap1\n        /* \"Campaigns.sol\":1170:1197  roles[roleName].check(addr) */\n      swap2\n      swap1\n      0xffffffff\n      and\n      jump\t// in\n    tag_118:\n        /* \"Campaigns.sol\":1091:1204  function checkRole(address addr, string memory roleName) public view {... */\n      pop\n      pop\n      jump\t// out\n        /* \"Campaigns.sol\":6540:6703  function addAddressToFundRaiser(address addr) public onlyOwner {... */\n    tag_37:\n        /* \"Campaigns.sol\":2329:2334  owner */\n      0x00\n      dup1\n      sload\n      swap1\n      0x0100\n      exp\n      swap1\n      div\n      0xffffffffffffffffffffffffffffffffffffffff\n      and\n        /* \"Campaigns.sol\":2315:2334  msg.sender == owner */\n      0xffffffffffffffffffffffffffffffffffffffff\n      and\n        /* \"Campaigns.sol\":2315:2325  msg.sender */\n      caller\n        /* \"Campaigns.sol\":2315:2334  msg.sender == owner */\n      0xffffffffffffffffffffffffffffffffffffffff\n      and\n      eq\n        /* \"Campaigns.sol\":2307:2335  require(msg.sender == owner) */\n      tag_123\n      jumpi\n      0x00\n      dup1\n      revert\n    tag_123:\n        /* \"Campaigns.sol\":6613:6639  addRole(addr, FUND_RAISER) */\n      tag_125\n        /* \"Campaigns.sol\":6621:6625  addr */\n      dup2\n        /* \"Campaigns.sol\":6627:6638  FUND_RAISER */\n      mload(0x40)\n      dup1\n      0x40\n      add\n      0x40\n      mstore\n      dup1\n      0x0b\n      dup2\n      mstore\n      0x20\n      add\n      0x66756e645f726169736572000000000000000000000000000000000000000000\n      dup2\n      mstore\n      pop\n        /* \"Campaigns.sol\":6613:6620  addRole */\n      tag_79\n        /* \"Campaigns.sol\":6613:6639  addRole(addr, FUND_RAISER) */\n      jump\t// in\n    tag_125:\n        /* \"Campaigns.sol\":6654:6696  WhitelistedAddressAdded(addr, FUND_RAISER) */\n      0x7d02e6403c89cb5aa8f22321b96fd9357cf8895e4a77c10e16c55aa5fc589d20\n        /* \"Campaigns.sol\":6678:6682  addr */\n      dup2\n        /* \"Campaigns.sol\":6684:6695  FUND_RAISER */\n      mload(0x40)\n      dup1\n      0x40\n      add\n      0x40\n      mstore\n      dup1\n      0x0b\n      dup2\n      mstore\n      0x20\n      add\n      0x66756e645f726169736572000000000000000000000000000000000000000000\n      dup2\n      mstore\n      pop\n        /* \"Campaigns.sol\":6654:6696  WhitelistedAddressAdded(addr, FUND_RAISER) */\n      mload(0x40)\n      tag_126\n      swap3\n      swap2\n      swap1\n      tag_127\n      jump\t// in\n    tag_126:\n      mload(0x40)\n      dup1\n      swap2\n      sub\n      swap1\n      log1\n        /* \"Campaigns.sol\":6540:6703  function addAddressToFundRaiser(address addr) public onlyOwner {... */\n      pop\n      jump\t// out\n        /* \"Campaigns.sol\":4324:4860  function createKYCRequest(... */\n    tag_41:\n        /* \"Campaigns.sol\":4575:4603  KYCRequest memory newRequest */\n      0x00\n        /* \"Campaigns.sol\":4606:4815  KYCRequest(... */\n      mload(0x40)\n      dup1\n      0x0100\n      add\n      0x40\n      mstore\n      dup1\n        /* \"Campaigns.sol\":4630:4641  _first_name */\n      dup9\n        /* \"Campaigns.sol\":4606:4815  KYCRequest(... */\n      dup2\n      mstore\n      0x20\n      add\n        /* \"Campaigns.sol\":4655:4665  _last_name */\n      dup8\n        /* \"Campaigns.sol\":4606:4815  KYCRequest(... */\n      dup2\n      mstore\n      0x20\n      add\n        /* \"Campaigns.sol\":4679:4685  _email */\n      dup7\n        /* \"Campaigns.sol\":4606:4815  KYCRequest(... */\n      dup2\n      mstore\n      0x20\n      add\n        /* \"Campaigns.sol\":4699:4705  _phone */\n      dup6\n        /* \"Campaigns.sol\":4606:4815  KYCRequest(... */\n      dup2\n      mstore\n      0x20\n      add\n        /* \"Campaigns.sol\":4719:4729  msg.sender */\n      caller\n        /* \"Campaigns.sol\":4606:4815  KYCRequest(... */\n      0xffffffffffffffffffffffffffffffffffffffff\n      and\n      dup2\n      mstore\n      0x20\n      add\n        /* \"Campaigns.sol\":4743:4751  _doctype */\n      dup5\n        /* \"Campaigns.sol\":4606:4815  KYCRequest(... */\n      dup2\n      mstore\n      0x20\n      add\n        /* \"Campaigns.sol\":4765:4782  _role_applied_for */\n      dup4\n        /* \"Campaigns.sol\":4606:4815  KYCRequest(... */\n      dup2\n      mstore\n      0x20\n      add\n      mload(0x40)\n      dup1\n      0x40\n      add\n      0x40\n      mstore\n      dup1\n      0x07\n      dup2\n      mstore\n      0x20\n      add\n      0x50656e64696e6700000000000000000000000000000000000000000000000000\n      dup2\n      mstore\n      pop\n      dup2\n      mstore\n      pop\n        /* \"Campaigns.sol\":4575:4815  KYCRequest memory newRequest = KYCRequest(... */\n      swap1\n      pop\n        /* \"Campaigns.sol\":4825:4836  kycRequests */\n      0x02\n        /* \"Campaigns.sol\":4842:4852  newRequest */\n      dup2\n        /* \"Campaigns.sol\":4825:4853  kycRequests.push(newRequest) */\n      swap1\n      dup1\n      0x01\n      dup2\n      sload\n      add\n      dup1\n      dup3\n      sstore\n      dup1\n      swap2\n      pop\n      pop\n      0x01\n      swap1\n      sub\n      swap1\n      0x00\n      mstore\n      keccak256(0x00, 0x20)\n      swap1\n      0x08\n      mul\n      add\n      0x00\n      swap1\n      swap2\n      swap1\n      swap2\n      swap1\n      swap2\n      pop\n      0x00\n      dup3\n      add\n      mload\n      dup2\n      0x00\n      add\n      swap1\n      dup1\n      mload\n      swap1\n      0x20\n      add\n      swap1\n      tag_130\n      swap3\n      swap2\n      swap1\n      tag_131\n      jump\t// in\n    tag_130:\n      pop\n      0x20\n      dup3\n      add\n      mload\n      dup2\n      0x01\n      add\n      swap1\n      dup1\n      mload\n      swap1\n      0x20\n      add\n      swap1\n      tag_132\n      swap3\n      swap2\n      swap1\n      tag_131\n      jump\t// in\n    tag_132:\n      pop\n      0x40\n      dup3\n      add\n      mload\n      dup2\n      0x02\n      add\n      swap1\n      dup1\n      mload\n      swap1\n      0x20\n      add\n      swap1\n      tag_133\n      swap3\n      swap2\n      swap1\n      tag_131\n      jump\t// in\n    tag_133:\n      pop\n      0x60\n      dup3\n      add\n      mload\n      dup2\n      0x03\n      add\n      swap1\n      dup1\n      mload\n      swap1\n      0x20\n      add\n      swap1\n      tag_134\n      swap3\n      swap2\n      swap1\n      tag_131\n      jump\t// in\n    tag_134:\n      pop\n      0x80\n      dup3\n      add\n      mload\n      dup2\n      0x04\n      add\n      exp(0x0100, 0x00)\n      dup2\n      sload\n      dup2\n      0xffffffffffffffffffffffffffffffffffffffff\n      mul\n      not\n      and\n      swap1\n      dup4\n      0xffffffffffffffffffffffffffffffffffffffff\n      and\n      mul\n      or\n      swap1\n      sstore\n      pop\n      0xa0\n      dup3\n      add\n      mload\n      dup2\n      0x05\n      add\n      swap1\n      dup1\n      mload\n      swap1\n      0x20\n      add\n      swap1\n      tag_135\n      swap3\n      swap2\n      swap1\n      tag_131\n      jump\t// in\n    tag_135:\n      pop\n      0xc0\n      dup3\n      add\n      mload\n      dup2\n      0x06\n      add\n      swap1\n      dup1\n      mload\n      swap1\n      0x20\n      add\n      swap1\n      tag_136\n      swap3\n      swap2\n      swap1\n      tag_131\n      jump\t// in\n    tag_136:\n      pop\n      0xe0\n      dup3\n      add\n      mload\n      dup2\n      0x07\n      add\n      swap1\n      dup1\n      mload\n      swap1\n      0x20\n      add\n      swap1\n      tag_137\n      swap3\n      swap2\n      swap1\n      tag_131\n      jump\t// in\n    tag_137:\n      pop\n      pop\n      pop\n        /* \"Campaigns.sol\":4565:4860  {... */\n      pop\n        /* \"Campaigns.sol\":4324:4860  function createKYCRequest(... */\n      pop\n      pop\n      pop\n      pop\n      pop\n      pop\n      jump\t// out\n        /* \"Campaigns.sol\":1210:1369  function hasRole(address addr, string memory roleName)... */\n    tag_44:\n        /* \"Campaigns.sol\":1310:1314  bool */\n      0x00\n        /* \"Campaigns.sol\":1337:1362  roles[roleName].has(addr) */\n      tag_139\n        /* \"Campaigns.sol\":1357:1361  addr */\n      dup4\n        /* \"Campaigns.sol\":1337:1342  roles */\n      0x01\n        /* \"Campaigns.sol\":1343:1351  roleName */\n      dup5\n        /* \"Campaigns.sol\":1337:1352  roles[roleName] */\n      mload(0x40)\n      tag_140\n      swap2\n      swap1\n      tag_120\n      jump\t// in\n    tag_140:\n      swap1\n      dup2\n      mstore\n      0x20\n      add\n      mload(0x40)\n      dup1\n      swap2\n      sub\n      swap1\n      keccak256\n        /* \"Campaigns.sol\":1337:1356  roles[roleName].has */\n      tag_141\n      swap1\n        /* \"Campaigns.sol\":1337:1362  roles[roleName].has(addr) */\n      swap2\n      swap1\n      0xffffffff\n      and\n      jump\t// in\n    tag_139:\n        /* \"Campaigns.sol\":1330:1362  return roles[roleName].has(addr) */\n      swap1\n      pop\n        /* \"Campaigns.sol\":1210:1369  function hasRole(address addr, string memory roleName)... */\n      swap3\n      swap2\n      pop\n      pop\n      jump\t// out\n        /* \"Campaigns.sol\":5035:5725  function approveKYCRequest(address addr, string memory role_applied)... */\n    tag_49:\n        /* \"Campaigns.sol\":3763:3799  checkRole(msg.sender, FUND_APPROVER) */\n      tag_143\n        /* \"Campaigns.sol\":3773:3783  msg.sender */\n      caller\n        /* \"Campaigns.sol\":3785:3798  FUND_APPROVER */\n      mload(0x40)\n      dup1\n      0x40\n      add\n      0x40\n      mstore\n      dup1\n      0x0d\n      dup2\n      mstore\n      0x20\n      add\n      0x66756e645f617070726f76657200000000000000000000000000000000000000\n      dup2\n      mstore\n      pop\n        /* \"Campaigns.sol\":3763:3772  checkRole */\n      tag_33\n        /* \"Campaigns.sol\":3763:3799  checkRole(msg.sender, FUND_APPROVER) */\n      jump\t// in\n    tag_143:\n        /* \"Campaigns.sol\":5254:5265  FUND_RAISER */\n      mload(0x40)\n      dup1\n      0x40\n      add\n      0x40\n      mstore\n      dup1\n      0x0b\n      dup2\n      mstore\n      0x20\n      add\n      0x66756e645f726169736572000000000000000000000000000000000000000000\n      dup2\n      mstore\n      pop\n        /* \"Campaigns.sol\":5236:5267  abi.encodePacked((FUND_RAISER)) */\n      add(0x20, mload(0x40))\n      tag_145\n      swap2\n      swap1\n      tag_120\n      jump\t// in\n    tag_145:\n      mload(0x40)\n      0x20\n      dup2\n      dup4\n      sub\n      sub\n      dup2\n      mstore\n      swap1\n      0x40\n      mstore\n        /* \"Campaigns.sol\":5226:5268  keccak256(abi.encodePacked((FUND_RAISER))) */\n      dup1\n      mload\n      swap1\n      0x20\n      add\n      keccak256\n        /* \"Campaigns.sol\":5195:5207  role_applied */\n      dup2\n        /* \"Campaigns.sol\":5177:5209  abi.encodePacked((role_applied)) */\n      add(0x20, mload(0x40))\n      tag_146\n      swap2\n      swap1\n      tag_120\n      jump\t// in\n    tag_146:\n      mload(0x40)\n      0x20\n      dup2\n      dup4\n      sub\n      sub\n      dup2\n      mstore\n      swap1\n      0x40\n      mstore\n        /* \"Campaigns.sol\":5167:5210  keccak256(abi.encodePacked((role_applied))) */\n      dup1\n      mload\n      swap1\n      0x20\n      add\n      keccak256\n        /* \"Campaigns.sol\":5167:5268  keccak256(abi.encodePacked((role_applied))) ==... */\n      sub\n        /* \"Campaigns.sol\":5150:5391  if (... */\n      tag_147\n      jumpi\n        /* \"Campaigns.sol\":5293:5319  addRole(addr, FUND_RAISER) */\n      tag_148\n        /* \"Campaigns.sol\":5301:5305  addr */\n      dup3\n        /* \"Campaigns.sol\":5307:5318  FUND_RAISER */\n      mload(0x40)\n      dup1\n      0x40\n      add\n      0x40\n      mstore\n      dup1\n      0x0b\n      dup2\n      mstore\n      0x20\n      add\n      0x66756e645f726169736572000000000000000000000000000000000000000000\n      dup2\n      mstore\n      pop\n        /* \"Campaigns.sol\":5293:5300  addRole */\n      tag_79\n        /* \"Campaigns.sol\":5293:5319  addRole(addr, FUND_RAISER) */\n      jump\t// in\n    tag_148:\n        /* \"Campaigns.sol\":5338:5380  WhitelistedAddressAdded(addr, FUND_RAISER) */\n      0x7d02e6403c89cb5aa8f22321b96fd9357cf8895e4a77c10e16c55aa5fc589d20\n        /* \"Campaigns.sol\":5362:5366  addr */\n      dup3\n        /* \"Campaigns.sol\":5368:5379  FUND_RAISER */\n      mload(0x40)\n      dup1\n      0x40\n      add\n      0x40\n      mstore\n      dup1\n      0x0b\n      dup2\n      mstore\n      0x20\n      add\n      0x66756e645f726169736572000000000000000000000000000000000000000000\n      dup2\n      mstore\n      pop\n        /* \"Campaigns.sol\":5338:5380  WhitelistedAddressAdded(addr, FUND_RAISER) */\n      mload(0x40)\n      tag_149\n      swap3\n      swap2\n      swap1\n      tag_127\n      jump\t// in\n    tag_149:\n      mload(0x40)\n      dup1\n      swap2\n      sub\n      swap1\n      log1\n        /* \"Campaigns.sol\":5150:5391  if (... */\n    tag_147:\n        /* \"Campaigns.sol\":5504:5520  FUND_CONTRIBUTOR */\n      mload(0x40)\n      dup1\n      0x40\n      add\n      0x40\n      mstore\n      dup1\n      0x10\n      dup2\n      mstore\n      0x20\n      add\n      0x66756e645f636f6e7472696275746f7200000000000000000000000000000000\n      dup2\n      mstore\n      pop\n        /* \"Campaigns.sol\":5486:5522  abi.encodePacked((FUND_CONTRIBUTOR)) */\n      add(0x20, mload(0x40))\n      tag_150\n      swap2\n      swap1\n      tag_120\n      jump\t// in\n    tag_150:\n      mload(0x40)\n      0x20\n      dup2\n      dup4\n      sub\n      sub\n      dup2\n      mstore\n      swap1\n      0x40\n      mstore\n        /* \"Campaigns.sol\":5476:5523  keccak256(abi.encodePacked((FUND_CONTRIBUTOR))) */\n      dup1\n      mload\n      swap1\n      0x20\n      add\n      keccak256\n        /* \"Campaigns.sol\":5445:5457  role_applied */\n      dup2\n        /* \"Campaigns.sol\":5427:5459  abi.encodePacked((role_applied)) */\n      add(0x20, mload(0x40))\n      tag_151\n      swap2\n      swap1\n      tag_120\n      jump\t// in\n    tag_151:\n      mload(0x40)\n      0x20\n      dup2\n      dup4\n      sub\n      sub\n      dup2\n      mstore\n      swap1\n      0x40\n      mstore\n        /* \"Campaigns.sol\":5417:5460  keccak256(abi.encodePacked((role_applied))) */\n      dup1\n      mload\n      swap1\n      0x20\n      add\n      keccak256\n        /* \"Campaigns.sol\":5417:5523  keccak256(abi.encodePacked((role_applied))) ==... */\n      sub\n        /* \"Campaigns.sol\":5400:5656  if (... */\n      tag_152\n      jumpi\n        /* \"Campaigns.sol\":5548:5579  addRole(addr, FUND_CONTRIBUTOR) */\n      tag_153\n        /* \"Campaigns.sol\":5556:5560  addr */\n      dup3\n        /* \"Campaigns.sol\":5562:5578  FUND_CONTRIBUTOR */\n      mload(0x40)\n      dup1\n      0x40\n      add\n      0x40\n      mstore\n      dup1\n      0x10\n      dup2\n      mstore\n      0x20\n      add\n      0x66756e645f636f6e7472696275746f7200000000000000000000000000000000\n      dup2\n      mstore\n      pop\n        /* \"Campaigns.sol\":5548:5555  addRole */\n      tag_79\n        /* \"Campaigns.sol\":5548:5579  addRole(addr, FUND_CONTRIBUTOR) */\n      jump\t// in\n    tag_153:\n        /* \"Campaigns.sol\":5598:5645  WhitelistedAddressAdded(addr, FUND_CONTRIBUTOR) */\n      0x7d02e6403c89cb5aa8f22321b96fd9357cf8895e4a77c10e16c55aa5fc589d20\n        /* \"Campaigns.sol\":5622:5626  addr */\n      dup3\n        /* \"Campaigns.sol\":5628:5644  FUND_CONTRIBUTOR */\n      mload(0x40)\n      dup1\n      0x40\n      add\n      0x40\n      mstore\n      dup1\n      0x10\n      dup2\n      mstore\n      0x20\n      add\n      0x66756e645f636f6e7472696275746f7200000000000000000000000000000000\n      dup2\n      mstore\n      pop\n        /* \"Campaigns.sol\":5598:5645  WhitelistedAddressAdded(addr, FUND_CONTRIBUTOR) */\n      mload(0x40)\n      tag_154\n      swap3\n      swap2\n      swap1\n      tag_127\n      jump\t// in\n    tag_154:\n      mload(0x40)\n      dup1\n      swap2\n      sub\n      swap1\n      log1\n        /* \"Campaigns.sol\":5400:5656  if (... */\n    tag_152:\n        /* \"Campaigns.sol\":5665:5718  updateStatusOfRequest(addr, role_applied, \"Approved\") */\n      tag_155\n        /* \"Campaigns.sol\":5687:5691  addr */\n      dup3\n        /* \"Campaigns.sol\":5693:5705  role_applied */\n      dup3\n        /* \"Campaigns.sol\":5665:5718  updateStatusOfRequest(addr, role_applied, \"Approved\") */\n      mload(0x40)\n      dup1\n      0x40\n      add\n      0x40\n      mstore\n      dup1\n      0x08\n      dup2\n      mstore\n      0x20\n      add\n      0x417070726f766564000000000000000000000000000000000000000000000000\n      dup2\n      mstore\n      pop\n        /* \"Campaigns.sol\":5665:5686  updateStatusOfRequest */\n      tag_156\n        /* \"Campaigns.sol\":5665:5718  updateStatusOfRequest(addr, role_applied, \"Approved\") */\n      jump\t// in\n    tag_155:\n        /* \"Campaigns.sol\":5035:5725  function approveKYCRequest(address addr, string memory role_applied)... */\n      pop\n      pop\n      jump\t// out\n        /* \"Campaigns.sol\":4259:4290  KYCRequest[] public kycRequests */\n    tag_53:\n      0x02\n      dup2\n      dup2\n      sload\n      dup2\n      lt\n      tag_157\n      jumpi\n      0x00\n      dup1\n      revert\n    tag_157:\n      swap1\n      0x00\n      mstore\n      keccak256(0x00, 0x20)\n      swap1\n      0x08\n      mul\n      add\n      0x00\n      swap2\n      pop\n      swap1\n      pop\n      dup1\n      0x00\n      add\n      dup1\n      sload\n      tag_159\n      swap1\n      tag_160\n      jump\t// in\n    tag_159:\n      dup1\n      0x1f\n      add\n      0x20\n      dup1\n      swap2\n      div\n      mul\n      0x20\n      add\n      mload(0x40)\n      swap1\n      dup2\n      add\n      0x40\n      mstore\n      dup1\n      swap3\n      swap2\n      swap1\n      dup2\n      dup2\n      mstore\n      0x20\n      add\n      dup3\n      dup1\n      sload\n      tag_161\n      swap1\n      tag_160\n      jump\t// in\n    tag_161:\n      dup1\n      iszero\n      tag_162\n      jumpi\n      dup1\n      0x1f\n      lt\n      tag_163\n      jumpi\n      0x0100\n      dup1\n      dup4\n      sload\n      div\n      mul\n      dup4\n      mstore\n      swap2\n      0x20\n      add\n      swap2\n      jump(tag_162)\n    tag_163:\n      dup3\n      add\n      swap2\n      swap1\n      0x00\n      mstore\n      keccak256(0x00, 0x20)\n      swap1\n    tag_164:\n      dup2\n      sload\n      dup2\n      mstore\n      swap1\n      0x01\n      add\n      swap1\n      0x20\n      add\n      dup1\n      dup4\n      gt\n      tag_164\n      jumpi\n      dup3\n      swap1\n      sub\n      0x1f\n      and\n      dup3\n      add\n      swap2\n    tag_162:\n      pop\n      pop\n      pop\n      pop\n      pop\n      swap1\n      dup1\n      0x01\n      add\n      dup1\n      sload\n      tag_165\n      swap1\n      tag_160\n      jump\t// in\n    tag_165:\n      dup1\n      0x1f\n      add\n      0x20\n      dup1\n      swap2\n      div\n      mul\n      0x20\n      add\n      mload(0x40)\n      swap1\n      dup2\n      add\n      0x40\n      mstore\n      dup1\n      swap3\n      swap2\n      swap1\n      dup2\n      dup2\n      mstore\n      0x20\n      add\n      dup3\n      dup1\n      sload\n      tag_166\n      swap1\n      tag_160\n      jump\t// in\n    tag_166:\n      dup1\n      iszero\n      tag_167\n      jumpi\n      dup1\n      0x1f\n      lt\n      tag_168\n      jumpi\n      0x0100\n      dup1\n      dup4\n      sload\n      div\n      mul\n      dup4\n      mstore\n      swap2\n      0x20\n      add\n      swap2\n      jump(tag_167)\n    tag_168:\n      dup3\n      add\n      swap2\n      swap1\n      0x00\n      mstore\n      keccak256(0x00, 0x20)\n      swap1\n    tag_169:\n      dup2\n      sload\n      dup2\n      mstore\n      swap1\n      0x01\n      add\n      swap1\n      0x20\n      add\n      dup1\n      dup4\n      gt\n      tag_169\n      jumpi\n      dup3\n      swap1\n      sub\n      0x1f\n      and\n      dup3\n      add\n      swap2\n    tag_167:\n      pop\n      pop\n      pop\n      pop\n      pop\n      swap1\n      dup1\n      0x02\n      add\n      dup1\n      sload\n      tag_170\n      swap1\n      tag_160\n      jump\t// in\n    tag_170:\n      dup1\n      0x1f\n      add\n      0x20\n      dup1\n      swap2\n      div\n      mul\n      0x20\n      add\n      mload(0x40)\n      swap1\n      dup2\n      add\n      0x40\n      mstore\n      dup1\n      swap3\n      swap2\n      swap1\n      dup2\n      dup2\n      mstore\n      0x20\n      add\n      dup3\n      dup1\n      sload\n      tag_171\n      swap1\n      tag_160\n      jump\t// in\n    tag_171:\n      dup1\n      iszero\n      tag_172\n      jumpi\n      dup1\n      0x1f\n      lt\n      tag_173\n      jumpi\n      0x0100\n      dup1\n      dup4\n      sload\n      div\n      mul\n      dup4\n      mstore\n      swap2\n      0x20\n      add\n      swap2\n      jump(tag_172)\n    tag_173:\n      dup3\n      add\n      swap2\n      swap1\n      0x00\n      mstore\n      keccak256(0x00, 0x20)\n      swap1\n    tag_174:\n      dup2\n      sload\n      dup2\n      mstore\n      swap1\n      0x01\n      add\n      swap1\n      0x20\n      add\n      dup1\n      dup4\n      gt\n      tag_174\n      jumpi\n      dup3\n      swap1\n      sub\n      0x1f\n      and\n      dup3\n      add\n      swap2\n    tag_172:\n      pop\n      pop\n      pop\n      pop\n      pop\n      swap1\n      dup1\n      0x03\n      add\n      dup1\n      sload\n      tag_175\n      swap1\n      tag_160\n      jump\t// in\n    tag_175:\n      dup1\n      0x1f\n      add\n      0x20\n      dup1\n      swap2\n      div\n      mul\n      0x20\n      add\n      mload(0x40)\n      swap1\n      dup2\n      add\n      0x40\n      mstore\n      dup1\n      swap3\n      swap2\n      swap1\n      dup2\n      dup2\n      mstore\n      0x20\n      add\n      dup3\n      dup1\n      sload\n      tag_176\n      swap1\n      tag_160\n      jump\t// in\n    tag_176:\n      dup1\n      iszero\n      tag_177\n      jumpi\n      dup1\n      0x1f\n      lt\n      tag_178\n      jumpi\n      0x0100\n      dup1\n      dup4\n      sload\n      div\n      mul\n      dup4\n      mstore\n      swap2\n      0x20\n      add\n      swap2\n      jump(tag_177)\n    tag_178:\n      dup3\n      add\n      swap2\n      swap1\n      0x00\n      mstore\n      keccak256(0x00, 0x20)\n      swap1\n    tag_179:\n      dup2\n      sload\n      dup2\n      mstore\n      swap1\n      0x01\n      add\n      swap1\n      0x20\n      add\n      dup1\n      dup4\n      gt\n      tag_179\n      jumpi\n      dup3\n      swap1\n      sub\n      0x1f\n      and\n      dup3\n      add\n      swap2\n    tag_177:\n      pop\n      pop\n      pop\n      pop\n      pop\n      swap1\n      dup1\n      0x04\n      add\n      0x00\n      swap1\n      sload\n      swap1\n      0x0100\n      exp\n      swap1\n      div\n      0xffffffffffffffffffffffffffffffffffffffff\n      and\n      swap1\n      dup1\n      0x05\n      add\n      dup1\n      sload\n      tag_180\n      swap1\n      tag_160\n      jump\t// in\n    tag_180:\n      dup1\n      0x1f\n      add\n      0x20\n      dup1\n      swap2\n      div\n      mul\n      0x20\n      add\n      mload(0x40)\n      swap1\n      dup2\n      add\n      0x40\n      mstore\n      dup1\n      swap3\n      swap2\n      swap1\n      dup2\n      dup2\n      mstore\n      0x20\n      add\n      dup3\n      dup1\n      sload\n      tag_181\n      swap1\n      tag_160\n      jump\t// in\n    tag_181:\n      dup1\n      iszero\n      tag_182\n      jumpi\n      dup1\n      0x1f\n      lt\n      tag_183\n      jumpi\n      0x0100\n      dup1\n      dup4\n      sload\n      div\n      mul\n      dup4\n      mstore\n      swap2\n      0x20\n      add\n      swap2\n      jump(tag_182)\n    tag_183:\n      dup3\n      add\n      swap2\n      swap1\n      0x00\n      mstore\n      keccak256(0x00, 0x20)\n      swap1\n    tag_184:\n      dup2\n      sload\n      dup2\n      mstore\n      swap1\n      0x01\n      add\n      swap1\n      0x20\n      add\n      dup1\n      dup4\n      gt\n      tag_184\n      jumpi\n      dup3\n      swap1\n      sub\n      0x1f\n      and\n      dup3\n      add\n      swap2\n    tag_182:\n      pop\n      pop\n      pop\n      pop\n      pop\n      swap1\n      dup1\n      0x06\n      add\n      dup1\n      sload\n      tag_185\n      swap1\n      tag_160\n      jump\t// in\n    tag_185:\n      dup1\n      0x1f\n      add\n      0x20\n      dup1\n      swap2\n      div\n      mul\n      0x20\n      add\n      mload(0x40)\n      swap1\n      dup2\n      add\n      0x40\n      mstore\n      dup1\n      swap3\n      swap2\n      swap1\n      dup2\n      dup2\n      mstore\n      0x20\n      add\n      dup3\n      dup1\n      sload\n      tag_186\n      swap1\n      tag_160\n      jump\t// in\n    tag_186:\n      dup1\n      iszero\n      tag_187\n      jumpi\n      dup1\n      0x1f\n      lt\n      tag_188\n      jumpi\n      0x0100\n      dup1\n      dup4\n      sload\n      div\n      mul\n      dup4\n      mstore\n      swap2\n      0x20\n      add\n      swap2\n      jump(tag_187)\n    tag_188:\n      dup3\n      add\n      swap2\n      swap1\n      0x00\n      mstore\n      keccak256(0x00, 0x20)\n      swap1\n    tag_189:\n      dup2\n      sload\n      dup2\n      mstore\n      swap1\n      0x01\n      add\n      swap1\n      0x20\n      add\n      dup1\n      dup4\n      gt\n      tag_189\n      jumpi\n      dup3\n      swap1\n      sub\n      0x1f\n      and\n      dup3\n      add\n      swap2\n    tag_187:\n      pop\n      pop\n      pop\n      pop\n      pop\n      swap1\n      dup1\n      0x07\n      add\n      dup1\n      sload\n      tag_190\n      swap1\n      tag_160\n      jump\t// in\n    tag_190:\n      dup1\n      0x1f\n      add\n      0x20\n      dup1\n      swap2\n      div\n      mul\n      0x20\n      add\n      mload(0x40)\n      swap1\n      dup2\n      add\n      0x40\n      mstore\n      dup1\n      swap3\n      swap2\n      swap1\n      dup2\n      dup2\n      mstore\n      0x20\n      add\n      dup3\n      dup1\n      sload\n      tag_191\n      swap1\n      tag_160\n      jump\t// in\n    tag_191:\n      dup1\n      iszero\n      tag_192\n      jumpi\n      dup1\n      0x1f\n      lt\n      tag_193\n      jumpi\n      0x0100\n      dup1\n      dup4\n      sload\n      div\n      mul\n      dup4\n      mstore\n      swap2\n      0x20\n      add\n      swap2\n      jump(tag_192)\n    tag_193:\n      dup3\n      add\n      swap2\n      swap1\n      0x00\n      mstore\n      keccak256(0x00, 0x20)\n      swap1\n    tag_194:\n      dup2\n      sload\n      dup2\n      mstore\n      swap1\n      0x01\n      add\n      swap1\n      0x20\n      add\n      dup1\n      dup4\n      gt\n      tag_194\n      jumpi\n      dup3\n      swap1\n      sub\n      0x1f\n      and\n      dup3\n      add\n      swap2\n    tag_192:\n      pop\n      pop\n      pop\n      pop\n      pop\n      swap1\n      pop\n      dup9\n      jump\t// out\n        /* \"Campaigns.sol\":7803:7991  function removeAddressFromFundContributor(address addr) public onlyOwner {... */\n    tag_58:\n        /* \"Campaigns.sol\":2329:2334  owner */\n      0x00\n      dup1\n      sload\n      swap1\n      0x0100\n      exp\n      swap1\n      div\n      0xffffffffffffffffffffffffffffffffffffffff\n      and\n        /* \"Campaigns.sol\":2315:2334  msg.sender == owner */\n      0xffffffffffffffffffffffffffffffffffffffff\n      and\n        /* \"Campaigns.sol\":2315:2325  msg.sender */\n      caller\n        /* \"Campaigns.sol\":2315:2334  msg.sender == owner */\n      0xffffffffffffffffffffffffffffffffffffffff\n      and\n      eq\n        /* \"Campaigns.sol\":2307:2335  require(msg.sender == owner) */\n      tag_196\n      jumpi\n      0x00\n      dup1\n      revert\n    tag_196:\n        /* \"Campaigns.sol\":7886:7920  removeRole(addr, FUND_CONTRIBUTOR) */\n      tag_198\n        /* \"Campaigns.sol\":7897:7901  addr */\n      dup2\n        /* \"Campaigns.sol\":7903:7919  FUND_CONTRIBUTOR */\n      mload(0x40)\n      dup1\n      0x40\n      add\n      0x40\n      mstore\n      dup1\n      0x10\n      dup2\n      mstore\n      0x20\n      add\n      0x66756e645f636f6e7472696275746f7200000000000000000000000000000000\n      dup2\n      mstore\n      pop\n        /* \"Campaigns.sol\":7886:7896  removeRole */\n      tag_199\n        /* \"Campaigns.sol\":7886:7920  removeRole(addr, FUND_CONTRIBUTOR) */\n      jump\t// in\n    tag_198:\n        /* \"Campaigns.sol\":7935:7984  WhitelistedAddressRemoved(addr, FUND_CONTRIBUTOR) */\n      0x420b6d6124d847399574626cc16ce1504c11d6923c10c76900fe29c2933e310f\n        /* \"Campaigns.sol\":7961:7965  addr */\n      dup2\n        /* \"Campaigns.sol\":7967:7983  FUND_CONTRIBUTOR */\n      mload(0x40)\n      dup1\n      0x40\n      add\n      0x40\n      mstore\n      dup1\n      0x10\n      dup2\n      mstore\n      0x20\n      add\n      0x66756e645f636f6e7472696275746f7200000000000000000000000000000000\n      dup2\n      mstore\n      pop\n        /* \"Campaigns.sol\":7935:7984  WhitelistedAddressRemoved(addr, FUND_CONTRIBUTOR) */\n      mload(0x40)\n      tag_200\n      swap3\n      swap2\n      swap1\n      tag_127\n      jump\t// in\n    tag_200:\n      mload(0x40)\n      dup1\n      swap2\n      sub\n      swap1\n      log1\n        /* \"Campaigns.sol\":7803:7991  function removeAddressFromFundContributor(address addr) public onlyOwner {... */\n      pop\n      jump\t// out\n        /* \"Campaigns.sol\":7068:7185  function isFundApprover(address addr) public view returns (bool) {... */\n    tag_61:\n        /* \"Campaigns.sol\":7127:7131  bool */\n      0x00\n        /* \"Campaigns.sol\":7150:7178  hasRole(addr, FUND_APPROVER) */\n      tag_202\n        /* \"Campaigns.sol\":7158:7162  addr */\n      dup3\n        /* \"Campaigns.sol\":7164:7177  FUND_APPROVER */\n      mload(0x40)\n      dup1\n      0x40\n      add\n      0x40\n      mstore\n      dup1\n      0x0d\n      dup2\n      mstore\n      0x20\n      add\n      0x66756e645f617070726f76657200000000000000000000000000000000000000\n      dup2\n      mstore\n      pop\n        /* \"Campaigns.sol\":7150:7157  hasRole */\n      tag_44\n        /* \"Campaigns.sol\":7150:7178  hasRole(addr, FUND_APPROVER) */\n      jump\t// in\n    tag_202:\n        /* \"Campaigns.sol\":7143:7178  return hasRole(addr, FUND_APPROVER) */\n      swap1\n      pop\n        /* \"Campaigns.sol\":7068:7185  function isFundApprover(address addr) public view returns (bool) {... */\n      swap2\n      swap1\n      pop\n      jump\t// out\n        /* \"Campaigns.sol\":6884:7062  function addAddressToFundContributor(address addr) public onlyOwner {... */\n    tag_65:\n        /* \"Campaigns.sol\":2329:2334  owner */\n      0x00\n      dup1\n      sload\n      swap1\n      0x0100\n      exp\n      swap1\n      div\n      0xffffffffffffffffffffffffffffffffffffffff\n      and\n        /* \"Campaigns.sol\":2315:2334  msg.sender == owner */\n      0xffffffffffffffffffffffffffffffffffffffff\n      and\n        /* \"Campaigns.sol\":2315:2325  msg.sender */\n      caller\n        /* \"Campaigns.sol\":2315:2334  msg.sender == owner */\n      0xffffffffffffffffffffffffffffffffffffffff\n      and\n      eq\n        /* \"Campaigns.sol\":2307:2335  require(msg.sender == owner) */\n      tag_204\n      jumpi\n      0x00\n      dup1\n      revert\n    tag_204:\n        /* \"Campaigns.sol\":6962:6993  addRole(addr, FUND_CONTRIBUTOR) */\n      tag_206\n        /* \"Campaigns.sol\":6970:6974  addr */\n      dup2\n        /* \"Campaigns.sol\":6976:6992  FUND_CONTRIBUTOR */\n      mload(0x40)\n      dup1\n      0x40\n      add\n      0x40\n      mstore\n      dup1\n      0x10\n      dup2\n      mstore\n      0x20\n      add\n      0x66756e645f636f6e7472696275746f7200000000000000000000000000000000\n      dup2\n      mstore\n      pop\n        /* \"Campaigns.sol\":6962:6969  addRole */\n      tag_79\n        /* \"Campaigns.sol\":6962:6993  addRole(addr, FUND_CONTRIBUTOR) */\n      jump\t// in\n    tag_206:\n        /* \"Campaigns.sol\":7008:7055  WhitelistedAddressAdded(addr, FUND_CONTRIBUTOR) */\n      0x7d02e6403c89cb5aa8f22321b96fd9357cf8895e4a77c10e16c55aa5fc589d20\n        /* \"Campaigns.sol\":7032:7036  addr */\n      dup2\n        /* \"Campaigns.sol\":7038:7054  FUND_CONTRIBUTOR */\n      mload(0x40)\n      dup1\n      0x40\n      add\n      0x40\n      mstore\n      dup1\n      0x10\n      dup2\n      mstore\n      0x20\n      add\n      0x66756e645f636f6e7472696275746f7200000000000000000000000000000000\n      dup2\n      mstore\n      pop\n        /* \"Campaigns.sol\":7008:7055  WhitelistedAddressAdded(addr, FUND_CONTRIBUTOR) */\n      mload(0x40)\n      tag_207\n      swap3\n      swap2\n      swap1\n      tag_127\n      jump\t// in\n    tag_207:\n      mload(0x40)\n      dup1\n      swap2\n      sub\n      swap1\n      log1\n        /* \"Campaigns.sol\":6884:7062  function addAddressToFundContributor(address addr) public onlyOwner {... */\n      pop\n      jump\t// out\n        /* \"Campaigns.sol\":6709:6878  function addAddressToFundApprover(address addr) public onlyOwner {... */\n    tag_68:\n        /* \"Campaigns.sol\":2329:2334  owner */\n      0x00\n      dup1\n      sload\n      swap1\n      0x0100\n      exp\n      swap1\n      div\n      0xffffffffffffffffffffffffffffffffffffffff\n      and\n        /* \"Campaigns.sol\":2315:2334  msg.sender == owner */\n      0xffffffffffffffffffffffffffffffffffffffff\n      and\n        /* \"Campaigns.sol\":2315:2325  msg.sender */\n      caller\n        /* \"Campaigns.sol\":2315:2334  msg.sender == owner */\n      0xffffffffffffffffffffffffffffffffffffffff\n      and\n      eq\n        /* \"Campaigns.sol\":2307:2335  require(msg.sender == owner) */\n      tag_209\n      jumpi\n      0x00\n      dup1\n      revert\n    tag_209:\n        /* \"Campaigns.sol\":6784:6812  addRole(addr, FUND_APPROVER) */\n      tag_211\n        /* \"Campaigns.sol\":6792:6796  addr */\n      dup2\n        /* \"Campaigns.sol\":6798:6811  FUND_APPROVER */\n      mload(0x40)\n      dup1\n      0x40\n      add\n      0x40\n      mstore\n      dup1\n      0x0d\n      dup2\n      mstore\n      0x20\n      add\n      0x66756e645f617070726f76657200000000000000000000000000000000000000\n      dup2\n      mstore\n      pop\n        /* \"Campaigns.sol\":6784:6791  addRole */\n      tag_79\n        /* \"Campaigns.sol\":6784:6812  addRole(addr, FUND_APPROVER) */\n      jump\t// in\n    tag_211:\n        /* \"Campaigns.sol\":6827:6871  WhitelistedAddressAdded(addr, FUND_APPROVER) */\n      0x7d02e6403c89cb5aa8f22321b96fd9357cf8895e4a77c10e16c55aa5fc589d20\n        /* \"Campaigns.sol\":6851:6855  addr */\n      dup2\n        /* \"Campaigns.sol\":6857:6870  FUND_APPROVER */\n      mload(0x40)\n      dup1\n      0x40\n      add\n      0x40\n      mstore\n      dup1\n      0x0d\n      dup2\n      mstore\n      0x20\n      add\n      0x66756e645f617070726f76657200000000000000000000000000000000000000\n      dup2\n      mstore\n      pop\n        /* \"Campaigns.sol\":6827:6871  WhitelistedAddressAdded(addr, FUND_APPROVER) */\n      mload(0x40)\n      tag_212\n      swap3\n      swap2\n      swap1\n      tag_127\n      jump\t// in\n    tag_212:\n      mload(0x40)\n      dup1\n      swap2\n      sub\n      swap1\n      log1\n        /* \"Campaigns.sol\":6709:6878  function addAddressToFundApprover(address addr) public onlyOwner {... */\n      pop\n      jump\t// out\n        /* \"Campaigns.sol\":7624:7797  function removeAddressFromFundRaiser(address addr) public onlyOwner {... */\n    tag_71:\n        /* \"Campaigns.sol\":2329:2334  owner */\n      0x00\n      dup1\n      sload\n      swap1\n      0x0100\n      exp\n      swap1\n      div\n      0xffffffffffffffffffffffffffffffffffffffff\n      and\n        /* \"Campaigns.sol\":2315:2334  msg.sender == owner */\n      0xffffffffffffffffffffffffffffffffffffffff\n      and\n        /* \"Campaigns.sol\":2315:2325  msg.sender */\n      caller\n        /* \"Campaigns.sol\":2315:2334  msg.sender == owner */\n      0xffffffffffffffffffffffffffffffffffffffff\n      and\n      eq\n        /* \"Campaigns.sol\":2307:2335  require(msg.sender == owner) */\n      tag_214\n      jumpi\n      0x00\n      dup1\n      revert\n    tag_214:\n        /* \"Campaigns.sol\":7702:7731  removeRole(addr, FUND_RAISER) */\n      tag_216\n        /* \"Campaigns.sol\":7713:7717  addr */\n      dup2\n        /* \"Campaigns.sol\":7719:7730  FUND_RAISER */\n      mload(0x40)\n      dup1\n      0x40\n      add\n      0x40\n      mstore\n      dup1\n      0x0b\n      dup2\n      mstore\n      0x20\n      add\n      0x66756e645f726169736572000000000000000000000000000000000000000000\n      dup2\n      mstore\n      pop\n        /* \"Campaigns.sol\":7702:7712  removeRole */\n      tag_199\n        /* \"Campaigns.sol\":7702:7731  removeRole(addr, FUND_RAISER) */\n      jump\t// in\n    tag_216:\n        /* \"Campaigns.sol\":7746:7790  WhitelistedAddressRemoved(addr, FUND_RAISER) */\n      0x420b6d6124d847399574626cc16ce1504c11d6923c10c76900fe29c2933e310f\n        /* \"Campaigns.sol\":7772:7776  addr */\n      dup2\n        /* \"Campaigns.sol\":7778:7789  FUND_RAISER */\n      mload(0x40)\n      dup1\n      0x40\n      add\n      0x40\n      mstore\n      dup1\n      0x0b\n      dup2\n      mstore\n      0x20\n      add\n      0x66756e645f726169736572000000000000000000000000000000000000000000\n      dup2\n      mstore\n      pop\n        /* \"Campaigns.sol\":7746:7790  WhitelistedAddressRemoved(addr, FUND_RAISER) */\n      mload(0x40)\n      tag_217\n      swap3\n      swap2\n      swap1\n      tag_127\n      jump\t// in\n    tag_217:\n      mload(0x40)\n      dup1\n      swap2\n      sub\n      swap1\n      log1\n        /* \"Campaigns.sol\":7624:7797  function removeAddressFromFundRaiser(address addr) public onlyOwner {... */\n      pop\n      jump\t// out\n        /* \"Campaigns.sol\":2631:2752  function renounceOwnership() public onlyOwner {... */\n    tag_73:\n        /* \"Campaigns.sol\":2329:2334  owner */\n      0x00\n      dup1\n      sload\n      swap1\n      0x0100\n      exp\n      swap1\n      div\n      0xffffffffffffffffffffffffffffffffffffffff\n      and\n        /* \"Campaigns.sol\":2315:2334  msg.sender == owner */\n      0xffffffffffffffffffffffffffffffffffffffff\n      and\n        /* \"Campaigns.sol\":2315:2325  msg.sender */\n      caller\n        /* \"Campaigns.sol\":2315:2334  msg.sender == owner */\n      0xffffffffffffffffffffffffffffffffffffffff\n      and\n      eq\n        /* \"Campaigns.sol\":2307:2335  require(msg.sender == owner) */\n      tag_219\n      jumpi\n      0x00\n      dup1\n      revert\n    tag_219:\n        /* \"Campaigns.sol\":2711:2716  owner */\n      0x00\n      dup1\n      sload\n      swap1\n      0x0100\n      exp\n      swap1\n      div\n      0xffffffffffffffffffffffffffffffffffffffff\n      and\n        /* \"Campaigns.sol\":2692:2717  OwnershipRenounced(owner) */\n      0xffffffffffffffffffffffffffffffffffffffff\n      and\n      0xf8df31144d9c2f0f6b59d69b8b98abd5459d07f2742c4df920b25aae33c64820\n      mload(0x40)\n      mload(0x40)\n      dup1\n      swap2\n      sub\n      swap1\n      log2\n        /* \"Campaigns.sol\":2743:2744  0 */\n      0x00\n        /* \"Campaigns.sol\":2727:2732  owner */\n      dup1\n      0x00\n        /* \"Campaigns.sol\":2727:2745  owner = address(0) */\n      0x0100\n      exp\n      dup2\n      sload\n      dup2\n      0xffffffffffffffffffffffffffffffffffffffff\n      mul\n      not\n      and\n      swap1\n      dup4\n      0xffffffffffffffffffffffffffffffffffffffff\n      and\n      mul\n      or\n      swap1\n      sstore\n      pop\n        /* \"Campaigns.sol\":2631:2752  function renounceOwnership() public onlyOwner {... */\n      jump\t// out\n        /* \"Campaigns.sol\":5757:5919  function rejectKYCRequest(address addr, string memory role_applied) public onlyFundApprover {... */\n    tag_76:\n        /* \"Campaigns.sol\":3763:3799  checkRole(msg.sender, FUND_APPROVER) */\n      tag_222\n        /* \"Campaigns.sol\":3773:3783  msg.sender */\n      caller\n        /* \"Campaigns.sol\":3785:3798  FUND_APPROVER */\n      mload(0x40)\n      dup1\n      0x40\n      add\n      0x40\n      mstore\n      dup1\n      0x0d\n      dup2\n      mstore\n      0x20\n      add\n      0x66756e645f617070726f76657200000000000000000000000000000000000000\n      dup2\n      mstore\n      pop\n        /* \"Campaigns.sol\":3763:3772  checkRole */\n      tag_33\n        /* \"Campaigns.sol\":3763:3799  checkRole(msg.sender, FUND_APPROVER) */\n      jump\t// in\n    tag_222:\n        /* \"Campaigns.sol\":5859:5912  updateStatusOfRequest(addr, role_applied, \"Rejected\") */\n      tag_224\n        /* \"Campaigns.sol\":5881:5885  addr */\n      dup3\n        /* \"Campaigns.sol\":5887:5899  role_applied */\n      dup3\n        /* \"Campaigns.sol\":5859:5912  updateStatusOfRequest(addr, role_applied, \"Rejected\") */\n      mload(0x40)\n      dup1\n      0x40\n      add\n      0x40\n      mstore\n      dup1\n      0x08\n      dup2\n      mstore\n      0x20\n      add\n      0x52656a6563746564000000000000000000000000000000000000000000000000\n      dup2\n      mstore\n      pop\n        /* \"Campaigns.sol\":5859:5880  updateStatusOfRequest */\n      tag_156\n        /* \"Campaigns.sol\":5859:5912  updateStatusOfRequest(addr, role_applied, \"Rejected\") */\n      jump\t// in\n    tag_224:\n        /* \"Campaigns.sol\":5757:5919  function rejectKYCRequest(address addr, string memory role_applied) public onlyFundApprover {... */\n      pop\n      pop\n      jump\t// out\n        /* \"Campaigns.sol\":1375:1519  function addRole(address addr, string memory roleName) public {... */\n    tag_79:\n        /* \"Campaigns.sol\":1447:1472  roles[roleName].add(addr) */\n      tag_226\n        /* \"Campaigns.sol\":1467:1471  addr */\n      dup3\n        /* \"Campaigns.sol\":1447:1452  roles */\n      0x01\n        /* \"Campaigns.sol\":1453:1461  roleName */\n      dup4\n        /* \"Campaigns.sol\":1447:1462  roles[roleName] */\n      mload(0x40)\n      tag_227\n      swap2\n      swap1\n      tag_120\n      jump\t// in\n    tag_227:\n      swap1\n      dup2\n      mstore\n      0x20\n      add\n      mload(0x40)\n      dup1\n      swap2\n      sub\n      swap1\n      keccak256\n        /* \"Campaigns.sol\":1447:1466  roles[roleName].add */\n      tag_228\n      swap1\n        /* \"Campaigns.sol\":1447:1472  roles[roleName].add(addr) */\n      swap2\n      swap1\n      0xffffffff\n      and\n      jump\t// in\n    tag_226:\n        /* \"Campaigns.sol\":1487:1512  RoleAdded(addr, roleName) */\n      0xbfec83d64eaa953f2708271a023ab9ee82057f8f3578d548c1a4ba0b5b700489\n        /* \"Campaigns.sol\":1497:1501  addr */\n      dup3\n        /* \"Campaigns.sol\":1503:1511  roleName */\n      dup3\n        /* \"Campaigns.sol\":1487:1512  RoleAdded(addr, roleName) */\n      mload(0x40)\n      tag_229\n      swap3\n      swap2\n      swap1\n      tag_127\n      jump\t// in\n    tag_229:\n      mload(0x40)\n      dup1\n      swap2\n      sub\n      swap1\n      log1\n        /* \"Campaigns.sol\":1375:1519  function addRole(address addr, string memory roleName) public {... */\n      pop\n      pop\n      jump\t// out\n        /* \"Campaigns.sol\":3542:3592  string public constant FUND_RAISER = \"fund_raiser\" */\n    tag_81:\n      mload(0x40)\n      dup1\n      0x40\n      add\n      0x40\n      mstore\n      dup1\n      0x0b\n      dup2\n      mstore\n      0x20\n      add\n      0x66756e645f726169736572000000000000000000000000000000000000000000\n      dup2\n      mstore\n      pop\n      dup2\n      jump\t// out\n        /* \"Campaigns.sol\":7439:7618  function removeAddressFromFundApprover(address addr) public onlyOwner {... */\n    tag_86:\n        /* \"Campaigns.sol\":2329:2334  owner */\n      0x00\n      dup1\n      sload\n      swap1\n      0x0100\n      exp\n      swap1\n      div\n      0xffffffffffffffffffffffffffffffffffffffff\n      and\n        /* \"Campaigns.sol\":2315:2334  msg.sender == owner */\n      0xffffffffffffffffffffffffffffffffffffffff\n      and\n        /* \"Campaigns.sol\":2315:2325  msg.sender */\n      caller\n        /* \"Campaigns.sol\":2315:2334  msg.sender == owner */\n      0xffffffffffffffffffffffffffffffffffffffff\n      and\n      eq\n        /* \"Campaigns.sol\":2307:2335  require(msg.sender == owner) */\n      tag_231\n      jumpi\n      0x00\n      dup1\n      revert\n    tag_231:\n        /* \"Campaigns.sol\":7519:7550  removeRole(addr, FUND_APPROVER) */\n      tag_233\n        /* \"Campaigns.sol\":7530:7534  addr */\n      dup2\n        /* \"Campaigns.sol\":7536:7549  FUND_APPROVER */\n      mload(0x40)\n      dup1\n      0x40\n      add\n      0x40\n      mstore\n      dup1\n      0x0d\n      dup2\n      mstore\n      0x20\n      add\n      0x66756e645f617070726f76657200000000000000000000000000000000000000\n      dup2\n      mstore\n      pop\n        /* \"Campaigns.sol\":7519:7529  removeRole */\n      tag_199\n        /* \"Campaigns.sol\":7519:7550  removeRole(addr, FUND_APPROVER) */\n      jump\t// in\n    tag_233:\n        /* \"Campaigns.sol\":7565:7611  WhitelistedAddressRemoved(addr, FUND_APPROVER) */\n      0x420b6d6124d847399574626cc16ce1504c11d6923c10c76900fe29c2933e310f\n        /* \"Campaigns.sol\":7591:7595  addr */\n      dup2\n        /* \"Campaigns.sol\":7597:7610  FUND_APPROVER */\n      mload(0x40)\n      dup1\n      0x40\n      add\n      0x40\n      mstore\n      dup1\n      0x0d\n      dup2\n      mstore\n      0x20\n      add\n      0x66756e645f617070726f76657200000000000000000000000000000000000000\n      dup2\n      mstore\n      pop\n        /* \"Campaigns.sol\":7565:7611  WhitelistedAddressRemoved(addr, FUND_APPROVER) */\n      mload(0x40)\n      tag_234\n      swap3\n      swap2\n      swap1\n      tag_127\n      jump\t// in\n    tag_234:\n      mload(0x40)\n      dup1\n      swap2\n      sub\n      swap1\n      log1\n        /* \"Campaigns.sol\":7439:7618  function removeAddressFromFundApprover(address addr) public onlyOwner {... */\n      pop\n      jump\t// out\n        /* \"Campaigns.sol\":1815:1835  address public owner */\n    tag_88:\n      0x00\n      dup1\n      sload\n      swap1\n      0x0100\n      exp\n      swap1\n      div\n      0xffffffffffffffffffffffffffffffffffffffff\n      and\n      dup2\n      jump\t// out\n        /* \"Campaigns.sol\":7310:7433  function isFundContributor(address addr) public view returns (bool) {... */\n    tag_93:\n        /* \"Campaigns.sol\":7372:7376  bool */\n      0x00\n        /* \"Campaigns.sol\":7395:7426  hasRole(addr, FUND_CONTRIBUTOR) */\n      tag_236\n        /* \"Campaigns.sol\":7403:7407  addr */\n      dup3\n        /* \"Campaigns.sol\":7409:7425  FUND_CONTRIBUTOR */\n      mload(0x40)\n      dup1\n      0x40\n      add\n      0x40\n      mstore\n      dup1\n      0x10\n      dup2\n      mstore\n      0x20\n      add\n      0x66756e645f636f6e7472696275746f7200000000000000000000000000000000\n      dup2\n      mstore\n      pop\n        /* \"Campaigns.sol\":7395:7402  hasRole */\n      tag_44\n        /* \"Campaigns.sol\":7395:7426  hasRole(addr, FUND_CONTRIBUTOR) */\n      jump\t// in\n    tag_236:\n        /* \"Campaigns.sol\":7388:7426  return hasRole(addr, FUND_CONTRIBUTOR) */\n      swap1\n      pop\n        /* \"Campaigns.sol\":7310:7433  function isFundContributor(address addr) public view returns (bool) {... */\n      swap2\n      swap1\n      pop\n      jump\t// out\n        /* \"Campaigns.sol\":4892:4999  function fetchKYCRequests() public view returns (KYCRequest[] memory) {... */\n    tag_96:\n        /* \"Campaigns.sol\":4941:4960  KYCRequest[] memory */\n      0x60\n        /* \"Campaigns.sol\":4980:4991  kycRequests */\n      0x02\n        /* \"Campaigns.sol\":4972:4992  return (kycRequests) */\n      dup1\n      sload\n      dup1\n      0x20\n      mul\n      0x20\n      add\n      mload(0x40)\n      swap1\n      dup2\n      add\n      0x40\n      mstore\n      dup1\n      swap3\n      swap2\n      swap1\n      dup2\n      dup2\n      mstore\n      0x20\n      add\n      0x00\n      swap1\n    tag_238:\n      dup3\n      dup3\n      lt\n      iszero\n      tag_239\n      jumpi\n      dup4\n      dup3\n      swap1\n      0x00\n      mstore\n      keccak256(0x00, 0x20)\n      swap1\n      0x08\n      mul\n      add\n      mload(0x40)\n      dup1\n      0x0100\n      add\n      0x40\n      mstore\n      swap1\n      dup2\n      0x00\n      dup3\n      add\n      dup1\n      sload\n      tag_241\n      swap1\n      tag_160\n      jump\t// in\n    tag_241:\n      dup1\n      0x1f\n      add\n      0x20\n      dup1\n      swap2\n      div\n      mul\n      0x20\n      add\n      mload(0x40)\n      swap1\n      dup2\n      add\n      0x40\n      mstore\n      dup1\n      swap3\n      swap2\n      swap1\n      dup2\n      dup2\n      mstore\n      0x20\n      add\n      dup3\n      dup1\n      sload\n      tag_242\n      swap1\n      tag_160\n      jump\t// in\n    tag_242:\n      dup1\n      iszero\n      tag_243\n      jumpi\n      dup1\n      0x1f\n      lt\n      tag_244\n      jumpi\n      0x0100\n      dup1\n      dup4\n      sload\n      div\n      mul\n      dup4\n      mstore\n      swap2\n      0x20\n      add\n      swap2\n      jump(tag_243)\n    tag_244:\n      dup3\n      add\n      swap2\n      swap1\n      0x00\n      mstore\n      keccak256(0x00, 0x20)\n      swap1\n    tag_245:\n      dup2\n      sload\n      dup2\n      mstore\n      swap1\n      0x01\n      add\n      swap1\n      0x20\n      add\n      dup1\n      dup4\n      gt\n      tag_245\n      jumpi\n      dup3\n      swap1\n      sub\n      0x1f\n      and\n      dup3\n      add\n      swap2\n    tag_243:\n      pop\n      pop\n      pop\n      pop\n      pop\n      dup2\n      mstore\n      0x20\n      add\n      0x01\n      dup3\n      add\n      dup1\n      sload\n      tag_246\n      swap1\n      tag_160\n      jump\t// in\n    tag_246:\n      dup1\n      0x1f\n      add\n      0x20\n      dup1\n      swap2\n      div\n      mul\n      0x20\n      add\n      mload(0x40)\n      swap1\n      dup2\n      add\n      0x40\n      mstore\n      dup1\n      swap3\n      swap2\n      swap1\n      dup2\n      dup2\n      mstore\n      0x20\n      add\n      dup3\n      dup1\n      sload\n      tag_247\n      swap1\n      tag_160\n      jump\t// in\n    tag_247:\n      dup1\n      iszero\n      tag_248\n      jumpi\n      dup1\n      0x1f\n      lt\n      tag_249\n      jumpi\n      0x0100\n      dup1\n      dup4\n      sload\n      div\n      mul\n      dup4\n      mstore\n      swap2\n      0x20\n      add\n      swap2\n      jump(tag_248)\n    tag_249:\n      dup3\n      add\n      swap2\n      swap1\n      0x00\n      mstore\n      keccak256(0x00, 0x20)\n      swap1\n    tag_250:\n      dup2\n      sload\n      dup2\n      mstore\n      swap1\n      0x01\n      add\n      swap1\n      0x20\n      add\n      dup1\n      dup4\n      gt\n      tag_250\n      jumpi\n      dup3\n      swap1\n      sub\n      0x1f\n      and\n      dup3\n      add\n      swap2\n    tag_248:\n      pop\n      pop\n      pop\n      pop\n      pop\n      dup2\n      mstore\n      0x20\n      add\n      0x02\n      dup3\n      add\n      dup1\n      sload\n      tag_251\n      swap1\n      tag_160\n      jump\t// in\n    tag_251:\n      dup1\n      0x1f\n      add\n      0x20\n      dup1\n      swap2\n      div\n      mul\n      0x20\n      add\n      mload(0x40)\n      swap1\n      dup2\n      add\n      0x40\n      mstore\n      dup1\n      swap3\n      swap2\n      swap1\n      dup2\n      dup2\n      mstore\n      0x20\n      add\n      dup3\n      dup1\n      sload\n      tag_252\n      swap1\n      tag_160\n      jump\t// in\n    tag_252:\n      dup1\n      iszero\n      tag_253\n      jumpi\n      dup1\n      0x1f\n      lt\n      tag_254\n      jumpi\n      0x0100\n      dup1\n      dup4\n      sload\n      div\n      mul\n      dup4\n      mstore\n      swap2\n      0x20\n      add\n      swap2\n      jump(tag_253)\n    tag_254:\n      dup3\n      add\n      swap2\n      swap1\n      0x00\n      mstore\n      keccak256(0x00, 0x20)\n      swap1\n    tag_255:\n      dup2\n      sload\n      dup2\n      mstore\n      swap1\n      0x01\n      add\n      swap1\n      0x20\n      add\n      dup1\n      dup4\n      gt\n      tag_255\n      jumpi\n      dup3\n      swap1\n      sub\n      0x1f\n      and\n      dup3\n      add\n      swap2\n    tag_253:\n      pop\n      pop\n      pop\n      pop\n      pop\n      dup2\n      mstore\n      0x20\n      add\n      0x03\n      dup3\n      add\n      dup1\n      sload\n      tag_256\n      swap1\n      tag_160\n      jump\t// in\n    tag_256:\n      dup1\n      0x1f\n      add\n      0x20\n      dup1\n      swap2\n      div\n      mul\n      0x20\n      add\n      mload(0x40)\n      swap1\n      dup2\n      add\n      0x40\n      mstore\n      dup1\n      swap3\n      swap2\n      swap1\n      dup2\n      dup2\n      mstore\n      0x20\n      add\n      dup3\n      dup1\n      sload\n      tag_257\n      swap1\n      tag_160\n      jump\t// in\n    tag_257:\n      dup1\n      iszero\n      tag_258\n      jumpi\n      dup1\n      0x1f\n      lt\n      tag_259\n      jumpi\n      0x0100\n      dup1\n      dup4\n      sload\n      div\n      mul\n      dup4\n      mstore\n      swap2\n      0x20\n      add\n      swap2\n      jump(tag_258)\n    tag_259:\n      dup3\n      add\n      swap2\n      swap1\n      0x00\n      mstore\n      keccak256(0x00, 0x20)\n      swap1\n    tag_260:\n      dup2\n      sload\n      dup2\n      mstore\n      swap1\n      0x01\n      add\n      swap1\n      0x20\n      add\n      dup1\n      dup4\n      gt\n      tag_260\n      jumpi\n      dup3\n      swap1\n      sub\n      0x1f\n      and\n      dup3\n      add\n      swap2\n    tag_258:\n      pop\n      pop\n      pop\n      pop\n      pop\n      dup2\n      mstore\n      0x20\n      add\n      0x04\n      dup3\n      add\n      0x00\n      swap1\n      sload\n      swap1\n      0x0100\n      exp\n      swap1\n      div\n      0xffffffffffffffffffffffffffffffffffffffff\n      and\n      0xffffffffffffffffffffffffffffffffffffffff\n      and\n      0xffffffffffffffffffffffffffffffffffffffff\n      and\n      dup2\n      mstore\n      0x20\n      add\n      0x05\n      dup3\n      add\n      dup1\n      sload\n      tag_261\n      swap1\n      tag_160\n      jump\t// in\n    tag_261:\n      dup1\n      0x1f\n      add\n      0x20\n      dup1\n      swap2\n      div\n      mul\n      0x20\n      add\n      mload(0x40)\n      swap1\n      dup2\n      add\n      0x40\n      mstore\n      dup1\n      swap3\n      swap2\n      swap1\n      dup2\n      dup2\n      mstore\n      0x20\n      add\n      dup3\n      dup1\n      sload\n      tag_262\n      swap1\n      tag_160\n      jump\t// in\n    tag_262:\n      dup1\n      iszero\n      tag_263\n      jumpi\n      dup1\n      0x1f\n      lt\n      tag_264\n      jumpi\n      0x0100\n      dup1\n      dup4\n      sload\n      div\n      mul\n      dup4\n      mstore\n      swap2\n      0x20\n      add\n      swap2\n      jump(tag_263)\n    tag_264:\n      dup3\n      add\n      swap2\n      swap1\n      0x00\n      mstore\n      keccak256(0x00, 0x20)\n      swap1\n    tag_265:\n      dup2\n      sload\n      dup2\n      mstore\n      swap1\n      0x01\n      add\n      swap1\n      0x20\n      add\n      dup1\n      dup4\n      gt\n      tag_265\n      jumpi\n      dup3\n      swap1\n      sub\n      0x1f\n      and\n      dup3\n      add\n      swap2\n    tag_263:\n      pop\n      pop\n      pop\n      pop\n      pop\n      dup2\n      mstore\n      0x20\n      add\n      0x06\n      dup3\n      add\n      dup1\n      sload\n      tag_266\n      swap1\n      tag_160\n      jump\t// in\n    tag_266:\n      dup1\n      0x1f\n      add\n      0x20\n      dup1\n      swap2\n      div\n      mul\n      0x20\n      add\n      mload(0x40)\n      swap1\n      dup2\n      add\n      0x40\n      mstore\n      dup1\n      swap3\n      swap2\n      swap1\n      dup2\n      dup2\n      mstore\n      0x20\n      add\n      dup3\n      dup1\n      sload\n      tag_267\n      swap1\n      tag_160\n      jump\t// in\n    tag_267:\n      dup1\n      iszero\n      tag_268\n      jumpi\n      dup1\n      0x1f\n      lt\n      tag_269\n      jumpi\n      0x0100\n      dup1\n      dup4\n      sload\n      div\n      mul\n      dup4\n      mstore\n      swap2\n      0x20\n      add\n      swap2\n      jump(tag_268)\n    tag_269:\n      dup3\n      add\n      swap2\n      swap1\n      0x00\n      mstore\n      keccak256(0x00, 0x20)\n      swap1\n    tag_270:\n      dup2\n      sload\n      dup2\n      mstore\n      swap1\n      0x01\n      add\n      swap1\n      0x20\n      add\n      dup1\n      dup4\n      gt\n      tag_270\n      jumpi\n      dup3\n      swap1\n      sub\n      0x1f\n      and\n      dup3\n      add\n      swap2\n    tag_268:\n      pop\n      pop\n      pop\n      pop\n      pop\n      dup2\n      mstore\n      0x20\n      add\n      0x07\n      dup3\n      add\n      dup1\n      sload\n      tag_271\n      swap1\n      tag_160\n      jump\t// in\n    tag_271:\n      dup1\n      0x1f\n      add\n      0x20\n      dup1\n      swap2\n      div\n      mul\n      0x20\n      add\n      mload(0x40)\n      swap1\n      dup2\n      add\n      0x40\n      mstore\n      dup1\n      swap3\n      swap2\n      swap1\n      dup2\n      dup2\n      mstore\n      0x20\n      add\n      dup3\n      dup1\n      sload\n      tag_272\n      swap1\n      tag_160\n      jump\t// in\n    tag_272:\n      dup1\n      iszero\n      tag_273\n      jumpi\n      dup1\n      0x1f\n      lt\n      tag_274\n      jumpi\n      0x0100\n      dup1\n      dup4\n      sload\n      div\n      mul\n      dup4\n      mstore\n      swap2\n      0x20\n      add\n      swap2\n      jump(tag_273)\n    tag_274:\n      dup3\n      add\n      swap2\n      swap1\n      0x00\n      mstore\n      keccak256(0x00, 0x20)\n      swap1\n    tag_275:\n      dup2\n      sload\n      dup2\n      mstore\n      swap1\n      0x01\n      add\n      swap1\n      0x20\n      add\n      dup1\n      dup4\n      gt\n      tag_275\n      jumpi\n      dup3\n      swap1\n      sub\n      0x1f\n      and\n      dup3\n      add\n      swap2\n    tag_273:\n      pop\n      pop\n      pop\n      pop\n      pop\n      dup2\n      mstore\n      pop\n      pop\n      dup2\n      mstore\n      0x20\n      add\n      swap1\n      0x01\n      add\n      swap1\n      jump(tag_238)\n    tag_239:\n      pop\n      pop\n      pop\n      pop\n      swap1\n      pop\n        /* \"Campaigns.sol\":4892:4999  function fetchKYCRequests() public view returns (KYCRequest[] memory) {... */\n      swap1\n      jump\t// out\n        /* \"Campaigns.sol\":3598:3658  string public constant FUND_CONTRIBUTOR = \"fund_contributor\" */\n    tag_100:\n      mload(0x40)\n      dup1\n      0x40\n      add\n      0x40\n      mstore\n      dup1\n      0x10\n      dup2\n      mstore\n      0x20\n      add\n      0x66756e645f636f6e7472696275746f7200000000000000000000000000000000\n      dup2\n      mstore\n      pop\n      dup2\n      jump\t// out\n        /* \"Campaigns.sol\":8022:8448  function getRolesOfUser(address addr) public returns(string[] memory) {... */\n    tag_104:\n        /* \"Campaigns.sol\":8075:8090  string[] memory */\n      0x60\n        /* \"Campaigns.sol\":8128:8129  0 */\n      0x00\n        /* \"Campaigns.sol\":8115:8130  new string[](0) */\n      0xffffffffffffffff\n      dup2\n      gt\n      iszero\n      tag_277\n      jumpi\n      tag_278\n      tag_279\n      jump\t// in\n    tag_278:\n    tag_277:\n      mload(0x40)\n      swap1\n      dup1\n      dup3\n      mstore\n      dup1\n      0x20\n      mul\n      0x20\n      add\n      dup3\n      add\n      0x40\n      mstore\n      dup1\n      iszero\n      tag_280\n      jumpi\n      dup2\n      0x20\n      add\n    tag_281:\n      0x60\n      dup2\n      mstore\n      0x20\n      add\n      swap1\n      0x01\n      swap1\n      sub\n      swap1\n      dup2\n      tag_281\n      jumpi\n      swap1\n      pop\n    tag_280:\n      pop\n        /* \"Campaigns.sol\":8102:8112  user_roles */\n      0x03\n        /* \"Campaigns.sol\":8102:8130  user_roles = new string[](0) */\n      swap1\n      dup1\n      mload\n      swap1\n      0x20\n      add\n      swap1\n      tag_282\n      swap3\n      swap2\n      swap1\n      tag_283\n      jump\t// in\n    tag_282:\n      pop\n        /* \"Campaigns.sol\":8143:8174  hasRole(addr, FUND_CONTRIBUTOR) */\n      tag_284\n        /* \"Campaigns.sol\":8151:8155  addr */\n      dup3\n        /* \"Campaigns.sol\":8157:8173  FUND_CONTRIBUTOR */\n      mload(0x40)\n      dup1\n      0x40\n      add\n      0x40\n      mstore\n      dup1\n      0x10\n      dup2\n      mstore\n      0x20\n      add\n      0x66756e645f636f6e7472696275746f7200000000000000000000000000000000\n      dup2\n      mstore\n      pop\n        /* \"Campaigns.sol\":8143:8150  hasRole */\n      tag_44\n        /* \"Campaigns.sol\":8143:8174  hasRole(addr, FUND_CONTRIBUTOR) */\n      jump\t// in\n    tag_284:\n        /* \"Campaigns.sol\":8140:8231  if(hasRole(addr, FUND_CONTRIBUTOR)){... */\n      iszero\n      tag_285\n      jumpi\n        /* \"Campaigns.sol\":8187:8197  user_roles */\n      0x03\n        /* \"Campaigns.sol\":8203:8219  FUND_CONTRIBUTOR */\n      mload(0x40)\n      dup1\n      0x40\n      add\n      0x40\n      mstore\n      dup1\n      0x10\n      dup2\n      mstore\n      0x20\n      add\n      0x66756e645f636f6e7472696275746f7200000000000000000000000000000000\n      dup2\n      mstore\n      pop\n        /* \"Campaigns.sol\":8187:8220  user_roles.push(FUND_CONTRIBUTOR) */\n      swap1\n      dup1\n      0x01\n      dup2\n      sload\n      add\n      dup1\n      dup3\n      sstore\n      dup1\n      swap2\n      pop\n      pop\n      0x01\n      swap1\n      sub\n      swap1\n      0x00\n      mstore\n      keccak256(0x00, 0x20)\n      add\n      0x00\n      swap1\n      swap2\n      swap1\n      swap2\n      swap1\n      swap2\n      pop\n      swap1\n      dup1\n      mload\n      swap1\n      0x20\n      add\n      swap1\n      tag_287\n      swap3\n      swap2\n      swap1\n      tag_131\n      jump\t// in\n    tag_287:\n      pop\n        /* \"Campaigns.sol\":8140:8231  if(hasRole(addr, FUND_CONTRIBUTOR)){... */\n    tag_285:\n        /* \"Campaigns.sol\":8243:8269  hasRole(addr, FUND_RAISER) */\n      tag_288\n        /* \"Campaigns.sol\":8251:8255  addr */\n      dup3\n        /* \"Campaigns.sol\":8257:8268  FUND_RAISER */\n      mload(0x40)\n      dup1\n      0x40\n      add\n      0x40\n      mstore\n      dup1\n      0x0b\n      dup2\n      mstore\n      0x20\n      add\n      0x66756e645f726169736572000000000000000000000000000000000000000000\n      dup2\n      mstore\n      pop\n        /* \"Campaigns.sol\":8243:8250  hasRole */\n      tag_44\n        /* \"Campaigns.sol\":8243:8269  hasRole(addr, FUND_RAISER) */\n      jump\t// in\n    tag_288:\n        /* \"Campaigns.sol\":8240:8321  if(hasRole(addr, FUND_RAISER)){... */\n      iszero\n      tag_289\n      jumpi\n        /* \"Campaigns.sol\":8282:8292  user_roles */\n      0x03\n        /* \"Campaigns.sol\":8298:8309  FUND_RAISER */\n      mload(0x40)\n      dup1\n      0x40\n      add\n      0x40\n      mstore\n      dup1\n      0x0b\n      dup2\n      mstore\n      0x20\n      add\n      0x66756e645f726169736572000000000000000000000000000000000000000000\n      dup2\n      mstore\n      pop\n        /* \"Campaigns.sol\":8282:8310  user_roles.push(FUND_RAISER) */\n      swap1\n      dup1\n      0x01\n      dup2\n      sload\n      add\n      dup1\n      dup3\n      sstore\n      dup1\n      swap2\n      pop\n      pop\n      0x01\n      swap1\n      sub\n      swap1\n      0x00\n      mstore\n      keccak256(0x00, 0x20)\n      add\n      0x00\n      swap1\n      swap2\n      swap1\n      swap2\n      swap1\n      swap2\n      pop\n      swap1\n      dup1\n      mload\n      swap1\n      0x20\n      add\n      swap1\n      tag_291\n      swap3\n      swap2\n      swap1\n      tag_131\n      jump\t// in\n    tag_291:\n      pop\n        /* \"Campaigns.sol\":8240:8321  if(hasRole(addr, FUND_RAISER)){... */\n    tag_289:\n        /* \"Campaigns.sol\":8333:8361  hasRole(addr, FUND_APPROVER) */\n      tag_292\n        /* \"Campaigns.sol\":8341:8345  addr */\n      dup3\n        /* \"Campaigns.sol\":8347:8360  FUND_APPROVER */\n      mload(0x40)\n      dup1\n      0x40\n      add\n      0x40\n      mstore\n      dup1\n      0x0d\n      dup2\n      mstore\n      0x20\n      add\n      0x66756e645f617070726f76657200000000000000000000000000000000000000\n      dup2\n      mstore\n      pop\n        /* \"Campaigns.sol\":8333:8340  hasRole */\n      tag_44\n        /* \"Campaigns.sol\":8333:8361  hasRole(addr, FUND_APPROVER) */\n      jump\t// in\n    tag_292:\n        /* \"Campaigns.sol\":8330:8415  if(hasRole(addr, FUND_APPROVER)){... */\n      iszero\n      tag_293\n      jumpi\n        /* \"Campaigns.sol\":8374:8384  user_roles */\n      0x03\n        /* \"Campaigns.sol\":8390:8403  FUND_APPROVER */\n      mload(0x40)\n      dup1\n      0x40\n      add\n      0x40\n      mstore\n      dup1\n      0x0d\n      dup2\n      mstore\n      0x20\n      add\n      0x66756e645f617070726f76657200000000000000000000000000000000000000\n      dup2\n      mstore\n      pop\n        /* \"Campaigns.sol\":8374:8404  user_roles.push(FUND_APPROVER) */\n      swap1\n      dup1\n      0x01\n      dup2\n      sload\n      add\n      dup1\n      dup3\n      sstore\n      dup1\n      swap2\n      pop\n      pop\n      0x01\n      swap1\n      sub\n      swap1\n      0x00\n      mstore\n      keccak256(0x00, 0x20)\n      add\n      0x00\n      swap1\n      swap2\n      swap1\n      swap2\n      swap1\n      swap2\n      pop\n      swap1\n      dup1\n      mload\n      swap1\n      0x20\n      add\n      swap1\n      tag_295\n      swap3\n      swap2\n      swap1\n      tag_131\n      jump\t// in\n    tag_295:\n      pop\n        /* \"Campaigns.sol\":8330:8415  if(hasRole(addr, FUND_APPROVER)){... */\n    tag_293:\n        /* \"Campaigns.sol\":8431:8441  user_roles */\n      0x03\n        /* \"Campaigns.sol\":8424:8441  return user_roles */\n      dup1\n      sload\n      dup1\n      0x20\n      mul\n      0x20\n      add\n      mload(0x40)\n      swap1\n      dup2\n      add\n      0x40\n      mstore\n      dup1\n      swap3\n      swap2\n      swap1\n      dup2\n      dup2\n      mstore\n      0x20\n      add\n      0x00\n      swap1\n    tag_296:\n      dup3\n      dup3\n      lt\n      iszero\n      tag_297\n      jumpi\n      dup4\n      dup3\n      swap1\n      0x00\n      mstore\n      keccak256(0x00, 0x20)\n      add\n      dup1\n      sload\n      tag_299\n      swap1\n      tag_160\n      jump\t// in\n    tag_299:\n      dup1\n      0x1f\n      add\n      0x20\n      dup1\n      swap2\n      div\n      mul\n      0x20\n      add\n      mload(0x40)\n      swap1\n      dup2\n      add\n      0x40\n      mstore\n      dup1\n      swap3\n      swap2\n      swap1\n      dup2\n      dup2\n      mstore\n      0x20\n      add\n      dup3\n      dup1\n      sload\n      tag_300\n      swap1\n      tag_160\n      jump\t// in\n    tag_300:\n      dup1\n      iszero\n      tag_301\n      jumpi\n      dup1\n      0x1f\n      lt\n      tag_302\n      jumpi\n      0x0100\n      dup1\n      dup4\n      sload\n      div\n      mul\n      dup4\n      mstore\n      swap2\n      0x20\n      add\n      swap2\n      jump(tag_301)\n    tag_302:\n      dup3\n      add\n      swap2\n      swap1\n      0x00\n      mstore\n      keccak256(0x00, 0x20)\n      swap1\n    tag_303:\n      dup2\n      sload\n      dup2\n      mstore\n      swap1\n      0x01\n      add\n      swap1\n      0x20\n      add\n      dup1\n      dup4\n      gt\n      tag_303\n      jumpi\n      dup3\n      swap1\n      sub\n      0x1f\n      and\n      dup3\n      add\n      swap2\n    tag_301:\n      pop\n      pop\n      pop\n      pop\n      pop\n      dup2\n      mstore\n      0x20\n      add\n      swap1\n      0x01\n      add\n      swap1\n      jump(tag_296)\n    tag_297:\n      pop\n      pop\n      pop\n      pop\n      swap1\n      pop\n        /* \"Campaigns.sol\":8022:8448  function getRolesOfUser(address addr) public returns(string[] memory) {... */\n      swap2\n      swap1\n      pop\n      jump\t// out\n        /* \"Campaigns.sol\":7191:7304  function isFundRaiser(address addr) public view returns (bool) {... */\n    tag_109:\n        /* \"Campaigns.sol\":7248:7252  bool */\n      0x00\n        /* \"Campaigns.sol\":7271:7297  hasRole(addr, FUND_RAISER) */\n      tag_305\n        /* \"Campaigns.sol\":7279:7283  addr */\n      dup3\n        /* \"Campaigns.sol\":7285:7296  FUND_RAISER */\n      mload(0x40)\n      dup1\n      0x40\n      add\n      0x40\n      mstore\n      dup1\n      0x0b\n      dup2\n      mstore\n      0x20\n      add\n      0x66756e645f726169736572000000000000000000000000000000000000000000\n      dup2\n      mstore\n      pop\n        /* \"Campaigns.sol\":7271:7278  hasRole */\n      tag_44\n        /* \"Campaigns.sol\":7271:7297  hasRole(addr, FUND_RAISER) */\n      jump\t// in\n    tag_305:\n        /* \"Campaigns.sol\":7264:7297  return hasRole(addr, FUND_RAISER) */\n      swap1\n      pop\n        /* \"Campaigns.sol\":7191:7304  function isFundRaiser(address addr) public view returns (bool) {... */\n      swap2\n      swap1\n      pop\n      jump\t// out\n        /* \"Campaigns.sol\":3664:3718  string public constant FUND_APPROVER = \"fund_approver\" */\n    tag_112:\n      mload(0x40)\n      dup1\n      0x40\n      add\n      0x40\n      mstore\n      dup1\n      0x0d\n      dup2\n      mstore\n      0x20\n      add\n      0x66756e645f617070726f76657200000000000000000000000000000000000000\n      dup2\n      mstore\n      pop\n      dup2\n      jump\t// out\n        /* \"Campaigns.sol\":2923:3032  function transferOwnership(address _newOwner) public onlyOwner {... */\n    tag_116:\n        /* \"Campaigns.sol\":2329:2334  owner */\n      0x00\n      dup1\n      sload\n      swap1\n      0x0100\n      exp\n      swap1\n      div\n      0xffffffffffffffffffffffffffffffffffffffff\n      and\n        /* \"Campaigns.sol\":2315:2334  msg.sender == owner */\n      0xffffffffffffffffffffffffffffffffffffffff\n      and\n        /* \"Campaigns.sol\":2315:2325  msg.sender */\n      caller\n        /* \"Campaigns.sol\":2315:2334  msg.sender == owner */\n      0xffffffffffffffffffffffffffffffffffffffff\n      and\n      eq\n        /* \"Campaigns.sol\":2307:2335  require(msg.sender == owner) */\n      tag_307\n      jumpi\n      0x00\n      dup1\n      revert\n    tag_307:\n        /* \"Campaigns.sol\":2996:3025  _transferOwnership(_newOwner) */\n      tag_309\n        /* \"Campaigns.sol\":3015:3024  _newOwner */\n      dup2\n        /* \"Campaigns.sol\":2996:3014  _transferOwnership */\n      tag_310\n        /* \"Campaigns.sol\":2996:3025  _transferOwnership(_newOwner) */\n      jump\t// in\n    tag_309:\n        /* \"Campaigns.sol\":2923:3032  function transferOwnership(address _newOwner) public onlyOwner {... */\n      pop\n      jump\t// out\n        /* \"Campaigns.sol\":571:674  function check(Role storage role, address addr) internal view {... */\n    tag_121:\n        /* \"Campaigns.sol\":651:666  has(role, addr) */\n      tag_312\n        /* \"Campaigns.sol\":655:659  role */\n      dup3\n        /* \"Campaigns.sol\":661:665  addr */\n      dup3\n        /* \"Campaigns.sol\":651:654  has */\n      tag_141\n        /* \"Campaigns.sol\":651:666  has(role, addr) */\n      jump\t// in\n    tag_312:\n        /* \"Campaigns.sol\":643:667  require(has(role, addr)) */\n      tag_313\n      jumpi\n      0x00\n      dup1\n      revert\n    tag_313:\n        /* \"Campaigns.sol\":571:674  function check(Role storage role, address addr) internal view {... */\n      pop\n      pop\n      jump\t// out\n        /* \"Campaigns.sol\":761:877  function has(Role storage role, address addr) internal view returns (bool) {... */\n    tag_141:\n        /* \"Campaigns.sol\":830:834  bool */\n      0x00\n        /* \"Campaigns.sol\":853:857  role */\n      dup3\n        /* \"Campaigns.sol\":853:864  role.bearer */\n      0x00\n      add\n        /* \"Campaigns.sol\":853:870  role.bearer[addr] */\n      0x00\n        /* \"Campaigns.sol\":865:869  addr */\n      dup4\n        /* \"Campaigns.sol\":853:870  role.bearer[addr] */\n      0xffffffffffffffffffffffffffffffffffffffff\n      and\n      0xffffffffffffffffffffffffffffffffffffffff\n      and\n      dup2\n      mstore\n      0x20\n      add\n      swap1\n      dup2\n      mstore\n      0x20\n      add\n      0x00\n      keccak256\n      0x00\n      swap1\n      sload\n      swap1\n      0x0100\n      exp\n      swap1\n      div\n      0xff\n      and\n        /* \"Campaigns.sol\":846:870  return role.bearer[addr] */\n      swap1\n      pop\n        /* \"Campaigns.sol\":761:877  function has(Role storage role, address addr) internal view returns (bool) {... */\n      swap3\n      swap2\n      pop\n      pop\n      jump\t// out\n        /* \"Campaigns.sol\":5966:6533  function updateStatusOfRequest(... */\n    tag_156:\n        /* \"Campaigns.sol\":6110:6121  uint256 len */\n      0x00\n        /* \"Campaigns.sol\":6124:6135  kycRequests */\n      0x02\n        /* \"Campaigns.sol\":6124:6142  kycRequests.length */\n      dup1\n      sload\n      swap1\n      pop\n        /* \"Campaigns.sol\":6110:6142  uint256 len = kycRequests.length */\n      swap1\n      pop\n        /* \"Campaigns.sol\":6157:6166  uint256 i */\n      0x00\n        /* \"Campaigns.sol\":6152:6527  for (uint256 i = 0; i < len; i++) {... */\n    tag_316:\n        /* \"Campaigns.sol\":6176:6179  len */\n      dup2\n        /* \"Campaigns.sol\":6172:6173  i */\n      dup2\n        /* \"Campaigns.sol\":6172:6179  i < len */\n      lt\n        /* \"Campaigns.sol\":6152:6527  for (uint256 i = 0; i < len; i++) {... */\n      iszero\n      tag_317\n      jumpi\n        /* \"Campaigns.sol\":6252:6256  addr */\n      dup5\n        /* \"Campaigns.sol\":6221:6256  kycRequests[i].user_address == addr */\n      0xffffffffffffffffffffffffffffffffffffffff\n      and\n        /* \"Campaigns.sol\":6221:6232  kycRequests */\n      0x02\n        /* \"Campaigns.sol\":6233:6234  i */\n      dup3\n        /* \"Campaigns.sol\":6221:6235  kycRequests[i] */\n      dup2\n      sload\n      dup2\n      lt\n      tag_319\n      jumpi\n      tag_320\n      tag_321\n      jump\t// in\n    tag_320:\n    tag_319:\n      swap1\n      0x00\n      mstore\n      keccak256(0x00, 0x20)\n      swap1\n      0x08\n      mul\n      add\n        /* \"Campaigns.sol\":6221:6248  kycRequests[i].user_address */\n      0x04\n      add\n      0x00\n      swap1\n      sload\n      swap1\n      0x0100\n      exp\n      swap1\n      div\n      0xffffffffffffffffffffffffffffffffffffffff\n      and\n        /* \"Campaigns.sol\":6221:6256  kycRequests[i].user_address == addr */\n      0xffffffffffffffffffffffffffffffffffffffff\n      and\n      eq\n        /* \"Campaigns.sol\":6221:6439  kycRequests[i].user_address == addr &&... */\n      dup1\n      iszero\n      tag_323\n      jumpi\n      pop\n        /* \"Campaigns.sol\":6424:6436  role_applied */\n      dup4\n        /* \"Campaigns.sol\":6406:6438  abi.encodePacked((role_applied)) */\n      add(0x20, mload(0x40))\n      tag_324\n      swap2\n      swap1\n      tag_120\n      jump\t// in\n    tag_324:\n      mload(0x40)\n      0x20\n      dup2\n      dup4\n      sub\n      sub\n      dup2\n      mstore\n      swap1\n      0x40\n      mstore\n        /* \"Campaigns.sol\":6396:6439  keccak256(abi.encodePacked((role_applied))) */\n      dup1\n      mload\n      swap1\n      0x20\n      add\n      keccak256\n        /* \"Campaigns.sol\":6325:6336  kycRequests */\n      0x02\n        /* \"Campaigns.sol\":6337:6338  i */\n      dup3\n        /* \"Campaigns.sol\":6325:6339  kycRequests[i] */\n      dup2\n      sload\n      dup2\n      lt\n      tag_325\n      jumpi\n      tag_326\n      tag_321\n      jump\t// in\n    tag_326:\n    tag_325:\n      swap1\n      0x00\n      mstore\n      keccak256(0x00, 0x20)\n      swap1\n      0x08\n      mul\n      add\n        /* \"Campaigns.sol\":6325:6356  kycRequests[i].role_applied_for */\n      0x06\n      add\n        /* \"Campaigns.sol\":6307:6358  abi.encodePacked((kycRequests[i].role_applied_for)) */\n      add(0x20, mload(0x40))\n      tag_328\n      swap2\n      swap1\n      tag_329\n      jump\t// in\n    tag_328:\n      mload(0x40)\n      0x20\n      dup2\n      dup4\n      sub\n      sub\n      dup2\n      mstore\n      swap1\n      0x40\n      mstore\n        /* \"Campaigns.sol\":6276:6376  keccak256(... */\n      dup1\n      mload\n      swap1\n      0x20\n      add\n      keccak256\n        /* \"Campaigns.sol\":6276:6439  keccak256(... */\n      eq\n        /* \"Campaigns.sol\":6221:6439  kycRequests[i].user_address == addr &&... */\n    tag_323:\n        /* \"Campaigns.sol\":6200:6517  if (... */\n      iszero\n      tag_330\n      jumpi\n        /* \"Campaigns.sol\":6496:6502  status */\n      dup3\n        /* \"Campaigns.sol\":6472:6483  kycRequests */\n      0x02\n        /* \"Campaigns.sol\":6484:6485  i */\n      dup3\n        /* \"Campaigns.sol\":6472:6486  kycRequests[i] */\n      dup2\n      sload\n      dup2\n      lt\n      tag_331\n      jumpi\n      tag_332\n      tag_321\n      jump\t// in\n    tag_332:\n    tag_331:\n      swap1\n      0x00\n      mstore\n      keccak256(0x00, 0x20)\n      swap1\n      0x08\n      mul\n      add\n        /* \"Campaigns.sol\":6472:6493  kycRequests[i].status */\n      0x07\n      add\n        /* \"Campaigns.sol\":6472:6502  kycRequests[i].status = status */\n      swap1\n      dup1\n      mload\n      swap1\n      0x20\n      add\n      swap1\n      tag_334\n      swap3\n      swap2\n      swap1\n      tag_131\n      jump\t// in\n    tag_334:\n      pop\n        /* \"Campaigns.sol\":6200:6517  if (... */\n    tag_330:\n        /* \"Campaigns.sol\":6181:6184  i++ */\n      dup1\n      dup1\n      tag_335\n      swap1\n      tag_336\n      jump\t// in\n    tag_335:\n      swap2\n      pop\n      pop\n        /* \"Campaigns.sol\":6152:6527  for (uint256 i = 0; i < len; i++) {... */\n      jump(tag_316)\n    tag_317:\n      pop\n        /* \"Campaigns.sol\":6100:6533  {... */\n      pop\n        /* \"Campaigns.sol\":5966:6533  function updateStatusOfRequest(... */\n      pop\n      pop\n      pop\n      jump\t// out\n        /* \"Campaigns.sol\":1525:1679  function removeRole(address addr, string memory roleName) internal {... */\n    tag_199:\n        /* \"Campaigns.sol\":1602:1630  roles[roleName].remove(addr) */\n      tag_338\n        /* \"Campaigns.sol\":1625:1629  addr */\n      dup3\n        /* \"Campaigns.sol\":1602:1607  roles */\n      0x01\n        /* \"Campaigns.sol\":1608:1616  roleName */\n      dup4\n        /* \"Campaigns.sol\":1602:1617  roles[roleName] */\n      mload(0x40)\n      tag_339\n      swap2\n      swap1\n      tag_120\n      jump\t// in\n    tag_339:\n      swap1\n      dup2\n      mstore\n      0x20\n      add\n      mload(0x40)\n      dup1\n      swap2\n      sub\n      swap1\n      keccak256\n        /* \"Campaigns.sol\":1602:1624  roles[roleName].remove */\n      tag_340\n      swap1\n        /* \"Campaigns.sol\":1602:1630  roles[roleName].remove(addr) */\n      swap2\n      swap1\n      0xffffffff\n      and\n      jump\t// in\n    tag_338:\n        /* \"Campaigns.sol\":1645:1672  RoleRemoved(addr, roleName) */\n      0xd211483f91fc6eff862467f8de606587a30c8fc9981056f051b897a418df803a\n        /* \"Campaigns.sol\":1657:1661  addr */\n      dup3\n        /* \"Campaigns.sol\":1663:1671  roleName */\n      dup3\n        /* \"Campaigns.sol\":1645:1672  RoleRemoved(addr, roleName) */\n      mload(0x40)\n      tag_341\n      swap3\n      swap2\n      swap1\n      tag_127\n      jump\t// in\n    tag_341:\n      mload(0x40)\n      dup1\n      swap2\n      sub\n      swap1\n      log1\n        /* \"Campaigns.sol\":1525:1679  function removeRole(address addr, string memory roleName) internal {... */\n      pop\n      pop\n      jump\t// out\n        /* \"Campaigns.sol\":217:313  function add(Role storage role, address addr) internal {... */\n    tag_228:\n        /* \"Campaigns.sol\":302:306  true */\n      0x01\n        /* \"Campaigns.sol\":282:286  role */\n      dup3\n        /* \"Campaigns.sol\":282:293  role.bearer */\n      0x00\n      add\n        /* \"Campaigns.sol\":282:299  role.bearer[addr] */\n      0x00\n        /* \"Campaigns.sol\":294:298  addr */\n      dup4\n        /* \"Campaigns.sol\":282:299  role.bearer[addr] */\n      0xffffffffffffffffffffffffffffffffffffffff\n      and\n      0xffffffffffffffffffffffffffffffffffffffff\n      and\n      dup2\n      mstore\n      0x20\n      add\n      swap1\n      dup2\n      mstore\n      0x20\n      add\n      0x00\n      keccak256\n      0x00\n        /* \"Campaigns.sol\":282:306  role.bearer[addr] = true */\n      0x0100\n      exp\n      dup2\n      sload\n      dup2\n      0xff\n      mul\n      not\n      and\n      swap1\n      dup4\n      iszero\n      iszero\n      mul\n      or\n      swap1\n      sstore\n      pop\n        /* \"Campaigns.sol\":217:313  function add(Role storage role, address addr) internal {... */\n      pop\n      pop\n      jump\t// out\n        /* \"Campaigns.sol\":3176:3361  function _transferOwnership(address _newOwner) internal {... */\n    tag_310:\n        /* \"Campaigns.sol\":3271:3272  0 */\n      0x00\n        /* \"Campaigns.sol\":3250:3273  _newOwner != address(0) */\n      0xffffffffffffffffffffffffffffffffffffffff\n      and\n        /* \"Campaigns.sol\":3250:3259  _newOwner */\n      dup2\n        /* \"Campaigns.sol\":3250:3273  _newOwner != address(0) */\n      0xffffffffffffffffffffffffffffffffffffffff\n      and\n      sub\n        /* \"Campaigns.sol\":3242:3274  require(_newOwner != address(0)) */\n      tag_344\n      jumpi\n      0x00\n      dup1\n      revert\n    tag_344:\n        /* \"Campaigns.sol\":3317:3326  _newOwner */\n      dup1\n        /* \"Campaigns.sol\":3289:3327  OwnershipTransferred(owner, _newOwner) */\n      0xffffffffffffffffffffffffffffffffffffffff\n      and\n        /* \"Campaigns.sol\":3310:3315  owner */\n      0x00\n      dup1\n      sload\n      swap1\n      0x0100\n      exp\n      swap1\n      div\n      0xffffffffffffffffffffffffffffffffffffffff\n      and\n        /* \"Campaigns.sol\":3289:3327  OwnershipTransferred(owner, _newOwner) */\n      0xffffffffffffffffffffffffffffffffffffffff\n      and\n      0x8be0079c531659141344cd1fd0a4f28419497f9722a3daafe3b4186f6b6457e0\n      mload(0x40)\n      mload(0x40)\n      dup1\n      swap2\n      sub\n      swap1\n      log3\n        /* \"Campaigns.sol\":3345:3354  _newOwner */\n      dup1\n        /* \"Campaigns.sol\":3337:3342  owner */\n      0x00\n      dup1\n        /* \"Campaigns.sol\":3337:3354  owner = _newOwner */\n      0x0100\n      exp\n      dup2\n      sload\n      dup2\n      0xffffffffffffffffffffffffffffffffffffffff\n      mul\n      not\n      and\n      swap1\n      dup4\n      0xffffffffffffffffffffffffffffffffffffffff\n      and\n      mul\n      or\n      swap1\n      sstore\n      pop\n        /* \"Campaigns.sol\":3176:3361  function _transferOwnership(address _newOwner) internal {... */\n      pop\n      jump\t// out\n        /* \"Campaigns.sol\":386:486  function remove(Role storage role, address addr) internal {... */\n    tag_340:\n        /* \"Campaigns.sol\":474:479  false */\n      0x00\n        /* \"Campaigns.sol\":454:458  role */\n      dup3\n        /* \"Campaigns.sol\":454:465  role.bearer */\n      0x00\n      add\n        /* \"Campaigns.sol\":454:471  role.bearer[addr] */\n      0x00\n        /* \"Campaigns.sol\":466:470  addr */\n      dup4\n        /* \"Campaigns.sol\":454:471  role.bearer[addr] */\n      0xffffffffffffffffffffffffffffffffffffffff\n      and\n      0xffffffffffffffffffffffffffffffffffffffff\n      and\n      dup2\n      mstore\n      0x20\n      add\n      swap1\n      dup2\n      mstore\n      0x20\n      add\n      0x00\n      keccak256\n      0x00\n        /* \"Campaigns.sol\":454:479  role.bearer[addr] = false */\n      0x0100\n      exp\n      dup2\n      sload\n      dup2\n      0xff\n      mul\n      not\n      and\n      swap1\n      dup4\n      iszero\n      iszero\n      mul\n      or\n      swap1\n      sstore\n      pop\n        /* \"Campaigns.sol\":386:486  function remove(Role storage role, address addr) internal {... */\n      pop\n      pop\n      jump\t// out\n    tag_131:\n      dup3\n      dup1\n      sload\n      tag_346\n      swap1\n      tag_160\n      jump\t// in\n    tag_346:\n      swap1\n      0x00\n      mstore\n      keccak256(0x00, 0x20)\n      swap1\n      0x1f\n      add\n      0x20\n      swap1\n      div\n      dup2\n      add\n      swap3\n      dup3\n      tag_348\n      jumpi\n      0x00\n      dup6\n      sstore\n      jump(tag_347)\n    tag_348:\n      dup3\n      0x1f\n      lt\n      tag_349\n      jumpi\n      dup1\n      mload\n      not(0xff)\n      and\n      dup4\n      dup1\n      add\n      or\n      dup6\n      sstore\n      jump(tag_347)\n    tag_349:\n      dup3\n      dup1\n      add\n      0x01\n      add\n      dup6\n      sstore\n      dup3\n      iszero\n      tag_347\n      jumpi\n      swap2\n      dup3\n      add\n    tag_350:\n      dup3\n      dup2\n      gt\n      iszero\n      tag_351\n      jumpi\n      dup3\n      mload\n      dup3\n      sstore\n      swap2\n      0x20\n      add\n      swap2\n      swap1\n      0x01\n      add\n      swap1\n      jump(tag_350)\n    tag_351:\n    tag_347:\n      pop\n      swap1\n      pop\n      tag_352\n      swap2\n      swap1\n      tag_353\n      jump\t// in\n    tag_352:\n      pop\n      swap1\n      jump\t// out\n    tag_283:\n      dup3\n      dup1\n      sload\n      dup3\n      dup3\n      sstore\n      swap1\n      0x00\n      mstore\n      keccak256(0x00, 0x20)\n      swap1\n      dup2\n      add\n      swap3\n      dup3\n      iszero\n      tag_354\n      jumpi\n      swap2\n      0x20\n      mul\n      dup3\n      add\n    tag_355:\n      dup3\n      dup2\n      gt\n      iszero\n      tag_356\n      jumpi\n      dup3\n      mload\n      dup3\n      swap1\n      dup1\n      mload\n      swap1\n      0x20\n      add\n      swap1\n      tag_357\n      swap3\n      swap2\n      swap1\n      tag_131\n      jump\t// in\n    tag_357:\n      pop\n      swap2\n      0x20\n      add\n      swap2\n      swap1\n      0x01\n      add\n      swap1\n      jump(tag_355)\n    tag_356:\n    tag_354:\n      pop\n      swap1\n      pop\n      tag_358\n      swap2\n      swap1\n      tag_359\n      jump\t// in\n    tag_358:\n      pop\n      swap1\n      jump\t// out\n    tag_353:\n    tag_360:\n      dup1\n      dup3\n      gt\n      iszero\n      tag_361\n      jumpi\n      0x00\n      dup2\n      0x00\n      swap1\n      sstore\n      pop\n      0x01\n      add\n      jump(tag_360)\n    tag_361:\n      pop\n      swap1\n      jump\t// out\n    tag_359:\n    tag_362:\n      dup1\n      dup3\n      gt\n      iszero\n      tag_363\n      jumpi\n      0x00\n      dup2\n      dup2\n      tag_364\n      swap2\n      swap1\n      tag_365\n      jump\t// in\n    tag_364:\n      pop\n      0x01\n      add\n      jump(tag_362)\n    tag_363:\n      pop\n      swap1\n      jump\t// out\n    tag_365:\n      pop\n      dup1\n      sload\n      tag_366\n      swap1\n      tag_160\n      jump\t// in\n    tag_366:\n      0x00\n      dup3\n      sstore\n      dup1\n      0x1f\n      lt\n      tag_368\n      jumpi\n      pop\n      jump(tag_367)\n    tag_368:\n      0x1f\n      add\n      0x20\n      swap1\n      div\n      swap1\n      0x00\n      mstore\n      keccak256(0x00, 0x20)\n      swap1\n      dup2\n      add\n      swap1\n      tag_369\n      swap2\n      swap1\n      tag_353\n      jump\t// in\n    tag_369:\n    tag_367:\n      pop\n      jump\t// out\n        /* \"#utility.yul\":7:82   */\n    tag_370:\n        /* \"#utility.yul\":40:46   */\n      0x00\n        /* \"#utility.yul\":73:75   */\n      0x40\n        /* \"#utility.yul\":67:76   */\n      mload\n        /* \"#utility.yul\":57:76   */\n      swap1\n      pop\n        /* \"#utility.yul\":7:82   */\n      swap1\n      jump\t// out\n        /* \"#utility.yul\":88:205   */\n    tag_371:\n        /* \"#utility.yul\":197:198   */\n      0x00\n        /* \"#utility.yul\":194:195   */\n      dup1\n        /* \"#utility.yul\":187:199   */\n      revert\n        /* \"#utility.yul\":211:328   */\n    tag_372:\n        /* \"#utility.yul\":320:321   */\n      0x00\n        /* \"#utility.yul\":317:318   */\n      dup1\n        /* \"#utility.yul\":310:322   */\n      revert\n        /* \"#utility.yul\":334:460   */\n    tag_373:\n        /* \"#utility.yul\":371:378   */\n      0x00\n        /* \"#utility.yul\":411:453   */\n      0xffffffffffffffffffffffffffffffffffffffff\n        /* \"#utility.yul\":404:409   */\n      dup3\n        /* \"#utility.yul\":400:454   */\n      and\n        /* \"#utility.yul\":389:454   */\n      swap1\n      pop\n        /* \"#utility.yul\":334:460   */\n      swap2\n      swap1\n      pop\n      jump\t// out\n        /* \"#utility.yul\":466:562   */\n    tag_374:\n        /* \"#utility.yul\":503:510   */\n      0x00\n        /* \"#utility.yul\":532:556   */\n      tag_424\n        /* \"#utility.yul\":550:555   */\n      dup3\n        /* \"#utility.yul\":532:556   */\n      tag_373\n      jump\t// in\n    tag_424:\n        /* \"#utility.yul\":521:556   */\n      swap1\n      pop\n        /* \"#utility.yul\":466:562   */\n      swap2\n      swap1\n      pop\n      jump\t// out\n        /* \"#utility.yul\":568:690   */\n    tag_375:\n        /* \"#utility.yul\":641:665   */\n      tag_426\n        /* \"#utility.yul\":659:664   */\n      dup2\n        /* \"#utility.yul\":641:665   */\n      tag_374\n      jump\t// in\n    tag_426:\n        /* \"#utility.yul\":634:639   */\n      dup2\n        /* \"#utility.yul\":631:666   */\n      eq\n        /* \"#utility.yul\":621:684   */\n      tag_427\n      jumpi\n        /* \"#utility.yul\":680:681   */\n      0x00\n        /* \"#utility.yul\":677:678   */\n      dup1\n        /* \"#utility.yul\":670:682   */\n      revert\n        /* \"#utility.yul\":621:684   */\n    tag_427:\n        /* \"#utility.yul\":568:690   */\n      pop\n      jump\t// out\n        /* \"#utility.yul\":696:835   */\n    tag_376:\n        /* \"#utility.yul\":742:747   */\n      0x00\n        /* \"#utility.yul\":780:786   */\n      dup2\n        /* \"#utility.yul\":767:787   */\n      calldataload\n        /* \"#utility.yul\":758:787   */\n      swap1\n      pop\n        /* \"#utility.yul\":796:829   */\n      tag_429\n        /* \"#utility.yul\":823:828   */\n      dup2\n        /* \"#utility.yul\":796:829   */\n      tag_375\n      jump\t// in\n    tag_429:\n        /* \"#utility.yul\":696:835   */\n      swap3\n      swap2\n      pop\n      pop\n      jump\t// out\n        /* \"#utility.yul\":841:958   */\n    tag_377:\n        /* \"#utility.yul\":950:951   */\n      0x00\n        /* \"#utility.yul\":947:948   */\n      dup1\n        /* \"#utility.yul\":940:952   */\n      revert\n        /* \"#utility.yul\":964:1081   */\n    tag_378:\n        /* \"#utility.yul\":1073:1074   */\n      0x00\n        /* \"#utility.yul\":1070:1071   */\n      dup1\n        /* \"#utility.yul\":1063:1075   */\n      revert\n        /* \"#utility.yul\":1087:1189   */\n    tag_379:\n        /* \"#utility.yul\":1128:1134   */\n      0x00\n        /* \"#utility.yul\":1179:1181   */\n      0x1f\n        /* \"#utility.yul\":1175:1182   */\n      not\n        /* \"#utility.yul\":1170:1172   */\n      0x1f\n        /* \"#utility.yul\":1163:1168   */\n      dup4\n        /* \"#utility.yul\":1159:1173   */\n      add\n        /* \"#utility.yul\":1155:1183   */\n      and\n        /* \"#utility.yul\":1145:1183   */\n      swap1\n      pop\n        /* \"#utility.yul\":1087:1189   */\n      swap2\n      swap1\n      pop\n      jump\t// out\n        /* \"#utility.yul\":1195:1375   */\n    tag_279:\n        /* \"#utility.yul\":1243:1320   */\n      0x4e487b7100000000000000000000000000000000000000000000000000000000\n        /* \"#utility.yul\":1240:1241   */\n      0x00\n        /* \"#utility.yul\":1233:1321   */\n      mstore\n        /* \"#utility.yul\":1340:1344   */\n      0x41\n        /* \"#utility.yul\":1337:1338   */\n      0x04\n        /* \"#utility.yul\":1330:1345   */\n      mstore\n        /* \"#utility.yul\":1364:1368   */\n      0x24\n        /* \"#utility.yul\":1361:1362   */\n      0x00\n        /* \"#utility.yul\":1354:1369   */\n      revert\n        /* \"#utility.yul\":1381:1662   */\n    tag_380:\n        /* \"#utility.yul\":1464:1491   */\n      tag_435\n        /* \"#utility.yul\":1486:1490   */\n      dup3\n        /* \"#utility.yul\":1464:1491   */\n      tag_379\n      jump\t// in\n    tag_435:\n        /* \"#utility.yul\":1456:1462   */\n      dup2\n        /* \"#utility.yul\":1452:1492   */\n      add\n        /* \"#utility.yul\":1594:1600   */\n      dup2\n        /* \"#utility.yul\":1582:1592   */\n      dup2\n        /* \"#utility.yul\":1579:1601   */\n      lt\n        /* \"#utility.yul\":1558:1576   */\n      0xffffffffffffffff\n        /* \"#utility.yul\":1546:1556   */\n      dup3\n        /* \"#utility.yul\":1543:1577   */\n      gt\n        /* \"#utility.yul\":1540:1602   */\n      or\n        /* \"#utility.yul\":1537:1625   */\n      iszero\n      tag_436\n      jumpi\n        /* \"#utility.yul\":1605:1623   */\n      tag_437\n      tag_279\n      jump\t// in\n    tag_437:\n        /* \"#utility.yul\":1537:1625   */\n    tag_436:\n        /* \"#utility.yul\":1645:1655   */\n      dup1\n        /* \"#utility.yul\":1641:1643   */\n      0x40\n        /* \"#utility.yul\":1634:1656   */\n      mstore\n        /* \"#utility.yul\":1424:1662   */\n      pop\n        /* \"#utility.yul\":1381:1662   */\n      pop\n      pop\n      jump\t// out\n        /* \"#utility.yul\":1668:1797   */\n    tag_381:\n        /* \"#utility.yul\":1702:1708   */\n      0x00\n        /* \"#utility.yul\":1729:1749   */\n      tag_439\n      tag_370\n      jump\t// in\n    tag_439:\n        /* \"#utility.yul\":1719:1749   */\n      swap1\n      pop\n        /* \"#utility.yul\":1758:1791   */\n      tag_440\n        /* \"#utility.yul\":1786:1790   */\n      dup3\n        /* \"#utility.yul\":1778:1784   */\n      dup3\n        /* \"#utility.yul\":1758:1791   */\n      tag_380\n      jump\t// in\n    tag_440:\n        /* \"#utility.yul\":1668:1797   */\n      swap2\n      swap1\n      pop\n      jump\t// out\n        /* \"#utility.yul\":1803:2111   */\n    tag_382:\n        /* \"#utility.yul\":1865:1869   */\n      0x00\n        /* \"#utility.yul\":1955:1973   */\n      0xffffffffffffffff\n        /* \"#utility.yul\":1947:1953   */\n      dup3\n        /* \"#utility.yul\":1944:1974   */\n      gt\n        /* \"#utility.yul\":1941:1997   */\n      iszero\n      tag_442\n      jumpi\n        /* \"#utility.yul\":1977:1995   */\n      tag_443\n      tag_279\n      jump\t// in\n    tag_443:\n        /* \"#utility.yul\":1941:1997   */\n    tag_442:\n        /* \"#utility.yul\":2015:2044   */\n      tag_444\n        /* \"#utility.yul\":2037:2043   */\n      dup3\n        /* \"#utility.yul\":2015:2044   */\n      tag_379\n      jump\t// in\n    tag_444:\n        /* \"#utility.yul\":2007:2044   */\n      swap1\n      pop\n        /* \"#utility.yul\":2099:2103   */\n      0x20\n        /* \"#utility.yul\":2093:2097   */\n      dup2\n        /* \"#utility.yul\":2089:2104   */\n      add\n        /* \"#utility.yul\":2081:2104   */\n      swap1\n      pop\n        /* \"#utility.yul\":1803:2111   */\n      swap2\n      swap1\n      pop\n      jump\t// out\n        /* \"#utility.yul\":2117:2271   */\n    tag_383:\n        /* \"#utility.yul\":2201:2207   */\n      dup3\n        /* \"#utility.yul\":2196:2199   */\n      dup2\n        /* \"#utility.yul\":2191:2194   */\n      dup4\n        /* \"#utility.yul\":2178:2208   */\n      calldatacopy\n        /* \"#utility.yul\":2263:2264   */\n      0x00\n        /* \"#utility.yul\":2254:2260   */\n      dup4\n        /* \"#utility.yul\":2249:2252   */\n      dup4\n        /* \"#utility.yul\":2245:2261   */\n      add\n        /* \"#utility.yul\":2238:2265   */\n      mstore\n        /* \"#utility.yul\":2117:2271   */\n      pop\n      pop\n      pop\n      jump\t// out\n        /* \"#utility.yul\":2277:2689   */\n    tag_384:\n        /* \"#utility.yul\":2355:2360   */\n      0x00\n        /* \"#utility.yul\":2380:2446   */\n      tag_447\n        /* \"#utility.yul\":2396:2445   */\n      tag_448\n        /* \"#utility.yul\":2438:2444   */\n      dup5\n        /* \"#utility.yul\":2396:2445   */\n      tag_382\n      jump\t// in\n    tag_448:\n        /* \"#utility.yul\":2380:2446   */\n      tag_381\n      jump\t// in\n    tag_447:\n        /* \"#utility.yul\":2371:2446   */\n      swap1\n      pop\n        /* \"#utility.yul\":2469:2475   */\n      dup3\n        /* \"#utility.yul\":2462:2467   */\n      dup2\n        /* \"#utility.yul\":2455:2476   */\n      mstore\n        /* \"#utility.yul\":2507:2511   */\n      0x20\n        /* \"#utility.yul\":2500:2505   */\n      dup2\n        /* \"#utility.yul\":2496:2512   */\n      add\n        /* \"#utility.yul\":2545:2548   */\n      dup5\n        /* \"#utility.yul\":2536:2542   */\n      dup5\n        /* \"#utility.yul\":2531:2534   */\n      dup5\n        /* \"#utility.yul\":2527:2543   */\n      add\n        /* \"#utility.yul\":2524:2549   */\n      gt\n        /* \"#utility.yul\":2521:2633   */\n      iszero\n      tag_449\n      jumpi\n        /* \"#utility.yul\":2552:2631   */\n      tag_450\n      tag_378\n      jump\t// in\n    tag_450:\n        /* \"#utility.yul\":2521:2633   */\n    tag_449:\n        /* \"#utility.yul\":2642:2683   */\n      tag_451\n        /* \"#utility.yul\":2676:2682   */\n      dup5\n        /* \"#utility.yul\":2671:2674   */\n      dup3\n        /* \"#utility.yul\":2666:2669   */\n      dup6\n        /* \"#utility.yul\":2642:2683   */\n      tag_383\n      jump\t// in\n    tag_451:\n        /* \"#utility.yul\":2361:2689   */\n      pop\n        /* \"#utility.yul\":2277:2689   */\n      swap4\n      swap3\n      pop\n      pop\n      pop\n      jump\t// out\n        /* \"#utility.yul\":2709:3049   */\n    tag_385:\n        /* \"#utility.yul\":2765:2770   */\n      0x00\n        /* \"#utility.yul\":2814:2817   */\n      dup3\n        /* \"#utility.yul\":2807:2811   */\n      0x1f\n        /* \"#utility.yul\":2799:2805   */\n      dup4\n        /* \"#utility.yul\":2795:2812   */\n      add\n        /* \"#utility.yul\":2791:2818   */\n      slt\n        /* \"#utility.yul\":2781:2903   */\n      tag_453\n      jumpi\n        /* \"#utility.yul\":2822:2901   */\n      tag_454\n      tag_377\n      jump\t// in\n    tag_454:\n        /* \"#utility.yul\":2781:2903   */\n    tag_453:\n        /* \"#utility.yul\":2939:2945   */\n      dup2\n        /* \"#utility.yul\":2926:2946   */\n      calldataload\n        /* \"#utility.yul\":2964:3043   */\n      tag_455\n        /* \"#utility.yul\":3039:3042   */\n      dup5\n        /* \"#utility.yul\":3031:3037   */\n      dup3\n        /* \"#utility.yul\":3024:3028   */\n      0x20\n        /* \"#utility.yul\":3016:3022   */\n      dup7\n        /* \"#utility.yul\":3012:3029   */\n      add\n        /* \"#utility.yul\":2964:3043   */\n      tag_384\n      jump\t// in\n    tag_455:\n        /* \"#utility.yul\":2955:3043   */\n      swap2\n      pop\n        /* \"#utility.yul\":2771:3049   */\n      pop\n        /* \"#utility.yul\":2709:3049   */\n      swap3\n      swap2\n      pop\n      pop\n      jump\t// out\n        /* \"#utility.yul\":3055:3709   */\n    tag_32:\n        /* \"#utility.yul\":3133:3139   */\n      0x00\n        /* \"#utility.yul\":3141:3147   */\n      dup1\n        /* \"#utility.yul\":3190:3192   */\n      0x40\n        /* \"#utility.yul\":3178:3187   */\n      dup4\n        /* \"#utility.yul\":3169:3176   */\n      dup6\n        /* \"#utility.yul\":3165:3188   */\n      sub\n        /* \"#utility.yul\":3161:3193   */\n      slt\n        /* \"#utility.yul\":3158:3277   */\n      iszero\n      tag_457\n      jumpi\n        /* \"#utility.yul\":3196:3275   */\n      tag_458\n      tag_371\n      jump\t// in\n    tag_458:\n        /* \"#utility.yul\":3158:3277   */\n    tag_457:\n        /* \"#utility.yul\":3316:3317   */\n      0x00\n        /* \"#utility.yul\":3341:3394   */\n      tag_459\n        /* \"#utility.yul\":3386:3393   */\n      dup6\n        /* \"#utility.yul\":3377:3383   */\n      dup3\n        /* \"#utility.yul\":3366:3375   */\n      dup7\n        /* \"#utility.yul\":3362:3384   */\n      add\n        /* \"#utility.yul\":3341:3394   */\n      tag_376\n      jump\t// in\n    tag_459:\n        /* \"#utility.yul\":3331:3394   */\n      swap3\n      pop\n        /* \"#utility.yul\":3287:3404   */\n      pop\n        /* \"#utility.yul\":3471:3473   */\n      0x20\n        /* \"#utility.yul\":3460:3469   */\n      dup4\n        /* \"#utility.yul\":3456:3474   */\n      add\n        /* \"#utility.yul\":3443:3475   */\n      calldataload\n        /* \"#utility.yul\":3502:3520   */\n      0xffffffffffffffff\n        /* \"#utility.yul\":3494:3500   */\n      dup2\n        /* \"#utility.yul\":3491:3521   */\n      gt\n        /* \"#utility.yul\":3488:3605   */\n      iszero\n      tag_460\n      jumpi\n        /* \"#utility.yul\":3524:3603   */\n      tag_461\n      tag_372\n      jump\t// in\n    tag_461:\n        /* \"#utility.yul\":3488:3605   */\n    tag_460:\n        /* \"#utility.yul\":3629:3692   */\n      tag_462\n        /* \"#utility.yul\":3684:3691   */\n      dup6\n        /* \"#utility.yul\":3675:3681   */\n      dup3\n        /* \"#utility.yul\":3664:3673   */\n      dup7\n        /* \"#utility.yul\":3660:3682   */\n      add\n        /* \"#utility.yul\":3629:3692   */\n      tag_385\n      jump\t// in\n    tag_462:\n        /* \"#utility.yul\":3619:3692   */\n      swap2\n      pop\n        /* \"#utility.yul\":3414:3702   */\n      pop\n        /* \"#utility.yul\":3055:3709   */\n      swap3\n      pop\n      swap3\n      swap1\n      pop\n      jump\t// out\n        /* \"#utility.yul\":3715:4044   */\n    tag_36:\n        /* \"#utility.yul\":3774:3780   */\n      0x00\n        /* \"#utility.yul\":3823:3825   */\n      0x20\n        /* \"#utility.yul\":3811:3820   */\n      dup3\n        /* \"#utility.yul\":3802:3809   */\n      dup5\n        /* \"#utility.yul\":3798:3821   */\n      sub\n        /* \"#utility.yul\":3794:3826   */\n      slt\n        /* \"#utility.yul\":3791:3910   */\n      iszero\n      tag_464\n      jumpi\n        /* \"#utility.yul\":3829:3908   */\n      tag_465\n      tag_371\n      jump\t// in\n    tag_465:\n        /* \"#utility.yul\":3791:3910   */\n    tag_464:\n        /* \"#utility.yul\":3949:3950   */\n      0x00\n        /* \"#utility.yul\":3974:4027   */\n      tag_466\n        /* \"#utility.yul\":4019:4026   */\n      dup5\n        /* \"#utility.yul\":4010:4016   */\n      dup3\n        /* \"#utility.yul\":3999:4008   */\n      dup6\n        /* \"#utility.yul\":3995:4017   */\n      add\n        /* \"#utility.yul\":3974:4027   */\n      tag_376\n      jump\t// in\n    tag_466:\n        /* \"#utility.yul\":3964:4027   */\n      swap2\n      pop\n        /* \"#utility.yul\":3920:4037   */\n      pop\n        /* \"#utility.yul\":3715:4044   */\n      swap3\n      swap2\n      pop\n      pop\n      jump\t// out\n        /* \"#utility.yul\":4050:6187   */\n    tag_40:\n        /* \"#utility.yul\":4214:4220   */\n      0x00\n        /* \"#utility.yul\":4222:4228   */\n      dup1\n        /* \"#utility.yul\":4230:4236   */\n      0x00\n        /* \"#utility.yul\":4238:4244   */\n      dup1\n        /* \"#utility.yul\":4246:4252   */\n      0x00\n        /* \"#utility.yul\":4254:4260   */\n      dup1\n        /* \"#utility.yul\":4303:4306   */\n      0xc0\n        /* \"#utility.yul\":4291:4300   */\n      dup8\n        /* \"#utility.yul\":4282:4289   */\n      dup10\n        /* \"#utility.yul\":4278:4301   */\n      sub\n        /* \"#utility.yul\":4274:4307   */\n      slt\n        /* \"#utility.yul\":4271:4391   */\n      iszero\n      tag_468\n      jumpi\n        /* \"#utility.yul\":4310:4389   */\n      tag_469\n      tag_371\n      jump\t// in\n    tag_469:\n        /* \"#utility.yul\":4271:4391   */\n    tag_468:\n        /* \"#utility.yul\":4458:4459   */\n      0x00\n        /* \"#utility.yul\":4447:4456   */\n      dup8\n        /* \"#utility.yul\":4443:4460   */\n      add\n        /* \"#utility.yul\":4430:4461   */\n      calldataload\n        /* \"#utility.yul\":4488:4506   */\n      0xffffffffffffffff\n        /* \"#utility.yul\":4480:4486   */\n      dup2\n        /* \"#utility.yul\":4477:4507   */\n      gt\n        /* \"#utility.yul\":4474:4591   */\n      iszero\n      tag_470\n      jumpi\n        /* \"#utility.yul\":4510:4589   */\n      tag_471\n      tag_372\n      jump\t// in\n    tag_471:\n        /* \"#utility.yul\":4474:4591   */\n    tag_470:\n        /* \"#utility.yul\":4615:4678   */\n      tag_472\n        /* \"#utility.yul\":4670:4677   */\n      dup10\n        /* \"#utility.yul\":4661:4667   */\n      dup3\n        /* \"#utility.yul\":4650:4659   */\n      dup11\n        /* \"#utility.yul\":4646:4668   */\n      add\n        /* \"#utility.yul\":4615:4678   */\n      tag_385\n      jump\t// in\n    tag_472:\n        /* \"#utility.yul\":4605:4678   */\n      swap7\n      pop\n        /* \"#utility.yul\":4401:4688   */\n      pop\n        /* \"#utility.yul\":4755:4757   */\n      0x20\n        /* \"#utility.yul\":4744:4753   */\n      dup8\n        /* \"#utility.yul\":4740:4758   */\n      add\n        /* \"#utility.yul\":4727:4759   */\n      calldataload\n        /* \"#utility.yul\":4786:4804   */\n      0xffffffffffffffff\n        /* \"#utility.yul\":4778:4784   */\n      dup2\n        /* \"#utility.yul\":4775:4805   */\n      gt\n        /* \"#utility.yul\":4772:4889   */\n      iszero\n      tag_473\n      jumpi\n        /* \"#utility.yul\":4808:4887   */\n      tag_474\n      tag_372\n      jump\t// in\n    tag_474:\n        /* \"#utility.yul\":4772:4889   */\n    tag_473:\n        /* \"#utility.yul\":4913:4976   */\n      tag_475\n        /* \"#utility.yul\":4968:4975   */\n      dup10\n        /* \"#utility.yul\":4959:4965   */\n      dup3\n        /* \"#utility.yul\":4948:4957   */\n      dup11\n        /* \"#utility.yul\":4944:4966   */\n      add\n        /* \"#utility.yul\":4913:4976   */\n      tag_385\n      jump\t// in\n    tag_475:\n        /* \"#utility.yul\":4903:4976   */\n      swap6\n      pop\n        /* \"#utility.yul\":4698:4986   */\n      pop\n        /* \"#utility.yul\":5053:5055   */\n      0x40\n        /* \"#utility.yul\":5042:5051   */\n      dup8\n        /* \"#utility.yul\":5038:5056   */\n      add\n        /* \"#utility.yul\":5025:5057   */\n      calldataload\n        /* \"#utility.yul\":5084:5102   */\n      0xffffffffffffffff\n        /* \"#utility.yul\":5076:5082   */\n      dup2\n        /* \"#utility.yul\":5073:5103   */\n      gt\n        /* \"#utility.yul\":5070:5187   */\n      iszero\n      tag_476\n      jumpi\n        /* \"#utility.yul\":5106:5185   */\n      tag_477\n      tag_372\n      jump\t// in\n    tag_477:\n        /* \"#utility.yul\":5070:5187   */\n    tag_476:\n        /* \"#utility.yul\":5211:5274   */\n      tag_478\n        /* \"#utility.yul\":5266:5273   */\n      dup10\n        /* \"#utility.yul\":5257:5263   */\n      dup3\n        /* \"#utility.yul\":5246:5255   */\n      dup11\n        /* \"#utility.yul\":5242:5264   */\n      add\n        /* \"#utility.yul\":5211:5274   */\n      tag_385\n      jump\t// in\n    tag_478:\n        /* \"#utility.yul\":5201:5274   */\n      swap5\n      pop\n        /* \"#utility.yul\":4996:5284   */\n      pop\n        /* \"#utility.yul\":5351:5353   */\n      0x60\n        /* \"#utility.yul\":5340:5349   */\n      dup8\n        /* \"#utility.yul\":5336:5354   */\n      add\n        /* \"#utility.yul\":5323:5355   */\n      calldataload\n        /* \"#utility.yul\":5382:5400   */\n      0xffffffffffffffff\n        /* \"#utility.yul\":5374:5380   */\n      dup2\n        /* \"#utility.yul\":5371:5401   */\n      gt\n        /* \"#utility.yul\":5368:5485   */\n      iszero\n      tag_479\n      jumpi\n        /* \"#utility.yul\":5404:5483   */\n      tag_480\n      tag_372\n      jump\t// in\n    tag_480:\n        /* \"#utility.yul\":5368:5485   */\n    tag_479:\n        /* \"#utility.yul\":5509:5572   */\n      tag_481\n        /* \"#utility.yul\":5564:5571   */\n      dup10\n        /* \"#utility.yul\":5555:5561   */\n      dup3\n        /* \"#utility.yul\":5544:5553   */\n      dup11\n        /* \"#utility.yul\":5540:5562   */\n      add\n        /* \"#utility.yul\":5509:5572   */\n      tag_385\n      jump\t// in\n    tag_481:\n        /* \"#utility.yul\":5499:5572   */\n      swap4\n      pop\n        /* \"#utility.yul\":5294:5582   */\n      pop\n        /* \"#utility.yul\":5649:5652   */\n      0x80\n        /* \"#utility.yul\":5638:5647   */\n      dup8\n        /* \"#utility.yul\":5634:5653   */\n      add\n        /* \"#utility.yul\":5621:5654   */\n      calldataload\n        /* \"#utility.yul\":5681:5699   */\n      0xffffffffffffffff\n        /* \"#utility.yul\":5673:5679   */\n      dup2\n        /* \"#utility.yul\":5670:5700   */\n      gt\n        /* \"#utility.yul\":5667:5784   */\n      iszero\n      tag_482\n      jumpi\n        /* \"#utility.yul\":5703:5782   */\n      tag_483\n      tag_372\n      jump\t// in\n    tag_483:\n        /* \"#utility.yul\":5667:5784   */\n    tag_482:\n        /* \"#utility.yul\":5808:5871   */\n      tag_484\n        /* \"#utility.yul\":5863:5870   */\n      dup10\n        /* \"#utility.yul\":5854:5860   */\n      dup3\n        /* \"#utility.yul\":5843:5852   */\n      dup11\n        /* \"#utility.yul\":5839:5861   */\n      add\n        /* \"#utility.yul\":5808:5871   */\n      tag_385\n      jump\t// in\n    tag_484:\n        /* \"#utility.yul\":5798:5871   */\n      swap3\n      pop\n        /* \"#utility.yul\":5592:5881   */\n      pop\n        /* \"#utility.yul\":5948:5951   */\n      0xa0\n        /* \"#utility.yul\":5937:5946   */\n      dup8\n        /* \"#utility.yul\":5933:5952   */\n      add\n        /* \"#utility.yul\":5920:5953   */\n      calldataload\n        /* \"#utility.yul\":5980:5998   */\n      0xffffffffffffffff\n        /* \"#utility.yul\":5972:5978   */\n      dup2\n        /* \"#utility.yul\":5969:5999   */\n      gt\n        /* \"#utility.yul\":5966:6083   */\n      iszero\n      tag_485\n      jumpi\n        /* \"#utility.yul\":6002:6081   */\n      tag_486\n      tag_372\n      jump\t// in\n    tag_486:\n        /* \"#utility.yul\":5966:6083   */\n    tag_485:\n        /* \"#utility.yul\":6107:6170   */\n      tag_487\n        /* \"#utility.yul\":6162:6169   */\n      dup10\n        /* \"#utility.yul\":6153:6159   */\n      dup3\n        /* \"#utility.yul\":6142:6151   */\n      dup11\n        /* \"#utility.yul\":6138:6160   */\n      add\n        /* \"#utility.yul\":6107:6170   */\n      tag_385\n      jump\t// in\n    tag_487:\n        /* \"#utility.yul\":6097:6170   */\n      swap2\n      pop\n        /* \"#utility.yul\":5891:6180   */\n      pop\n        /* \"#utility.yul\":4050:6187   */\n      swap3\n      swap6\n      pop\n      swap3\n      swap6\n      pop\n      swap3\n      swap6\n      jump\t// out\n        /* \"#utility.yul\":6193:6283   */\n    tag_386:\n        /* \"#utility.yul\":6227:6234   */\n      0x00\n        /* \"#utility.yul\":6270:6275   */\n      dup2\n        /* \"#utility.yul\":6263:6276   */\n      iszero\n        /* \"#utility.yul\":6256:6277   */\n      iszero\n        /* \"#utility.yul\":6245:6277   */\n      swap1\n      pop\n        /* \"#utility.yul\":6193:6283   */\n      swap2\n      swap1\n      pop\n      jump\t// out\n        /* \"#utility.yul\":6289:6398   */\n    tag_387:\n        /* \"#utility.yul\":6370:6391   */\n      tag_490\n        /* \"#utility.yul\":6385:6390   */\n      dup2\n        /* \"#utility.yul\":6370:6391   */\n      tag_386\n      jump\t// in\n    tag_490:\n        /* \"#utility.yul\":6365:6368   */\n      dup3\n        /* \"#utility.yul\":6358:6392   */\n      mstore\n        /* \"#utility.yul\":6289:6398   */\n      pop\n      pop\n      jump\t// out\n        /* \"#utility.yul\":6404:6614   */\n    tag_46:\n        /* \"#utility.yul\":6491:6495   */\n      0x00\n        /* \"#utility.yul\":6529:6531   */\n      0x20\n        /* \"#utility.yul\":6518:6527   */\n      dup3\n        /* \"#utility.yul\":6514:6532   */\n      add\n        /* \"#utility.yul\":6506:6532   */\n      swap1\n      pop\n        /* \"#utility.yul\":6542:6607   */\n      tag_492\n        /* \"#utility.yul\":6604:6605   */\n      0x00\n        /* \"#utility.yul\":6593:6602   */\n      dup4\n        /* \"#utility.yul\":6589:6606   */\n      add\n        /* \"#utility.yul\":6580:6586   */\n      dup5\n        /* \"#utility.yul\":6542:6607   */\n      tag_387\n      jump\t// in\n    tag_492:\n        /* \"#utility.yul\":6404:6614   */\n      swap3\n      swap2\n      pop\n      pop\n      jump\t// out\n        /* \"#utility.yul\":6620:6697   */\n    tag_388:\n        /* \"#utility.yul\":6657:6664   */\n      0x00\n        /* \"#utility.yul\":6686:6691   */\n      dup2\n        /* \"#utility.yul\":6675:6691   */\n      swap1\n      pop\n        /* \"#utility.yul\":6620:6697   */\n      swap2\n      swap1\n      pop\n      jump\t// out\n        /* \"#utility.yul\":6703:6825   */\n    tag_389:\n        /* \"#utility.yul\":6776:6800   */\n      tag_495\n        /* \"#utility.yul\":6794:6799   */\n      dup2\n        /* \"#utility.yul\":6776:6800   */\n      tag_388\n      jump\t// in\n    tag_495:\n        /* \"#utility.yul\":6769:6774   */\n      dup2\n        /* \"#utility.yul\":6766:6801   */\n      eq\n        /* \"#utility.yul\":6756:6819   */\n      tag_496\n      jumpi\n        /* \"#utility.yul\":6815:6816   */\n      0x00\n        /* \"#utility.yul\":6812:6813   */\n      dup1\n        /* \"#utility.yul\":6805:6817   */\n      revert\n        /* \"#utility.yul\":6756:6819   */\n    tag_496:\n        /* \"#utility.yul\":6703:6825   */\n      pop\n      jump\t// out\n        /* \"#utility.yul\":6831:6970   */\n    tag_390:\n        /* \"#utility.yul\":6877:6882   */\n      0x00\n        /* \"#utility.yul\":6915:6921   */\n      dup2\n        /* \"#utility.yul\":6902:6922   */\n      calldataload\n        /* \"#utility.yul\":6893:6922   */\n      swap1\n      pop\n        /* \"#utility.yul\":6931:6964   */\n      tag_498\n        /* \"#utility.yul\":6958:6963   */\n      dup2\n        /* \"#utility.yul\":6931:6964   */\n      tag_389\n      jump\t// in\n    tag_498:\n        /* \"#utility.yul\":6831:6970   */\n      swap3\n      swap2\n      pop\n      pop\n      jump\t// out\n        /* \"#utility.yul\":6976:7305   */\n    tag_52:\n        /* \"#utility.yul\":7035:7041   */\n      0x00\n        /* \"#utility.yul\":7084:7086   */\n      0x20\n        /* \"#utility.yul\":7072:7081   */\n      dup3\n        /* \"#utility.yul\":7063:7070   */\n      dup5\n        /* \"#utility.yul\":7059:7082   */\n      sub\n        /* \"#utility.yul\":7055:7087   */\n      slt\n        /* \"#utility.yul\":7052:7171   */\n      iszero\n      tag_500\n      jumpi\n        /* \"#utility.yul\":7090:7169   */\n      tag_501\n      tag_371\n      jump\t// in\n    tag_501:\n        /* \"#utility.yul\":7052:7171   */\n    tag_500:\n        /* \"#utility.yul\":7210:7211   */\n      0x00\n        /* \"#utility.yul\":7235:7288   */\n      tag_502\n        /* \"#utility.yul\":7280:7287   */\n      dup5\n        /* \"#utility.yul\":7271:7277   */\n      dup3\n        /* \"#utility.yul\":7260:7269   */\n      dup6\n        /* \"#utility.yul\":7256:7278   */\n      add\n        /* \"#utility.yul\":7235:7288   */\n      tag_390\n      jump\t// in\n    tag_502:\n        /* \"#utility.yul\":7225:7288   */\n      swap2\n      pop\n        /* \"#utility.yul\":7181:7298   */\n      pop\n        /* \"#utility.yul\":6976:7305   */\n      swap3\n      swap2\n      pop\n      pop\n      jump\t// out\n        /* \"#utility.yul\":7311:7410   */\n    tag_391:\n        /* \"#utility.yul\":7363:7369   */\n      0x00\n        /* \"#utility.yul\":7397:7402   */\n      dup2\n        /* \"#utility.yul\":7391:7403   */\n      mload\n        /* \"#utility.yul\":7381:7403   */\n      swap1\n      pop\n        /* \"#utility.yul\":7311:7410   */\n      swap2\n      swap1\n      pop\n      jump\t// out\n        /* \"#utility.yul\":7416:7585   */\n    tag_392:\n        /* \"#utility.yul\":7500:7511   */\n      0x00\n        /* \"#utility.yul\":7534:7540   */\n      dup3\n        /* \"#utility.yul\":7529:7532   */\n      dup3\n        /* \"#utility.yul\":7522:7541   */\n      mstore\n        /* \"#utility.yul\":7574:7578   */\n      0x20\n        /* \"#utility.yul\":7569:7572   */\n      dup3\n        /* \"#utility.yul\":7565:7579   */\n      add\n        /* \"#utility.yul\":7550:7579   */\n      swap1\n      pop\n        /* \"#utility.yul\":7416:7585   */\n      swap3\n      swap2\n      pop\n      pop\n      jump\t// out\n        /* \"#utility.yul\":7591:7898   */\n    tag_393:\n        /* \"#utility.yul\":7659:7660   */\n      0x00\n        /* \"#utility.yul\":7669:7782   */\n    tag_506:\n        /* \"#utility.yul\":7683:7689   */\n      dup4\n        /* \"#utility.yul\":7680:7681   */\n      dup2\n        /* \"#utility.yul\":7677:7690   */\n      lt\n        /* \"#utility.yul\":7669:7782   */\n      iszero\n      tag_508\n      jumpi\n        /* \"#utility.yul\":7768:7769   */\n      dup1\n        /* \"#utility.yul\":7763:7766   */\n      dup3\n        /* \"#utility.yul\":7759:7770   */\n      add\n        /* \"#utility.yul\":7753:7771   */\n      mload\n        /* \"#utility.yul\":7749:7750   */\n      dup2\n        /* \"#utility.yul\":7744:7747   */\n      dup5\n        /* \"#utility.yul\":7740:7751   */\n      add\n        /* \"#utility.yul\":7733:7772   */\n      mstore\n        /* \"#utility.yul\":7705:7707   */\n      0x20\n        /* \"#utility.yul\":7702:7703   */\n      dup2\n        /* \"#utility.yul\":7698:7708   */\n      add\n        /* \"#utility.yul\":7693:7708   */\n      swap1\n      pop\n        /* \"#utility.yul\":7669:7782   */\n      jump(tag_506)\n    tag_508:\n        /* \"#utility.yul\":7800:7806   */\n      dup4\n        /* \"#utility.yul\":7797:7798   */\n      dup2\n        /* \"#utility.yul\":7794:7807   */\n      gt\n        /* \"#utility.yul\":7791:7892   */\n      iszero\n      tag_509\n      jumpi\n        /* \"#utility.yul\":7880:7881   */\n      0x00\n        /* \"#utility.yul\":7871:7877   */\n      dup5\n        /* \"#utility.yul\":7866:7869   */\n      dup5\n        /* \"#utility.yul\":7862:7878   */\n      add\n        /* \"#utility.yul\":7855:7882   */\n      mstore\n        /* \"#utility.yul\":7791:7892   */\n    tag_509:\n        /* \"#utility.yul\":7640:7898   */\n      pop\n        /* \"#utility.yul\":7591:7898   */\n      pop\n      pop\n      pop\n      jump\t// out\n        /* \"#utility.yul\":7904:8268   */\n    tag_394:\n        /* \"#utility.yul\":7992:7995   */\n      0x00\n        /* \"#utility.yul\":8020:8059   */\n      tag_511\n        /* \"#utility.yul\":8053:8058   */\n      dup3\n        /* \"#utility.yul\":8020:8059   */\n      tag_391\n      jump\t// in\n    tag_511:\n        /* \"#utility.yul\":8075:8146   */\n      tag_512\n        /* \"#utility.yul\":8139:8145   */\n      dup2\n        /* \"#utility.yul\":8134:8137   */\n      dup6\n        /* \"#utility.yul\":8075:8146   */\n      tag_392\n      jump\t// in\n    tag_512:\n        /* \"#utility.yul\":8068:8146   */\n      swap4\n      pop\n        /* \"#utility.yul\":8155:8207   */\n      tag_513\n        /* \"#utility.yul\":8200:8206   */\n      dup2\n        /* \"#utility.yul\":8195:8198   */\n      dup6\n        /* \"#utility.yul\":8188:8192   */\n      0x20\n        /* \"#utility.yul\":8181:8186   */\n      dup7\n        /* \"#utility.yul\":8177:8193   */\n      add\n        /* \"#utility.yul\":8155:8207   */\n      tag_393\n      jump\t// in\n    tag_513:\n        /* \"#utility.yul\":8232:8261   */\n      tag_514\n        /* \"#utility.yul\":8254:8260   */\n      dup2\n        /* \"#utility.yul\":8232:8261   */\n      tag_379\n      jump\t// in\n    tag_514:\n        /* \"#utility.yul\":8227:8230   */\n      dup5\n        /* \"#utility.yul\":8223:8262   */\n      add\n        /* \"#utility.yul\":8216:8262   */\n      swap2\n      pop\n        /* \"#utility.yul\":7996:8268   */\n      pop\n        /* \"#utility.yul\":7904:8268   */\n      swap3\n      swap2\n      pop\n      pop\n      jump\t// out\n        /* \"#utility.yul\":8274:8392   */\n    tag_395:\n        /* \"#utility.yul\":8361:8385   */\n      tag_516\n        /* \"#utility.yul\":8379:8384   */\n      dup2\n        /* \"#utility.yul\":8361:8385   */\n      tag_374\n      jump\t// in\n    tag_516:\n        /* \"#utility.yul\":8356:8359   */\n      dup3\n        /* \"#utility.yul\":8349:8386   */\n      mstore\n        /* \"#utility.yul\":8274:8392   */\n      pop\n      pop\n      jump\t// out\n        /* \"#utility.yul\":8398:10032   */\n    tag_55:\n        /* \"#utility.yul\":8827:8831   */\n      0x00\n        /* \"#utility.yul\":8865:8868   */\n      0x0100\n        /* \"#utility.yul\":8854:8863   */\n      dup3\n        /* \"#utility.yul\":8850:8869   */\n      add\n        /* \"#utility.yul\":8842:8869   */\n      swap1\n      pop\n        /* \"#utility.yul\":8915:8924   */\n      dup2\n        /* \"#utility.yul\":8909:8913   */\n      dup2\n        /* \"#utility.yul\":8905:8925   */\n      sub\n        /* \"#utility.yul\":8901:8902   */\n      0x00\n        /* \"#utility.yul\":8890:8899   */\n      dup4\n        /* \"#utility.yul\":8886:8903   */\n      add\n        /* \"#utility.yul\":8879:8926   */\n      mstore\n        /* \"#utility.yul\":8943:9021   */\n      tag_518\n        /* \"#utility.yul\":9016:9020   */\n      dup2\n        /* \"#utility.yul\":9007:9013   */\n      dup12\n        /* \"#utility.yul\":8943:9021   */\n      tag_394\n      jump\t// in\n    tag_518:\n        /* \"#utility.yul\":8935:9021   */\n      swap1\n      pop\n        /* \"#utility.yul\":9068:9077   */\n      dup2\n        /* \"#utility.yul\":9062:9066   */\n      dup2\n        /* \"#utility.yul\":9058:9078   */\n      sub\n        /* \"#utility.yul\":9053:9055   */\n      0x20\n        /* \"#utility.yul\":9042:9051   */\n      dup4\n        /* \"#utility.yul\":9038:9056   */\n      add\n        /* \"#utility.yul\":9031:9079   */\n      mstore\n        /* \"#utility.yul\":9096:9174   */\n      tag_519\n        /* \"#utility.yul\":9169:9173   */\n      dup2\n        /* \"#utility.yul\":9160:9166   */\n      dup11\n        /* \"#utility.yul\":9096:9174   */\n      tag_394\n      jump\t// in\n    tag_519:\n        /* \"#utility.yul\":9088:9174   */\n      swap1\n      pop\n        /* \"#utility.yul\":9221:9230   */\n      dup2\n        /* \"#utility.yul\":9215:9219   */\n      dup2\n        /* \"#utility.yul\":9211:9231   */\n      sub\n        /* \"#utility.yul\":9206:9208   */\n      0x40\n        /* \"#utility.yul\":9195:9204   */\n      dup4\n        /* \"#utility.yul\":9191:9209   */\n      add\n        /* \"#utility.yul\":9184:9232   */\n      mstore\n        /* \"#utility.yul\":9249:9327   */\n      tag_520\n        /* \"#utility.yul\":9322:9326   */\n      dup2\n        /* \"#utility.yul\":9313:9319   */\n      dup10\n        /* \"#utility.yul\":9249:9327   */\n      tag_394\n      jump\t// in\n    tag_520:\n        /* \"#utility.yul\":9241:9327   */\n      swap1\n      pop\n        /* \"#utility.yul\":9374:9383   */\n      dup2\n        /* \"#utility.yul\":9368:9372   */\n      dup2\n        /* \"#utility.yul\":9364:9384   */\n      sub\n        /* \"#utility.yul\":9359:9361   */\n      0x60\n        /* \"#utility.yul\":9348:9357   */\n      dup4\n        /* \"#utility.yul\":9344:9362   */\n      add\n        /* \"#utility.yul\":9337:9385   */\n      mstore\n        /* \"#utility.yul\":9402:9480   */\n      tag_521\n        /* \"#utility.yul\":9475:9479   */\n      dup2\n        /* \"#utility.yul\":9466:9472   */\n      dup9\n        /* \"#utility.yul\":9402:9480   */\n      tag_394\n      jump\t// in\n    tag_521:\n        /* \"#utility.yul\":9394:9480   */\n      swap1\n      pop\n        /* \"#utility.yul\":9490:9563   */\n      tag_522\n        /* \"#utility.yul\":9558:9561   */\n      0x80\n        /* \"#utility.yul\":9547:9556   */\n      dup4\n        /* \"#utility.yul\":9543:9562   */\n      add\n        /* \"#utility.yul\":9534:9540   */\n      dup8\n        /* \"#utility.yul\":9490:9563   */\n      tag_395\n      jump\t// in\n    tag_522:\n        /* \"#utility.yul\":9611:9620   */\n      dup2\n        /* \"#utility.yul\":9605:9609   */\n      dup2\n        /* \"#utility.yul\":9601:9621   */\n      sub\n        /* \"#utility.yul\":9595:9598   */\n      0xa0\n        /* \"#utility.yul\":9584:9593   */\n      dup4\n        /* \"#utility.yul\":9580:9599   */\n      add\n        /* \"#utility.yul\":9573:9622   */\n      mstore\n        /* \"#utility.yul\":9639:9717   */\n      tag_523\n        /* \"#utility.yul\":9712:9716   */\n      dup2\n        /* \"#utility.yul\":9703:9709   */\n      dup7\n        /* \"#utility.yul\":9639:9717   */\n      tag_394\n      jump\t// in\n    tag_523:\n        /* \"#utility.yul\":9631:9717   */\n      swap1\n      pop\n        /* \"#utility.yul\":9765:9774   */\n      dup2\n        /* \"#utility.yul\":9759:9763   */\n      dup2\n        /* \"#utility.yul\":9755:9775   */\n      sub\n        /* \"#utility.yul\":9749:9752   */\n      0xc0\n        /* \"#utility.yul\":9738:9747   */\n      dup4\n        /* \"#utility.yul\":9734:9753   */\n      add\n        /* \"#utility.yul\":9727:9776   */\n      mstore\n        /* \"#utility.yul\":9793:9871   */\n      tag_524\n        /* \"#utility.yul\":9866:9870   */\n      dup2\n        /* \"#utility.yul\":9857:9863   */\n      dup6\n        /* \"#utility.yul\":9793:9871   */\n      tag_394\n      jump\t// in\n    tag_524:\n        /* \"#utility.yul\":9785:9871   */\n      swap1\n      pop\n        /* \"#utility.yul\":9919:9928   */\n      dup2\n        /* \"#utility.yul\":9913:9917   */\n      dup2\n        /* \"#utility.yul\":9909:9929   */\n      sub\n        /* \"#utility.yul\":9903:9906   */\n      0xe0\n        /* \"#utility.yul\":9892:9901   */\n      dup4\n        /* \"#utility.yul\":9888:9907   */\n      add\n        /* \"#utility.yul\":9881:9930   */\n      mstore\n        /* \"#utility.yul\":9947:10025   */\n      tag_525\n        /* \"#utility.yul\":10020:10024   */\n      dup2\n        /* \"#utility.yul\":10011:10017   */\n      dup5\n        /* \"#utility.yul\":9947:10025   */\n      tag_394\n      jump\t// in\n    tag_525:\n        /* \"#utility.yul\":9939:10025   */\n      swap1\n      pop\n        /* \"#utility.yul\":8398:10032   */\n      swap10\n      swap9\n      pop\n      pop\n      pop\n      pop\n      pop\n      pop\n      pop\n      pop\n      pop\n      jump\t// out\n        /* \"#utility.yul\":10038:10351   */\n    tag_83:\n        /* \"#utility.yul\":10151:10155   */\n      0x00\n        /* \"#utility.yul\":10189:10191   */\n      0x20\n        /* \"#utility.yul\":10178:10187   */\n      dup3\n        /* \"#utility.yul\":10174:10192   */\n      add\n        /* \"#utility.yul\":10166:10192   */\n      swap1\n      pop\n        /* \"#utility.yul\":10238:10247   */\n      dup2\n        /* \"#utility.yul\":10232:10236   */\n      dup2\n        /* \"#utility.yul\":10228:10248   */\n      sub\n        /* \"#utility.yul\":10224:10225   */\n      0x00\n        /* \"#utility.yul\":10213:10222   */\n      dup4\n        /* \"#utility.yul\":10209:10226   */\n      add\n        /* \"#utility.yul\":10202:10249   */\n      mstore\n        /* \"#utility.yul\":10266:10344   */\n      tag_527\n        /* \"#utility.yul\":10339:10343   */\n      dup2\n        /* \"#utility.yul\":10330:10336   */\n      dup5\n        /* \"#utility.yul\":10266:10344   */\n      tag_394\n      jump\t// in\n    tag_527:\n        /* \"#utility.yul\":10258:10344   */\n      swap1\n      pop\n        /* \"#utility.yul\":10038:10351   */\n      swap3\n      swap2\n      pop\n      pop\n      jump\t// out\n        /* \"#utility.yul\":10357:10579   */\n    tag_90:\n        /* \"#utility.yul\":10450:10454   */\n      0x00\n        /* \"#utility.yul\":10488:10490   */\n      0x20\n        /* \"#utility.yul\":10477:10486   */\n      dup3\n        /* \"#utility.yul\":10473:10491   */\n      add\n        /* \"#utility.yul\":10465:10491   */\n      swap1\n      pop\n        /* \"#utility.yul\":10501:10572   */\n      tag_529\n        /* \"#utility.yul\":10569:10570   */\n      0x00\n        /* \"#utility.yul\":10558:10567   */\n      dup4\n        /* \"#utility.yul\":10554:10571   */\n      add\n        /* \"#utility.yul\":10545:10551   */\n      dup5\n        /* \"#utility.yul\":10501:10572   */\n      tag_395\n      jump\t// in\n    tag_529:\n        /* \"#utility.yul\":10357:10579   */\n      swap3\n      swap2\n      pop\n      pop\n      jump\t// out\n        /* \"#utility.yul\":10585:10726   */\n    tag_396:\n        /* \"#utility.yul\":10679:10685   */\n      0x00\n        /* \"#utility.yul\":10713:10718   */\n      dup2\n        /* \"#utility.yul\":10707:10719   */\n      mload\n        /* \"#utility.yul\":10697:10719   */\n      swap1\n      pop\n        /* \"#utility.yul\":10585:10726   */\n      swap2\n      swap1\n      pop\n      jump\t// out\n        /* \"#utility.yul\":10732:10943   */\n    tag_397:\n        /* \"#utility.yul\":10858:10869   */\n      0x00\n        /* \"#utility.yul\":10892:10898   */\n      dup3\n        /* \"#utility.yul\":10887:10890   */\n      dup3\n        /* \"#utility.yul\":10880:10899   */\n      mstore\n        /* \"#utility.yul\":10932:10936   */\n      0x20\n        /* \"#utility.yul\":10927:10930   */\n      dup3\n        /* \"#utility.yul\":10923:10937   */\n      add\n        /* \"#utility.yul\":10908:10937   */\n      swap1\n      pop\n        /* \"#utility.yul\":10732:10943   */\n      swap3\n      swap2\n      pop\n      pop\n      jump\t// out\n        /* \"#utility.yul\":10949:11108   */\n    tag_398:\n        /* \"#utility.yul\":11043:11047   */\n      0x00\n        /* \"#utility.yul\":11066:11069   */\n      dup2\n        /* \"#utility.yul\":11058:11069   */\n      swap1\n      pop\n        /* \"#utility.yul\":11096:11100   */\n      0x20\n        /* \"#utility.yul\":11091:11094   */\n      dup3\n        /* \"#utility.yul\":11087:11101   */\n      add\n        /* \"#utility.yul\":11079:11101   */\n      swap1\n      pop\n        /* \"#utility.yul\":10949:11108   */\n      swap2\n      swap1\n      pop\n      jump\t// out\n        /* \"#utility.yul\":11114:11273   */\n    tag_399:\n        /* \"#utility.yul\":11188:11199   */\n      0x00\n        /* \"#utility.yul\":11222:11228   */\n      dup3\n        /* \"#utility.yul\":11217:11220   */\n      dup3\n        /* \"#utility.yul\":11210:11229   */\n      mstore\n        /* \"#utility.yul\":11262:11266   */\n      0x20\n        /* \"#utility.yul\":11257:11260   */\n      dup3\n        /* \"#utility.yul\":11253:11267   */\n      add\n        /* \"#utility.yul\":11238:11267   */\n      swap1\n      pop\n        /* \"#utility.yul\":11114:11273   */\n      swap3\n      swap2\n      pop\n      pop\n      jump\t// out\n        /* \"#utility.yul\":11279:11623   */\n    tag_400:\n        /* \"#utility.yul\":11357:11360   */\n      0x00\n        /* \"#utility.yul\":11385:11424   */\n      tag_535\n        /* \"#utility.yul\":11418:11423   */\n      dup3\n        /* \"#utility.yul\":11385:11424   */\n      tag_391\n      jump\t// in\n    tag_535:\n        /* \"#utility.yul\":11440:11501   */\n      tag_536\n        /* \"#utility.yul\":11494:11500   */\n      dup2\n        /* \"#utility.yul\":11489:11492   */\n      dup6\n        /* \"#utility.yul\":11440:11501   */\n      tag_399\n      jump\t// in\n    tag_536:\n        /* \"#utility.yul\":11433:11501   */\n      swap4\n      pop\n        /* \"#utility.yul\":11510:11562   */\n      tag_537\n        /* \"#utility.yul\":11555:11561   */\n      dup2\n        /* \"#utility.yul\":11550:11553   */\n      dup6\n        /* \"#utility.yul\":11543:11547   */\n      0x20\n        /* \"#utility.yul\":11536:11541   */\n      dup7\n        /* \"#utility.yul\":11532:11548   */\n      add\n        /* \"#utility.yul\":11510:11562   */\n      tag_393\n      jump\t// in\n    tag_537:\n        /* \"#utility.yul\":11587:11616   */\n      tag_538\n        /* \"#utility.yul\":11609:11615   */\n      dup2\n        /* \"#utility.yul\":11587:11616   */\n      tag_379\n      jump\t// in\n    tag_538:\n        /* \"#utility.yul\":11582:11585   */\n      dup5\n        /* \"#utility.yul\":11578:11617   */\n      add\n        /* \"#utility.yul\":11571:11617   */\n      swap2\n      pop\n        /* \"#utility.yul\":11361:11623   */\n      pop\n        /* \"#utility.yul\":11279:11623   */\n      swap3\n      swap2\n      pop\n      pop\n      jump\t// out\n        /* \"#utility.yul\":11629:11737   */\n    tag_401:\n        /* \"#utility.yul\":11706:11730   */\n      tag_540\n        /* \"#utility.yul\":11724:11729   */\n      dup2\n        /* \"#utility.yul\":11706:11730   */\n      tag_374\n      jump\t// in\n    tag_540:\n        /* \"#utility.yul\":11701:11704   */\n      dup3\n        /* \"#utility.yul\":11694:11731   */\n      mstore\n        /* \"#utility.yul\":11629:11737   */\n      pop\n      pop\n      jump\t// out\n        /* \"#utility.yul\":11809:13919   */\n    tag_402:\n        /* \"#utility.yul\":11922:11925   */\n      0x00\n        /* \"#utility.yul\":11958:11964   */\n      0x0100\n        /* \"#utility.yul\":11953:11956   */\n      dup4\n        /* \"#utility.yul\":11949:11965   */\n      add\n        /* \"#utility.yul\":12053:12057   */\n      0x00\n        /* \"#utility.yul\":12046:12051   */\n      dup4\n        /* \"#utility.yul\":12042:12058   */\n      add\n        /* \"#utility.yul\":12036:12059   */\n      mload\n        /* \"#utility.yul\":12106:12109   */\n      dup5\n        /* \"#utility.yul\":12100:12104   */\n      dup3\n        /* \"#utility.yul\":12096:12110   */\n      sub\n        /* \"#utility.yul\":12089:12093   */\n      0x00\n        /* \"#utility.yul\":12084:12087   */\n      dup7\n        /* \"#utility.yul\":12080:12094   */\n      add\n        /* \"#utility.yul\":12073:12111   */\n      mstore\n        /* \"#utility.yul\":12132:12205   */\n      tag_542\n        /* \"#utility.yul\":12200:12204   */\n      dup3\n        /* \"#utility.yul\":12186:12198   */\n      dup3\n        /* \"#utility.yul\":12132:12205   */\n      tag_400\n      jump\t// in\n    tag_542:\n        /* \"#utility.yul\":12124:12205   */\n      swap2\n      pop\n        /* \"#utility.yul\":11975:12216   */\n      pop\n        /* \"#utility.yul\":12303:12307   */\n      0x20\n        /* \"#utility.yul\":12296:12301   */\n      dup4\n        /* \"#utility.yul\":12292:12308   */\n      add\n        /* \"#utility.yul\":12286:12309   */\n      mload\n        /* \"#utility.yul\":12356:12359   */\n      dup5\n        /* \"#utility.yul\":12350:12354   */\n      dup3\n        /* \"#utility.yul\":12346:12360   */\n      sub\n        /* \"#utility.yul\":12339:12343   */\n      0x20\n        /* \"#utility.yul\":12334:12337   */\n      dup7\n        /* \"#utility.yul\":12330:12344   */\n      add\n        /* \"#utility.yul\":12323:12361   */\n      mstore\n        /* \"#utility.yul\":12382:12455   */\n      tag_543\n        /* \"#utility.yul\":12450:12454   */\n      dup3\n        /* \"#utility.yul\":12436:12448   */\n      dup3\n        /* \"#utility.yul\":12382:12455   */\n      tag_400\n      jump\t// in\n    tag_543:\n        /* \"#utility.yul\":12374:12455   */\n      swap2\n      pop\n        /* \"#utility.yul\":12226:12466   */\n      pop\n        /* \"#utility.yul\":12549:12553   */\n      0x40\n        /* \"#utility.yul\":12542:12547   */\n      dup4\n        /* \"#utility.yul\":12538:12554   */\n      add\n        /* \"#utility.yul\":12532:12555   */\n      mload\n        /* \"#utility.yul\":12602:12605   */\n      dup5\n        /* \"#utility.yul\":12596:12600   */\n      dup3\n        /* \"#utility.yul\":12592:12606   */\n      sub\n        /* \"#utility.yul\":12585:12589   */\n      0x40\n        /* \"#utility.yul\":12580:12583   */\n      dup7\n        /* \"#utility.yul\":12576:12590   */\n      add\n        /* \"#utility.yul\":12569:12607   */\n      mstore\n        /* \"#utility.yul\":12628:12701   */\n      tag_544\n        /* \"#utility.yul\":12696:12700   */\n      dup3\n        /* \"#utility.yul\":12682:12694   */\n      dup3\n        /* \"#utility.yul\":12628:12701   */\n      tag_400\n      jump\t// in\n    tag_544:\n        /* \"#utility.yul\":12620:12701   */\n      swap2\n      pop\n        /* \"#utility.yul\":12476:12712   */\n      pop\n        /* \"#utility.yul\":12795:12799   */\n      0x60\n        /* \"#utility.yul\":12788:12793   */\n      dup4\n        /* \"#utility.yul\":12784:12800   */\n      add\n        /* \"#utility.yul\":12778:12801   */\n      mload\n        /* \"#utility.yul\":12848:12851   */\n      dup5\n        /* \"#utility.yul\":12842:12846   */\n      dup3\n        /* \"#utility.yul\":12838:12852   */\n      sub\n        /* \"#utility.yul\":12831:12835   */\n      0x60\n        /* \"#utility.yul\":12826:12829   */\n      dup7\n        /* \"#utility.yul\":12822:12836   */\n      add\n        /* \"#utility.yul\":12815:12853   */\n      mstore\n        /* \"#utility.yul\":12874:12947   */\n      tag_545\n        /* \"#utility.yul\":12942:12946   */\n      dup3\n        /* \"#utility.yul\":12928:12940   */\n      dup3\n        /* \"#utility.yul\":12874:12947   */\n      tag_400\n      jump\t// in\n    tag_545:\n        /* \"#utility.yul\":12866:12947   */\n      swap2\n      pop\n        /* \"#utility.yul\":12722:12958   */\n      pop\n        /* \"#utility.yul\":13048:13052   */\n      0x80\n        /* \"#utility.yul\":13041:13046   */\n      dup4\n        /* \"#utility.yul\":13037:13053   */\n      add\n        /* \"#utility.yul\":13031:13054   */\n      mload\n        /* \"#utility.yul\":13067:13130   */\n      tag_546\n        /* \"#utility.yul\":13124:13128   */\n      0x80\n        /* \"#utility.yul\":13119:13122   */\n      dup7\n        /* \"#utility.yul\":13115:13129   */\n      add\n        /* \"#utility.yul\":13101:13113   */\n      dup3\n        /* \"#utility.yul\":13067:13130   */\n      tag_401\n      jump\t// in\n    tag_546:\n        /* \"#utility.yul\":12968:13140   */\n      pop\n        /* \"#utility.yul\":13225:13229   */\n      0xa0\n        /* \"#utility.yul\":13218:13223   */\n      dup4\n        /* \"#utility.yul\":13214:13230   */\n      add\n        /* \"#utility.yul\":13208:13231   */\n      mload\n        /* \"#utility.yul\":13278:13281   */\n      dup5\n        /* \"#utility.yul\":13272:13276   */\n      dup3\n        /* \"#utility.yul\":13268:13282   */\n      sub\n        /* \"#utility.yul\":13261:13265   */\n      0xa0\n        /* \"#utility.yul\":13256:13259   */\n      dup7\n        /* \"#utility.yul\":13252:13266   */\n      add\n        /* \"#utility.yul\":13245:13283   */\n      mstore\n        /* \"#utility.yul\":13304:13377   */\n      tag_547\n        /* \"#utility.yul\":13372:13376   */\n      dup3\n        /* \"#utility.yul\":13358:13370   */\n      dup3\n        /* \"#utility.yul\":13304:13377   */\n      tag_400\n      jump\t// in\n    tag_547:\n        /* \"#utility.yul\":13296:13377   */\n      swap2\n      pop\n        /* \"#utility.yul\":13150:13388   */\n      pop\n        /* \"#utility.yul\":13482:13486   */\n      0xc0\n        /* \"#utility.yul\":13475:13480   */\n      dup4\n        /* \"#utility.yul\":13471:13487   */\n      add\n        /* \"#utility.yul\":13465:13488   */\n      mload\n        /* \"#utility.yul\":13535:13538   */\n      dup5\n        /* \"#utility.yul\":13529:13533   */\n      dup3\n        /* \"#utility.yul\":13525:13539   */\n      sub\n        /* \"#utility.yul\":13518:13522   */\n      0xc0\n        /* \"#utility.yul\":13513:13516   */\n      dup7\n        /* \"#utility.yul\":13509:13523   */\n      add\n        /* \"#utility.yul\":13502:13540   */\n      mstore\n        /* \"#utility.yul\":13561:13634   */\n      tag_548\n        /* \"#utility.yul\":13629:13633   */\n      dup3\n        /* \"#utility.yul\":13615:13627   */\n      dup3\n        /* \"#utility.yul\":13561:13634   */\n      tag_400\n      jump\t// in\n    tag_548:\n        /* \"#utility.yul\":13553:13634   */\n      swap2\n      pop\n        /* \"#utility.yul\":13398:13645   */\n      pop\n        /* \"#utility.yul\":13729:13733   */\n      0xe0\n        /* \"#utility.yul\":13722:13727   */\n      dup4\n        /* \"#utility.yul\":13718:13734   */\n      add\n        /* \"#utility.yul\":13712:13735   */\n      mload\n        /* \"#utility.yul\":13782:13785   */\n      dup5\n        /* \"#utility.yul\":13776:13780   */\n      dup3\n        /* \"#utility.yul\":13772:13786   */\n      sub\n        /* \"#utility.yul\":13765:13769   */\n      0xe0\n        /* \"#utility.yul\":13760:13763   */\n      dup7\n        /* \"#utility.yul\":13756:13770   */\n      add\n        /* \"#utility.yul\":13749:13787   */\n      mstore\n        /* \"#utility.yul\":13808:13881   */\n      tag_549\n        /* \"#utility.yul\":13876:13880   */\n      dup3\n        /* \"#utility.yul\":13862:13874   */\n      dup3\n        /* \"#utility.yul\":13808:13881   */\n      tag_400\n      jump\t// in\n    tag_549:\n        /* \"#utility.yul\":13800:13881   */\n      swap2\n      pop\n        /* \"#utility.yul\":13655:13892   */\n      pop\n        /* \"#utility.yul\":13909:13913   */\n      dup1\n        /* \"#utility.yul\":13902:13913   */\n      swap2\n      pop\n        /* \"#utility.yul\":11927:13919   */\n      pop\n        /* \"#utility.yul\":11809:13919   */\n      swap3\n      swap2\n      pop\n      pop\n      jump\t// out\n        /* \"#utility.yul\":13925:14189   */\n    tag_403:\n        /* \"#utility.yul\":14048:14058   */\n      0x00\n        /* \"#utility.yul\":14083:14183   */\n      tag_551\n        /* \"#utility.yul\":14179:14182   */\n      dup4\n        /* \"#utility.yul\":14171:14177   */\n      dup4\n        /* \"#utility.yul\":14083:14183   */\n      tag_402\n      jump\t// in\n    tag_551:\n        /* \"#utility.yul\":14069:14183   */\n      swap1\n      pop\n        /* \"#utility.yul\":13925:14189   */\n      swap3\n      swap2\n      pop\n      pop\n      jump\t// out\n        /* \"#utility.yul\":14195:14335   */\n    tag_404:\n        /* \"#utility.yul\":14292:14296   */\n      0x00\n        /* \"#utility.yul\":14324:14328   */\n      0x20\n        /* \"#utility.yul\":14319:14322   */\n      dup3\n        /* \"#utility.yul\":14315:14329   */\n      add\n        /* \"#utility.yul\":14307:14329   */\n      swap1\n      pop\n        /* \"#utility.yul\":14195:14335   */\n      swap2\n      swap1\n      pop\n      jump\t// out\n        /* \"#utility.yul\":14411:15538   */\n    tag_405:\n        /* \"#utility.yul\":14584:14587   */\n      0x00\n        /* \"#utility.yul\":14613:14694   */\n      tag_554\n        /* \"#utility.yul\":14688:14693   */\n      dup3\n        /* \"#utility.yul\":14613:14694   */\n      tag_396\n      jump\t// in\n    tag_554:\n        /* \"#utility.yul\":14710:14823   */\n      tag_555\n        /* \"#utility.yul\":14816:14822   */\n      dup2\n        /* \"#utility.yul\":14811:14814   */\n      dup6\n        /* \"#utility.yul\":14710:14823   */\n      tag_397\n      jump\t// in\n    tag_555:\n        /* \"#utility.yul\":14703:14823   */\n      swap4\n      pop\n        /* \"#utility.yul\":14849:14852   */\n      dup4\n        /* \"#utility.yul\":14894:14898   */\n      0x20\n        /* \"#utility.yul\":14886:14892   */\n      dup3\n        /* \"#utility.yul\":14882:14899   */\n      mul\n        /* \"#utility.yul\":14877:14880   */\n      dup6\n        /* \"#utility.yul\":14873:14900   */\n      add\n        /* \"#utility.yul\":14924:15007   */\n      tag_556\n        /* \"#utility.yul\":15001:15006   */\n      dup6\n        /* \"#utility.yul\":14924:15007   */\n      tag_398\n      jump\t// in\n    tag_556:\n        /* \"#utility.yul\":15030:15037   */\n      dup1\n        /* \"#utility.yul\":15061:15062   */\n      0x00\n        /* \"#utility.yul\":15046:15493   */\n    tag_557:\n        /* \"#utility.yul\":15071:15077   */\n      dup6\n        /* \"#utility.yul\":15068:15069   */\n      dup2\n        /* \"#utility.yul\":15065:15078   */\n      lt\n        /* \"#utility.yul\":15046:15493   */\n      iszero\n      tag_559\n      jumpi\n        /* \"#utility.yul\":15142:15151   */\n      dup5\n        /* \"#utility.yul\":15136:15140   */\n      dup5\n        /* \"#utility.yul\":15132:15152   */\n      sub\n        /* \"#utility.yul\":15127:15130   */\n      dup10\n        /* \"#utility.yul\":15120:15153   */\n      mstore\n        /* \"#utility.yul\":15193:15199   */\n      dup2\n        /* \"#utility.yul\":15187:15200   */\n      mload\n        /* \"#utility.yul\":15221:15339   */\n      tag_560\n        /* \"#utility.yul\":15334:15338   */\n      dup6\n        /* \"#utility.yul\":15319:15332   */\n      dup3\n        /* \"#utility.yul\":15221:15339   */\n      tag_403\n      jump\t// in\n    tag_560:\n        /* \"#utility.yul\":15213:15339   */\n      swap5\n      pop\n        /* \"#utility.yul\":15362:15449   */\n      tag_561\n        /* \"#utility.yul\":15442:15448   */\n      dup4\n        /* \"#utility.yul\":15362:15449   */\n      tag_404\n      jump\t// in\n    tag_561:\n        /* \"#utility.yul\":15352:15449   */\n      swap3\n      pop\n        /* \"#utility.yul\":15478:15482   */\n      0x20\n        /* \"#utility.yul\":15473:15476   */\n      dup11\n        /* \"#utility.yul\":15469:15483   */\n      add\n        /* \"#utility.yul\":15462:15483   */\n      swap10\n      pop\n        /* \"#utility.yul\":15106:15493   */\n      pop\n        /* \"#utility.yul\":15093:15094   */\n      0x01\n        /* \"#utility.yul\":15090:15091   */\n      dup2\n        /* \"#utility.yul\":15086:15095   */\n      add\n        /* \"#utility.yul\":15081:15095   */\n      swap1\n      pop\n        /* \"#utility.yul\":15046:15493   */\n      jump(tag_557)\n    tag_559:\n        /* \"#utility.yul\":15050:15064   */\n      pop\n        /* \"#utility.yul\":15509:15513   */\n      dup3\n        /* \"#utility.yul\":15502:15513   */\n      swap8\n      pop\n        /* \"#utility.yul\":15529:15532   */\n      dup8\n        /* \"#utility.yul\":15522:15532   */\n      swap6\n      pop\n        /* \"#utility.yul\":14589:15538   */\n      pop\n      pop\n      pop\n      pop\n      pop\n        /* \"#utility.yul\":14411:15538   */\n      swap3\n      swap2\n      pop\n      pop\n      jump\t// out\n        /* \"#utility.yul\":15544:16025   */\n    tag_98:\n        /* \"#utility.yul\":15741:15745   */\n      0x00\n        /* \"#utility.yul\":15779:15781   */\n      0x20\n        /* \"#utility.yul\":15768:15777   */\n      dup3\n        /* \"#utility.yul\":15764:15782   */\n      add\n        /* \"#utility.yul\":15756:15782   */\n      swap1\n      pop\n        /* \"#utility.yul\":15828:15837   */\n      dup2\n        /* \"#utility.yul\":15822:15826   */\n      dup2\n        /* \"#utility.yul\":15818:15838   */\n      sub\n        /* \"#utility.yul\":15814:15815   */\n      0x00\n        /* \"#utility.yul\":15803:15812   */\n      dup4\n        /* \"#utility.yul\":15799:15816   */\n      add\n        /* \"#utility.yul\":15792:15839   */\n      mstore\n        /* \"#utility.yul\":15856:16018   */\n      tag_563\n        /* \"#utility.yul\":16013:16017   */\n      dup2\n        /* \"#utility.yul\":16004:16010   */\n      dup5\n        /* \"#utility.yul\":15856:16018   */\n      tag_405\n      jump\t// in\n    tag_563:\n        /* \"#utility.yul\":15848:16018   */\n      swap1\n      pop\n        /* \"#utility.yul\":15544:16025   */\n      swap3\n      swap2\n      pop\n      pop\n      jump\t// out\n        /* \"#utility.yul\":16031:16155   */\n    tag_406:\n        /* \"#utility.yul\":16108:16114   */\n      0x00\n        /* \"#utility.yul\":16142:16147   */\n      dup2\n        /* \"#utility.yul\":16136:16148   */\n      mload\n        /* \"#utility.yul\":16126:16148   */\n      swap1\n      pop\n        /* \"#utility.yul\":16031:16155   */\n      swap2\n      swap1\n      pop\n      jump\t// out\n        /* \"#utility.yul\":16161:16355   */\n    tag_407:\n        /* \"#utility.yul\":16270:16281   */\n      0x00\n        /* \"#utility.yul\":16304:16310   */\n      dup3\n        /* \"#utility.yul\":16299:16302   */\n      dup3\n        /* \"#utility.yul\":16292:16311   */\n      mstore\n        /* \"#utility.yul\":16344:16348   */\n      0x20\n        /* \"#utility.yul\":16339:16342   */\n      dup3\n        /* \"#utility.yul\":16335:16349   */\n      add\n        /* \"#utility.yul\":16320:16349   */\n      swap1\n      pop\n        /* \"#utility.yul\":16161:16355   */\n      swap3\n      swap2\n      pop\n      pop\n      jump\t// out\n        /* \"#utility.yul\":16361:16503   */\n    tag_408:\n        /* \"#utility.yul\":16438:16442   */\n      0x00\n        /* \"#utility.yul\":16461:16464   */\n      dup2\n        /* \"#utility.yul\":16453:16464   */\n      swap1\n      pop\n        /* \"#utility.yul\":16491:16495   */\n      0x20\n        /* \"#utility.yul\":16486:16489   */\n      dup3\n        /* \"#utility.yul\":16482:16496   */\n      add\n        /* \"#utility.yul\":16474:16496   */\n      swap1\n      pop\n        /* \"#utility.yul\":16361:16503   */\n      swap2\n      swap1\n      pop\n      jump\t// out\n        /* \"#utility.yul\":16509:16705   */\n    tag_409:\n        /* \"#utility.yul\":16598:16608   */\n      0x00\n        /* \"#utility.yul\":16633:16699   */\n      tag_568\n        /* \"#utility.yul\":16695:16698   */\n      dup4\n        /* \"#utility.yul\":16687:16693   */\n      dup4\n        /* \"#utility.yul\":16633:16699   */\n      tag_400\n      jump\t// in\n    tag_568:\n        /* \"#utility.yul\":16619:16699   */\n      swap1\n      pop\n        /* \"#utility.yul\":16509:16705   */\n      swap3\n      swap2\n      pop\n      pop\n      jump\t// out\n        /* \"#utility.yul\":16711:16834   */\n    tag_410:\n        /* \"#utility.yul\":16791:16795   */\n      0x00\n        /* \"#utility.yul\":16823:16827   */\n      0x20\n        /* \"#utility.yul\":16818:16821   */\n      dup3\n        /* \"#utility.yul\":16814:16828   */\n      add\n        /* \"#utility.yul\":16806:16828   */\n      swap1\n      pop\n        /* \"#utility.yul\":16711:16834   */\n      swap2\n      swap1\n      pop\n      jump\t// out\n        /* \"#utility.yul\":16868:17859   */\n    tag_411:\n        /* \"#utility.yul\":17007:17010   */\n      0x00\n        /* \"#utility.yul\":17036:17100   */\n      tag_571\n        /* \"#utility.yul\":17094:17099   */\n      dup3\n        /* \"#utility.yul\":17036:17100   */\n      tag_406\n      jump\t// in\n    tag_571:\n        /* \"#utility.yul\":17116:17212   */\n      tag_572\n        /* \"#utility.yul\":17205:17211   */\n      dup2\n        /* \"#utility.yul\":17200:17203   */\n      dup6\n        /* \"#utility.yul\":17116:17212   */\n      tag_407\n      jump\t// in\n    tag_572:\n        /* \"#utility.yul\":17109:17212   */\n      swap4\n      pop\n        /* \"#utility.yul\":17238:17241   */\n      dup4\n        /* \"#utility.yul\":17283:17287   */\n      0x20\n        /* \"#utility.yul\":17275:17281   */\n      dup3\n        /* \"#utility.yul\":17271:17288   */\n      mul\n        /* \"#utility.yul\":17266:17269   */\n      dup6\n        /* \"#utility.yul\":17262:17289   */\n      add\n        /* \"#utility.yul\":17313:17379   */\n      tag_573\n        /* \"#utility.yul\":17373:17378   */\n      dup6\n        /* \"#utility.yul\":17313:17379   */\n      tag_408\n      jump\t// in\n    tag_573:\n        /* \"#utility.yul\":17402:17409   */\n      dup1\n        /* \"#utility.yul\":17433:17434   */\n      0x00\n        /* \"#utility.yul\":17418:17814   */\n    tag_574:\n        /* \"#utility.yul\":17443:17449   */\n      dup6\n        /* \"#utility.yul\":17440:17441   */\n      dup2\n        /* \"#utility.yul\":17437:17450   */\n      lt\n        /* \"#utility.yul\":17418:17814   */\n      iszero\n      tag_576\n      jumpi\n        /* \"#utility.yul\":17514:17523   */\n      dup5\n        /* \"#utility.yul\":17508:17512   */\n      dup5\n        /* \"#utility.yul\":17504:17524   */\n      sub\n        /* \"#utility.yul\":17499:17502   */\n      dup10\n        /* \"#utility.yul\":17492:17525   */\n      mstore\n        /* \"#utility.yul\":17565:17571   */\n      dup2\n        /* \"#utility.yul\":17559:17572   */\n      mload\n        /* \"#utility.yul\":17593:17677   */\n      tag_577\n        /* \"#utility.yul\":17672:17676   */\n      dup6\n        /* \"#utility.yul\":17657:17670   */\n      dup3\n        /* \"#utility.yul\":17593:17677   */\n      tag_409\n      jump\t// in\n    tag_577:\n        /* \"#utility.yul\":17585:17677   */\n      swap5\n      pop\n        /* \"#utility.yul\":17700:17770   */\n      tag_578\n        /* \"#utility.yul\":17763:17769   */\n      dup4\n        /* \"#utility.yul\":17700:17770   */\n      tag_410\n      jump\t// in\n    tag_578:\n        /* \"#utility.yul\":17690:17770   */\n      swap3\n      pop\n        /* \"#utility.yul\":17799:17803   */\n      0x20\n        /* \"#utility.yul\":17794:17797   */\n      dup11\n        /* \"#utility.yul\":17790:17804   */\n      add\n        /* \"#utility.yul\":17783:17804   */\n      swap10\n      pop\n        /* \"#utility.yul\":17478:17814   */\n      pop\n        /* \"#utility.yul\":17465:17466   */\n      0x01\n        /* \"#utility.yul\":17462:17463   */\n      dup2\n        /* \"#utility.yul\":17458:17467   */\n      add\n        /* \"#utility.yul\":17453:17467   */\n      swap1\n      pop\n        /* \"#utility.yul\":17418:17814   */\n      jump(tag_574)\n    tag_576:\n        /* \"#utility.yul\":17422:17436   */\n      pop\n        /* \"#utility.yul\":17830:17834   */\n      dup3\n        /* \"#utility.yul\":17823:17834   */\n      swap8\n      pop\n        /* \"#utility.yul\":17850:17853   */\n      dup8\n        /* \"#utility.yul\":17843:17853   */\n      swap6\n      pop\n        /* \"#utility.yul\":17012:17859   */\n      pop\n      pop\n      pop\n      pop\n      pop\n        /* \"#utility.yul\":16868:17859   */\n      swap3\n      swap2\n      pop\n      pop\n      jump\t// out\n        /* \"#utility.yul\":17865:18278   */\n    tag_106:\n        /* \"#utility.yul\":18028:18032   */\n      0x00\n        /* \"#utility.yul\":18066:18068   */\n      0x20\n        /* \"#utility.yul\":18055:18064   */\n      dup3\n        /* \"#utility.yul\":18051:18069   */\n      add\n        /* \"#utility.yul\":18043:18069   */\n      swap1\n      pop\n        /* \"#utility.yul\":18115:18124   */\n      dup2\n        /* \"#utility.yul\":18109:18113   */\n      dup2\n        /* \"#utility.yul\":18105:18125   */\n      sub\n        /* \"#utility.yul\":18101:18102   */\n      0x00\n        /* \"#utility.yul\":18090:18099   */\n      dup4\n        /* \"#utility.yul\":18086:18103   */\n      add\n        /* \"#utility.yul\":18079:18126   */\n      mstore\n        /* \"#utility.yul\":18143:18271   */\n      tag_580\n        /* \"#utility.yul\":18266:18270   */\n      dup2\n        /* \"#utility.yul\":18257:18263   */\n      dup5\n        /* \"#utility.yul\":18143:18271   */\n      tag_411\n      jump\t// in\n    tag_580:\n        /* \"#utility.yul\":18135:18271   */\n      swap1\n      pop\n        /* \"#utility.yul\":17865:18278   */\n      swap3\n      swap2\n      pop\n      pop\n      jump\t// out\n        /* \"#utility.yul\":18284:18432   */\n    tag_412:\n        /* \"#utility.yul\":18386:18397   */\n      0x00\n        /* \"#utility.yul\":18423:18426   */\n      dup2\n        /* \"#utility.yul\":18408:18426   */\n      swap1\n      pop\n        /* \"#utility.yul\":18284:18432   */\n      swap3\n      swap2\n      pop\n      pop\n      jump\t// out\n        /* \"#utility.yul\":18438:18815   */\n    tag_413:\n        /* \"#utility.yul\":18544:18547   */\n      0x00\n        /* \"#utility.yul\":18572:18611   */\n      tag_583\n        /* \"#utility.yul\":18605:18610   */\n      dup3\n        /* \"#utility.yul\":18572:18611   */\n      tag_391\n      jump\t// in\n    tag_583:\n        /* \"#utility.yul\":18627:18716   */\n      tag_584\n        /* \"#utility.yul\":18709:18715   */\n      dup2\n        /* \"#utility.yul\":18704:18707   */\n      dup6\n        /* \"#utility.yul\":18627:18716   */\n      tag_412\n      jump\t// in\n    tag_584:\n        /* \"#utility.yul\":18620:18716   */\n      swap4\n      pop\n        /* \"#utility.yul\":18725:18777   */\n      tag_585\n        /* \"#utility.yul\":18770:18776   */\n      dup2\n        /* \"#utility.yul\":18765:18768   */\n      dup6\n        /* \"#utility.yul\":18758:18762   */\n      0x20\n        /* \"#utility.yul\":18751:18756   */\n      dup7\n        /* \"#utility.yul\":18747:18763   */\n      add\n        /* \"#utility.yul\":18725:18777   */\n      tag_393\n      jump\t// in\n    tag_585:\n        /* \"#utility.yul\":18802:18808   */\n      dup1\n        /* \"#utility.yul\":18797:18800   */\n      dup5\n        /* \"#utility.yul\":18793:18809   */\n      add\n        /* \"#utility.yul\":18786:18809   */\n      swap2\n      pop\n        /* \"#utility.yul\":18548:18815   */\n      pop\n        /* \"#utility.yul\":18438:18815   */\n      swap3\n      swap2\n      pop\n      pop\n      jump\t// out\n        /* \"#utility.yul\":18821:19096   */\n    tag_120:\n        /* \"#utility.yul\":18953:18956   */\n      0x00\n        /* \"#utility.yul\":18975:19070   */\n      tag_587\n        /* \"#utility.yul\":19066:19069   */\n      dup3\n        /* \"#utility.yul\":19057:19063   */\n      dup5\n        /* \"#utility.yul\":18975:19070   */\n      tag_413\n      jump\t// in\n    tag_587:\n        /* \"#utility.yul\":18968:19070   */\n      swap2\n      pop\n        /* \"#utility.yul\":19087:19090   */\n      dup2\n        /* \"#utility.yul\":19080:19090   */\n      swap1\n      pop\n        /* \"#utility.yul\":18821:19096   */\n      swap3\n      swap2\n      pop\n      pop\n      jump\t// out\n        /* \"#utility.yul\":19102:19525   */\n    tag_127:\n        /* \"#utility.yul\":19243:19247   */\n      0x00\n        /* \"#utility.yul\":19281:19283   */\n      0x40\n        /* \"#utility.yul\":19270:19279   */\n      dup3\n        /* \"#utility.yul\":19266:19284   */\n      add\n        /* \"#utility.yul\":19258:19284   */\n      swap1\n      pop\n        /* \"#utility.yul\":19294:19365   */\n      tag_589\n        /* \"#utility.yul\":19362:19363   */\n      0x00\n        /* \"#utility.yul\":19351:19360   */\n      dup4\n        /* \"#utility.yul\":19347:19364   */\n      add\n        /* \"#utility.yul\":19338:19344   */\n      dup6\n        /* \"#utility.yul\":19294:19365   */\n      tag_395\n      jump\t// in\n    tag_589:\n        /* \"#utility.yul\":19412:19421   */\n      dup2\n        /* \"#utility.yul\":19406:19410   */\n      dup2\n        /* \"#utility.yul\":19402:19422   */\n      sub\n        /* \"#utility.yul\":19397:19399   */\n      0x20\n        /* \"#utility.yul\":19386:19395   */\n      dup4\n        /* \"#utility.yul\":19382:19400   */\n      add\n        /* \"#utility.yul\":19375:19423   */\n      mstore\n        /* \"#utility.yul\":19440:19518   */\n      tag_590\n        /* \"#utility.yul\":19513:19517   */\n      dup2\n        /* \"#utility.yul\":19504:19510   */\n      dup5\n        /* \"#utility.yul\":19440:19518   */\n      tag_394\n      jump\t// in\n    tag_590:\n        /* \"#utility.yul\":19432:19518   */\n      swap1\n      pop\n        /* \"#utility.yul\":19102:19525   */\n      swap4\n      swap3\n      pop\n      pop\n      pop\n      jump\t// out\n        /* \"#utility.yul\":19531:19711   */\n    tag_414:\n        /* \"#utility.yul\":19579:19656   */\n      0x4e487b7100000000000000000000000000000000000000000000000000000000\n        /* \"#utility.yul\":19576:19577   */\n      0x00\n        /* \"#utility.yul\":19569:19657   */\n      mstore\n        /* \"#utility.yul\":19676:19680   */\n      0x22\n        /* \"#utility.yul\":19673:19674   */\n      0x04\n        /* \"#utility.yul\":19666:19681   */\n      mstore\n        /* \"#utility.yul\":19700:19704   */\n      0x24\n        /* \"#utility.yul\":19697:19698   */\n      0x00\n        /* \"#utility.yul\":19690:19705   */\n      revert\n        /* \"#utility.yul\":19717:20037   */\n    tag_160:\n        /* \"#utility.yul\":19761:19767   */\n      0x00\n        /* \"#utility.yul\":19798:19799   */\n      0x02\n        /* \"#utility.yul\":19792:19796   */\n      dup3\n        /* \"#utility.yul\":19788:19800   */\n      div\n        /* \"#utility.yul\":19778:19800   */\n      swap1\n      pop\n        /* \"#utility.yul\":19845:19846   */\n      0x01\n        /* \"#utility.yul\":19839:19843   */\n      dup3\n        /* \"#utility.yul\":19835:19847   */\n      and\n        /* \"#utility.yul\":19866:19884   */\n      dup1\n        /* \"#utility.yul\":19856:19937   */\n      tag_593\n      jumpi\n        /* \"#utility.yul\":19922:19926   */\n      0x7f\n        /* \"#utility.yul\":19914:19920   */\n      dup3\n        /* \"#utility.yul\":19910:19927   */\n      and\n        /* \"#utility.yul\":19900:19927   */\n      swap2\n      pop\n        /* \"#utility.yul\":19856:19937   */\n    tag_593:\n        /* \"#utility.yul\":19984:19986   */\n      0x20\n        /* \"#utility.yul\":19976:19982   */\n      dup3\n        /* \"#utility.yul\":19973:19987   */\n      lt\n        /* \"#utility.yul\":19953:19971   */\n      dup2\n        /* \"#utility.yul\":19950:19988   */\n      sub\n        /* \"#utility.yul\":19947:20031   */\n      tag_594\n      jumpi\n        /* \"#utility.yul\":20003:20021   */\n      tag_595\n      tag_414\n      jump\t// in\n    tag_595:\n        /* \"#utility.yul\":19947:20031   */\n    tag_594:\n        /* \"#utility.yul\":19768:20037   */\n      pop\n        /* \"#utility.yul\":19717:20037   */\n      swap2\n      swap1\n      pop\n      jump\t// out\n        /* \"#utility.yul\":20043:20223   */\n    tag_321:\n        /* \"#utility.yul\":20091:20168   */\n      0x4e487b7100000000000000000000000000000000000000000000000000000000\n        /* \"#utility.yul\":20088:20089   */\n      0x00\n        /* \"#utility.yul\":20081:20169   */\n      mstore\n        /* \"#utility.yul\":20188:20192   */\n      0x32\n        /* \"#utility.yul\":20185:20186   */\n      0x04\n        /* \"#utility.yul\":20178:20193   */\n      mstore\n        /* \"#utility.yul\":20212:20216   */\n      0x24\n        /* \"#utility.yul\":20209:20210   */\n      0x00\n        /* \"#utility.yul\":20202:20217   */\n      revert\n        /* \"#utility.yul\":20229:20370   */\n    tag_415:\n        /* \"#utility.yul\":20278:20282   */\n      0x00\n        /* \"#utility.yul\":20301:20304   */\n      dup2\n        /* \"#utility.yul\":20293:20304   */\n      swap1\n      pop\n        /* \"#utility.yul\":20324:20327   */\n      dup2\n        /* \"#utility.yul\":20321:20322   */\n      0x00\n        /* \"#utility.yul\":20314:20328   */\n      mstore\n        /* \"#utility.yul\":20358:20362   */\n      0x20\n        /* \"#utility.yul\":20355:20356   */\n      0x00\n        /* \"#utility.yul\":20345:20363   */\n      keccak256\n        /* \"#utility.yul\":20337:20363   */\n      swap1\n      pop\n        /* \"#utility.yul\":20229:20370   */\n      swap2\n      swap1\n      pop\n      jump\t// out\n        /* \"#utility.yul\":20400:21245   */\n    tag_416:\n        /* \"#utility.yul\":20503:20506   */\n      0x00\n        /* \"#utility.yul\":20540:20545   */\n      dup2\n        /* \"#utility.yul\":20534:20546   */\n      sload\n        /* \"#utility.yul\":20569:20605   */\n      tag_599\n        /* \"#utility.yul\":20595:20604   */\n      dup2\n        /* \"#utility.yul\":20569:20605   */\n      tag_160\n      jump\t// in\n    tag_599:\n        /* \"#utility.yul\":20621:20710   */\n      tag_600\n        /* \"#utility.yul\":20703:20709   */\n      dup2\n        /* \"#utility.yul\":20698:20701   */\n      dup7\n        /* \"#utility.yul\":20621:20710   */\n      tag_412\n      jump\t// in\n    tag_600:\n        /* \"#utility.yul\":20614:20710   */\n      swap5\n      pop\n        /* \"#utility.yul\":20741:20742   */\n      0x01\n        /* \"#utility.yul\":20730:20739   */\n      dup3\n        /* \"#utility.yul\":20726:20743   */\n      and\n        /* \"#utility.yul\":20757:20758   */\n      0x00\n        /* \"#utility.yul\":20752:20889   */\n      dup2\n      eq\n      tag_602\n      jumpi\n        /* \"#utility.yul\":20903:20904   */\n      0x01\n        /* \"#utility.yul\":20898:21239   */\n      dup2\n      eq\n      tag_603\n      jumpi\n        /* \"#utility.yul\":20719:21239   */\n      jump(tag_601)\n        /* \"#utility.yul\":20752:20889   */\n    tag_602:\n        /* \"#utility.yul\":20836:20840   */\n      0xff\n        /* \"#utility.yul\":20832:20841   */\n      not\n        /* \"#utility.yul\":20821:20830   */\n      dup4\n        /* \"#utility.yul\":20817:20842   */\n      and\n        /* \"#utility.yul\":20812:20815   */\n      dup7\n        /* \"#utility.yul\":20805:20843   */\n      mstore\n        /* \"#utility.yul\":20872:20878   */\n      dup2\n        /* \"#utility.yul\":20867:20870   */\n      dup7\n        /* \"#utility.yul\":20863:20879   */\n      add\n        /* \"#utility.yul\":20856:20879   */\n      swap4\n      pop\n        /* \"#utility.yul\":20752:20889   */\n      jump(tag_601)\n        /* \"#utility.yul\":20898:21239   */\n    tag_603:\n        /* \"#utility.yul\":20965:21003   */\n      tag_604\n        /* \"#utility.yul\":20997:21002   */\n      dup6\n        /* \"#utility.yul\":20965:21003   */\n      tag_415\n      jump\t// in\n    tag_604:\n        /* \"#utility.yul\":21025:21026   */\n      0x00\n        /* \"#utility.yul\":21039:21193   */\n    tag_605:\n        /* \"#utility.yul\":21053:21059   */\n      dup4\n        /* \"#utility.yul\":21050:21051   */\n      dup2\n        /* \"#utility.yul\":21047:21060   */\n      lt\n        /* \"#utility.yul\":21039:21193   */\n      iszero\n      tag_607\n      jumpi\n        /* \"#utility.yul\":21127:21134   */\n      dup2\n        /* \"#utility.yul\":21121:21135   */\n      sload\n        /* \"#utility.yul\":21117:21118   */\n      dup2\n        /* \"#utility.yul\":21112:21115   */\n      dup10\n        /* \"#utility.yul\":21108:21119   */\n      add\n        /* \"#utility.yul\":21101:21136   */\n      mstore\n        /* \"#utility.yul\":21177:21178   */\n      0x01\n        /* \"#utility.yul\":21168:21175   */\n      dup3\n        /* \"#utility.yul\":21164:21179   */\n      add\n        /* \"#utility.yul\":21153:21179   */\n      swap2\n      pop\n        /* \"#utility.yul\":21075:21079   */\n      0x20\n        /* \"#utility.yul\":21072:21073   */\n      dup2\n        /* \"#utility.yul\":21068:21080   */\n      add\n        /* \"#utility.yul\":21063:21080   */\n      swap1\n      pop\n        /* \"#utility.yul\":21039:21193   */\n      jump(tag_605)\n    tag_607:\n        /* \"#utility.yul\":21222:21228   */\n      dup4\n        /* \"#utility.yul\":21217:21220   */\n      dup9\n        /* \"#utility.yul\":21213:21229   */\n      add\n        /* \"#utility.yul\":21206:21229   */\n      swap6\n      pop\n        /* \"#utility.yul\":20905:21239   */\n      pop\n      pop\n        /* \"#utility.yul\":20719:21239   */\n    tag_601:\n      pop\n        /* \"#utility.yul\":20507:21245   */\n      pop\n      pop\n        /* \"#utility.yul\":20400:21245   */\n      swap3\n      swap2\n      pop\n      pop\n      jump\t// out\n        /* \"#utility.yul\":21251:21520   */\n    tag_329:\n        /* \"#utility.yul\":21380:21383   */\n      0x00\n        /* \"#utility.yul\":21402:21494   */\n      tag_609\n        /* \"#utility.yul\":21490:21493   */\n      dup3\n        /* \"#utility.yul\":21481:21487   */\n      dup5\n        /* \"#utility.yul\":21402:21494   */\n      tag_416\n      jump\t// in\n    tag_609:\n        /* \"#utility.yul\":21395:21494   */\n      swap2\n      pop\n        /* \"#utility.yul\":21511:21514   */\n      dup2\n        /* \"#utility.yul\":21504:21514   */\n      swap1\n      pop\n        /* \"#utility.yul\":21251:21520   */\n      swap3\n      swap2\n      pop\n      pop\n      jump\t// out\n        /* \"#utility.yul\":21526:21706   */\n    tag_417:\n        /* \"#utility.yul\":21574:21651   */\n      0x4e487b7100000000000000000000000000000000000000000000000000000000\n        /* \"#utility.yul\":21571:21572   */\n      0x00\n        /* \"#utility.yul\":21564:21652   */\n      mstore\n        /* \"#utility.yul\":21671:21675   */\n      0x11\n        /* \"#utility.yul\":21668:21669   */\n      0x04\n        /* \"#utility.yul\":21661:21676   */\n      mstore\n        /* \"#utility.yul\":21695:21699   */\n      0x24\n        /* \"#utility.yul\":21692:21693   */\n      0x00\n        /* \"#utility.yul\":21685:21700   */\n      revert\n        /* \"#utility.yul\":21712:21945   */\n    tag_336:\n        /* \"#utility.yul\":21751:21754   */\n      0x00\n        /* \"#utility.yul\":21774:21798   */\n      tag_612\n        /* \"#utility.yul\":21792:21797   */\n      dup3\n        /* \"#utility.yul\":21774:21798   */\n      tag_388\n      jump\t// in\n    tag_612:\n        /* \"#utility.yul\":21765:21798   */\n      swap2\n      pop\n        /* \"#utility.yul\":21820:21886   */\n      0xffffffffffffffffffffffffffffffffffffffffffffffffffffffffffffffff\n        /* \"#utility.yul\":21813:21818   */\n      dup3\n        /* \"#utility.yul\":21810:21887   */\n      sub\n        /* \"#utility.yul\":21807:21910   */\n      tag_613\n      jumpi\n        /* \"#utility.yul\":21890:21908   */\n      tag_614\n      tag_417\n      jump\t// in\n    tag_614:\n        /* \"#utility.yul\":21807:21910   */\n    tag_613:\n        /* \"#utility.yul\":21937:21938   */\n      0x01\n        /* \"#utility.yul\":21930:21935   */\n      dup3\n        /* \"#utility.yul\":21926:21939   */\n      add\n        /* \"#utility.yul\":21919:21939   */\n      swap1\n      pop\n        /* \"#utility.yul\":21712:21945   */\n      swap2\n      swap1\n      pop\n      jump\t// out\n\n    auxdata: 0xa264697066735822122086d1d691f47e0815ad68e1b1345e3bccc55a97d1c4b8dfaf89473d47b8a5ce1f64736f6c634300080d0033\n}\n","bytecode":{"linkReferences":{},"object":"608060405234801561001057600080fd5b50336000806101000a81548173ffffffffffffffffffffffffffffffffffffffff021916908373ffffffffffffffffffffffffffffffffffffffff16021790555061305d806100606000396000f3fe608060405234801561001057600080fd5b50600436106101585760003560e01c8063782fea80116100c3578063a0874b901161007c578063a0874b901461039e578063b3a6ad09146103bc578063dca51ef7146103da578063de8dc6531461040a578063e2c1ca201461043a578063f2fde38b1461045857610158565b8063782fea80146102de5780637d72aa65146102fa57806382c25e721461031657806389fdc973146103345780638da5cb5b146103505780639114520d1461036e57610158565b80632e4e88d0116101155780632e4e88d01461023457806330d8aae71461025057806347ab42cd14610280578063564f63c41461029c578063592c4ac4146102b8578063715018a6146102d457610158565b80630988ca8c1461015d5780630e07d45b1461017957806319a80f5d14610195578063217fe6c6146101b15780632234ab57146101e15780632470cfe0146101fd575b600080fd5b6101776004803603810190610172919061271e565b610474565b005b610193600480360381019061018e919061277a565b6104a8565b005b6101af60048036038101906101aa91906127a7565b6105b0565b005b6101cb60048036038101906101c6919061271e565b610782565b6040516101d891906128f7565b60405180910390f35b6101fb60048036038101906101f6919061271e565b6107bc565b005b61021760048036038101906102129190612948565b610aab565b60405161022b989796959493929190612a0c565b60405180910390f35b61024e6004803603810190610249919061277a565b610edb565b005b61026a6004803603810190610265919061277a565b610fe3565b60405161027791906128f7565b60405180910390f35b61029a6004803603810190610295919061277a565b61102b565b005b6102b660048036038101906102b1919061277a565b611133565b005b6102d260048036038101906102cd919061277a565b61123b565b005b6102dc611343565b005b6102f860048036038101906102f3919061271e565b611441565b005b610314600480360381019061030f919061271e565b6114c4565b005b61031e611531565b60405161032b9190612abb565b60405180910390f35b61034e6004803603810190610349919061277a565b61156a565b005b610358611672565b6040516103659190612add565b60405180910390f35b6103886004803603810190610383919061277a565b611696565b60405161039591906128f7565b60405180910390f35b6103a66116de565b6040516103b39190612ced565b60405180910390f35b6103c4611b92565b6040516103d19190612abb565b60405180910390f35b6103f460048036038101906103ef919061277a565b611bcb565b6040516104019190612dd1565b60405180910390f35b610424600480360381019061041f919061277a565b611f2d565b60405161043191906128f7565b60405180910390f35b610442611f75565b60405161044f9190612abb565b60405180910390f35b610472600480360381019061046d919061277a565b611fae565b005b6104a4826001836040516104889190612e2f565b908152602001604051809103902061201290919063ffffffff16565b5050565b60008054906101000a900473ffffffffffffffffffffffffffffffffffffffff1673ffffffffffffffffffffffffffffffffffffffff163373ffffffffffffffffffffffffffffffffffffffff161461050057600080fd5b61053f816040518060400160405280600b81526020017f66756e645f7261697365720000000000000000000000000000000000000000008152506114c4565b7f7d02e6403c89cb5aa8f22321b96fd9357cf8895e4a77c10e16c55aa5fc589d20816040518060400160405280600b81526020017f66756e645f7261697365720000000000000000000000000000000000000000008152506040516105a5929190612e46565b60405180910390a150565b60006040518061010001604052808881526020018781526020018681526020018581526020013373ffffffffffffffffffffffffffffffffffffffff1681526020018481526020018381526020016040518060400160405280600781526020017f50656e64696e67000000000000000000000000000000000000000000000000008152508152509050600281908060018154018082558091505060019003906000526020600020906008020160009091909190915060008201518160000190805190602001906106819291906123ff565b50602082015181600101908051906020019061069e9291906123ff565b5060408201518160020190805190602001906106bb9291906123ff565b5060608201518160030190805190602001906106d89291906123ff565b5060808201518160040160006101000a81548173ffffffffffffffffffffffffffffffffffffffff021916908373ffffffffffffffffffffffffffffffffffffffff16021790555060a082015181600501908051906020019061073c9291906123ff565b5060c08201518160060190805190602001906107599291906123ff565b5060e08201518160070190805190602001906107769291906123ff565b50505050505050505050565b60006107b4836001846040516107989190612e2f565b908152602001604051809103902061202990919063ffffffff16565b905092915050565b6107fb336040518060400160405280600d81526020017f66756e645f617070726f76657200000000000000000000000000000000000000815250610474565b6040518060400160405280600b81526020017f66756e645f7261697365720000000000000000000000000000000000000000008152506040516020016108419190612e2f565b60405160208183030381529060405280519060200120816040516020016108689190612e2f565b6040516020818303038152906040528051906020012003610931576108c2826040518060400160405280600b81526020017f66756e645f7261697365720000000000000000000000000000000000000000008152506114c4565b7f7d02e6403c89cb5aa8f22321b96fd9357cf8895e4a77c10e16c55aa5fc589d20826040518060400160405280600b81526020017f66756e645f726169736572000000000000000000000000000000000000000000815250604051610928929190612e46565b60405180910390a15b6040518060400160405280601081526020017f66756e645f636f6e7472696275746f72000000000000000000000000000000008152506040516020016109779190612e2f565b604051602081830303815290604052805190602001208160405160200161099e9190612e2f565b6040516020818303038152906040528051906020012003610a67576109f8826040518060400160405280601081526020017f66756e645f636f6e7472696275746f72000000000000000000000000000000008152506114c4565b7f7d02e6403c89cb5aa8f22321b96fd9357cf8895e4a77c10e16c55aa5fc589d20826040518060400160405280601081526020017f66756e645f636f6e7472696275746f7200000000000000000000000000000000815250604051610a5e929190612e46565b60405180910390a15b610aa782826040518060400160405280600881526020017f417070726f766564000000000000000000000000000000000000000000000000815250612082565b5050565b60028181548110610abb57600080fd5b9060005260206000209060080201600091509050806000018054610ade90612ea5565b80601f0160208091040260200160405190810160405280929190818152602001828054610b0a90612ea5565b8015610b575780601f10610b2c57610100808354040283529160200191610b57565b820191906000526020600020905b815481529060010190602001808311610b3a57829003601f168201915b505050505090806001018054610b6c90612ea5565b80601f0160208091040260200160405190810160405280929190818152602001828054610b9890612ea5565b8015610be55780601f10610bba57610100808354040283529160200191610be5565b820191906000526020600020905b815481529060010190602001808311610bc857829003601f168201915b505050505090806002018054610bfa90612ea5565b80601f0160208091040260200160405190810160405280929190818152602001828054610c2690612ea5565b8015610c735780601f10610c4857610100808354040283529160200191610c73565b820191906000526020600020905b815481529060010190602001808311610c5657829003601f168201915b505050505090806003018054610c8890612ea5565b80601f0160208091040260200160405190810160405280929190818152602001828054610cb490612ea5565b8015610d015780601f10610cd657610100808354040283529160200191610d01565b820191906000526020600020905b815481529060010190602001808311610ce457829003601f168201915b5050505050908060040160009054906101000a900473ffffffffffffffffffffffffffffffffffffffff1690806005018054610d3c90612ea5565b80601f0160208091040260200160405190810160405280929190818152602001828054610d6890612ea5565b8015610db55780601f10610d8a57610100808354040283529160200191610db5565b820191906000526020600020905b815481529060010190602001808311610d9857829003601f168201915b505050505090806006018054610dca90612ea5565b80601f0160208091040260200160405190810160405280929190818152602001828054610df690612ea5565b8015610e435780601f10610e1857610100808354040283529160200191610e43565b820191906000526020600020905b815481529060010190602001808311610e2657829003601f168201915b505050505090806007018054610e5890612ea5565b80601f0160208091040260200160405190810160405280929190818152602001828054610e8490612ea5565b8015610ed15780601f10610ea657610100808354040283529160200191610ed1565b820191906000526020600020905b815481529060010190602001808311610eb457829003601f168201915b5050505050905088565b60008054906101000a900473ffffffffffffffffffffffffffffffffffffffff1673ffffffffffffffffffffffffffffffffffffffff163373ffffffffffffffffffffffffffffffffffffffff1614610f3357600080fd5b610f72816040518060400160405280601081526020017f66756e645f636f6e7472696275746f72000000000000000000000000000000008152506121e0565b7f420b6d6124d847399574626cc16ce1504c11d6923c10c76900fe29c2933e310f816040518060400160405280601081526020017f66756e645f636f6e7472696275746f7200000000000000000000000000000000815250604051610fd8929190612e46565b60405180910390a150565b6000611024826040518060400160405280600d81526020017f66756e645f617070726f76657200000000000000000000000000000000000000815250610782565b9050919050565b60008054906101000a900473ffffffffffffffffffffffffffffffffffffffff1673ffffffffffffffffffffffffffffffffffffffff163373ffffffffffffffffffffffffffffffffffffffff161461108357600080fd5b6110c2816040518060400160405280601081526020017f66756e645f636f6e7472696275746f72000000000000000000000000000000008152506114c4565b7f7d02e6403c89cb5aa8f22321b96fd9357cf8895e4a77c10e16c55aa5fc589d20816040518060400160405280601081526020017f66756e645f636f6e7472696275746f7200000000000000000000000000000000815250604051611128929190612e46565b60405180910390a150565b60008054906101000a900473ffffffffffffffffffffffffffffffffffffffff1673ffffffffffffffffffffffffffffffffffffffff163373ffffffffffffffffffffffffffffffffffffffff161461118b57600080fd5b6111ca816040518060400160405280600d81526020017f66756e645f617070726f766572000000000000000000000000000000000000008152506114c4565b7f7d02e6403c89cb5aa8f22321b96fd9357cf8895e4a77c10e16c55aa5fc589d20816040518060400160405280600d81526020017f66756e645f617070726f76657200000000000000000000000000000000000000815250604051611230929190612e46565b60405180910390a150565b60008054906101000a900473ffffffffffffffffffffffffffffffffffffffff1673ffffffffffffffffffffffffffffffffffffffff163373ffffffffffffffffffffffffffffffffffffffff161461129357600080fd5b6112d2816040518060400160405280600b81526020017f66756e645f7261697365720000000000000000000000000000000000000000008152506121e0565b7f420b6d6124d847399574626cc16ce1504c11d6923c10c76900fe29c2933e310f816040518060400160405280600b81526020017f66756e645f726169736572000000000000000000000000000000000000000000815250604051611338929190612e46565b60405180910390a150565b60008054906101000a900473ffffffffffffffffffffffffffffffffffffffff1673ffffffffffffffffffffffffffffffffffffffff163373ffffffffffffffffffffffffffffffffffffffff161461139b57600080fd5b60008054906101000a900473ffffffffffffffffffffffffffffffffffffffff1673ffffffffffffffffffffffffffffffffffffffff167ff8df31144d9c2f0f6b59d69b8b98abd5459d07f2742c4df920b25aae33c6482060405160405180910390a260008060006101000a81548173ffffffffffffffffffffffffffffffffffffffff021916908373ffffffffffffffffffffffffffffffffffffffff160217905550565b611480336040518060400160405280600d81526020017f66756e645f617070726f76657200000000000000000000000000000000000000815250610474565b6114c082826040518060400160405280600881526020017f52656a6563746564000000000000000000000000000000000000000000000000815250612082565b5050565b6114f4826001836040516114d89190612e2f565b908152602001604051809103902061224d90919063ffffffff16565b7fbfec83d64eaa953f2708271a023ab9ee82057f8f3578d548c1a4ba0b5b7004898282604051611525929190612e46565b60405180910390a15050565b6040518060400160405280600b81526020017f66756e645f72616973657200000000000000000000000000000000000000000081525081565b60008054906101000a900473ffffffffffffffffffffffffffffffffffffffff1673ffffffffffffffffffffffffffffffffffffffff163373ffffffffffffffffffffffffffffffffffffffff16146115c257600080fd5b611601816040518060400160405280600d81526020017f66756e645f617070726f766572000000000000000000000000000000000000008152506121e0565b7f420b6d6124d847399574626cc16ce1504c11d6923c10c76900fe29c2933e310f816040518060400160405280600d81526020017f66756e645f617070726f76657200000000000000000000000000000000000000815250604051611667929190612e46565b60405180910390a150565b60008054906101000a900473ffffffffffffffffffffffffffffffffffffffff1681565b60006116d7826040518060400160405280601081526020017f66756e645f636f6e7472696275746f7200000000000000000000000000000000815250610782565b9050919050565b60606002805480602002602001604051908101604052809291908181526020016000905b82821015611b8957838290600052602060002090600802016040518061010001604052908160008201805461173690612ea5565b80601f016020809104026020016040519081016040528092919081815260200182805461176290612ea5565b80156117af5780601f10611784576101008083540402835291602001916117af565b820191906000526020600020905b81548152906001019060200180831161179257829003601f168201915b505050505081526020016001820180546117c890612ea5565b80601f01602080910402602001604051908101604052809291908181526020018280546117f490612ea5565b80156118415780601f1061181657610100808354040283529160200191611841565b820191906000526020600020905b81548152906001019060200180831161182457829003601f168201915b5050505050815260200160028201805461185a90612ea5565b80601f016020809104026020016040519081016040528092919081815260200182805461188690612ea5565b80156118d35780601f106118a8576101008083540402835291602001916118d3565b820191906000526020600020905b8154815290600101906020018083116118b657829003601f168201915b505050505081526020016003820180546118ec90612ea5565b80601f016020809104026020016040519081016040528092919081815260200182805461191890612ea5565b80156119655780601f1061193a57610100808354040283529160200191611965565b820191906000526020600020905b81548152906001019060200180831161194857829003601f168201915b505050505081526020016004820160009054906101000a900473ffffffffffffffffffffffffffffffffffffffff1673ffffffffffffffffffffffffffffffffffffffff1673ffffffffffffffffffffffffffffffffffffffff1681526020016005820180546119d490612ea5565b80601f0160208091040260200160405190810160405280929190818152602001828054611a0090612ea5565b8015611a4d5780601f10611a2257610100808354040283529160200191611a4d565b820191906000526020600020905b815481529060010190602001808311611a3057829003601f168201915b50505050508152602001600682018054611a6690612ea5565b80601f0160208091040260200160405190810160405280929190818152602001828054611a9290612ea5565b8015611adf5780601f10611ab457610100808354040283529160200191611adf565b820191906000526020600020905b815481529060010190602001808311611ac257829003601f168201915b50505050508152602001600782018054611af890612ea5565b80601f0160208091040260200160405190810160405280929190818152602001828054611b2490612ea5565b8015611b715780601f10611b4657610100808354040283529160200191611b71565b820191906000526020600020905b815481529060010190602001808311611b5457829003601f168201915b50505050508152505081526020019060010190611702565b50505050905090565b6040518060400160405280601081526020017f66756e645f636f6e7472696275746f720000000000000000000000000000000081525081565b6060600067ffffffffffffffff811115611be857611be76125f3565b5b604051908082528060200260200182016040528015611c1b57816020015b6060815260200190600190039081611c065790505b5060039080519060200190611c31929190612485565b50611c71826040518060400160405280601081526020017f66756e645f636f6e7472696275746f7200000000000000000000000000000000815250610782565b15611ce85760036040518060400160405280601081526020017f66756e645f636f6e7472696275746f7200000000000000000000000000000000815250908060018154018082558091505060019003906000526020600020016000909190919091509080519060200190611ce69291906123ff565b505b611d27826040518060400160405280600b81526020017f66756e645f726169736572000000000000000000000000000000000000000000815250610782565b15611d9e5760036040518060400160405280600b81526020017f66756e645f726169736572000000000000000000000000000000000000000000815250908060018154018082558091505060019003906000526020600020016000909190919091509080519060200190611d9c9291906123ff565b505b611ddd826040518060400160405280600d81526020017f66756e645f617070726f76657200000000000000000000000000000000000000815250610782565b15611e545760036040518060400160405280600d81526020017f66756e645f617070726f76657200000000000000000000000000000000000000815250908060018154018082558091505060019003906000526020600020016000909190919091509080519060200190611e529291906123ff565b505b6003805480602002602001604051908101604052809291908181526020016000905b82821015611f22578382906000526020600020018054611e9590612ea5565b80601f0160208091040260200160405190810160405280929190818152602001828054611ec190612ea5565b8015611f0e5780601f10611ee357610100808354040283529160200191611f0e565b820191906000526020600020905b815481529060010190602001808311611ef157829003601f168201915b505050505081526020019060010190611e76565b505050509050919050565b6000611f6e826040518060400160405280600b81526020017f66756e645f726169736572000000000000000000000000000000000000000000815250610782565b9050919050565b6040518060400160405280600d81526020017f66756e645f617070726f7665720000000000000000000000000000000000000081525081565b60008054906101000a900473ffffffffffffffffffffffffffffffffffffffff1673ffffffffffffffffffffffffffffffffffffffff163373ffffffffffffffffffffffffffffffffffffffff161461200657600080fd5b61200f816122ab565b50565b61201c8282612029565b61202557600080fd5b5050565b60008260000160008373ffffffffffffffffffffffffffffffffffffffff1673ffffffffffffffffffffffffffffffffffffffff16815260200190815260200160002060009054906101000a900460ff16905092915050565b6000600280549050905060005b818110156121d9578473ffffffffffffffffffffffffffffffffffffffff16600282815481106120c2576120c1612ed6565b5b906000526020600020906008020160040160009054906101000a900473ffffffffffffffffffffffffffffffffffffffff1673ffffffffffffffffffffffffffffffffffffffff161480156121865750836040516020016121239190612e2f565b604051602081830303815290604052805190602001206002828154811061214d5761214c612ed6565b5b906000526020600020906008020160060160405160200161216e9190612f99565b60405160208183030381529060405280519060200120145b156121c65782600282815481106121a05761219f612ed6565b5b906000526020600020906008020160070190805190602001906121c49291906123ff565b505b80806121d190612fdf565b91505061208f565b5050505050565b612210826001836040516121f49190612e2f565b90815260200160405180910390206123a190919063ffffffff16565b7fd211483f91fc6eff862467f8de606587a30c8fc9981056f051b897a418df803a8282604051612241929190612e46565b60405180910390a15050565b60018260000160008373ffffffffffffffffffffffffffffffffffffffff1673ffffffffffffffffffffffffffffffffffffffff16815260200190815260200160002060006101000a81548160ff0219169083151502179055505050565b600073ffffffffffffffffffffffffffffffffffffffff168173ffffffffffffffffffffffffffffffffffffffff16036122e457600080fd5b8073ffffffffffffffffffffffffffffffffffffffff1660008054906101000a900473ffffffffffffffffffffffffffffffffffffffff1673ffffffffffffffffffffffffffffffffffffffff167f8be0079c531659141344cd1fd0a4f28419497f9722a3daafe3b4186f6b6457e060405160405180910390a3806000806101000a81548173ffffffffffffffffffffffffffffffffffffffff021916908373ffffffffffffffffffffffffffffffffffffffff16021790555050565b60008260000160008373ffffffffffffffffffffffffffffffffffffffff1673ffffffffffffffffffffffffffffffffffffffff16815260200190815260200160002060006101000a81548160ff0219169083151502179055505050565b82805461240b90612ea5565b90600052602060002090601f01602090048101928261242d5760008555612474565b82601f1061244657805160ff1916838001178555612474565b82800160010185558215612474579182015b82811115612473578251825591602001919060010190612458565b5b50905061248191906124e5565b5090565b8280548282559060005260206000209081019282156124d4579160200282015b828111156124d35782518290805190602001906124c39291906123ff565b50916020019190600101906124a5565b5b5090506124e19190612502565b5090565b5b808211156124fe5760008160009055506001016124e6565b5090565b5b8082111561252257600081816125199190612526565b50600101612503565b5090565b50805461253290612ea5565b6000825580601f106125445750612563565b601f01602090049060005260206000209081019061256291906124e5565b5b50565b6000604051905090565b600080fd5b600080fd5b600073ffffffffffffffffffffffffffffffffffffffff82169050919050565b60006125a58261257a565b9050919050565b6125b58161259a565b81146125c057600080fd5b50565b6000813590506125d2816125ac565b92915050565b600080fd5b600080fd5b6000601f19601f8301169050919050565b7f4e487b7100000000000000000000000000000000000000000000000000000000600052604160045260246000fd5b61262b826125e2565b810181811067ffffffffffffffff8211171561264a576126496125f3565b5b80604052505050565b600061265d612566565b90506126698282612622565b919050565b600067ffffffffffffffff821115612689576126886125f3565b5b612692826125e2565b9050602081019050919050565b82818337600083830152505050565b60006126c16126bc8461266e565b612653565b9050828152602081018484840111156126dd576126dc6125dd565b5b6126e884828561269f565b509392505050565b600082601f830112612705576127046125d8565b5b81356127158482602086016126ae565b91505092915050565b6000806040838503121561273557612734612570565b5b6000612743858286016125c3565b925050602083013567ffffffffffffffff81111561276457612763612575565b5b612770858286016126f0565b9150509250929050565b6000602082840312156127905761278f612570565b5b600061279e848285016125c3565b91505092915050565b60008060008060008060c087890312156127c4576127c3612570565b5b600087013567ffffffffffffffff8111156127e2576127e1612575565b5b6127ee89828a016126f0565b965050602087013567ffffffffffffffff81111561280f5761280e612575565b5b61281b89828a016126f0565b955050604087013567ffffffffffffffff81111561283c5761283b612575565b5b61284889828a016126f0565b945050606087013567ffffffffffffffff81111561286957612868612575565b5b61287589828a016126f0565b935050608087013567ffffffffffffffff81111561289657612895612575565b5b6128a289828a016126f0565b92505060a087013567ffffffffffffffff8111156128c3576128c2612575565b5b6128cf89828a016126f0565b9150509295509295509295565b60008115159050919050565b6128f1816128dc565b82525050565b600060208201905061290c60008301846128e8565b92915050565b6000819050919050565b61292581612912565b811461293057600080fd5b50565b6000813590506129428161291c565b92915050565b60006020828403121561295e5761295d612570565b5b600061296c84828501612933565b91505092915050565b600081519050919050565b600082825260208201905092915050565b60005b838110156129af578082015181840152602081019050612994565b838111156129be576000848401525b50505050565b60006129cf82612975565b6129d98185612980565b93506129e9818560208601612991565b6129f2816125e2565b840191505092915050565b612a068161259a565b82525050565b6000610100820190508181036000830152612a27818b6129c4565b90508181036020830152612a3b818a6129c4565b90508181036040830152612a4f81896129c4565b90508181036060830152612a6381886129c4565b9050612a7260808301876129fd565b81810360a0830152612a8481866129c4565b905081810360c0830152612a9881856129c4565b905081810360e0830152612aac81846129c4565b90509998505050505050505050565b60006020820190508181036000830152612ad581846129c4565b905092915050565b6000602082019050612af260008301846129fd565b92915050565b600081519050919050565b600082825260208201905092915050565b6000819050602082019050919050565b600082825260208201905092915050565b6000612b4082612975565b612b4a8185612b24565b9350612b5a818560208601612991565b612b63816125e2565b840191505092915050565b612b778161259a565b82525050565b6000610100830160008301518482036000860152612b9b8282612b35565b91505060208301518482036020860152612bb58282612b35565b91505060408301518482036040860152612bcf8282612b35565b91505060608301518482036060860152612be98282612b35565b9150506080830151612bfe6080860182612b6e565b5060a083015184820360a0860152612c168282612b35565b91505060c083015184820360c0860152612c308282612b35565b91505060e083015184820360e0860152612c4a8282612b35565b9150508091505092915050565b6000612c638383612b7d565b905092915050565b6000602082019050919050565b6000612c8382612af8565b612c8d8185612b03565b935083602082028501612c9f85612b14565b8060005b85811015612cdb5784840389528151612cbc8582612c57565b9450612cc783612c6b565b925060208a01995050600181019050612ca3565b50829750879550505050505092915050565b60006020820190508181036000830152612d078184612c78565b905092915050565b600081519050919050565b600082825260208201905092915050565b6000819050602082019050919050565b6000612d478383612b35565b905092915050565b6000602082019050919050565b6000612d6782612d0f565b612d718185612d1a565b935083602082028501612d8385612d2b565b8060005b85811015612dbf5784840389528151612da08582612d3b565b9450612dab83612d4f565b925060208a01995050600181019050612d87565b50829750879550505050505092915050565b60006020820190508181036000830152612deb8184612d5c565b905092915050565b600081905092915050565b6000612e0982612975565b612e138185612df3565b9350612e23818560208601612991565b80840191505092915050565b6000612e3b8284612dfe565b915081905092915050565b6000604082019050612e5b60008301856129fd565b8181036020830152612e6d81846129c4565b90509392505050565b7f4e487b7100000000000000000000000000000000000000000000000000000000600052602260045260246000fd5b60006002820490506001821680612ebd57607f821691505b602082108103612ed057612ecf612e76565b5b50919050565b7f4e487b7100000000000000000000000000000000000000000000000000000000600052603260045260246000fd5b60008190508160005260206000209050919050565b60008154612f2781612ea5565b612f318186612df3565b94506001821660008114612f4c5760018114612f5d57612f90565b60ff19831686528186019350612f90565b612f6685612f05565b60005b83811015612f8857815481890152600182019150602081019050612f69565b838801955050505b50505092915050565b6000612fa58284612f1a565b915081905092915050565b7f4e487b7100000000000000000000000000000000000000000000000000000000600052601160045260246000fd5b6000612fea82612912565b91507fffffffffffffffffffffffffffffffffffffffffffffffffffffffffffffffff820361301c5761301b612fb0565b5b60018201905091905056fea264697066735822122086d1d691f47e0815ad68e1b1345e3bccc55a97d1c4b8dfaf89473d47b8a5ce1f64736f6c634300080d0033","opcodes":"PUSH1 0x80 PUSH1 0x40 MSTORE CALLVALUE DUP1 ISZERO PUSH2 0x10 JUMPI PUSH1 0x0 DUP1 REVERT JUMPDEST POP CALLER PUSH1 0x0 DUP1 PUSH2 0x100 EXP DUP2 SLOAD DUP2 PUSH20 0xFFFFFFFFFFFFFFFFFFFFFFFFFFFFFFFFFFFFFFFF MUL NOT AND SWAP1 DUP4 PUSH20 0xFFFFFFFFFFFFFFFFFFFFFFFFFFFFFFFFFFFFFFFF AND MUL OR SWAP1 SSTORE POP PUSH2 0x305D DUP1 PUSH2 0x60 PUSH1 0x0 CODECOPY PUSH1 0x0 RETURN INVALID PUSH1 0x80 PUSH1 0x40 MSTORE CALLVALUE DUP1 ISZERO PUSH2 0x10 JUMPI PUSH1 0x0 DUP1 REVERT JUMPDEST POP PUSH1 0x4 CALLDATASIZE LT PUSH2 0x158 JUMPI PUSH1 0x0 CALLDATALOAD PUSH1 0xE0 SHR DUP1 PUSH4 0x782FEA80 GT PUSH2 0xC3 JUMPI DUP1 PUSH4 0xA0874B90 GT PUSH2 0x7C JUMPI DUP1 PUSH4 0xA0874B90 EQ PUSH2 0x39E JUMPI DUP1 PUSH4 0xB3A6AD09 EQ PUSH2 0x3BC JUMPI DUP1 PUSH4 0xDCA51EF7 EQ PUSH2 0x3DA JUMPI DUP1 PUSH4 0xDE8DC653 EQ PUSH2 0x40A JUMPI DUP1 PUSH4 0xE2C1CA20 EQ PUSH2 0x43A JUMPI DUP1 PUSH4 0xF2FDE38B EQ PUSH2 0x458 JUMPI PUSH2 0x158 JUMP JUMPDEST DUP1 PUSH4 0x782FEA80 EQ PUSH2 0x2DE JUMPI DUP1 PUSH4 0x7D72AA65 EQ PUSH2 0x2FA JUMPI DUP1 PUSH4 0x82C25E72 EQ PUSH2 0x316 JUMPI DUP1 PUSH4 0x89FDC973 EQ PUSH2 0x334 JUMPI DUP1 PUSH4 0x8DA5CB5B EQ PUSH2 0x350 JUMPI DUP1 PUSH4 0x9114520D EQ PUSH2 0x36E JUMPI PUSH2 0x158 JUMP JUMPDEST DUP1 PUSH4 0x2E4E88D0 GT PUSH2 0x115 JUMPI DUP1 PUSH4 0x2E4E88D0 EQ PUSH2 0x234 JUMPI DUP1 PUSH4 0x30D8AAE7 EQ PUSH2 0x250 JUMPI DUP1 PUSH4 0x47AB42CD EQ PUSH2 0x280 JUMPI DUP1 PUSH4 0x564F63C4 EQ PUSH2 0x29C JUMPI DUP1 PUSH4 0x592C4AC4 EQ PUSH2 0x2B8 JUMPI DUP1 PUSH4 0x715018A6 EQ PUSH2 0x2D4 JUMPI PUSH2 0x158 JUMP JUMPDEST DUP1 PUSH4 0x988CA8C EQ PUSH2 0x15D JUMPI DUP1 PUSH4 0xE07D45B EQ PUSH2 0x179 JUMPI DUP1 PUSH4 0x19A80F5D EQ PUSH2 0x195 JUMPI DUP1 PUSH4 0x217FE6C6 EQ PUSH2 0x1B1 JUMPI DUP1 PUSH4 0x2234AB57 EQ PUSH2 0x1E1 JUMPI DUP1 PUSH4 0x2470CFE0 EQ PUSH2 0x1FD JUMPI JUMPDEST PUSH1 0x0 DUP1 REVERT JUMPDEST PUSH2 0x177 PUSH1 0x4 DUP1 CALLDATASIZE SUB DUP2 ADD SWAP1 PUSH2 0x172 SWAP2 SWAP1 PUSH2 0x271E JUMP JUMPDEST PUSH2 0x474 JUMP JUMPDEST STOP JUMPDEST PUSH2 0x193 PUSH1 0x4 DUP1 CALLDATASIZE SUB DUP2 ADD SWAP1 PUSH2 0x18E SWAP2 SWAP1 PUSH2 0x277A JUMP JUMPDEST PUSH2 0x4A8 JUMP JUMPDEST STOP JUMPDEST PUSH2 0x1AF PUSH1 0x4 DUP1 CALLDATASIZE SUB DUP2 ADD SWAP1 PUSH2 0x1AA SWAP2 SWAP1 PUSH2 0x27A7 JUMP JUMPDEST PUSH2 0x5B0 JUMP JUMPDEST STOP JUMPDEST PUSH2 0x1CB PUSH1 0x4 DUP1 CALLDATASIZE SUB DUP2 ADD SWAP1 PUSH2 0x1C6 SWAP2 SWAP1 PUSH2 0x271E JUMP JUMPDEST PUSH2 0x782 JUMP JUMPDEST PUSH1 0x40 MLOAD PUSH2 0x1D8 SWAP2 SWAP1 PUSH2 0x28F7 JUMP JUMPDEST PUSH1 0x40 MLOAD DUP1 SWAP2 SUB SWAP1 RETURN JUMPDEST PUSH2 0x1FB PUSH1 0x4 DUP1 CALLDATASIZE SUB DUP2 ADD SWAP1 PUSH2 0x1F6 SWAP2 SWAP1 PUSH2 0x271E JUMP JUMPDEST PUSH2 0x7BC JUMP JUMPDEST STOP JUMPDEST PUSH2 0x217 PUSH1 0x4 DUP1 CALLDATASIZE SUB DUP2 ADD SWAP1 PUSH2 0x212 SWAP2 SWAP1 PUSH2 0x2948 JUMP JUMPDEST PUSH2 0xAAB JUMP JUMPDEST PUSH1 0x40 MLOAD PUSH2 0x22B SWAP9 SWAP8 SWAP7 SWAP6 SWAP5 SWAP4 SWAP3 SWAP2 SWAP1 PUSH2 0x2A0C JUMP JUMPDEST PUSH1 0x40 MLOAD DUP1 SWAP2 SUB SWAP1 RETURN JUMPDEST PUSH2 0x24E PUSH1 0x4 DUP1 CALLDATASIZE SUB DUP2 ADD SWAP1 PUSH2 0x249 SWAP2 SWAP1 PUSH2 0x277A JUMP JUMPDEST PUSH2 0xEDB JUMP JUMPDEST STOP JUMPDEST PUSH2 0x26A PUSH1 0x4 DUP1 CALLDATASIZE SUB DUP2 ADD SWAP1 PUSH2 0x265 SWAP2 SWAP1 PUSH2 0x277A JUMP JUMPDEST PUSH2 0xFE3 JUMP JUMPDEST PUSH1 0x40 MLOAD PUSH2 0x277 SWAP2 SWAP1 PUSH2 0x28F7 JUMP JUMPDEST PUSH1 0x40 MLOAD DUP1 SWAP2 SUB SWAP1 RETURN JUMPDEST PUSH2 0x29A PUSH1 0x4 DUP1 CALLDATASIZE SUB DUP2 ADD SWAP1 PUSH2 0x295 SWAP2 SWAP1 PUSH2 0x277A JUMP JUMPDEST PUSH2 0x102B JUMP JUMPDEST STOP JUMPDEST PUSH2 0x2B6 PUSH1 0x4 DUP1 CALLDATASIZE SUB DUP2 ADD SWAP1 PUSH2 0x2B1 SWAP2 SWAP1 PUSH2 0x277A JUMP JUMPDEST PUSH2 0x1133 JUMP JUMPDEST STOP JUMPDEST PUSH2 0x2D2 PUSH1 0x4 DUP1 CALLDATASIZE SUB DUP2 ADD SWAP1 PUSH2 0x2CD SWAP2 SWAP1 PUSH2 0x277A JUMP JUMPDEST PUSH2 0x123B JUMP JUMPDEST STOP JUMPDEST PUSH2 0x2DC PUSH2 0x1343 JUMP JUMPDEST STOP JUMPDEST PUSH2 0x2F8 PUSH1 0x4 DUP1 CALLDATASIZE SUB DUP2 ADD SWAP1 PUSH2 0x2F3 SWAP2 SWAP1 PUSH2 0x271E JUMP JUMPDEST PUSH2 0x1441 JUMP JUMPDEST STOP JUMPDEST PUSH2 0x314 PUSH1 0x4 DUP1 CALLDATASIZE SUB DUP2 ADD SWAP1 PUSH2 0x30F SWAP2 SWAP1 PUSH2 0x271E JUMP JUMPDEST PUSH2 0x14C4 JUMP JUMPDEST STOP JUMPDEST PUSH2 0x31E PUSH2 0x1531 JUMP JUMPDEST PUSH1 0x40 MLOAD PUSH2 0x32B SWAP2 SWAP1 PUSH2 0x2ABB JUMP JUMPDEST PUSH1 0x40 MLOAD DUP1 SWAP2 SUB SWAP1 RETURN JUMPDEST PUSH2 0x34E PUSH1 0x4 DUP1 CALLDATASIZE SUB DUP2 ADD SWAP1 PUSH2 0x349 SWAP2 SWAP1 PUSH2 0x277A JUMP JUMPDEST PUSH2 0x156A JUMP JUMPDEST STOP JUMPDEST PUSH2 0x358 PUSH2 0x1672 JUMP JUMPDEST PUSH1 0x40 MLOAD PUSH2 0x365 SWAP2 SWAP1 PUSH2 0x2ADD JUMP JUMPDEST PUSH1 0x40 MLOAD DUP1 SWAP2 SUB SWAP1 RETURN JUMPDEST PUSH2 0x388 PUSH1 0x4 DUP1 CALLDATASIZE SUB DUP2 ADD SWAP1 PUSH2 0x383 SWAP2 SWAP1 PUSH2 0x277A JUMP JUMPDEST PUSH2 0x1696 JUMP JUMPDEST PUSH1 0x40 MLOAD PUSH2 0x395 SWAP2 SWAP1 PUSH2 0x28F7 JUMP JUMPDEST PUSH1 0x40 MLOAD DUP1 SWAP2 SUB SWAP1 RETURN JUMPDEST PUSH2 0x3A6 PUSH2 0x16DE JUMP JUMPDEST PUSH1 0x40 MLOAD PUSH2 0x3B3 SWAP2 SWAP1 PUSH2 0x2CED JUMP JUMPDEST PUSH1 0x40 MLOAD DUP1 SWAP2 SUB SWAP1 RETURN JUMPDEST PUSH2 0x3C4 PUSH2 0x1B92 JUMP JUMPDEST PUSH1 0x40 MLOAD PUSH2 0x3D1 SWAP2 SWAP1 PUSH2 0x2ABB JUMP JUMPDEST PUSH1 0x40 MLOAD DUP1 SWAP2 SUB SWAP1 RETURN JUMPDEST PUSH2 0x3F4 PUSH1 0x4 DUP1 CALLDATASIZE SUB DUP2 ADD SWAP1 PUSH2 0x3EF SWAP2 SWAP1 PUSH2 0x277A JUMP JUMPDEST PUSH2 0x1BCB JUMP JUMPDEST PUSH1 0x40 MLOAD PUSH2 0x401 SWAP2 SWAP1 PUSH2 0x2DD1 JUMP JUMPDEST PUSH1 0x40 MLOAD DUP1 SWAP2 SUB SWAP1 RETURN JUMPDEST PUSH2 0x424 PUSH1 0x4 DUP1 CALLDATASIZE SUB DUP2 ADD SWAP1 PUSH2 0x41F SWAP2 SWAP1 PUSH2 0x277A JUMP JUMPDEST PUSH2 0x1F2D JUMP JUMPDEST PUSH1 0x40 MLOAD PUSH2 0x431 SWAP2 SWAP1 PUSH2 0x28F7 JUMP JUMPDEST PUSH1 0x40 MLOAD DUP1 SWAP2 SUB SWAP1 RETURN JUMPDEST PUSH2 0x442 PUSH2 0x1F75 JUMP JUMPDEST PUSH1 0x40 MLOAD PUSH2 0x44F SWAP2 SWAP1 PUSH2 0x2ABB JUMP JUMPDEST PUSH1 0x40 MLOAD DUP1 SWAP2 SUB SWAP1 RETURN JUMPDEST PUSH2 0x472 PUSH1 0x4 DUP1 CALLDATASIZE SUB DUP2 ADD SWAP1 PUSH2 0x46D SWAP2 SWAP1 PUSH2 0x277A JUMP JUMPDEST PUSH2 0x1FAE JUMP JUMPDEST STOP JUMPDEST PUSH2 0x4A4 DUP3 PUSH1 0x1 DUP4 PUSH1 0x40 MLOAD PUSH2 0x488 SWAP2 SWAP1 PUSH2 0x2E2F JUMP JUMPDEST SWAP1 DUP2 MSTORE PUSH1 0x20 ADD PUSH1 0x40 MLOAD DUP1 SWAP2 SUB SWAP1 KECCAK256 PUSH2 0x2012 SWAP1 SWAP2 SWAP1 PUSH4 0xFFFFFFFF AND JUMP JUMPDEST POP POP JUMP JUMPDEST PUSH1 0x0 DUP1 SLOAD SWAP1 PUSH2 0x100 EXP SWAP1 DIV PUSH20 0xFFFFFFFFFFFFFFFFFFFFFFFFFFFFFFFFFFFFFFFF AND PUSH20 0xFFFFFFFFFFFFFFFFFFFFFFFFFFFFFFFFFFFFFFFF AND CALLER PUSH20 0xFFFFFFFFFFFFFFFFFFFFFFFFFFFFFFFFFFFFFFFF AND EQ PUSH2 0x500 JUMPI PUSH1 0x0 DUP1 REVERT JUMPDEST PUSH2 0x53F DUP2 PUSH1 0x40 MLOAD DUP1 PUSH1 0x40 ADD PUSH1 0x40 MSTORE DUP1 PUSH1 0xB DUP2 MSTORE PUSH1 0x20 ADD PUSH32 0x66756E645F726169736572000000000000000000000000000000000000000000 DUP2 MSTORE POP PUSH2 0x14C4 JUMP JUMPDEST PUSH32 0x7D02E6403C89CB5AA8F22321B96FD9357CF8895E4A77C10E16C55AA5FC589D20 DUP2 PUSH1 0x40 MLOAD DUP1 PUSH1 0x40 ADD PUSH1 0x40 MSTORE DUP1 PUSH1 0xB DUP2 MSTORE PUSH1 0x20 ADD PUSH32 0x66756E645F726169736572000000000000000000000000000000000000000000 DUP2 MSTORE POP PUSH1 0x40 MLOAD PUSH2 0x5A5 SWAP3 SWAP2 SWAP1 PUSH2 0x2E46 JUMP JUMPDEST PUSH1 0x40 MLOAD DUP1 SWAP2 SUB SWAP1 LOG1 POP JUMP JUMPDEST PUSH1 0x0 PUSH1 0x40 MLOAD DUP1 PUSH2 0x100 ADD PUSH1 0x40 MSTORE DUP1 DUP9 DUP2 MSTORE PUSH1 0x20 ADD DUP8 DUP2 MSTORE PUSH1 0x20 ADD DUP7 DUP2 MSTORE PUSH1 0x20 ADD DUP6 DUP2 MSTORE PUSH1 0x20 ADD CALLER PUSH20 0xFFFFFFFFFFFFFFFFFFFFFFFFFFFFFFFFFFFFFFFF AND DUP2 MSTORE PUSH1 0x20 ADD DUP5 DUP2 MSTORE PUSH1 0x20 ADD DUP4 DUP2 MSTORE PUSH1 0x20 ADD PUSH1 0x40 MLOAD DUP1 PUSH1 0x40 ADD PUSH1 0x40 MSTORE DUP1 PUSH1 0x7 DUP2 MSTORE PUSH1 0x20 ADD PUSH32 0x50656E64696E6700000000000000000000000000000000000000000000000000 DUP2 MSTORE POP DUP2 MSTORE POP SWAP1 POP PUSH1 0x2 DUP2 SWAP1 DUP1 PUSH1 0x1 DUP2 SLOAD ADD DUP1 DUP3 SSTORE DUP1 SWAP2 POP POP PUSH1 0x1 SWAP1 SUB SWAP1 PUSH1 0x0 MSTORE PUSH1 0x20 PUSH1 0x0 KECCAK256 SWAP1 PUSH1 0x8 MUL ADD PUSH1 0x0 SWAP1 SWAP2 SWAP1 SWAP2 SWAP1 SWAP2 POP PUSH1 0x0 DUP3 ADD MLOAD DUP2 PUSH1 0x0 ADD SWAP1 DUP1 MLOAD SWAP1 PUSH1 0x20 ADD SWAP1 PUSH2 0x681 SWAP3 SWAP2 SWAP1 PUSH2 0x23FF JUMP JUMPDEST POP PUSH1 0x20 DUP3 ADD MLOAD DUP2 PUSH1 0x1 ADD SWAP1 DUP1 MLOAD SWAP1 PUSH1 0x20 ADD SWAP1 PUSH2 0x69E SWAP3 SWAP2 SWAP1 PUSH2 0x23FF JUMP JUMPDEST POP PUSH1 0x40 DUP3 ADD MLOAD DUP2 PUSH1 0x2 ADD SWAP1 DUP1 MLOAD SWAP1 PUSH1 0x20 ADD SWAP1 PUSH2 0x6BB SWAP3 SWAP2 SWAP1 PUSH2 0x23FF JUMP JUMPDEST POP PUSH1 0x60 DUP3 ADD MLOAD DUP2 PUSH1 0x3 ADD SWAP1 DUP1 MLOAD SWAP1 PUSH1 0x20 ADD SWAP1 PUSH2 0x6D8 SWAP3 SWAP2 SWAP1 PUSH2 0x23FF JUMP JUMPDEST POP PUSH1 0x80 DUP3 ADD MLOAD DUP2 PUSH1 0x4 ADD PUSH1 0x0 PUSH2 0x100 EXP DUP2 SLOAD DUP2 PUSH20 0xFFFFFFFFFFFFFFFFFFFFFFFFFFFFFFFFFFFFFFFF MUL NOT AND SWAP1 DUP4 PUSH20 0xFFFFFFFFFFFFFFFFFFFFFFFFFFFFFFFFFFFFFFFF AND MUL OR SWAP1 SSTORE POP PUSH1 0xA0 DUP3 ADD MLOAD DUP2 PUSH1 0x5 ADD SWAP1 DUP1 MLOAD SWAP1 PUSH1 0x20 ADD SWAP1 PUSH2 0x73C SWAP3 SWAP2 SWAP1 PUSH2 0x23FF JUMP JUMPDEST POP PUSH1 0xC0 DUP3 ADD MLOAD DUP2 PUSH1 0x6 ADD SWAP1 DUP1 MLOAD SWAP1 PUSH1 0x20 ADD SWAP1 PUSH2 0x759 SWAP3 SWAP2 SWAP1 PUSH2 0x23FF JUMP JUMPDEST POP PUSH1 0xE0 DUP3 ADD MLOAD DUP2 PUSH1 0x7 ADD SWAP1 DUP1 MLOAD SWAP1 PUSH1 0x20 ADD SWAP1 PUSH2 0x776 SWAP3 SWAP2 SWAP1 PUSH2 0x23FF JUMP JUMPDEST POP POP POP POP POP POP POP POP POP POP JUMP JUMPDEST PUSH1 0x0 PUSH2 0x7B4 DUP4 PUSH1 0x1 DUP5 PUSH1 0x40 MLOAD PUSH2 0x798 SWAP2 SWAP1 PUSH2 0x2E2F JUMP JUMPDEST SWAP1 DUP2 MSTORE PUSH1 0x20 ADD PUSH1 0x40 MLOAD DUP1 SWAP2 SUB SWAP1 KECCAK256 PUSH2 0x2029 SWAP1 SWAP2 SWAP1 PUSH4 0xFFFFFFFF AND JUMP JUMPDEST SWAP1 POP SWAP3 SWAP2 POP POP JUMP JUMPDEST PUSH2 0x7FB CALLER PUSH1 0x40 MLOAD DUP1 PUSH1 0x40 ADD PUSH1 0x40 MSTORE DUP1 PUSH1 0xD DUP2 MSTORE PUSH1 0x20 ADD PUSH32 0x66756E645F617070726F76657200000000000000000000000000000000000000 DUP2 MSTORE POP PUSH2 0x474 JUMP JUMPDEST PUSH1 0x40 MLOAD DUP1 PUSH1 0x40 ADD PUSH1 0x40 MSTORE DUP1 PUSH1 0xB DUP2 MSTORE PUSH1 0x20 ADD PUSH32 0x66756E645F726169736572000000000000000000000000000000000000000000 DUP2 MSTORE POP PUSH1 0x40 MLOAD PUSH1 0x20 ADD PUSH2 0x841 SWAP2 SWAP1 PUSH2 0x2E2F JUMP JUMPDEST PUSH1 0x40 MLOAD PUSH1 0x20 DUP2 DUP4 SUB SUB DUP2 MSTORE SWAP1 PUSH1 0x40 MSTORE DUP1 MLOAD SWAP1 PUSH1 0x20 ADD KECCAK256 DUP2 PUSH1 0x40 MLOAD PUSH1 0x20 ADD PUSH2 0x868 SWAP2 SWAP1 PUSH2 0x2E2F JUMP JUMPDEST PUSH1 0x40 MLOAD PUSH1 0x20 DUP2 DUP4 SUB SUB DUP2 MSTORE SWAP1 PUSH1 0x40 MSTORE DUP1 MLOAD SWAP1 PUSH1 0x20 ADD KECCAK256 SUB PUSH2 0x931 JUMPI PUSH2 0x8C2 DUP3 PUSH1 0x40 MLOAD DUP1 PUSH1 0x40 ADD PUSH1 0x40 MSTORE DUP1 PUSH1 0xB DUP2 MSTORE PUSH1 0x20 ADD PUSH32 0x66756E645F726169736572000000000000000000000000000000000000000000 DUP2 MSTORE POP PUSH2 0x14C4 JUMP JUMPDEST PUSH32 0x7D02E6403C89CB5AA8F22321B96FD9357CF8895E4A77C10E16C55AA5FC589D20 DUP3 PUSH1 0x40 MLOAD DUP1 PUSH1 0x40 ADD PUSH1 0x40 MSTORE DUP1 PUSH1 0xB DUP2 MSTORE PUSH1 0x20 ADD PUSH32 0x66756E645F726169736572000000000000000000000000000000000000000000 DUP2 MSTORE POP PUSH1 0x40 MLOAD PUSH2 0x928 SWAP3 SWAP2 SWAP1 PUSH2 0x2E46 JUMP JUMPDEST PUSH1 0x40 MLOAD DUP1 SWAP2 SUB SWAP1 LOG1 JUMPDEST PUSH1 0x40 MLOAD DUP1 PUSH1 0x40 ADD PUSH1 0x40 MSTORE DUP1 PUSH1 0x10 DUP2 MSTORE PUSH1 0x20 ADD PUSH32 0x66756E645F636F6E7472696275746F7200000000000000000000000000000000 DUP2 MSTORE POP PUSH1 0x40 MLOAD PUSH1 0x20 ADD PUSH2 0x977 SWAP2 SWAP1 PUSH2 0x2E2F JUMP JUMPDEST PUSH1 0x40 MLOAD PUSH1 0x20 DUP2 DUP4 SUB SUB DUP2 MSTORE SWAP1 PUSH1 0x40 MSTORE DUP1 MLOAD SWAP1 PUSH1 0x20 ADD KECCAK256 DUP2 PUSH1 0x40 MLOAD PUSH1 0x20 ADD PUSH2 0x99E SWAP2 SWAP1 PUSH2 0x2E2F JUMP JUMPDEST PUSH1 0x40 MLOAD PUSH1 0x20 DUP2 DUP4 SUB SUB DUP2 MSTORE SWAP1 PUSH1 0x40 MSTORE DUP1 MLOAD SWAP1 PUSH1 0x20 ADD KECCAK256 SUB PUSH2 0xA67 JUMPI PUSH2 0x9F8 DUP3 PUSH1 0x40 MLOAD DUP1 PUSH1 0x40 ADD PUSH1 0x40 MSTORE DUP1 PUSH1 0x10 DUP2 MSTORE PUSH1 0x20 ADD PUSH32 0x66756E645F636F6E7472696275746F7200000000000000000000000000000000 DUP2 MSTORE POP PUSH2 0x14C4 JUMP JUMPDEST PUSH32 0x7D02E6403C89CB5AA8F22321B96FD9357CF8895E4A77C10E16C55AA5FC589D20 DUP3 PUSH1 0x40 MLOAD DUP1 PUSH1 0x40 ADD PUSH1 0x40 MSTORE DUP1 PUSH1 0x10 DUP2 MSTORE PUSH1 0x20 ADD PUSH32 0x66756E645F636F6E7472696275746F7200000000000000000000000000000000 DUP2 MSTORE POP PUSH1 0x40 MLOAD PUSH2 0xA5E SWAP3 SWAP2 SWAP1 PUSH2 0x2E46 JUMP JUMPDEST PUSH1 0x40 MLOAD DUP1 SWAP2 SUB SWAP1 LOG1 JUMPDEST PUSH2 0xAA7 DUP3 DUP3 PUSH1 0x40 MLOAD DUP1 PUSH1 0x40 ADD PUSH1 0x40 MSTORE DUP1 PUSH1 0x8 DUP2 MSTORE PUSH1 0x20 ADD PUSH32 0x417070726F766564000000000000000000000000000000000000000000000000 DUP2 MSTORE POP PUSH2 0x2082 JUMP JUMPDEST POP POP JUMP JUMPDEST PUSH1 0x2 DUP2 DUP2 SLOAD DUP2 LT PUSH2 0xABB JUMPI PUSH1 0x0 DUP1 REVERT JUMPDEST SWAP1 PUSH1 0x0 MSTORE PUSH1 0x20 PUSH1 0x0 KECCAK256 SWAP1 PUSH1 0x8 MUL ADD PUSH1 0x0 SWAP2 POP SWAP1 POP DUP1 PUSH1 0x0 ADD DUP1 SLOAD PUSH2 0xADE SWAP1 PUSH2 0x2EA5 JUMP JUMPDEST DUP1 PUSH1 0x1F ADD PUSH1 0x20 DUP1 SWAP2 DIV MUL PUSH1 0x20 ADD PUSH1 0x40 MLOAD SWAP1 DUP2 ADD PUSH1 0x40 MSTORE DUP1 SWAP3 SWAP2 SWAP1 DUP2 DUP2 MSTORE PUSH1 0x20 ADD DUP3 DUP1 SLOAD PUSH2 0xB0A SWAP1 PUSH2 0x2EA5 JUMP JUMPDEST DUP1 ISZERO PUSH2 0xB57 JUMPI DUP1 PUSH1 0x1F LT PUSH2 0xB2C JUMPI PUSH2 0x100 DUP1 DUP4 SLOAD DIV MUL DUP4 MSTORE SWAP2 PUSH1 0x20 ADD SWAP2 PUSH2 0xB57 JUMP JUMPDEST DUP3 ADD SWAP2 SWAP1 PUSH1 0x0 MSTORE PUSH1 0x20 PUSH1 0x0 KECCAK256 SWAP1 JUMPDEST DUP2 SLOAD DUP2 MSTORE SWAP1 PUSH1 0x1 ADD SWAP1 PUSH1 0x20 ADD DUP1 DUP4 GT PUSH2 0xB3A JUMPI DUP3 SWAP1 SUB PUSH1 0x1F AND DUP3 ADD SWAP2 JUMPDEST POP POP POP POP POP SWAP1 DUP1 PUSH1 0x1 ADD DUP1 SLOAD PUSH2 0xB6C SWAP1 PUSH2 0x2EA5 JUMP JUMPDEST DUP1 PUSH1 0x1F ADD PUSH1 0x20 DUP1 SWAP2 DIV MUL PUSH1 0x20 ADD PUSH1 0x40 MLOAD SWAP1 DUP2 ADD PUSH1 0x40 MSTORE DUP1 SWAP3 SWAP2 SWAP1 DUP2 DUP2 MSTORE PUSH1 0x20 ADD DUP3 DUP1 SLOAD PUSH2 0xB98 SWAP1 PUSH2 0x2EA5 JUMP JUMPDEST DUP1 ISZERO PUSH2 0xBE5 JUMPI DUP1 PUSH1 0x1F LT PUSH2 0xBBA JUMPI PUSH2 0x100 DUP1 DUP4 SLOAD DIV MUL DUP4 MSTORE SWAP2 PUSH1 0x20 ADD SWAP2 PUSH2 0xBE5 JUMP JUMPDEST DUP3 ADD SWAP2 SWAP1 PUSH1 0x0 MSTORE PUSH1 0x20 PUSH1 0x0 KECCAK256 SWAP1 JUMPDEST DUP2 SLOAD DUP2 MSTORE SWAP1 PUSH1 0x1 ADD SWAP1 PUSH1 0x20 ADD DUP1 DUP4 GT PUSH2 0xBC8 JUMPI DUP3 SWAP1 SUB PUSH1 0x1F AND DUP3 ADD SWAP2 JUMPDEST POP POP POP POP POP SWAP1 DUP1 PUSH1 0x2 ADD DUP1 SLOAD PUSH2 0xBFA SWAP1 PUSH2 0x2EA5 JUMP JUMPDEST DUP1 PUSH1 0x1F ADD PUSH1 0x20 DUP1 SWAP2 DIV MUL PUSH1 0x20 ADD PUSH1 0x40 MLOAD SWAP1 DUP2 ADD PUSH1 0x40 MSTORE DUP1 SWAP3 SWAP2 SWAP1 DUP2 DUP2 MSTORE PUSH1 0x20 ADD DUP3 DUP1 SLOAD PUSH2 0xC26 SWAP1 PUSH2 0x2EA5 JUMP JUMPDEST DUP1 ISZERO PUSH2 0xC73 JUMPI DUP1 PUSH1 0x1F LT PUSH2 0xC48 JUMPI PUSH2 0x100 DUP1 DUP4 SLOAD DIV MUL DUP4 MSTORE SWAP2 PUSH1 0x20 ADD SWAP2 PUSH2 0xC73 JUMP JUMPDEST DUP3 ADD SWAP2 SWAP1 PUSH1 0x0 MSTORE PUSH1 0x20 PUSH1 0x0 KECCAK256 SWAP1 JUMPDEST DUP2 SLOAD DUP2 MSTORE SWAP1 PUSH1 0x1 ADD SWAP1 PUSH1 0x20 ADD DUP1 DUP4 GT PUSH2 0xC56 JUMPI DUP3 SWAP1 SUB PUSH1 0x1F AND DUP3 ADD SWAP2 JUMPDEST POP POP POP POP POP SWAP1 DUP1 PUSH1 0x3 ADD DUP1 SLOAD PUSH2 0xC88 SWAP1 PUSH2 0x2EA5 JUMP JUMPDEST DUP1 PUSH1 0x1F ADD PUSH1 0x20 DUP1 SWAP2 DIV MUL PUSH1 0x20 ADD PUSH1 0x40 MLOAD SWAP1 DUP2 ADD PUSH1 0x40 MSTORE DUP1 SWAP3 SWAP2 SWAP1 DUP2 DUP2 MSTORE PUSH1 0x20 ADD DUP3 DUP1 SLOAD PUSH2 0xCB4 SWAP1 PUSH2 0x2EA5 JUMP JUMPDEST DUP1 ISZERO PUSH2 0xD01 JUMPI DUP1 PUSH1 0x1F LT PUSH2 0xCD6 JUMPI PUSH2 0x100 DUP1 DUP4 SLOAD DIV MUL DUP4 MSTORE SWAP2 PUSH1 0x20 ADD SWAP2 PUSH2 0xD01 JUMP JUMPDEST DUP3 ADD SWAP2 SWAP1 PUSH1 0x0 MSTORE PUSH1 0x20 PUSH1 0x0 KECCAK256 SWAP1 JUMPDEST DUP2 SLOAD DUP2 MSTORE SWAP1 PUSH1 0x1 ADD SWAP1 PUSH1 0x20 ADD DUP1 DUP4 GT PUSH2 0xCE4 JUMPI DUP3 SWAP1 SUB PUSH1 0x1F AND DUP3 ADD SWAP2 JUMPDEST POP POP POP POP POP SWAP1 DUP1 PUSH1 0x4 ADD PUSH1 0x0 SWAP1 SLOAD SWAP1 PUSH2 0x100 EXP SWAP1 DIV PUSH20 0xFFFFFFFFFFFFFFFFFFFFFFFFFFFFFFFFFFFFFFFF AND SWAP1 DUP1 PUSH1 0x5 ADD DUP1 SLOAD PUSH2 0xD3C SWAP1 PUSH2 0x2EA5 JUMP JUMPDEST DUP1 PUSH1 0x1F ADD PUSH1 0x20 DUP1 SWAP2 DIV MUL PUSH1 0x20 ADD PUSH1 0x40 MLOAD SWAP1 DUP2 ADD PUSH1 0x40 MSTORE DUP1 SWAP3 SWAP2 SWAP1 DUP2 DUP2 MSTORE PUSH1 0x20 ADD DUP3 DUP1 SLOAD PUSH2 0xD68 SWAP1 PUSH2 0x2EA5 JUMP JUMPDEST DUP1 ISZERO PUSH2 0xDB5 JUMPI DUP1 PUSH1 0x1F LT PUSH2 0xD8A JUMPI PUSH2 0x100 DUP1 DUP4 SLOAD DIV MUL DUP4 MSTORE SWAP2 PUSH1 0x20 ADD SWAP2 PUSH2 0xDB5 JUMP JUMPDEST DUP3 ADD SWAP2 SWAP1 PUSH1 0x0 MSTORE PUSH1 0x20 PUSH1 0x0 KECCAK256 SWAP1 JUMPDEST DUP2 SLOAD DUP2 MSTORE SWAP1 PUSH1 0x1 ADD SWAP1 PUSH1 0x20 ADD DUP1 DUP4 GT PUSH2 0xD98 JUMPI DUP3 SWAP1 SUB PUSH1 0x1F AND DUP3 ADD SWAP2 JUMPDEST POP POP POP POP POP SWAP1 DUP1 PUSH1 0x6 ADD DUP1 SLOAD PUSH2 0xDCA SWAP1 PUSH2 0x2EA5 JUMP JUMPDEST DUP1 PUSH1 0x1F ADD PUSH1 0x20 DUP1 SWAP2 DIV MUL PUSH1 0x20 ADD PUSH1 0x40 MLOAD SWAP1 DUP2 ADD PUSH1 0x40 MSTORE DUP1 SWAP3 SWAP2 SWAP1 DUP2 DUP2 MSTORE PUSH1 0x20 ADD DUP3 DUP1 SLOAD PUSH2 0xDF6 SWAP1 PUSH2 0x2EA5 JUMP JUMPDEST DUP1 ISZERO PUSH2 0xE43 JUMPI DUP1 PUSH1 0x1F LT PUSH2 0xE18 JUMPI PUSH2 0x100 DUP1 DUP4 SLOAD DIV MUL DUP4 MSTORE SWAP2 PUSH1 0x20 ADD SWAP2 PUSH2 0xE43 JUMP JUMPDEST DUP3 ADD SWAP2 SWAP1 PUSH1 0x0 MSTORE PUSH1 0x20 PUSH1 0x0 KECCAK256 SWAP1 JUMPDEST DUP2 SLOAD DUP2 MSTORE SWAP1 PUSH1 0x1 ADD SWAP1 PUSH1 0x20 ADD DUP1 DUP4 GT PUSH2 0xE26 JUMPI DUP3 SWAP1 SUB PUSH1 0x1F AND DUP3 ADD SWAP2 JUMPDEST POP POP POP POP POP SWAP1 DUP1 PUSH1 0x7 ADD DUP1 SLOAD PUSH2 0xE58 SWAP1 PUSH2 0x2EA5 JUMP JUMPDEST DUP1 PUSH1 0x1F ADD PUSH1 0x20 DUP1 SWAP2 DIV MUL PUSH1 0x20 ADD PUSH1 0x40 MLOAD SWAP1 DUP2 ADD PUSH1 0x40 MSTORE DUP1 SWAP3 SWAP2 SWAP1 DUP2 DUP2 MSTORE PUSH1 0x20 ADD DUP3 DUP1 SLOAD PUSH2 0xE84 SWAP1 PUSH2 0x2EA5 JUMP JUMPDEST DUP1 ISZERO PUSH2 0xED1 JUMPI DUP1 PUSH1 0x1F LT PUSH2 0xEA6 JUMPI PUSH2 0x100 DUP1 DUP4 SLOAD DIV MUL DUP4 MSTORE SWAP2 PUSH1 0x20 ADD SWAP2 PUSH2 0xED1 JUMP JUMPDEST DUP3 ADD SWAP2 SWAP1 PUSH1 0x0 MSTORE PUSH1 0x20 PUSH1 0x0 KECCAK256 SWAP1 JUMPDEST DUP2 SLOAD DUP2 MSTORE SWAP1 PUSH1 0x1 ADD SWAP1 PUSH1 0x20 ADD DUP1 DUP4 GT PUSH2 0xEB4 JUMPI DUP3 SWAP1 SUB PUSH1 0x1F AND DUP3 ADD SWAP2 JUMPDEST POP POP POP POP POP SWAP1 POP DUP9 JUMP JUMPDEST PUSH1 0x0 DUP1 SLOAD SWAP1 PUSH2 0x100 EXP SWAP1 DIV PUSH20 0xFFFFFFFFFFFFFFFFFFFFFFFFFFFFFFFFFFFFFFFF AND PUSH20 0xFFFFFFFFFFFFFFFFFFFFFFFFFFFFFFFFFFFFFFFF AND CALLER PUSH20 0xFFFFFFFFFFFFFFFFFFFFFFFFFFFFFFFFFFFFFFFF AND EQ PUSH2 0xF33 JUMPI PUSH1 0x0 DUP1 REVERT JUMPDEST PUSH2 0xF72 DUP2 PUSH1 0x40 MLOAD DUP1 PUSH1 0x40 ADD PUSH1 0x40 MSTORE DUP1 PUSH1 0x10 DUP2 MSTORE PUSH1 0x20 ADD PUSH32 0x66756E645F636F6E7472696275746F7200000000000000000000000000000000 DUP2 MSTORE POP PUSH2 0x21E0 JUMP JUMPDEST PUSH32 0x420B6D6124D847399574626CC16CE1504C11D6923C10C76900FE29C2933E310F DUP2 PUSH1 0x40 MLOAD DUP1 PUSH1 0x40 ADD PUSH1 0x40 MSTORE DUP1 PUSH1 0x10 DUP2 MSTORE PUSH1 0x20 ADD PUSH32 0x66756E645F636F6E7472696275746F7200000000000000000000000000000000 DUP2 MSTORE POP PUSH1 0x40 MLOAD PUSH2 0xFD8 SWAP3 SWAP2 SWAP1 PUSH2 0x2E46 JUMP JUMPDEST PUSH1 0x40 MLOAD DUP1 SWAP2 SUB SWAP1 LOG1 POP JUMP JUMPDEST PUSH1 0x0 PUSH2 0x1024 DUP3 PUSH1 0x40 MLOAD DUP1 PUSH1 0x40 ADD PUSH1 0x40 MSTORE DUP1 PUSH1 0xD DUP2 MSTORE PUSH1 0x20 ADD PUSH32 0x66756E645F617070726F76657200000000000000000000000000000000000000 DUP2 MSTORE POP PUSH2 0x782 JUMP JUMPDEST SWAP1 POP SWAP2 SWAP1 POP JUMP JUMPDEST PUSH1 0x0 DUP1 SLOAD SWAP1 PUSH2 0x100 EXP SWAP1 DIV PUSH20 0xFFFFFFFFFFFFFFFFFFFFFFFFFFFFFFFFFFFFFFFF AND PUSH20 0xFFFFFFFFFFFFFFFFFFFFFFFFFFFFFFFFFFFFFFFF AND CALLER PUSH20 0xFFFFFFFFFFFFFFFFFFFFFFFFFFFFFFFFFFFFFFFF AND EQ PUSH2 0x1083 JUMPI PUSH1 0x0 DUP1 REVERT JUMPDEST PUSH2 0x10C2 DUP2 PUSH1 0x40 MLOAD DUP1 PUSH1 0x40 ADD PUSH1 0x40 MSTORE DUP1 PUSH1 0x10 DUP2 MSTORE PUSH1 0x20 ADD PUSH32 0x66756E645F636F6E7472696275746F7200000000000000000000000000000000 DUP2 MSTORE POP PUSH2 0x14C4 JUMP JUMPDEST PUSH32 0x7D02E6403C89CB5AA8F22321B96FD9357CF8895E4A77C10E16C55AA5FC589D20 DUP2 PUSH1 0x40 MLOAD DUP1 PUSH1 0x40 ADD PUSH1 0x40 MSTORE DUP1 PUSH1 0x10 DUP2 MSTORE PUSH1 0x20 ADD PUSH32 0x66756E645F636F6E7472696275746F7200000000000000000000000000000000 DUP2 MSTORE POP PUSH1 0x40 MLOAD PUSH2 0x1128 SWAP3 SWAP2 SWAP1 PUSH2 0x2E46 JUMP JUMPDEST PUSH1 0x40 MLOAD DUP1 SWAP2 SUB SWAP1 LOG1 POP JUMP JUMPDEST PUSH1 0x0 DUP1 SLOAD SWAP1 PUSH2 0x100 EXP SWAP1 DIV PUSH20 0xFFFFFFFFFFFFFFFFFFFFFFFFFFFFFFFFFFFFFFFF AND PUSH20 0xFFFFFFFFFFFFFFFFFFFFFFFFFFFFFFFFFFFFFFFF AND CALLER PUSH20 0xFFFFFFFFFFFFFFFFFFFFFFFFFFFFFFFFFFFFFFFF AND EQ PUSH2 0x118B JUMPI PUSH1 0x0 DUP1 REVERT JUMPDEST PUSH2 0x11CA DUP2 PUSH1 0x40 MLOAD DUP1 PUSH1 0x40 ADD PUSH1 0x40 MSTORE DUP1 PUSH1 0xD DUP2 MSTORE PUSH1 0x20 ADD PUSH32 0x66756E645F617070726F76657200000000000000000000000000000000000000 DUP2 MSTORE POP PUSH2 0x14C4 JUMP JUMPDEST PUSH32 0x7D02E6403C89CB5AA8F22321B96FD9357CF8895E4A77C10E16C55AA5FC589D20 DUP2 PUSH1 0x40 MLOAD DUP1 PUSH1 0x40 ADD PUSH1 0x40 MSTORE DUP1 PUSH1 0xD DUP2 MSTORE PUSH1 0x20 ADD PUSH32 0x66756E645F617070726F76657200000000000000000000000000000000000000 DUP2 MSTORE POP PUSH1 0x40 MLOAD PUSH2 0x1230 SWAP3 SWAP2 SWAP1 PUSH2 0x2E46 JUMP JUMPDEST PUSH1 0x40 MLOAD DUP1 SWAP2 SUB SWAP1 LOG1 POP JUMP JUMPDEST PUSH1 0x0 DUP1 SLOAD SWAP1 PUSH2 0x100 EXP SWAP1 DIV PUSH20 0xFFFFFFFFFFFFFFFFFFFFFFFFFFFFFFFFFFFFFFFF AND PUSH20 0xFFFFFFFFFFFFFFFFFFFFFFFFFFFFFFFFFFFFFFFF AND CALLER PUSH20 0xFFFFFFFFFFFFFFFFFFFFFFFFFFFFFFFFFFFFFFFF AND EQ PUSH2 0x1293 JUMPI PUSH1 0x0 DUP1 REVERT JUMPDEST PUSH2 0x12D2 DUP2 PUSH1 0x40 MLOAD DUP1 PUSH1 0x40 ADD PUSH1 0x40 MSTORE DUP1 PUSH1 0xB DUP2 MSTORE PUSH1 0x20 ADD PUSH32 0x66756E645F726169736572000000000000000000000000000000000000000000 DUP2 MSTORE POP PUSH2 0x21E0 JUMP JUMPDEST PUSH32 0x420B6D6124D847399574626CC16CE1504C11D6923C10C76900FE29C2933E310F DUP2 PUSH1 0x40 MLOAD DUP1 PUSH1 0x40 ADD PUSH1 0x40 MSTORE DUP1 PUSH1 0xB DUP2 MSTORE PUSH1 0x20 ADD PUSH32 0x66756E645F726169736572000000000000000000000000000000000000000000 DUP2 MSTORE POP PUSH1 0x40 MLOAD PUSH2 0x1338 SWAP3 SWAP2 SWAP1 PUSH2 0x2E46 JUMP JUMPDEST PUSH1 0x40 MLOAD DUP1 SWAP2 SUB SWAP1 LOG1 POP JUMP JUMPDEST PUSH1 0x0 DUP1 SLOAD SWAP1 PUSH2 0x100 EXP SWAP1 DIV PUSH20 0xFFFFFFFFFFFFFFFFFFFFFFFFFFFFFFFFFFFFFFFF AND PUSH20 0xFFFFFFFFFFFFFFFFFFFFFFFFFFFFFFFFFFFFFFFF AND CALLER PUSH20 0xFFFFFFFFFFFFFFFFFFFFFFFFFFFFFFFFFFFFFFFF AND EQ PUSH2 0x139B JUMPI PUSH1 0x0 DUP1 REVERT JUMPDEST PUSH1 0x0 DUP1 SLOAD SWAP1 PUSH2 0x100 EXP SWAP1 DIV PUSH20 0xFFFFFFFFFFFFFFFFFFFFFFFFFFFFFFFFFFFFFFFF AND PUSH20 0xFFFFFFFFFFFFFFFFFFFFFFFFFFFFFFFFFFFFFFFF AND PUSH32 0xF8DF31144D9C2F0F6B59D69B8B98ABD5459D07F2742C4DF920B25AAE33C64820 PUSH1 0x40 MLOAD PUSH1 0x40 MLOAD DUP1 SWAP2 SUB SWAP1 LOG2 PUSH1 0x0 DUP1 PUSH1 0x0 PUSH2 0x100 EXP DUP2 SLOAD DUP2 PUSH20 0xFFFFFFFFFFFFFFFFFFFFFFFFFFFFFFFFFFFFFFFF MUL NOT AND SWAP1 DUP4 PUSH20 0xFFFFFFFFFFFFFFFFFFFFFFFFFFFFFFFFFFFFFFFF AND MUL OR SWAP1 SSTORE POP JUMP JUMPDEST PUSH2 0x1480 CALLER PUSH1 0x40 MLOAD DUP1 PUSH1 0x40 ADD PUSH1 0x40 MSTORE DUP1 PUSH1 0xD DUP2 MSTORE PUSH1 0x20 ADD PUSH32 0x66756E645F617070726F76657200000000000000000000000000000000000000 DUP2 MSTORE POP PUSH2 0x474 JUMP JUMPDEST PUSH2 0x14C0 DUP3 DUP3 PUSH1 0x40 MLOAD DUP1 PUSH1 0x40 ADD PUSH1 0x40 MSTORE DUP1 PUSH1 0x8 DUP2 MSTORE PUSH1 0x20 ADD PUSH32 0x52656A6563746564000000000000000000000000000000000000000000000000 DUP2 MSTORE POP PUSH2 0x2082 JUMP JUMPDEST POP POP JUMP JUMPDEST PUSH2 0x14F4 DUP3 PUSH1 0x1 DUP4 PUSH1 0x40 MLOAD PUSH2 0x14D8 SWAP2 SWAP1 PUSH2 0x2E2F JUMP JUMPDEST SWAP1 DUP2 MSTORE PUSH1 0x20 ADD PUSH1 0x40 MLOAD DUP1 SWAP2 SUB SWAP1 KECCAK256 PUSH2 0x224D SWAP1 SWAP2 SWAP1 PUSH4 0xFFFFFFFF AND JUMP JUMPDEST PUSH32 0xBFEC83D64EAA953F2708271A023AB9EE82057F8F3578D548C1A4BA0B5B700489 DUP3 DUP3 PUSH1 0x40 MLOAD PUSH2 0x1525 SWAP3 SWAP2 SWAP1 PUSH2 0x2E46 JUMP JUMPDEST PUSH1 0x40 MLOAD DUP1 SWAP2 SUB SWAP1 LOG1 POP POP JUMP JUMPDEST PUSH1 0x40 MLOAD DUP1 PUSH1 0x40 ADD PUSH1 0x40 MSTORE DUP1 PUSH1 0xB DUP2 MSTORE PUSH1 0x20 ADD PUSH32 0x66756E645F726169736572000000000000000000000000000000000000000000 DUP2 MSTORE POP DUP2 JUMP JUMPDEST PUSH1 0x0 DUP1 SLOAD SWAP1 PUSH2 0x100 EXP SWAP1 DIV PUSH20 0xFFFFFFFFFFFFFFFFFFFFFFFFFFFFFFFFFFFFFFFF AND PUSH20 0xFFFFFFFFFFFFFFFFFFFFFFFFFFFFFFFFFFFFFFFF AND CALLER PUSH20 0xFFFFFFFFFFFFFFFFFFFFFFFFFFFFFFFFFFFFFFFF AND EQ PUSH2 0x15C2 JUMPI PUSH1 0x0 DUP1 REVERT JUMPDEST PUSH2 0x1601 DUP2 PUSH1 0x40 MLOAD DUP1 PUSH1 0x40 ADD PUSH1 0x40 MSTORE DUP1 PUSH1 0xD DUP2 MSTORE PUSH1 0x20 ADD PUSH32 0x66756E645F617070726F76657200000000000000000000000000000000000000 DUP2 MSTORE POP PUSH2 0x21E0 JUMP JUMPDEST PUSH32 0x420B6D6124D847399574626CC16CE1504C11D6923C10C76900FE29C2933E310F DUP2 PUSH1 0x40 MLOAD DUP1 PUSH1 0x40 ADD PUSH1 0x40 MSTORE DUP1 PUSH1 0xD DUP2 MSTORE PUSH1 0x20 ADD PUSH32 0x66756E645F617070726F76657200000000000000000000000000000000000000 DUP2 MSTORE POP PUSH1 0x40 MLOAD PUSH2 0x1667 SWAP3 SWAP2 SWAP1 PUSH2 0x2E46 JUMP JUMPDEST PUSH1 0x40 MLOAD DUP1 SWAP2 SUB SWAP1 LOG1 POP JUMP JUMPDEST PUSH1 0x0 DUP1 SLOAD SWAP1 PUSH2 0x100 EXP SWAP1 DIV PUSH20 0xFFFFFFFFFFFFFFFFFFFFFFFFFFFFFFFFFFFFFFFF AND DUP2 JUMP JUMPDEST PUSH1 0x0 PUSH2 0x16D7 DUP3 PUSH1 0x40 MLOAD DUP1 PUSH1 0x40 ADD PUSH1 0x40 MSTORE DUP1 PUSH1 0x10 DUP2 MSTORE PUSH1 0x20 ADD PUSH32 0x66756E645F636F6E7472696275746F7200000000000000000000000000000000 DUP2 MSTORE POP PUSH2 0x782 JUMP JUMPDEST SWAP1 POP SWAP2 SWAP1 POP JUMP JUMPDEST PUSH1 0x60 PUSH1 0x2 DUP1 SLOAD DUP1 PUSH1 0x20 MUL PUSH1 0x20 ADD PUSH1 0x40 MLOAD SWAP1 DUP2 ADD PUSH1 0x40 MSTORE DUP1 SWAP3 SWAP2 SWAP1 DUP2 DUP2 MSTORE PUSH1 0x20 ADD PUSH1 0x0 SWAP1 JUMPDEST DUP3 DUP3 LT ISZERO PUSH2 0x1B89 JUMPI DUP4 DUP3 SWAP1 PUSH1 0x0 MSTORE PUSH1 0x20 PUSH1 0x0 KECCAK256 SWAP1 PUSH1 0x8 MUL ADD PUSH1 0x40 MLOAD DUP1 PUSH2 0x100 ADD PUSH1 0x40 MSTORE SWAP1 DUP2 PUSH1 0x0 DUP3 ADD DUP1 SLOAD PUSH2 0x1736 SWAP1 PUSH2 0x2EA5 JUMP JUMPDEST DUP1 PUSH1 0x1F ADD PUSH1 0x20 DUP1 SWAP2 DIV MUL PUSH1 0x20 ADD PUSH1 0x40 MLOAD SWAP1 DUP2 ADD PUSH1 0x40 MSTORE DUP1 SWAP3 SWAP2 SWAP1 DUP2 DUP2 MSTORE PUSH1 0x20 ADD DUP3 DUP1 SLOAD PUSH2 0x1762 SWAP1 PUSH2 0x2EA5 JUMP JUMPDEST DUP1 ISZERO PUSH2 0x17AF JUMPI DUP1 PUSH1 0x1F LT PUSH2 0x1784 JUMPI PUSH2 0x100 DUP1 DUP4 SLOAD DIV MUL DUP4 MSTORE SWAP2 PUSH1 0x20 ADD SWAP2 PUSH2 0x17AF JUMP JUMPDEST DUP3 ADD SWAP2 SWAP1 PUSH1 0x0 MSTORE PUSH1 0x20 PUSH1 0x0 KECCAK256 SWAP1 JUMPDEST DUP2 SLOAD DUP2 MSTORE SWAP1 PUSH1 0x1 ADD SWAP1 PUSH1 0x20 ADD DUP1 DUP4 GT PUSH2 0x1792 JUMPI DUP3 SWAP1 SUB PUSH1 0x1F AND DUP3 ADD SWAP2 JUMPDEST POP POP POP POP POP DUP2 MSTORE PUSH1 0x20 ADD PUSH1 0x1 DUP3 ADD DUP1 SLOAD PUSH2 0x17C8 SWAP1 PUSH2 0x2EA5 JUMP JUMPDEST DUP1 PUSH1 0x1F ADD PUSH1 0x20 DUP1 SWAP2 DIV MUL PUSH1 0x20 ADD PUSH1 0x40 MLOAD SWAP1 DUP2 ADD PUSH1 0x40 MSTORE DUP1 SWAP3 SWAP2 SWAP1 DUP2 DUP2 MSTORE PUSH1 0x20 ADD DUP3 DUP1 SLOAD PUSH2 0x17F4 SWAP1 PUSH2 0x2EA5 JUMP JUMPDEST DUP1 ISZERO PUSH2 0x1841 JUMPI DUP1 PUSH1 0x1F LT PUSH2 0x1816 JUMPI PUSH2 0x100 DUP1 DUP4 SLOAD DIV MUL DUP4 MSTORE SWAP2 PUSH1 0x20 ADD SWAP2 PUSH2 0x1841 JUMP JUMPDEST DUP3 ADD SWAP2 SWAP1 PUSH1 0x0 MSTORE PUSH1 0x20 PUSH1 0x0 KECCAK256 SWAP1 JUMPDEST DUP2 SLOAD DUP2 MSTORE SWAP1 PUSH1 0x1 ADD SWAP1 PUSH1 0x20 ADD DUP1 DUP4 GT PUSH2 0x1824 JUMPI DUP3 SWAP1 SUB PUSH1 0x1F AND DUP3 ADD SWAP2 JUMPDEST POP POP POP POP POP DUP2 MSTORE PUSH1 0x20 ADD PUSH1 0x2 DUP3 ADD DUP1 SLOAD PUSH2 0x185A SWAP1 PUSH2 0x2EA5 JUMP JUMPDEST DUP1 PUSH1 0x1F ADD PUSH1 0x20 DUP1 SWAP2 DIV MUL PUSH1 0x20 ADD PUSH1 0x40 MLOAD SWAP1 DUP2 ADD PUSH1 0x40 MSTORE DUP1 SWAP3 SWAP2 SWAP1 DUP2 DUP2 MSTORE PUSH1 0x20 ADD DUP3 DUP1 SLOAD PUSH2 0x1886 SWAP1 PUSH2 0x2EA5 JUMP JUMPDEST DUP1 ISZERO PUSH2 0x18D3 JUMPI DUP1 PUSH1 0x1F LT PUSH2 0x18A8 JUMPI PUSH2 0x100 DUP1 DUP4 SLOAD DIV MUL DUP4 MSTORE SWAP2 PUSH1 0x20 ADD SWAP2 PUSH2 0x18D3 JUMP JUMPDEST DUP3 ADD SWAP2 SWAP1 PUSH1 0x0 MSTORE PUSH1 0x20 PUSH1 0x0 KECCAK256 SWAP1 JUMPDEST DUP2 SLOAD DUP2 MSTORE SWAP1 PUSH1 0x1 ADD SWAP1 PUSH1 0x20 ADD DUP1 DUP4 GT PUSH2 0x18B6 JUMPI DUP3 SWAP1 SUB PUSH1 0x1F AND DUP3 ADD SWAP2 JUMPDEST POP POP POP POP POP DUP2 MSTORE PUSH1 0x20 ADD PUSH1 0x3 DUP3 ADD DUP1 SLOAD PUSH2 0x18EC SWAP1 PUSH2 0x2EA5 JUMP JUMPDEST DUP1 PUSH1 0x1F ADD PUSH1 0x20 DUP1 SWAP2 DIV MUL PUSH1 0x20 ADD PUSH1 0x40 MLOAD SWAP1 DUP2 ADD PUSH1 0x40 MSTORE DUP1 SWAP3 SWAP2 SWAP1 DUP2 DUP2 MSTORE PUSH1 0x20 ADD DUP3 DUP1 SLOAD PUSH2 0x1918 SWAP1 PUSH2 0x2EA5 JUMP JUMPDEST DUP1 ISZERO PUSH2 0x1965 JUMPI DUP1 PUSH1 0x1F LT PUSH2 0x193A JUMPI PUSH2 0x100 DUP1 DUP4 SLOAD DIV MUL DUP4 MSTORE SWAP2 PUSH1 0x20 ADD SWAP2 PUSH2 0x1965 JUMP JUMPDEST DUP3 ADD SWAP2 SWAP1 PUSH1 0x0 MSTORE PUSH1 0x20 PUSH1 0x0 KECCAK256 SWAP1 JUMPDEST DUP2 SLOAD DUP2 MSTORE SWAP1 PUSH1 0x1 ADD SWAP1 PUSH1 0x20 ADD DUP1 DUP4 GT PUSH2 0x1948 JUMPI DUP3 SWAP1 SUB PUSH1 0x1F AND DUP3 ADD SWAP2 JUMPDEST POP POP POP POP POP DUP2 MSTORE PUSH1 0x20 ADD PUSH1 0x4 DUP3 ADD PUSH1 0x0 SWAP1 SLOAD SWAP1 PUSH2 0x100 EXP SWAP1 DIV PUSH20 0xFFFFFFFFFFFFFFFFFFFFFFFFFFFFFFFFFFFFFFFF AND PUSH20 0xFFFFFFFFFFFFFFFFFFFFFFFFFFFFFFFFFFFFFFFF AND PUSH20 0xFFFFFFFFFFFFFFFFFFFFFFFFFFFFFFFFFFFFFFFF AND DUP2 MSTORE PUSH1 0x20 ADD PUSH1 0x5 DUP3 ADD DUP1 SLOAD PUSH2 0x19D4 SWAP1 PUSH2 0x2EA5 JUMP JUMPDEST DUP1 PUSH1 0x1F ADD PUSH1 0x20 DUP1 SWAP2 DIV MUL PUSH1 0x20 ADD PUSH1 0x40 MLOAD SWAP1 DUP2 ADD PUSH1 0x40 MSTORE DUP1 SWAP3 SWAP2 SWAP1 DUP2 DUP2 MSTORE PUSH1 0x20 ADD DUP3 DUP1 SLOAD PUSH2 0x1A00 SWAP1 PUSH2 0x2EA5 JUMP JUMPDEST DUP1 ISZERO PUSH2 0x1A4D JUMPI DUP1 PUSH1 0x1F LT PUSH2 0x1A22 JUMPI PUSH2 0x100 DUP1 DUP4 SLOAD DIV MUL DUP4 MSTORE SWAP2 PUSH1 0x20 ADD SWAP2 PUSH2 0x1A4D JUMP JUMPDEST DUP3 ADD SWAP2 SWAP1 PUSH1 0x0 MSTORE PUSH1 0x20 PUSH1 0x0 KECCAK256 SWAP1 JUMPDEST DUP2 SLOAD DUP2 MSTORE SWAP1 PUSH1 0x1 ADD SWAP1 PUSH1 0x20 ADD DUP1 DUP4 GT PUSH2 0x1A30 JUMPI DUP3 SWAP1 SUB PUSH1 0x1F AND DUP3 ADD SWAP2 JUMPDEST POP POP POP POP POP DUP2 MSTORE PUSH1 0x20 ADD PUSH1 0x6 DUP3 ADD DUP1 SLOAD PUSH2 0x1A66 SWAP1 PUSH2 0x2EA5 JUMP JUMPDEST DUP1 PUSH1 0x1F ADD PUSH1 0x20 DUP1 SWAP2 DIV MUL PUSH1 0x20 ADD PUSH1 0x40 MLOAD SWAP1 DUP2 ADD PUSH1 0x40 MSTORE DUP1 SWAP3 SWAP2 SWAP1 DUP2 DUP2 MSTORE PUSH1 0x20 ADD DUP3 DUP1 SLOAD PUSH2 0x1A92 SWAP1 PUSH2 0x2EA5 JUMP JUMPDEST DUP1 ISZERO PUSH2 0x1ADF JUMPI DUP1 PUSH1 0x1F LT PUSH2 0x1AB4 JUMPI PUSH2 0x100 DUP1 DUP4 SLOAD DIV MUL DUP4 MSTORE SWAP2 PUSH1 0x20 ADD SWAP2 PUSH2 0x1ADF JUMP JUMPDEST DUP3 ADD SWAP2 SWAP1 PUSH1 0x0 MSTORE PUSH1 0x20 PUSH1 0x0 KECCAK256 SWAP1 JUMPDEST DUP2 SLOAD DUP2 MSTORE SWAP1 PUSH1 0x1 ADD SWAP1 PUSH1 0x20 ADD DUP1 DUP4 GT PUSH2 0x1AC2 JUMPI DUP3 SWAP1 SUB PUSH1 0x1F AND DUP3 ADD SWAP2 JUMPDEST POP POP POP POP POP DUP2 MSTORE PUSH1 0x20 ADD PUSH1 0x7 DUP3 ADD DUP1 SLOAD PUSH2 0x1AF8 SWAP1 PUSH2 0x2EA5 JUMP JUMPDEST DUP1 PUSH1 0x1F ADD PUSH1 0x20 DUP1 SWAP2 DIV MUL PUSH1 0x20 ADD PUSH1 0x40 MLOAD SWAP1 DUP2 ADD PUSH1 0x40 MSTORE DUP1 SWAP3 SWAP2 SWAP1 DUP2 DUP2 MSTORE PUSH1 0x20 ADD DUP3 DUP1 SLOAD PUSH2 0x1B24 SWAP1 PUSH2 0x2EA5 JUMP JUMPDEST DUP1 ISZERO PUSH2 0x1B71 JUMPI DUP1 PUSH1 0x1F LT PUSH2 0x1B46 JUMPI PUSH2 0x100 DUP1 DUP4 SLOAD DIV MUL DUP4 MSTORE SWAP2 PUSH1 0x20 ADD SWAP2 PUSH2 0x1B71 JUMP JUMPDEST DUP3 ADD SWAP2 SWAP1 PUSH1 0x0 MSTORE PUSH1 0x20 PUSH1 0x0 KECCAK256 SWAP1 JUMPDEST DUP2 SLOAD DUP2 MSTORE SWAP1 PUSH1 0x1 ADD SWAP1 PUSH1 0x20 ADD DUP1 DUP4 GT PUSH2 0x1B54 JUMPI DUP3 SWAP1 SUB PUSH1 0x1F AND DUP3 ADD SWAP2 JUMPDEST POP POP POP POP POP DUP2 MSTORE POP POP DUP2 MSTORE PUSH1 0x20 ADD SWAP1 PUSH1 0x1 ADD SWAP1 PUSH2 0x1702 JUMP JUMPDEST POP POP POP POP SWAP1 POP SWAP1 JUMP JUMPDEST PUSH1 0x40 MLOAD DUP1 PUSH1 0x40 ADD PUSH1 0x40 MSTORE DUP1 PUSH1 0x10 DUP2 MSTORE PUSH1 0x20 ADD PUSH32 0x66756E645F636F6E7472696275746F7200000000000000000000000000000000 DUP2 MSTORE POP DUP2 JUMP JUMPDEST PUSH1 0x60 PUSH1 0x0 PUSH8 0xFFFFFFFFFFFFFFFF DUP2 GT ISZERO PUSH2 0x1BE8 JUMPI PUSH2 0x1BE7 PUSH2 0x25F3 JUMP JUMPDEST JUMPDEST PUSH1 0x40 MLOAD SWAP1 DUP1 DUP3 MSTORE DUP1 PUSH1 0x20 MUL PUSH1 0x20 ADD DUP3 ADD PUSH1 0x40 MSTORE DUP1 ISZERO PUSH2 0x1C1B JUMPI DUP2 PUSH1 0x20 ADD JUMPDEST PUSH1 0x60 DUP2 MSTORE PUSH1 0x20 ADD SWAP1 PUSH1 0x1 SWAP1 SUB SWAP1 DUP2 PUSH2 0x1C06 JUMPI SWAP1 POP JUMPDEST POP PUSH1 0x3 SWAP1 DUP1 MLOAD SWAP1 PUSH1 0x20 ADD SWAP1 PUSH2 0x1C31 SWAP3 SWAP2 SWAP1 PUSH2 0x2485 JUMP JUMPDEST POP PUSH2 0x1C71 DUP3 PUSH1 0x40 MLOAD DUP1 PUSH1 0x40 ADD PUSH1 0x40 MSTORE DUP1 PUSH1 0x10 DUP2 MSTORE PUSH1 0x20 ADD PUSH32 0x66756E645F636F6E7472696275746F7200000000000000000000000000000000 DUP2 MSTORE POP PUSH2 0x782 JUMP JUMPDEST ISZERO PUSH2 0x1CE8 JUMPI PUSH1 0x3 PUSH1 0x40 MLOAD DUP1 PUSH1 0x40 ADD PUSH1 0x40 MSTORE DUP1 PUSH1 0x10 DUP2 MSTORE PUSH1 0x20 ADD PUSH32 0x66756E645F636F6E7472696275746F7200000000000000000000000000000000 DUP2 MSTORE POP SWAP1 DUP1 PUSH1 0x1 DUP2 SLOAD ADD DUP1 DUP3 SSTORE DUP1 SWAP2 POP POP PUSH1 0x1 SWAP1 SUB SWAP1 PUSH1 0x0 MSTORE PUSH1 0x20 PUSH1 0x0 KECCAK256 ADD PUSH1 0x0 SWAP1 SWAP2 SWAP1 SWAP2 SWAP1 SWAP2 POP SWAP1 DUP1 MLOAD SWAP1 PUSH1 0x20 ADD SWAP1 PUSH2 0x1CE6 SWAP3 SWAP2 SWAP1 PUSH2 0x23FF JUMP JUMPDEST POP JUMPDEST PUSH2 0x1D27 DUP3 PUSH1 0x40 MLOAD DUP1 PUSH1 0x40 ADD PUSH1 0x40 MSTORE DUP1 PUSH1 0xB DUP2 MSTORE PUSH1 0x20 ADD PUSH32 0x66756E645F726169736572000000000000000000000000000000000000000000 DUP2 MSTORE POP PUSH2 0x782 JUMP JUMPDEST ISZERO PUSH2 0x1D9E JUMPI PUSH1 0x3 PUSH1 0x40 MLOAD DUP1 PUSH1 0x40 ADD PUSH1 0x40 MSTORE DUP1 PUSH1 0xB DUP2 MSTORE PUSH1 0x20 ADD PUSH32 0x66756E645F726169736572000000000000000000000000000000000000000000 DUP2 MSTORE POP SWAP1 DUP1 PUSH1 0x1 DUP2 SLOAD ADD DUP1 DUP3 SSTORE DUP1 SWAP2 POP POP PUSH1 0x1 SWAP1 SUB SWAP1 PUSH1 0x0 MSTORE PUSH1 0x20 PUSH1 0x0 KECCAK256 ADD PUSH1 0x0 SWAP1 SWAP2 SWAP1 SWAP2 SWAP1 SWAP2 POP SWAP1 DUP1 MLOAD SWAP1 PUSH1 0x20 ADD SWAP1 PUSH2 0x1D9C SWAP3 SWAP2 SWAP1 PUSH2 0x23FF JUMP JUMPDEST POP JUMPDEST PUSH2 0x1DDD DUP3 PUSH1 0x40 MLOAD DUP1 PUSH1 0x40 ADD PUSH1 0x40 MSTORE DUP1 PUSH1 0xD DUP2 MSTORE PUSH1 0x20 ADD PUSH32 0x66756E645F617070726F76657200000000000000000000000000000000000000 DUP2 MSTORE POP PUSH2 0x782 JUMP JUMPDEST ISZERO PUSH2 0x1E54 JUMPI PUSH1 0x3 PUSH1 0x40 MLOAD DUP1 PUSH1 0x40 ADD PUSH1 0x40 MSTORE DUP1 PUSH1 0xD DUP2 MSTORE PUSH1 0x20 ADD PUSH32 0x66756E645F617070726F76657200000000000000000000000000000000000000 DUP2 MSTORE POP SWAP1 DUP1 PUSH1 0x1 DUP2 SLOAD ADD DUP1 DUP3 SSTORE DUP1 SWAP2 POP POP PUSH1 0x1 SWAP1 SUB SWAP1 PUSH1 0x0 MSTORE PUSH1 0x20 PUSH1 0x0 KECCAK256 ADD PUSH1 0x0 SWAP1 SWAP2 SWAP1 SWAP2 SWAP1 SWAP2 POP SWAP1 DUP1 MLOAD SWAP1 PUSH1 0x20 ADD SWAP1 PUSH2 0x1E52 SWAP3 SWAP2 SWAP1 PUSH2 0x23FF JUMP JUMPDEST POP JUMPDEST PUSH1 0x3 DUP1 SLOAD DUP1 PUSH1 0x20 MUL PUSH1 0x20 ADD PUSH1 0x40 MLOAD SWAP1 DUP2 ADD PUSH1 0x40 MSTORE DUP1 SWAP3 SWAP2 SWAP1 DUP2 DUP2 MSTORE PUSH1 0x20 ADD PUSH1 0x0 SWAP1 JUMPDEST DUP3 DUP3 LT ISZERO PUSH2 0x1F22 JUMPI DUP4 DUP3 SWAP1 PUSH1 0x0 MSTORE PUSH1 0x20 PUSH1 0x0 KECCAK256 ADD DUP1 SLOAD PUSH2 0x1E95 SWAP1 PUSH2 0x2EA5 JUMP JUMPDEST DUP1 PUSH1 0x1F ADD PUSH1 0x20 DUP1 SWAP2 DIV MUL PUSH1 0x20 ADD PUSH1 0x40 MLOAD SWAP1 DUP2 ADD PUSH1 0x40 MSTORE DUP1 SWAP3 SWAP2 SWAP1 DUP2 DUP2 MSTORE PUSH1 0x20 ADD DUP3 DUP1 SLOAD PUSH2 0x1EC1 SWAP1 PUSH2 0x2EA5 JUMP JUMPDEST DUP1 ISZERO PUSH2 0x1F0E JUMPI DUP1 PUSH1 0x1F LT PUSH2 0x1EE3 JUMPI PUSH2 0x100 DUP1 DUP4 SLOAD DIV MUL DUP4 MSTORE SWAP2 PUSH1 0x20 ADD SWAP2 PUSH2 0x1F0E JUMP JUMPDEST DUP3 ADD SWAP2 SWAP1 PUSH1 0x0 MSTORE PUSH1 0x20 PUSH1 0x0 KECCAK256 SWAP1 JUMPDEST DUP2 SLOAD DUP2 MSTORE SWAP1 PUSH1 0x1 ADD SWAP1 PUSH1 0x20 ADD DUP1 DUP4 GT PUSH2 0x1EF1 JUMPI DUP3 SWAP1 SUB PUSH1 0x1F AND DUP3 ADD SWAP2 JUMPDEST POP POP POP POP POP DUP2 MSTORE PUSH1 0x20 ADD SWAP1 PUSH1 0x1 ADD SWAP1 PUSH2 0x1E76 JUMP JUMPDEST POP POP POP POP SWAP1 POP SWAP2 SWAP1 POP JUMP JUMPDEST PUSH1 0x0 PUSH2 0x1F6E DUP3 PUSH1 0x40 MLOAD DUP1 PUSH1 0x40 ADD PUSH1 0x40 MSTORE DUP1 PUSH1 0xB DUP2 MSTORE PUSH1 0x20 ADD PUSH32 0x66756E645F726169736572000000000000000000000000000000000000000000 DUP2 MSTORE POP PUSH2 0x782 JUMP JUMPDEST SWAP1 POP SWAP2 SWAP1 POP JUMP JUMPDEST PUSH1 0x40 MLOAD DUP1 PUSH1 0x40 ADD PUSH1 0x40 MSTORE DUP1 PUSH1 0xD DUP2 MSTORE PUSH1 0x20 ADD PUSH32 0x66756E645F617070726F76657200000000000000000000000000000000000000 DUP2 MSTORE POP DUP2 JUMP JUMPDEST PUSH1 0x0 DUP1 SLOAD SWAP1 PUSH2 0x100 EXP SWAP1 DIV PUSH20 0xFFFFFFFFFFFFFFFFFFFFFFFFFFFFFFFFFFFFFFFF AND PUSH20 0xFFFFFFFFFFFFFFFFFFFFFFFFFFFFFFFFFFFFFFFF AND CALLER PUSH20 0xFFFFFFFFFFFFFFFFFFFFFFFFFFFFFFFFFFFFFFFF AND EQ PUSH2 0x2006 JUMPI PUSH1 0x0 DUP1 REVERT JUMPDEST PUSH2 0x200F DUP2 PUSH2 0x22AB JUMP JUMPDEST POP JUMP JUMPDEST PUSH2 0x201C DUP3 DUP3 PUSH2 0x2029 JUMP JUMPDEST PUSH2 0x2025 JUMPI PUSH1 0x0 DUP1 REVERT JUMPDEST POP POP JUMP JUMPDEST PUSH1 0x0 DUP3 PUSH1 0x0 ADD PUSH1 0x0 DUP4 PUSH20 0xFFFFFFFFFFFFFFFFFFFFFFFFFFFFFFFFFFFFFFFF AND PUSH20 0xFFFFFFFFFFFFFFFFFFFFFFFFFFFFFFFFFFFFFFFF AND DUP2 MSTORE PUSH1 0x20 ADD SWAP1 DUP2 MSTORE PUSH1 0x20 ADD PUSH1 0x0 KECCAK256 PUSH1 0x0 SWAP1 SLOAD SWAP1 PUSH2 0x100 EXP SWAP1 DIV PUSH1 0xFF AND SWAP1 POP SWAP3 SWAP2 POP POP JUMP JUMPDEST PUSH1 0x0 PUSH1 0x2 DUP1 SLOAD SWAP1 POP SWAP1 POP PUSH1 0x0 JUMPDEST DUP2 DUP2 LT ISZERO PUSH2 0x21D9 JUMPI DUP5 PUSH20 0xFFFFFFFFFFFFFFFFFFFFFFFFFFFFFFFFFFFFFFFF AND PUSH1 0x2 DUP3 DUP2 SLOAD DUP2 LT PUSH2 0x20C2 JUMPI PUSH2 0x20C1 PUSH2 0x2ED6 JUMP JUMPDEST JUMPDEST SWAP1 PUSH1 0x0 MSTORE PUSH1 0x20 PUSH1 0x0 KECCAK256 SWAP1 PUSH1 0x8 MUL ADD PUSH1 0x4 ADD PUSH1 0x0 SWAP1 SLOAD SWAP1 PUSH2 0x100 EXP SWAP1 DIV PUSH20 0xFFFFFFFFFFFFFFFFFFFFFFFFFFFFFFFFFFFFFFFF AND PUSH20 0xFFFFFFFFFFFFFFFFFFFFFFFFFFFFFFFFFFFFFFFF AND EQ DUP1 ISZERO PUSH2 0x2186 JUMPI POP DUP4 PUSH1 0x40 MLOAD PUSH1 0x20 ADD PUSH2 0x2123 SWAP2 SWAP1 PUSH2 0x2E2F JUMP JUMPDEST PUSH1 0x40 MLOAD PUSH1 0x20 DUP2 DUP4 SUB SUB DUP2 MSTORE SWAP1 PUSH1 0x40 MSTORE DUP1 MLOAD SWAP1 PUSH1 0x20 ADD KECCAK256 PUSH1 0x2 DUP3 DUP2 SLOAD DUP2 LT PUSH2 0x214D JUMPI PUSH2 0x214C PUSH2 0x2ED6 JUMP JUMPDEST JUMPDEST SWAP1 PUSH1 0x0 MSTORE PUSH1 0x20 PUSH1 0x0 KECCAK256 SWAP1 PUSH1 0x8 MUL ADD PUSH1 0x6 ADD PUSH1 0x40 MLOAD PUSH1 0x20 ADD PUSH2 0x216E SWAP2 SWAP1 PUSH2 0x2F99 JUMP JUMPDEST PUSH1 0x40 MLOAD PUSH1 0x20 DUP2 DUP4 SUB SUB DUP2 MSTORE SWAP1 PUSH1 0x40 MSTORE DUP1 MLOAD SWAP1 PUSH1 0x20 ADD KECCAK256 EQ JUMPDEST ISZERO PUSH2 0x21C6 JUMPI DUP3 PUSH1 0x2 DUP3 DUP2 SLOAD DUP2 LT PUSH2 0x21A0 JUMPI PUSH2 0x219F PUSH2 0x2ED6 JUMP JUMPDEST JUMPDEST SWAP1 PUSH1 0x0 MSTORE PUSH1 0x20 PUSH1 0x0 KECCAK256 SWAP1 PUSH1 0x8 MUL ADD PUSH1 0x7 ADD SWAP1 DUP1 MLOAD SWAP1 PUSH1 0x20 ADD SWAP1 PUSH2 0x21C4 SWAP3 SWAP2 SWAP1 PUSH2 0x23FF JUMP JUMPDEST POP JUMPDEST DUP1 DUP1 PUSH2 0x21D1 SWAP1 PUSH2 0x2FDF JUMP JUMPDEST SWAP2 POP POP PUSH2 0x208F JUMP JUMPDEST POP POP POP POP POP JUMP JUMPDEST PUSH2 0x2210 DUP3 PUSH1 0x1 DUP4 PUSH1 0x40 MLOAD PUSH2 0x21F4 SWAP2 SWAP1 PUSH2 0x2E2F JUMP JUMPDEST SWAP1 DUP2 MSTORE PUSH1 0x20 ADD PUSH1 0x40 MLOAD DUP1 SWAP2 SUB SWAP1 KECCAK256 PUSH2 0x23A1 SWAP1 SWAP2 SWAP1 PUSH4 0xFFFFFFFF AND JUMP JUMPDEST PUSH32 0xD211483F91FC6EFF862467F8DE606587A30C8FC9981056F051B897A418DF803A DUP3 DUP3 PUSH1 0x40 MLOAD PUSH2 0x2241 SWAP3 SWAP2 SWAP1 PUSH2 0x2E46 JUMP JUMPDEST PUSH1 0x40 MLOAD DUP1 SWAP2 SUB SWAP1 LOG1 POP POP JUMP JUMPDEST PUSH1 0x1 DUP3 PUSH1 0x0 ADD PUSH1 0x0 DUP4 PUSH20 0xFFFFFFFFFFFFFFFFFFFFFFFFFFFFFFFFFFFFFFFF AND PUSH20 0xFFFFFFFFFFFFFFFFFFFFFFFFFFFFFFFFFFFFFFFF AND DUP2 MSTORE PUSH1 0x20 ADD SWAP1 DUP2 MSTORE PUSH1 0x20 ADD PUSH1 0x0 KECCAK256 PUSH1 0x0 PUSH2 0x100 EXP DUP2 SLOAD DUP2 PUSH1 0xFF MUL NOT AND SWAP1 DUP4 ISZERO ISZERO MUL OR SWAP1 SSTORE POP POP POP JUMP JUMPDEST PUSH1 0x0 PUSH20 0xFFFFFFFFFFFFFFFFFFFFFFFFFFFFFFFFFFFFFFFF AND DUP2 PUSH20 0xFFFFFFFFFFFFFFFFFFFFFFFFFFFFFFFFFFFFFFFF AND SUB PUSH2 0x22E4 JUMPI PUSH1 0x0 DUP1 REVERT JUMPDEST DUP1 PUSH20 0xFFFFFFFFFFFFFFFFFFFFFFFFFFFFFFFFFFFFFFFF AND PUSH1 0x0 DUP1 SLOAD SWAP1 PUSH2 0x100 EXP SWAP1 DIV PUSH20 0xFFFFFFFFFFFFFFFFFFFFFFFFFFFFFFFFFFFFFFFF AND PUSH20 0xFFFFFFFFFFFFFFFFFFFFFFFFFFFFFFFFFFFFFFFF AND PUSH32 0x8BE0079C531659141344CD1FD0A4F28419497F9722A3DAAFE3B4186F6B6457E0 PUSH1 0x40 MLOAD PUSH1 0x40 MLOAD DUP1 SWAP2 SUB SWAP1 LOG3 DUP1 PUSH1 0x0 DUP1 PUSH2 0x100 EXP DUP2 SLOAD DUP2 PUSH20 0xFFFFFFFFFFFFFFFFFFFFFFFFFFFFFFFFFFFFFFFF MUL NOT AND SWAP1 DUP4 PUSH20 0xFFFFFFFFFFFFFFFFFFFFFFFFFFFFFFFFFFFFFFFF AND MUL OR SWAP1 SSTORE POP POP JUMP JUMPDEST PUSH1 0x0 DUP3 PUSH1 0x0 ADD PUSH1 0x0 DUP4 PUSH20 0xFFFFFFFFFFFFFFFFFFFFFFFFFFFFFFFFFFFFFFFF AND PUSH20 0xFFFFFFFFFFFFFFFFFFFFFFFFFFFFFFFFFFFFFFFF AND DUP2 MSTORE PUSH1 0x20 ADD SWAP1 DUP2 MSTORE PUSH1 0x20 ADD PUSH1 0x0 KECCAK256 PUSH1 0x0 PUSH2 0x100 EXP DUP2 SLOAD DUP2 PUSH1 0xFF MUL NOT AND SWAP1 DUP4 ISZERO ISZERO MUL OR SWAP1 SSTORE POP POP POP JUMP JUMPDEST DUP3 DUP1 SLOAD PUSH2 0x240B SWAP1 PUSH2 0x2EA5 JUMP JUMPDEST SWAP1 PUSH1 0x0 MSTORE PUSH1 0x20 PUSH1 0x0 KECCAK256 SWAP1 PUSH1 0x1F ADD PUSH1 0x20 SWAP1 DIV DUP2 ADD SWAP3 DUP3 PUSH2 0x242D JUMPI PUSH1 0x0 DUP6 SSTORE PUSH2 0x2474 JUMP JUMPDEST DUP3 PUSH1 0x1F LT PUSH2 0x2446 JUMPI DUP1 MLOAD PUSH1 0xFF NOT AND DUP4 DUP1 ADD OR DUP6 SSTORE PUSH2 0x2474 JUMP JUMPDEST DUP3 DUP1 ADD PUSH1 0x1 ADD DUP6 SSTORE DUP3 ISZERO PUSH2 0x2474 JUMPI SWAP2 DUP3 ADD JUMPDEST DUP3 DUP2 GT ISZERO PUSH2 0x2473 JUMPI DUP3 MLOAD DUP3 SSTORE SWAP2 PUSH1 0x20 ADD SWAP2 SWAP1 PUSH1 0x1 ADD SWAP1 PUSH2 0x2458 JUMP JUMPDEST JUMPDEST POP SWAP1 POP PUSH2 0x2481 SWAP2 SWAP1 PUSH2 0x24E5 JUMP JUMPDEST POP SWAP1 JUMP JUMPDEST DUP3 DUP1 SLOAD DUP3 DUP3 SSTORE SWAP1 PUSH1 0x0 MSTORE PUSH1 0x20 PUSH1 0x0 KECCAK256 SWAP1 DUP2 ADD SWAP3 DUP3 ISZERO PUSH2 0x24D4 JUMPI SWAP2 PUSH1 0x20 MUL DUP3 ADD JUMPDEST DUP3 DUP2 GT ISZERO PUSH2 0x24D3 JUMPI DUP3 MLOAD DUP3 SWAP1 DUP1 MLOAD SWAP1 PUSH1 0x20 ADD SWAP1 PUSH2 0x24C3 SWAP3 SWAP2 SWAP1 PUSH2 0x23FF JUMP JUMPDEST POP SWAP2 PUSH1 0x20 ADD SWAP2 SWAP1 PUSH1 0x1 ADD SWAP1 PUSH2 0x24A5 JUMP JUMPDEST JUMPDEST POP SWAP1 POP PUSH2 0x24E1 SWAP2 SWAP1 PUSH2 0x2502 JUMP JUMPDEST POP SWAP1 JUMP JUMPDEST JUMPDEST DUP1 DUP3 GT ISZERO PUSH2 0x24FE JUMPI PUSH1 0x0 DUP2 PUSH1 0x0 SWAP1 SSTORE POP PUSH1 0x1 ADD PUSH2 0x24E6 JUMP JUMPDEST POP SWAP1 JUMP JUMPDEST JUMPDEST DUP1 DUP3 GT ISZERO PUSH2 0x2522 JUMPI PUSH1 0x0 DUP2 DUP2 PUSH2 0x2519 SWAP2 SWAP1 PUSH2 0x2526 JUMP JUMPDEST POP PUSH1 0x1 ADD PUSH2 0x2503 JUMP JUMPDEST POP SWAP1 JUMP JUMPDEST POP DUP1 SLOAD PUSH2 0x2532 SWAP1 PUSH2 0x2EA5 JUMP JUMPDEST PUSH1 0x0 DUP3 SSTORE DUP1 PUSH1 0x1F LT PUSH2 0x2544 JUMPI POP PUSH2 0x2563 JUMP JUMPDEST PUSH1 0x1F ADD PUSH1 0x20 SWAP1 DIV SWAP1 PUSH1 0x0 MSTORE PUSH1 0x20 PUSH1 0x0 KECCAK256 SWAP1 DUP2 ADD SWAP1 PUSH2 0x2562 SWAP2 SWAP1 PUSH2 0x24E5 JUMP JUMPDEST JUMPDEST POP JUMP JUMPDEST PUSH1 0x0 PUSH1 0x40 MLOAD SWAP1 POP SWAP1 JUMP JUMPDEST PUSH1 0x0 DUP1 REVERT JUMPDEST PUSH1 0x0 DUP1 REVERT JUMPDEST PUSH1 0x0 PUSH20 0xFFFFFFFFFFFFFFFFFFFFFFFFFFFFFFFFFFFFFFFF DUP3 AND SWAP1 POP SWAP2 SWAP1 POP JUMP JUMPDEST PUSH1 0x0 PUSH2 0x25A5 DUP3 PUSH2 0x257A JUMP JUMPDEST SWAP1 POP SWAP2 SWAP1 POP JUMP JUMPDEST PUSH2 0x25B5 DUP2 PUSH2 0x259A JUMP JUMPDEST DUP2 EQ PUSH2 0x25C0 JUMPI PUSH1 0x0 DUP1 REVERT JUMPDEST POP JUMP JUMPDEST PUSH1 0x0 DUP2 CALLDATALOAD SWAP1 POP PUSH2 0x25D2 DUP2 PUSH2 0x25AC JUMP JUMPDEST SWAP3 SWAP2 POP POP JUMP JUMPDEST PUSH1 0x0 DUP1 REVERT JUMPDEST PUSH1 0x0 DUP1 REVERT JUMPDEST PUSH1 0x0 PUSH1 0x1F NOT PUSH1 0x1F DUP4 ADD AND SWAP1 POP SWAP2 SWAP1 POP JUMP JUMPDEST PUSH32 0x4E487B7100000000000000000000000000000000000000000000000000000000 PUSH1 0x0 MSTORE PUSH1 0x41 PUSH1 0x4 MSTORE PUSH1 0x24 PUSH1 0x0 REVERT JUMPDEST PUSH2 0x262B DUP3 PUSH2 0x25E2 JUMP JUMPDEST DUP2 ADD DUP2 DUP2 LT PUSH8 0xFFFFFFFFFFFFFFFF DUP3 GT OR ISZERO PUSH2 0x264A JUMPI PUSH2 0x2649 PUSH2 0x25F3 JUMP JUMPDEST JUMPDEST DUP1 PUSH1 0x40 MSTORE POP POP POP JUMP JUMPDEST PUSH1 0x0 PUSH2 0x265D PUSH2 0x2566 JUMP JUMPDEST SWAP1 POP PUSH2 0x2669 DUP3 DUP3 PUSH2 0x2622 JUMP JUMPDEST SWAP2 SWAP1 POP JUMP JUMPDEST PUSH1 0x0 PUSH8 0xFFFFFFFFFFFFFFFF DUP3 GT ISZERO PUSH2 0x2689 JUMPI PUSH2 0x2688 PUSH2 0x25F3 JUMP JUMPDEST JUMPDEST PUSH2 0x2692 DUP3 PUSH2 0x25E2 JUMP JUMPDEST SWAP1 POP PUSH1 0x20 DUP2 ADD SWAP1 POP SWAP2 SWAP1 POP JUMP JUMPDEST DUP3 DUP2 DUP4 CALLDATACOPY PUSH1 0x0 DUP4 DUP4 ADD MSTORE POP POP POP JUMP JUMPDEST PUSH1 0x0 PUSH2 0x26C1 PUSH2 0x26BC DUP5 PUSH2 0x266E JUMP JUMPDEST PUSH2 0x2653 JUMP JUMPDEST SWAP1 POP DUP3 DUP2 MSTORE PUSH1 0x20 DUP2 ADD DUP5 DUP5 DUP5 ADD GT ISZERO PUSH2 0x26DD JUMPI PUSH2 0x26DC PUSH2 0x25DD JUMP JUMPDEST JUMPDEST PUSH2 0x26E8 DUP5 DUP3 DUP6 PUSH2 0x269F JUMP JUMPDEST POP SWAP4 SWAP3 POP POP POP JUMP JUMPDEST PUSH1 0x0 DUP3 PUSH1 0x1F DUP4 ADD SLT PUSH2 0x2705 JUMPI PUSH2 0x2704 PUSH2 0x25D8 JUMP JUMPDEST JUMPDEST DUP2 CALLDATALOAD PUSH2 0x2715 DUP5 DUP3 PUSH1 0x20 DUP7 ADD PUSH2 0x26AE JUMP JUMPDEST SWAP2 POP POP SWAP3 SWAP2 POP POP JUMP JUMPDEST PUSH1 0x0 DUP1 PUSH1 0x40 DUP4 DUP6 SUB SLT ISZERO PUSH2 0x2735 JUMPI PUSH2 0x2734 PUSH2 0x2570 JUMP JUMPDEST JUMPDEST PUSH1 0x0 PUSH2 0x2743 DUP6 DUP3 DUP7 ADD PUSH2 0x25C3 JUMP JUMPDEST SWAP3 POP POP PUSH1 0x20 DUP4 ADD CALLDATALOAD PUSH8 0xFFFFFFFFFFFFFFFF DUP2 GT ISZERO PUSH2 0x2764 JUMPI PUSH2 0x2763 PUSH2 0x2575 JUMP JUMPDEST JUMPDEST PUSH2 0x2770 DUP6 DUP3 DUP7 ADD PUSH2 0x26F0 JUMP JUMPDEST SWAP2 POP POP SWAP3 POP SWAP3 SWAP1 POP JUMP JUMPDEST PUSH1 0x0 PUSH1 0x20 DUP3 DUP5 SUB SLT ISZERO PUSH2 0x2790 JUMPI PUSH2 0x278F PUSH2 0x2570 JUMP JUMPDEST JUMPDEST PUSH1 0x0 PUSH2 0x279E DUP5 DUP3 DUP6 ADD PUSH2 0x25C3 JUMP JUMPDEST SWAP2 POP POP SWAP3 SWAP2 POP POP JUMP JUMPDEST PUSH1 0x0 DUP1 PUSH1 0x0 DUP1 PUSH1 0x0 DUP1 PUSH1 0xC0 DUP8 DUP10 SUB SLT ISZERO PUSH2 0x27C4 JUMPI PUSH2 0x27C3 PUSH2 0x2570 JUMP JUMPDEST JUMPDEST PUSH1 0x0 DUP8 ADD CALLDATALOAD PUSH8 0xFFFFFFFFFFFFFFFF DUP2 GT ISZERO PUSH2 0x27E2 JUMPI PUSH2 0x27E1 PUSH2 0x2575 JUMP JUMPDEST JUMPDEST PUSH2 0x27EE DUP10 DUP3 DUP11 ADD PUSH2 0x26F0 JUMP JUMPDEST SWAP7 POP POP PUSH1 0x20 DUP8 ADD CALLDATALOAD PUSH8 0xFFFFFFFFFFFFFFFF DUP2 GT ISZERO PUSH2 0x280F JUMPI PUSH2 0x280E PUSH2 0x2575 JUMP JUMPDEST JUMPDEST PUSH2 0x281B DUP10 DUP3 DUP11 ADD PUSH2 0x26F0 JUMP JUMPDEST SWAP6 POP POP PUSH1 0x40 DUP8 ADD CALLDATALOAD PUSH8 0xFFFFFFFFFFFFFFFF DUP2 GT ISZERO PUSH2 0x283C JUMPI PUSH2 0x283B PUSH2 0x2575 JUMP JUMPDEST JUMPDEST PUSH2 0x2848 DUP10 DUP3 DUP11 ADD PUSH2 0x26F0 JUMP JUMPDEST SWAP5 POP POP PUSH1 0x60 DUP8 ADD CALLDATALOAD PUSH8 0xFFFFFFFFFFFFFFFF DUP2 GT ISZERO PUSH2 0x2869 JUMPI PUSH2 0x2868 PUSH2 0x2575 JUMP JUMPDEST JUMPDEST PUSH2 0x2875 DUP10 DUP3 DUP11 ADD PUSH2 0x26F0 JUMP JUMPDEST SWAP4 POP POP PUSH1 0x80 DUP8 ADD CALLDATALOAD PUSH8 0xFFFFFFFFFFFFFFFF DUP2 GT ISZERO PUSH2 0x2896 JUMPI PUSH2 0x2895 PUSH2 0x2575 JUMP JUMPDEST JUMPDEST PUSH2 0x28A2 DUP10 DUP3 DUP11 ADD PUSH2 0x26F0 JUMP JUMPDEST SWAP3 POP POP PUSH1 0xA0 DUP8 ADD CALLDATALOAD PUSH8 0xFFFFFFFFFFFFFFFF DUP2 GT ISZERO PUSH2 0x28C3 JUMPI PUSH2 0x28C2 PUSH2 0x2575 JUMP JUMPDEST JUMPDEST PUSH2 0x28CF DUP10 DUP3 DUP11 ADD PUSH2 0x26F0 JUMP JUMPDEST SWAP2 POP POP SWAP3 SWAP6 POP SWAP3 SWAP6 POP SWAP3 SWAP6 JUMP JUMPDEST PUSH1 0x0 DUP2 ISZERO ISZERO SWAP1 POP SWAP2 SWAP1 POP JUMP JUMPDEST PUSH2 0x28F1 DUP2 PUSH2 0x28DC JUMP JUMPDEST DUP3 MSTORE POP POP JUMP JUMPDEST PUSH1 0x0 PUSH1 0x20 DUP3 ADD SWAP1 POP PUSH2 0x290C PUSH1 0x0 DUP4 ADD DUP5 PUSH2 0x28E8 JUMP JUMPDEST SWAP3 SWAP2 POP POP JUMP JUMPDEST PUSH1 0x0 DUP2 SWAP1 POP SWAP2 SWAP1 POP JUMP JUMPDEST PUSH2 0x2925 DUP2 PUSH2 0x2912 JUMP JUMPDEST DUP2 EQ PUSH2 0x2930 JUMPI PUSH1 0x0 DUP1 REVERT JUMPDEST POP JUMP JUMPDEST PUSH1 0x0 DUP2 CALLDATALOAD SWAP1 POP PUSH2 0x2942 DUP2 PUSH2 0x291C JUMP JUMPDEST SWAP3 SWAP2 POP POP JUMP JUMPDEST PUSH1 0x0 PUSH1 0x20 DUP3 DUP5 SUB SLT ISZERO PUSH2 0x295E JUMPI PUSH2 0x295D PUSH2 0x2570 JUMP JUMPDEST JUMPDEST PUSH1 0x0 PUSH2 0x296C DUP5 DUP3 DUP6 ADD PUSH2 0x2933 JUMP JUMPDEST SWAP2 POP POP SWAP3 SWAP2 POP POP JUMP JUMPDEST PUSH1 0x0 DUP2 MLOAD SWAP1 POP SWAP2 SWAP1 POP JUMP JUMPDEST PUSH1 0x0 DUP3 DUP3 MSTORE PUSH1 0x20 DUP3 ADD SWAP1 POP SWAP3 SWAP2 POP POP JUMP JUMPDEST PUSH1 0x0 JUMPDEST DUP4 DUP2 LT ISZERO PUSH2 0x29AF JUMPI DUP1 DUP3 ADD MLOAD DUP2 DUP5 ADD MSTORE PUSH1 0x20 DUP2 ADD SWAP1 POP PUSH2 0x2994 JUMP JUMPDEST DUP4 DUP2 GT ISZERO PUSH2 0x29BE JUMPI PUSH1 0x0 DUP5 DUP5 ADD MSTORE JUMPDEST POP POP POP POP JUMP JUMPDEST PUSH1 0x0 PUSH2 0x29CF DUP3 PUSH2 0x2975 JUMP JUMPDEST PUSH2 0x29D9 DUP2 DUP6 PUSH2 0x2980 JUMP JUMPDEST SWAP4 POP PUSH2 0x29E9 DUP2 DUP6 PUSH1 0x20 DUP7 ADD PUSH2 0x2991 JUMP JUMPDEST PUSH2 0x29F2 DUP2 PUSH2 0x25E2 JUMP JUMPDEST DUP5 ADD SWAP2 POP POP SWAP3 SWAP2 POP POP JUMP JUMPDEST PUSH2 0x2A06 DUP2 PUSH2 0x259A JUMP JUMPDEST DUP3 MSTORE POP POP JUMP JUMPDEST PUSH1 0x0 PUSH2 0x100 DUP3 ADD SWAP1 POP DUP2 DUP2 SUB PUSH1 0x0 DUP4 ADD MSTORE PUSH2 0x2A27 DUP2 DUP12 PUSH2 0x29C4 JUMP JUMPDEST SWAP1 POP DUP2 DUP2 SUB PUSH1 0x20 DUP4 ADD MSTORE PUSH2 0x2A3B DUP2 DUP11 PUSH2 0x29C4 JUMP JUMPDEST SWAP1 POP DUP2 DUP2 SUB PUSH1 0x40 DUP4 ADD MSTORE PUSH2 0x2A4F DUP2 DUP10 PUSH2 0x29C4 JUMP JUMPDEST SWAP1 POP DUP2 DUP2 SUB PUSH1 0x60 DUP4 ADD MSTORE PUSH2 0x2A63 DUP2 DUP9 PUSH2 0x29C4 JUMP JUMPDEST SWAP1 POP PUSH2 0x2A72 PUSH1 0x80 DUP4 ADD DUP8 PUSH2 0x29FD JUMP JUMPDEST DUP2 DUP2 SUB PUSH1 0xA0 DUP4 ADD MSTORE PUSH2 0x2A84 DUP2 DUP7 PUSH2 0x29C4 JUMP JUMPDEST SWAP1 POP DUP2 DUP2 SUB PUSH1 0xC0 DUP4 ADD MSTORE PUSH2 0x2A98 DUP2 DUP6 PUSH2 0x29C4 JUMP JUMPDEST SWAP1 POP DUP2 DUP2 SUB PUSH1 0xE0 DUP4 ADD MSTORE PUSH2 0x2AAC DUP2 DUP5 PUSH2 0x29C4 JUMP JUMPDEST SWAP1 POP SWAP10 SWAP9 POP POP POP POP POP POP POP POP POP JUMP JUMPDEST PUSH1 0x0 PUSH1 0x20 DUP3 ADD SWAP1 POP DUP2 DUP2 SUB PUSH1 0x0 DUP4 ADD MSTORE PUSH2 0x2AD5 DUP2 DUP5 PUSH2 0x29C4 JUMP JUMPDEST SWAP1 POP SWAP3 SWAP2 POP POP JUMP JUMPDEST PUSH1 0x0 PUSH1 0x20 DUP3 ADD SWAP1 POP PUSH2 0x2AF2 PUSH1 0x0 DUP4 ADD DUP5 PUSH2 0x29FD JUMP JUMPDEST SWAP3 SWAP2 POP POP JUMP JUMPDEST PUSH1 0x0 DUP2 MLOAD SWAP1 POP SWAP2 SWAP1 POP JUMP JUMPDEST PUSH1 0x0 DUP3 DUP3 MSTORE PUSH1 0x20 DUP3 ADD SWAP1 POP SWAP3 SWAP2 POP POP JUMP JUMPDEST PUSH1 0x0 DUP2 SWAP1 POP PUSH1 0x20 DUP3 ADD SWAP1 POP SWAP2 SWAP1 POP JUMP JUMPDEST PUSH1 0x0 DUP3 DUP3 MSTORE PUSH1 0x20 DUP3 ADD SWAP1 POP SWAP3 SWAP2 POP POP JUMP JUMPDEST PUSH1 0x0 PUSH2 0x2B40 DUP3 PUSH2 0x2975 JUMP JUMPDEST PUSH2 0x2B4A DUP2 DUP6 PUSH2 0x2B24 JUMP JUMPDEST SWAP4 POP PUSH2 0x2B5A DUP2 DUP6 PUSH1 0x20 DUP7 ADD PUSH2 0x2991 JUMP JUMPDEST PUSH2 0x2B63 DUP2 PUSH2 0x25E2 JUMP JUMPDEST DUP5 ADD SWAP2 POP POP SWAP3 SWAP2 POP POP JUMP JUMPDEST PUSH2 0x2B77 DUP2 PUSH2 0x259A JUMP JUMPDEST DUP3 MSTORE POP POP JUMP JUMPDEST PUSH1 0x0 PUSH2 0x100 DUP4 ADD PUSH1 0x0 DUP4 ADD MLOAD DUP5 DUP3 SUB PUSH1 0x0 DUP7 ADD MSTORE PUSH2 0x2B9B DUP3 DUP3 PUSH2 0x2B35 JUMP JUMPDEST SWAP2 POP POP PUSH1 0x20 DUP4 ADD MLOAD DUP5 DUP3 SUB PUSH1 0x20 DUP7 ADD MSTORE PUSH2 0x2BB5 DUP3 DUP3 PUSH2 0x2B35 JUMP JUMPDEST SWAP2 POP POP PUSH1 0x40 DUP4 ADD MLOAD DUP5 DUP3 SUB PUSH1 0x40 DUP7 ADD MSTORE PUSH2 0x2BCF DUP3 DUP3 PUSH2 0x2B35 JUMP JUMPDEST SWAP2 POP POP PUSH1 0x60 DUP4 ADD MLOAD DUP5 DUP3 SUB PUSH1 0x60 DUP7 ADD MSTORE PUSH2 0x2BE9 DUP3 DUP3 PUSH2 0x2B35 JUMP JUMPDEST SWAP2 POP POP PUSH1 0x80 DUP4 ADD MLOAD PUSH2 0x2BFE PUSH1 0x80 DUP7 ADD DUP3 PUSH2 0x2B6E JUMP JUMPDEST POP PUSH1 0xA0 DUP4 ADD MLOAD DUP5 DUP3 SUB PUSH1 0xA0 DUP7 ADD MSTORE PUSH2 0x2C16 DUP3 DUP3 PUSH2 0x2B35 JUMP JUMPDEST SWAP2 POP POP PUSH1 0xC0 DUP4 ADD MLOAD DUP5 DUP3 SUB PUSH1 0xC0 DUP7 ADD MSTORE PUSH2 0x2C30 DUP3 DUP3 PUSH2 0x2B35 JUMP JUMPDEST SWAP2 POP POP PUSH1 0xE0 DUP4 ADD MLOAD DUP5 DUP3 SUB PUSH1 0xE0 DUP7 ADD MSTORE PUSH2 0x2C4A DUP3 DUP3 PUSH2 0x2B35 JUMP JUMPDEST SWAP2 POP POP DUP1 SWAP2 POP POP SWAP3 SWAP2 POP POP JUMP JUMPDEST PUSH1 0x0 PUSH2 0x2C63 DUP4 DUP4 PUSH2 0x2B7D JUMP JUMPDEST SWAP1 POP SWAP3 SWAP2 POP POP JUMP JUMPDEST PUSH1 0x0 PUSH1 0x20 DUP3 ADD SWAP1 POP SWAP2 SWAP1 POP JUMP JUMPDEST PUSH1 0x0 PUSH2 0x2C83 DUP3 PUSH2 0x2AF8 JUMP JUMPDEST PUSH2 0x2C8D DUP2 DUP6 PUSH2 0x2B03 JUMP JUMPDEST SWAP4 POP DUP4 PUSH1 0x20 DUP3 MUL DUP6 ADD PUSH2 0x2C9F DUP6 PUSH2 0x2B14 JUMP JUMPDEST DUP1 PUSH1 0x0 JUMPDEST DUP6 DUP2 LT ISZERO PUSH2 0x2CDB JUMPI DUP5 DUP5 SUB DUP10 MSTORE DUP2 MLOAD PUSH2 0x2CBC DUP6 DUP3 PUSH2 0x2C57 JUMP JUMPDEST SWAP5 POP PUSH2 0x2CC7 DUP4 PUSH2 0x2C6B JUMP JUMPDEST SWAP3 POP PUSH1 0x20 DUP11 ADD SWAP10 POP POP PUSH1 0x1 DUP2 ADD SWAP1 POP PUSH2 0x2CA3 JUMP JUMPDEST POP DUP3 SWAP8 POP DUP8 SWAP6 POP POP POP POP POP POP SWAP3 SWAP2 POP POP JUMP JUMPDEST PUSH1 0x0 PUSH1 0x20 DUP3 ADD SWAP1 POP DUP2 DUP2 SUB PUSH1 0x0 DUP4 ADD MSTORE PUSH2 0x2D07 DUP2 DUP5 PUSH2 0x2C78 JUMP JUMPDEST SWAP1 POP SWAP3 SWAP2 POP POP JUMP JUMPDEST PUSH1 0x0 DUP2 MLOAD SWAP1 POP SWAP2 SWAP1 POP JUMP JUMPDEST PUSH1 0x0 DUP3 DUP3 MSTORE PUSH1 0x20 DUP3 ADD SWAP1 POP SWAP3 SWAP2 POP POP JUMP JUMPDEST PUSH1 0x0 DUP2 SWAP1 POP PUSH1 0x20 DUP3 ADD SWAP1 POP SWAP2 SWAP1 POP JUMP JUMPDEST PUSH1 0x0 PUSH2 0x2D47 DUP4 DUP4 PUSH2 0x2B35 JUMP JUMPDEST SWAP1 POP SWAP3 SWAP2 POP POP JUMP JUMPDEST PUSH1 0x0 PUSH1 0x20 DUP3 ADD SWAP1 POP SWAP2 SWAP1 POP JUMP JUMPDEST PUSH1 0x0 PUSH2 0x2D67 DUP3 PUSH2 0x2D0F JUMP JUMPDEST PUSH2 0x2D71 DUP2 DUP6 PUSH2 0x2D1A JUMP JUMPDEST SWAP4 POP DUP4 PUSH1 0x20 DUP3 MUL DUP6 ADD PUSH2 0x2D83 DUP6 PUSH2 0x2D2B JUMP JUMPDEST DUP1 PUSH1 0x0 JUMPDEST DUP6 DUP2 LT ISZERO PUSH2 0x2DBF JUMPI DUP5 DUP5 SUB DUP10 MSTORE DUP2 MLOAD PUSH2 0x2DA0 DUP6 DUP3 PUSH2 0x2D3B JUMP JUMPDEST SWAP5 POP PUSH2 0x2DAB DUP4 PUSH2 0x2D4F JUMP JUMPDEST SWAP3 POP PUSH1 0x20 DUP11 ADD SWAP10 POP POP PUSH1 0x1 DUP2 ADD SWAP1 POP PUSH2 0x2D87 JUMP JUMPDEST POP DUP3 SWAP8 POP DUP8 SWAP6 POP POP POP POP POP POP SWAP3 SWAP2 POP POP JUMP JUMPDEST PUSH1 0x0 PUSH1 0x20 DUP3 ADD SWAP1 POP DUP2 DUP2 SUB PUSH1 0x0 DUP4 ADD MSTORE PUSH2 0x2DEB DUP2 DUP5 PUSH2 0x2D5C JUMP JUMPDEST SWAP1 POP SWAP3 SWAP2 POP POP JUMP JUMPDEST PUSH1 0x0 DUP2 SWAP1 POP SWAP3 SWAP2 POP POP JUMP JUMPDEST PUSH1 0x0 PUSH2 0x2E09 DUP3 PUSH2 0x2975 JUMP JUMPDEST PUSH2 0x2E13 DUP2 DUP6 PUSH2 0x2DF3 JUMP JUMPDEST SWAP4 POP PUSH2 0x2E23 DUP2 DUP6 PUSH1 0x20 DUP7 ADD PUSH2 0x2991 JUMP JUMPDEST DUP1 DUP5 ADD SWAP2 POP POP SWAP3 SWAP2 POP POP JUMP JUMPDEST PUSH1 0x0 PUSH2 0x2E3B DUP3 DUP5 PUSH2 0x2DFE JUMP JUMPDEST SWAP2 POP DUP2 SWAP1 POP SWAP3 SWAP2 POP POP JUMP JUMPDEST PUSH1 0x0 PUSH1 0x40 DUP3 ADD SWAP1 POP PUSH2 0x2E5B PUSH1 0x0 DUP4 ADD DUP6 PUSH2 0x29FD JUMP JUMPDEST DUP2 DUP2 SUB PUSH1 0x20 DUP4 ADD MSTORE PUSH2 0x2E6D DUP2 DUP5 PUSH2 0x29C4 JUMP JUMPDEST SWAP1 POP SWAP4 SWAP3 POP POP POP JUMP JUMPDEST PUSH32 0x4E487B7100000000000000000000000000000000000000000000000000000000 PUSH1 0x0 MSTORE PUSH1 0x22 PUSH1 0x4 MSTORE PUSH1 0x24 PUSH1 0x0 REVERT JUMPDEST PUSH1 0x0 PUSH1 0x2 DUP3 DIV SWAP1 POP PUSH1 0x1 DUP3 AND DUP1 PUSH2 0x2EBD JUMPI PUSH1 0x7F DUP3 AND SWAP2 POP JUMPDEST PUSH1 0x20 DUP3 LT DUP2 SUB PUSH2 0x2ED0 JUMPI PUSH2 0x2ECF PUSH2 0x2E76 JUMP JUMPDEST JUMPDEST POP SWAP2 SWAP1 POP JUMP JUMPDEST PUSH32 0x4E487B7100000000000000000000000000000000000000000000000000000000 PUSH1 0x0 MSTORE PUSH1 0x32 PUSH1 0x4 MSTORE PUSH1 0x24 PUSH1 0x0 REVERT JUMPDEST PUSH1 0x0 DUP2 SWAP1 POP DUP2 PUSH1 0x0 MSTORE PUSH1 0x20 PUSH1 0x0 KECCAK256 SWAP1 POP SWAP2 SWAP1 POP JUMP JUMPDEST PUSH1 0x0 DUP2 SLOAD PUSH2 0x2F27 DUP2 PUSH2 0x2EA5 JUMP JUMPDEST PUSH2 0x2F31 DUP2 DUP7 PUSH2 0x2DF3 JUMP JUMPDEST SWAP5 POP PUSH1 0x1 DUP3 AND PUSH1 0x0 DUP2 EQ PUSH2 0x2F4C JUMPI PUSH1 0x1 DUP2 EQ PUSH2 0x2F5D JUMPI PUSH2 0x2F90 JUMP JUMPDEST PUSH1 0xFF NOT DUP4 AND DUP7 MSTORE DUP2 DUP7 ADD SWAP4 POP PUSH2 0x2F90 JUMP JUMPDEST PUSH2 0x2F66 DUP6 PUSH2 0x2F05 JUMP JUMPDEST PUSH1 0x0 JUMPDEST DUP4 DUP2 LT ISZERO PUSH2 0x2F88 JUMPI DUP2 SLOAD DUP2 DUP10 ADD MSTORE PUSH1 0x1 DUP3 ADD SWAP2 POP PUSH1 0x20 DUP2 ADD SWAP1 POP PUSH2 0x2F69 JUMP JUMPDEST DUP4 DUP9 ADD SWAP6 POP POP POP JUMPDEST POP POP POP SWAP3 SWAP2 POP POP JUMP JUMPDEST PUSH1 0x0 PUSH2 0x2FA5 DUP3 DUP5 PUSH2 0x2F1A JUMP JUMPDEST SWAP2 POP DUP2 SWAP1 POP SWAP3 SWAP2 POP POP JUMP JUMPDEST PUSH32 0x4E487B7100000000000000000000000000000000000000000000000000000000 PUSH1 0x0 MSTORE PUSH1 0x11 PUSH1 0x4 MSTORE PUSH1 0x24 PUSH1 0x0 REVERT JUMPDEST PUSH1 0x0 PUSH2 0x2FEA DUP3 PUSH2 0x2912 JUMP JUMPDEST SWAP2 POP PUSH32 0xFFFFFFFFFFFFFFFFFFFFFFFFFFFFFFFFFFFFFFFFFFFFFFFFFFFFFFFFFFFFFFFF DUP3 SUB PUSH2 0x301C JUMPI PUSH2 0x301B PUSH2 0x2FB0 JUMP JUMPDEST JUMPDEST PUSH1 0x1 DUP3 ADD SWAP1 POP SWAP2 SWAP1 POP JUMP INVALID LOG2 PUSH5 0x6970667358 0x22 SLT KECCAK256 DUP7 0xD1 0xD6 SWAP2 DELEGATECALL PUSH31 0x815AD68E1B1345E3BCCC55A97D1C4B8DFAF89473D47B8A5CE1F64736F6C63 NUMBER STOP ADDMOD 0xD STOP CALLER "},"gasEstimates":{"creation":{"codeDepositCost":"2476200","executionCost":"26931","totalCost":"2503131"},"external":{"FUND_APPROVER()":"infinite","FUND_CONTRIBUTOR()":"infinite","FUND_RAISER()":"infinite","addAddressToFundApprover(address)":"infinite","addAddressToFundContributor(address)":"infinite","addAddressToFundRaiser(address)":"infinite","addRole(address,string)":"infinite","approveKYCRequest(address,string)":"infinite","checkRole(address,string)":"infinite","createKYCRequest(string,string,string,string,string,string)":"infinite","fetchKYCRequests()":"infinite","getRolesOfUser(address)":"infinite","hasRole(address,string)":"infinite","isFundApprover(address)":"infinite","isFundContributor(address)":"infinite","isFundRaiser(address)":"infinite","kycRequests(uint256)":"infinite","owner()":"2622","rejectKYCRequest(address,string)":"infinite","removeAddressFromFundApprover(address)":"infinite","removeAddressFromFundContributor(address)":"infinite","removeAddressFromFundRaiser(address)":"infinite","renounceOwnership()":"30005","transferOwnership(address)":"30763"},"internal":{"updateStatusOfRequest(address,string memory,string memory)":"infinite"}},"methodIdentifiers":{"FUND_APPROVER()":"e2c1ca20","FUND_CONTRIBUTOR()":"b3a6ad09","FUND_RAISER()":"82c25e72","addAddressToFundApprover(address)":"564f63c4","addAddressToFundContributor(address)":"47ab42cd","addAddressToFundRaiser(address)":"0e07d45b","addRole(address,string)":"7d72aa65","approveKYCRequest(address,string)":"2234ab57","checkRole(address,string)":"0988ca8c","createKYCRequest(string,string,string,string,string,string)":"19a80f5d","fetchKYCRequests()":"a0874b90","getRolesOfUser(address)":"dca51ef7","hasRole(address,string)":"217fe6c6","isFundApprover(address)":"30d8aae7","isFundContributor(address)":"9114520d","isFundRaiser(address)":"de8dc653","kycRequests(uint256)":"2470cfe0","owner()":"8da5cb5b","rejectKYCRequest(address,string)":"782fea80","removeAddressFromFundApprover(address)":"89fdc973","removeAddressFromFundContributor(address)":"2e4e88d0","removeAddressFromFundRaiser(address)":"592c4ac4","renounceOwnership()":"715018a6","transferOwnership(address)":"f2fde38b"}},"storageLayout":{"storage":[{"astId":183,"contract":"Campaigns.sol:Whitelist","label":"owner","offset":0,"slot":"0","type":"t_address"},{"astId":84,"contract":"Campaigns.sol:Whitelist","label":"roles","offset":0,"slot":"1","type":"t_mapping(t_string_memory_ptr,t_struct(Role)6_storage)"},{"astId":346,"contract":"Campaigns.sol:Whitelist","label":"kycRequests","offset":0,"slot":"2","type":"t_array(t_struct(KYCRequest)342_storage)dyn_storage"},{"astId":691,"contract":"Campaigns.sol:Whitelist","label":"user_roles","offset":0,"slot":"3","type":"t_array(t_string_storage)dyn_storage"}],"types":{"t_address":{"encoding":"inplace","label":"address","numberOfBytes":"20"},"t_array(t_string_storage)dyn_storage":{"base":"t_string_storage","encoding":"dynamic_array","label":"string[]","numberOfBytes":"32"},"t_array(t_struct(KYCRequest)342_storage)dyn_storage":{"base":"t_struct(KYCRequest)342_storage","encoding":"dynamic_array","label":"struct Whitelist.KYCRequest[]","numberOfBytes":"32"},"t_bool":{"encoding":"inplace","label":"bool","numberOfBytes":"1"},"t_mapping(t_address,t_bool)":{"encoding":"mapping","key":"t_address","label":"mapping(address => bool)","numberOfBytes":"32","value":"t_bool"},"t_mapping(t_string_memory_ptr,t_struct(Role)6_storage)":{"encoding":"mapping","key":"t_string_memory_ptr","label":"mapping(string => struct Roles.Role)","numberOfBytes":"32","value":"t_struct(Role)6_storage"},"t_string_memory_ptr":{"encoding":"bytes","label":"string","numberOfBytes":"32"},"t_string_storage":{"encoding":"bytes","label":"string","numberOfBytes":"32"},"t_struct(KYCRequest)342_storage":{"encoding":"inplace","label":"struct Whitelist.KYCRequest","members":[{"astId":327,"contract":"Campaigns.sol:Whitelist","label":"first_Name","offset":0,"slot":"0","type":"t_string_storage"},{"astId":329,"contract":"Campaigns.sol:Whitelist","label":"last_Name","offset":0,"slot":"1","type":"t_string_storage"},{"astId":331,"contract":"Campaigns.sol:Whitelist","label":"email","offset":0,"slot":"2","type":"t_string_storage"},{"astId":333,"contract":"Campaigns.sol:Whitelist","label":"phone","offset":0,"slot":"3","type":"t_string_storage"},{"astId":335,"contract":"Campaigns.sol:Whitelist","label":"user_address","offset":0,"slot":"4","type":"t_address"},{"astId":337,"contract":"Campaigns.sol:Whitelist","label":"docType","offset":0,"slot":"5","type":"t_string_storage"},{"astId":339,"contract":"Campaigns.sol:Whitelist","label":"role_applied_for","offset":0,"slot":"6","type":"t_string_storage"},{"astId":341,"contract":"Campaigns.sol:Whitelist","label":"status","offset":0,"slot":"7","type":"t_string_storage"}],"numberOfBytes":"256"},"t_struct(Role)6_storage":{"encoding":"inplace","label":"struct Roles.Role","members":[{"astId":5,"contract":"Campaigns.sol:Whitelist","label":"bearer","offset":0,"slot":"0","type":"t_mapping(t_address,t_bool)"}],"numberOfBytes":"32"}}},"userdoc":{"kind":"user","methods":{"renounceOwnership()":{"notice":"Renouncing to ownership will leave the contract without an owner. It will not be possible to call the functions with the `onlyOwner` modifier anymore."}},"version":1}}